:100000000C9408070C944F070C944F070C944F075F
:100010000C944F070C944F070C944F070C944F0708
:100020000C944F070C944F070C94492E0C941D2FE1
:100030000C9421280C944F070C944F070C944F07F5
:100040000C944F070C944F070C944F070C944F07D8
:100050000C944F070C9478280C944F070C944F077E
:100060000C944F070C944F070C944F070C944F07B8
:100070000C944F070C944F070C944F070C944F07A8
:100080000C944F070C944F070C944F070C944F0798
:100090000C944F070C944F070C944F070C944F0788
:1000A0000C944F070C944F070C944F0735001E001B
:1000B0001F0020002100220023002400250026002C
:1000C00027002A002B0014001A0008001500170052
:1000D0001C0018000C00120013004C002900040042
:1000E0001600070009000A000B000D000E000F00AB
:1000F00033003400E1001D001B000600190005005C
:100100001100100036003700380028003102E000EE
:10011000E200E30002512C002C000151500051007C
:1001200052004F0035003A003B003C003D003E00CD
:100130003F004000410042004300440029001E00EF
:100140001F0020002100220023002400250026009B
:1001500027004C0001002100220023002E023E0057
:100160003F002D002E002F00300001002800240049
:10017000250026002D004400450032006400A80040
:1001800001003100005C01000100010001000100DC
:1001900001000100AB00AA00A900AE0029003A004E
:1001A0003B003C003D003E003F004000410042005B
:1001B00043004400010001000100010001000100B2
:1001C00001000100520001000100010001000100D6
:1001D00001000100010001000100500051004F002A
:1001E00001000100390001000100010001000100CF
:1001F000010001000100010001000100005C01009C
:10020000010001000100010001000100AB00AA0093
:10021000A900AE0001000100010001000100010081
:1002200001000100010001000100010001000100C6
:1002300001000100010001000100010001000100B6
:1002400001000100010001000100010001000100A6
:100250000100010001000100010001000100010096
:100260000100010001000100010001000100010086
:100270000100010001000100010001000100010076
:100280000100010001000100010001004445425548
:10029000473A2064697361626C65642E0A004445C4
:1002A0004255473A20656E61626C65642E0A000013
:1002B000000000000000002A2B28000000000000C1
:1002C0000000000000000000000029000000002CD9
:1002D0001E3420212224342627252E362D37382778
:1002E0001E1F202122232425263333362E37381F84
:1002F0000405060708090A0B0C0D0E0F1011121346
:100300001415161718191A1B1C1D2F3130232D35E3
:100310000405060708090A0B0C0D0E0F1011121325
:100320001415161718191A1B1C1D2F3130354C00C7
:1003300000000000000000000000000000000000BD
:1003400000000000000000000000000000000000AD
:100350000000007E0F00D4FFFFFFC7000000780AF6
:10036000002530313662003A200025303258000A2C
:10037000722F6320303132333435363738394142C9
:10038000434445460A006D6B5F776865656C5F7432
:10039000696D655F746F5F6D6178203D2025640A2B
:1003A000006D6B5F776865656C5F6D61785F73701A
:1003B000656564203D2025640A006D6B5F74696D7E
:1003C000655F746F5F6D6178203D2025640A006D64
:1003D0006B5F6D61785F7370656564203D20256497
:1003E0000A006D6B5F696E74657276616C203D20EA
:1003F00025640A006D6B5F64656C6179203D202582
:10040000640A006D6B5F776865656C5F74696D6524
:100410005F746F5F6D6178203D2025640A006D6B0D
:100420005F776865656C5F6D61785F737065656443
:10043000203D2025640A006D6B5F74696D655F74F3
:100440006F5F6D6178203D2025640A006D6B5F6DE4
:1004500061785F7370656564203D2025640A006DD6
:100460006B5F696E74657276616C203D2025640A4D
:10047000006D6B5F64656C6179203D2025640A0026
:100480000A00257500363A20776865656C5F7469E7
:100490006D655F746F5F6D61783A20000A002575A5
:1004A00000353A20776865656C5F6D61785F7370C1
:1004B0006565643A20000A00257500343A207469A5
:1004C0006D655F746F5F6D61783A20000A00257575
:1004D00000333A206D61785F73706565643A20007F
:1004E0000A00257500323A20696E74657276616C77
:1004F000286D73293A20000A00257500313A2064DE
:10050000656C6179282A31306D73293A20000A0917
:100510002D2056616C756573202D0A004D3E004DEF
:1005200025643E20003F0073657420646566617534
:100530006C740A00433E200077686572652064652C
:100540006C74613A20637572736F723D25642C2060
:10055000776865656C3D25640A5365652068747429
:10056000703A2F2F656E2E77696B697065646961CB
:100570002E6F72672F77696B692F4D6F7573655F8B
:100580006B6579730A000A092D204D6F7573656BD1
:100590006579202D0A4553432F713A0971756974A5
:1005A0000A313A0964656C6179282A31306D732902
:1005B0000A323A09696E74657276616C286D732926
:1005C0000A333A096D61785F73706565640A343A7D
:1005D0000974696D655F746F5F6D61780A353A09FA
:1005E000776865656C5F6D61785F73706565640AD7
:1005F000363A09776865656C5F74696D655F746F1D
:100600005F6D61780A0A703A097072696E742076BB
:10061000616C7565730A643A097365742064656674
:1006200061756C74730A75703A092B310A646F77BF
:100630006E3A092D310A706775703A092B31300A0C
:100640007067646F776E3A092D31300A0A737065EE
:100650006564203D2064656C7461202A206D61789A
:100660005F7370656564202A202872657065617407
:10067000202F2074696D655F746F5F6D6178290A42
:10068000003F004D3E2000433E20004C25640A0000
:1006900074696D65725F72656164333228293A202E
:1006A0002530346C580A006B6579626F6172645F43
:1006B00069646C653A2025580A006B6579626F6140
:1006C00072645F70726F746F636F6C3A2025580AA2
:1006D00000686F73745F6B6579626F6172645F6CE1
:1006E00065647328293A2025580A000A092D2053E9
:1006F0007461747573202D0A004743433A20382EE5
:10070000342E30204156522D4C4942433A20322E4D
:10071000302E30204156525F415243483A20617694
:1007200072350A004F5054494F4E533A204C5546AB
:1007300041204D4F5553454B455920455854524142
:100740004B455920434F4E534F4C4520434F4D4D41
:10075000414E4420343039360A004255494C443A1F
:100760002020284A616E2032302032303234290A6B
:10077000005649443A2030783432373328426F618A
:100780007264736F7572636529205049443A203052
:100790007830353132283578313229205645523A71
:1007A000203078303030300A000A092D205665722A
:1007B00073696F6E202D0A000A092D20436F6E7336
:1007C0006F6C65202D0A4553432F713A0971756985
:1007D000740A6D3A096D6F7573656B65790A000A65
:1007E000092D204D61676963202D0A443A0944654B
:1007F000627567204D65737361676520546F676725
:100800006C650A583A094D617472697820446562D2
:100810007567204D6F646520546F67676C65202D88
:100820002053686F77206B65797072657373657399
:1008300020696E206D617472697820677269640A3C
:100840004B3A094B6579626F617264204465627549
:100850006720546F67676C65202D2053686F772081
:100860006B65797072657373207265706F72740A4C
:100870004D3A094465627567204D6F757365205464
:100880006F67676C650A563A0956657273696F6ED1
:100890000A533A095374617475730A433A09416300
:1008A00074697661746520436F6E736F6C65204D5B
:1008B0006F64650A46312D4631303A0953776974C1
:1008C000636820746F204C6179657220302D392067
:1008D00028463130203D204C30290A302D393A0944
:1008E00053776974636820746F204C617965722056
:1008F000302D390A47524156453A09537769746396
:100900006820746F204C6179657220302028616CFA
:100910007465726E617465290A423A094A756D7090
:1009200020746F20426F6F746C6F616465720A454A
:1009300053433A094A756D7020746F20426F6F748B
:100940006C6F616465722028616C7465726E61748D
:1009500065290A453A095072696E7420454550521E
:100960004F4D2053657474696E67730A425350414A
:1009700043453A09436C65617220454550524F4DDD
:100980000A000A002575002E6E6B726F3A20000A6D
:10099000002575002E737761705F6261636B736C05
:1009A0006173685F6261636B73706163653A2000B5
:1009B0000A002575002E737761705F677261766536
:1009C0005F6573633A20000A002575002E6E6F5F25
:1009D0006775693A20000A002575002E73776170EB
:1009E0005F72616C745F726775693A20000A002556
:1009F00075002E737761705F6C616C745F6C6775E6
:100A0000693A20000A002575002E737761705F72C5
:100A100063746C5F726775693A20000A002575007F
:100A20002E737761705F6C63746C5F6C6775693A85
:100A300020000A002575002E636170736C6F636B74
:100A40005F746F5F636F6E74726F6C3A20000A00A0
:100A50002575002E737761705F636F6E74726F6CB3
:100A60005F636170736C6F636B3A20000A0025301E
:100A70003258006B65796D61705F636F6E66696790
:100A80002E7261773A20000A002575002E6D6F7571
:100A900073653A20000A002575002E6B6579626F38
:100AA0006172643A20000A002575002E6D6174722F
:100AB00069783A20000A002575002E656E61626C27
:100AC000653A20000A002530325800646562756777
:100AD0005F636F6E6669672E7261773A20000A0065
:100AE00025750064656661756C745F6C617965720B
:100AF0003A20003F000A6D6F7573653A206F666695
:100B00000A000A6D6F7573653A206F6E0A000A6BF2
:100B10006579626F6172643A206F66660A000A6BDB
:100B20006579626F6172643A206F6E0A000A6D61C6
:100B3000747269783A206F66660A000A6D61747291
:100B400069783A206F6E0A000A64656275673A2018
:100B50006F66660A000A64656275673A206F6E0AFE
:100B6000000A0A4A756D70696E6720746F20626FA3
:100B70006F746C6F616465722E2E2E2000433E20D0
:100B800000436C656172696E6720454550524F4D58
:100B90000A006565636F6E6669673A0A00290A0094
:100BA0002575002F002575005D28002564002000B4
:100BB000256400200025640020002564007C0025B9
:100BC000303258006D6F7573656B6579205B6274A8
:100BD0006E7C782079207620685D287265702F61A0
:100BE000636C293A205B000A002530325820006BE4
:100BF0006579626F6172645F7265706F72743A20BA
:100C0000000A0025303258006B6579626F617264AA
:100C10005F7365745F6C65643A20004F6E6573683E
:100C20006F743A206163746976653A2025640A001E
:100C30005B735D004B6579626F61726420737461F0
:100C400072742E0A005B575D005B535D005B525D62
:100C5000005B445D005B435D000A033500780031B2
:100C60000032000000180342006F0061007200644F
:100C70000073006F007500720063006500000004DF
:100C800003090409027B00040100A0FA0904000022
:100C900001030101000921110100012240000705A3
:100CA000810308000A090401000203000000092171
:100CB000110100012222000705820320000107051F
:100CC00003032000010904020001030000000921C0
:100CD00011010001227B000705840320000A09049A
:100CE000030002030000000921110100012222007B
:100CF00007058503200001070505032000011201F7
:100D000010010000000873421205000001020001FA
:100D10000631FF0974A1010975150026FF00952011
:100D2000750881020976150026FF00952075089147
:100D300002C00660FF0961A1010962150026FF00DB
:100D40009520750881020963150026FF009520751E
:100D5000089102C005010902A10185020901A10053
:100D60000509190129081500250195087501810259
:100D70000501093009311581257F95027508810625
:100D800009381581257F950175088106050C0A38FB
:100D9000021581257F950175088106C0C0050109EE
:100DA00080A101850319012AB700150126B7009516
:100DB0000175108100C0050C0901A101850419010C
:100DC0002AA002150126A002950175108100C00518
:100DD000010906A101050719E029E715002501957C
:100DE000087501810295017508810105071900291F
:100DF000FF150026FF0095067508810005081901FA
:100E00002905950575019102950175039101C000B1
:100E100011241FBECFEFDAE0DEBFCDBF04B603FE64
:100E200027C08091830290918402A0918502B091A5
:100E300086028730904BA740B04BD1F410928302CA
:100E400010928402109285021092860214BE84B71A
:100E5000877F84BF0FB6F894A89580916000886161
:100E600080936000109260000FBEE0E0F8E3099507
:100E700011E0A0E0B1E0ECE1F3E602C005900D92D4
:100E8000A63AB107D9F722E0A6EAB1E001C01D9267
:100E9000A338B207E1F70E94012B0C9451310C9456
:100EA0000000FF93EF93E091A601F091A701309726
:100EB00009F00995EF91FF910895FC01859180302B
:100EC00011F0EFDFFBCF0895FF27E0E230E247FFAC
:100ED0000CC0419597FF09C0EDE260957095809533
:100EE0009095611D711D811D911D27FF02C02195E7
:100EF00030E350E2AA27660F771F881F991FAA1FA9
:100F0000A41710F0A41B63955A95A9F7AA3008F00E
:100F1000A95FA05DAF93F3956115710581059105FA
:100F200041F7ED3211F4EF93F395F21718F43F9374
:100F3000F395FBCF8F91B5DFFA95E1F70895E9912D
:100F4000F9918591803021F0853219F0AADFF9CF2F
:100F5000089520E0E89455915532C1F3503311F4CF
:100F6000689455915A3348F4505390F3220F022E4F
:100F7000220F220F200D250FF4CF0EF42195899119
:100F80009991533619F3533729F1533559F1BC016F
:100F900088279927E8945C3621F48991999168947F
:100FA0005591543639F446EF7EF077FF0DC08FEF40
:100FB0009FEF0AC055374AE039F0583540E121F03B
:100FC000523642E009F00895FF93EF937DDFEF91F1
:100FD000FF91B7CFFF93EF93FC0181918030B9F37C
:100FE00060DFFBCFFF93EF9368DFF1CFDF93CF9309
:100FF000CDB7DEB72596A3DFCF91DF91089581E0CD
:10100000089581E008950C94010808950C94050852
:101010001F93CF93DF9300D000D00F92CDB7DEB7F0
:1010200049835A836B833091D70189819A81311129
:101030001DC06623B9F02223A9F00E944325182F72
:10104000682F89819A810E94EF2469817A81812F9A
:101050000F900F900F900F900F90DF91CF911F91F5
:101060000C9419180E941B25182FEFCF0E944325BE
:1010700069817A81EDCFFC01262F40815181628107
:10108000738184810C940808CF93DF93EC0160E0B6
:101090000E943B08BE01DF91CF910C9406088F920D
:1010A0009F92AF92BF92CF92DF92EF92FF920F93F7
:1010B0001F936B017C0181E090E0A0E0B0E04C0167
:1010C0005D0104C0880C991CAA1CBB1C4A95D2F770
:1010D000B501A4014C015D0104C0880C991CAA1C37
:1010E000BB1C2A95D2F7482959296A297B2904C0B3
:1010F000880F991FAA1FBB1F0A95D2F78A019B016F
:101100000C211D212E213F21041715072607370723
:1011100089F48C299D29AE29BF29BC01CD011F91DD
:101120000F91FF90EF90DF90CF90BF90AF909F9086
:101130008F90089580959095A095B0958C219D21D4
:10114000AE21BF21EACF0F93382F262F60913802AE
:101150007091390280913A0290913B02042F432F03
:101160000E944F080F910C942D240E94520C0C9455
:10117000770C0C947A0C08950E9459200E94BB08A9
:101180002FEF84E39CE0215080409040E1F700C0C5
:1011900000000C949C280F931F93CF93DF938C0136
:1011A00061E00E943B08EC01B8010E9461168823AF
:1011B00009F43FC0B801CE010E9403088823C9F199
:1011C000B801CE010E945019882399F1B801CE01CF
:1011D0000E94A219882369F1B801CE010E94C51AA4
:1011E000882339F1F8018281882361F0CE3DFCE546
:1011F000DF07B9F170F4C115ECE5DE07C1F0C130CD
:10120000DC45E9F0C801DF91CF911F910F910C945B
:10121000FF07CB358DE5D80751F1CC35EDE5DE077D
:1012200019F1CA35DD4571F70E940626EBCF0E9401
:10123000BC0880E0DF91CF911F910F9108959091AC
:101240004D02892F8E7F90FF816080934D0280FF39
:1012500005C08EE992E00E945D07EBCF8CE892E03A
:10126000FACF0E947427E5CF0E94FD25CBCF0E94C4
:101270000926C8CFDF92EF92FF920F931F93CF936F
:10128000DF93E82FF0E0E155FD4FD490282F26950D
:101290002695269530E0F901E15BFC4F04918770BB
:1012A00010E0082E02C0159507950A94E2F7017028
:1012B0001127F901E15CFC4FE490F12C082E02C0EB
:1012C000F594E7940A94E2F791E0E922FF24F9010A
:1012D000E15DFC4FC491D0E002C0D595C7958A95D9
:1012E000E2F7C170DD270115110519F081EE0E94AA
:1012F000D41CE114F10419F086EE0E94D41C8D2D4B
:101300000E94D81DEF2819F086EE0E946B1D012B5C
:1013100019F081EE0E946B1DCD2B51F08CE2DF9114
:10132000CF911F910F91FF90EF90DF900C94D81DFB
:10133000DF91CF911F910F91FF90EF90DF90089573
:10134000EF92FF920F931F93CF93DF93EC01162F31
:101350000AE08881882309F454C0813009F04EC026
:101360008981813099F47E0122E0E20EF11C8A81AC
:101370000E94D81DE7012196812F815050F3EFE99B
:10138000FFE03197F1F700C00000F7CF823041F461
:101390007E0182E0E80EF11C8A810E94D41CEACF13
:1013A000833041F47E01E2E0EE0EF11C8A810E945E
:1013B0006B1DE0CF843011F02196DDCF2A8122967B
:1013C00090E080E0AE014F5F5F4F2053330B2A3037
:1013D000310548F0019778F2EFE9FFE03197F1F736
:1013E00000C00000F7CF089FB001099F700D1124C5
:1013F000C901860F971F2981EA01E4CF0E943A09AB
:10140000BACFDF91CF911F910F91FF90EF90089588
:1014100060E00C94A009829590E09C01220F331F9C
:10142000220F331F2C7C959587959595879583730F
:10143000282B30E0C901880F991F8A7A35952795A6
:101440002575822B0895CF93DF93D92F0E940B0A25
:10145000C82F8D2F0E940B0A9C2FDF91CF910895EA
:1014600008950C94300A81E008950C94330ACF93C8
:10147000C82F0E94310A8C2FCF910C94350A90E02E
:1014800080E008950895FC01EE0FFF1FE15AFC4F24
:10149000859194910895CF93DF930E9419180E942B
:1014A000600BEC01811520E5920708F042C0811520
:1014B00030E4930708F0BDC0883E910528F5803ED2
:1014C000910508F09DC0883A910588F4853A910508
:1014D00008F08FC08130910509F492C0009709F49B
:1014E0008FC0049708F08CC0D0E0C0E089C08F3B6B
:1014F000910508F489C0805C9109C03CD105A0F336
:101500000E94430AEC017CC08115904250F4C11541
:1015100081E0D80708F074C0C03FD10528F3D0653A
:101520006FC0C11590E3D90708F079C0CE019F7054
:10153000E7CF811525E5920758F5811534E5930726
:1015400008F0A6C0811542E5940750F4C11581E565
:10155000D80708F471C0DC2FCC27C16FD06A50C007
:10156000982F969596959E0123703327C115D345E4
:1015700008F07FC0C1E0D0E002C0CC0FDD1F2A958B
:10158000E2F720E2929FC0011124C82BD92B6FC033
:10159000C11589E5D807A8F4C11598E5D90708F061
:1015A0007CC0C11526E5D20708F09ECF8C2F0E9483
:1015B000F70BC82FD0E0DC2FCC27CC27DF71D0620F
:1015C0001FC0C1153AE5D30708F46CC0CE01905690
:1015D0008115904208F088CF8D2F8F710E94F70BF4
:1015E00090E0982F882788279F719C012C2BE90178
:1015F000E6CFC55AD0E0CD5BDE4FC881D0E0D064E5
:10160000CE01DF91CF910895C85AD0E0CC0FDD1FF5
:10161000CB5EDE4F0990D881C02DD464F1CFCE01CE
:101620009927D3FF03C0EC01D86CEACFEC01D06C52
:10163000E7CFDF70D06AE4CFCE01E4E096958795DE
:10164000EA95E1F783702C2F26952695237090E27A
:10165000299F90011124382B8C2F8370C1E0D0E09A
:1016600002C0CC0FDD1F8A95E2F7C22BD32BDC68BA
:10167000C7CFC1E0D0E002C0CC0FDD1F2A95E2F752
:1016800030E2939FC0011124C82BD92BDA68B8CF60
:10169000D82FCC27C46FD06AB3CFDC2FCC27C06F34
:1016A000D06AAECF8C2F8F700E94F70B34E0D695A6
:1016B000C7953A95E1F7CF709C2FEC01D069A0CF88
:1016C00082389105B1F1B0F48133910509F475C008
:1016D00048F48932910509F469C08A32910509F408
:1016E00073C008958533910509F459C08933910574
:1016F00001F10895833E9105A9F138F4803E9105EA
:10170000F9F0823E910549F10895863E9105A9F1CF
:10171000873E9105C9F1843E910519F520915D023E
:1017200021FF1FC080915C0284FD14C087EE90E011
:10173000089520915C022370A1F080EE90E008955E
:1017400020915C0220FD47C030915D0230FF09C04E
:1017500024FF44C090E080E004C020915C0222FDA0
:10176000F7CF089520915C0222FD3BC030915D02CD
:1017700030FDE3CF24FFF5CFEDCF20915C0223FFB6
:10178000F0CF24FDE7CFD2CF20915C0223FD2CC007
:1017900030915D0231FFEECF84EE90E0089520910C
:1017A0005C0225FFDECF89E290E0089520915C0283
:1017B00025FFD7CF85E390E0089520915C0226FFB6
:1017C000D0CF8AE290E0089520915C0226FFC9CF35
:1017D00081E390E0089589E390E0089583EE90E03E
:1017E000089582EE90E0089586EE90E0089590913D
:1017F0005C0292FF06C0282F28712830F9F4877FF9
:10180000846093FF06C0282F28712831F1F4877E69
:10181000846120915D0220FF06C0382F3871383076
:10182000D9F4877F816021FF06C0282F28712831D5
:10183000D1F4877E816194FD877E0895282F2471DD
:101840002430F9F68B7F8860DCCF282F2471243177
:1018500001F78B7E8861DDCF382F3171313019F778
:101860008E7F8860E0CF282F2171213121F78E7E75
:101870008861E1CF0C943B160E94390D8FE39CE9FF
:101880000197F1F700C000000E94390D80E00E942E
:101890007C0C80FF04C00E943A0C0C949C28089594
:1018A0000C943C0C0E94CF26811102C00E94742728
:1018B0000E94DA2680934D020E94E22690935D02F8
:1018C00080935C020E94500C0E94DE26682F70E01C
:1018D00090E080E00E94F12360913802709139021B
:1018E00080913A0290913B020C942B2408950C9421
:1018F000760C08950C94790CE82FF0E0EE0FFF1FA2
:10190000E859FD4F808191810895CF92DF92EF9247
:10191000FF920F931F93CF93DF938FE693E00E9484
:101920005D0788E6E82E82E0F82ED0E0C0E09AE677
:10193000C92E93E0D92E01E613E0DF93CF93DF9217
:10194000CF920E94F60787E693E00E945D07F701B9
:10195000819191917F010E94230A9F938F931F93FE
:101960000F930E94F6078FE593E00E945D07219692
:101970008DB79EB708960FB6F8949EBF0FBE8DBF69
:10198000C530D105D1F6DF91CF911F910F91FF9016
:10199000EF90DF90CF90089580EA8A95F1F708954F
:1019A00000C008950C94CC0CF894E82FE295EF70E9
:1019B000F0E031A1282F2F7081E090E001C0880F66
:1019C0002A95EAF7982F9095932391A392A1892BBA
:1019D00082A3789408950F931F93CF93DF9382E9A6
:1019E0000E94D40C83E90E94D40C81E90E94D40C9B
:1019F00080E90E94D40C84E90E94D40CC6E4D1E0B2
:101A000002E511E089910E94D40C0C171D07D1F753
:101A100010925F0210925E021092690210926802A8
:101A2000109261021092600210926B0210926A0290
:101A3000109263021092620210926D0210926C0278
:101A4000109265021092640210926F0210926E0260
:101A50001092670210926602109271021092700248
:101A600085E00E94B90DDF91CF911F910F910C94E9
:101A7000B508AF92BF92DF92EF92FF920F931F9340
:101A8000CF93DF93C2E5D1E00EE512E0D12CEE2436
:101A9000E394F12C8991F894E82FE295EF70F0E04F
:101AA00021A18F70A70102C0440F551F8A95E2F74C
:101AB000CA01922F982B91A392A18095892382A38A
:101AC00078940E94D00CE6E4F1E030E020E0B12C04
:101AD000A12C4191A42FA295AF70B0E090968C916B
:101AE00090E04F7002C0959587954A95E2F780FD8A
:101AF0003BC0C701022E02C0880F991F0A94E2F76B
:101B0000A82AB92A2F5F3F4F2C30310511F7FE016B
:101B1000319780810E94D40C0E94D20CF801808100
:101B20009181A816B90619F1B182A08281E0D82A64
:101B30000E5F1F4FF1E0C735DF0709F0ABCF2D2D4A
:101B400045E068E672E08EE592E00E94BA0D0E94E0
:101B5000B9088D2DDF91CF911F910F91FF90EF90DC
:101B6000DF90BF90AF90089590E080E0C9CF80E013
:101B7000DECF0895FF920F931F93CF93DF93F82E3C
:101B8000092F162FD72FC42F222349F081E08093ED
:101B9000AA010E9451289093A9018093A8018091E5
:101BA000AA018823A1F08091A8019091A9010E9427
:101BB0006928069760F0EF2DF02FA12FBD2F90E040
:101BC00080E0D0E08C179D0744F01092AA01DF91CD
:101BD000CF911F910F91FF900895219131912D93F5
:101BE0003D930196EFCF86E895E00E945D071F9236
:101BF00081E08F931F9285E08F9388E395E09F9318
:101C00008F930E94F6070F900F900F900F900F90F8
:101C10000F900895833009F445C028F4813061F0B5
:101C2000823049F10895853009F46AC008F451C042
:101C3000863009F47CC0089580910701482F460F33
:101C40005527551F4F3F510594F4680F60930701C6
:101C5000809107011F928F9381E794E09F938F9368
:101C60000E94F6070F900F900F900F9008958FEF3E
:101C700080930701EDCF80910601482F460F55272D
:101C8000551F4F3F510554F4680F60930601809132
:101C900006011F928F938FE594E0E0CF8FEF809342
:101CA0000601F5CF80910501482F460F5527551F96
:101CB0004F3F510554F4680F609305018091050171
:101CC0001F928F938CE494E0C9CF8FEF809305012E
:101CD000F5CF80910401482F460F5527551F4F3FE0
:101CE000510554F4680F60930401809104011F9220
:101CF0008F9387E394E0B2CF8FEF80930401F5CF09
:101D000080910101482F460F5527551F4F3F510520
:101D100054F4680F60930101809101011F928F9329
:101D20008EE194E09BCF8FEF80930101F5CF8091FE
:101D30000001482F460F5527551F4F3F510554F4BA
:101D4000680F60930001809100011F928F9383E0E0
:101D500094E084CF8FEF80930001F5CF8330C9F1F9
:101D600028F4813061F0823019F10895853009F44A
:101D700052C008F43FC0863009F45EC008958091D7
:101D80000701681790F4861B809307018091070173
:101D90001F928F9384EF93E09F938F930E94F60797
:101DA0000F900F900F900F90089510920701EECFB3
:101DB00080910601681750F4861B8093060180917C
:101DC00006011F928F9382EE93E0E6CF10920601F8
:101DD000F6CF80910501681750F4861B80930501AA
:101DE000809105011F928F938FEC93E0D5CF1092D5
:101DF0000501F6CF80910401681750F4861B80938B
:101E00000401809104011F928F938AEB93E0C4CF69
:101E100010920401F6CF80910101681750F4861BDF
:101E200080930101809101011F928F9381EA93E0D9
:101E3000B3CF10920101F6CF80910001681750F4E2
:101E4000861B80930001809100011F928F9386E88A
:101E500093E0A2CF10920001F6CFCF93C82F1F922C
:101E60008F938BE896E09F938F930E94F60761E033
:101E700070E080E090E004C0660F771F881F991F14
:101E8000CA95D2F70E94F1230F900F900F900F90F8
:101E9000CF910C945920CF93DF938B3109F4FAC181
:101EA00008F09CC18B3009F4B8C108F06AC18630D3
:101EB00009F4C6C148F4853009F49EC183EF9AE065
:101EC0000E945D0780E0CCC1873009F4CCC1883026
:101ED000A9F782E99BE00E945D0783EE9AE00E94E9
:101EE0005D070E94DE261F928F9380EE9AE09F93FB
:101EF0008F930E94F6078EED9AE00E945D070E9484
:101F0000DA26C82F8BEC9AE00E945D071F92CF93D0
:101F100086EC9AE09F938F930E94F60784EC9AE0F8
:101F20000E945D078AEB9AE00E945D078C2F81700A
:101F30001F928F9387EB9AE09F938F930E94F607EF
:101F400085EB9AE00E945D078BEA9AE00E945D07AC
:101F5000C1FB882780F91F928F9388EA9AE09F93AC
:101F60008F930E94F60786EA9AE00E945D078AE94D
:101F70009AE00E945D07C2FB882780F91F928F9329
:101F800087E99AE09F938F930E94F60785E99AE08C
:101F90000E945D078CE89AE00E945D07C3FBCC2796
:101FA000C0F91F92CF9389E89AE09F938F930E9484
:101FB000F60787E89AE00E945D070E94E226EC019E
:101FC00083E79AE00E945D07DF93CF938EE69AE065
:101FD0009F938F930E94F6078CE69AE00E945D071C
:101FE00083E59AE00E945D078C2F81701F928F938A
:101FF00080E59AE09F938F930E94F6078DB79EB776
:1020000080960FB6F8949EBF0FBE8DBF8EE49AE007
:102010000E945D0787E39AE00E945D07C1FB882765
:1020200080F91F928F9384E39AE09F938F930E948D
:10203000F60782E39AE00E945D0780E29AE00E9440
:102040005D078D2F81701F928F938DE19AE09F9392
:102050008F930E94F6078BE19AE00E945D0789E06A
:102060009AE00E945D07D695D1701F92DF9386E0BB
:102070009AE09F938F930E94F60784E09AE00E9473
:102080005D0782EF99E00E945D07C2FB882780F917
:102090001F928F938FEE99E09F938F930E94F60784
:1020A0008DEE99E00E945D078BED99E00E945D073F
:1020B000C3FB882780F91F928F9388ED99E09F9347
:1020C0008F930E94F60786ED99E00E945D078CECE5
:1020D00099E00E945D07C4FB882780F91F928F93C7
:1020E00089EC99E09F938F930E94F60787EC99E023
:1020F0000E945D0785EB99E00E945D07C5FB88277C
:1021000080F91F928F9382EB99E09F938F930E94A7
:10211000F60780EB99E00E945D0784E999E00E9450
:102120005D07C6FB882780F91F928F9381E999E0AC
:102130009F938F930E94F6078DB79EB780960FB638
:10214000F8949EBF0FBE8DBF8FE899E00E945D0797
:1021500087E899E00E945D07C7FBCC27C0F91F9272
:10216000CF9384E899E09F938F930E94F60782E8CB
:1021700099E00E945D070F900F900F900F9081E003
:102180006FC0803109F49EC080F48E3009F096CE85
:1021900090914D02892F8B7F92FF846080934D0236
:1021A00082FF8DC08EE19BE081C0863109F49AC028
:1021B000893109F083CE89EA97E00E945D0781E7C3
:1021C00097E00E945D078AE597E00E945D0784E240
:1021D00097E00E945D0789EF96E021C08A3249F1BD
:1021E00090F4873211F128F48E3108F467CE8D51C6
:1021F0001DC0893209F062CE81E69BE00E945D0736
:102200000E94BC08BCCF833468F48A3308F0A1C0B4
:10221000853359F0883309F051CE8FED97E00E9455
:102220005D07ADCF833409F049CE80E00E942D0FC9
:10223000A6CF81E89BE00E945D070E9474279FCF94
:1022400080914D02807F80934D0288EB97E00E9441
:102250005D078DE79BE00E945D0781E08093AC0104
:10226000DF91CF91089590914D02892F8E7F90FF3D
:10227000816080934D0280FF03C085E59BE0CFCF56
:1022800088E49BE00E945D0780914D02817F8093EE
:102290004D0275CF90914D02892F8D7F91FF826005
:1022A00080934D0281FF08C08BE39BE00E945D0795
:1022B00080914D028160EBCF8DE29BE0B0CF8EE04C
:1022C0009BE0ADCF90914D02892F877F93FF88606F
:1022D00080934D0283FF03C082E09BE0E7CF85EF50
:1022E0009AE09DCF8BEE96E00E945D070E94F41A63
:1022F0001F928F9381ED96E09F938F930E94F60734
:10230000809114011F928F938AEB96E09F938F9395
:102310000E94F60780915B021F928F9387EA96E0F6
:102320009F938F930E94F6070E945D289F938F933F
:102330007F936F9380E996E09F938F930E94F607B7
:102340008DB79EB742960FB6F8949EBF0FBE8DBF55
:1023500016CF89536BCF80E008950C94AB118E514A
:102360008A3030F4E82FF0E0E95AFE4F808108957A
:1023700080E00895CF93C82F8091AC018130C1F0E7
:10238000882339F0823009F447C01092AC0180E014
:102390000DC00E940C268232D1F78C2F0E94AB1107
:1023A00081111BC08C2F0E944B0F8170CF9108951B
:1023B0000E940C26823289F38C2F0E94AD1181116C
:1023C0001BC0C431D9F060F4CB3071F0C031D1F012
:1023D00081E896E00E945D0713C081E090E0E5CFC0
:1023E000C93261F0C833A1F788EB97E00E945D071E
:1023F00087E896E00E945D0781E0D7CF1092AC019C
:1024000080E0D3CF0E94F30D83E896E00E945D0741
:1024100082E08093AC01F0CFC432C8F4CE3108F032
:10242000BEC0CB30E1F040F4C73009F4CCC085E247
:1024300095E00E945D0726C0C331C1F1C431B9F7F0
:102440008091AB01882351F11092AB010AC0CB34CB
:1024500009F4B7C0C8F4C93299F3C83341F70E94F0
:10246000F30D8091AB01882309F4C4C01F928F93B0
:102470008FE195E09F938F930E94F6070F900F9046
:102480000F900F9081E092CFC13509F494C0C2350E
:1024900009F48BC0CE3459F66AE08EC084E395E02F
:1024A0000E945D0781E08093AC0180CF8EE095E0D3
:1024B0000E945D078CEF94E00E945D078091070108
:1024C0001F928F9389EF94E09F938F930E94F6075A
:1024D00087EF94E00E945D0785EE94E00E945D071F
:1024E000809106011F928F9382EE94E09F938F93C9
:1024F0000E94F60780EE94E00E945D0781ED94E073
:102500000E945D07809105011F928F938EEC94E0ED
:102510009F938F930E94F6078CEC94E00E945D07D6
:102520008BEB94E00E945D07809104011F928F93D2
:1025300088EB94E09F938F930E94F60786EB94E0DC
:102540000E945D0781EA94E00E945D07809101018D
:102550001F928F938EE994E09F938F930E94F607CA
:102560008CE994E00E945D0785E894E00E945D0795
:10257000809100011F928F9382E894E09F938F9344
:102580000E94F60780E894E00E945D078DB79EB731
:1025900048960FB6F8949EBF0FBE8DBF62CF8C2FAA
:1025A0000E94AF118093AB015CCF61E08091AB01E1
:1025B0000E940A0E56CF61E08091AB010E94AE0EE0
:1025C00050CF6AE0F3CF8EE18093070182E38093DE
:1025D00006018AE08093050184E18093040188E08C
:1025E0008093010188E28093000187E295E00E94D8
:1025F0005D0737CF8CE195E01CCF8091B30180FF60
:1026000012C06091050185E0689FB00111247595A5
:1026100067957595679560387105A8F56115710521
:10262000A1F1862F089581FF09C06091050185E021
:10263000689FB001112475956795EDCF60910501F4
:1026400082FD0AC08091B2018823D1F090910401EB
:1026500060910501891728F085E0689FB001112479
:10266000DACF869FB001112485E0869F9001879F75
:10267000300D1124692F70E0C9010E94DA30CBCFF0
:1026800065E070E0CECF8FE7089581E008958091F6
:10269000B30180FF0CC06091010170E075956795F2
:1026A000759567956115710549F1862F089581FF2C
:1026B00006C06091010170E075956795F3CF609158
:1026C000010182FD0BC09091B1019923A1F06091AD
:1026D000000180910101961738F0682F70E0603892
:1026E000710500F38FE70895899FC001112470E000
:1026F0000E94DA30F4CF61E070E0D7CF81E0089536
:10270000803F31F40E94FD1281958093B7010895B6
:10271000813F19F40E94FD12F8CF823F31F40E94EC
:10272000FD1281958093B6010895833F19F40E94AC
:10273000FD12F8CF893F29F40E9447138093B80116
:1027400008958A3F21F40E9447138195F7CF8B3F6C
:1027500031F40E94471381958093B90108958C3F0D
:1027600019F40E944713F8CF9CE0980F953070F44D
:10277000845F990B21E030E001C0220F8A95EAF7CF
:102780008091B501822B8093B50108958D3F31F47E
:102790008091B30181608093B30108958E3F21F44D
:1027A0008091B3018260F7CF8F3FB9F78091B30179
:1027B0008460F1CF4091B601803F59F48091B70118
:1027C00087FF0DC01092B70141110BC01092B201EA
:1027D00008C0813F81F48091B70118169CF344230F
:1027E00081F08091B8019091B901892B09F05AC00C
:1027F0001092B1010895823F49F447FFF0CF109243
:10280000B6018091B7018111ECCFE0CF833F19F47D
:102810001416ACF3E4CF9091B801893F29F419164E
:10282000F4F61092B801DBCF8A3F19F497FFD7CFA7
:10283000F8CF9091B9018B3F29F497FFD0CF109238
:10284000B901CDCF8C3F19F41916CCF3C8CF9CE059
:10285000980F953090F4845F990B21E030E0B90136
:1028600002C0660F771F8A95E2F7CB0180959091A1
:10287000B50189238093B501B2CF8D3F31F48091AA
:10288000B3018E7F8093B301AACF8E3F21F4809154
:10289000B3018D7FF7CF8F3F09F0A1CF8091B301B6
:1028A0008B7FF0CF089580914D0283FF7EC084EC32
:1028B0009BE00E945D078091B5011F928F938FEB83
:1028C0009BE09F938F930E94F6078DEB9BE00E9405
:1028D0005D078091B601282F082E000C330B3F9323
:1028E0008F938AEB9BE09F938F930E94F60788EB70
:1028F0009BE00E945D078091B701282F082E000CF5
:10290000330B3F938F9385EB9BE09F938F930E94B4
:10291000F60783EB9BE00E945D078091B801282FAA
:10292000082E000C330B3F938F9380EB9BE09F931B
:102930008F930E94F6078EEA9BE00E945D078091CC
:10294000B901282F082E000C330B3F938F938BEA8D
:102950009BE09F938F930E94F60788EA9BE00E947A
:102960005D078091B2011F928F9385EA9BE09F9350
:102970008F930E94F60783EA9BE00E945D07809197
:10298000B3011F928F9380EA9BE09F938F930E94E5
:10299000F6078DE99BE00E945D078DB79EB74C96C8
:1029A0000FB6F8949EBF0FBE8DBF0E9451289C01A8
:1029B0009091B6018091B701982B21F03093B0012E
:1029C0002093AF019091B8018091B901982B21F02B
:1029D0003093AE012093AD0184EB91E00C944C1B3D
:1029E000EF92FF920F931F93CF93DF9300D000D00D
:1029F00000D0CDB7DEB786E0E4EBF1E0DE01119662
:102A000001900D928A95E1F7E090B601F090B70140
:102A10000091B8011091B9011092B6011092B7015E
:102A20001092B8011092B9018E2D8F2991F08091EA
:102A3000AF019091B0010E946928AC019091B20160
:102A4000992309F43FC0809106018417150608F404
:102A500047C0802F812B91F08091AD019091AE0104
:102A60000E946928AC019091B101992309F477C0C3
:102A7000809102018417150608F47FC08091B60189
:102A80009091B701892B9091B801892B9091B90150
:102A9000892B11F00E94531486E0FE013196A4EBBD
:102AA000B1E001900D928A95E1F726960FB6F89461
:102AB000DEBF0FBECDBFDF91CF911F910F91FF9071
:102AC000EF900895209107018AE0289F900111243A
:102AD0002417350708F0BDCF9F5F9093B20102C065
:102AE0009F3FD1F7EE2059F00E94FD129FEF1E1478
:102AF0000CF491E0899F802D11248093B601FF2072
:102B000059F00E94FD129FEF1F140CF491E0899F71
:102B1000802D11248093B7013091B601332309F43D
:102B200098CF2091B701222309F493CF45EB3403CA
:102B3000C0011124992359F09093B60145EB240369
:102B400090011124332339F03093B70182CF81E013
:102B50008093B601F3CF81E08093B7017ACF2091C3
:102B600003018AE0289F900111242417350708F0FB
:102B700085CF9F5F9093B10102C09F3FD1F70023A3
:102B800059F00E9447139FEF10160CF491E0899FB3
:102B9000802D11248093B801112359F00E9447130E
:102BA0009FEF11160CF491E0899F802D11248093E2
:102BB000B9013091B801332309F460CF2091B901F4
:102BC000222309F45BCF45EB3403C0011124992380
:102BD00059F09093B80145EB24039001112433235D
:102BE00039F03093B9014ACF81E08093B801F3CF37
:102BF00081E08093B90142CF86E0E4EBF1E0DF01B0
:102C00001D928A95E9F71092B2011092B1011092CB
:102C1000B301089583E290E00E940F31843289F479
:102C200084E290E00E940F31813059F485E290E017
:102C30000E940F3191E0803209F090E0892F81707D
:102C4000089580E0FCCFCF93C82F6FEF811164E22D
:102C500083E290E00E941D316FEFC11161E084E2D8
:102C600090E00E941D316FEFC11160E285E290E0BB
:102C7000CF910C941D3180E00E9423160C94C9263C
:102C8000089586E290E00E940F31682F70E090E096
:102C900080E0089586E290E00C941D310E94401679
:102CA0000E940A1681110CC060E070E0CB010E9406
:102CB0004A160E9491170E947D1881E00C942316F9
:102CC0000895CF93FB01C281CC2309F19C012251CD
:102CD0003F452031310520F582510E948D18C0E01A
:102CE0008C2FCF91089581E00E94532443E062E04D
:102CF00081E00E94A308F3CF81E00E94742443E0A6
:102D000062E081E00E94A308EBCF82E0F6CF803141
:102D1000FFE59F0789F381319F45B9F3C1E0E0CF1B
:102D20008031EFE59E07F9F281319F45C9F682E0D7
:102D3000DBCF2FEFFC0120830895EF92FF920F93DA
:102D40001F93CF93DF93EC01062FE881E150E3312D
:102D500008F05EC0F0E0ED5AFE4C0C94EE301982A3
:102D600089E08A83602FCE01DF91CF911F910F916F
:102D7000FF90EF900C943D298981823069F0833077
:102D800071F08130D9F40E945D280E94F4306A838A
:102D90007B838C839D83E6CF0E944116F6CF7E0114
:102DA00010E0812F0E947C0CF701928383831F5FC8
:102DB000F2E0EF0EF11C1530A1F7D4CF602FCE0159
:102DC0000E949916CFCF89818230C1F76A817B81B9
:102DD0008C819D810E94F4300E944A16C3CF4B81A2
:102DE0006A8189810E9463179827892798279D8384
:102DF0008C83B8CF2C813D813227232732274B810A
:102E00006A8189810E947C17ADCF0E949117AACF59
:102E10008FEF8883A7CF0E9426188983A3CF0E94B3
:102E200028189827892798279A8389839BCF6B81B5
:102E300070E089819A81AE014C5F5F4F98278927A6
:102E400098270E942B188ECF6B8170E089819A8120
:102E5000AE014C5F5F4F9827892798270E94521830
:102E600081CF0E947D187ECF0E945117D6CF6B81F3
:102E700070E089819A81AE014C5F5F4F9827892766
:102E800098270E94C9176ECF6B8170E089819A8163
:102E9000AE014C5F5F4F9827892798270E94EF1754
:102EA00061CF84E0089550E0440F551F98E1699F79
:102EB000400D511D112498E7899F400D511D11248B
:102EC000CA01879608950F931F93CF93DF930E94B3
:102ED00053178C010E940F31C82FD0E0DC2FCC2774
:102EE000C80101960E940F319E01282BC901DF9174
:102EF000CF911F910F9108950F931F93CF93DF935D
:102F0000122F032F0E945317EC01602F0E941D31D6
:102F1000612FCE010196DF91CF911F910F910C94FB
:102F20001D31AF92BF92CF92DF92EF92FF921F932B
:102F3000CF93DF938CEAC82E80E0D82ED0E07601C4
:102F4000C0E014C0F50125913491412F6C2F8D2FD5
:102F50000E947C1782E0A80EB11C1F5F1C3091F705
:102F600088E1E80EF11CCF5FC53019F0570110E081
:102F7000E9CFDF5F88E7C80ED11CD43001F7DF91BD
:102F8000CF911F91FF90EF90DF90CF90BF90AF90C7
:102F90000895EF92FF920F931F93CF93DF93EC016D
:102FA0008A017C01E60EF71ECE018796CE15DF055D
:102FB00039F4DF91CF911F910F91FF90EF90089519
:102FC000C03E21E0D20740F40E940F31F801808317
:102FD0000F5F1F4F2196E8CFF8011082F9CFCF92F3
:102FE000DF92EF92FF920F931F93CF93DF937C01B9
:102FF0006A018C01060F171FEC01CE018796C017DE
:10300000D10749F4DF91CF911F910F91FF90EF907D
:10301000DF90CF900895C03E21E0D20740F4FE013A
:10302000EE19FF09EC0DFD1D60810E941D312196F6
:10303000E4CF462F843038F4753028F46C3018F41F
:10304000672F0C94631790E080E0089580E1089565
:1030500089EF91E00895EF92FF920F931F93CF9322
:10306000DF93EC018A017C01E60EF71ECE01895F39
:103070009D4FCE15DF0539F4DF91CF911F910F9150
:10308000FF90EF900895C93F21E0D20740F40E94DD
:103090000F31F80180830F5F1F4F2196E7CFF801B2
:1030A0001082F9CFCF92DF92EF92FF920F931F938E
:1030B000CF93DF937C016A018C01060F171FEC018F
:1030C000CE01895F9D4FC017D10749F4DF91CF91A1
:1030D0001F910F91FF90EF90DF90CF900895C93F1F
:1030E00021E0D20740F4FE01EE19FF09EC0DFD1DB1
:1030F00060810E941D312196E3CFCF93DF93C7E01B
:10310000D2E060E0CE010E941D312196C11584E01D
:10311000D807B9F7DF91CF910895DF92EF92FF9230
:103120000F931F93CF93DF9300D000D0CDB7DEB7BE
:10313000F82E8FE08F1540F08FEF93E00E940F3153
:1031400007E012E08823C1F00F900F900F900F90CE
:10315000DF91CF911F910F91FF90EF90DF90089535
:10316000011584E0180781F3C8010E940F31811115
:1031700001C0FA940F5F1F4FF110F2CF19821A822B
:103180001B821C82DD24D39478018FEFE81AF80AA1
:10319000C8010E940F3189831A828823A9F29FEF08
:1031A000980F933078F48A83D9820E5F1F4FC7013E
:1031B0000E940F318B83882339F2CE0101960E9441
:1031C000080AE2CF8701F9CF0F931F93CF93DF93C4
:1031D000C42FD22FFC0182818823C9F04093BC0107
:1031E0000E9451289093BB018093BA0180E28C0F1A
:1031F000883008F050C0C77081E001C0880FCA95C0
:10320000EAF7DF91CF911F910F910C94E01D10917F
:10321000BC01141335C08091BA019091BB010E948A
:103220006928883C910560F5C0E2CD0F1D17B9F003
:1032300080E2810F883040F4177081E001C0880F70
:103240001A95EAF70E94E71DC83048F481E09D2FE7
:10325000977001C0880F9A95EAF70E94E01D802FB1
:103260000E94D81DC830B8F4D77081E001C0880F23
:10327000DA95EAF7DF91CF911F910F910C94E71D3A
:1032800080E28C0F883038F4C77081E001C0880F6D
:10329000CA95EAF7EFCFDF91CF911F910F91089573
:1032A0000F939C01CB01233F4CE5340759F1A8F45F
:1032B000283DFCE53F0701F1293D4CE53407D1F1FC
:1032C000273D3C4591F406E221EE41EE67ED7CE5B9
:1032D0000E94E41880E00F910895253FFCE53F0728
:1032E000E9F0B0F0263F3C45F9F0FC0182818823EB
:1032F00039F11092BC01EFCF07E225EE45EE68ED03
:103300007CE5E6CF06E221EE40EE63EF7CE5E0CF20
:1033100007E225EE44EE64EF7CE5DACF06E221EE2B
:1033200042EE65EF7CE5D4CF07E225EE46EE66EF90
:103330007CE5CECF08E221E045EE69ED7CE5C8CF23
:1033400081E0C9CFCF93DF93EC01FB018281882319
:1033500009F419C1C230FCE5DF07C0F1C6319CE5B4
:10336000D90730F09E012A5F3C452930310570F5C0
:103370000E94E22690935D0280935C02C031ECE5EE
:10338000DE0709F4CFC008F05BC0C8308CE5D80771
:1033900009F4B6C088F5C430ECE5DE0709F4A8C02E
:1033A000C0F4C2308CE5D80709F49CC080915C025F
:1033B0008260C330DC4509F498C080915C02909132
:1033C0005D020E94F0260E94592080E0DF91CF919B
:1033D000089580915C028061C630ECE5DE0709F457
:1033E00084C080915C028860C730DC4508F47DC0F1
:1033F00080915C02806279C0CC308CE5D80709F4FA
:1034000089C070F480915C028C60CA30ECE5DE0704
:1034100009F46BC008F478C080915C028E7F65C0AF
:10342000CE308CE5D80709F479C080915C028B7F9F
:10343000CF30DC4508F459C080915C028F7E55C0C6
:10344000CB3FECE5DE0709F457C030F5C3318CE51E
:10345000D80709F46FC078F4C131ECE5DE0709F450
:1034600065C0C231DC4509F0A8CF0E945920809187
:103470005C028F773AC0C5318CE5D80709F462C089
:1034800008F476C080915D028160CA3FDC4509F096
:1034900094CF80935D0291CFCF3FFCE5DF0709F425
:1034A0004DC088F480915D028D7FCD3F9CE5D907AA
:1034B00081F380915D028E7FCE3FDC4550F3809199
:1034C0005D028360E6CFC130FDE5DF0709F459C036
:1034D00008F444C080E0C230DD4509F06ECF0E94A0
:1034E00076276BCF80915C02816080935C0265CF10
:1034F00080915C028460F9CF80915D028260C9CFC7
:1035000080915C028064F1CF0E94592080915C021E
:103510008068EBCF80915C028D7FE7CF80915C0269
:10352000877FE3CF80915C028F7DDFCF80915C024B
:103530008F7BDBCF80915C02837FD7CF80915D0250
:103540008C7FA7CF80915C0282FB992790F921E0C4
:10355000922790FB82F990FB83F9C7CF80915D029F
:10356000982F909591708E7F892B90FB81F991CF48
:103570000E94592090915C02892F97FB87F980580F
:10358000B4CF81E0ACCF81E021CFCF93DF93EB01CB
:1035900086319C4511F50E940C269A81992399F059
:1035A0008A7A91E009F490E09093BD01811109C0FD
:1035B00089E20E94B3250E945C2680E0DF91CF91D2
:1035C000089585E3F6CF8091BD01811104C089E2A1
:1035D0000E94BA25F0CF85E3FBCF81E0EFCF909337
:1035E000C3018093C2010895E091C201F091C3012B
:1035F000309721F00190F081E02D099480E008954A
:10360000EF92FF920F931F93CF93DF938C01E09182
:10361000C201F091C3013097C1F10280F381E02D26
:10362000099580914D0282FF30C080FF04C08FEE6B
:103630009BE00E945D07D0E0C0E089EEE82E8BE0C1
:10364000F82E80914D0280FF0EC0F801EC0FFD1F97
:1036500080811F928F93FF92EF920E94F6070F9046
:103660000F900F900F902196C830D10551F780919F
:103670004D0280FF0AC087EE9BE0DF91CF911F9142
:103680000F91FF90EF900C945D07DF91CF911F9108
:103690000F91FF90EF900895E091C201F091C30166
:1036A000309739F022E0DC012C930480F581E02D85
:1036B000099408952091C0013091C101281739075C
:1036C00071F09093C1018093C001E091C201F0912B
:1036D000C301309721F00680F781E02D0994089509
:1036E0002091BE013091BF012817390771F09093E6
:1036F000BF018093BE01E091C201F091C3013097F8
:1037000021F00084F185E02D099408950E945D2840
:103710006093D3017093D4018093D5019093D60127
:103720006093CF017093D0018093D1019093D20127
:10373000089585B7806885BF85B7806885BF08957F
:10374000089508950C94A01B08950C94A41B0E9446
:10375000991B8FE99AE20E94AD280E94A11B0C944C
:10376000A21B81E008950C94B11B089508950E9456
:10377000B51B0C94B61B0E9448280E94EB0C0E94BB
:103780004E160C94A51BCF93C82F80914D0282FF3B
:103790001EC080FF1CC088E09CE00E945D078091F5
:1037A0004D0280FF14C01F92CF9383E09CE09F9353
:1037B0008F930E94F60780914D020F900F900F900B
:1037C0000F9080FF04C081E09CE00E945D078C2F79
:1037D000CF910C94370A8F929F92AF92BF92CF9263
:1037E000DF92EF92FF920F931F93CF93DF93CDB7AA
:1037F000DEB72A970FB6F894DEBF0FBECDBF0E948A
:10380000390D81110E94861B55EC852E51E0952EB5
:1038100010E000E0A02E802F0E947C0C6C01F401CF
:10382000E190F1904F01E816F90609F45CC080912F
:103830004D0281FD0E94850CC7018C259D25B12C70
:10384000EE24E394F12C9C012E213F21232B09F43B
:1038500044C00E94B31B8823A9F0BE82AF82CE2051
:10386000DF2081E0CD2809F480E088870E9451287C
:103870008160782F9A8789874E815F8168858A85E4
:103880000E949D1C000F111FF801EB53FE4F808119
:103890009181E826F926F182E0820E94F0140E94CC
:1038A000F41A9091C4018917A9F10E94F41A809327
:1038B000C4012A960FB6F894DEBF0FBECDBFDF91CC
:1038C000CF911F910F91FF90EF90DF90CF90BF901D
:1038D000AF909F908F900C94C31BB394EE0CFF1C81
:1038E000FCE0BF12B0CF0F5F1F4F0530110509F08C
:1038F00091CF8FEF89838A831B820E945128816038
:10390000782F9D838C8349815A816B818D810E94A0
:103910009D1CC3CF2A960FB6F894DEBF0FBECDBF55
:10392000DF91CF911F910F91FF90EF90DF90CF909B
:10393000BF90AF909F908F900895DF92EF92FF928B
:103940000F931F93CF93DF93CDB7DEB72B970FB6AF
:10395000F894DEBF0FBECDBF7A878B87F42E052F7C
:10396000162FE72ED82E61110E942C261E821D8252
:103970007E2DEC82DD824F2D502F612F8D2D9E816B
:103980002B960FB6F894DEBF0FBECDBFDF91CF915F
:103990001F910F91FF90EF90DF900C94CF22FC01CC
:1039A000808191810C948525CF93C82F882309F4B9
:1039B00090C08238C1F40E94F41A81FD8AC089E364
:1039C0000E94B3250E945C262FEF81EE94E02150E7
:1039D00080409040E1F700C0000089E30E94BA25D2
:1039E000CF910C945C268338A1F40E94F41A80FDD8
:1039F00070C083E50E94B3250E945C262FEF81EE04
:103A000094E0215080409040E1F700C0000083E541
:103A1000E5CF8438A1F40E94F41A82FD5AC087E4ED
:103A20000E94B3250E945C262FEF81EE94E0215086
:103A300080409040E1F700C0000087E4CFCF8CEFDA
:103A40008C0F813AB8F48C2F0E94BA11811141C0B9
:103A50006C2F80910801909109010E948D27882385
:103A600029F08C2F0E94BA250E945C268C2F0E9480
:103A7000B325B6CF80E28C0F883048F4C77081E060
:103A800001C0880FCA95EAF70E940F26A9CFEBE57F
:103A9000EC0FE33040F4F0E0E157FE4F808190E01E
:103AA000CF910C945A1BE8E5EC0FE73150F4F0E0AD
:103AB000EE0FFF1FEF59FE4F80819181CF910C9443
:103AC000701BC03F30F08C2F0E948013CF910C945C
:103AD0005314CF910895882309F452C0823871F4A9
:103AE0000E94F41A81FF4CC089E30E94B3250E9412
:103AF0005C2689E30E94BA250C945C26833859F42D
:103B00000E94F41A80FF3CC083E50E94B3250E9406
:103B10005C2683E5EFCF843859F40E94F41A82FFC3
:103B20002FC087E40E94B3250E945C2687E4E2CF81
:103B30009CEF980F913AF0F290E2980F983050F481
:103B4000877091E001C0990F8A95EAF7892F0E944A
:103B50001526D2CF9BE5980F933020F490E080E0BB
:103B60000C945A1B98E5980F973120F490E080E070
:103B70000C94701B803F20F00E94DA130C945314B5
:103B800008951F93CF93DF93182FEB010E94D41C4D
:103B9000209731F4812FDF91CF911F910C946B1DF1
:103BA0008FE99FE00197F1F700C000002197F0CF67
:103BB00070E060E0893311F460E570E00C94C11DA1
:103BC000882321F00E940F260C945C2608958823F8
:103BD00021F00E9415260C945C260895BF92CF9286
:103BE000DF92EF92FF920F931F93CF93DF936C01BD
:103BF000D62FC72FFC011281058102950F700E94FC
:103C0000D125E82E8823A1F0E12E112389F08C2FF5
:103C1000807F803429F080E28D0FE12C883040F0E5
:103C200082E00E94AD260E94D12591E0E82EE9268F
:103C3000BC2EB2949FE0B922EB2DF0E0EA59FE4C85
:103C40000C94EE300C2F0F70C07F11F00295007FA6
:103C50001123A9F0002359F080E28D0F883010F075
:103C6000D11109C0802F0E940F260E945C268D2F43
:103C70000E94D41C14C0802F0E941F26F6CF8D2FC7
:103C80000E946B1D002359F080E28D0F883010F0E8
:103C9000D1112CC0802F0E9415260E945C262B2D4E
:103CA0002850330B2430310520F40E94F41A0E946E
:103CB000370AEE2009F49EC10E94CD2580FD9AC1ED
:103CC000F60112820E94C7250E945324C6010E9459
:103CD0001B200E94C725DF91CF911F910F91FF906C
:103CE000EF90DF90CF90BF900C947424802F0E94AF
:103CF0002526D3CFFC2FFF70FF2EC07FC03219F0D6
:103D0000F29480EFF822DD2369F0D13049F11123DC
:103D100091F1002351F1F601858180FFA8CF8F70CA
:103D2000858323C0112381F0011106C00E943F2624
:103D30008F290E94E01DB3CF0130C1F70E943F26BA
:103D40008F290E944526ABCF011106C00E94522642
:103D50008F2D0E94E71DA3CF013009F4A0CFF6CF2D
:103D6000112329F0063008F09ACF8F2DE2CF0530CD
:103D700008F095CFEDCF002359F3D93349F4FFEF85
:103D800027EE33E0F15020403040E1F700C0000062
:103D90008D2F0E946B1D83CF8C2F86958695837007
:103DA00069F0813009F07BCF8D2F9C2F937011111A
:103DB00002C090E080E00E94701B71CF8D2F9C2F7D
:103DC0009370111102C090E080E00E945A1B67CFEF
:103DD0008D2F112329F00E9480130E9453145FCF6E
:103DE0000E94DA13FACF8C2F837009F041C01111B1
:103DF00056CF4D2F429546954770440F440F0D2FD7
:103E00000F7010E030E020E0042E04C0000F111FFE
:103E1000221F331F0A94D2F760E070E0CB01D4FF79
:103E20000FC06FE070E080E090E004C0660F771F85
:103E3000881F991F4A95D2F7609570958095909547
:103E4000C695C695C370602B712B822B932BC23005
:103E500049F058F4C13019F00E94052420CF0E9487
:103E6000F3231DCF0E9417241ACF0E94F12317CFEE
:103E70008695112311F08C2F8170882309F40FCFC0
:103E80004D2F429546954770440F440F0D2F0F70EC
:103E900010E030E020E0042E04C0000F111F221FAC
:103EA000331F0A94D2F760E070E0CB01D4FF0FC05B
:103EB0006FE070E080E090E004C0660F771F881F1D
:103EC000991F4A95D2F76095709580959095C69503
:103ED000C695C370602B712B822B932BC23049F097
:103EE00058F4C13019F00E94CA24D9CE0E94B824D7
:103EF000D6CE0E94DC24D3CE0E942D24D0CECF700B
:103F0000112329F08C2F0E9453248D2F12CF8D2F37
:103F10000E94E71D8C2F0E947424C1CED23F89F1EC
:103F200060F4D03FC9F0D13F29F1112309F442C018
:103F300001119DCE8C2F8F7121C0D33F39F1D43F19
:103F4000A1F7112369F1CF718C2F0E94532463E0F4
:103F50008C2F0E949226A3CE112341F0053008F049
:103F60009ECE8C2F8F710E94972499CE063008F038
:103F700096CEF7CF8C2F8F71112369F20E945324B4
:103F80008ECE8C2F8F711123C9F3C5CF112329F049
:103F90008C2F8F710E943E2482CE0E9439247FCEC6
:103FA00081E00E94AD26023008F479CE82E00E94C2
:103FB000AD2675CE002359F0D93309F0E9CE8FEF45
:103FC00097EEE3E081509040E040E1F7DFCE8C2FA8
:103FD0008F71A1CF4C2F4F706D2FC6010E943F0AE9
:103FE0000E9469235CCE4C2F4F706D2FC6010E943A
:103FF000420A55CEDF91CF911F910F91FF90EF9024
:10400000DF90CF90BF9008950F931F93CF93DF93CE
:10401000EC01688179818A810E948F258C010E9440
:10402000EE240E94F023B801CE01DF91CF911F91C1
:104030000F910C94EE1DCF93DF93EC018B819C814B
:10404000892B29F08881998189238F3F59F4DF9149
:10405000CF910895CE010E940420CE01DF91CF912F
:104060000C944408CE010E94CB088111F3CF0E942A
:10407000D125882361F38A81882349F382E0DF9187
:10408000CF910C94AD2690E080E00E945A1B90E006
:1040900080E00E94701B0E942C260E943C260E94F9
:1040A0005C260E94FC150C9453140E94C1250C94AC
:1040B00043200E941C260C945520E92FE295EF70B6
:1040C000E250EE3070F4F0E0EA58FE4C0C94EE3022
:1040D000803F19F020F4883E20F481E00895843F69
:1040E000E1F380E00895883EC0F3813FD1F7F5CF3A
:1040F00093FB882780F908950E9485250C945D2004
:10410000CF93DF9300D000D00F92CDB7DEB70F90E2
:104110000F900F900F900F90DF91CF910895CF9354
:10412000DF9300D000D000D0CDB7DEB726960FB613
:10413000F894DEBF0FBECDBFDF91CF9108951F93DE
:10414000CF93DF93C091D80116E08091D9018C13F1
:1041500004C0DF91CF911F910895D0E01C9FF00122
:104160001D9FF00D1124E652FE4F40815181628166
:104170007381848195810E948F202196C770E5CF3D
:1041800040910A0250910B0260910C0270910D0255
:1041900080910E0290910F020C948F201F93CF9369
:1041A000DF9380910F02807FA9F480910C02882315
:1041B00089F08091D801C091D90160910A02709173
:1041C0000B02A0910D02B0910E02D62FD72316E05C
:1041D000C81304C0DF91CF911F91089590E010970C
:1041E00011F0DF3F19F401968770F2CF189F90010C
:1041F000199F300D1124F901E652FE4F41814713FA
:10420000F2CF40814613EFCF42814111ECCF438181
:1042100054814A1B5B0B483C510528F780910F02E3
:104220008F70806180930F02F901E152FE4F80810F
:104230008F70806180838AE092E00E941B20DF9172
:10424000CF911F910C949F20AF92BF92CF92DF929B
:10425000EF92FF920F931F93CF93DF93CDB7DEB70B
:1042600061970FB6F894DEBF0FBECDBF8C0185E01D
:10427000F801DE011D9601900D928A95E1F7F80193
:1042800040815181E2808AE0C82E82E0D82E609180
:104290000D0270910E026115710509F461C19091D2
:1042A0000A0220910B02892F82238F3F09F458C103
:1042B000A380B480F0900C02F501E61BF70BFF2001
:1042C00009F4FCC080910F02382F307FE83CF105E3
:1042D00008F0B2C0311179C0FE2C251323C094130D
:1042E00021C0E1101FC08F70806180930F020E9477
:1042F000C020C6010E941B2080910F02F801858317
:104300008F2D61960FB6F894DEBF0FBECDBFDF9143
:10431000CF911F910F91FF90EF90DF90CF90BF90C2
:10432000AF900895AB2829F0842F85238F3F09F0A3
:1043300033C180E0F82FF170DF2E80FF3CC0809108
:10434000D8012091D90136E0821315C04D875E87D0
:104350008D859E850E948525292F22952F702230DC
:10436000F0F0243018F59F70F1F0F8019581907FFE
:10437000D1F4D12C1EC090E0389FF001399FF00D90
:104380001124E652FE4F6181651306C060816413FB
:1043900003C062816E110FC001968770D5CF9F70E8
:1043A00011F0882331F3805E883018F3C8010E9431
:1043B0001B20FD2CA5CFEE2009F4A2CF80910F0287
:1043C000816080930F02F12C9BCF251306C09413BC
:1043D00004C0F801EE2009F48DC04D875E878D85FD
:1043E0009E850E947C20882319F1EE2009F180919E
:1043F0000F02803270F020910A0230910B02388750
:104400002F831986BB86AA868C87CE0107960E94C9
:104410001B2086E0F801AAE0B2E001900D928A9597
:10442000E1F70E94CE200E94C020FF24F39468CFC1
:10443000C8010E941B20F9CF311113C07A2DB98A0F
:10444000A88A6E2D89890E9480208AE092E00E94CD
:104450001B2086E0F60111928A95E9F70E94C020A0
:10446000B2CF25130FC094130DC0E1100BC0F8019B
:104470008583C8010E941B2086E0F60111928A956F
:10448000E9F73ECF4D875E878D859E850E947C2013
:10449000882371F2EE2061F280910F02803208F4DD
:1044A000B8CF20910A0230910B023A8329831B82F4
:1044B000BD82AC828E83CE010196A9CFE83CF10586
:1044C00008F041C0FE2CEE2009F4B2CF25132AC01B
:1044D000941328C080910F0280FD1BC0982F907FFD
:1044E000C1F0F8018583903F31F0982F907F905F65
:1044F0008F70892B8583C8010E941B2086E0F801FC
:10450000AAE0B2E001900D928A95E1F70E94C020E6
:10451000F7CE86E0F801AAE0B2E001900D928A950C
:10452000E1F7EECE4D875E878D859E850E947C20CB
:1045300081116FCF80910F02816080930F02C801BB
:104540000E941B20DDCE7A2DB98AA88A6E2D89891A
:104550000E94802086E0F60111928A95E9F7D6CF75
:10456000EE2009F465CF4D875E878D859E850E947C
:104570007C20F82E882309F45BCF86E0F801AAE0BE
:10458000B2E001900D928A95E1F78AE092E00E94F4
:10459000CF1C0E94CE20BACF81E08E25CBCE1F93B8
:1045A000CF93DF93CDB7DEB72C970FB6F894DEBF6D
:1045B0000FBECDBF4F83588769877A878B879C87CB
:1045C000CE0107960E942421882369F08A859B8565
:1045D000892B39F04F815885842F85238F3F09F02F
:1045E00071C016E05FC086E0FE013796DE011196CD
:1045F00001900D928A95E1F78A859B85892B89F335
:104600008F81988589238F3F61F32091D90130E014
:10461000C9010196877099274091D801481719065A
:1046200071F40E9459201092D9011092D80186E0AD
:10463000EAE0F2E0DF011D928A95E9F7D2CF96E039
:10464000929FD001939FB00D1124A652BE4FFE0140
:10465000319601900D929A95E1F78093D9010E94CD
:104660009F20BFCF819FC001112486529E4F0E9480
:1046700024218823E9F0E091D8011E9FF001112444
:10468000E652FE4F40815181628173818481958120
:104690000E948F208091D80190E001968770992721
:1046A0008093D8018091D8019091D9018913DACFF4
:1046B0002C960FB6F894DEBF0FBECDBFDF91CF9121
:1046C0001F91089569857A858B859C850E948F202E
:1046D00088CFEF92FF920F931F93CF93DF938C01BC
:1046E000892B81F0F12CEE24E394E8012196F80166
:1046F0008491843770F4843008F05FC08130B1F069
:104700008230A1F1DF91CF911F910F91FF90EF9037
:104710000895853709F44CC008F43DC09CE7980F14
:10472000903780F78F770E946B1D49C00E5F1F4F37
:10473000FE01849190E2980F983060F48770FE2D0E
:1047400001C0FF0F8A95EAF78F2F0E942F260E9443
:104750005C2602C00E94D41C8F2D815030F2EFE9FC
:10476000FFE03197F1F700C00000F7CF0E5F1F4F59
:10477000FE01849190E2980F983050F48770FE2DDE
:1047800001C0FF0F8A95EAF78F2F0E943526DFCFF1
:104790000E946B1DE1CF0E5F1F4FFE01C491C150FF
:1047A000D8F28FE99FE00197F1F700C00000F7CF42
:1047B0000E5F1F4FFE01F490CFCF0E94D41C8E01DC
:1047C000CBCF08950C94E1230E94E22360933C0236
:1047D00070933D0280933E0290933F020C944320DD
:1047E00008950C94E4230F931F9300913C021091C1
:1047F0003D0220913E0230913F02602B712B822BB3
:10480000932B1F910F910C94E4230F931F9300910E
:104810003C0210913D0220913E0230913F02602304
:104820007123822393231F910F910C94E4230F9300
:104830001F9300913C0210913D0220913E02309165
:104840003F0260277127822793271F910F910C94B5
:10485000E4230C94E1230C9429240E942B246093DC
:1048600038027093390280933A0290933B020C9481
:10487000432060E070E0CB010C942D240F931F9334
:1048800041E050E060E070E08A019B0104C0000F4D
:10489000111F221F331F8A95D2F7C901B8011F913A
:1048A0000F910C942D240F931F9341E050E060E092
:1048B00070E004C0440F551F661F771F8A95D2F71A
:1048C0008091380290913902A0913A02B0913B0256
:1048D0008A019B01082B192B2A2B3B2BC901B801FC
:1048E0001F910F910C942D240F931F9341E050E0E2
:1048F00060E070E004C0440F551F661F771F8A9563
:10490000D2F7CB01BA016095709580959095009192
:1049100038021091390220913A0230913B02602313
:104920007123822393231F910F910C942D240F93B5
:104930001F9341E050E060E070E004C0440F551F59
:10494000661F771F8A95D2F78091380290913902BD
:10495000A0913A02B0913B028A019B0108271927D6
:104960002A273B27C901B8011F910F910C942D24D0
:104970000F931F93009138021091390220913A024F
:1049800030913B02602B712B822B932B1F910F9147
:104990000C942D240F931F9300913802109139022B
:1049A00020913A0230913B026023712382239323AA
:1049B0001F910F910C942D240F931F930091380297
:1049C0001091390220913A0230913B026027712701
:1049D000822793271F910F910C942D2408952CE08A
:1049E000929F800D1124982F977041E001C0440FD1
:1049F0009A95EAF786958695869595E0899FF001C8
:104A00001124E05FFD4F90E080E070E05191DF0104
:104A100011979B01082E02C0369527950A94E2F75C
:104A2000217021952527242325272C930196853055
:104A3000910561F708952CE0929F800D1124982F25
:104A4000977086958695869525E0829FF0011124C2
:104A5000E05FFD4F50E040E080E0219130E0092E22
:104A600002C0369527950A94E2F721703327042E69
:104A700001C0220F0A94EAF7822B4F5F5F4F453047
:104A8000510559F70895BF92CF92DF92EF92FF92AE
:104A90000F931F93CF93DF938C01C0903802D09077
:104AA0003902E0903A02F0903B0280913C029091F2
:104AB0003D02A0913E02B0913F02C82AD92AEA2ABB
:104AC000FB2ACFE1D0E0BC2ED701C6010C2E04C0DA
:104AD000B695A795979587950A94D2F780FD0EC055
:104AE000219788F7B12C8B2DDF91CF911F910F91DA
:104AF000FF90EF90DF90CF90BF900895B8018C2F7A
:104B00000E944B0A019761F3EECFCF93DF93EC0144
:104B10000E944325BE01DF91CF910C944B0A1F9355
:104B2000CF93DF93EB019091D701992331F0CB0123
:104B3000DF91CF911F910C948525882379F0CB01CB
:104B40000E944325182F682FCE010E94EF24BE013A
:104B5000812FDF91CF911F910C944B0ACB010E94C2
:104B60001B25182FF4CF682F80910801909109011F
:104B70000C94C327682F80910801909109010C942F
:104B8000C52780910801909109010C94C727809155
:104B9000400285958595859508958091400287709E
:104BA000089590914002977081E009F480E00895A3
:104BB000CF93C82F80915D0282FB992790F99C17B3
:104BC000D1F0C0FB82F980935D0280915C029091EC
:104BD0005D020E94F02680914D0280FF0CC01F9262
:104BE000CF938BE19CE09F938F930E94F6070F90E9
:104BF0000F900F900F90CF91089580915D0282FBEE
:104C0000882780F991E089270C94D82581E00C94BD
:104C1000D82580E00C94D82580914C02089590917D
:104C20004C02892B80934C020895809590914C0200
:104C3000982390934C02089510924C0208959091FD
:104C40004B02892B80934B020895809590914B02E3
:104C5000982390934B02089510924B0208959091DF
:104C60004A02892B80934A020895809590914A02C6
:104C7000982390934A02089510924A0208958091D1
:104C80004102089508950C94422690915D0292FD90
:104C900008C090914102981721F0809341020C9432
:104CA0004326089580914102882329F01092410201
:104CB00080E00C9443260895E0910801F0910901E9
:104CC00080914C028083E0910801F091090180817C
:104CD00090914B02892B8083E0910801F0910901AA
:104CE000808190914A02892B80839091410299237F
:104CF00081F0E0910801F09109018081892B808386
:104D000080910801909109010E947B2781110E94E6
:104D1000522680910801909109010C94001B08957E
:104D20000C948F2690915D0292FD10C098E0899FAF
:104D300090011124622B609340020E9453248091C1
:104D400040028595859585950C9490260C94532466
:104D50001092400280E00C94902690914002809541
:104D6000892380934002282F277039F4282F082E9A
:104D7000000C330B9217130621F490915D0292FF01
:104D800007C08595859585950E9474240C94A82666
:104D900008956FEF7FEF90E080E00C943B3190E05E
:104DA00080E00E94173121E08A3E9E4F09F020E00A
:104DB000822F089582E090E00C940F3183E090E020
:104DC0000C940F31CF9384E090E00E940F31C82FF4
:104DD00082E290E00E940F31982F8C2FCF9108959E
:104DE000CF93C92F682F84E090E00E941D316C2F73
:104DF00082E290E0CF910C941D31AB01BC018FE0B9
:104E000090E00C942F31AB01BC0183E190E00C9455
:104E10002F3160E070E0CB010C94032760E070E07C
:104E2000CB010E94FD260C9409276AEE7EEF90E0EC
:104E300080E00E943B3160E082E090E00E941D3102
:104E400060E083E090E00E941D3110923C021092DD
:104E50003D0210923E0210923F0260E084E090E03A
:104E60000E941D3160E082E290E00E941D3160E00E
:104E700085E090E00E941D3160E086E090E00E94B5
:104E80001D316FEF87E090E00E941D3140E050E05F
:104E9000BA0188E090E00E942F3160E08DE090E060
:104EA0000E941D3140E050E0BA0188E190E00E948C
:104EB0002F3160E087E190E00E941D3140E050E03A
:104EC000BA018CE190E00E942F3170E060E080E256
:104ED00090E00E943B3140E050E0BA0188E190E070
:104EE0000E942F310C940E270C941527682F8EE00A
:104EF00090E00C941D319C012E5F3F4FAC01485F48
:104F00005F4F80E02417350709F40895F901919166
:104F10009F019923B9F38F5FF5CF662349F0FC0118
:104F2000329608962191261729F0E817F907D1F74C
:104F300080E0089581E008959C01FC0132969FEF86
:104F400080E04191461751F09F3F19F4411101C093
:104F5000982F8F5F8630A9F79F3F09F40895290F96
:104F6000311D97FD3A95F90162830895FC0132964F
:104F700008962191261303C0DF0111971C92E817B0
:104F8000F907B9F708950C949C270C94B62702965C
:104F900026E0FC0111922A95E9F7089508950895F5
:104FA0000C94CF2780917A02843049F10E94D02757
:104FB00080E00E94370A10924E0288E190E020E4DF
:104FC0000FB6F894A895809360000FBE2093600000
:104FD00083B7817F846083BF83B7816083BF789408
:104FE000889583B78E7F83BF0FB6F894A89580917C
:104FF0006000886180936000109260000FBE089589
:105000000895CF930E94CE270E94390D0E94002858
:10501000C0E08C2F0E947C0C892B31F4CF5FC5300F
:10502000C1F780E0CF91089581E0FCCF08950C9402
:1050300016280E9459200E94F41A0E94370A0C94E4
:1050400017281F921FB61F9211248F939F93AF931F
:10505000BF9380914E02811113C080917202909192
:105060007302A0917402B09175024196A11DB11D09
:105070008093720290937302A0937402B0937502AE
:10508000BF91AF919F918F911F901FBE1F90189558
:1050900082E084BD93E095BD9AEF97BD80936E004A
:1050A00008952FB7F8948091720290917302A091A5
:1050B0007402B09175022FBF08952FB7F8946091D4
:1050C00072027091730280917402909175022FBFE9
:1050D00008959C014FB7F8948091720290917302E9
:1050E000A0917402B09175024FBF821B930B08957B
:1050F00078941F921FB61F9211248F939F93AF93A2
:10510000BF938091720290917302A0917402B0914A
:1051100075020196A11DB11D8093720290937302D6
:10512000A0937402B0937502BF91AF919F918F913C
:105130001F901FBE1F90189587E797E7909301086F
:105140008093000888E19AE00FB6F894A8958093C0
:1051500060000FBE90936000FFCF9093A7018093F3
:10516000A601089580915A020895CF93DF9300D04D
:105170000F92CDB7DEB790917A02943011F5898302
:105180007B836A839093E9008FEF9091E8008150D0
:1051900095FD06C095ED9A95F1F700008111F5CFC8
:1051A0008091E80085FF0DC050E040E063E070E0D2
:1051B000CE0101960E94EF2B8091E8008E778093BC
:1051C000E8000F900F900F90DF91CF910895BC01F0
:1051D00084E00C94B528BC0183E00C94B5289C01B4
:1051E00084E08093E9009FEF8091E800915085FD75
:1051F00006C085ED8A95F1F700009111F5CF8091F9
:10520000E80085FF0CC050E040E066E070E0C901B6
:105210000E94EF2B8091E8008E778093E80008953C
:10522000CF93DF93EC0181E08093E9008FEF9091C1
:10523000E800815095FD06C095ED9A95F1F70000C4
:105240008111F5CF8091E80085FF14C050E040E067
:1052500068E070E0CE010E94EF2B8091E8008E772D
:105260008093E80088E0FE01A2E5B2E001900D9293
:105270008A95E1F7DF91CF910895CF93FC016032D9
:1052800021F580917A02843001F5C091E900CF7058
:105290002091EC00922F917020FD90E8C92B82E0C4
:1052A0008093E9008091E80080FF0CC050E040E06E
:1052B00060E270E0CF010E94EF2B8091E8008E77D2
:1052C0008093E800CF70C093E900CF91089585E501
:1052D0009CE00E945D0780917902811109C00E94C3
:1052E000CE2D0E942B2E8091E20084608093E200FC
:1052F000089581E59CE00E945D071092790208956F
:105300008DE49CE00C945D0789E49CE00C945D07BF
:1053100085E49CE00C945D07209150022F5F822F62
:1053200062E30E94CE30992319F020935002089531
:1053300010925002809151028823F1F080917A02FC
:105340008430C1F49091E9009F702091EC00822F8D
:10535000817020FD80E8892B95E09093E900909181
:10536000EB0090FF04C09091EE0097FD08C08F7095
:105370008093E9001092510208951092F1009091EB
:10538000E80095FDFACF9091E80090FFF0CF909162
:10539000E8009E779093E800EACF42E061EC81E07C
:1053A0000E944A2D42E261EC84E00E944A2D42E2D2
:1053B00061EC82E00E944A2D42E260EC83E00E94B0
:1053C0004A2D42E261EC85E00C944A2D80917C02EA
:1053D000833009F461C030F48130D1F1823009F4B6
:1053E0009DC008958A3009F489C08B3009F46FC0DC
:1053F000893009F050C080917B02813209F04BC0A6
:1054000080917F0290918002009719F0029709F035
:1054100042C08091E800877F8093E8008091E80097
:1054200082FF35C09091F3008091F200029729F439
:105430008091F1008B7F813021F48091F100809385
:105440005A028091E8008B778093E8000C947E2DBF
:1054500080917B02813AF9F48091E800877F809304
:10546000E80080917F0290918002892B61F468E0CE
:1054700082E592E070E00E948D2C8091E8008B77AD
:105480008093E800089560E090E080E0F3CF8091A1
:105490007A028111C3CF089580917B02813AD9F7B6
:1054A00080917F0290918002892BA9F78091E8007A
:1054B000877F8093E8008091E80080FFFCCF809197
:1054C00014018093F1008091E8008E77BDCF809128
:1054D0007B02813201F780917F0290918002892BBB
:1054E000D1F68091E800877F8093E8000E947E2DAE
:1054F00080917D02809314010C94592080917B024D
:10550000813249F68091E800877F8093E8000E940D
:105510007E2D80917E0280935B02089580917B02B4
:10552000813A09F0B8CF8091E800877F8093E80046
:105530008091E80080FFFCCF80915B02C2CF9FB7D3
:10554000F894109251029FBF90917A02943009F022
:1055500048C02091E9002F703091EC00932F91709A
:1055600030FD90E8922B25E02093E9002091EB009C
:1055700020FF34C02091EE0027FF30C020914F0261
:10558000222321F02091E80025FF28C010924F022D
:1055900026E03091E80035FF14C08093F10080913F
:1055A000E80085FD27C08091E80080FFFCCF809156
:1055B000E8008E778093E8009F709093E90080E088
:1055C000089530917A02343049F43091EB0035FD82
:1055D00005C0215041F481E080934F029F70909369
:1055E000E9008FEF0895EFE9FFE03197F1F700C090
:1055F0000000CFCF8FB7F89421E0209351028FBFE6
:10560000DBCFCDB7DEB7A0970FB6F894DEBF0FBEE5
:10561000CDBF84B7877F84BF0FB6F894A8958091DB
:105620006000886180936000109260000FBE80E887
:1056300090E00FB6F89480936100909361000FBEE4
:105640000E94A71B0E94CE2D0E942B2E8091E2006B
:1056500084608093E20078940E94B3300E94BB1B68
:105660008AE091E00E94EF1A84E39CE00E945D07CB
:1056700013E080917A02853051F480E39CE00E942F
:105680005D0780917A02853059F00E9419280E94A6
:10569000EB1B80917A02843091F00E94B71BE9CF16
:1056A0000E94D22780917802882359F30E94012812
:1056B000882339F30E94D92B0E945920E2CF1093FE
:1056C000E9008091E80082FFE8CF8091E80090E057
:1056D00085FF09C050E040E060E270E0CE01019635
:1056E0000E943E2C91E08091E8008B778093E80047
:1056F000992399F260E2CE0101960E949D16CDCFCA
:105700000C94822B292F33272330310521F168F4A3
:105710002130310509F443C02230310509F444C079
:1057200090E080E030E020E026C02132310551F1E8
:1057300022323105A9F76430710590F7FB01EE0FB5
:10574000FF1FEA56FE4F208131816E567E4FFB01CE
:10575000808190E010C099278130910581F00097F9
:1057600029F00297E9F6E9E5FCE002C0EFE7FCE08A
:10577000849190E09F01FA01318320830895E5E64A
:10578000FCE0F6CF6430710558F6660F771FFB0119
:10579000E256FE4F2081318189E090E0ECCF82E13A
:1057A00090E02EEF3CE0E7CF8BE790E023E83CE091
:1057B000E2CF80E189BD82E189BD09B400FEFDCF61
:1057C0008091D8008F7D8093D8008091E000826026
:1057D0008093E0008091E00081FDFCCF0895AF92BE
:1057E000BF92CF92DF92FF920F931F93CF93DF93DD
:1057F0006C01EB018A010E949D2DF82E811123C0BE
:105800000115110539F0F80180819181C81BD90B70
:10581000C80ED91EB12CA12C2097A9F08091E800C8
:1058200085FD22C08091E8008E778093E800011505
:105830001105A1F0F80180819181A80EB91EB182F5
:10584000A08285E0F82E8F2DDF91CF911F910F91CF
:10585000FF90DF90CF90BF90AF9008950E949D2D54
:105860008823D1F2F82EEFCFF60181916F0180935A
:10587000F1002197FFEFAF1ABF0ACECFAF92BF92D0
:10588000CF92DF92FF920F931F93CF93DF936C0120
:10589000EB018A010E949D2DF82E811123C0011574
:1058A000110539F0F80180819181C81BD90BC80E10
:1058B000D91EB12CA12C2097A9F08091E80085FD7C
:1058C00022C08091E8008B778093E80001151105D4
:1058D000A1F0F80180819181A80EB91EB182A08249
:1058E00085E0F82E8F2DDF91CF911F910F91FF90C2
:1058F000DF90CF90BF90AF9008950E949D2D882398
:10590000D1F2F82EEFCF8091F100F60181936F0173
:105910002197FFEFAF1ABF0ACECFFC018091810221
:105920009091820286179707A0F06115710529F4FE
:105930009091E8009E779093E80090E061157105E2
:1059400051F4911108C08091E80082FF34C080E0DA
:105950000895BC01F2CF80917A028823C1F185308D
:10596000C1F18091E80083FD30C08091E80082FDA4
:10597000EACF8091E80080FFE1CF8091F300209191
:10598000F200382F6115710519F02830310558F0F3
:1059900091E02830310509F090E02091E8002E7761
:1059A0002093E800CBCF81918093F1006150710981
:1059B0002F5F3F4FE7CF80917A02882341F08530F7
:1059C00041F08091E80083FFBECF81E0089582E03E
:1059D000089583E00895FC018091810290918202F4
:1059E00086179707A0F06115710529F48091E800EA
:1059F0008E778093E80090E06115710551F4911164
:105A000008C08091E80082FF35C080E00895BC01A5
:105A1000F2CF80917A028823C9F18530C9F1809153
:105A2000E80083FD31C08091E80082FDEACF8091DB
:105A3000E80080FFE1CF8091F3002091F200382F41
:105A40006115710519F02830310558F091E02830C2
:105A5000310509F090E08091E8008E778093E800AE
:105A6000CBCF84918093F1003196615071092F5F03
:105A70003F4FE6CF80917A02882341F0853041F094
:105A80008091E80083FFBDCF81E0089582E0089512
:105A900083E00895982F973028F08F708093E90065
:105AA00081E008959093E900242F762F50E0981715
:105AB00031F07091EC002091ED005091F00021FD4B
:105AC00002C09F5FE8CF3091EB003E7F3093EB0048
:105AD0003091ED003D7F3093ED003091EB0031606F
