:100000000C943C070C9483070C9483070C9483078F
:100010000C9483070C9483070C9483070C94830738
:100020000C9483070C9483070C941D260C94D925FB
:100030000C94632C0C9483070C9483070C94830713
:100040000C9483070C9483070C9483070C94830708
:100050000C9483070C943F2C0C9483070C94830717
:100060000C9483070C9483070C9483070C948307E8
:100070000C9483070C9483070C9483070C948307D8
:100080000C9483070C9483070C9483070C948307C8
:100090000C9483070C9483070C9483070C948307B8
:1000A0000C9483070C9483070C9483070631FF0993
:1000B00074A1010975150026FF00952075088102BD
:1000C0000976150026FF00952075089102C00501EC
:1000D0000902A10185020901A100050919012908E8
:1000E00015002501950875018102050109300931C6
:1000F0001581257F95027508810609381581257FB0
:10010000950175088106050C0A38021581257F9531
:100110000175088106C0C005010980A10185031988
:10012000012AB700150126B700950175108100C09E
:10013000050C0901A101850419012AA00215012657
:10014000A002950175108100C00660FF0961A10140
:100150000962150026FF00952075088102096315C4
:100160000026FF00952075089102C005010906A12F
:1001700001050719E029E71500250195087501819A
:10018000029501750881010507190029FF15002650
:10019000FF009506750881000508190129059505D8
:1001A00075019102950175039101C00000000000E6
:1001B000000000000000000000000000000000003F
:1001C0000000000000000000000000000000007EB1
:1001D0000F00D4FFFFFFC700000078000000000000
:1001E0000000002A2B280000000000000000000092
:1001F00000000000000029000000002C1E34202117
:100200002224342627252E362D3738271E1F20215D
:1002100022232425263333362E37381F04050607BC
:1002200008090A0B0C0D0E0F1011121314151617D6
:1002300018191A1B1C1D2F3130232D3504050607F4
:1002400008090A0B0C0D0E0F1011121314151617B6
:1002500018191A1B1C1D2F3130354C0A002575004A
:100260002E6E6B726F3A20000A002575002E737790
:1002700061705F6261636B736C6173685F6261631D
:100280006B73706163653A20000A002575002E7358
:100290007761705F67726176655F6573633A2000AE
:1002A0000A002575002E6E6F5F6775693A20000A97
:1002B000002575002E737761705F72616C745F72D8
:1002C0006775693A20000A002575002E7377617002
:1002D0005F6C616C745F6C6775693A20000A002579
:1002E00075002E737761705F7263746C5F726775EF
:1002F000693A20000A002575002E737761705F6CE3
:1003000063746C5F6C6775693A20000A002575009C
:100310002E636170736C6F636B5F746F5F636F6E7E
:1003200074726F6C3A20000A002575002E73776195
:10033000705F636F6E74726F6C5F636170736C6F0C
:10034000636B3A20000A0025303258006B65796DE6
:1003500061705F636F6E6669672E7261773A200025
:100360000A002575002E6D6F7573653A20000A002E
:100370002575002E6B6579626F6172643A20000A00
:10038000002575002E6D61747269783A20000A00AC
:100390002575002E656E61626C653A20000A0025A5
:1003A0003032580064656275675F636F6E666967B7
:1003B0002E7261773A20000A002575006465666137
:1003C000756C745F6C617965723A20000A092D20A2
:1003D0004D61676963202D0A443A09446562756777
:1003E000204D65737361676520546F67676C650A9C
:1003F000583A094D617472697820446562756720C6
:100400004D6F646520546F67676C65202D205368BD
:100410006F77206B65797072657373657320696E91
:10042000206D617472697820677269640A4B3A09B9
:100430004B6579626F617264204465627567205410
:100440006F67676C65202D2053686F77206B657927
:100450007072657373207265706F72740A4D3A0919
:100460004465627567204D6F75736520546F6767CB
:100470006C650A563A0956657273696F6E0A533A8B
:10048000095374617475730A433A09416374697658
:1004900061746520436F6E736F6C65204D6F64658A
:1004A0000A46312D4631303A095377697463682022
:1004B000746F204C6179657220302D3920284631C7
:1004C00030203D204C30290A302D393A09537769C4
:1004D00074636820746F204C6179657220302D3907
:1004E0000A47524156453A09537769746368207444
:1004F0006F204C6179657220302028616C746572C0
:100500006E617465290A423A094A756D7020746FEC
:1005100020426F6F746C6F616465720A4553433A91
:10052000094A756D7020746F20426F6F746C6F6133
:100530006465722028616C7465726E617465290A45
:10054000453A095072696E7420454550524F4D200E
:1005500053657474696E67730A4253504143453A58
:1005600009436C65617220454550524F4D0A004762
:1005700043433A20382E342E30204156522D4C49D8
:1005800042433A20322E302E30204156525F4152A3
:1005900043483A20617672350A004F5054494F4E15
:1005A000533A204C554641204D4F5553454B4559E4
:1005B0002045585452414B455920434F4E534F4CC0
:1005C0004520434F4D4D414E44204C544F20343034
:1005D00039360A004255494C443A2020284A756E63
:1005E0002020342032303232290A005649443A2041
:1005F0003078464545442850726F6665742920500E
:1006000049443A2030783030313028417472657571
:1006100073363229205645523A2030783030303106
:100620000A000A092D2056657273696F6E202D0A23
:100630000074696D65725F72656164333228293AAE
:10064000202530346C580A006B6579626F617264E2
:100650005F69646C653A2025580A006B6579626FA2
:100660006172645F70726F746F636F6C3A202558AB
:100670000A00686F73745F6B6579626F6172645FA3
:100680006C65647328293A2025580A000A092D2030
:10069000537461747573202D0A003F000A6D6F75E5
:1006A00073653A206F66660A000A6D6F7573653A66
:1006B000206F6E0A000A6B6579626F6172643A207E
:1006C0006F66660A000A6B6579626F6172643A2030
:1006D0006F6E0A000A6D61747269783A206F6666FF
:1006E0000A000A6D61747269783A206F6E0A000A16
:1006F00064656275673A206F66660A000A6465621F
:1007000075673A206F6E0A000A0A4A756D70696E45
:100710006720746F20626F6F746C6F616465722EF6
:100720002E2E2000433E2000436C656172696E6787
:1007300020454550524F4D0A006565636F6E6669EE
:10074000673A0A006D6B5F776865656C5F74696D09
:10075000655F746F5F6D6178203D2025640A006DD0
:100760006B5F776865656C5F6D61785F73706565F9
:1007700064203D2025640A006D6B5F74696D655FC0
:10078000746F5F6D6178203D2025640A006D6B5F9A
:100790006D61785F7370656564203D2025640A0093
:1007A0006D6B5F696E74657276616C203D202564A7
:1007B0000A006D6B5F64656C6179203D2025640AD9
:1007C000006D6B5F776865656C5F74696D655F74FC
:1007D0006F5F6D6178203D2025640A006D6B5F7747
:1007E0006865656C5F6D61785F7370656564203DF9
:1007F0002025640A006D6B5F74696D655F746F5FBF
:100800006D6178203D2025640A006D6B5F6D617815
:100810005F7370656564203D2025640A006D6B5F21
:10082000696E74657276616C203D2025640A006DE6
:100830006B5F64656C6179203D2025640A007768F0
:100840006572652064656C74613A20637572736FBC
:10085000723D25642C20776865656C3D25640A53DC
:10086000656520687474703A2F2F656E2E77696BFA
:100870006970656469612E6F72672F77696B692F84
:100880004D6F7573655F6B6579730A000A092D20DA
:100890004D6F7573656B6579202D0A4553432F7134
:1008A0003A09717569740A313A0964656C6179288D
:1008B0002A31306D73290A323A09696E746572768D
:1008C000616C286D73290A333A096D61785F737022
:1008D0006565640A343A0974696D655F746F5F6DAC
:1008E00061780A353A09776865656C5F6D61785F94
:1008F00073706565640A363A09776865656C5F747C
:10090000696D655F746F5F6D61780A0A703A09708E
:1009100072696E742076616C7565730A643A097346
:1009200065742064656661756C74730A75703A0944
:100930002B310A646F776E3A092D310A7067757032
:100940003A092B31300A7067646F776E3A092D319E
:10095000300A0A7370656564203D2064656C7461BB
:10096000202A206D61785F7370656564202A2028D5
:10097000726570656174202F2074696D655F746F96
:100980005F6D6178290A004C25640A00290A002558
:1009900075002F002575005D2800256400200025C6
:1009A0006400200025640020002564007C002530C0
:1009B0003258006D6F7573656B6579205B62746E7C
:1009C0007C782079207620685D287265702F6163BD
:1009D0006C293A205B0029001E001F002000210026
:1009E00022000000230024002500260027002D00FF
:1009F000310014001A0008001500170000001C0048
:100A000018000C001200130030002B000400160028
:100A1000070009000A0000000B000D000E000F0087
:100A200033003400E1001D001B0006001900050022
:100A30004C00110010003600370038002F00E00095
:100A4000E300E200350001002A0028002C002E00FF
:100A50002D0034002800E70001003A003B003C0074
:100A60003D003E0000003F004000410042004300C6
:100A7000440001000100010001000100010000002C
:100A800045000100520001000100010001000100C9
:100A900001000100010001000000010050005100B0
:100AA0004F000100010001000100010001000100F0
:100AB000010001000100010001000100010001002E
:100AC000010001000100010001000100010001001E
:100AD000010001000100010001000100010001000E
:100AE00001000100010000000100010001000100FF
:100AF00001000100010001000100010001000100EE
:100B000000000100010001000100010001000100DE
:100B100001000100010001000100000001000100CE
:100B200001000100010001000100010001000100BD
:100B300001000100010001000100010001000100AD
:100B4000010001000100010001000100010001009D
:100B5000010001000100010001000100010001008D
:100B6000010001000100010000000100010001007E
:100B7000010001000100010001000100010001006D
:100B8000010000000100010001000100010001005E
:100B9000010001000100010001000100000001004E
:100BA000010001000100010001000100010001003D
:100BB000010001000100010001000100010001002D
:100BC000010001000100010001000100010001001D
:100BD0000100010001000100010001000100556E4B
:100BE00069636F646520696E707574206D6F6465EC
:100BF0002073657420746F3A2025750A00444542BD
:100C000055473A2064697361626C65642E0A00443A
:100C1000454255473A20656E61626C65642E0A0054
:100C20000A092D20436F6E736F6C65202D0A4553A2
:100C3000432F713A09717569740A6D3A096D6F75C0
:100C400073656B65790A003F004D3E2000433E20EE
:100C5000000A00257500363A20776865656C5F7478
:100C6000696D655F746F5F6D61783A20000A0025D9
:100C70007500353A20776865656C5F6D61785F73E4
:100C8000706565643A20000A00257500343A2074C6
:100C9000696D655F746F5F6D61783A20000A0025A9
:100CA0007500333A206D61785F73706565643A2032
:100CB000000A00257500323A20696E74657276610B
:100CC0006C286D73293A20000A00257500313A20FE
:100CD00064656C6179282A31306D73293A20000AE5
:100CE000092D2056616C756573202D0A004D3E005C
:100CF0004D25643E20003F00736574206465666185
:100D0000756C740A00433E20004F6E6573686F7403
:100D10003A206163746976653A2025640A000A0006
:100D20002530325820006B6579626F6172645F72A2
:100D300065706F72743A2000556E69636F64652048
:100D4000696E707574206D6F646520696E697420BA
:100D5000746F3A2025750A000A002530313662008A
:100D60003A200025303258000A722F632030313289
:100D7000333435363738394142434445460A000A50
:100D80000025303258006B6579626F6172645F7361
:100D900065745F6C65643A20005B735D004B657938
:100DA000626F6172642073746172742E0A005B4317
:100DB0005D005B445D005B535D005B575D005B5213
:100DC0005D0009027B00040100A0FA090400000193
:100DD00003010100092111010001224000070581E2
:100DE0000308000A090401000203000000092111A0
:100DF00001000122220007058203200001070503EC
:100E00000320000109040200010300000009211170
:100E1000010001227B000705840320000A09040366
:100E20000002030000000921110100012222000735
:100E300005850320000107050503200001120110AC
:100E40000100000008EDFE10000100010200011287
:100E500003410074007200650075007300360032B3
:100E60000000000E03500072006F00660065007401
:100E7000000000040309040011241FBECFEFDAE0D4
:100E8000DEBFCDBF04B603FE27C080915102909112
:100E90005202A0915302B09154028730904BA74068
:100EA000B04BD1F4109251021092520210925302A0
:100EB0001092540214BE84B7877F84BF0FB6F89493
:100EC000A895809160008861809360001092600016
:100ED0000FBEE0E0F8E3099511E0A0E0B1E0ECE836
:100EE000FAE502C005900D92A237B107D9F722E0CA
:100EF000A2E7B1E001C01D92A135B207E1F70E945F
:100F00004A270C940D2D0C940000FF93EF93E09171
:100F10007201F0917301309709F00995EF91FF91FB
:100F20000895FC018591803011F0EFDFFBCF08952B
:100F3000FF27E0E230E247FF0CC0419597FF09C070
:100F4000EDE26095709580959095611D711D811DF4
:100F5000911D27FF02C0219530E350E2AA27660FBA
:100F6000771F881F991FAA1FA41710F0A41B639551
:100F70005A95A9F7AA3008F0A95FA05DAF93F39541
:100F8000611571058105910541F7ED3211F4EF937B
:100F9000F395F21718F43F93F395FBCF8F91B5DFDC
:100FA000FA95E1F70895E991F9918591803021F062
:100FB000853219F0AADFF9CF089520E0E894559121
:100FC0005532C1F3503311F4689455915A3348F4B3
:100FD000505390F3220F022E220F220F200D250FC7
:100FE000F4CF0EF4219589919991533619F3533723
:100FF00029F1533559F1BC0188279927E8945C36CB
:1010000021F48991999168945591543639F446EFB9
:101010007EF077FF0DC08FEF9FEF0AC055374AE093
:1010200039F0583540E121F0523642E009F0089598
:10103000FF93EF937DDFEF91FF91B7CFFF93EF9396
:10104000FC0181918030B9F360DFFBCFFF93EF9318
:1010500068DFF1CFDF93CF93CDB7DEB72596A3DF5F
:10106000CF91DF910895E8EDF0E080818E7F80835D
:101070001092E2001092DA001092E100A0EEB0E0CF
:101080008C9181608C9380818F77808319BCA7EDD0
:10109000B0E08C918E7F8C9380818F7E80831092C4
:1010A000330208952091E4003091E50095E6A9010E
:1010B0002091EC00822F817020FF06C08091E80013
:1010C00080FF06C080E008952091E80022FD1AC04C
:1010D00080914002882389F0853089F08091EB006F
:1010E00085FD0FC02091E4003091E50042175307C1
:1010F000F9F29150E1F684E0089582E0089583E0EA
:10110000089581E00895EF92FF920F931F93CF937C
:101110007C018B010E945208C82F811117C0809159
:10112000E80085FD0BC08091E8008E778093E80091
:101130000E945208882399F3C82F08C0F7018191B3
:101140007F018093F1000150110949F78C2FCF9155
:101150001F910F91FF90EF9008958091420287FFB9
:1011600013C08091E80082FF06C08091E8008B7771
:101170008093E80004C0809140028111F2CF08956D
:10118000809140028823D9F38091E80080FFF8CF56
:101190008091E8008E77ECCF982F9093E900242F70
:1011A000762F50E0891731F07091EC002091ED001E
:1011B0005091F00021FD07C09F5F973071F7809339
:1011C000E90081E008953091EB003E7F3093EB0021
:1011D0003091ED003D7F3093ED003091EB003160B8
:1011E0003093EB007093EC002093ED005093F000EF
:1011F0002091EE0027FDE0CF80E00895CF92DF92AE
:10120000EF92FF920F931F93CF93DF93C8EDD0E03F
:1012100088818F7E8883E7EDF0E080818160808324
:1012200084E082BF81E08093330288818E7F88834F
:1012300002EE10E0F80110821092DA0081EEC82E62
:10124000D12CF601108288818F778883888180680D
:10125000888388818F7D888319BC10924002109208
:10126000410210923F0210923E0290EEE92EF12CC4
:10127000F70180818B7F808388818160888342E051
:1012800060E080E00E94CC08F60180818E7F808340
:10129000F801808181608083808188608083F7018C
:1012A00080818E7F8083888180618883DF91CF9168
:1012B0001F910F91FF90EF90DF90CF900895FC0168
:1012C000809148029091490286179707A0F0611516
:1012D000710529F49091E8009E779093E80090E0E2
:1012E0006115710551F4911108C08091E80082FFE9
:1012F00034C080E00895BC01F2CF80914002882381
:10130000C1F18530C1F18091E80083FD30C080914A
:10131000E80082FDEACF8091E80080FFE1CF809174
:10132000F3002091F200382F6115710519F0283073
:10133000310558F091E02830310509F090E0209116
:10134000E8002E772093E800CBCF81918093F100C5
:10135000615071092F5F3F4FE7CF80914002882392
:1013600041F0853041F08091E80083FFBECF81E0FD
:10137000089582E0089583E00895809135020895EC
:1013800087E797E7909301088093000888E19AE047
:101390000FB6F894A895809360000FBE90936000FC
:1013A000FFCF9C014FB7F89480912D0290912E02AF
:1013B000A0912F02B09130024FBF821B930B089572
:1013C0002FB7F89480912D0290912E02A0912F02B8
:1013D000B09130022FBF08958091F20181111092D7
:1013E000F2010895E6E7F1E09191891303C0DF016E
:1013F00011971C9291E0EC37F907B1F70895A6E731
:10140000B1E0EFEF90E02D91821751F0EF3F19F42A
:10141000211101C0E92F9F5F9630A9F7EF3F09F432
:1014200008950E2E000CFF0BEC58FE4F828308959A
:101430002DE0929F800D1124982F977086958695A8
:10144000869525E0829FF0011124EF53FE4F50E076
:1014500040E080E0219130E0092E02C036952795CA
:101460000A94E2F721703327042E01C0220F0A9458
:10147000EAF7822B4F5F5F4F4530510559F70895CA
:101480002DE0929F800D1124982F977041E001C0AC
:10149000440F9A95EAF786958695869595E0899FFB
:1014A000F0011124EF53FE4F90E080E070E0519185
:1014B000DF0111979B01082E02C0369527950A94EB
:1014C000E2F7217021952527242325272C930196C7
:1014D0008530910561F708958091C00190918F0149
:1014E000981301C008958F5F8770FACF2091810112
:1014F000309182012817390771F09093820180930F
:101500008101E0910802F0910902309721F00084F6
:10151000F185E02D0994089520917F01309180019B
:101520002817390771F09093800180937F01E09133
:101530000802F0910902309721F00680F781E02D32
:1015400009940895E0910802F0910902309721F082
:101550000190F081E02D099480E0089540911302FC
:10156000803F59F48091140287FF0DC0109214023D
:1015700041110BC010920E0208C0813F81F480918E
:10158000140218169CF3442381F080911502909167
:101590001602892B09F05AC010920B020895823F5F
:1015A00049F447FFF0CF1092130280911402811189
:1015B000ECCFE0CF833F19F41416ACF3E4CF909155
:1015C0001502893F29F41916F4F610921502DBCFA3
:1015D0008A3F19F497FFD7CFF8CF909116028B3F2F
:1015E00029F497FFD0CF10921602CDCF8C3F19F47B
:1015F0001916CCF3C8CF9CE0980F953090F4845F17
:10160000990B21E030E0B90102C0660F771F8A957F
:10161000E2F7CB0180959091120289238093120208
:10162000B2CF8D3F31F4809188018E7F8093880105
:10163000AACF8E3F21F4809188018D7FF7CF8F3F15
:1016400009F0A1CF809188018B7FF0CF0895809120
:10165000880180FF0CC06091010170E0759567956D
:10166000759567956115710549F1862F089581FF7C
:1016700006C06091010170E075956795F3CF6091A8
:10168000010182FD0BC090910B029923A1F06091A2
:10169000000180910101961738F0682F70E06038E2
:1016A000710500F38FE70895899FC001112470E050
:1016B0000E94962CF4CF61E070E0D7CF81E00895CE
:1016C0008091880180FF12C06091030185E0689FCE
:1016D000B00111247595679575956795603871050A
:1016E000A8F561157105A1F1862F089581FF09C044
:1016F0006091030185E0689FB0011124759567959D
:10170000EDCF6091030182FD0AC080910E02882313
:10171000D1F09091020160910301891728F085E0D2
:10172000689FB0011124DACF869FB001112485E0B3
:10173000869F9001879F300D1124692F70E0C901A9
:101740000E94962CCBCF65E070E0CECF8FE7089556
:1017500081E00895803F31F40E94600B8195809371
:1017600014020895813F19F40E94600BF8CF823F64
:1017700031F40E94600B8195809313020895833F9A
:1017800019F40E94600BF8CF893F29F40E94270BBF
:101790008093150208958A3F21F40E94270B8195BA
:1017A000F7CF8B3F31F40E94270B8195809316026F
:1017B00008958C3F19F40E94270BF8CF9CE0980FF6
:1017C000953070F4845F990B21E030E001C0220F66
:1017D0008A95EAF780911202822B80931202089573
:1017E0008D3F31F480918801816080938801089554
:1017F0008E3F21F4809188018260F7CF8F3FB9F747
:10180000809188018460F1CFF894E82FE295EF7021
:10181000F0E031A1282F2F7081E090E001C0880F07
:101820002A95EAF7982F9095932391A392A1892B5B
:1018300082A3789408959091F80192FF06C0282F12
:1018400028712830F9F4877F846093FF06C0282F21
:1018500028712831F1F4877E84612091F90120FFFD
:1018600006C0382F38713830D9F4877F816021FF66
:1018700006C0282F28712831D1F4877E816194FD1C
:10188000877E0895282F24712430F9F68B7F886095
:10189000DCCF282F2471243101F78B7E8861DDCFC6
:1018A000382F3171313019F78E7F8860E0CF282FC3
:1018B0002171213121F78E7E8861E1CF829590E000
:1018C0009C01220F331F220F331F2C7C9595879587
:1018D000959587958373282B30E0C901880F991F50
:1018E0008A7A359527952575822B0895CF9384E0C4
:1018F00090E00E94CB2CC82F82E290E00E94CB2C7B
:10190000982F8C2FCF9108950F931F93CF93DF9330
:10191000C42FD0E0CC0FDD1F2AE1629FC00DD11D86
:10192000112432E8839FC00DD11D1124CE0187966A
:101930000E94CB2C082F10E0102F0027CE01889694
:101940000E94CB2C9801282BC901DF91CF911F91C8
:101950000F910895462F843038F4753028F46D3097
:1019600018F4672F0C94840C90E080E00895CF93D6
:10197000DF930E94AA0CEC0182389105A9F1D8F5F9
:101980008133910509F496C048F58932910509F42F
:101990008AC08A9709F495C0C11521E5D20708F0DD
:1019A000BCC0C11530E5D30708F014C1C83ED1054D
:1019B00008F09CC0C03ED10560F5C83AD10508F0DA
:1019C00087C0C53AD10508F0FDC0C130D10509F185
:1019D0002097F9F0C430D105E0F440C0853391057B
:1019E00009F45AC0C997C1F68091F801837089F053
:1019F000C0EED0E00EC0833E910599F170F4803EB8
:101A0000910501F1823E910539F68091F80182FD40
:101A100021C0CE01DF91CF910895863E910561F1FD
:101A2000873E910571F1843E910509F0B5CF809113
:101A3000F90181FFEECF8091F801C7EED0E084FD7F
:101A40000DC0E7CF8091F80180FD12C19091F9019E
:101A500090FFDFCFC3EED0E084FFDBCFD0E0C0E06B
:101A6000D8CF8091F80182FD06C19091F90190FDD7
:101A7000BFCF84FFCECFF2CF8091F80183FDDDCFC1
:101A8000C8CF8091F80183FDF9C09091F90191FFD1
:101A9000F0CFC4EED0E0BDCF8091F80185FFB9CF83
:101AA000C9E2D0E0B6CF8091F80185FFB2CFC5E39F
:101AB000D0E0AFCF8091F80186FFABCFCAE2D0E093
:101AC000A8CF8091F80186FFA4CFC1E3D0E0A1CFD9
:101AD000CF3BD10518F6C85AD0E0CC0FDD1FC25E4F
:101AE000DE4F0990D881C02DD46493CFC11540E258
:101AF000D40758F4C11581E0D80708F08ACFC03F59
:101B0000D10508F4ABCFD06584CFC11590E4D907D7
:101B100008F4A4CFDF70D06A7CCFC11525E5D207C9
:101B200000F5C11534E5D30708F08AC0C11543E5B7
:101B3000D40708F071C0C11582E5D80708F467C062
:101B4000CE018370992721E030E002C0220F331FBD
:101B50008A95E2F7C695C69580E2C89FE0011124F8
:101B600052C0C11599E5D907A8F4C11528E5D207D7
:101B700008F06BC0C11536E5D30708F06FCF8C2F86
:101B80000E941B0CC82FD0E0DC2FCC27CC27DF71A4
:101B9000D0623FCFC1154AE5D40708F45BC0CE013F
:101BA00090568115904208F059CF8D2F8F710E9469
:101BB0001B0C90E0982F882788279F719C012C2B65
:101BC000E901E6CFC55AD0E0C55EDE4FC881D0E05E
:101BD000D0641FCFCE01E4E096958795EA95E1F7B2
:101BE00083702C2F26952695237040E2249F900128
:101BF0001124382B8C2F8370C1E0D0E002C0CC0FB1
:101C0000DD1F8A95E2F7C22BD32BDC6802CFDC2FD5
:101C1000CC27C16FD06AFDCECE018370992721E019
:101C200030E002C0220F331F8A95E2F7C695C695B1
:101C300090E2C99FE0011124C22BD32BDA68E9CED0
:101C4000DC2FCC27C46FD06AE4CEDC2FCC27C06F4A
:101C5000D06ADFCE8C2F8F700E941B0C34E0D6959B
:101C6000C7953A95E1F7CF709C2FEC01D069D1CEA2
:101C7000C9E3D0E0CECEC2EED0E0CBCEC6EED0E00F
:101C8000C8CEBF92CF92DF92EF92FF920F931F9335
:101C9000CF93DF938C01C0904D02D0904E02E09024
:101CA0004F02F09050028091F3019091F401A091C5
:101CB000F501B091F601C82AD92AEA2AFB2ACFE118
:101CC000D0E0BC2ED701C6010C2E04C0B695A79556
:101CD000979587950A94D2F780FD0EC0219788F7D3
:101CE000B12C8B2DDF91CF911F910F91FF90EF9031
:101CF000DF90CF90BF900895B8018C2F0E94B70C51
:101D0000019761F3EECFCF93DF93EC010E94410E78
:101D1000BE01DF91CF910C94B70C0E94830E292F46
:101D20002F7092959F7092509E3078F4E92FF0E0DA
:101D3000E15FF24D0C94AA2C803F19F020F4883E0C
:101D400020F481E00895843FE1F380E00895883E27
:101D5000C0F3813FD1F7F5CF822F86958695869582
:101D600008956F927F928F929F92AF92BF92CF927F
:101D7000DF92EF92FF920F931F93CF93DF9386ED45
:101D8000C82E89E0D82E93ECE92EF12CE701C25839
:101D9000D10936011BC0F50185909490692DC801C9
:101DA0000E94D92C682DC80101960E94D92C82E08E
:101DB000A80EB11C0E5F1F4FC017D10761F78AE153
:101DC000680E711C6A96CE15DF0529F08E010A5146
:101DD00011095301E0CF7E0182E8E80EF11C82E890
:101DE000C80ED11C8BECE81682E0F80679F6DF917C
:101DF000CF911F910F91FF90EF90DF90CF90BF9008
:101E0000AF909F908F907F906F900895CF93DF93C6
:101E1000CFE2D2E060E0CE010E94D92C2196C1151C
:101E200084E0D807B9F7DF91CF910895EF92FF9240
:101E30000F931F93CF93DF938091F1019091F00165
:101E4000892B9091EF01892B809374019091F2017D
:101E5000992391F0892B8093740120E086E791E02B
:101E6000FC013191CF0131112F5FF1E08C379F07D9
:101E7000B9F721110E94EC09E0910802F0910902E2
:101E80003097C9F10280F381E02D84E791E0099554
:101E90008091180282FF2FC080FF04C086E29DE07F
:101EA0000E949107C4E7D1E08CE7E82E81E0F82E8C
:101EB00000E21DE08091180280FF0BC088811F9214
:101EC0008F931F930F930E942A080F900F900F90EB
:101ED0000F902196EC16FD0669F78091180280FF9D
:101EE0000AC08EE19DE0DF91CF911F910F91FF908D
:101EF000EF900C949107DF91CF911F910F91FF907C
:101F0000EF900895882341F080959091F001892306
:101F10008093F0010C94160F0895882339F0909166
:101F2000F001982B9093F0010C94160F08958823DC
:101F300041F080959091F10189238093F1010C94F7
:101F4000160F0895882339F09091F101982B909302
:101F5000F1010C94160F0895CF93DF93D82FC09101
:101F6000F901C2FB882780F98D17F9F0D0FBC2F97F
:101F7000C093F9016091F80184E090E00E94D92CAF
:101F80006C2F82E290E00E94D92C8091180280FF91
:101F90000CC01F92DF9389E09DE09F938F930E9476
:101FA0002A080F900F900F900F90DF91CF91089516
:101FB0008091180283FF7EC083EB99E00E94910715
:101FC000809112021F928F938EEA99E09F938F93D4
:101FD0000E942A088CEA99E00E94910780911302DE
:101FE000282F082E000C330B3F938F9389EA99E03A
:101FF0009F938F930E942A0887EA99E00E94910795
:1020000080911402282F082E000C330B3F938F93DE
:1020100084EA99E09F938F930E942A0882EA99E0CC
:102020000E94910780911502282F082E000C330B77
:102030003F938F938FE999E09F938F930E942A0893
:102040008DE999E00E94910780911602282F082EB1
:10205000000C330B3F938F938AE999E09F938F9302
:102060000E942A0887E999E00E94910780910E0258
:102070001F928F9384E999E09F938F930E942A087F
:1020800082E999E00E949107809188011F928F93C5
:102090008FE899E09F938F930E942A088CE899E03B
:1020A0000E9491078DB79EB74C960FB6F8949EBFCD
:1020B0000FBE8DBF0E94E0099C0190911302809198
:1020C0001402982B21F03093100220930F0290916C
:1020D000150280911602982B21F030930D02209367
:1020E0000C02E0910802F0910902309749F082E079
:1020F000809311020480F581E02D81E192E0099442
:10210000089590E080E00E948C0A90E080E00E94B8
:10211000760A1092F0011092EF010E94160F86E0ED
:10212000E1E1F2E0DF011D928A95E9F710920E02DB
:1021300010920B02109288010C94D80F60934D02FC
:1021400070934E0280934F02909350020C94811032
:102150000F931F9360914D0270914E0280914F0238
:10216000909150028B019C01067011272227332782
:10217000063011052105310529F468601F910F9182
:102180000C949E10677FFACF0F931F9341E050E0AD
:1021900060E070E004C0440F551F661F771F8A95EA
:1021A000D2F7CB01BA01609570958095909500911A
:1021B0004D0210914E0220914F0230915002602347
:1021C0007123822393231F910F910C949E10909161
:1021D000EE01809589238093EE01282F277039F432
:1021E000282F082E000C330B9217130621F4909120
:1021F000F90192FF07C08595859585950E94C410C9
:102200001092EE0108950F931F9341E050E060E0BB
:1022100070E004C0440F551F661F771F8A95D2F7E0
:1022200080914D0290914E02A0914F02B0915002C8
:102230008A019B01082B192B2A2B3B2BC901B801C2
:102240001F910F910C949E106093F3017093F40111
:102250008093F5019093F6010C948110882309F482
:1022600059C0823871F40E94A20A81FF53C089E3E9
:102270000E94FF090E94160F89E30E94F2090C9444
:10228000160F833859F40E94A20A80FF43C083E5E9
:102290000E94FF090E94160F83E5EFCF843859F49E
:1022A0000E94A20A82FF36C087E40E94FF090E94B2
:1022B000160F87E4E2CF9CEF980F913AF0F290E28C
:1022C000980F983088F4877021E030E0A90102C0AF
:1022D000440F551F8A95E2F7CA0180959091F1014C
:1022E00089238093F101CBCF9BE5980F933020F4A5
:1022F00090E080E00C948C0A98E5980F973120F4D8
:1023000090E080E00C94760A803F20F00E94AE0AB4
:102310000C94D80F08958CE898E00E9491071F92C2
:1023200081E08F931F9285E08F938EE398E09F93D7
:102330008F930E942A080F900F900F900F900F908C
:102340000F9008958330C9F128F4813061F0823014
:1023500019F10895853009F452C008F43FC0863061
:1023600009F45EC0089580910401681790F4861BFB
:1023700080930401809104011F928F938FE298E073
:102380009F938F930E942A080F900F900F900F90A9
:10239000089510920401EECF80910501681750F462
:1023A000861B80930501809105011F928F938DE11B
:1023B00098E0E6CF10920501F6CF809103016817EF
:1023C00050F4861B80930301809103011F928F9329
:1023D0008AE098E0D5CF10920301F6CF80910201F8
:1023E000681750F4861B80930201809102011F92AE
:1023F0008F9385EF97E0C4CF10920201F6CF8091C2
:102400000101681750F4861B80930101809101013E
:102410001F928F938CED97E0B3CF10920101F6CF0E
:1024200080910001681750F4861B80930001809111
:1024300000011F928F9381EC97E0A2CF10920001D0
:10244000F6CF833009F445C028F4813061F0823042
:1024500049F10895853009F46AC008F451C0863006
:1024600009F47CC0089580910401482F460F552738
:10247000551F4F3F510594F4680F609304018091FC
:1024800004011F928F9382EB97E09F938F930E949A
:102490002A080F900F900F900F9008958FEF809360
:1024A0000401EDCF80910501482F460F5527551F98
:1024B0004F3F510554F4680F609305018091050169
:1024C0001F928F9380EA97E0E0CF8FEF8093050112
:1024D000F5CF80910301482F460F5527551F4F3FD9
:1024E000510554F4680F60930301809103011F921A
:1024F0008F938DE897E0C9CF8FEF80930301F5CFDD
:1025000080910201482F460F5527551F4F3F510517
:1025100054F4680F60930201809102011F928F931F
:1025200088E797E0B2CF8FEF80930201F5CF8091DB
:102530000101482F460F5527551F4F3F510554F4B1
:10254000680F60930101809101011F928F938FE5C5
:1025500097E09BCF8FEF80930101F5CF8091000131
:10256000482F460F5527551F4F3F510554F4680F0C
:1025700060930001809100011F928F9384E497E0A3
:1025800084CF8FEF80930001F5CF9FB7F89410921E
:1025900031029FBF90914002943009F048C02091D1
:1025A000E9002F703091EC00932F917030FD90E88E
:1025B000922B25E02093E9002091EB0020FF34C00E
:1025C0002091EE0027FF30C02091F701222321F057
:1025D0002091E80025FF28C01092F70126E03091F5
:1025E000E80035FF14C08093F1008091E80085FD7C
:1025F00027C08091E80080FFFCCF8091E8008E77B3
:102600008093E8009F709093E90080E008953091F6
:102610004002343049F43091EB0035FD05C02150C3
:1026200041F481E08093F7019F709093E9008FEF70
:102630000895EFE9FFE03197F1F700C00000CFCF38
:102640008FB7F89421E0209331028FBFDBCFCF9377
:10265000DF9300D00F92CDB7DEB790914002943057
:1026600011F589837B836A839093E9008FEF9091C2
:10267000E800815095FD06C095ED9A95F1F70000B0
:102680008111F5CF8091E80085FF0DC050E040E05A
:1026900063E070E0CE0101960E9483088091E8001B
:1026A0008E778093E8000F900F900F90DF91CF917D
:1026B0000895BC0184E00C942713BC0183E00C94C2
:1026C00027139C0184E08093E9009FEF8091E8004C
:1026D000915085FD06C085ED8A95F1F700009111B6
:1026E000F5CF8091E80085FF0CC050E040E066E047
:1026F00070E0C9010E9483088091E8008E77809382
:10270000E8000895CF93DF93EC0181E08093E90026
:102710008FEF9091E800815095FD06C095ED9A9558
:10272000F1F700008111F5CF8091E80085FF14C01A
:1027300050E040E068E070E0CE010E9483088091A4
:10274000E8008E778093E80088E0FE01A6E3B2E01F
:1027500001900D928A95E1F7DF91CF9108956F92E4
:102760007F929F92AF92BF92CF92DF92EF92FF92B1
:102770000F931F93CF93DF939CE4E92E91E0F92E02
:1027800010E000E0C0E0CC24C394D12C38E0A32EAC
:1027900032E0B32ED7018D917D01F894E82FE295B8
:1027A000EF70F0E021A18F70A60102C0440F551F09
:1027B0008A95E2F7CA01922F982B91A392A1809556
:1027C000892382A3789400C0A601002E02C0440F82
:1027D000551F0A94E2F7BA0160957095EEEFF1E0AB
:1027E00089E5682E81E0782ED0E021913191D301E6
:1027F0009D903D01892D82958F7090E0DC0190962F
:102800008C9190E0B92DBF7002C095958795BA95CF
:10281000E2F780FD5EC0C901842B952B281739078C
:1028200039F09F0122503109D9018D939C93D1E059
:10283000AE16BF06D1F6F701319780810E94040CD5
:10284000B0EABA95F1F7CD2B0F5F1F4F0D30110590
:1028500009F0A0CFCC2309F440C081E080937E0131
:102860000E94E00990937D0180937C0180917C011E
:1028700090917D010E94D109069798F18091FE0107
:102880009091FF0190932402809323028091000293
:10289000909101029093260280932502809102027A
:1028A0009091030290932802809327028091040262
:1028B0009091050290932A0280932902809106024A
:1028C0009091070290932C0280932B0210927E012C
:1028D00008C0C90186239723A1CF80917E01811171
:1028E000C5CF8C2FDF91CF911F910F91FF90EF906B
:1028F000DF90CF90BF90AF909F907F906F900895A2
:102900006AEE7EEF90E080E00E94F72C60E082E0CB
:1029100090E00E94D92C60E083E090E00E94D92CE6
:102920001092F3011092F4011092F5011092F60149
:1029300060E084E090E00E94D92C60E082E290E0C8
:102940000E94D92C60E085E090E00E94D92C60E0E4
:1029500086E090E00E94D92C6FEF87E090E00E9423
:10296000D92C40E050E0BA0188E090E00E94EB2CC6
:1029700060E08DE090E00E94D92C40E050E0BA0188
:1029800088E190E00E94EB2C60E087E190E00E94FB
:10299000D92C40E050E0BA018CE190E00E94EB2C91
:1029A00070E060E080E290E00E94F72C40E050E0B0
:1029B000BA0188E190E00E94EB2C40E050E0BA01BF
:1029C0008FE090E00E94EB2C40E050E0BA0183E100
:1029D00090E00C94EB2C1092F101E6E7F1E086E038
:1029E000DF011D928A95E9F70C9481101F93CF9314
:1029F000DF93CDB7DEB7AA970FB6F894DEBF0FBE50
:102A0000CDBF82E492E02091F100DC012D93CD0155
:102A1000B2E08A349B07B9F780914302833009F40E
:102A200071C0B8F4813009F448C0823009F4B2C0F2
:102A30008091E80083FF3AC1809142029091430265
:102A40009A3008F033C1E92FF0E0E35EF24D0C94C8
:102A5000AA2C8A3009F48DC08B3009F470C08930FB
:102A600039F780914202813219F7809146029091A4
:102A70004702009711F00297D9F68091E800877F0E
:102A80008093E8008091E80082FF37C09091F300C6
:102A90008091F200029729F48091F1008B7F8130C0
:102AA00021F48091F100809335028091E8008B77CA
:102AB0008093E8000E94AD08BBCF80914202813A2A
:102AC00009F0B6CF8091E800877F8093E80080917D
:102AD000460290914702892B61F468E086E392E018
:102AE00070E00E945F098091E8008B778093E80096
:102AF0009FCF60E090E080E0F3CF809140028111B1
:102B0000C1CF96CF80914202813A09F091CF809156
:102B1000460290914702892B09F08ACF8091E80004
:102B2000877F8093E8008091E80080FFFCCF809150
:102B300010018093F1008091E8008E77B9CF8091E9
:102B40004202813209F074CF80914602909147028F
:102B5000892B09F06DCF8091E800877F8093E80092
:102B60000E94AD0880914402809310010E94EB14F2
:102B70005FCF80914202813209F05ACF8091E80004
:102B8000877F8093E8000E94AD0880914502809382
:102B900034024ECF80914202813A09F049CF8091B0
:102BA000E800877F8093E8008091E80080FFFCCFF9
:102BB00080913402BECF803899F0823809F076C017
:102BC000809146028F70873008F070C08093E900D2
:102BD0008091EB0085FB882780F91092E90006C000
:102BE00080913E0290913F02911182609091E800A5
:102BF000977F9093E8008093F1001092F10080910C
:102C0000E8008E77BAC1882309F4A7C1823009F0A1
:102C10004DC0809144028111ABC1809146028F70FA
:102C20002FEF280F263008F041C08093E900209153
:102C3000EB0020FF9DC1933031F48091EB00806266
:102C40008093EB0095C19091EB0090619093EB0025
:102C500021E030E001C0220F8A95EAF72093EA00D4
:102C60001092EA008091EB008860EACF81111EC0CB
:102C7000109144021F778091E3008078812B80932C
:102C8000E3008091E800877F8093E8000E94AD0810
:102C90008091E80080FFFCCF8091E3008068809302
:102CA000E30082E0111183E0809340028091E8000C
:102CB00083FF0AC08091E800877F8093E8008091BD
:102CC000EB0080628093EB00AA960FB6F894DEBF0B
:102CD0000FBECDBFDF91CF911F91089580588230F4
:102CE00028F720914402309145022C3DE3E03E0755
:102CF000A1F583E08A838AE289834FB7F894DE01E5
:102D0000139620E03EE051E2E32FF0E050935700AD
:102D1000E49120FF03C0E295EF703F5FEF708E2FCC
:102D200090E0EA30C0F0C7968D939D932F5F2431D9
:102D300059F74FBF8091E800877F8093E8006AE2EF
:102D400070E0CE0101960E945F098091E8008B77C8
:102D50008093E800ABCFC096E7CF80914602909178
:102D60004702432F55274330510509F44AC078F5EF
:102D70004130510509F47AC08BE790E0E2ECFDE0C8
:102D80004230510509F092CF2091E800277F20932F
:102D9000E80020914802309149028217930708F415
:102DA0009C0140E02115310509F065C0411163C067
:102DB0008091E80082FDC9CF80914002882329F2EA
:102DC000853019F28091E80083FFF2CFBECF413207
:102DD000510509F43CC04232510509F067CF8430F7
:102DE000910508F063CFFC01EE0FFF1FEE59FE4F77
:102DF0000190F081E02D825A9E4FDC018C9190E091
:102E00001AC0332721303105D1F02115310561F089
:102E10002230310509F04ACFEFE4FEE0E4918E2F35
:102E200090E0EFE4FEE007C0E3E7FEE0E4918E2FE0
:102E300090E0E3E7FEE0009709F438CFA5CFE3E6A2
:102E4000FEE0E4918E2F90E0E3E6FEE0F4CF8430E4
:102E5000910508F02BCF880F991FFC01E659FE4F12
:102E60000190F081E02D89E090E08ECF82E190E04A
:102E7000EDE3FEE089CF80914002882309F465CF1D
:102E8000853009F462CF8091E80083FD5ECF8091A8
:102E9000E80082FD8DCF8091E80080FF83CF909184
:102EA000F3008091F2002115310519F08830910569
:102EB00050F041E0089709F040E08091E8008E77FB
:102EC0008093E8006FCF44914093F10031962150F8
:102ED00031090196E8CF803809F0E8CE8091E8000A
:102EE000877F8093E800809141028093F10087CE34
:102EF0008111DCCE10914402123008F0D7CE8091BF
:102F0000E800877F8093E800109341020E94AD089B
:102F1000112311F084E005C08091E30087FDFACF12
:102F200081E08093400242E061EC81E00E94CC08A5
:102F300042E261EC84E00E94CC0842E261EC82E073
:102F40000E94CC0842E260EC83E00E94CC0842E29E
:102F500061EC85E00E94CC08A9CE809144028130CA
:102F600009F0A4CE81E0933009F080E080933F0225
:102F70001092E9008091E800877F8093E8000E942A
:102F8000AD0894CECF93C82F1F928F9387E899E016
:102F90009F938F930E942A0861E070E080E090E0A8
:102FA00004C0660F771F881F991FCA95D2F70E9429
:102FB00024110F900F900F900F90CF910C94EB1461
:102FC000CF93DF938B3109F408C208F0A0C18B3096
:102FD00009F4C6C108F06EC1863009F4D4C148F4C2
:102FE000853009F4A2C18AE996E00E94910780E049
:102FF000DAC1873009F4DAC18830A9F789E397E0AC
:103000000E9491078CEB93E00E94910783E090E08F
:103010000E94CB2C1F928F9389EB93E09F938F9309
:103020000E942A0887EB93E00E94910782E090E0DB
:103030000E94CB2CC82F84EA93E00E9491071F9234
:10304000CF938FE993E09F938F930E942A088DE995
:1030500093E00E94910783E993E00E9491078C2FEF
:1030600081701F928F9380E993E09F938F930E94CA
:103070002A088EE893E00E94910784E893E00E947A
:103080009107C1FB882780F91F928F9381E893E015
:103090009F938F930E942A088FE793E00E949107E5
:1030A00083E793E00E949107C2FB882780F91F9273
:1030B0008F9380E793E09F938F930E942A088EE678
:1030C00093E00E94910785E693E00E949107C3FB7D
:1030D000CC27C0F91F92CF9382E693E09F938F9302
:1030E0000E942A0880E693E00E9491070E94760CD5
:1030F000EC018CE493E00E949107DF93CF9387E487
:1031000093E09F938F930E942A0885E493E00E94A6
:1031100091078CE293E00E9491078C2F81701F929F
:103120008F9389E293E09F938F930E942A088DB733
:103130009EB780960FB6F8949EBF0FBE8DBF87E2F4
:1031400093E00E94910780E193E00E949107C1FB08
:10315000882780F91F928F938DE093E09F938F9340
:103160000E942A088BE093E00E94910789EF92E089
:103170000E9491078D2F81701F928F9386EF92E0AE
:103180009F938F930E942A0884EF92E00E949107F8
:1031900082EE92E00E949107D695D1701F92DF9344
:1031A0008FED92E09F938F930E942A088DED92E01D
:1031B0000E9491078BEC92E00E949107C2FB882746
:1031C00080F91F928F9388EC92E09F938F930E94D7
:1031D0002A0886EC92E00E94910784EB92E00E941C
:1031E0009107C3FB882780F91F928F9381EB92E0B0
:1031F0009F938F930E942A088FEA92E00E94910782
:1032000085EA92E00E949107C4FB882780F91F920B
:103210008F9382EA92E09F938F930E942A0880EA1C
:1032200092E00E9491078EE892E00E949107C5FB10
:10323000882780F91F928F938BE892E09F938F935A
:103240000E942A0889E892E00E9491078DE692E0A8
:103250000E949107C6FB882780F91F928F938AE608
:1032600092E09F938F930E942A088DB79EB7809615
:103270000FB6F8949EBF0FBE8DBF88E692E00E9405
:10328000910780E692E00E949107C7FBCC27C0F926
:103290001F92CF938DE592E09F938F930E942A080F
:1032A0008BE592E00E9491070F900F900F900F9086
:1032B00081E079C0803109F4A8C080F48E3009F033
:1032C00092CE90911802892F8B7F92FF8460809319
:1032D000180282FF97C085EC96E08BC0863109F416
:1032E000A4C0893109F07FCE82E296E00E94910766
:1032F0008BEE95E00E94910784ED95E00E94910786
:103300008AE995E00E9491078FE695E02BC08A320A
:1033100099F1E0F4873261F128F48E3108F463CE3C
:103320008D5127C0893209F05ECE88E097E00E9477
:1033300091070E94EB149FEF24E38CE09150204012
:103340008040E1F700C000000E94C009833468F4A7
:103350008A3308F0AAC0853359F0883309F043CE88
:103360008CEC93E00E949107A3CF833409F03BCE0D
:1033700080E00E94C2179CCF88E297E00E949107EC
:103380000E94801495CF80911802807F809318024C
:1033900080E29CE00E94910784E297E00E949107FE
:1033A00081E080938701DF91CF9108959091180279
:1033B000892F8E7F90FF81608093180280FF03C069
:1033C0008CEF96E0CFCF8FEE96E00E949107809130
:1033D0001802817F809318026BCF90911802892F79
:1033E0008D7F91FF82608093180281FF08C082EE7A
:1033F00096E00E949107809118028160EBCF84EDE6
:1034000096E0B0CF85EB96E0ADCF90911802892F72
:10341000877F93FF88608093180283FF03C089EA47
:1034200096E0E7CF8CE996E09DCF8CE896E00E948D
:1034300091070E94A20A1F928F9382E796E09F93C2
:103440008F930E942A08809110011F928F938BE521
:1034500096E09F938F930E942A08809134021F92D6
:103460008F9388E496E09F938F930E942A082FB74A
:10347000F89480912D0290912E02A0912F02B0918C
:1034800030022FBFBF93AF939F938F9381E396E05A
:103490009F938F930E942A088DB79EB742960FB6CE
:1034A000F8949EBF0FBE8DBF03CF895362CFCF93D9
:1034B000C82F882309F4E3C08238C1F40E94A20A0D
:1034C00081FDDDC089E30E94FF090E94160F2FEFE6
:1034D00081EE94E0215080409040E1F700C0000070
:1034E00089E30E94F209CF910C94160F8338A1F45E
:1034F0000E94A20A80FDC3C083E50E94FF090E94CA
:10350000160F2FEF81EE94E0215080409040E1F7BC
:1035100000C0000083E5E5CF8438A1F40E94A20A30
:1035200082FDADC087E40E94FF090E94160F2FEFB5
:1035300081EE94E0215080409040E1F700C000000F
:1035400087E4CFCF8CEF8C0F813A08F044C1809193
:1035500087018130F9F0882399F0823009F447C05F
:1035600010928701E6E7F1E08191C81709F467C17D
:1035700091E0EC37F907C1F78C2F0E94FF09B3CF18
:103580008091F101823271F78C2F0E94E017811136
:1035900076C0E8CF8091F1018232B1F3C431C9F035
:1035A00048F4CB3059F0C031C1F087E49CE00E9470
:1035B000910711C0C93269F0C833B9F780E29CE0C5
:1035C0000E9491078DE49CE00E94910781E0817048
:1035D000DECF1092870180E0FACF0E948B1189E440
:1035E0009CE00E94910782E080938701EFCFC43274
:1035F000C8F4CE3108F0BEC0CB30E1F040F4C730A3
:1036000009F4CFC086EF9CE0CF910C949107C331B1
:10361000C1F1C431B9F780918601882349F1109234
:1036200086010AC0CB3409F4BAC0C0F4C93299F398
:10363000C83341F70E948B1180918601882309F4D9
:10364000C7C01F928F9380EF9CE09F938F930E943F
:103650002A080F900F900F900F9011C0C13509F4F8
:1036600098C0C23509F48FC0CE3461F66AE092C0CA
:1036700085E09DE00E94910781E080938701CF91D2
:1036800008958FED9CE00E9491078DEC9CE00E94D4
:103690009107809104011F928F938AEC9CE09F9385
:1036A0008F930E942A0888EC9CE00E94910786EB89
:1036B0009CE00E949107809105011F928F9383EBFC
:1036C0009CE09F938F930E942A0881EB9CE00E94CC
:1036D000910782EA9CE00E949107809103011F926A
:1036E0008F938FE99CE09F938F930E942A088DE926
:1036F0009CE00E9491078CE89CE00E9491078091D9
:1037000002011F928F9389E89CE09F938F930E9400
:103710002A0887E89CE00E94910782E79CE00E94CB
:103720009107809101011F928F938FE69CE09F93F8
:103730008F930E942A088DE69CE00E94910786E5FF
:103740009CE00E949107809100011F928F9383E576
:103750009CE09F938F930E942A0881E59CE00E9441
:1037600091078DB79EB748960FB6F8949EBF0FBECF
:103770008DBF62CFCE51EC2FF0E0EF5EFE4F808127
:103780008093860159CF61E0809186010E942112C9
:1037900053CF61E0809186010E94A2114DCF6AE073
:1037A000F3CF8EE18093040182E3809305018AE0E8
:1037B0008093030184E18093020188E080930101FA
:1037C00088E28093000188EF9CE00E94910734CF4B
:1037D0008DEE9CE019CF80E28C0F883068F4C770C2
:1037E00021E030E001C0220FCA95EAF78091F10193
:1037F000822B8093F10177CEEBE5EC0FE33040F4C0
:10380000F0E0E55EFE4F808190E0CF910C948C0A51
:10381000E8E5EC0FE73150F4F0E0EE0FFF1FE25E59
:10382000FE4F80819181CF910C94760AC03F08F4BD
:1038300026CF8C2F0E94AA0BCF910C94D80F8C2FDF
:103840000E94F2090E94160F97CE1F93CF93DF9329
:10385000182FD0E0C0E0893311F4C0E5D0E0812F0B
:103860000E94571A209731F4812FDF91CF911F9139
:103870000C942E118FE99FE00197F1F700C0000032
:103880002197F0CF0F931F93CF93DF93C62FD42FA1
:10389000022FFC0182818823A1F060934C020E94D8
:1038A000E00990934B0280934A02C77081E001C007
:1038B000880FCA95EAF7DF91CF911F910F910C9471
:1038C000A20F80914C02681335C080914A029091FA
:1038D0004B020E94D109883C910560F510E21D0F52
:1038E000CD17B9F080E28C0F883040F4C77081E0CA
:1038F00001C0880FCA95EAF70E94970F183048F464
:1039000081E09D2F977001C0880F9A95EAF70E9479
:10391000A20F802F0E94251C183098F4D77081E0E8
:1039200001C0880FDA95EAF7DF91CF911F910F91CF
:103930000C94970FC77081E001C0880FCA95EAF711
:10394000F3CFDF91CF911F910F910895DF92EF9206
:10395000FF920F931F93CF93DF93E82FF0E0E55290
:10396000FE4FD490282F26952695269530E0F90114
:10397000E553FE4F0491877010E0082E02C01595A4
:1039800007950A94E2F701701127F901E554FE4FFB
:10399000E490F12C082E02C0F594E7940A94E2F723
:1039A00091E0E922FF24F901E555FE4FC491D0E0F2
:1039B00002C0D595C7958A95E2F7C170DD2701153C
:1039C000110519F081EE0E94571AE114F10419F063
:1039D00086EE0E94571A8D2D0E94251CEF2819F0A3
:1039E00086EE0E942E11012B19F081EE0E942E11FD
:1039F000CD2B51F08CE2DF91CF911F910F91FF9071
:103A0000EF90DF900C94251CDF91CF911F910F91C7
:103A1000FF90EF90DF9008954F925F926F927F92A8
:103A20008F929F92AF92BF92CF92DF92EF92FF92CE
:103A30000F931F93CF93DF9300D000D00F92CDB799
:103A4000DEB77C01FC0183819481892B31F0808178
:103A5000918189238F3F09F0F1C50F900F900F904E
:103A60000F900F90DF91CF911F910F91FF90EF90EA
:103A7000DF90CF90BF90AF909F908F907F906F908E
:103A80005F904F9008950E94410E182F682F8981F2
:103A90009A810E94400A69817A81812F0E94AA0C32
:103AA0008C01F7018281882309F4BCC5C8018251C9
:103AB0009F45409708F0DAC48FEF93E00E94CB2C2B
:103AC00002516FE2C62E62E0D62E882371F18091FA
:103AD000EE01877011F2F7018281882309F4BDCFCE
:103AE00082E00F900F900F900F900F90DF91CF9189
:103AF0001F910F91FF90EF90DF90CF90BF90AF900C
:103B00009F908F907F906F905F904F900C94E710F4
:103B1000C114F4E0DF06D9F2C6010E94CB2C81115A
:103B200001C001502FEFC21AD20A0111F1CF1C823D
:103B30001B82BB24B3945AE0A52E86010F5F1F4F52
:103B4000C6010E94CB2C89831A82882309F4BFCF37
:103B50009FEF980F933008F58A83B98232E0C30E45
:103B6000D11CC8010E94CB2C8B83882309F4AFCFD2
:103B70008E010F5F1F4FF80180818823F1F28130A1
:103B800009F043C091818281913049F40E5F1F4F4B
:103B90000E94251C0F5F1F4FEECF6801E9CF9230C6
:103BA00029F40E5F1F4F0E94571AF4CF933029F467
:103BB0000E5F1F4F0E942E11EDCF943019F00F5F52
:103BC0001F4FE8CF0E5F1F4F30E020E0B8016F5F5E
:103BD0007F4FF80141818053990B8A30910550F055
:103BE00021503109B8F28FE99FE00197F1F700C049
:103BF0000000F6CFA29EF001A39EF00D11249C01BF
:103C00002E0F3F1F842F8B01E1CF0E94A61CC2CF35
:103C100081E00E9403110E94A81059CF81E00E9408
:103C2000C410F9CF82E0F5CF82EE0E94571A7AC411
:103C300083E00E948D0F88E10E94571A88E10E945C
:103C40002E1183E00E94820F6DC482EE0E94571AEB
:103C500087E50E94251C66C486EE0E94251C88E12B
:103C6000F8CF895A79C482EE0E942E118DC48CE25D
:103C70000E94251C80918401882309F485C489E36E
:103C80000E94251C81C488E2FBCF033FFCE51F078F
:103C900039F1A0F4083D3CE51307F1F0093D8CE54E
:103CA000180751F1073D9CE5190709F071C426E298
:103CB00041EE61EEC7010E94421C09CF053FECE5D1
:103CC0001E07B1F088F0063F2CE5120709F060C42A
:103CD00027E245EE66EEEECF27E245EE65EEEACF4F
:103CE00026E241EE60EEE6CF27E245EE64EEE2CF5B
:103CF00026E241EE62EEDECF28E241E0EFCF809196
:103D0000F801806106309CE5190709F48CC08091A8
:103D1000F801886007301C4508F485C08091F801DF
:103D2000806281C08091F8018D7F0C30FCE51F0717
:103D300009F479C070F48091F8018C600A303CE598
:103D4000130709F470C008F481C08091F8018E7FD8
:103D50006AC08091F801877F0E309CE5190709F44D
:103D600062C08091F8018B7F0F301C4508F45BC066
:103D70008091F8018F7E57C00B3FFCE51F0709F4C7
:103D80005DC030F503313CE5130709F46DC078F4EC
:103D900001319CE5190709F463C002311C4509F0A3
:103DA00031C40E94EB148091F8018F773CC005313B
:103DB000FCE51F0709F460C008F474C08091F901A4
:103DC00081600A3F1C4509F01DC48093F9011AC4A3
:103DD0000F3F8CE5180709F44BC088F48091F90176
:103DE0008D7F0D3FECE51E0781F38091F9018E7FF9
:103DF0000E3F1C4550F38091F9018360E6CF0130FE
:103E00002DE5120709F457C008F442C060E0023003
:103E10001D4509F0F7C38EE090E00E94D92CF2C353
:103E20008091F80181608093F801ECC38091F801E2
:103E30008260F9CF8091F8018460F5CF8091F9011B
:103E40008260C3CF8091F8018064EDCF0E94EB14B3
:103E50008091F8018068E7CF8091F8018F7DE3CFF2
:103E60008091F8018F7BDFCF8091F801837FDBCFDA
:103E70008091F9018C7FA9CF8091F80182FB99276D
:103E800090F921E0922790FB82F990FB83F9CBCF48
:103E90008091F901982F909591708E7F892B90FBDE
:103EA00081F993CF0E94EB149091F801892F97FB31
:103EB00087F98058B8CF61E0AECF06319CE519078D
:103EC00009F0D9C38091F1018A7A91E009F490E078
:103ED00090938501811106C089E20E94FF090E942A
:103EE000160FF5CD85E3F9CF85E3C2C30E94EB142D
:103EF000EFEFF4E32CE0E150F0402040E1F700C0A8
:103F000000000E94C0098DEF9BE0D0C30E94801486
:103F1000DECD8091F90182FB882780F991E0892725
:103F20000E94AC0FF701828100811181882309F47E
:103F30003DC0C8010E94410ED82E682FC8010E94C2
:103F4000400AB8018D2D0E94B70C8C01882EF70114
:103F5000D280A580A2943FE0A3228091EE018770D9
:103F6000A1F0CD2CDD2091F0812F807F803421F0D5
:103F700080E2800F883048F082E00E94E710809154
:103F8000EE018770CC24C3948111C12CB12EB29460
:103F90002FE0B222FBE0FB1508F442C0EB2DF0E06D
:103FA000E95DF24D0C94AA2C80E0BACFC8010E94C2
:103FB000180AD82EC6CF212F2F70A22E107F19F0ED
:103FC000A29490EFA922DD20C9F0AA2069F080E236
:103FD000800F883010F081100BC08091F101A82A69
:103FE000A092F1010E94160F802F0E94571A18C04C
:103FF0008091F001A82AA092F001F4CF802F0E94B6
:104000002E11AA2069F0A094005E083010F08110F3
:104010003BC08091F101A822A092F1010E94160FED
:10402000EB2DE850FF0B349710F40E94A20ACC202D
:1040300009F413CD8091EE0180FD0FCDF7011282BE
:104040008595859585950E940311C7010E940C1DD9
:104050008091EE018595859585950F900F900F9035
:104060000F900F90DF91CF911F910F91FF90EF90E4
:10407000DF90CF90BF90AF909F908F907F906F9088
:104080005F904F900C94C4108091F001A822A092F0
:10409000F001C4CF312F3F70932E107F103219F0F2
:1040A000929480EF9822882071F081E0881681F147
:1040B000DD20D9F1AA2091F1F701858180FF94CF0D
:1040C0008F7085832BC0DD20B1F09091F201892F94
:1040D0008929A11003C00E94A20FA2CFE1E0AE1275
:1040E000FACF2091F90122FD9BCF981709F498CFC0
:1040F0008093F20195CFA11006C00E94EC09892D92
:104100000E94970F8DCFF1E0AF1609F489CFF5CF5C
:10411000DD2031F025E02A1508F482CF892DDBCF90
:1041200034E03A1508F47CCFEACFAA2041F3F9E352
:104130008F1295C12FEF37EE83E021503040804041
:10414000E1F700C000008BC1812F869586958370B2
:1041500061F0813009F064CFC8019370D11002C0C2
:1041600090E080E00E94760A5BCFC8019370D11086
:1041700002C090E080E00E948C0A52CF802FDD20A8
:1041800029F00E94AA0B0E94D80F4ACF0E94AE0AC3
:10419000FACF812F837009F066C0D11041CF802FF4
:1041A000829586958770880F880F602F6F70462ED6
:1041B000512C712C612C082E04C0440C551C661C1B
:1041C000771C0A94D2F740E050E0BA0104FF0FC018
:1041D0004FE050E060E070E004C0440F551F661FE0
:1041E000771F8A95D2F74095509560957095812FED
:1041F000869586958370823019F1D8F40091F30189
:104200001091F4012091F5013091F601813069F0AF
:104210004429552966297729CB01BA0160237123E6
:10422000822393230E942411FBCE402A512A622A22
:10423000732ACB01BA016429752986299729F2CFFF
:1042400044295529662977290091F3011091F40139
:104250002091F5013091F601CB01BA016027712759
:1042600082279327DFCF8695DD2011F0812F817083
:10427000882309F4D5CE802F829586958770880F84
:10428000880F602F6F70462E512C712C612C082ED8
:1042900004C0440C551C661C771C0A94D2F740E0FD
:1042A00050E0BA0104FF0FC04FE050E060E070E062
:1042B00004C0440F551F661F771F8A95D2F740959B
:1042C000509560957095812F869586958370823084
:1042D00019F1D8F400914D0210914E0220914F0235
:1042E00030915002813069F0442955296629772997
:1042F000CB01BA0160237123822393230E949E1075
:104300008FCE402A512A622A732ACB01BA0164292E
:10431000752986299729F2CF4429552966297729B5
:1043200000914D0210914E0220914F0230915002A7
:10433000CB01BA016027712782279327DFCF1F7037
:10434000DD2029F0812F0E940311802FC4CE802F01
:104350000E94970F812F0E94C41062CE802F92EF8F
:10436000891609F454C0981578F0E0EF8E1639F1EB
:10437000F1EF8F1609F443C0DD2009F46BC0A110E2
:1043800033CE812F8F7140C023EF821609F444C0D1
:1043900034EF8312F1CFDD2009F451C01F71812F5A
:1043A0000E9403118091F90182FD07C0E8E01E9F81
:1043B000C001112483608093EE01812F25C0DD2090
:1043C000C9F084E08A1508F42BCE1F7161E070E01B
:1043D00080E090E004C0660F771F881F991F1A9530
:1043E000D2F700914D0210914E0220914F02309170
:1043F0005002A0CF95E09A1508F412CEE6CF812F97
:104400008F71DD2009F4A7CF0E94031109CE812FFF
:104410008F71DD20C9F39FCF60E070E0CB01DD201C
:1044200009F46CCF1F7161E070E080E090E004C09F
:10443000660F771F881F991F1A95D2F75FCF81E00B
:104440000E94E710F1E0FA1508F0EACD82E00E9440
:10445000E710E6CDAA2039F0893309F46BCE802F1E
:104460000E942E11DDCD812F8F7175CF0031FFE5B8
:104470001F0709F4CDCB01312FE5120709F4D2CB88
:10448000C801815E9C450597D0F46FE1600F609391
:10449000FA018CE090E00E94D92C8091180280FFF4
:1044A0000EC08091FA011F928F938EED9BE09F9337
:1044B0008F930E942A080F900F900F900F9017FF74
:1044C000E4CBF7018281882309F462C0E0910802FD
:1044D000F091090280E0309721F00190F081E02D09
:1044E000099586958170809384019091FA019130AD
:1044F00029F4882319F089E30E94251C8091F10199
:10450000809383011092F1018091FA01813009F4C6
:104510008FCB882309F488CB823009F496CB843082
:1045200009F49ACB8FE39CE90197F1F700C00000F2
:104530005801E894B7F84CE0C42ED12CC5010C2CDE
:1045400002C0969587950A94E2F78F7096EF980FC0
:10455000963008F486CB805D0E94A61C94E0C91AB0
:10456000D108ECEFCE16EFEFDE0641F78091FA01AD
:10457000813009F47CCB882309F475CB823009F4AF
:1045800072CB843009F47FCB809183018093F10159
:10459000F7018281882309F462C010924C02023034
:1045A000FCE51F0708F489CC06312CE5120730F032
:1045B000C8018A5F9C45099708F07FCC0E94760C61
:1045C0009093F9018093F80100313CE5130709F459
:1045D00043CC08F0D1CB08309CE5190709F432CC64
:1045E00008F0A0CB0430FCE51F0709F423CC08F049
:1045F00086CB02303CE5130709F412CC03301C458E
:1046000009F414CC6091F8011091F90184E090E074
:104610000E94D92C612F82E290E00E94D92C0E9446
:10462000EB1455CA00313FE5130709F4F7CA01310D
:104630008FE5180709F043CF82E0F1CA85E0DE017B
:10464000119601900D928A95E1F7F70122818981F7
:104650009A81211118CA0E94180A182F1CCA063103
:104660001C4509F05FCC8091850181113DCC89E228
:104670000E94F20934CC0E3D2CE5120709F446CC19
:10468000C0F401158CE5180709F430CC01301C4545
:1046900009F048CC90911802892F8E7F90FF81609D
:1046A0008093180280FF2FCC8FE09CE00E9491073E
:1046B0000ECA0B35EDE51E0709F476CC0C35FDE589
:1046C0001F0709F426CC0A351D4509F02BCC81E0E3
:1046D00027CC1F93CF93DF9380918E01807FA9F425
:1046E00080918B01882389F08091C001D0918F0146
:1046F0006091890170918A01A0918C01B0918D0126
:10470000C62FC72316E0D81304C0DF91CF911F91A5
:10471000089590E0109711F0CF3F19F4019687703B
:10472000F2CF189F9001199F300D1124F901E05725
:10473000FE4F41814713F2CF40814613EFCF4281B4
:104740004111ECCF438154814A1B5B0B483C51051E
:1047500028F780918E018F70806180938E01F9011E
:10476000EB56FE4F80818F708061808389E891E0F5
:104770000E940C1DDF91CF911F910C946C0AAF9297
:10478000BF92CF92DF92EF92FF920F931F93CF933E
:10479000DF93CDB7DEB761970FB6F894DEBF0FBEDB
:1047A000CDBF8C0185E0F801DE011D9601900D92D0
:1047B0008A95E1F7F80180819181E28029E8A22EB3
:1047C00021E0B22E60918C0170918D01611571050F
:1047D00009F43EC13091890140918A01232F24239D
:1047E0002F3F09F435C1C380D480F0908B01F601CE
:1047F000E61BF70BFF2009F4FBC020918E01522F1E
:10480000507FE83CF10508F0BBC0511178C0FE2C88
:10481000491321C038131FC0E1101DC02F70206143
:1048200020938E01C5010E940C1D80918E01F8011C
:1048300085838F2D61960FB6F894DEBF0FBECDBF76
:10484000DF91CF911F910F91FF90EF90DF90CF906C
:10485000BF90AF900895CD2829F0282F29232F3F0E
:1048600009F014C120E0F22FF170DF2E20FF3DC0CF
:104870002091C00140918F0156E0241315C08D870F
:104880009E878D859E850E94830E292F22952F70ED
:104890002230F8F0243020F59F70F9F0F80195816E
:1048A000907FD9F4D12C1FC030E0529FF001539F6C
:1048B000F00D1124E057FE4F6181961306C0608110
:1048C000861303C06281E61210C02F5F3F4F27702E
:1048D000D4CF9F7011F0882329F3805E883010F3C5
:1048E000C8010E940C1DFD2CA4CFEE2009F4A1CF1D
:1048F00080918E01816080938E01F12C9ACF4913B3
:1049000012C0381310C0E1100EC0F8012583C80191
:104910000E940C1D86E0F801A9E8B1E001900D921B
:104920008A95E1F786CF8D879E878D859E850E942B
:104930008D0E882309F1EE20F9F080918E018032EE
:1049400070F02091890130918A0138872F83198670
:10495000DB86CA868C87CE0107960E940C1D86E0F6
:10496000F801A9E8B1E001900D928A95E1F70E9463
:104970006923FF24F3945DCFC8010E940C1DF9CF79
:1049800051110AC089E891E00E940C1D86E0F501F2
:1049900011928A95E9F7B1CF49130FC038130DC0B2
:1049A000E1100BC0F8012583C8010E940C1D86E0B0
:1049B000F50111928A95E9F73CCF8D879E878D8509
:1049C0009E850E948D0E8823B9F2EE20A9F2809177
:1049D0008E01803220F22091890130918A013A8340
:1049E00029831B82DD82CC828E83CE010196B5CFD6
:1049F000E83CF105E0F6FE2CEE2009F4BDCF4913AA
:104A000016C0381314C080918E0180FD83CF982F7B
:104A1000907F09F47FCFF8018583903F09F477CF29
:104A2000982F907F905F8F70892B858370CF8D87B3
:104A30009E878D859E850E948D0E811190CF8091DD
:104A40008E01816080938E01C8010E940C1DF1CE01
:104A5000EE2009F491CF8D879E878D859E850E94DB
:104A60008D0EF82E882309F487CF86E0F801A9E897
:104A7000B1E001900D928A95E1F7809189019091C2
:104A80008A010E94830E0E946923D3CE21E02E2545
:104A9000EACE1F93CF93DF93CDB7DEB767970FB6FC
:104AA000F894DEBF0FBECDBF342F4B8B252F5C8B10
:104AB0006D8B7E8B8F8B8E899F8961111092F00197
:104AC0001A8A198A3D872E876F87998B888B86E093
:104AD000FE013D96DE01179601900D928A95E1F751
:104AE000CE0107960E94BF23882389F016E08091AB
:104AF000C00190918F01891349C067960FB6F89451
:104B0000DEBF0FBECDBFDF91CF911F91089586E02C
:104B1000FE013796DE01119601900D928A95E1F71C
:104B20008A859B85892B11F38F81988589238F3FF7
:104B3000E9F220918F0130E0C90101968770992731
:104B40004091C0014817190671F40E94EB141092AD
:104B50008F011092C00186E0E9E8F1E0DF011D92CB
:104B60008A95E9F7C3CF96E0929FD001939FB00D4D
:104B70001124A057BE4FFE01319601900D929A95D7
:104B8000E1F780938F010E946C0AB0CF819FC00132
:104B9000112480579E4F0E94BF23882309F4ADCF74
:104BA0008091C00190E00196877099278093C001A1
:104BB0009ECF1F920F920FB60F9211242F933F9307
:104BC0004F935F936F937F938F939F93AF93BF9315
:104BD000CF93DF93EF93FF93D091E900DF70809143
:104BE000EC00C82FC17080FDC0E81092E9008091F0
:104BF000F000877F8093F00078940E94F614109262
:104C0000E9008091F00088608093F000CD2BCF7098
:104C1000C093E900FF91EF91DF91CF91BF91AF91E8
:104C20009F918F917F916F915F914F913F912F91C4
:104C30000F900FBE0F901F9018951F920F920FB6F6
:104C40000F9211242F933F934F935F936F937F9312
:104C50008F939F93AF93BF93EF93FF938091E10066
:104C600082FF15C08091E20082FF11C08091E100B7
:104C70008B7F8093E100209132022F5F822F62E3CD
:104C80000E948A2C992309F4BEC02093320280919D
:104C9000DA0080FF28C08091D80080FF24C0809176
:104CA000DA008E7F8093DA008091D90080FFE1C026
:104CB00080E189BD82E189BD09B400FEFDCF81E0BC
:104CC000809340028EEA9DE00E949107809133021A
:104CD000811109C00E9433080E94FE088091E20001
:104CE00084608093E2008091E10080FF1BC080918E
:104CF000E20080FF17C08091E2008E7F8093E20087
:104D00008091E20080618093E2008091D80080620F
:104D10008093D80019BC85E08093400286EB9DE02B
:104D20000E9491078091E10084FF2DC08091E200F4
:104D300084FF29C080E189BD82E189BD89B5982FB2
:104D4000917080FFFBCF8091D8008F7D8093D80039
:104D50008091E1008F7E8093E1008091E2008F7E60
:104D60008093E2008091E20081608093E200809174
:104D70004102882309F487C084E0809340028AEBD3
:104D80009DE00E9491078091E10083FF2BC08091FC
:104D9000E20083FF27C08091E100877F8093E100DC
:104DA00082E080934002109241028091E1008E7F68
:104DB0008093E1008091E2008E7F8093E2008091F9
:104DC000E20080618093E20042E060E080E00E94C7
:104DD000CC088091F00088608093F0008EEB9DE01D
:104DE0000E949107FF91EF91BF91AF919F918F9199
:104DF0007F916F915F914F913F912F910F900FBED7
:104E00000F901F90189510923202809131028823E2
:104E100009F43DCF809140028430C1F49091E900C3
:104E20009F702091EC00822F817020FD80E8892BFB
:104E300095E09093E9009091EB0090FF04C0909171
:104E4000EE0097FD08C08F708093E9001092310248
:104E50001ECF1092F1009091E80095FDFACF90914D
:104E6000E80090FFF0CF9091E8009E779093E800E3
:104E7000EACF19BC1092400282EB9DE00E9491079C
:104E80001092330230CF8091E30087FD93E090933E
:104E9000400275CFCDB7DEB7AB970FB6F894DEBF43
:104EA0000FBECDBF84B7877F84BF0FB6F894A89597
:104EB00080916000886180936000109260000FBE56
:104EC00080E890E00FB6F8948093610090936100C1
:104ED0000FBE85B7806885BF85B7806885BF85ECC4
:104EE00092E190937301809372010E9433080E94B3
:104EF000FE088091E20084608093E20078948091C3
:104F000040028823A1F01091E9001F709091EC00FD
:104F1000892F817090FD80E8182B1092E900809114
:104F2000E80083FD0E94F6141F701093E90082E0F0
:104F300084BD93E095BD9AEF97BD80936E000CE41D
:104F400011E0F80181918F010E94040CF1E0093514
:104F50001F07B9F782E90E94040C83E90E94040C40
:104F600081E90E94040C80E90E94040C84E90E94FB
:104F7000040C1092FF011092FE0110922402109274
:104F80002302109201021092000210922602109247
:104F9000250210920302109202021092280210922F
:104FA0002702109205021092040210922A02109217
:104FB0002902109207021092060210922C021092FF
:104FC0002B0290E080E00E94D32C8A3E9E4F11F08D
:104FD0000E94801482E090E00E94CB2C8093180203
:104FE0000E94760C9093F9018093F8010E94AF1310
:104FF0008FE39CE90197F1F700C000000E94AF1316
:105000008091230280FF17C06FEF83E290E00E943F
:10501000D92C6FEF84E290E00E94D92C6FEF85E2EB
:1050200090E00E94D92C6FEF7FEF90E080E00E942B
:10503000F72C0E94C00983E090E00E94CB2C682FDF
:1050400070E090E080E00E9424118CE090E00E94EB
:10505000CB2C482F50E070E060E04093FA01509371
:10506000FB016093FC017093FD019091180290FF89
:105070000CC01F928F9388E39DE09F938F930E94B3
:105080002A080F900F900F900F9083E290E00E94FB
:10509000CB2C823209F0CCC384E290E00E94CB2C6E
:1050A000863009F0C5C385E290E00E94CB2C8430A5
:1050B00009F0BEC386E091E0909309028093080254
:1050C0008DE99DE00E94910780914002853079F43E
:1050D00089E99DE00E94910700E112E18091400280
:1050E000853009F440C00E94EB140E94A20A0E947D
:1050F000AF13882359F08FB7F89440912D02509147
:105100002E0260912F02709130028FBFE9E14E2E86
:10511000E2E05E2EF3E26F2EF2E07F2E10E000E080
:105120000BA7F301E190F1903F01F201A190B19042
:105130002F01AE14BF0409F051C00F5F1F4F05309F
:10514000110571F78FEF8EA38FA318A60E94E009B7
:105150008160782F9AA789A74EA15FA168A58AA52B
:105160000E9449256CC080914002843021F1109248
:105170000A02E8E1F0E020E40FB6F894A895E09385
:1051800060000FBE2093600083B7817F846083BF7F
:1051900083B7816083BF7894889583B78E7F83BF00
:1051A0000FB6F894A89580916000886180936000A4
:1051B000109260000FBE80913F02882309F48ECFC9
:1051C0000E94AF13E3E2F2E081919191892B09F003
:1051D00019C342E0ED32F407B9F780CF809118028D
:1051E00081FD1AC1AE24BF2480E0CC24C394D12C0D
:1051F00095012C213D21232B09F449C189A3EBA55D
:10520000EAA3EC20FD2081E0EF2809F480E08BA3E5
:105210000E94E0098160782F9DA38CA349A15AA127
:105220006BA18DA10E944925000F111FF801E75EB7
:10523000FD4F80819181C826D926D182C08286E027
:10524000E1E1F2E0DE01119601900D928A95E1F71D
:10525000E0901302F09014021091150200911602D2
:10526000109213021092140210921502109216025C
:105270008E2D8F2991F080910F02909110020E9443
:10528000D109AC0190910E02992309F407C18091D4
:1052900005018417150608F40FC1812F802B09F42E
:1052A00048C080910C0290910D020E94D1099C018E
:1052B00090910B02992309F4DDC225363105C8F11E
:1052C0009F3F19F09F5F90930B02112359F00E94AA
:1052D000270B9FEF11160CF491E0899F802D11246C
:1052E00080931502002359F00E94270B9FEF1016A0
:1052F0000CF491E0899F802D112480931602309147
:1053000015023323B1F020911602222391F045EBD0
:105310003403C0011124992309F40DC1909315029F
:1053200045EB240390011124332309F408C1309381
:1053300016028091130290911402892B909115020C
:10534000892B90911602892B11F00E94D80F86E0CC
:10535000FE013196A1E1B2E001900D928A95E1F74C
:105360000E94A20A90911702891739F10E94A20A9D
:10537000182F809317028091180282FF1EC080FFB1
:105380001CC086E89DE00E9491078091180280FF72
:1053900014C01F921F9381E89DE09F938F930E94FA
:1053A0002A08809118020F900F900F900F9080FFA5
:1053B00004C08FE79DE00E949107809140028430F5
:1053C00009F082CE83E08093E9008091E80082FFBB
:1053D0007BCE8091E80090E085FF0CC00E945208CF
:1053E00030E2E32EF12C8E010F5F1F4F882309F46A
:1053F000B4C091E08091E8008B778093E800992316
:1054000009F462CEE981E150E33108F035C1F0E002
:10541000ED5CF24D0C94AA2C88E69DE00E94910769
:1054200063E2862E62E0962ED12CC12CDF92CF92C1
:1054300083E69DE09F938F930E942A0880E69DE07B
:105440000E949107F40180812180F2E08F0E911C6F
:105450000E945E0C382E822D0E945E0C3F928F932C
:105460008AE59DE09F938F930E942A0888E59DE03E
:105470000E949107FFEFCF1ADF0A0FB6F894DEBF44
:105480000FBECDBF95E0C916D10481F6ABCE8F5FBC
:10549000CC0CDD1C8D3009F0ABCE4FCE2091040139
:1054A000FAE02F9F900111242417350708F0F5CE5C
:1054B0009F5F90930E0202C09F3FD1F7EE2059F0FC
:1054C0000E94600B9FEF1E140CF491E0899F802DC9
:1054D000112480931302FF2059F00E94600B9FEF6C
:1054E0001F140CF491E0899F802D112480931402E5
:1054F00030911302332309F4D0CE209114022223D9
:1055000009F4CBCE45EB3403C0011124992359F0A3
:105510009093130245EB240390011124332339F0B7
:1055200030931402BACE81E080931302F3CF81E06E
:1055300080931402B2CE81E080931502F1CE81E017
:1055400080931602F6CE8091F100F80181938F01CD
:10555000F1E0EF1AF10809F44CCF8091E80085FDE5
:10556000F2CF8091E8008B778093E8000E94520888
:10557000882399F33ECF1A8289E08B831AC08A81EF
:10558000823009F46EC18330D9F1813009F074C0E2
:105590002FB7F89460912D0270912E0280912F0206
:1055A000909130022FBF0E94B02C6B837C838D833F
:1055B0009E8380914002843009F086CD1091E900ED
:1055C0001F709091EC00892F817090FD80E8182B5E
:1055D00082E08093E9008091E80080FF0DC050E0F8
:1055E00040E060E270E0CE0101960E948308809165
:1055F000E8008E778093E8001F701093E90064CD77
:1056000080912302909124029827892798279C83D0
:105610008B838091250290912602982789279827CD
:105620009E838D8380912702909128029827892755
:10563000982798878F838091290290912A02982732
:10564000892798279A87898780912B0290912C022D
:105650009827892798279C878B87ABCF8A818230B0
:1056600059F46B817C818D819E810E94B02C86E2F1
:1056700090E00E94D92C9DCF8FEF89839ACF4C81E7
:105680006B818A810E94840C9827892798279E83A2
:105690008D838FCF0D811E811027012710278A81CE
:1056A000EB802AE1E29E7001112442E8849FE00C25
:1056B000F11C11248C8190E0880F991FE80EF91ECF
:1056C000612FC70187960E94D92C602FC701889649
:1056D000D0CF0E94B10E6DCF80E18A836ACF81E086
:1056E0008A8381ED4ACF0A811B8110270127102769
:1056F000CE0101967C01CC80FC01EC0DF11D6F0107
:10570000C801815D9D4FEC14FD0409F452CF013DA9
:10571000F1E01F0750F40E94CB2CF70184830F5F48
:105720001F4FFFEFEF1AFF0AEBCFF7011482F7CFFD
:105730000A811B81102701271027CE0101966C01D9
:10574000EC80E00EF12EF11CC801815D9D4F0E151D
:105750001F0509F42ECF013DE1E01E0720F4F601FC
:1057600064810E94D92CFFEFCF1ADF0A0F5F1F4F11
:10577000EBCF0E94060F1DCF84E0AFCF0A811B81C3
:10578000102701271027CE0101967C01CC80FC0157
:10579000EC0DF11D6F01C8018796EC14FD0409F4AE
:1057A00008CF0830F2E01F0750F40E94CB2CF7011D
:1057B00084830F5F1F4FFFEFEF1AFF0AECCFF70153
:1057C0001482F7CF0A811B81102701271027CE01F1
:1057D00001966C01EC80E00EF12EF11CC801879659
:1057E000E016F10609F4E5CE0830E2E01E0720F4E9
:1057F000F60164810E94D92CFFEFCF1ADF0A0F5FF8
:105800001F4FECCF09BD19BD09B400FEFDCF80913B
:10581000D8008F7D8093D8008091E00082608093D3
:10582000E0008091E00081FDFCCF0E94EB1456CC9B
:1058300060E086E290E00E94D92C0E94B10E0E94A6
:10584000060F62E283E290E00E94D92C66E084E2D7
:1058500090E00E94D92C64E085E290E00E94D92C6F
:1058600029CC86E290E00E94CB2C1B821C821D82F8
:105870008E839FCE2D32314008F024CD5ACD7894BE
:105880001F921FB61F9211248F939F93AF93BF93C4
:1058900080912D0290912E02A0912F02B0913002A2
:1058A0000196A11DB11D80932D0290932E02A0930D
:1058B0002F02B0933002BF91AF919F918F911F90B3
:1058C0001FBE1F9018951F921FB61F9211248F9311
:1058D0009F93AF93BF9380910A02811113C080916F
:1058E0002D0290912E02A0912F02B091300241968C
:1058F000A11DB11D80932D0290932E02A0932F0223
:10590000B0933002BF91AF919F918F911F901FBEB6
:105910001F901895991B79E004C0991F961708F0FD
:10592000961B881F7A95C9F78095089597FB072ED7
:1059300016F4009407D077FD09D00E94B72C07FC1D
:1059400005D03EF4909581959F4F0895709561958F
:105950007F4F0895EE0FFF1F0590F491E02D0994FD
:105960006927962769277827872778270895AA1B0C
:10597000BB1B51E107C0AA1FBB1FA617B70710F03A
:10598000A61BB70B881F991F5A95A9F7809590956C
:10599000BC01CD010895F999FECF92BD81BDF89A61
:1059A000992780B50895A8E1B0E042E050E00C945A
:1059B000FF2C262FF999FECF92BD81BDF89A019751
:1059C00000B4021639F01FBA20BD0FB6F894FA9A47
:1059D000F99A0FBE08950396272F0E94DA2C0E9491
:1059E000D92C252F0E94DA2C242F0C94DA2C019626
:1059F000272F0E94DA2C0C94D92CDC01CB01FC015E
:105A0000F999FECF06C0F2BDE1BDF89A319600B417
:105A10000D9241505040B8F70895F894FFCF9C0E76
:105A20009C0EA50EA50EA70EA50EA50EA50E9C0EEE
:105A30009C0EAC0EA50EA50EAC0EDB15031656166D
:105A40000316561636166E1656166B177817DB1F8A
:105A5000DB1F4A204A20A420BE2010201020C9208D
:105A60009F21AE21AE21BB2ABF2A2E2B3F2B4A2BD2
:105A7000692B3C2B3C2B3C2B3C2B3C2B6C2B6F2B5E
:0C5A8000732B982BB92BBC2BBE2BE22BF8
:105A8C002808140A1E32BD09821361135D135913C1
:105A9C000101020304050607080900818283E20064
:105AAC00E900EA00B500B600B700CD008301CC00D8
:105ABC008A0192019401210223022402250226026A
:105ACC0027022A02B300B4006F007000F4F5F6F759
