:100000000C947D050C94C4050C94C4050C94C40593
:100010000C94C4050C94C4050C94C4050C94C4053C
:100020000C94C4050C94C4050C9441250C94FD2437
:100030000C94A72D0C94C4050C94C4050C94C40511
:100040000C94C4050C94C4050C94C4050C94C4050C
:100050000C94C4050C94832D0C94C4050C94C40515
:100060000C94C4050C94C4050C94C4050C94C405EC
:100070000C94C4050C94C4050C94C4050C94C405DC
:100080000C94C4050C94C4050C94C4050C94C405CC
:100090000C94C4050C94C4050C94C4050C94C405BC
:1000A0000C94C4050C94C4050C94C4050631FF09D6
:1000B00074A1010975150026FF00952075088102BD
:1000C0000976150026FF00952075089102C00501EC
:1000D0000902A10185020901A100050919012908E8
:1000E00015002501950875018102050109300931C6
:1000F0001581257F95027508810609381581257FB0
:10010000950175088106050C0A38021581257F9531
:100110000175088106C0C005010980A10185031988
:10012000012AB700150126B700950175108100C09E
:10013000050C0901A101850419012AA00215012657
:10014000A002950175108100C005010906A1018575
:1001500005050719E029E7150025019508750181B6
:10016000020507190029EF1500250195F075018199
:10017000020508190129059505750191029501757A
:10018000039101C00660FF0961A101096215002603
:10019000FF009520750881020963150026FF009570
:1001A0002075089102C005010906A101050719E0A3
:1001B00029E715002501950875018102950175084B
:1001C00081010507190029FF150026FF0095067516
:1001D0000881000508190129059505750191029509
:1001E0000175039101C00000000000000000000044
:1001F00000000000000000000000000000000000FF
:10020000000000000000000000007E0F00D4FFFF8F
:10021000FFC70000007800000000000000002A2B4B
:1002200028000000000000000000000000000000A6
:100230000029000000002C1E34202122243426270F
:10024000252E362D3738271E1F2021222324252630
:100250003333362E37381F0405060708090A0B0CFE
:100260000D0E0F101112131415161718191A1B1C46
:100270001D2F3130232D350405060708090A0B0C04
:100280000D0E0F101112131415161718191A1B1C26
:100290001D2F3130354C290A002575002F0025759A
:1002A000005D2800256400200025640020002564EE
:1002B0000020002564007C0025303258006D6F75E9
:1002C00073656B6579205B62746E7C78207920762B
:1002D00020685D287265702F61636C293A205B008D
:1002E00000010101010101010101020202020202F9
:1002F00002020203030303030303030404040404CC
:100300000404050505050506060606060707070792
:100310000708080808090909090A0A0A0B0B0B0C47
:100320000C0C0D0D0D0E0E0E0F0F0F1010111111E4
:100330001212131314141515161617171818191965
:100340001A1A1B1B1C1D1D1E1E1F202021222223CA
:100350002424252626272829292A2B2C2D2D2E2F0B
:1003600030313232333435363738393A3B3C3D3E22
:100370003F404142434445464748494A4C4D4E4F11
:1003800050515354555658595A5B5D5E5F616264D3
:10039000656668696B6C6D6F7072737577787A7B60
:1003A0007D7E8082838587888A8C8E8F91939596B7
:1003B000989A9C9EA0A2A3A5A7A9ABADAFB1B3B5D7
:1003C000B7BABCBEC0C2C4C6C9CBCDCFD1D4D6D8B3
:1003D000DBDDDFE2E4E7E9EBEEF0F3F5F8FAFDFF51
:1003E0007267626C696768742074696D65722065F4
:1003F0006E61626C65642E0A007267626C69676880
:1004000074206D6F6465205B4E4F454550524F4DD3
:100410005D3A2025750A007267626C69676874200E
:100420006D6F6465205B454550524F4D5D3A202508
:10043000750A007267626C6967687420736574205E
:10044000687376205B4E4F454550524F4D5D3A20C4
:1004500025752C25752C25750A007267626C6967F5
:1004600068742073657420687376205B454550522C
:100470004F4D5D3A2025752C25752C25750A007287
:1004800067626C69676874207261696E626F772059
:10049000736574206873763A2025642C25642C25B6
:1004A000642C25750A00FFAA7F55407267626C694B
:1004B0006768742074696D65722064697361626C29
:1004C000652E0A002223252628292A2C2D2F30329A
:1004D000333536383A3B3D3E4042434547494A4C26
:1004E0004E5051535557595A5C5E60626466686954
:1004F0006B6D6F71737577797B7D7F81838587895C
:100500008A8C8E90929496989A9C9E9FA1A3A5A760
:10051000A8AAACAEAFB1B3B4B6B8B9BBBCBEBFC18C
:10052000C2C3C5C6C7C9CACBCCCDCED0D1D2D2D317
:10053000D4D5D6D7D7D8D9D9DADADBDBDBDCDCDC2B
:10054000DCDCDDDDDDDDDCDCDCDCDCDBDBDBDADAEE
:10055000D9D9D8D7D7D6D5D4D3D2D2D1D0CECDCC65
:10056000CBCAC9C7C6C5C3C2C1BFBEBCBBB9B8B67A
:10057000B4B3B1AFAEACAAA8A7A5A3A19F9E9C9A05
:1005800098969492908E8C8A89878583817F7D7BD3
:1005900079777573716F6D6B6968666462605E5CB4
:1005A0005A5957555351504E4C4A4947454342407A
:1005B0003E3D3B3A3836353332302F2D2C2A292810
:1005C0002625232214001A000800150017001C001D
:1005D00004001600070009000A000B001D001B00A4
:1005E000060019000500110018000C00120013008D
:1005F000E000F5000D000E000F0028002C00F400B4
:100600001000E200A8000151E1002A002900F600D4
:100610000000F7002F0030002B00E3005200F8002C
:10062000350033003900500051004F0036003700CC
:1006300031004A004B0000000251010034004D001F
:100640004E0001000100010038000100010000001F
:1006500001004C001E001F0020003A003B003C003F
:100660002100220023004000410042002400250018
:10067000260027002D002E003D003E003F00000018
:10068000000001004300440045000100010001009A
:1006900000000100010000000100005C687474703B
:1006A0003A2F2F3175706B6579626F617264732EAA
:1006B000636F6D007267626C696768742064697348
:1006C00061626C65205B454550524F4D5D3A20722A
:1006D00067626C696768745F636F6E6669672E65D1
:1006E0006E61626C65203D2025750A007267626C40
:1006F0006967687420656E61626C65205B45455072
:10070000524F4D5D3A207267626C696768745F632F
:100710006F6E6669672E656E61626C65203D20258F
:10072000750A007267626C6967687420746F676726
:100730006C65205B454550524F4D5D3A20726762B3
:100740006C696768745F636F6E6669672E656E615A
:10075000626C65203D2025750A0044454255473AA4
:100760002064697361626C65642E0A0044454255D9
:10077000473A20656E61626C65642E0A00616464AC
:100780005F6B65795F6269743A2063616E277420DC
:100790006164643A20253032580A0064656C5F6BEE
:1007A00065795F6269743A2063616E2774206465BD
:1007B0006C3A20253032580A004F6E6573686F74AA
:1007C0003A206163746976653A2025640A000A005C
:1007D0002530325820006B6579626F6172645F72F8
:1007E00065706F72743A20007267626C6967687432
:1007F0005F636F6E6669672E7370656564203D2068
:1008000025640A007267626C696768745F636F6E63
:100810006669672E76616C203D2025640A00726748
:10082000626C696768745F636F6E6669672E736177
:1008300074203D2025640A007267626C69676874E1
:100840005F636F6E6669672E687565203D2025645D
:100850000A007267686C696768745F636F6E6669C7
:10086000672E6D6F6465203D2025640A0072676203
:100870006C696768745F636F6E6669672E656E6129
:10088000626C65203D2025640A007267626C6967AE
:1008900068745F636F6E66696720454550524F4DBF
:1008A0003A0A007267626C696768745F696E69749E
:1008B000207267626C696768745F636F6E666967F0
:1008C0002E6D6F6465203D20302E2057726974654F
:1008D0002064656661756C742076616C7565732043
:1008E000746F20454550524F4D2E0A007267626C5E
:1008F000696768745F696E6974206565636F6E66A9
:100900006967206973206E6F7420656E61626C6523
:10091000642E0A007267626C696768745F696E6949
:1009200074207374617274210A007267626C696763
:1009300068745F696E69742063616C6C65642E0A0B
:10094000000A0025303862003A2000253032580075
:100950000A722F632030313233343536370A001EA5
:100960000F0500047F3F1F643214643214783C1E6C
:100970001E140A050A0025303258006B6579626F33
:100980006172645F7365745F6C65643A20007267BE
:10099000626C696768742064697361626C65205B6E
:1009A0004E4F454550524F4D5D3A207267626C691B
:1009B0006768745F636F6E6669672E656E61626CEF
:1009C00065203D2025750A007267626C696768744E
:1009D00020656E61626C65205B4E4F454550524FFD
:1009E0004D5D3A207267626C696768745F636F6E11
:1009F0006669672E656E61626C65203D2025750A0B
:100A0000007267626C696768742073657420737024
:100A1000656564205B4E4F454550524F4D5D3A2011
:100A200025750A005B735D004B6579626F617264C6
:100A30002073746172742E0A005B435D005B445D39
:100A4000005B535D005B575D005B525D0009027BFC
:100A500000040100A0FA09040000010301010009DB
:100A600021110100012240000705810308000A0945
:100A700004010002030000000921110100012222EB
:100A80000007058203200001070503032000010978
:100A9000040200010300000009211101000122B637
:100AA000000705840320000A090403000203000074
:100AB0000009211101000122220007058503200001
:100AC00001070505032000011201100100000008C4
:100AD000756F10000100010200010E034A006F0053
:100AE000530074003300330000000A034C0065001B
:100AF00041004B0000000403090411241FBECFEF86
:100B0000DAE0DEBFCDBF04B603FE27C08091AD02A0
:100B10009091AE02A091AF02B091B0028730904B9D
:100B2000A740B04BD1F41092AD021092AE021092D9
:100B3000AF021092B00214BE84B7877F84BF0FB695
:100B4000F894A8958091600088618093600010926D
:100B500060000FBEE0E0F8E3099522E0AAEAB1E008
:100B600001C01D92AD3AB207E1F711E0A0E0B1E09B
:100B7000E6EDFEE502C005900D92AA3AB107D9F75D
:100B80000E946E260C94322F0C940000FF93EF937A
:100B9000E091AA01F091AB01309709F00995EF912E
:100BA000FF910895FC018591803011F0EFDFFBCFBC
:100BB0000895FF27E0E230E247FF0CC0419597FF20
:100BC00009C0EDE26095709580959095611D711D4D
:100BD000811D911D27FF02C0219530E350E2AA2715
:100BE000660F771F881F991FAA1FA41710F0A41B58
:100BF00063955A95A9F7AA3008F0A95FA05DAF9355
:100C0000F395611571058105910541F7ED3211F4F8
:100C1000EF93F395F21718F43F93F395FBCF8F9171
:100C2000B5DFFA95E1F70895E991F9918591803062
:100C300021F0853219F0AADFF9CF089520E0E89479
:100C400055915532C1F3503311F4689455915A338C
:100C500048F4505390F3220F022E220F220F200D42
:100C6000250FF4CF0EF4219589919991533619F3FC
:100C7000533729F1533559F1BC0188279927E89456
:100C80005C3621F48991999168945591543639F4E0
:100C900046EF7EF077FF0DC08FEF9FEF0AC055370C
:100CA0004AE039F0583540E121F0523642E009F08F
:100CB0000895FF93EF937DDFEF91FF91B7CFFF93FF
:100CC000EF93FC0181918030B9F360DFFBCFFF939C
:100CD000EF9368DFF1CFDF93CF93CDB7DEB72596E3
:100CE000A3DFCF91DF910895E8EDF0E080818E7F62
:100CF00080831092E2001092DA001092E100A0EEE0
:100D0000B0E08C9181608C9380818F77808319BC57
:100D1000A7EDB0E08C918E7F8C9380818F7E808355
:100D20001092770208952091E4003091E50095E655
:100D3000A9012091EC00822F817020FF06C08091D4
:100D4000E80080FF06C080E008952091E80022FDC1
:100D50001AC080919C02882389F0853089F08091A7
:100D6000EB0085FD0FC02091E4003091E5004217B3
:100D70005307F9F29150E1F684E0089582E0089576
:100D800083E0089581E00895EF92FF920F931F93FF
:100D9000CF937C018B010E949306C82F811117C04D
:100DA0008091E80085FD0BC08091E8008E778093EC
:100DB000E8000E949306882399F3C82F08C0F70122
:100DC00081917F018093F1000150110949F78C2F27
:100DD000CF911F910F91FF90EF90089580919E0207
:100DE00087FF13C08091E80082FF06C08091E80071
:100DF0008B778093E80004C080919C028111F2CF30
:100E0000089580919C028823D9F38091E80080FFA7
:100E1000F8CF8091E8008E77ECCF982F9093E9007F
:100E2000242F762F50E0891731F07091EC0020913B
:100E3000ED005091F00021FD07C09F5F973071F7E2
:100E40008093E90081E008953091EB003E7F30937C
:100E5000EB003091ED003D7F3093ED003091EB00E1
:100E600031603093EB007093EC002093ED005093D1
:100E7000F0002091EE0027FDE0CF80E00895CF92B2
:100E8000DF92EF92FF920F931F93CF93DF93C8ED02
:100E9000D0E088818F7E8883E7EDF0E080818160FB
:100EA000808384E082BF81E08093770288818E7F97
:100EB000888302EE10E0F80110821092DA0081EED1
:100EC000C82ED12CF601108288818F778883888183
:100ED0008068888388818F7D888319BC10929C02EA
:100EE00010929D0210929B0210929A0290EEE92EAF
:100EF000F12CF70180818B7F8083888181608883DA
:100F000042E060E080E00E940D07F60180818E7F64
:100F10008083F80180818160808380818860808304
:100F2000F70180818E7F8083888180618883DF9153
:100F3000CF911F910F91FF90EF90DF90CF90089588
:100F4000FC018091A4029091A50286179707A0F05A
:100F50006115710529F49091E8009E779093E8005F
:100F600090E06115710551F4911108C08091E8007D
:100F700082FF34C080E00895BC01F2CF80919C02D2
:100F80008823C1F18530C1F18091E80083FD30C034
:100F90008091E80082FDEACF8091E80080FFE1CFF8
:100FA0008091F3002091F200382F6115710519F03E
:100FB0002830310558F091E02830310509F090E0F3
:100FC0002091E8002E772093E800CBCF8191809389
:100FD000F100615071092F5F3F4FE7CF80919C0274
:100FE000882341F0853041F08091E80083FFBECF37
:100FF00081E0089582E0089583E008950895809146
:101000007902089587E797E7909301088093000895
:1010100088E19AE00FB6F894A895809360000FBE1F
:1010200090936000FFCF9C014FB7F89480917102BC
:1010300090917202A0917302B09174024FBF821B13
:10104000930B08952FB7F8948091710290917202DA
:10105000A0917302B09174022FBF08958091350260
:101060008111109235020895E92FEE0FE90FEE0F6E
:101070008E0F982F977086958695869525E0829F8E
:10108000F0011124E85EFD4F50E040E080E0219146
:1010900030E0092E02C0369527950A94E2F72170B8
:1010A0003327042E01C0220F0A94EAF7822B4F5FE8
:1010B0005F4F4530510559F70895E92FEE0FE90FBD
:1010C000EE0F8E0F982F977041E001C0440F9A9554
:1010D000EAF786958695869595E0899FF00111241B
:1010E000E85EFD4F30E020E070E05191DF011197A4
:1010F000CB01022E02C0969587950A94E2F7817083
:1011000081958527842385278C932F5F3F4F25303A
:10111000310559F70895809117029091E6019813CF
:1011200001C008958F5F8770FACF2091DC01309164
:10113000DD012817390771F09093DD018093DC0100
:10114000E0914402F0914502309721F00084F1854E
:10115000E02D099408952091DA013091DB012817E0
:10116000390771F09093DB018093DA01E09144023A
:10117000F0914502309721F00680F781E02D099427
:101180000895E0914402F0914502309721F00190DA
:10119000F081E02D099480E00895FA01811101C0E9
:1011A000FB01099480916602982F9E7F29F481703B
:1011B00082608093660208958635E8F381708465C5
:1011C000F8CFAF92BF92DF92EF92FF920F931F93EF
:1011D000CF93DF93082F162FE901E42FF0E0E052C0
:1011E000FD4F611110C0E4915E2F4E2F4983E883BB
:1011F0005A83DF91CF911F910F91FF90EF90DF9075
:10120000BF90AF900895E62EF12C4491D42EE42F98
:10121000F0E026E0829FC00111242FEF30E0B901F9
:101220000E94DA2D802F90E0880F991F55E5569F78
:10123000D001579FB00D11248A1B9B0B982F990F3B
:10124000890F5901AE18BF08AE9ED001AF9EB00DF8
:10125000BE9EB00D11245B2F189F80011124012F19
:1012600011275901A01AB10AAE9E8001AF9E100D40
:10127000BE9E100D11245901A81AB108AE9CC001E0
:10128000AF9C900DBE9C900D1124892F9927281B8F
:10129000390B2E9FC0012F9F900D3E9F900D112462
:1012A000E92F62307105A1F050F46115710509F460
:1012B0009DCF6130710581F0EB2F512F97CF6430B6
:1012C000710569F080F06630710509F48FCFF4CFB5
:1012D000E42F4B2F592F8ACFE42F412F87CFEB2FAD
:1012E000542F492F83CF4B2F5D2DE12F7FCF40917E
:1012F0005A02803F59F480915B0287FF0DC0109223
:101300005B0241110BC01092550208C0813F81F46D
:1013100080915B0218169CF3442381F080915C025B
:1013200090915D02892B09F05AC0109252020895E3
:10133000823F49F447FFF0CF10925A0280915B023E
:101340008111ECCFE0CF833F19F41416ACF3E4CF56
:1013500090915C02893F29F41916F4F610925C0210
:10136000DBCF8A3F19F497FFD7CFF8CF90915D027A
:101370008B3F29F497FFD0CF10925D02CDCF8C3FE9
:1013800019F41916CCF3C8CF9CE0980F953090F45F
:10139000845F990B21E030E0B90102C0660F771F2E
:1013A0008A95E2F7CB018095909159028923809329
:1013B0005902B2CF8D3F31F48091DF018E7F80934F
:1013C000DF01AACF8E3F21F48091DF018D7FF7CF1F
:1013D0008F3F09F0A1CF8091DF018B7FF0CF08957F
:1013E0008091DF0180FD16C081FD16C082FD16C010
:1013F000809152028823A1F0883280F428E0829FF5
:10140000C001112468E270E00E94EE2D862F672B48
:1014100039F0089582E0089584E0089588E0089501
:1014200081E008958091DF0180FD14C081FD14C02A
:1014300082FD16C080915502882381F0843180F4AA
:1014400022E3829FC001112464E170E00E94EE2D2E
:10145000862F08958CE0089589E1089585E0089528
:1014600082E30895803F31F40E94120A81958093AF
:101470005B020895813F19F40E94120AF8CF823F5F
:1014800031F40E94120A819580935A020895833F95
:1014900019F40E94120AF8CF893F29F40E94F0093A
:1014A00080935C0208958A3F21F40E94F00981959F
:1014B000F7CF8B3F31F40E94F009819580935D0254
:1014C00008958C3F19F40E94F009F8CF9CE0980F22
:1014D000953070F4845F990B21E030E001C0220F59
:1014E0008A95EAF780915902822B809359020895D8
:1014F0008D3F31F48091DF0181608093DF01089599
:101500008E3F21F48091DF018260F7CF8F3FB9F7E2
:101510008091DF018460F1CFF894E82FE295EF70BD
:10152000F0E031A1282F2F7081E090E001C0880FFA
:101530002A95EAF7982F9095932391A392A1892B4E
:1015400082A37894089590913B0292FF06C0282FC1
:1015500028712830F9F4877F846093FF06C0282F14
:1015600028712831F1F4877E846120913C0220FFAC
:1015700006C0382F38713830D9F4877F816021FF59
:1015800006C0282F28712831D1F4877E816194FD0F
:10159000877E0895282F24712430F9F68B7F886088
:1015A000DCCF282F2471243101F78B7E8861DDCFB9
:1015B000382F3171313019F78E7F8860E0CF282FB6
:1015C0002171213121F78E7E8861E1CF829590E0F3
:1015D0009C01220F331F220F331F2C7C959587957A
:1015E000959587958373282B30E0C901880F991F43
:1015F0008A7A359527952575822B0895CF9384E0B7
:1016000090E00E94872EC82F82E290E00E94872EF1
:10161000982F8C2FCF9108950F931F93CF93DF9323
:10162000C42FD0E0CC0FDD1F2CE0629FC00DD11D78
:10163000112438E4839FC00DD11D1124CE0187965B
:101640000E94872E082F10E0102F0027CE018896C9
:101650000E94872E9801282BC901DF91CF911F91FD
:101660000F910895462F843038F4763028F4663090
:1016700018F4672F0C940C0B90E080E00895CF9342
:10168000DF930E94320BEC0182389105A9F1D8F565
:101690008133910509F496C048F58932910509F422
:1016A0008AC08A9709F495C0C11521E5D20708F0D0
:1016B000BCC0C11530E5D30708F014C1C83ED10540
:1016C00008F09CC0C03ED10560F5C83AD10508F0CD
:1016D00087C0C53AD10508F0FDC0C130D10509F178
:1016E0002097F9F0C430D105E0F440C0853391056E
:1016F00009F45AC0C997C1F680913B02837089F002
:10170000C0EED0E00EC0833E910599F170F4803EAA
:10171000910501F1823E910539F680913B0282FDEF
:1017200021C0CE01DF91CF910895863E910561F1F0
:10173000873E910571F1843E910509F0B5CF809106
:101740003C0281FFEECF80913B02C7EED0E084FDEA
:101750000DC0E7CF80913B0280FD12C190913C0209
:1017600090FFDFCFC3EED0E084FFDBCFD0E0C0E05E
:10177000D8CF80913B0282FD06C190913C0290FD42
:10178000BFCF84FFCECFF2CF80913B0283FDDDCF70
:10179000C8CF80913B0283FDF9C090913C0291FF3C
:1017A000F0CFC4EED0E0BDCF80913B0285FFB9CF32
:1017B000C9E2D0E0B6CF80913B0285FFB2CFC5E34E
:1017C000D0E0AFCF80913B0286FFABCFCAE2D0E042
:1017D000A8CF80913B0286FFA4CFC1E3D0E0A1CF88
:1017E000CF3BD10518F6C85AD0E0CC0FDD1FC55B42
:1017F000DE4F0990D881C02DD46493CFC11540E24B
:10180000D40758F4C11581E0D80708F08ACFC03F4B
:10181000D10508F4ABCFD06584CFC11590E4D907CA
:1018200008F4A4CFDF70D06A7CCFC11525E5D207BC
:1018300000F5C11534E5D30708F08AC0C11543E5AA
:10184000D40708F071C0C11582E5D80708F467C055
:10185000CE018370992721E030E002C0220F331FB0
:101860008A95E2F7C695C69580E2C89FE0011124EB
:1018700052C0C11599E5D907A8F4C11528E5D207CA
:1018800008F06BC0C11536E5D30708F06FCF8C2F79
:101890000E94A30AC82FD0E0DC2FCC27CC27DF7111
:1018A000D0623FCFC1154AE5D40708F45BC0CE0132
:1018B00090568115904208F059CF8D2F8F710E945C
:1018C000A30A90E0982F882788279F719C012C2BD2
:1018D000E901E6CFC55AD0E0C85BDE4FC881D0E051
:1018E000D0641FCFCE01E4E096958795EA95E1F7A5
:1018F00083702C2F26952695237040E2249F90011B
:101900001124382B8C2F8370C1E0D0E002C0CC0FA3
:10191000DD1F8A95E2F7C22BD32BDC6802CFDC2FC8
:10192000CC27C16FD06AFDCECE018370992721E00C
:1019300030E002C0220F331F8A95E2F7C695C695A4
:1019400090E2C99FE0011124C22BD32BDA68E9CEC3
:10195000DC2FCC27C46FD06AE4CEDC2FCC27C06F3D
:10196000D06ADFCE8C2F8F700E94A30A34E0D69508
:10197000C7953A95E1F7CF709C2FEC01D069D1CE95
:10198000C9E3D0E0CECEC2EED0E0CBCEC6EED0E002
:10199000C8CEBF92CF92DF92EF92FF920F931F9328
:1019A000CF93DF938C01C090A902D090AA02E0905F
:1019B000AB02F090AC028091360290913702A09178
:1019C0003802B0913902C82AD92AEA2AFB2ACFE183
:1019D000D0E0BC2ED701C6010C2E04C0B695A79549
:1019E000979587950A94D2F780FD0EC0219788F7C6
:1019F000B12C8B2DDF91CF911F910F91FF90EF9024
:101A0000DF90CF90BF900895B8018C2F0E943F0BBC
:101A1000019761F3EECFCF93DF93EC010E94C90CE5
:101A2000BE01DF91CF910C943F0B0E940B0D292F2B
:101A30002F7092959F7092509E3078F4E92FF0E0CD
:101A4000EC5CF04D0C94022E803F19F020F4883E9F
:101A500020F481E00895843FE1F380E00895883E1A
:101A6000C0F3813FD1F7F5CF822F86958695869575
:101A700008956F927F928F929F92AF92BF92CF9272
:101A8000DF92EF92FF920F931F93CF93DF9384EC3B
:101A9000C82E85E0D82E9BE7E92EF12CE701C8542B
:101AA000D10936011BC0F50185909490692DC801BC
:101AB0000E949B2E682DC80101960E949B2E82E0F9
:101AC000A80EB11C0E5F1F4FC017D10761F78CE045
:101AD000680E711C2C96CE15DF0529F08E010C5076
:101AE00011095301E0CF7E0188E4E80EF11C88E47F
:101AF000C80ED11C8BE9E81681E0F80679F6DF9173
:101B0000CF911F910F91FF90EF90DF90CF90BF90FA
:101B1000AF909F908F907F906F900895CF93DF93B9
:101B2000C7E4D1E060E0CE010E949B2E2196C11552
:101B300084E0D807B9F7DF91CF910895EF92FF9233
:101B40000F931F93CF93DF938091340290913302D0
:101B5000892B90913202892B8093AC0190913502B0
:101B60009923B1F0892B8093AC0180911C018823CB
:101B700009F45DC080913B0287FF59C08EE1EEEA17
:101B8000F1E090E0815008F054C091110E942E08BD
:101B9000E0914402F0914502309709F450C08091E1
:101BA0001C01882359F080913B0287FF07C0809178
:101BB000AC018093AD0185E08093AC010280F3819C
:101BC000E02D8CEA91E009958091650282FF37C093
:101BD00080FF04C086ED97E00E94D205CCEAD1E0F8
:101BE00084EBE82E81E0F82E00ED17E0809165028D
:101BF00080FF0BC088811F928F931F930F930E94C9
:101C00006B060F900F900F900F902196EC16FD062B
:101C100069F78091650280FF12C08EEC97E0DF913A
:101C2000CF911F910F91FF90EF900C94D20586E019
:101C3000A6CF2191222309F4A5CF9F5FA3CFDF91E7
:101C4000CF911F910F91FF90EF900895882341F05D
:101C50008095909134028923809334020C949E0DD8
:101C60000895882339F090913402982B9093340290
:101C70000C949E0D0895CF93DF93D82FC0913C0212
:101C8000C2FB882780F98D17F9F0D0FBC2F9C09309
:101C90003C0260913B0284E090E00E949B2E6C2FFE
:101CA00082E290E00E949B2E8091650280FF0CC032
:101CB0001F92DF9389EB97E09F938F930E946B06AF
:101CC0000F900F900F900F90DF91CF91089590910A
:101CD0001C01992359F190913B0297FF27C0E82FEF
:101CE000E695E695E695EE3180F4F0E0E455FE4F9A
:101CF000282F277081E090E001C0880F2A95EAF72D
:101D0000809592818923828308959091650290FF46
:101D100019C01F928F938BE997E09F938F930E9436
:101D20006B060F900F900F900F900895EEEAF1E080
:101D30009191891303C0DF0111971C9291E0E43B5C
:101D4000F907B1F7089590911C01992349F19091F9
:101D50003B0297FF25C0E82FE695E695E695EE3124
:101D600070F4F0E0E455FE4F877021E030E001C0F0
:101D7000220F8A95EAF78281822B828308959091BF
:101D8000650290FF1EC01F928F938DE797E09F938F
:101D90008F930E946B060F900F900F900F900895F5
:101DA000AEEAB1E0EFEF90E02D91821751F0EF3FF6
:101DB00019F4211101C0E92F9F5F9630A9F7EF3F79
:101DC00009F408950E2E000CFF0BE455FE4FD5CFFD
:101DD00010924E028091650280FF08C08BEA94E069
:101DE0009F938F930E946B060F900F9008958091A0
:101DF000650283FF7EC08DEB92E00E94D205809148
:101E000059021F928F9388EB92E09F938F930E94C9
:101E10006B0686EB92E00E94D20580915A02282F31
:101E2000082E000C330B3F938F9383EB92E09F932C
:101E30008F930E946B0681EB92E00E94D205809105
:101E40005B02282F082E000C330B3F938F938EEAF2
:101E500092E09F938F930E946B068CEA92E00E941F
:101E6000D20580915C02282F082E000C330B3F9383
:101E70008F9389EA92E09F938F930E946B0687EA83
:101E800092E00E94D20580915D02282F082E000C5E
:101E9000330B3F938F9384EA92E09F938F930E943A
:101EA0006B0681EA92E00E94D205809155021F9252
:101EB0008F938EE992E09F938F930E946B068CE93B
:101EC00092E00E94D2058091DF011F928F9389E9F1
:101ED00092E09F938F930E946B0686E992E00E94A6
:101EE000D2058DB79EB74C960FB6F8949EBF0FBE25
:101EF0008DBF0E9422089C0190915A0280915B0242
:101F0000982B21F0309357022093560290915C0257
:101F100080915D02982B21F030935402209353025C
:101F2000E0914402F0914502309749F082E08093BD
:101F300058020480F581E02D88E592E00994089527
:101F400090E080E00E94AB0890E080E00E9495085D
:101F500010923302109232020E949E0D86E0E8E554
:101F6000F2E0DF011D928A95E9F710925502109276
:101F700052021092DF010C94F70E6093A902709345
:101F8000AA028093AB029093AC020C94A00F0F9323
:101F90001F936091A9027091AA028091AB02909167
:101FA000AC028B019C0106701127222733270630D3
:101FB00011052105310529F468601F910F910C94DA
:101FC000BD0F677FFACF0F931F9341E050E060E0B1
:101FD00070E004C0440F551F661F771F8A95D2F723
:101FE000CB01BA0160957095809590950091A902FA
:101FF0001091AA022091AB023091AC0260237123B0
:10200000822393231F910F910C94BD0F9091310265
:102010008095892380933102282F277039F4282F47
:10202000082E000C330B9217130621F490913C02FA
:1020300092FF07C08595859585950E94E30F1092C4
:10204000310208950F931F9341E050E060E070E08B
:1020500004C0440F551F661F771F8A95D2F78091E1
:10206000A9029091AA02A091AB02B091AC028A01A0
:102070009B01082B192B2A2B3B2BC901B8011F915F
:102080000F910C94BD0F60933602709337028093CA
:102090003802909339020C94A00F882309F459C098
:1020A000823871F40E94C10881FF53C089E30E9405
:1020B000A30E0E949E0D89E30E94670E0C949E0D54
:1020C000833859F40E94C10880FF43C083E50E9411
:1020D000A30E0E949E0D83E5EFCF843859F40E9431
:1020E000C10882FF36C087E40E94A30E0E949E0DA5
:1020F00087E4E2CF9CEF980F913AF0F290E2980FCC
:10210000983088F4877021E030E0A90102C0440FC4
:10211000551F8A95E2F7CA01809590913402892370
:1021200080933402CBCF9BE5980F933020F490E05E
:1021300080E00C94AB0898E5980F973120F490E07C
:1021400080E00C949508803F20F00E9477090C9461
:10215000F70E08959FB7F894109275029FBF909163
:102160009C02943009F048C02091E9002F70309112
:10217000EC00932F917030FD90E8922B25E0209396
:10218000E9002091EB0020FF34C02091EE0027FFF2
:1021900030C020913A02222321F02091E80025FF4F
:1021A00028C010923A0226E03091E80035FF14C0B2
:1021B0008093F1008091E80085FD27C08091E800C0
:1021C00080FFFCCF8091E8008E778093E8009F70BD
:1021D0009093E90080E0089530919C02343049F4F6
:1021E0003091EB0035FD05C0215041F481E0809332
:1021F0003A029F709093E9008FEF0895EFE9FFE0B6
:102200003197F1F700C00000CFCF8FB7F89421E0ED
:10221000209375028FBFDBCFCF93DF9300D00F9257
:10222000CDB7DEB790919C02943011F589837B8302
:102230006A839093E9008FEF9091E800815095FDBB
:1022400006C095ED9A95F1F700008111F5CF8091C8
:10225000E80085FF0DC050E040E063E070E0CE0193
:1022600001960E94C4068091E8008E778093E80072
:102270000F900F900F90DF91CF910895BC0184E0F3
:102280000C940C11BC0183E00C940C119C0184E0B3
:102290008093E9009FEF8091E800915085FD06C092
:1022A00085ED8A95F1F700009111F5CF8091E80056
:1022B00085FF0CC050E040E066E070E0C9010E947C
:1022C000C4068091E8008E778093E8000895CF934C
:1022D000DF93EC0180911C018823B1F180913B02D6
:1022E00087FF32C060E284E08093E9008FEF909135
:1022F000E800815095FD06C095ED9A95F1F7000034
:102300008111F5CF8091E80085FF1BC080911C01F1
:1023100070E050E040E0811104C050E040E068E02F
:1023200070E0CE010E94C4068091E8008E77809311
:10233000E80080E2FE01AAE7B2E001900D928A95E2
:10234000E1F7DF91CF91089568E081E0CDCFCF93A1
:10235000C82F882309F4AEC08238C1F40E94C10896
:1023600081FDA8C089E30E94A30E0E949E0D2FEF5D
:1023700081EE94E0215080409040E1F700C00000E1
:1023800089E30E94670ECF910C949E0D8338A1F4CF
:102390000E94C10880FD8EC083E50E94A30E0E94AA
:1023A0009E0D2FEF81EE94E0215080409040E1F7A8
:1023B00000C0000083E5E5CF8438A1F40E94C10885
:1023C00082FD78C087E40E94A30E0E949E0D2FEF2D
:1023D00081EE94E0215080409040E1F700C0000081
:1023E00087E4CFCF8CEF8C0F813A88F580911C0168
:1023F000882301F180913B0287FF1CC0EC2FE695FA
:10240000E695E695F0E0E455FE4F828190E04C2F92
:10241000477021E030E002C0220F331F4A95E2F7F7
:1024200082239323892B79F08C2F0E94670E0E94C0
:102430009E0D09C0EEEAF1E08191C817A9F321E0F1
:10244000E43BF207C9F78C2F0E94A30E9CCF80E2D9
:102450008C0F883068F4C77021E030E001C0220F93
:10246000CA95EAF780913402822B809334028BCF95
:10247000EBE5EC0FE33040F4F0E0E85BFE4F8081E9
:1024800090E0CF910C94AB08E8E5EC0FE73150F405
:10249000F0E0EE0FFF1FE55BFE4F80819181CF9151
:1024A0000C949508C03F30F08C2F0E94320ACF91D7
:1024B0000C94F70ECF9108951F93CF93DF93182FAD
:1024C000D0E0C0E0893311F4C0E5D0E0812F0E9454
:1024D000A711209731F4812FDF91CF911F910C9498
:1024E0004D108FE99FE00197F1F700C000002197A0
:1024F000F0CF0F931F93CF93DF93C62FD42F022FCC
:10250000FC0182818823A1F06093A8020E94220826
:102510009093A7028093A602C77081E001C0880F44
:10252000CA95EAF7DF91CF911F910F910C94310E6C
:102530008091A802681335C08091A6029091A702ED
:102540000E941308883C910560F510E21D0FCD171D
:10255000B9F080E28C0F883040F4C77081E001C090
:10256000880FCA95EAF70E94260E183048F481E0D9
:102570009D2F977001C0880F9A95EAF70E94310E3F
:10258000802F0E945C12183098F4D77081E001C04F
:10259000880FDA95EAF7DF91CF911F910F910C9494
:1025A000260EC77081E001C0880FCA95EAF7F3CF05
:1025B000DF91CF911F910F910895DF92EF92FF92DB
:1025C0000F931F93CF93DF93E82FF0E0EA5EFD4F68
:1025D000D490282F26952695269530E0F901EA5FBC
:1025E000FD4F0491877010E0082E02C015950795E5
:1025F0000A94E2F701701127F901EA50FE4FE490C6
:10260000F12C082E02C0F594E7940A94E2F791E0C9
:10261000E922FF24F901EA51FE4FC491D0E002C043
:10262000D595C7958A95E2F7C170DD27011511058B
:1026300019F081EE0E94A711E114F10419F086EE61
:102640000E94A7118D2D0E945C12EF2819F086EED2
:102650000E944D10012B19F081EE0E944D10CD2BE0
:1026600051F08CE2DF91CF911F910F91FF90EF908D
:10267000DF900C945C12DF91CF911F910F91FF902E
:10268000EF90DF9008958091660280FF27C0849AC2
:1026900031B33F7E21B320614FB7F89482ED91E0D2
:1026A000FC015191CF0168E021BB000000C057FF41
:1026B00031BB550F000000C000C000C031BB00C0DE
:1026C0006A9591F7F1E0853D9F0751F74FBF8FE580
:1026D00094E00197F1F700C0000008951092D30133
:1026E0001092D2011092D401D2CFCF93DF93EC019C
:1026F00022ED31E040916902609168028C810E9474
:10270000E1080E9443139A818C8190FF05C08F5F7E
:102710008C83DF91CF9108958150FACF0F931F934F
:10272000CF93DF93FC0182811FEF80FF11E01092B5
:10273000D3011092D2011092D401C4E0D0E000E0A5
:102740008091CF01800F823024F487FD8F5F81114B
:1027500013C0809169028C9FA0018D9F500D1124A0
:10276000559547955595479522ED31E06091680262
:10277000809167020E94E108010F219709F70E94EA
:102780004313113061F48091CF01882319F08150F7
:102790008093CF01DF91CF911F910F9108951092F7
:1027A000CF01F8CF1092D3011092D2011092D40130
:1027B0008091D001181674F08091100187FD0AC035
:1027C00022ED31E0409169026091680280916702D8
:1027D0000E94E1080E94431380910F019091D00163
:1027E000980F9093D00120911001280F2093100191
:1027F000121614F497FD03C0819580930F0108957C
:102800008F929F92AF92BF92CF92DF92EF92FF9200
:10281000CF93DF93EC014C81E42EF12C9701D7018B
:102820000E94232F9B01AC010E94EE2E4B015C0104
:10283000E0E2F0E0EE19FF09A5E5B0E0AC019B0194
:102840000E94EE2E6B017C019F01DF010E940F2E82
:102850009B01AC010E94F92E9B01AC01280D391D92
:102860004A1D5B1DC701B6010E94012F922F30E067
:102870009A3248F563E0969FA0011124559547953B
:10288000409522ED31E06091680285E5891B0E9448
:10289000E1080E9443139C8181E0992319F0903252
:1028A00019F48FEF8093110180911101890F8C83AE
:1028B000DF91CF91FF90EF90DF90CF90BF90AF90DE
:1028C0009F908F90089545E550E0BA01621B730B0D
:1028D0009B01AB01440F551F420F531F57FFCECF33
:1028E0004F5F5F4FCBCFCF93DF93EC0180916702B7
:1028F000609168029C8122ED31E040E0911102C0BC
:10290000409169020E94E1080E9443138C8190E08B
:102910000196817099278C83DF91CF9108959091D2
:10292000660290FF08C08093D3016093D201409368
:10293000D4010C94431308950F931F93CF93DF9307
:1029400000D00F92CDB7DEB78C018091D1018111FB
:102950000AC09E012F5F3F4F4FEF6FEF0E94E108CB
:102960008A818093D101F8016481613069F080919E
:10297000D10140E0662361F040E0623011F4409103
:10298000D10180E060E004C06091D10140E080E0CE
:102990000E948F14F801848190E0019663E070E05A
:1029A0000E94EE2D84830F900F900F90DF91CF91B6
:1029B0001F910F910895CF93DF9300D00F92CDB761
:1029C000DEB79091660290FF0AC09E012F5F3F4FD5
:1029D0000E94E1084B8169818A810E948F140F90C7
:1029E0000F900F90DF91CF910895CF93DF93EC017B
:1029F000EC81F0E0EC53FB4F4491E6E6F2E06281BB
:102A000081810E94DB148C818F5F8C83DF91CF9159
:102A10000895CF93DF93EC01E6E6F2E04381628113
:102A20008C810E94DB148C818F5F8C83DF91CF912E
:102A300008958F929F92AF92BF92CF92DF92EF92C2
:102A4000FF920F931F93CF93DF9309E711E0D0E03C
:102A5000C0E0B12CCC24C394D12C23E4E22E22E09C
:102A6000F22ED8018D918D01F894E82FE295EF7048
:102A7000F0E021A18F70A60102C0440F551F8A9576
:102A8000E2F7CA01922F982B91A392A180958923F6
:102A900082A3789400C096010C2E01C0220F0A94E4
:102AA000EAF7522F2095EDE3F2E08FE7882E81E0E0
:102AB000982EA12C4191D4013D914D01832F8295F7
:102AC0008F7090E0DC0190968C9190E03F7002C096
:102AD000959587953A95E2F780FD4AC0852F842B1E
:102AE000481739F0BF0161507109DB018C93AA24AA
:102AF000A394EE16FF06F1F6F801319780810E944B
:102B00008C0AB0EABA95F1F7BA282196C630D105F9
:102B100009F0A7CFBB2079F181E08093CE010E941C
:102B200022089093CD018093CC018091CC019091AB
:102B3000CD010E941308069710F180913D02809309
:102B40006B0280913E0280936C0280913F028093E1
:102B50006D028091400280936E02809141028093C9
:102B60006F0280914202809370021092CE0107C0E2
:102B7000822F8423B5CF8091CE018111D6CF8B2DAA
:102B8000DF91CF911F910F91FF90EF90DF90CF9049
:102B9000BF90AF909F908F900895CF93FC01C2811A
:102BA000848191E09483E4ECF4E03491E3E4F5E093
:102BB0002491C33040F4909167029093D501909195
:102BC00068029093D601811111C01092D801109221
:102BD000D70122ED31E04091D7016091D60180917B
:102BE000D5010E94E108CF910C9443138091D80144
:102BF000882319F181508093D8014FEF849FC00141
:102C000011246091D90170E00E94DA2DFB01FF27A9
:102C1000EC53FB4F8491E82FE31BE49FC001112488
:102C2000231B622F70E00E94DA2D80916902689F59
:102C3000B00111247093D701CCCF0E946A2E20914D
:102C400069022695215862E071E0269FA001279F26
:102C5000500D1124452F5527841795070CF0B9CF37
:102C6000C330A0F00E946A2E6FEF70E00E94EE2D3C
:102C70008093D5010E946A2E209168022695622FCA
:102C800070E00E94EE2D280F2093D6011092D701FC
:102C900080916902893C30F088EC8093D90180935F
:102CA000D80197CF8431C8F784E1F7CF6AEE7EEF81
:102CB00090E080E00E94B92E60E082E090E00E9407
:102CC0009B2E60E083E090E00E949B2E10923602E3
:102CD00010923702109238021092390260E084E0BC
:102CE00090E00E949B2E60E082E290E00E949B2E8A
:102CF00060E085E090E00E949B2E60E086E090E03E
:102D00000E949B2E6FEF87E090E00E949B2E40E098
:102D100050E0BA0188E090E00E94AD2E60E08DE0C6
:102D200090E00E949B2E40E050E0BA0188E190E0E4
:102D30000E94AD2E60E087E190E00E949B2E40E073
:102D400050E0BA018CE190E00E94AD2E70E060E0AE
:102D500080E290E00E94B92E40E050E0BA0188E1A4
:102D600090E00E94AD2E40E050E0BA018FE090E08C
:102D70000E94AD2E40E050E0BA0183E190E00C9457
:102D8000AD2ECF92DF92EF92FF926B017C010E94F9
:102D9000D208B701A60188E090E0FF90EF90DF90A5
:102DA000CF900C94AD2EEF92FF920F931F93CF9381
:102DB000DF9300D00F92CDB7DEB7182FF62E042F79
:102DC000E22E2091660220FF46C0822F8695E82FD2
:102DD000F0E0E35EFE4F908190934D022E7F223013
:102DE00009F043C09E012F5F3F4F812F0E94E108F1
:102DF0004B8169818A810E948F1410936702F0923F
:102E0000680200936902EE2009F46AC060916602CC
:102E10007091670280916802909169020E94C116C8
:102E20008091650280FF17C0809169021F928F9385
:102E3000809168021F928F93809167021F928F93F7
:102E40008AE594E09F938F930E946B060FB6F894E7
:102E5000DEBF0FBECDBF0F900F900F90DF91CF91CF
:102E60001F910F91FF90EF900895923019F4009107
:102E70006902C3CF963019F410916702BECF993022
:102E8000D9F3993109F0B9CF8951E82FE695F0E0EF
:102E9000EA55FB4F259134919091650290FF16C041
:102EA00033273F932F93809581701F928F931F92AA
:102EB0001F931F921F928FE794E09F938F930E941E
:102EC0006B060FB6F894DEBF0FBECDBF22ED31E02A
:102ED000402F6F2D812F0E94E1080E9443138DCF58
:102EE0008091650280FFB7CF1F920F931F92FF92D0
:102EF0001F921F9383E394E0A5CFE6E6F2E04381BF
:102F000028E0421B08F440E021E0628181810C94BA
:102F1000D316E6E6F2E0438128E0420F08F44FEFD3
:102F200021E0628181810C94D316E6E6F2E06281B1
:102F300028E0621B08F460E021E0438181810C9469
:102F4000D316E6E6F2E0628128E0620F08F46FEF44
:102F500021E0438181810C94D316E6E6F2E0818181
:102F600021E04381628188500C94D316E6E6F2E0BA
:102F7000818121E043816281885F0C94D316809126
:102F80006A02882319F0815080936A026091660278
:102F90007091670280916802909169020C94C11649
:102FA00080916A02833018F48F5F80936A02609187
:102FB00066027091670280916802909169020C9498
:102FC000C116E6E6F2E083E0808311828FEF828310
:102FD0008383148260817181828193810C94C116F4
:102FE0001092340280911C01EEEAF1E0882359F03E
:102FF00080913B0287FF07C08EE1DF011D928A9519
:10300000E9F70C94A00F86E0F8CF1F93CF93DF93DE
:10301000CDB7DEB7AA970FB6F894DEBF0FBECDBF0F
:103020008EE992E02091F100DC012D93CD01B2E018
:10303000863A9B07B9F780919F02833009F471C0EB
:10304000B8F4813009F448C0823009F4B2C08091EC
:10305000E80083FF3AC180919E0290919F029A30CE
:1030600008F033C1E92FF0E0EE5BF04D0C94022E36
:103070008A3009F48DC08B3009F470C0893039F77B
:1030800080919E02813219F78091A2029091A30251
:10309000009711F00297D9F68091E800877F80931E
:1030A000E8008091E80082FF37C09091F3008091A2
:1030B000F200029729F48091F1008B7F813021F496
:1030C0008091F100809379028091E8008B77809362
:1030D000E8000E94EE06BBCF80919E02813A09F083
:1030E000B6CF8091E800877F8093E8008091A202AC
:1030F0009091A302892B61F460E28AE792E070E08C
:103100000E94A0078091E8008B778093E8009FCF12
:1031100060E090E080E0F3CF80919C028111C1CF0C
:1031200096CF80919E02813A09F091CF8091A202C0
:103130009091A302892B09F08ACF8091E800877FC4
:103140008093E8008091E80080FFFCCF80911C0113
:103150008093F1008091E8008E77B9CF80919E0234
:10316000813209F074CF8091A2029091A302892B41
:1031700009F06DCF8091E800877F8093E8000E947E
:10318000EE068091A00280931C010E94F0175FCF91
:1031900080919E02813209F05ACF8091E800877FAA
:1031A0008093E8000E94EE068091A102809378024D
:1031B0004ECF80919E02813A09F049CF8091E8007C
:1031C000877F8093E8008091E80080FFFCCF8091AA
:1031D0007802BECF803899F0823809F076C08091AD
:1031E000A2028F70873008F070C08093E900809150
:1031F000EB0085FB882780F91092E90006C08091DA
:103200009A0290919B02911182609091E800977FC1
:103210009093E8008093F1001092F1008091E80013
:103220008E77BAC1882309F4A7C1823009F04DC056
:103230008091A0028111ABC18091A2028F702FEF0B
:10324000280F263008F041C08093E9002091EB0060
:1032500020FF9DC1933031F48091EB008062809318
:10326000EB0095C19091EB0090619093EB0021E011
:1032700030E001C0220F8A95EAF72093EA0010920D
:10328000EA008091EB008860EACF81111EC01091A6
:10329000A0021F778091E3008078812B8093E30068
:1032A0008091E800877F8093E8000E94EE0680917D
:1032B000E80080FFFCCF8091E30080688093E3000A
:1032C00082E0111183E080939C028091E80083FFEB
:1032D0000AC08091E800877F8093E8008091EB002E
:1032E00080628093EB00AA960FB6F894DEBF0FBE03
:1032F000CDBFDF91CF911F9108958058823028F77C
:103300002091A0023091A1022C3DE3E03E07A1F5FF
:1033100083E08A838AE289834FB7F894DE011396AB
:1033200020E03EE051E2E32FF0E050935700E491BB
:1033300020FF03C0E295EF703F5FEF708E2F90E0AB
:10334000EA30C0F0C7968D939D932F5F243159F7D3
:103350004FBF8091E800877F8093E8006AE270E0C9
:10336000CE0101960E94A0078091E8008B778093A0
:10337000E800ABCFC096E7CF8091A2029091A30264
:10338000432F55274330510509F44AC078F54130A1
:10339000510509F47AC08BE790E0EDE4FAE04230A1
:1033A000510509F092CF2091E800277F2093E80093
:1033B0002091A4023091A5028217930708F49C0182
:1033C00040E02115310509F065C0411163C08091CD
:1033D000E80082FDC9CF80919C02882329F28530C4
:1033E00019F28091E80083FFF2CFBECF4132510540
:1033F00009F43CC04232510509F067CF8430910591
:1034000008F063CFFC01EE0FFF1FE756FE4F01905F
:10341000F081E02D8B569E4FDC018C9190E01AC01C
:10342000332721303105D1F02115310561F02230EB
:10343000310509F04ACFEAEDFAE0E4918E2F90E0F1
:10344000EAEDFAE007C0E6EFFAE0E4918E2F90E0B3
:10345000E6EFFAE0009709F438CFA5CFEAEEFAE0FC
:10346000E4918E2F90E0EAEEFAE0F4CF84309105FB
:1034700008F02BCF880F991FFC01EF55FE4F0190EC
:10348000F081E02D89E090E08ECF82E190E0E8ECE1
:10349000FAE089CF80919C02882309F465CF8530BA
:1034A00009F462CF8091E80083FD5ECF8091E8004F
:1034B00082FD8DCF8091E80080FF83CF9091F30053
:1034C0008091F2002115310519F08830910550F0F6
:1034D00041E0089709F040E08091E8008E77809302
:1034E000E8006FCF44914093F100319621503109AB
:1034F0000196E8CF803809F0E8CE8091E800877F18
:103500008093E80080919D028093F10087CE811125
:10351000DCCE1091A002123008F0D7CE8091E800E6
:10352000877F8093E80010939D020E94EE0611238E
:1035300011F084E005C08091E30087FDFACF81E0BF
:1035400080939C0242E061EC81E00E940D0742E220
:1035500061EC84E00E940D0742E261EC82E00E948F
:103560000D0742E260EC83E00E940D0742E261EC4D
:1035700085E00E940D07A9CE8091A002813009F05C
:10358000A4CE81E0933009F080E080939B021092FA
:10359000E9008091E800877F8093E8000E94EE06B2
:1035A00094CE9091660290FF68C0917081113CC0EA
:1035B0009260909366026623F1F1609166027091C9
:1035C000670280916802909169020E94C116809101
:1035D000650280FF0FC08091660286951F928F93CF
:1035E00087E194E09F938F930E946B060F900F905A
:1035F0000F900F9060916602669570E04BE050E08E
:1036000084E091E00E947A2E892B09F10E94E80E55
:1036100081E080934A0220E0409169026091680253
:10362000809167020C94D3168B3210F09465C1CF51
:10363000880F982BBECF8091650280FFDBCF8091F1
:10364000660286951F928F9389EF93E0CBCF81E03E
:1036500080934E020E942208909348028093470272
:103660008091650280FFD4CF80EE93E09F938F938B
:103670000E946B060F900F90CBCF08958091660249
:103680008695815009F48AE261E00C94D11A809108
:10369000660286958F5F8B3208F081E061E00C94C2
:1036A000D11A9091660290FF07C09695981720F066
:1036B000961710F40C94471B61E00C94D11A4F92AA
:1036C0005F926F927F928F929F92AF92BF92CF92B2
:1036D000DF92EF92FF920F931F93CF93DF9300D06F
:1036E00000D00F92CDB7DEB77C01FC0183819481BD
:1036F000892B31F08081918189238F3F09F018C691
:103700000F900F900F900F900F90DF91CF911F911E
:103710000F91FF90EF90DF90CF90BF90AF909F9070
:103720008F907F906F905F904F9008950E94C90C8A
:10373000182F682F89819A810E945D0869817A819A
:10374000812F0E94320B8C01F7018281882309F4BA
:10375000E4C5980122513F452031310508F0AAC542
:103760008FEF93E00E94872E025177E4C72EDD246D
:10377000D394882379F180913102877009F4C0CF06
:10378000F7018281882309F4BBCF82E00F900F906C
:103790000F900F900F90DF91CF911F910F91FF909D
:1037A000EF90DF90CF90BF90AF909F908F907F90E1
:1037B0006F905F904F900C940610C114F4E0DF06F8
:1037C000D1F2C6010E94872E811101C001502FEF56
:1037D000C21AD20A0111F1CF1C821B82BB24B394FE
:1037E0006AE0A62E86010F5F1F4FC6010E94872E3A
:1037F00089831A82882309F4BECF9FEF980F9330F4
:1038000008F58A83B98232E0C30ED11CC8010E9438
:10381000872E8B83882309F4AECF8E010F5F1F4F55
:10382000F80180818823F1F2813009F043C0918151
:103830008281913049F40E5F1F4F0E945C120F5F2E
:103840001F4FEECF6801E9CF923029F40E5F1F4F72
:103850000E94A711F4CF933029F40E5F1F4F0E94EE
:103860004D10EDCF943019F00F5F1F4FE8CF0E5F72
:103870001F4F30E020E0B8016F5F7F4FF8014181BA
:103880008053990B8A30910550F021503109B8F2DC
:103890008FE99FE00197F1F700C00000F6CFA29EEC
:1038A000F001A39EF00D11249C012E0F3F1F842FC9
:1038B0008B01E1CF0E94DD12C2CF81E00E94221075
:1038C0000E94C70F58CF81E00E94E30FF9CF82E03A
:1038D000F5CF823041F486010E5F1F4FF8018491CD
:1038E0000E94A71115C5833041F486010E5F1F4F5A
:1038F000F80184910E944D100BC5843009F008C571
:1039000086010E5F1F4FF801249190E080E0F801DE
:1039100031962053330B2A30310550F0019708F4CB
:10392000F7C4EFE9FFE03197F1F700C00000F6CFF0
:10393000B89EA001B99E500D1124C901840F951F96
:1039400024918F01E4CF0E94DD128601E1C4033F80
:103950003CE5130709F46FC0A8F4083DECE51E0729
:1039600009F465C0093DFCE51F0709F470C0073D77
:103970002CE51207A9F426E241EE61EEC7010E9490
:103980007912F9CE053F3CE5130709F45CC008F451
:1039900056C027E245EE66EE063FECE51E0771F3E2
:1039A000882309F4D6C41092A8020230FCE51F0750
:1039B00008F42EC106312CE5120730F0C8018A5FE9
:1039C0009C45099708F024C10E94FE0A90933C028E
:1039D00080933B0200313CE5130709F4E8C008F08E
:1039E00076C008309CE5190709F4D7C008F045C037
:1039F0000430FCE51F0709F4C8C060F502303CE55F
:103A0000130709F4B8C003301C4509F4BAC060912B
:103A10003B0210913C0284E090E00E949B2E612FBB
:103A200082E290E00E949B2E0E94F017A4CE27E233
:103A300045EE65EEA3CF26E241EE60EE9FCF27E292
:103A400045EE64EE9BCF26E241EE62EE97CF28E290
:103A500041E0EFCF80913B02806106309CE5190781
:103A600009F48CC080913B02886007301C4508F443
:103A700085C080913B02806281C080913B028D7F36
:103A80000C30FCE51F0709F479C070F480913B020B
:103A90008C600A303CE5130709F470C008F481C05B
:103AA00080913B028E7F6AC080913B02877F0E30FF
:103AB0009CE5190709F462C080913B028B7F0F30AF
:103AC0001C4508F45BC080913B028F7E57C00B3FC2
:103AD000FCE51F0709F45DC030F503313CE5130731
:103AE00009F46DC078F401319CE5190709F463C04D
:103AF00002311C4509F08BCF0E94F01780913B02E8
:103B00008F773CC00531FCE51F0709F460C008F45D
:103B100074C080913C0281600A3F1C4509F077CF58
:103B200080933C0274CF0F3F8CE5180709F44BC01B
:103B300088F480913C028D7F0D3FECE51E0781F3F8
:103B400080913C028E7F0E3F1C4550F380913C02D9
:103B50008360E6CF01302DE5120709F457C008F461
:103B600042C060E002301D4509F051CF8EE090E088
:103B70000E949B2E4CCF80913B02816080933B0240
:103B800046CF80913B028260F9CF80913B028460F6
:103B9000F5CF80913C028260C3CF80913B0280646C
:103BA000EDCF0E94F01780913B028068E7CF8091B3
:103BB0003B028F7DE3CF80913B028F7BDFCF8091F3
:103BC0003B02837FDBCF80913C028C7FA9CF809129
:103BD0003B0282FB992790F921E0922790FB82F922
:103BE00090FB83F9CBCF80913C02982F90959170F8
:103BF0008E7F892B90FB81F993CF0E94F0179091D3
:103C00003B02892F97FB87F98058B8CF61E0AECF90
:103C10008091340206319CE5190709F0A5C38A7A20
:103C200091E009F490E09093DE01811106C089E2F1
:103C30000E94A30E0E949E0D9ECD85E3F9CF85E3E1
:103C400090C38091650280FF10C0809166028095CC
:103C500081701F928F9383E297E09F938F930E94CE
:103C60006B060F900F900F900F908091660280FF6F
:103C70002EC08E7F8093660260916602709167020B
:103C800080916802909169020E94C116809165023C
:103C900080FF0FC08091660281701F928F9384EB2A
:103CA00096E09F938F930E946B060F900F900F905A
:103CB0000F900E94E80EEFEFF0E722E0E150F040B5
:103CC0002040E1F700C000000E94431354CD816002
:103CD000809366028091650280FF0DC01F9281E093
:103CE0008F938CEE96E09F938F930E946B060F90BC
:103CF0000F900F900F908091660261E086950E9470
:103D0000D11A39CD4EE35BE167E47BE10E94CD0837
:103D100032CD47E45BE16EE37BE1F8CF46EB57E160
:103D20006DEA77E1F3CF45E957E161EA77E1EECF5C
:103D30004DE757E169E877E1E9CF49E857E16DE7F9
:103D400077E1E4CF40ED57E16FEB77E1DFCF61E062
:103D500081E0D5CF65E082E00E94511B0CCD68E088
:103D600086E0FACF64E18FE0F7CF67E185E1F4CF39
:103D700062E289E1F1CF61E083E2C1CF0B35FDE57D
:103D80001F07B1F10C352DE5120741F10A351D452C
:103D900009F015C381E029C00E94F0178FEF94E36A
:103DA000ECE081509040E040E1F700C000000E944C
:103DB000020890916502892F8E7F90FF8160809329
:103DC000650280FF05C08CE697E00E94D205D3CC47
:103DD0008AE597E0FACF0E945616CDCC80913C023E
:103DE00082FB882780F991E089270E943B0EE7C279
:103DF00080E0FBCFC8010E943408D82EEFC2212FEB
:103E00002F70A22E107F19F0A29490EFA922DD202E
:103E1000C9F0AA2069F080E2800F883010F081108C
:103E20000BC080913402A82AA09234020E949E0DF9
:103E3000802F0E94A71118C080913302A82AA09257
:103E40003302F4CF802F0E944D10AA2069F0A09475
:103E5000005E083010F081103BC080913402A8222F
:103E6000A09234020E949E0DEB2DE850FF0B349778
:103E700010F40E94C108CC2009F442CC8091310298
:103E800080FD3ECCF70112828595859585950E942F
:103E90002210C7010E945F1B809131028595859594
:103EA00085950F900F900F900F900F90DF91CF910D
:103EB0001F910F91FF90EF90DF90CF90BF90AF9048
:103EC0009F908F907F906F905F904F900C94E30F36
:103ED00080913302A822A0923302C4CF312F3F70C9
:103EE000932E107F103219F0929480EF9822882040
:103EF00071F081E0881681F1DD20D9F1AA2091F1DD
:103F0000F701858180FF94CF8F7085832BC0DD20E2
:103F1000B1F090913502892D892BA11003C00E9428
:103F2000310EA2CFE1E0AE12FACF20913C0222FD89
:103F30009BCF981709F498CF8093350295CFA110A5
:103F400006C00E942E08892D0E94260E8DCFF1E01A
:103F5000AF1609F489CFF5CFDD2031F025E02A1521
:103F600008F482CF892DDBCF34E03A1508F47CCFFA
:103F7000EACFAA2041F3F9E38F1295C12FEF37EE74
:103F800083E0215030408040E1F700C000008BC149
:103F9000812F86958695837061F0813009F064CF1A
:103FA000C8019370D11002C090E080E00E94950893
:103FB0005BCFC8019370D11002C090E080E00E94F6
:103FC000AB0852CF802FDD2029F00E94320A0E94D8
:103FD000F70E4ACF0E947709FACF812F837009F03C
:103FE00066C0D11041CF802F829586958770880F4B
:103FF000880F602F6F70462E512C712C612C082E6B
:1040000004C0440C551C661C771C0A94D2F740E08F
:1040100050E0BA0104FF0FC04FE050E060E070E0F4
:1040200004C0440F551F661F771F8A95D2F740952D
:10403000509560957095812F869586958370823016
:1040400019F1D8F40091360210913702209138020C
:1040500030913902813069F0442955296629772940
:10406000CB01BA0160237123822393230E94431062
:10407000FBCE402A512A622A732ACB01BA01642955
:10408000752986299729F2CF442955296629772948
:104090000091360210913702209138023091390296
:1040A000CB01BA016027712782279327DFCF86953E
:1040B000DD2011F0812F8170882309F4D5CE802F67
:1040C000829586958770880F880F602F6F70462EB7
:1040D000512C712C612C082E04C0440C551C661CFC
:1040E000771C0A94D2F740E050E0BA0104FF0FC0F9
:1040F0004FE050E060E070E004C0440F551F661FC1
:10410000771F8A95D2F74095509560957095812FCD
:10411000869586958370823019F1D8F40091A902B2
:104120001091AA022091AB023091AC02813069F06B
:104130004429552966297729CB01BA0160237123C7
:10414000822393230E94BD0F8FCE402A512A622AD8
:10415000732ACB01BA016429752986299729F2CFE0
:1041600044295529662977290091A9021091AA02AC
:104170002091AB023091AC02CB01BA0160277127CC
:1041800082279327DFCF1F70DD2029F0812F0E9427
:104190002210802FC4CE802F0E94260E812F0E94D5
:1041A000E30F62CE802F92EF891609F454C0981560
:1041B00078F0E0EF8E1639F1F1EF8F1609F443C075
:1041C000DD2009F46BC0A11033CE812F8F7140C068
:1041D00023EF821609F444C034EF8312F1CFDD20BF
:1041E00009F451C01F71812F0E94221080913C025E
:1041F00082FD07C0E8E01E9FC00111248360809308
:104200003102812F25C0DD20C9F084E08A1508F431
:104210002BCE1F7161E070E080E090E004C0660F7B
:10422000771F881F991F1A95D2F70091A902109144
:10423000AA022091AB023091AC02A0CF95E09A1572
:1042400008F412CEE6CF812F8F71DD2009F4A7CFBD
:104250000E94221009CE812F8F71DD20C9F39FCFDC
:1042600060E070E0CB01DD2009F46CCF1F7161E0EC
:1042700070E080E090E004C0660F771F881F991FF0
:104280001A95D2F75FCF81E00E940610F1E0FA158F
:1042900008F0EACD82E00E940610E6CDAA2039F0AF
:1042A000893309F46BCE802F0E944D10DDCD812F14
:1042B0008F7175CF0031FFE51F0709F4FECA013188
:1042C0002FE5120709F403CB0E35EDE51E0709F0C3
:1042D0003ECB882309F44FCA4CE9C42E46E0D42EC5
:1042E0005AE0B52EF6018491882309F444CA81303E
:1042F00009F029CB86010F5F1F4FF80184918130AF
:1043000009F0E7CA0F5F1F4FF80184910E945C1209
:1043100068012FEFC21AD20AE5CF00313FE513073B
:1043200009F4D1CA01319FE5190771F682E0CCCAC0
:1043300085E0DE01119601900D928A95E1F7F70173
:10434000228189819A812111F1C90E943408182F94
:10435000F5C906311C4599F58091DE0181116FCCBC
:1043600089E20E94670E66CC82720C3C2CE5120733
:1043700009F4E8CC08F098C0063C9CE5190709F45C
:10438000CDCC08F06DC0033CFCE51F0709F4BACCA6
:1043900008F057C0023C3CE5130709F452CC0E3D2F
:1043A0003CE5130709F417CD08F0E8CC01159CE5AE
:1043B000190709F4F1CC01301C4509F4FACCF701D6
:1043C000828100811181882309F414CDC8010E94E3
:1043D000C90CD82E682FC8010E945D08B8018D2D28
:1043E0000E943F0B8C01882EF701D280A580A294F9
:1043F0003FE0A322809131028770A1F0CD2CDD2017
:1044000091F0812F807F803421F080E2800F88300E
:1044100048F082E00E940610809131028770CC241F
:10442000C3948111C12CB12EB2942FE0B222FBE0D3
:10443000FB1508F419CDEB2DF0E0E45BF04D0C9486
:10444000022E043C9CE5190709F463CC4DEA57E1C0
:1044500066EB77E1053CECE51E0709F457CC9FCFEE
:10446000093CFCE51F0709F463CC78F4073C3CE504
:10447000130709F458CC41EA57E165E977E1083CB4
:104480009CE5190709F442CC8ACF0A3CECE51E07EB
:1044900009F453CC4FEB57E160ED77E10B3CFCE5C1
:1044A0001F0709F433CC7BCF013D2CE5120709F43B
:1044B00059CCA0F40E3C8CE5180709F44BCC08F459
:1044C00046CC0F3CECE51E0709F449CC6EE089E0D0
:1044D000003DFCE51F0709F43FCC61CF043D2CE50E
:1044E000120709F445CC68F4023D8CE5180709F47D
:1044F0003CCC61E088E1033D9CE5190709F4FFCB62
:104500004ECF053DECE51E0709F435CC6AE285E2A5
:104510000D35100709F420CC42CF1F93CF93DF93C2
:104520008091E501807FA9F48091E201882389F0E0
:1045300080911702D091E6016091E0017091E10154
:10454000A091E301B091E401C62FC72316E0D81370
:1045500004C0DF91CF911F91089590E0109711F062
:10456000CF3F19F401968770F2CF189F9001199FE1
:10457000300D1124F901E951FE4F41814713F2CF6B
:1045800040814613EFCF42814111ECCF43815481EA
:104590004A1B5B0B483C510528F78091E5018F7061
:1045A00080618093E501F901E451FE4F80818F70B5
:1045B0008061808380EE91E00E945F1BDF91CF914C
:1045C0001F910C948B08AF92BF92CF92DF92EF9223
:1045D000FF920F931F93CF93DF93CDB7DEB7619711
:1045E0000FB6F894DEBF0FBECDBF8C0185E0F80199
:1045F000DE011D9601900D928A95E1F7F801808108
:104600009181E28020EEA22E21E0B22E6091E301A2
:104610007091E4016115710509F43EC13091E0012A
:104620004091E101232F24232F3F09F435C1C3809A
:10463000D480F090E201F601E61BF70BFF2009F4AD
:10464000FBC02091E501522F507FE83CF10508F0B6
:10465000BBC0511178C0FE2C491321C038131FC0B4
:10466000E1101DC02F7020612093E501C5010E945B
:104670005F1B8091E501F80185838F2D61960FB650
:10468000F894DEBF0FBECDBFDF91CF911F910F9188
:10469000FF90EF90DF90CF90BF90AF900895CD281E
:1046A00029F0282F29232F3F09F014C120E0F22FF1
:1046B000F170DF2E20FF3DC0209117024091E601EE
:1046C00056E0241315C08D879E878D859E850E9498
:1046D0000B0D292F22952F702230F8F0243020F571
:1046E0009F70F9F0F8019581907FD9F4D12C1FC00B
:1046F00030E0529FF001539FF00D1124E951FE4F1D
:104700006181961306C06081861303C06281E61240
:1047100010C02F5F3F4F2770D4CF9F7011F08823B8
:1047200029F3805E883010F3C8010E945F1BFD2CC6
:10473000A4CFEE2009F4A1CF8091E50181608093A0
:10474000E501F12C9ACF491312C0381310C0E110C3
:104750000EC0F8012583C8010E945F1B86E0F801A6
:10476000A0EEB1E001900D928A95E1F786CF8D879A
:104770009E878D859E850E94150D882309F1EE2068
:10478000F9F08091E501803270F02091E0013091E4
:10479000E10138872F831986DB86CA868C87CE0194
:1047A00007960E945F1B86E0F801A0EEB1E0019041
:1047B0000D928A95E1F70E948D22FF24F3945DCF3C
:1047C000C8010E945F1BF9CF51110AC080EE91E031
:1047D0000E945F1B86E0F50111928A95E9F7B1CF3F
:1047E00049130FC038130DC0E1100BC0F801258329
:1047F000C8010E945F1B86E0F50111928A95E9F7D6
:104800003CCF8D879E878D859E850E94150D8823C0
:10481000B9F2EE20A9F28091E501803220F22091D8
:10482000E0013091E1013A8329831B82DD82CC8251
:104830008E83CE010196B5CFE83CF105E0F6FE2C63
:10484000EE2009F4BDCF491316C0381314C080916F
:10485000E50180FD83CF982F907F09F47FCFF80189
:104860008583903F09F477CF982F907F905F8F706A
:10487000892B858370CF8D879E878D859E850E942D
:10488000150D811190CF8091E50181608093E50144
:10489000C8010E945F1BF1CEEE2009F491CF8D87F5
:1048A0009E878D859E850E94150DF82E882309F41C
:1048B00087CF86E0F801A0EEB1E001900D928A95D5
:1048C000E1F78091E0019091E1010E940B0D0E94BF
:1048D0008D22D3CE21E02E25EACE1F93CF93DF93F6
:1048E000CDB7DEB767970FB6F894DEBF0FBECDBF6A
:1048F000342F4B8B252F5C8B6D8B7E8B8F8B8E8912
:104900009F896111109233021A8A198A3D872E8776
:104910006F87998B888B86E0FE013D96DE011796A6
:1049200001900D928A95E1F7CE0107960E94E3224D
:10493000882389F016E0809117029091E60189138F
:1049400049C067960FB6F894DEBF0FBECDBFDF91AA
:10495000CF911F91089586E0FE013796DE011196F2
:1049600001900D928A95E1F78A859B85892B11F339
:104970008F81988589238F3FE9F22091E60130E00D
:10498000C9010196877099274091170248171906A7
:1049900071F40E94F0171092E6011092170286E05F
:1049A000E0EEF1E0DF011D928A95E9F7C3CF96E0D2
:1049B000929FD001939FB00D1124A951BE4FFE01CB
:1049C000319601900D929A95E1F78093E6010E944D
:1049D0008B08B0CF819FC001112489519E4F0E9446
:1049E000E322882309F4ADCF8091170290E001966D
:1049F00087709927809317029ECF1F920F920FB650
:104A00000F9211242F933F934F935F936F937F9354
:104A10008F939F93AF93BF93CF93DF93EF93FF93C6
:104A2000D091E900DF708091EC00C82FC17080FD4B
:104A3000C0E81092E9008091F000877F8093F00039
:104A400078940E9405181092E9008091F000886027
:104A50008093F000CD2BCF70C093E900FF91EF91D0
:104A6000DF91CF91BF91AF919F918F917F916F9186
:104A70005F914F913F912F910F900FBE0F901F901C
:104A800018951F920F920FB60F9211242F933F93F8
:104A90004F935F936F937F938F939F93AF93BF9346
:104AA000EF93FF938091E10082FF15C08091E200B7
:104AB00082FF11C08091E1008B7F8093E100209103
:104AC00076022F5F822F62E30E94CE2D992309F494
:104AD000BEC0209376028091DA0080FF28C08091CA
:104AE000D80080FF24C08091DA008E7F8093DA00A6
:104AF0008091D90080FFE1C080E189BD82E189BD5C
:104B000009B400FEFDCF81E080939C0289E39AE026
:104B10000E94D20580917702811109C00E9474061B
:104B20000E943F078091E20084608093E2008091C0
:104B3000E10080FF1BC08091E20080FF17C08091E0
:104B4000E2008E7F8093E2008091E200806180939A
:104B5000E2008091D80080628093D80019BC85E083
:104B600080939C0281E49AE00E94D2058091E1004A
:104B700084FF2DC08091E20084FF29C080E189BDBF
:104B800082E189BD89B5982F917080FFFBCF80911C
:104B9000D8008F7D8093D8008091E1008F7E809334
:104BA000E1008091E2008F7E8093E2008091E2003C
:104BB00081608093E20080919D02882309F487C080
:104BC00084E080939C0285E49AE00E94D205809163
:104BD000E10083FF2BC08091E20083FF27C080911A
:104BE000E100877F8093E10082E080939C02109235
:104BF0009D028091E1008E7F8093E1008091E20030
:104C00008E7F8093E2008091E20080618093E200D9
:104C100042E060E080E00E940D078091F000886033
:104C20008093F00089E49AE00E94D205FF91EF9111
:104C3000BF91AF919F918F917F916F915F914F91B4
:104C40003F912F910F900FBE0F901F9018951092CB
:104C5000760280917502882309F43DCF80919C02F1
:104C60008430C1F49091E9009F702091EC00822F74
:104C7000817020FD80E8892B95E09093E900909168
:104C8000EB0090FF04C09091EE0097FD08C08F707C
:104C90008093E900109275021ECF1092F10090915E
:104CA000E80095FDFACF9091E80090FFF0CF909149
:104CB000E8009E779093E800EACF19BC10929C021E
:104CC0008DE39AE00E94D2051092770230CF809156
:104CD000E30087FD93E090939C0275CFCDB7DEB7DC
:104CE000AC970FB6F894DEBF0FBECDBF84B7877FF9
:104CF00084BF0FB6F894A895809160008861809376
:104D00006000109260000FBE80E890E00FB6F8944B
:104D100080936100909361000FBE85B7806885BF66
:104D200085B7806885BF8AEA90E19093AB01809354
:104D3000AA010E9474060E943F078091E2008460ED
:104D40008093E200789480919C028823A1F01091D6
:104D5000E9001F709091EC00892F817090FD80E830
:104D6000182B1092E9008091E80083FD0E9405183D
:104D70001F701093E90082E084BD93E095BD9AEF27
:104D800097BD80936E0081E90E948C0A80E90E94A1
:104D90008C0A84E90E948C0A86E60E948C0A87E9C4
:104DA0000E948C0A86EC0E948C0A83E90E948C0A7D
:104DB00082E90E948C0A86E30E948C0A82E30E94A8
:104DC0008C0A83E30E948C0A81E30E948C0AEDE343
:104DD000F2E083E492E0ABE6B2E011921D928E170E
:104DE0009F07D9F790E080E00E94952E8A3E9E4F63
:104DF00011F00E94561682E090E00E94872E809368
:104E000065020E94FE0A90933C0280933B020E943E
:104E100019158FE39CE90197F1F700C000000E948B
:104E2000191580916B0280FF17C06FEF83E290E04D
:104E30000E949B2E6FEF84E290E00E949B2E6FEF0A
:104E400085E290E00E949B2E6FEF7FEF90E080E084
:104E50000E94B92E0E94020883E090E00E94872EF3
:104E6000682F70E090E080E00E94431083E290E0C1
:104E70000E94872E813209F01AC684E290E00E94D7
:104E8000872E873009F013C685E290E00E94872EB6
:104E9000813309F00CC6809143028111E0C08091FA
:104EA000650280FF14C08AE299E09F938F930E946D
:104EB0006B06809165020F900F9080FF08C084E11F
:104EC00099E09F938F930E946B060F900F9090E054
:104ED00080E00E94952E8A3E9E4F81F0809165026F
:104EE00080FF08C08CEE98E09F938F930E946B0622
:104EF0000F900F900E9456160E94E11788E090E0F4
:104F00000E948F2E609366027093670280936802FE
:104F1000909369026E7FD1F48091650280FF08C092
:104F200083EA98E09F938F930E946B060F900F90F7
:104F30000E94E11788E090E00E948F2E6093660245
:104F40007093670280936802909369020E94D2086E
:104F50008091650280FF76C08AE898E09F938F93E6
:104F60000E946B06809165020F900F9080FF6AC0CF
:104F70008091660281701F928F938DE698E09F93D7
:104F80008F930E946B06809165020F900F900F9097
:104F90000F9080FF57C08091660286951F928F9375
:104FA00082E598E09F938F930E946B068091650243
:104FB0000F900F900F900F9080FF44C08091670278
:104FC0001F928F9388E398E09F938F930E946B06C4
:104FD000809165020F900F900F900F9080FF32C06C
:104FE000809168021F928F938EE198E09F938F9338
:104FF0000E946B06809165020F900F900F900F90AA
:1050000080FF20C0809169021F928F9384E098E016
:105010009F938F930E946B06809165020F900F9073
:105020000F900F9080FF0EC080916A021F928F93A5
:1050300088EE97E09F938F930E946B060F900F90DE
:105040000F900F9010924E028091660280FF04C074
:1050500060E086950E94D11A81E0809343022598F2
:105060002D9A24982C9A83B185FB882780F91C9966
:1050700062C090E0892B8093510282E191E090938D
:1050800045028093440288E29AE00E94D2058BE6B2
:1050900092E0F6E0F80FFCA780919C02853079F44D
:1050A00084E29AE00E94D20500E112E180919C0224
:1050B000853009F442C00E94F0170E94C1080E9486
:1050C0001915882359F08FB7F894409171025091C7
:1050D000720260917302709174028FBF2FE5422EAD
:1050E00022E0522E3BE6632E32E0732E10E000E009
:1050F0004BE4C42E49E0D42E0BA7F30131903F01BD
:10510000F20121902F01231050C00F5F1F4F063076
:10511000110591F78FEF8EA38FA318A60E94220886
:105120008160782F9AA789A74EA15FA168A58AA55B
:105130000E946D2460C092E09DCF80919C028430DB
:1051400021F11092460288E190E0E0E40FB6F89475
:10515000A895809360000FBEE093600083B7817FC5
:10516000846083BF83B7816083BF7894889583B759
:105170008E7F83BF0FB6F894A895809160008861F8
:1051800080936000109260000FBE80919B02882384
:1051900009F48CCF0E941915EBE6F2E081918111A0
:1051A00070C42CA52E13FACF81CF8091650281FDAA
:1051B000CAC1232480E0FF24F394922D9F2109F497
:1051C000F4C189A3EBA5EAA33F2081E009F480E0C4
:1051D0008BA30E9422088160782F9DA38CA349A1F4
:1051E0005AA16BA18DA10E946D24F801E15AFD4FD7
:1051F0008081F826F08280914E028823D1F180913F
:105200004D02E0916602E695E81BE0934902823088
:1052100009F0D1C1F0E0E059F64FE4910E2F10E013
:1052200085EFE82E84E1F82E80914A02882361F010
:1052300010924A020E9422089093480280934702EB
:1052400010924C0210924B020E942208E0914702F9
:10525000F09148028E1B9F0B8F3F9F4750F4E00F49
:10526000F11FF0934802E093470287E492E0F701D0
:105270000995E0915102EE0FEE0FE093510283B1D8
:1052800085FBAA24A0F81C9902C280E08A29E82B99
:10529000E0935102EF70F0E0EB57FE4F8081909168
:1052A0005002890F8093500220E084304CF08091AE
:1052B0004F028F5F80934F028AEA0E945C1221E0C6
:1052C000809150028D3F4CF480914F028150809329
:1052D0004F0289EA0E945C1221E080915002082E60
:1052E000000C990B64E070E00E94EE2D8093500258
:1052F000222359F08FB7F8944091710250917202B5
:1053000060917302709174028FBF86E0E8E5F2E06D
:10531000DE01119601900D928A95E1F7F0905A0204
:10532000E0905B0210915C0200915D0210925A02C3
:1053300010925B0210925C0210925D028F2D8E29FA
:1053400009F448C080915602909157020E941308B8
:105350009C0190915502992309F4D0C32333310560
:10536000C8F19F3F19F09F5F90935502FF2059F0BD
:105370000E94120A9FEF1F140CF491E0899F802D68
:10538000112480935A02EE2059F00E94120A9FEFD6
:105390001E140CF491E0899F802D112480935B02F0
:1053A00030915A023323B1F020915B02222391F015
:1053B00045EB3403C0011124992309F46BC1909388
:1053C0005A0245EB240390011124332309F466C1EA
:1053D00030935B02812F802B09F448C080915302E7
:1053E000909154020E9413089C01909152029923BB
:1053F00009F47FC325363105C8F19F3F19F09F5F3F
:1054000090935202112359F00E94F0099FEF111658
:105410000CF491E0899F802D112480935C0200237D
:1054200059F00E94F0099FEF10160CF491E0899F4B
:10543000802D112480935D0230915C023323B1F002
:1054400020915D02222391F045EB3403C001112429
:10545000992309F427C190935C0245EB2403900142
:105460001124332309F422C130935D0280915A0242
:1054700090915B02892B90915C02892B90915D0247
:10548000892B11F00E94F70E86E0FE013196A8E507
:10549000B2E001900D928A95E1F70E94C1089091C7
:1054A0005E02891739F10E94C108182F80935E02AD
:1054B0008091650282FF1EC080FF1CC08BE799E0CF
:1054C0000E94D2058091650280FF14C01F921F9335
:1054D00086E799E09F938F930E946B068091650207
:1054E0000F900F900F900F9080FF04C084E799E019
:1054F0000E94D20580919C02843009F0CDCD83E0DA
:105500008093E9008091E80082FFC6CD8091E80099
:1055100090E085FF06C00E949306882309F4CAC064
:1055200091E08091E8008B778093E800992309F45B
:10553000B3CDE981E150E33108F03EC1F0E0E85A33
:10554000F04D0C94022E80E599E00E94D2059BE676
:10555000892E92E0992EF12CE12CFF92EF92DF92AE
:10556000CF920E946B0688E499E00E94D205F40174
:1055700081914F010E94E60A1F928F9383E499E084
:105580009F938F930E946B0681E499E00E94D2055D
:10559000FFEFEF1AFF0A0FB6F894DEBF0FBECDBFC4
:1055A00096E0E916F104C9F604CE8F5FFF0C863051
:1055B00009F003CEAACD863059F4F0E0E359F64F56
:1055C000E4910E2F10E0B9E0EB2EB5E1FB2E2CCECE
:1055D000893061F4E695F0E0E659F64FE4910E2F3C
:1055E00010E0A5E7EA2EA3E1FA2E1ECE8F3061F47B
:1055F000E695F0E0E959F64FE4910E2F10E0FEE851
:10560000EF2EF3E1FF2E10CE853159F4F0E0EC5986
:10561000F64FE4910E2F10E0E2EDEE2EE3E1FE2EC8
:1056200003CE08E210E050E0E52E54E1F52E88317B
:1056300009F4FACD833249F4E2E6F9E005911491D8
:105640007CE9E72E74E1F72EEFCD04EF11E043E79C
:10565000E42E44E1F42E843209F4E6CD00ED17E0A7
:105660003EEFE32E37E0F32E853209F0DDCD8E2FAD
:1056700063E00E94CE2DE92FF0E0E15AF64FE4916D
:105680000E2F10E06DECE62E65E1F62ECDCD82E01A
:1056900090E0FCCD81E080935A0293CE81E080932C
:1056A0005B0298CE81E080935C02D7CE81E080934C
:1056B0005D02DCCE00E210E0CE0101967C0180911B
:1056C000E80085FD0AC08091E8008B778093E800B0
:1056D0000E949306882399F323CF8091F100F7016C
:1056E00081937F010150110951F71ACF1A8289E085
:1056F0008B832DC08A81823009F4F2C18330A9F0F6
:10570000813009F059C02FB7F894609171027091FF
:10571000720280917302909174022FBF0E94082E32
:105720006B837C838D839E8312C080916B028B83FD
:1057300080916C028C8380916D028D8380916E02CA
:105740008E8380916F028F83809170028887809111
:105750009C02843009F0A0CC1091E9001F70909158
:10576000EC00892F817090FD80E8182B82E08093F7
:10577000E9008091E80080FF0DC050E040E060E269
:1057800070E0CE0101960E94C4068091E8008E77F9
:105790008093E8001F701093E9007ECC8A818230EC
:1057A00059F46B817C818D819E810E94082E86E256
:1057B00090E00E949B2ECBCF8FEF8983C8CF4C8186
:1057C0006B818A810E940C0B9827892798279E83DA
:1057D0008D83BDCFED80FE80FE24EF24FE248A81E0
:1057E0000B81FCE00F9F8001112428E4829F000DB3
:1057F000111D11248C8190E0880F991F080F191F2B
:105800006F2DC80187960E949B2E6E2DC801889629
:10581000D0CF0E94390D9BCF8A818138C9F060F4C6
:10582000803809F094CF20E04B816091680280912C
:1058300067020E94D3168BCF823809F44CC083389C
:1058400009F085CF20E0409169026C818B81F1CF16
:1058500060E08B810E94D11A2B819091650280912A
:10586000660221111FC08E7F8093660290FF0CC0DC
:105870001F921F928EE899E09F938F930E946B0670
:105880000F900F900F900F900E94E80E4FEF80E75F
:1058900092E0415080409040E1F700C000000E943B
:1058A000431355CF81608093660290FF0DC01F9215
:1058B00081E08F9388EC99E09F938F930E946B0611
:1058C0000F900F900F900F908091660260E0869588
:1058D0000E94D11A3CCF8B8180936A02909165021D
:1058E00090FF35CF1F928F9381E09AE09F938F9323
:1058F0000E946B060F900F900F900F9028CF8A8117
:10590000813899F030F4803809F021CF8091690214
:10591000EFCE823891F0833809F019CF8091670279
:105920008B83809168028C8312CF8091660280FF06
:1059300002C08695DDCE80E0DBCE80916A02D8CEB3
:10594000609166027091670280916802909169028D
:105950000E94C116FCCE80E18A83F9CE82E08A8360
:1059600089EBC6CE0A811B81102701271027FE0173
:1059700031966F01EC80CF018E0D911D7C01C80125
:10598000895B9E4FEC14FD0409F4E1CE093BE2E093
:105990001E0750F40E94872EF60184830F5F1F4F6D
:1059A000FFEFCF1ADF0AEBCFF6011482F7CF0A819F
:1059B0001B81102701271027CE0101966C01EC8076
:1059C000E00EF12EF11CC801895B9E4F0E151F05DC
:1059D00009F4BDCE093BE2E01E0720F4F601648124
:1059E0000E949B2EFFEFCF1ADF0A0F5F1F4FEBCFF6
:1059F0000E948E0DACCE84E0AFCF0A811B811027B0
:105A000001271027CE0101966C01EC80FC01EE0D00
:105A1000F11D7F01C8018796CE14DF0409F497CEEB
:105A20000032F1E01F0750F40E94872EF6018483B4
:105A30000F5F1F4FFFEFCF1ADF0AECCFF601148282
:105A4000F7CF0A811B81102701271027CE0101966D
:105A50006C01EC80E00EF12EF11CC8018796E01677
:105A6000F10609F474CE0032E1E01E0720F4F601DD
:105A700064810E949B2EFFEFCF1ADF0A0F5F1F4F3A
:105A8000ECCF09BD19BD09B400FEFDCF8091D8004F
:105A90008F7D8093D8008091E00082608093E00049
:105AA0008091E00081FDFCCF0E94F017FFCA60E00A
:105AB00086E290E00E949B2E0E94390D0E948E0D7E
:105AC00061E283E290E00E949B2E67E084E290E036
:105AD0000E949B2E61E385E290E00E949B2EDBC931
