:100000000C9418030C945F030C945F030C945F032F
:100010000C945F030C945F030C945F030C945F03D8
:100020000C945F030C945F030C94BE110C94911715
:100030000C94911B0C945F030C945F030C945F036E
:100040000C945F030C94812B0C945F030C945F035E
:100050000C946E2B0C94CD120C945F030C945F03E4
:100060000C945F030C945F030C945F030C945F0388
:100070000C945F030C945F030C945F030C945F0378
:100080000C945F030C945F030C945F030C945F0368
:100090000C94DD2D0C945F030C945F030C945F03B0
:1000A0000C945F030C945F030C945F030001010147
:1000B0000101010101010202020202020202020325
:1000C00003030303030303040404040404040505F5
:1000D00005050506060606060707070707080808B8
:1000E00008090909090A0A0A0B0B0B0C0C0C0D0D67
:1000F0000D0E0E0E0F0F0F101011111112121313FF
:100100001414151516161717181819191A1A1B1B77
:100110001C1D1D1E1E1F20202122222324242526D3
:1001200026272829292A2B2C2D2D2E2F303132320B
:10013000333435363738393A3B3C3D3E3F40414217
:10014000434445464748494A4C4D4E4F50515354FD
:10015000555658595A5B5D5E5F61626465666869B1
:100160006B6C6D6F7072737577787A7B7D7E808231
:10017000838587888A8C8E8F91939596989A9C9E7A
:10018000A0A2A3A5A7A9ABADAFB1B3B5B7BABCBE8A
:10019000C0C2C4C6C9CBCDCFD1D4D6D8DBDDDFE257
:1001A000E4E7E9EBEEF0F3F5F8FAFDFFFFAA7F557F
:1001B000402223252628292A2C2D2F30323335366C
:1001C000383A3B3D3E4042434547494A4C4E5051E8
:1001D000535557595A5C5E6062646668696B6D6F0F
:1001E00071737577797B7D7F81838587898A8C8E12
:1001F00090929496989A9C9E9FA1A3A5A7A8AAAC1A
:10020000AEAFB1B3B4B6B8B9BBBCBEBFC1C2C3C553
:10021000C6C7C9CACBCCCDCED0D1D2D2D3D4D5D6F5
:10022000D7D7D8D9D9DADADBDBDBDCDCDCDCDCDD28
:10023000DDDDDDDCDCDCDCDCDBDBDBDADAD9D9D80C
:10024000D7D7D6D5D4D3D2D2D1D0CECDCCCBCAC9A4
:10025000C7C6C5C3C2C1BFBEBCBBB9B8B6B4B3B1D3
:10026000AFAEACAAA8A7A5A3A19F9E9C9A9896946E
:1002700092908E8C8A89878583817F7D7B79777543
:1002800073716F6D6B6968666462605E5C5A595722
:10029000555351504E4C4A4947454342403E3D3BE1
:1002A0003A3836353332302F2D2C2A29282625236B
:1002B000222B7F14001A00080015001700000029E7
:1002C0006104001600070009000A00000001571D24
:1002D000001B00060019000500025300000000008A
:1002E000000000E30002582C003100130012000C43
:1002F0000018001C0000002A0033000F000E000D43
:10030000000B000000E500387137003600100011C6
:1003100000045300000000000000000257045828A9
:10032000002B7F14001A000800150017000000E0E1
:100330000004001600070009000A00000001571D14
:10034000001B000600190005000253000000000019
:10035000000000E30002582C003100130012000CD2
:100360000018001C0000004C0033000F000E000DB0
:10037000000B000000005C38003700360010001150
:100380000004530000000000000000025704582839
:10039000002B7F22002300240025002600000029D6
:1003A000611E001F00200021002700000001571DD2
:1003B000001B00060036003700025300000000005A
:1003C000000000E30002582C00310013004D0049EA
:1003D000004A001C0000002A0033004F0052005168
:1003E0000050000000E500E4003700360010001166
:1003F00000045300000000000000000257045828C9
:10040000003A003B003C003D003E003F000000651C
:100410005DC45C0100CB5CCA5C01000000645DC788
:100420005CC65CC95CC85C010002530000000000AF
:10043000000000E30002582C004500440043004245
:1004400000410040000000010001004F0052005137
:100450000050000000005C010001000100010001EB
:100460000004530000000000000000025704582858
:10047000002B7F35003602350037021E02000029AE
:100480006131002F022E00300220020000015722AD
:1004900002330225022E0235020253000000000042
:1004A000000000E30002582C004C00340030002D06
:1004B000002F001F0200002A00310227023402260A
:1004C000022D020000E5003802010023022402216F
:1004D00002045300000000000000000257045828E6
:1004E000001E0F0500047F3F1F643214643214782D
:1004F0003C1E1E140A0505010902A101850209011D
:10050000A1000509190129081500250195087501A3
:1005100081020501093009311581257F9502750891
:10052000810609381581257F950175088106050C1E
:100530000A38021581257F950175088106C0C0051E
:10054000010980A101850319012AB700150126B709
:1005500000950175108100C0050C0901A1018504F9
:1005600019012AA002150126A0029501751081002B
:10057000C005010906A101050719E029E7150025B5
:10058000019508750181029501750881010507191A
:100590000029FF150026FF00950675088100050853
:1005A00019012905950575019102950175039101C0
:1005B000C009023B00020100A0FA09040000010387
:1005C00001010009211101000122400007058103FA
:1005D00008000A09040100010300000009211101BB
:1005E0000001227B000705820320000A120110018E
:1005F0000000000810CB56120001010200011C038C
:10060000490072006900730020004B00650079000A
:1006100062006F0061007200640000000E034B0076
:1006200065006500620069006F00000004030904B2
:1006300011241FBECFEFDAE0DEBFCDBF04B603FE4C
:1006400027C08091660390916703A0916803B091E1
:1006500069038730904BA740B04BD1F410926603EA
:1006600010926703109268031092690314BE84B756
:10067000877F84BF0FB6F894A89580916000886149
:1006800080936000109260000FBEE0E0F8E30995EF
:1006900023E0ACE0B2E001C01D92A636B207E1F75C
:1006A00012E0A0E0B1E0E4EBFFE502C005900D929E
:1006B000AC30B107D9F70E94CE260C94B42F0C941D
:1006C0000000E8EDF0E080818E7F80831092E200F0
:1006D0001092DA001092E100A0EEB0E08C918160FF
:1006E0008C9380818F77808319BCA7EDB0E08C91CB
:1006F0008E7F8C9380818F7E808310922C0308954F
:100700002091E4003091E50095E6A9012091EC00EC
:10071000822F817020FF06C08091E80080FF06C014
:1007200080E008952091E80022FD1AC080913903ED
:10073000882389F0853089F08091EB0085FD0FC01A
:100740002091E4003091E50042175307F9F29150EF
:10075000E1F684E0089582E0089583E0089581E061
:100760000895EF92FF920F931F93CF937C018B011B
:100770000E948003C82F811117C08091E80085FD79
:100780000BC08091E8008E778093E8000E94800380
:10079000882399F3C82F08C0F70181917F018093C6
:1007A000F1000150110949F78C2FCF911F910F9142
:1007B000FF90EF90089580913B0387FF13C08091D5
:1007C000E80082FF06C08091E8008B778093E80004
:1007D00004C0809139038111F2CF089580913903CB
:1007E0008823D9F38091E80080FFF8CF8091E8005A
:1007F0008E77ECCF982F9093E900242F762F50E03E
:10080000891731F07091EC002091ED005091F000CB
:1008100021FD07C09F5F973071F78093E90081E069
:1008200008953091EB003E7F3093EB003091ED0066
:100830003D7F3093ED003091EB0031603093EB0061
:100840007093EC002093ED005093F0002091EE00A7
:1008500027FDE0CF80E00895CF92DF92EF92FF92E4
:100860000F931F93CF93DF93C8EDD0E088818F7EE5
:100870008883E7EDF0E080818160808384E082BF3F
:1008800081E080932C0388818E7F888302EE10E0C4
:10089000F80110821092DA0081EEC82ED12CF601F8
:1008A000108288818F778883888180688883888197
:1008B0008F7D888319BC1092390310923A031092ED
:1008C00038031092370390EEE92EF12CF701808166
:1008D0008B7F808388818160888342E060E080E054
:1008E0000E94FA03F60180818E7F8083F801808167
:1008F00081608083808188608083F70180818E7F22
:100900008083888180618883DF91CF911F910F91CF
:10091000FF90EF90DF90CF900895FC01809141030C
:100920009091420386179707A0F06115710529F48D
:100930009091E8009E779093E80090E06115710532
:1009400051F4911108C08091E80082FF34C080E02A
:100950000895BC01F2CF809139038823C1F185301D
:10096000C1F18091E80083FD30C08091E80082FDF4
:10097000EACF8091E80080FFE1CF8091F3002091E1
:10098000F200382F6115710519F02830310558F043
:1009900091E02830310509F090E02091E8002E77B1
:1009A0002093E800CBCF81918093F10061507109D1
:1009B0002F5F3F4FE7CF80913903882341F0853087
:1009C00041F08091E80083FFBECF81E0089582E08E
:1009D000089583E00895089580E0089580912E039E
:1009E00008959C014FB7F8948091DB029091DC024E
:1009F000A091DD02B091DE024FBF821B930B0895E0
:100A00002FB7F8946091DB027091DC028091DD02D7
:100A10009091DE022FBF08958091D602811110922D
:100A2000D602089580959091D50298239093D5028F
:100A300008958091D5029091D402892B9091D30290
:100A4000892B80930E029091D602992391F0892BE5
:100A500080930E0220E080E192E0FC013191CF0111
:100A600031112F5FF2E086319F07B9F721110E9403
:100A70000C05E091F502F091F602309731F002801A
:100A8000F381E02D8EE092E009940895E0E1F2E038
:100A90009191891303C0DF0111971C9292E0E63116
:100AA000F907B1F70895A0E1B2E0EFEF90E02D91E2
:100AB000821751F0EF3F19F4211101C0E92F9F5F18
:100AC0009630A9F7EF3F09F408950E2E000CFF0BA6
:100AD000E25FFD4F8283089527E0929F800D1124ED
:100AE000982F977086958695869525E0829FF001D0
:100AF0001124E155FD4F50E040E080E0219130E0CD
:100B0000092E02C0369527950A94E2F72170332703
:100B1000042E01C0220F0A94EAF7822B4F5F5F4F29
:100B20004530510559F7089527E0929F800D112413
:100B3000982F977041E001C0440F9A95EAF7869587
:100B40008695869595E0899FF0011124E155FD4F2A
:100B500090E080E070E05191DF0111979B01082E39
:100B600002C0369527950A94E2F721702195252732
:100B7000242325272C9301968530910561F708954C
:100B8000282F8091E3029091E402A091E502B091B8
:100B9000E6020097A105B10549F004C0B695A795F6
:100BA000979587952A95D2F78170089580E00895EA
:100BB0002091AE0290917D0256E0291302C080E0A0
:100BC000089530E0529FF001539FF00D1124E25838
:100BD000FD4F7181761306C07081781303C0728156
:100BE000741304C02F5F3F4F2770E7CF81E0089553
:100BF0008091AE0290917D02981301C008958F5F9D
:100C00008770FACF882341F080959091D402892390
:100C10008093D4020C9419050895882339F090919B
:100C2000D402982B9093D4020C941905089588232C
:100C300021F00E9412050C9419050895882339F0BB
:100C40009091D502982B9093D5020C941905089594
:100C50000C94000520917002309171022817390719
:100C600071F09093710280937002E091F502F0911F
:100C7000F602309721F00084F185E02D0994089563
:100C800020916E0230916F022817390771F090930E
:100C90006F0280936E02E091F502F091F6023097B8
:100CA00021F00680F781E02D09940895E091F50286
:100CB000F091F602309721F00190F081E02D099437
:100CC00080E00895CF93DF93EC0181E0898B8091E0
:100CD000D5029F81892B8093D5028091D40298857B
:100CE000892B8093D4020E941905EA81FB813097F9
:100CF00039F06C897D89CE010696DF91CF910994F8
:100D0000DF91CF910895EF92FF920F931F93CF93AE
:100D1000DF93EC018A85811139C0EB80FC8087E587
:100D2000F81A26E12E9DC0012F9D900D1124DC01A3
:100D3000A35EBE4F1496ED91FC911597309731F05C
:100D400054966D917C918D5D9E4F099586E18E9DA7
:100D500080018F9D100D1124035E1E4FF8018781C5
:100D60000E941205F8018085982F90958091D402F9
:100D700089238093D4020E941905188219861B8644
:100D80001E821D821092740210927302DF91CF9125
:100D90001F910F91FF90EF900895FA01811101C00A
:100DA000FB010994EEE0F3E011828281846082838A
:100DB000089580910903982F9E7F29F481708260A5
:100DC0008093090308958635E8F381708465F8CF30
:100DD000AF92BF92DF92EF92FF920F931F93CF9348
:100DE000DF93082F162FE901E42FF0E0E455FF4FC1
:100DF000611110C0E4915E2F4E2F4983E8835A831E
:100E0000DF91CF911F910F91FF90EF90DF90BF90F6
:100E1000AF900895E62EF12C4491D42EE42FF0E00B
:100E200026E0829FC00111242FEF30E0B9010E941B
:100E3000632E802F90E0880F991F55E5569FD001B3
:100E4000579FB00D11248A1B9B0B982F990F890F68
:100E50005901AE18BF08AE9ED001AF9EB00DBE9E28
:100E6000B00D11245B2F189F80011124012F112731
:100E70005901A01AB10AAE9E8001AF9E100DBE9E10
:100E8000100D11245901A81AB108AE9CC001AF9CE5
:100E9000900DBE9C900D1124892F9927281B390B8A
:100EA0002E9FC0012F9F900D3E9F900D1124E92F82
:100EB00062307105A1F050F46115710509F49DCF00
:100EC0006130710581F0EB2F512F97CF64307105A0
:100ED00069F080F06630710509F48FCFF4CFE42F0C
:100EE0004B2F592F8ACFE42F412F87CFEB2F542F31
:100EF000492F83CF4B2F5D2DE12F7FCF40911E03D4
:100F00008D3E59F480911F0387FF0DC010921F037F
:100F100041110BC01092190308C08E3E81F48091DC
:100F20001F0318169CF3442381F0809120039091B5
:100F30002103892B09F05AC01092160308958F3EA1
:100F400049F447FFF0CF10921E0380911F038111D7
:100F5000ECCFE0CF803F19F41416ACF3E4CF9091BE
:100F60002003893F29F41916F4F610922003DBCFF1
:100F70008A3F19F497FFD7CFF8CF909121038B3F89
:100F800029F497FFD0CF10922103CDCF8C3F19F4D5
:100F90001916CCF3C8CF9FE0980F983090F4815F7A
:100FA000990B21E030E0B90102C0660F771F8A95E6
:100FB000E2F7CB01809590911D03892380931D0357
:100FC000B2CF8D3F31F4809176028E7F809376028E
:100FD000AACF8E3F21F4809176028D7FF7CF8F3F8D
:100FE00009F0A1CF809176028B7FF0CF0895809198
:100FF000760280FD16C081FD16C082FD16C080916C
:1010000016038823A1F0883280F428E0829FC00173
:10101000112468E270E00E94772E862F672B39F04A
:10102000089582E0089584E0089588E0089581E0BD
:1010300008958091760280FD14C081FD14C082FD68
:1010400016C080911903882381F0843180F422E353
:10105000829FC001112464E170E00E94772E862FE8
:1010600008958CE0089589E1089585E0089582E36C
:1010700008958D3E31F40E941908819580931F03D5
:1010800008958E3E19F40E941908F8CF8F3E31F46E
:101090000E941908819580931E030895803F19F4DA
:1010A0000E941908F8CF893F29F40E94F70780931E
:1010B000200308958A3F21F40E94F7078195F7CF16
:1010C0008B3F31F40E94F7078195809321030895A7
:1010D0008C3F19F40E94F707F8CF9FE0980F9830E3
:1010E00070F4815F990B21E030E001C0220F8A95F6
:1010F000EAF780911D03822B80931D0308958D3F95
:1011000031F48091760281608093760208958E3F5B
:1011100021F4809176028260F7CF8F3FB9F78091FA
:1011200076028460F1CFF894E82FE295EF70F0E05A
:1011300031A1282F2F7081E090E001C0880F2A95FF
:10114000EAF7982F9095932391A392A1892B82A3DC
:10115000789408959091E70292FF06C0282F287195
:101160002830F9F4877F846093FF06C0282F287108
:101170002831F1F4877E84612091E80220FF06C0C7
:10118000382F38713830D9F4877F816021FF06C04D
:10119000282F28712831D1F4877E816194FD877EC4
:1011A0000895282F24712430F9F68B7F8860DCCFD6
:1011B000282F2471243101F78B7E8861DDCF382FF1
:1011C0003171313019F78E7F8860E0CF282F21717F
:1011D000213121F78E7E8861E1CFCF93DF93972F66
:1011E00070E027E0929F600D711D1124FB0138E330
:1011F000839FE00DF11D1124EE0FFF1FEF54FD4FF3
:10120000C591D491CE01C238D105B9F1E8F5C13309
:10121000D10509F499C050F5C932D10509F48DC042
:10122000CA32D10509F497C0C11540E5D40708F0CA
:10123000C5C0C11520E4D20708F035C1C83ED105AC
:1012400008F0A0C0C03ED10568F5C83AD10508F045
:1012500089C0C53AD10508F00CC1C130D10511F1E2
:10126000209709F443C02497E8F440C0C533D10562
:1012700009F45CC0C933D105B9F62091E7022370A7
:1012800089F080EE90E00EC0C33ED10591F168F484
:10129000C03ED105F9F0C23ED10531F62091E702FA
:1012A00022FD20C0DF91CF910895C63ED10561F1A6
:1012B000C73ED10581F1C43ED10509F0B5CF2091DB
:1012C000E80221FFEFCF8091E70284FD0FC087EE97
:1012D00090E0E8CF2091E70220FD2BC13091E80299
:1012E00030FFE0CF83EE90E024FFDCCF90E080E0A1
:1012F000D9CF2091E70222FD1FC13091E80230FDD5
:10130000C0CF24FFCFCFF2CF2091E70223FFCACF77
:1013100024FDECCFDCCF2091E70223FD10C13091FA
:10132000E80231FFEECF84EE90E0BCCF2091E702DF
:1013300025FFB8CF89E290E0B5CF2091E70225FFE5
:10134000B1CF85E390E0AECF2091E70226FFAACF90
:101350008AE290E0A7CF2091E70226FFA3CF81E3A6
:1013600090E0A0CFCF3BD10508F48BC0C03CD105A5
:1013700008F4BCCFFE01EE0FFF1FE45DF040859145
:10138000949190CFC11530E2D30760F4C11541E0CC
:10139000D40708F087CFCE019065CD3ED10508F087
:1013A00081CFA4CFC11580E3D80708F074C0FE0137
:1013B000FF70EE0FFF1FE455FF4FE1CFC11595E51C
:1013C000D90748F5C11524E5D20708F09BC0C1151F
:1013D00032E5D30750F4C11541E5D40708F467C0DE
:1013E0009C2F8827816F906A5DCF9C2F969596954C
:1013F000AE0143705527C115D34508F074C021E0F4
:1014000030E002C0220F331F4A95E2F740E2949F7A
:10141000C001112464C0C11599E5D907A0F4C11514
:1014200028E5D20708F073C0C11536E5D30708F0E8
:101430005DCF8C2F0E94AA0890E0982F88278827DC
:101440009F7190622FCFC1154AE5D40708F464C09C
:10145000CE0190568115904208F048CF8D2F8F71A4
:101460000E94AA0890E0982F882788279F718C2BCC
:10147000E8CFC55AD0E0C653DE4F888190E0906433
:1014800011CFC85AD0E0CC0FDD1FC353DE4F888187
:101490009981946407CFCE019927D3FF02C0986C3D
:1014A00001CF906CFFCECE019F70906AFBCE9E0163
:1014B000E4E036952795EA95E1F723708C2F869521
:1014C0008695837030E2839FC0011124922BC370F4
:1014D00021E030E002C0220F331FCA95E2F7822BD1
:1014E000932B9C68DFCE21E030E002C0220F331F37
:1014F0004A95E2F740E2949FC0011124822B932B7E
:101500009A68D0CE9C2F8827846F906ACBCE9C2F70
:101510008827806F906AC6CE8C2F8F700E94AA0891
:1015200034E0D695C7953A95E1F7CF709C2F906936
:10153000B9CE89E390E0B6CE82EE90E0B3CE86EEEF
:1015400090E0B0CEBF92CF92DF92EF92FF920F93D6
:101550001F93CF93DF938C01C090E302D090E402FD
:10156000E090E502F090E6028091D7029091D802D7
:10157000A091D902B091DA02C82AD92AEA2AFB2A14
:10158000CFE1D0E0BC2ED701C6010C2E04C0B69529
:10159000A795979587950A94D2F780FD0EC021975D
:1015A00088F7B12C8B2DDF91CF911F910F91FF9078
:1015B000EF90DF90CF90BF900895B8018C2F0E94DC
:1015C000ED08019761F3EECFCF93DF93EC010E941A
:1015D000A20ABE01DF91CF910C94ED080E94E40AAB
:1015E000292F2F7092959F7092509E3078F4E92F9A
:1015F000F0E0EA54F04D0C948B2E803F19F020F46B
:10160000883E20F481E00895843FE1F380E008956E
:10161000883EC0F3813FD1F7F5CF822F869586951E
:1016200086950895CF93DF939C013A9521153F410C
:1016300068F5EC01CC27D170DC01AA27B270AC01AF
:10164000442754709C012227387094FF11C080E118
:10165000CD2B09F480E0AB2B09F08062452B09F01B
:101660008064232B09F08068FB01DF91CF910994FE
:1016700081E0CD2B09F480E0AB2B09F08260452B93
:1016800009F08460232B81F38860EECFDF91CF9146
:101690000895CF9384E090E00E94092FC82F82E242
:1016A00090E00E94092F982F8C2FCF910895CF930F
:1016B000DF9300D00F92CDB7DEB79091390394300D
:1016C00019F589837B836A8382E08093E9008FEF39
:1016D0009091E800815095FD06C095ED9A95F1F73F
:1016E00000008111F5CF8091E80085FF0DC050E02A
:1016F00040E063E070E0CE0101960E94B10380916A
:10170000E8008E778093E8000F900F900F90DF91A4
:10171000CF910895BC0184E00C94570BBC0183E089
:101720000C94570B9C0182E08093E9009FEF80911D
:10173000E800915085FD06C085ED8A95F1F700001F
:101740009111F5CF8091E80085FF0CC050E040E09A
:1017500066E070E0C9010E94B1038091E8008E77D5
:101760008093E8000895CF93DF93EC0181E08093AC
:10177000E9008FEF9091E800815095FD06C095ED4E
:101780009A95F1F700008111F5CF8091E80085FF6F
:1017900014C050E040E068E070E0CE010E94B10368
:1017A0008091E8008E778093E80088E0FE01AFE248
:1017B000B3E001900D928A95E1F7DF91CF91089502
:1017C000609177018091090380FF20C080917601AC
:1017D00043E0849FC0011124825E9D4F539A2BB138
:1017E000277F3BB138605FB7F894FC01649FE00D40
:1017F000F11D1124BF0168177907D1F45FBF8FE590
:1018000094E00197F1F700C00000089580917801FD
:101810009091790123E0829FF0011124E25EFD4F57
:101820008917A0F61182108212828F5F3396F8CF4B
:10183000FC014191CF01E8E03BB9000000C047FF47
:101840002BB9440F000000C000C000C02BB900C07D
:10185000EA9591F7D0CF4F925F926F927F928F92DD
:101860009F92AF92BF92CF92DF92EF92FF920F932F
:101870001F93CF93DF93FC016280448081E08483D7
:10188000E1EBF1E07490E0E3F2E0E491812C75E0AB
:10189000972EF2E0CF2EDD24D394AA24AA94B12C63
:1018A00055245A94E7190E2F10E080917A0188167A
:1018B00090F0DF91CF911F910F91FF90EF90DF900B
:1018C000CF90BF90AF909F908F907F906F905F90E0
:1018D0004F900C94E00BE82CF12C82E0861568F018
:1018E0009E9CF0019F9CF00D1124E45CFD4F8091C3
:1018F0000A03808380910B038183411023C09E9C47
:10190000F0019F9CF00D1124E45CFD4F13821282C4
:1019100020917801C701820F911D9C01220F331F76
:10192000280F391F225E3D4F9E9CF0019F9CF00DB9
:101930001124E45CFD4F4281618180810E94E806B0
:101940008394B3CF9E9CE0019F9CD00D1124C45C76
:10195000DD4F8B818823E9F081508B83859DC00109
:1019600011246C8170E00E94632EFB01FF27EF546D
:10197000FE4F8491E82FE719E59DC0011124B801BD
:101980000E94632E80910C03689FB00111247A831A
:10199000BFCF0E94EC2E20910C03269521582C9D40
:1019A000A0012D9D500D1124452F55278417950713
:1019B0000CF0AECF82E0861588F40E94EC2EB501C3
:1019C0000E94772E88830E94EC2E20910B0326958F
:1019D000622F70E00E94772E280F29839E9CF001D1
:1019E0009F9CF00D1124E45CFD4F128280910C034A
:1019F000893C58F088EC9E9CF0019F9CF00D1124CE
:101A0000E45CFD4F8483838383CF8431A0F784E13A
:101A1000F2CFEF92FF921F93CF93DF93EC0110E090
:101A2000EE24EA94F12C60917A01161770F00E946E
:101A3000E00B9A818C8190FF27C08F5F8C83DF91B0
:101A4000CF911F91FF90EF90089520917801422F40
:101A5000410F5527551FCA019A01220F331F280F26
:101A6000391F225E3D4F70E0C7010E94772E962FEE
:101A70008C8140910C0360910B03199F800D112400
:101A80000E94E8061F5FCFCF8150D8CF8F929F92E0
:101A9000AF92BF92CF92DF92EF92FF920F931F937C
:101AA000CF93DF93EC018A81BB24BA9480FD02C0FE
:101AB000BB24B394A0907A018C81811109C081E08C
:101AC000B81228C08FEF8A0D80931B0281E08C83AF
:101AD000F12CE12C4AE0942EEA14F8F00E94E00B7D
:101AE00080911B0291E0B9125FC0811158C08091B2
:101AF0007A01815080931B021C82DF91CF911F914C
:101B00000F91FF90EF90DF90CF90BF90AF909F909C
:101B10008F90089510921B02D9CF009178010E0D7D
:101B20001F2D111DC801880F991F080F191F025E74
:101B30001D4FF80111821082128234E0C32ED12C85
:101B4000812C80911B02880D8B302CF1692D0E9415
:101B5000552E892F082E000C990B8E159F0591F498
:101B600080910C038C9DA0018D9D500D11245595E5
:101B7000479555954795980160910B0380910A030D
:101B80000E94E8068B0CF1E0CF1AD108D1F68FEF56
:101B9000E81AF80AA1CF87FFDDCF8A0DDBCF81508D
:101BA00080931B02BC82A9CF90E0019660917A01DC
:101BB00070E00E94772E80931B028C839ECFEF9261
:101BC000FF920F931F93CF93DF93EC018C818111D0
:101BD00009C081E08C8310921C0292E090931B015B
:101BE00080931A01809178019091790123E0829F7E
:101BF000F0011124E25EFD4F891768F110E003E067
:101C000060917A01161768F10E94E00B80911A0129
:101C100020911C02280F20931C0290911B01980F09
:101C200090931B01191654F4022E000C330B4091B3
:101C30007A014150550B2417350734F08195809374
:101C40001A01813009F41C82DF91CF911F910F910D
:101C5000FF90EF9008951182108212828F5F339669
:101C6000CBCFE12EF12C70E0C7010E94772E20919E
:101C70007801820F482F50E020911C02022E000CA8
:101C8000330BE216F306BCF020911B01022E000C70
:101C9000330B2E153F057CF0809F90011124225EAE
:101CA0003D4F40910C0360910B0380910A030E9409
:101CB000E8061F5FA5CFFA01EE0FFF1FE40FF51F27
:101CC000E25EFD4F118210821282F3CF8F929F92BB
:101CD000AF92BF92CF92DF92EF92FF920F931F933A
:101CE000CF93DF93EC014C81042F10E09801D801D1
:101CF0000E94A52F9B01AC010E94702F4B015C013B
:101D0000E0E2F0E0E01BF10BA5E5B0E0AC019B01E7
:101D10000E94702F6B017C019F01DF010E94912EB8
:101D20009B01AC010E947B2F9B01AC01280D391D4A
:101D30004A1D5B1DC701B6010E94832FF22E822F20
:101D400090E039E23F1560F143E0249F90011124B7
:101D500035952795122F109500E085E5E82EEF18B0
:101D600080917A01081758F10E94E00B9C8181E074
:101D7000992319F0903219F48FEF80931C01809110
:101D80001C01890F8C83DF91CF911F910F91FF90E0
:101D9000EF90DF90CF90BF90AF909F908F9008957D
:101DA00025E530E0B901681B790B9B01220F331F39
:101DB000260F371F37FFCCCF2F5F3F4FC9CF8E2D58
:101DC00001FD8F2D20917801622F600F7727771FFB
:101DD0009B01220F331F260F371F225E3D4F412FDD
:101DE00060910B030E94E8060F5FBACF0F931F9319
:101DF000CF93DF93EC0110E000E090917A0190170F
:101E0000110609F06CF40E94E00B8C8190E00196C1
:101E1000817099278C83DF91CF911F910F91089545
:101E200020917801A801420F511D9A01220F331F02
:101E3000240F351F225E3D4F4C8160910B03809132
:101E40000A0396959017110651F04CF0442349F07F
:101E500040910C030E94E8060F5F1F4FCECF442332
:101E6000B9F340E0F7CF9091090390FF14C090912F
:101E700078012091790133E0939FF0011124E25E13
:101E8000FD4F921710F00C94E00B81836083428326
:101E90009F5F3396F6CF08950F931F93CF93DF93F1
:101EA00000D00F92CDB7DEB78C0180911D02811159
:101EB0000AC09E012F5F3F4F4FEF6FEF0E94E80671
:101EC0008A8180931D02F8016481613069F08091FC
:101ED0001D0240E0662361F040E0623011F4409161
:101EE0001D0280E060E004C060911D0240E080E0DF
:101EF0000E94330FF801848190E0019663E070E066
:101F00000E94772E84830F900F900F90DF91CF91D6
:101F10001F910F910895CF93DF9300D00F92CDB70B
:101F2000DEB79091090390FF0AC09E012F5F3F4FDB
:101F30000E94E8064B8169818A810E94330F0F90CD
:101F40000F900F90DF91CF910895CF93DF93EC0125
:101F5000EC81F0E0EF54FE4F4491E9E0F3E0628160
:101F600081810E948B0F8C818F5F8C83DF91CF9159
:101F70000895CF93DF93EC01E9E0F3E043816281C0
:101F80008C810E948B0F8C818F5F8C83DF91CF912E
:101F90000895E9E0F3E080818E7F80830E94D2067D
:101FA000EEE0F3E08281816082832FEF80E792E0B0
:101FB000215080409040E1F700C000000C94E00BFD
:101FC00080911A02811118C088EC9091E30097FD6E
:101FD00010C0EFE3FCE93197F1F700C00000815039
:101FE000A1F782E080931A020E94610310923903E4
:101FF00003C081E080931A0281E090911A0291302F
:1020000011F080E008950895CF92DF92EF92FF9251
:102010006B017C010E94D906B701A60188E090E01F
:10202000FF90EF90DF90CF900C942F2FAF92BF9244
:10203000CF92DF92EF92FF920F931F93CF93DF9394
:1020400000D00F92CDB7DEB7182FF62E042FE22E58
:102050009091090390FF3AC0E92FE695AE2FB0E0CA
:10206000A156BE4F8C9180930E039E7F9230E1F576
:102070009E012F5F3F4F812F0E94E8064B816981AF
:102080008A810E94330F80910A03811308C08091D6
:102090000B038F1104C080910C03801729F08091ED
:1020A000100382608093100310930A03F0920B03D5
:1020B00000930C03EE2051F06091090370910A0324
:1020C00080910B0390910C030E9404100F900F90CD
:1020D0000F90DF91CF911F910F91FF90EF90DF90C4
:1020E000CF90BF90AF900895823019F400910C0307
:1020F000CACF863019F410910A03C5CF8930D9F3BD
:10210000893109F6E9518E2F8170D82EE695F0E0DD
:10211000E455FE4FA590B490C12CBB2460917A0188
:10212000C61618F00E94E00BAECF2C2D30E0A29E18
:10213000C001A39E900DB29E900D112470E00E94EC
:10214000632E812FD11013C0860F40917801420F6A
:10215000532F511D9A01220F331F240F351F225E6A
:102160003D4F402F6F2D0E94E806C394D7CF861BAA
:10217000ECCFE9E0F3E0438128E0421B08F440E0C3
:1021800021E0628181810C941610E9E0F3E0438143
:1021900028E0420F08F44FEF21E0628181810C9426
:1021A0001610E9E0F3E0628128E0621B08F460E0C9
:1021B00021E0438181810C941610E9E0F3E0628113
:1021C00028E0620F08F46FEF21E0438181810C94D5
:1021D0001610E9E0F3E0818121E0438162818850BB
:1021E0000C941610E9E0F3E0818121E043816281E3
:1021F000885F0C94161080910D03882319F081508C
:1022000080930D036091090370910A0380910B0381
:1022100090910C030C94041080910D03833018F4FA
:102220008F5F80930D036091090370910A03809181
:102230000B0390910C030C940410E9E0F3E083E0AD
:10224000808311828FEF828383831482AEE0B3E0B8
:1022500012968C911297836012968C936081718193
:10226000828193810C9404106AEE7EEF90E080E00E
:102270000E943B2F60E082E090E00E941D2F60E012
:1022800083E090E00E941D2F1092D7021092D80296
:102290001092D9021092DA0260E084E090E00E948D
:1022A0001D2F60E082E290E00E941D2F60E085E03B
:1022B00090E00E941D2F60E086E090E00E941D2FBC
:1022C0006FEF87E090E00E941D2F40E050E0BA01E0
:1022D00088E090E00E942F2F60E08DE090E00E9467
:1022E0001D2F40E050E0BA0188E190E00E942F2FBE
:1022F00060E087E190E00E941D2F40E050E0BA01CD
:102300008CE190E00E942F2F70E060E080E290E08E
:102310000E943B2F40E050E0BA0188E190E00E942B
:102320002F2F40E050E0BA018FE090E00E942F2F65
:1023300040E050E0BA0183E190E00C942F2FCF935E
:10234000C091E802C2FB992790F9981781F080FBB1
:10235000C2F9C093E8026091E70284E090E00E9435
:102360001D2F6C2F82E290E0CF910C941D2FCF9106
:102370000895682F86E090E00C941D2F1F920F9215
:102380000FB60F9211242F933F934F935F936F9348
:102390007F938F939F93AF93BF93EF93FF9380911E
:1023A000E10082FF09C08091E20082FF05C08091B8
:1023B000E1008B7F8093E1008091DA0080FF24C0F0
:1023C0008091D80080FF20C08091DA008E7F8093BA
:1023D000DA008091D90080FF9BC080E189BD82E155
:1023E00089BD09B400FEFDCF81E08093390380915F
:1023F0002C03811109C00E9461030E942C0480916A
:10240000E20084608093E2008091E10080FF17C0C9
:102410008091E20080FF13C08091E2008E7F809364
:10242000E2008091E20080618093E2008091D80018
:1024300080628093D80019BC85E080933903809135
:10244000E10084FF29C08091E20084FF25C080E183
:1024500089BD82E189BD89B5982F917080FFFBCF3E
:102460008091D8008F7D8093D8008091E1008F7E8D
:102470008093E1008091E2008F7E8093E200809162
:10248000E20081608093E20080913A03882309F49E
:1024900045C084E0809339038091E10083FF27C029
:1024A0008091E20083FF23C08091E100877F8093C9
:1024B000E10082E08093390310923A038091E100B9
:1024C0008E7F8093E1008091E2008E7F8093E20016
:1024D0008091E20080618093E20042E060E080E071
:1024E0000E94FA038091F00088608093F000FF91D1
:1024F000EF91BF91AF919F918F917F916F915F917C
:102500004F913F912F910F900FBE0F901F901895F4
:1025100019BC1092390310922C0376CF8091E300FE
:1025200087FD93E090933903B7CF0F931F930E94D9
:10253000E00F882321F01F910F910C9400050E9459
:1025400000050091DF021091E0022091E10230913C
:10255000E202600F711F821F931F1F910F91089558
:10256000CF92DF92EF92FF926B017C010E94E00F0D
:1025700081110EC00E940005C61AD70AE80AF90A9E
:10258000C092DF02D092E002E092E102F092E20219
:10259000FF90EF90DF90CF90089578941F921FB630
:1025A0001F9211248F939F93AF93BF938091DB026F
:1025B0009091DC02A091DD02B091DE020196A11D96
:1025C000B11D8093DB029093DC02A093DD02B093F7
:1025D000DE02BF91AF919F918F911F901FBE1F9000
:1025E00018952FB7F8948091DB029091DC02A091AE
:1025F000DD02B091DE022FBF08950E94E00F81112D
:102600000C94F1120E949512CB0108956091090378
:10261000669570E04BE050E08FE091E00E94FC2E68
:10262000892B19F481E080930F030E94FD1290938F
:10263000040380930303809110038460809310034C
:1026400008959091090390FF3BC0917081112EC0B5
:10265000926090930903809110038160809310032E
:10266000662351F06091090370910A0380910B0376
:1026700090910C030E94041060910903669570E02C
:102680004BE050E08FE091E00E94FC2E892BA9F0F6
:102690000E94D20681E08093060320E040910C0363
:1026A00060910B0380910A030C9416108B3210F08A
:1026B0009465CFCF880F982BCCCF0E940613EACF1A
:1026C000089560E00C9421130F931F93AB01BC019C
:1026D000CB01AA27BB270097A105B10509F444C087
:1026E000AC01BD0180E1052F162F272F33270115DF
:1026F00011052105310519F0885FB901A8018A018A
:102700009B01F4E03695279517950795FA95D1F733
:10271000011511052105310519F08C5FB901A801DA
:102720008A019B01E2E03695279517950795EA9572
:10273000D1F7011511052105310519F08E5FB90199
:10274000A8017695679557954795452B462B472BBE
:1027500009F08F5F823009F148F4882399F08130C5
:1027600079F11F910F91089580E0BDCF833001F181
:102770008430B9F784E00E94611320E04FEF6FEFDF
:1027800085E512C020E04FEF6FEF8AEA0E94161035
:102790008DE01F910F910C94611384E00E946113EE
:1027A00020E04FEF6FEF80E01F910F910C94161017
:1027B00020E04FEF6FEF8AEA0E94161088E1E9CF20
:1027C00084E00E94611320E04FEF6FEF8AEAECCFC4
:1027D000809109038695815009F48AE261E00C94A6
:1027E00021138091090386958F5F8B3208F081E079
:1027F00061E00C9421139091090390FF07C0969516
:10280000981720F0961710F40C94F11361E00C94D3
:1028100021130E94F1129C0190911E0380911F03CD
:10282000982B21F030931B0320931A0390912003DF
:1028300080912103982B21F03093180320931703E4
:10284000E091F502F091F602309749F082E0809332
:102850001C030480F581E02D8CE193E00994089538
:1028600090E080E00E94400690E080E00E942A060E
:102870001092D4021092D3020E94190586E0ECE176
:10288000F3E0DF011D928A95E9F710921903109287
:102890001603109276020C940914CF92DF92EF92F5
:1028A000FF926B017C010E946413C092E302D092FC
:1028B000E402E092E502F092E602FF90EF90DF90F2
:1028C000CF900C9430140F931F9341E050E060E0E0
:1028D00070E004C0440F551F661F771F8A95D2F71A
:1028E000CB01BA0160957095809590950091E302B7
:1028F0001091E4022091E5023091E60260237123F9
:10290000822393231F910F910C944D149091D20226
:10291000809589238093D202282F277039F4282F9D
:10292000082E000C330B9217130621F49091E80245
:1029300092FF07C08595859585950E946314109236
:10294000D20208950F931F9341E050E060E070E0E1
:1029500004C0440F551F661F771F8A95D2F78091D8
:10296000E3029091E402A091E502B091E6028A01AF
:102970009B01082B192B2A2B3B2BC901B8011F9156
:102980000F910C944D146093D7027093D8028093EA
:10299000D9029093DA020C9430141092D502E0E13F
:1029A000F2E086E0DF011D928A95E9F70C9430147D
:1029B0001F93CF93DF93CDB7DEB7AA970FB6F894E6
:1029C000DEBF0FBECDBF8BE393E02091F100FC0191
:1029D0002193CF01F3E083349F07B9F780913C0343
:1029E000833009F46FC0B8F4813009F446C08230F6
:1029F00009F4B0C08091E80083FF7BC280913B0363
:102A000090913C039A3008F074C2E92FF0E0EC5347
:102A1000F04D0C948B2E8A3009F48BC08B3009F466
:102A20006EC0893039F780913B03813219F780916C
:102A30003F03909140030297E8F68091E800877F7A
:102A40008093E8008091E80082FF37C09091F30006
:102A50008091F200029729F48091F1008B7F813000
:102A600021F48091F10080932E038091E8008B7710
:102A70008093E8000E94DB03BDCF80913B03813A45
:102A800009F0B8CF8091E800877F8093E8008091BB
:102A90003F0390914003892B61F468E08FE293E05B
:102AA00070E00E948D048091E8008B778093E800AD
:102AB000A1CF60E090E080E0F3CF809139038111F5
:102AC000C1CF98CF80913B03813A09F093CF809199
:102AD0003F0390914003892B09F08CCF8091E8004F
:102AE000877F8093E8008091E80080FFFCCF809191
:102AF00097018093F1008091E8008E77B9CF8091A3
:102B00003B03813209F076CF80913F0390914003DF
:102B1000892B09F06FCF8091E800877F8093E800D0
:102B20000E94DB0380913D03809397010E94CD14A6
:102B300061CF80913B03813209F05CCF8091E80046
:102B4000877F8093E8000E94DB0380913E0380939F
:102B50002D0350CF80913B03813A09F04BCF8091F8
:102B6000E800877F8093E8008091E80080FFFCCF39
:102B700080912D03BECF803899F0823809F0B9C119
:102B800080913F038F70873008F0B3C18093E900D4
:102B90008091EB0085FB882780F91092E90006C040
:102BA0008091370390913803911182609091E800F1
:102BB000977F9093E8008093F1001092F10080914C
:102BC000E8008E7792C1882309F480C1823009F031
:102BD00090C180913D03811183C180913F038F702B
:102BE0002FEF280F263008F084C18093E900209150
:102BF000EB0020FF75C1933031F48091EB008062CF
:102C00008093EB006DC19091EB0090619093EB008D
:102C100021E030E001C0220F8A95EAF72093EA0014
:102C20001092EA008091EB008860EACF811161C1C7
:102C300010913D031F778091E3008078812B809372
:102C4000E3008091E800877F8093E8000E94DB0327
:102C50008091E80080FFFCCF8091E3008068809342
:102C6000E30082E0111183E08093390342C1805870
:102C7000823008F03EC180913D0390913E038C3D2F
:102C800023E09207A1F583E08A838AE289834FB724
:102C9000F894DE01139620E03EE051E2E32FF0E0ED
:102CA00050935700E49120FF03C0E295EF703F5F1F
:102CB000EF708E2F90E0EA30C0F0C7968D939D9311
:102CC0002F5F243159F74FBF8091E800877F8093B1
:102CD000E8006AE270E0CE0101960E948D048091C6
:102CE000E8008B778093E80004C1C096E7CF40915D
:102CF0003F0350914003292F33272330310509F436
:102D000044C078F52130310509F46FC08BE390E0C1
:102D1000E1EBF5E02230310509F0EBC02091E8004D
:102D2000277F2093E80020914103309142038217CE
:102D3000930708F49C0140E02115310509F064C0B7
:102D4000411162C08091E80082FDC9CF80913903B2
:102D5000882329F2853019F28091E80083FFF2CFB1
:102D6000BECF21323105A9F12232310509F0C1C0AF
:102D70004115510509F443C04130510509F0B9C06E
:102D80008BE790E0E6EFF4E0C9CF99278130910519
:102D9000C1F0009759F0029709F0ABC0EEEFF5E0F3
:102DA000E4918E2F90E0EEEFF5E007C0ECE2F6E064
:102DB000E4918E2F90E0ECE2F6E0009709F499C0E0
:102DC000ADCFECE1F6E0E4918E2F90E0ECE1F6E09F
:102DD000F4CF4115510571F04130510509F089C01A
:102DE00089E090E0ECEDF5E099CF82E190E0ECEE47
:102DF000F5E094CF89E090E0E3ECF5E08FCF80E45C
:102E000090E0E1E7F5E08ACF80913903882309F467
:102E100066CF853009F463CF8091E80083FD5FCFF2
:102E20008091E80082FD8ECF8091E80080FF84CF02
:102E30009091F3008091F2002115310519F088304E
:102E4000910550F041E0089709F040E08091E800DA
:102E50008E778093E80070CF44914093F1003196D3
:102E6000215031090196E8CF803809F042C08091A5
:102E7000E800877F8093E80080913A038093F10017
:102E80009ECE811136C010913D03123090F5809195
:102E9000E800877F8093E80010933A030E94DB03E9
:102EA000112311F084E005C08091E30087FDFACF83
:102EB00081E08093390342E061EC81E00E94FA03F3
:102EC00042E261EC82E00E94FA0313C080913D036C
:102ED000813079F481E0933009F080E08093380309
:102EE0001092E9008091E800877F8093E8000E94BB
:102EF000DB038091E80083FF0AC08091E800877FB0
:102F00008093E8008091EB0080628093EB00AA96AA
:102F10000FB6F894DEBF0FBECDBFDF91CF911F91EA
:102F200008951F920F920FB60F9211242F933F9383
:102F30004F935F936F937F938F939F93AF93BF93C1
:102F4000CF93DF93EF93FF93D091E900DF708091EF
:102F5000EC00C82FC17080FDC0E81092E90080919C
:102F6000F000877F8093F00078940E94D81410922C
:102F7000E9008091F00088608093F000CD2BCF7045
:102F8000C093E900FF91EF91DF91CF91BF91AF9195
:102F90009F918F917F916F915F914F913F912F9171
:102FA0000F900FBE0F901F901895882309F452C000
:102FB000823871F40E94560681FF4CC089E30E945A
:102FC00053050E94190589E30E9446050C941905D2
:102FD000833859F40E94560680FF3CC083E50E9466
:102FE00053050E94190583E5EFCF843859F40E94F8
:102FF000560682FF2FC087E40E9453050E941905E0
:1030000087E4E2CF9CEF980F913AF0F290E2980FAC
:10301000983050F4877091E001C0990F8A95EAF7D3
:10302000892F0E941205D2CF9BE5980F933020F490
:1030300090E080E00C94400698E5980F973120F4DA
:1030400090E080E00C942A068D3E20F00E947E07DE
:103050000C9409140895CF93DF93EC010E94D517C7
:10306000CE01805E9109089720F062E076E020971B
:1030700011F467E176E0CE01DF91CF910C94120B51
:10308000FC018081813029F4FB01808191810C94C5
:103090002B18823021F4FB0182819381F8CF0895AF
:1030A00080910D0190910E018230910539F00497C5
:1030B00049F010920E0110920D01089582EE0E94C7
:1030C000D517F7CF81E00E946314F3CFCF93C82FB9
:1030D000882309F490C08238C1F40E94560681FD0D
:1030E0008AC089E30E9453050E9419052FEF81EEE3
:1030F00094E0215080409040E1F700C0000089E357
:103100000E944605CF910C9419058338A1F40E94C2
:10311000560680FD70C083E50E9453050E94190584
:103120002FEF81EE94E0215080409040E1F700C005
:10313000000083E5E5CF8438A1F40E94560682FDA5
:103140005AC087E40E9453050E9419052FEF81EEB3
:1031500094E0215080409040E1F700C0000087E4F7
:10316000CFCF8CEF8C0F813A68F4E0E1F2E08191EF
:10317000C817D9F122E0E631F207C9F78C2F0E9477
:103180005305C0CF80E28C0F883068F4C77021E00F
:1031900030E001C0220FCA95EAF78091D502822B58
:1031A0008093D502AFCFEBE5EC0FE33040F4F0E0D5
:1031B000E653FE4F808190E0CF910C944006E8E505
:1031C000EC0FE73150F4F0E0EE0FFF1FE353FE4F3A
:1031D00080819181CF910C942A06CD3E60F08C2F96
:1031E0000E943908CF910C9409148C2F0E94460537
:1031F0000E941905C3CFCF9108951F93CF93DF93FA
:10320000182FD0E0C0E0893311F4C0E5D0E0812F61
:103210000E946618209731F4812FDF91CF911F9182
:103220000C94D5178FE99FE00197F1F700C00000DB
:103230002197F0CF0F931F93CF93DF93C62FD42FF7
:10324000022FFC0182818823A1F0609345030E9434
:10325000F1129093440380934303C77081E001C04F
:10326000880FCA95EAF7DF91CF911F910F910C94C7
:103270001E0680914503681335C0809143039091E9
:1032800044030E94F1048238910560F510E21D0F9D
:10329000CD17B9F080E28C0F883040F4C77081E020
:1032A00001C0880FCA95EAF70E941706183048F443
:1032B00081E09D2F977001C0880F9A95EAF70E94D0
:1032C0001E06802F0E94FD18183098F4D77081E0F8
:1032D00001C0880FDA95EAF7DF91CF911F910F9126
:1032E0000C941706C77081E001C0880FCA95EAF7F1
:1032F000F3CFDF91CF911F910F910895CF93DF937B
:10330000C82FD62F81E00E94C005882399F0C111F3
:103310000AC08EEBD11101C08DEB0E94FD1881E037
:10332000DF91CF910895C130D1F780EFD111F5CF62
:103330008FEEF3CFC11105C089EAD111EECF8AEA31
:10334000ECCFC13061F7E5CFCF93DF93EC01805E26
:103350009109089720F06DE076E0209711F46EE176
:1033600076E0CE010E94120B8C2FDF91CF910C944E
:103370006618FC018081813029F4FB0180819181F4
:103380000C94A419823021F4FB0182819381F8CF3F
:103390000895CF93DF93EC018881823039F4FB01EB
:1033A000828193810E94A41981E08B87DF91CF9164
:1033B0000895FC0180818130B1F48185882339F042
:1033C00081E090E090930E0180930D010895828535
:1033D0008823B1F382E090E090930E0180930D0179
:1033E00082EE0C946618823099F48185811132C086
:1033F0008285811128C083E090E090930E01809334
:103400000D010E94C005811128C083E00C94A21414
:103410008330B1F48185811106C08285882319F03B
:1034200087E090E0CFCF86E090E090930E0180930C
:103430000D0181E00E94C005811112C081E0E6CF3C
:1034400088E090E0BFCF84E090E090930E018093FD
:103450000D01F4CF85E090E0B5CF83E00C946314C8
:1034600081E0FCCF8F929F92AF92BF92CF92DF927A
:10347000EF92FF920F931F93CF93DF9300D000D072
:10348000CDB7DEB74BE7C42E41E0D42EF12CE12CB2
:1034900000E0AA24A394B12CD6018D916D01F8947B
:1034A000E82FE295EF70F0E021A18F70A50102C036
:1034B000440F551F8A95E2F7CA01922F982B91A3CA
:1034C00092A18095892382A3789400C095010E2C47
:1034D00001C0220F0A94EAF7522F2095E9EEF2E09C
:1034E00032E8832E31E0932E10E04191D4013D91DA
:1034F0004D01832F82958F7090E0DC0190968C9126
:1035000090E03F7002C0959587953A95E2F780FD6F
:1035100047C0852F842B481731F0BF0161507109D6
:10352000DB018C9311E0B2E0ED3EFB07F1F6F60112
:10353000319780810E949308E0EAEA95F1F7012B28
:10354000FFEFEF1AFF0A27E0E216F10409F0A4CF1B
:103550001091F202002339F181E0809318020E9459
:10356000F1129093170280931602809116029091A7
:1035700017020E94F1040697D0F0E12FF0E0E85026
:10358000FD4F8091E90280838091EA0281838091DE
:10359000EB0282838091EC0283831092180207C0B1
:1035A000822F8423B8CF809118028111DECF0E9430
:1035B000E00F182F6091F202882309F4A7C0198246
:1035C0001A821B821C82862F90E0BE016F5F7F4FA4
:1035D00088509D4F0E94DA2B811130C080911902D2
:1035E0008F5F80931902863008F446C0E091F102A3
:1035F000F0E0E850FD4FDE011196CE0105961192E4
:103600001D928A179B07D9F7809175018F3F09F0AA
:1036100079C0011101C0012F802F0F900F900F90E2
:103620000F90DF91CF911F910F91FF90EF90DF905E
:10363000CF90BF90AF909F908F90089510921902F5
:10364000A091F102B0E0A850BD4FBE016F5F7F4F67
:103650009E012B5F3F4F10E04D91FB019191BF0107
:10366000491731F0AD0141505109FA019083182FEB
:103670002617370789F7C8CF10E0C6CFC29EF001E2
:10368000C39EF00D1124E35EFE4FA288B388A114FF
:10369000B10419F492E8A92EB12CC29EC001C39EB8
:1036A000900D11249C01235E3E4F7901D90116969D
:1036B0008C9116978823C9F01D968D919C910E943C
:1036C000F104A816B90688F4DC9C50011124F70116
:1036D0008189811105C0C501835E9E4F0E946206EB
:1036E000C5018D5D9E4F0E948306D3942D2D30E041
:1036F00080917501082E000C990B821793070CF02E
:10370000BDCF87CFD12C86E1C82EF0CF70E06850B6
:103710007D4F8091F10290E088509D4F0E94532C84
:1037200078CF1F921FB61F9211248F939F93AF9350
:10373000BF938091F702811113C08091DB029091B9
:10374000DC02A091DD02B091DE024196A11DB11D07
:103750008093DB029093DC02A093DD02B093DE0243
:10376000BF91AF919F918F911F901FBE1F90189591
:10377000FF920F931F93CF93DF93D091F4020D2FFD
:1037800010E00F5E1C4FFC01C081F8018081C81B56
:10379000FC2E80E01F147CF09C2FC7FD90E0C91B1D
:1037A000C11114C08823E9F0DF91CF911F910F91CF
:1037B000FF900C942806FA94F80180818F5F808333
:1037C00061E08D2F0E947E1981E0E4CFCF5FF80188
:1037D00080818150808360E08D2F0E947E1981E07E
:1037E000DFCFDF91CF911F910F91FF900895E0916E
:1037F0001403F0E0EF5EFC4F2081FC01208308956C
:10380000CF92DF92EF92FF92863088F5811130C01F
:103810002091880030918900232B51F090916F0006
:103820009D7F90936F0090916F009E7F90936F00AB
:103830005A98282F30E0AFEFBFEF0E94A52F25E068
:1038400030E040E050E00E94832FC9012C3764E152
:103850003607F8F469E070E00E94632E70938900E7
:1038600060938800FF90EF90DF90CF90089585E0FF
:103870002091880030918900232BD9F690916F0018
:10388000926090936F0090916F00916090936F00A1
:10389000D0CF2A50374D4F4F5F4F942F832F722F29
:1038A000662725EF38E241E050E00E94832F69014E
:1038B0007A01CA01B9010E94392E9B01AC01C701EE
:1038C000B6010E94392E672F782F892F992761150D
:1038D000710521E08207910509F66FEF7FEFBECFFA
:1038E0004F925F926F927F928F929F92AF92BF9210
:1038F000CF92DF92EF92FF920F931F93CF93DF93BC
:1039000000D000D00F92CDB7DEB77C01DC0113965A
:103910008D919C911497892B41F01C911196DC900C
:10392000812F8D218F3F09F074C70F900F900F905A
:103930000F900F90DF91CF911F910F91FF90EF901B
:10394000DF90CF90BF90AF909F908F907F906F90BF
:103950005F904F9008950E94A20A082F682F8981D6
:103960009A810E949405E12FF0E0B7E0DB9EE00D24
:10397000F11D112428E3029FE00DF11D1124EE0F2B
:10398000FF1FEF54FD4F05911491D70112968C91B2
:103990008111D4C0F70182810036FDE51F0709F4CB
:1039A00043C108F0B0C00F353DE5130709F408C165
:1039B0000436FDE51F0709F457C105362DE512074A
:1039C00009F463C181116FC1980137552F3F31054B
:1039D00011F008F011C240917501042E000C550B36
:1039E0004217530714F42093750196E1929F5001FA
:1039F000939FB00C1124D501A35EBE4F6D0150966C
:103A00008C935097F701928116968C911697992373
:103A100009F4E4C11A961C930E9319978F5F1696BA
:103A20008C930E94F112D6011E969C938E931D9743
:103A30008091D60217968C9317978091D40290911B
:103A4000D502892B18968C931897ED91FC911197BC
:103A5000309739F054966D917C91C5018D5D9E4FE4
:103A600009951093740200937302D70112968C91FA
:103A7000882309F4E1C6109245030230BCE51B0718
:103A800008F4CFC20631ECE51E0730F0C8018B5FA9
:103A90009C45099708F0C5C20E94490B9093E80223
:103AA0008093E7020031FCE51F0709F489C208F0A2
:103AB0001AC208303CE5130709F474C208F0E9C1E2
:103AC00004309CE5190709F465C208F0CFC1023043
:103AD000BCE51B0709F458C28091E70282600330FD
:103AE0001C4509F454C26091E7021091E80284E099
:103AF00090E00E941D2F612F82E290E00E941D2F16
:103B00000E94CD146EC001369DE5190709F49CC0D2
:103B10000236ADE51A0709F04BCF882309F461C0DE
:103B200081E00E94631484E00E94631482E00E949A
:103B3000631480E00E94631483E051C0809175019A
:103B40008F3F09F427CF5DE1C52E51E0D52EB12C72
:103B5000A12C9924939480917501082E000C990B47
:103B60008A159B050CF416CFF6018681882309F18E
:103B7000818592858017910739F480917302909125
:103B8000740280179107A9F0D6011F969C921F9787
:103B90001C961C930E931B9751968C91811103C018
:103BA000C6010E946206C60106960E948306109214
:103BB000D402BFEFAB1ABB0AE6E1CE0ED11CCBCFCD
:103BC000882379F081E00E94631483E00E946314EB
:103BD00082E00E94631484E00E94631480E00E94EB
:103BE000A2148091D202877009F49FCED701129659
:103BF0008C91882309F499CE82E00F900F900F905A
:103C00000F900F90DF91CF911F910F91FF90EF9048
:103C1000DF90CF90BF90AF909F908F907F906F90EC
:103C20005F904F900C9486148823D9F281E00E9413
:103C3000631483E00E94631484E00E94631480E0B4
:103C40000E94631482E0CBCF882359F281E00E9466
:103C5000631483E00E94631482E00E94631480E096
:103C60000E94631484E0BBCF882309F4BACF80910B
:103C7000090380FF03C00E94C90FB3CF8160809306
:103C8000090386950E946113ACCF882309F4A9CF5C
:103C90008091090386958F5F8B3208F081E060E0A8
:103CA0000E9421139ECF0E3B3CE5130709F44BC045
:103CB00088F40C3BACE51A0771F10D3BBCE51B0722
:103CC00009F082CE8091720287708E7F809372029B
:103CD00080E032C0003CECE51E0709F464C008F443
:103CE0004EC0013C2CE5120709F06ECE9091720295
:103CF000892F8695869586958F5F8F719770863010
:103D000008F069C0880F880F880F892B8093720292
:103D10008091720220C080917202877088628093C5
:103D20007202887F91E009F490E08091720290FB2A
:103D300080F98093720285E00E94001C80917202DB
:103D40000E94B9114ECF80917202982F987F79F01E
:103D5000885080937202887F91E009F490E080910E
:103D6000720290FB80F9809372020E94B9118091D7
:103D700072028695869586950E94001C32CF8091AE
:103D80007202982F969596959695953040F49F5F80
:103D9000990F990F990F8770892B809372028091E8
:103DA00072028160E0CF8091720280FF07C08E7F37
:103DB000809372020E94B91180E0DECF80FD11CFA6
:103DC000816080937202813019F489E080937202DD
:103DD00080917202CACF909372029ACF882309F41D
:103DE00044CEFD018189882309F43FCEC5018D5D54
:103DF0009E4F0E94830639CE043FFCE51F0739F130
:103E000088F4093D3CE51307F1F00A3D8CE51807FD
:103E100051F1083D9CE5190709F027CE26E241EE55
:103E200061EE0DC0063FACE51A07C9F0A0F027E22D
:103E300045EE66EE073FECE51E0709F016CEC7011A
:103E40000E941A19CECE27E245EE65EEF8CF26E2A3
:103E500041EE60EEF4CF27E245EE64EEF0CF26E2CD
:103E600041EE62EEECCF28E241E0EFCF8091E70235
:103E700080610630FCE51F0709F489C08091E702E4
:103E8000886007301C4508F482C08091E702806298
:103E90007EC08091E7028D7F0C303CE5130709F46A
:103EA00076C070F48091E7028C600A309CE51907B7
:103EB00009F46DC008F47AC08091E7028E7F67C074
:103EC0008091E702877F0E30BCE51B0709F45FC0D5
:103ED0008091E7028B7F0F301C4508F458C0809119
:103EE000E7028F7E54C00C3FFCE51F0709F456C063
:103EF00030F503313CE5130709F46AC078F4013169
:103F00009CE5190709F460C002311C4509F0EBCDAE
:103F10000E94CD148091E7028F7739C00531BCE54E
:103F20001B0709F45DC008F471C08091E80281604C
:103F30000B3F1C4509F0D7CD8093E802D4CD011585
:103F40002DE5120709F448C070F40E3F8CE5180700
:103F500099F18091E8028E7F0F3F1C4568F38091B4
:103F6000E8028360E9CF0230ADE51A0709F457C0D3
:103F700008F442C060E003301D4509F0B4CD8EE086
:103F800090E00E941D2FAFCD8091E7028160809369
:103F9000E702A9CD8091E7028460F9CF8091E80221
:103FA0008260CACF8091E7028064F1CF0E94CD1475
:103FB0008091E7028068EBCF8091E8028D7FBCCFD3
:103FC0008091E7028F7DE3CF8091E7028F7BDFCF87
:103FD0008091E702837FDBCF8091E8028C7FACCFBA
:103FE0008091E70282FB992790F921E0922790FBCC
:103FF00082F990FB83F9CBCF8091E802982F9095BE
:1040000091708E7F892B90FB81F996CF0E94CD1401
:104010009091E702892F97FB87F98058B8CF61E02C
:10402000AECF0631FCE51F0709F041C18091D502F2
:104030008A7A91E009F490E090937502811102C0B0
:1040400089E201C085E30E9453050E941905C9CD8C
:1040500085E30E944605F9CF8091D50282720D3C1E
:104060002CE5120709F409C108F087C0073C9CE55C
:10407000190709F4EEC008F060C0043CBCE51B075A
:1040800009F4DDC008F049C0033C1C4509F4ADC08B
:10409000F701828100811181882309F44BC1C80195
:1040A0000E94A20AD82E682FC8010E949405B80168
:1040B0008D2D0E94ED088C01882ED7011296DC9080
:1040C00012971596AC90A2944FE0A4228091D20250
:1040D0008770A1F0CD2CDD2091F0812F807F80347E
:1040E00021F080E2800F883048F082E00E94861440
:1040F0008091D2028770CC24C3948111C12CB12E3F
:10410000B2943FE0B322BBE0BB1508F44AC1EB2DEB
:10411000F0E0E253F04D0C948B2E053C2CE5120799
:1041200009F492C049EE50E162EF70E1063C1C4593
:1041300009F0AECF0E94CD0654CD0A3C9CE519078C
:1041400009F491C068F4083CBCE51B0709F486C07B
:104150004DED50E161ED70E1093C1C4559F398CFFC
:104160000B3CFCE51F0709F483C04BEF50E16CE00A
:1041700071E10C3C1C45F1F28BCF023D3CE513078D
:1041800009F489C0A8F40F3C9CE5190709F47DC027
:1041900008F478C0003DBCE51B0709F479C06EE067
:1041A00089E0013D1C4509F073CF0E94FB1319CD36
:1041B000053DFCE51F0709F474C060F4033D3CE5D0
:1041C000130709F46BC0043D1C4509F061CF61E0A1
:1041D00088E166CD063D9CE5190709F465C06AE2F1
:1041E00085E20E351D4509F353CF8091090380FF09
:1041F00020C08E7F809309036091090370910A03A8
:1042000080910B0390910C030E9404100E94D2062F
:1042100080911003816080931003BFEFE0E7F2E02C
:10422000B150E040F040E1F700C000000E94E00B18
:10423000D8CC81608093090361E0869531CD48EE4A
:1042400053E161EF73E176CF41EF53E168EE73E143
:1042500071CF42EF50E169EE70E16CCF41ED50E17A
:104260006DED70E167CF49EB50E165EC70E162CF35
:1042700045EC50E169EB70E15DCF4CE051E16BEF53
:1042800070E158CF61E081E00BCD65E082E08DCF39
:1042900068E086E08ACF64E18FE087CF67E185E15F
:1042A00084CF62E289E181CF61E083E2F9CC0B3512
:1042B0002DE5120709F43AC058F401158CE51807EA
:1042C000C9F00F3D1C4509F0E3CE0E94341189CCA2
:1042D0000C35ADE51A0761F10D351D4509F0D8CE55
:1042E0008091E80282FB882780F991E089270E946B
:1042F0009F11CECE0E94CD14EFEFF4E32CE0E150FD
:10430000F0402040E1F700C0000087E797E7909376
:1043100001088093000888E19AE00FB6F894A89508
:10432000809360000FBE90936000FFCF81E0DFCFED
:1043300080E0DDCFC8010E946C05D82EB8CEE12FF9
:10434000EF70AE2E107F19F0A29420EFA222DD2094
:10435000C9F0AA2069F080E2800F883010F0811047
:104360000BC08091D502A82AA092D5020E941905FF
:10437000802F0E94661815C08091D402A82AA092AE
:10438000D402F4CF802F0E94D517AA2051F0005EEE
:10439000083010F0811043C08A2D0E9412050E943F
:1043A0001905AB2DA850BB0B149710F40E945606AC
:1043B000CC20A9F08091D20280FD11C0F7011282B9
:1043C0008595859585950E94A214C7010E94701C51
:1043D0008091D2028595859585950E94631485E02C
:1043E000F701DE01119601900D928A95E1F789811E
:1043F0009A810E946C059A81E981F0E027E0929F02
:10440000E00DF11D112438E3839FE00DF11D11240F
:10441000EE0FFF1FEF54FD4F8591949186CAA09433
:104420008091D402A822A092D402B9CFF12FFF70BC
:104430009F2E107F103219F0929490EF99228820CD
:1044400071F021E0821681F1DD20D9F1AA2091F1ED
:10445000F701858180FF8CCF8F7085832BC0DD2095
:10446000B1F09091D602892D892BA11003C00E9432
:104470001E0697CF31E0A312FACF2091E80222FD69
:1044800090CF981709F48DCF8093D6028ACFA110D0
:1044900006C00E940C05892D0E94170682CF81E07C
:1044A000A81609F47ECFF5CFDD2031F095E09A15FE
:1044B00008F477CF892DDBCFA4E0AA1508F471CFDB
:1044C000EACFAA2041F3F9E38F1209C02FEF37EEAC
:1044D00083E0215030408040E1F700C00000802F91
:1044E0000E94D5175ECF812F86958695837061F0E7
:1044F000813009F056CFC8019370D11002C090E00E
:1045000080E00E942A064DCFC8019370D11002C0EE
:1045100090E080E00E94400644CF802FDD2029F00B
:104520000E9439080E9409143CCF0E947E07FACFEE
:10453000812F837009F066C0D11033CF802F829510
:1045400086958770880F880F602F6F70462E512CCC
:10455000712C612C082E04C0440C551C661C771C61
:104560000A94D2F740E050E0BA0104FF0FC04FE0D8
:1045700050E060E070E004C0440F551F661F771FD5
:104580008A95D2F74095509560957095812F8695C4
:1045900086958370823019F1D8F40091D70210917A
:1045A000D8022091D9023091DA02813069F0442991
:1045B000552966297729CB01BA016023712382230B
:1045C00093230E94C314EDCE402A512A622A732AF3
:1045D000CB01BA016429752986299729F2CF44298C
:1045E0005529662977290091D7021091D802209188
:1045F000D9023091DA02CB01BA01602771278227F4
:104600009327DFCF8695DD2011F0812F81708823DD
:1046100009F4C7CE802F829586958770880F880F02
:10462000602F6F70462E512C712C612C082E04C007
:10463000440C551C661C771C0A94D2F740E050E0ED
:10464000BA0104FF0FC04FE050E060E070E004C02A
:10465000440F551F661F771F8A95D2F740955095D6
:1046600060957095812F869586958370823019F1BB
:10467000D8F40091E3021091E4022091E502309118
:10468000E602813069F04429552966297729CB0152
:10469000BA0160237123822393230E944D1481CE9B
:1046A000402A512A622A732ACB01BA01642975294A
:1046B00086299729F2CF442955296629772900911F
:1046C000E3021091E4022091E5023091E602CB0171
:1046D000BA016027712782279327DFCF1F70DD2063
:1046E00029F0812F0E94A214802FC1CE802F0E941A
:1046F0001706812F0E94631454CE802F92EF8916E3
:1047000009F454C0981578F0A0EF8A1639F1B1EF8A
:104710008B1609F443C0DD2009F46BC0A11028CE2C
:10472000812F8F7140C0E3EF8E1609F444C0F4EF7F
:104730008F12F1CFDD2009F451C01F71812F0E942B
:10474000A2148091E80282FD07C0A8E01A9FC00170
:10475000112483608093D202812F25C0DD20C9F00F
:1047600024E02A1508F41DCE1F7161E070E080E09E
:1047700090E004C0660F771F881F991F1A95D2F723
:104780000091E3021091E4022091E5023091E602EB
:10479000A0CF35E03A1508F404CEE6CF812F8F7113
:1047A000DD2009F4A7CF0E94A214FBCD812F8F71C9
:1047B000DD20C9F39FCF60E070E0CB01DD2009F47C
:1047C0006CCF1F7161E070E080E090E004C0660F84
:1047D000771F881F991F1A95D2F75FCF81E00E943B
:1047E0008614B1E0BA1508F0DCCD82E00E94861490
:1047F000D8CDAA2059F0893309F071CEEFEFF7EE4A
:1048000023E0E150F0402040E1F767CE812F8F7127
:1048100071CF85E0F701DE01119601900D928A9526
:10482000E1F7D70112962C9189819A81211193C8C1
:104830000E946C05082F97C80631BCE51B0709F0DC
:104840000BCC80917502811103CC89E202CC1F93BD
:10485000CF93DF9380917C02807FA9F480917902CD
:10486000882389F08091AE02D0917D026091770219
:1048700070917802A0917A02B0917B02C62FC72373
:1048800016E0D81304C0DF91CF911F91089590E0F6
:10489000109711F0CF3F19F401968770F2CF189F4F
:1048A0009001199F300D1124F901E258FD4F41810B
:1048B0004713F2CF40814613EFCF42814111ECCF35
:1048C000438154814A1B5B0B4238510528F7809184
:1048D0007C028F70806180937C02F901ED57FD4F5F
:1048E00080818F708061808387E792E00E94701CD6
:1048F000DF91CF911F910C94F8058F929F92AF9208
:10490000BF92CF92DF92EF92FF920F931F93CF93BC
:10491000DF93CDB7DEB761970FB6F894DEBF0FBE59
:10492000CDBF8C0185E0F801DE011D9601900D924E
:104930008A95E1F7D801EC901196DC9011971296C8
:10494000CC90129787E7882E82E0982E40917A02C9
:1049500050917B024115510509F443C190917702B2
:1049600020917802892F82238F3F09F43AC1139650
:10497000AD90BC901497F0907902F501E41BF50B13
:10498000FF2009F4FFC080917C02382F307FE2388D
:10499000F10508F0C8C0311185C0FC2C2D1124C0D0
:1049A0009E1122C0C11020C08F70806180937C0254
:1049B000C4010E94701C80917C02D80115968C93D2
:1049C0008F2D61960FB6F894DEBF0FBECDBFDF917D
:1049D000CF911F910F91FF90EF90DF90CF90BF90FC
:1049E000AF909F908F900895A114B10429F08E2D5F
:1049F0008D218F3F09F016C180E080FF14C04C2D3F
:104A00006D2D8E2D0E94D805882369F087E792E0EE
:104A10000E94701C86E0E7E7F2E0DF011D928A95B4
:104A2000E9F7F12CCDCFAB2829F08E2D8D218F3FCA
:104A300009F0F5C080E0B82FB170AB2E80FF29C01F
:104A40004C2D6D2D8E2D0E94D805B82E811121C0C0
:104A5000ED86DE868D859E850E94E40A292F2295AB
:104A60002F70223050F0243078F49F7051F0F8010C
:104A70009581907F31F4FB2CA3CF9F7011F0882398
:104A8000D1F3805E8830B8F3C8010E94701CBA2C44
:104A9000F2CFCC2009F494CF80917C028160809386
:104AA0007C02BFCF2D1112C09E1110C0C1100EC0CC
:104AB00015968C93C8010E94701C86E0F801A7E748
:104AC000B2E001900D928A95E1F77ACFED86DE860D
:104AD0008D859E850E94EE0A882309F1CC20F9F08D
:104AE00080917C02803270F02091770230917802C0
:104AF00038872F831986BB86AA868C87CE010796B6
:104B00000E94701C86E0F801A7E7B2E001900D92C8
:104B10008A95E1F70E942724FF24F39451CFC8011E
:104B20000E94701CF9CF332309F470CF2D110FC0F0
:104B30009E110DC0C1100BC0F8018583C8010E94F1
:104B4000701C86E0D4011D928A95E9F739CFED8675
:104B5000DE868D859E850E94EE0A882301F3CC2097
:104B6000F1F280917C02803268F2209177023091DC
:104B700078023A8329831B82BD82AC828E83CE0168
:104B80000196BECFE238F105E0F6FC2CCC2039F2DC
:104B90002D1116C09E1114C080917C0280FD8DCF16
:104BA000982F907F09F489CFF8018583903F09F40D
:104BB00081CF982F907F905F8F70892B85837ACFDC
:104BC000ED86DE868D859E850E94EE0A81119ACF44
:104BD00080917C02816080937C02C8010E94701CDD
:104BE000EFCECC2009F49BCFED86DE868D859E85A9
:104BF0000E94EE0AF82E882309F491CF86E0F8018E
:104C0000A7E7B2E001900D928A95E1F780917702D3
:104C1000909178020E94E40A0E942724D1CE81E07C
:104C20008C2509CF81E08C25E8CE1F93CF93DF93AD
:104C3000CDB7DEB767970FB6F894DEBF0FBECDBF16
:104C4000342F4B8B252F5C8B6D8B7E8B8F8B8E89BE
:104C50009F8961111092D4021A8A198A3D872E8782
:104C60006F87998B888B86E0FE013D96DE01179653
:104C700001900D928A95E1F7CE0107960E947D245E
:104C8000882389F016E08091AE0290917D0289130D
:104C900049C067960FB6F894DEBF0FBECDBFDF9157
:104CA000CF911F91089586E0FE013796DE0111969F
:104CB00001900D928A95E1F78A859B85892B11F3E6
:104CC0008F81988589238F3FE9F220917D0230E022
:104CD000C9010196877099274091AE0248171906BD
:104CE00071F40E94CD1410927D021092AE0286E003
:104CF000E7E7F2E0DF011D928A95E9F7C3CF96E07E
:104D0000929FD001939FB00D1124A258BD4FFE0178
:104D1000319601900D929A95E1F780937D020E9461
:104D2000F805B0CF819FC001112482589D4F0E9489
:104D30007D24882309F4ADCF8091AE0290E00196E6
:104D4000877099278093AE029ECF90E080E00E940A
:104D5000172F8A3E9E4F51F00E94341180917202AB
:104D600084708962809372020E94B91186E090E09B
:104D70000E94092F80937202803320F0877088622E
:104D80008093720290917202892F817090FF04C00B
:104D9000892F8695869586950C94001CCDB7DEB735
:104DA00064970FB6F894DEBF0FBECDBF84B7877F80
:104DB00084BF0FB6F894A8958091600088618093B5
:104DC0006000109260000FBE80E890E00FB6F8948B
:104DD00080936100909361000FBE85B7806885BFA6
:104DE00085B7806885BF8CEE94E090930D02809328
:104DF0000C020E9461030E942C048091E2008460F6
:104E00008093E2007894809139038823A1F0109177
:104E1000E9001F709091EC00892F817090FD80E86F
:104E2000182B1092E9008091E80083FD0E94D814AD
:104E30001F701093E90082E084BD93E095BD9AEF66
:104E400097BD80936E001092DF021092E0021092E4
:104E5000E1021092E20252985A9889B182FB8827A7
:104E600080F980938A0180918A01882309F439C3EB
:104E70001092760185E0809377010E94E00F811106
:104E80000E947D2C80918A0181112AC01D821E8280
:104E90001F82188682E3898383E38A8381E38B837D
:104EA00087EF8C83FE013196A2E8B1E0CE0109962E
:104EB00021912D938E179F07D9F727E0E8E9F1E0BC
:104EC000DE01199601900D922A95E1F7FC01ABE7FE
:104ED000B1E0CE01409621912D938E179F07D9F70F
:104EE00080918A0194E0811190E09093F20284E035
:104EF000891B8093F1020BE711E092E8E92E91E023
:104F0000F92EF80181918F010E949308E016F106B5
:104F1000C1F702E811E086E8E82E81E0F82EF801FA
:104F200081918F010E949308E016F106C1F7E9EE26
:104F3000F2E081EF92E0A8EFB2E011921D928E179D
:104F40009F07D9F790E080E00E94172F8A3E9E4F7E
:104F500011F00E94341182E090E00E94092F8093AA
:104F600023030E94490B9093E8028093E70283E0B9
:104F700090E00E94092F682F70E090E080E00E948E
:104F8000C3146091E3027091E4028091E502909174
:104F9000E6020E946413529A5A9882E0809380003D
:104FA00089E1809381008FEF9FEF9093870080933A
:104FB00086000E94A5260E94E00F811102C00E9477
:104FC0007F2C0E94A5268091F30281113AC090E0C7
:104FD00080E00E94172F8A3E9E4F21F00E943411DC
:104FE0000E941D1188E090E00E94112F6093090338
:104FF00070930A0380930B0390930C03809110032A
:105000008360809310036E7F71F40E941D1188E00D
:1050100090E00E94112F6093090370930A0380931C
:105020000B0390930C030E94D9060E94D206809134
:10503000090380FF03C086950E94611381E080937D
:10504000F30280918A01811106C086EF80938C0162
:1050500085EF80938B0120918C01A22FA295AF70D8
:10506000B0E091963C9191972F7081E090E0BC0167
:10507000022E01C0660F0A94EAF7462F409543239B
:1050800091964C93919792963C919297362B92964B
:105090003C93929740918B01E42FE295EF70F0E002
:1050A00031A14F70042E01C0880F0A94EAF7982F9F
:1050B0009095932391A392A1892B82A390968C9192
:1050C00090E002C0959587952A95E2F7817020A11E
:1050D00030E002C0359527954A95E2F792E020FF2F
:1050E00090E0892B8093150390918A0181E09827A5
:1050F00090931403891B8093F4028DE891E09093C0
:10510000F6028093F502A8E1EA2EF12CB0E4CB2E52
:1051100088EF92E018E0D12ED80E8091390300E19B
:1051200012E1853009F416C20E94321A81110E94E0
:105130000005E4E2F3E0A8EFB2E010E000E0802E2A
:10514000AD9081918A1509F416C28A25912CBB2451
:10515000B394982F9B2109F409C20E94E00F882381
:1051600099F099868A86AB2081E009F480E08B87EC
:105170000E94F1128160782F9D878C8749855A851E
:105180006B858D850E941526F801EC5DFC4F8081B2
:10519000B826B08280910F03882309F464C08091FF
:1051A0000E03E0910903E695E81BE09305038230C6
:1051B00009F0F8C1F0E0EE50FB4FE4910E2F10E043
:1051C000F5EAAF2EFFE0BF2E80910603882361F041
:1051D000109206030E94FD12909304038093030330
:1051E00010920803109207030E94FD12E09103033E
:1051F000F09104039C012E1B3F0B2F3F3F4798F576
:10520000209102032223B1F01092020320910003A7
:1052100030910103821B930B8F3F9F4758F4205D11
:105220003A48309301032093000380911003886073
:10523000809310038090070390900803E00FF11F04
:10524000F0930403E093030383E093E0F5010995F1
:105250008091070390910803892B29F4892819F07C
:1052600081E08093020380911503E82FEE0FEE0F8B
:1052700090918C01A92FA295AF70B0E090962C91DF
:1052800030E09F7002C0359527959A95E2F721701E
:10529000332790918B01A92FA295AF70B0E0909623
:1052A0004C9150E09F7002C0559547959A95E2F752
:1052B000CA018170992740FF02C082E090E0822BF2
:1052C0008E2B80931503109114038F70E82FF0E05C
:1052D000E550FE4F808190911303890F8093130353
:1052E00020E0843064F0E12FF0E0EF5EFC4F80813D
:1052F0008F5F808361E0812F0E947E1921E0809181
:1053000013038D3F64F4E12FF0E0EF5EFC4F8081EA
:105310008150808360E0812F0E947E1921E080917E
:105320001303082E000C990B64E070E00E94772EA6
:105330008093130321110E94280686E0ECE1F3E03C
:10534000DE01119601900D928A95E1F7B0901E034F
:10535000A0901F03109120030091210310921E03BF
:1053600010921F0310922003109221038B2D8A2983
:1053700009F448C080911A0390911B030E94F10424
:105380009C0190911903992309F4A3C1233331059A
:10539000C8F19F3F19F09F5F90931903BB2059F00C
:1053A0000E9419089FEF1B140CF491E0899F802D37
:1053B000112480931E03AA2059F00E9419089FEF20
:1053C0001A140CF491E0899F802D112480931F03FF
:1053D00030911E033323B1F020911F03222391F05B
:1053E00045EB3403C0011124992309F447C190937C
:1053F0001E0345EB240390011124332309F442C119
:1054000030931F03812F802B09F448C0809117032C
:10541000909118030E94F1049C0190911603992326
:1054200009F452C125363105C8F19F3F19F09F5F3D
:1054300090931603112359F00E94F7079FEF11165E
:105440000CF491E0899F802D112480932003002388
:1054500059F00E94F7079FEF10160CF491E0899F16
:10546000802D112480932103309120033323B1F048
:1054700020912103222391F045EB3403C001112434
:10548000992309F403C19093200345EB2403900171
:105490001124332309F4FEC03093210380911E03AD
:1054A00090911F03892B90912003892B90912103C8
:1054B000892B11F00E94091486E0FE013196ACE1BF
:1054C000B3E001900D928A95E1F70E945606909103
:1054D0002203891709F421CE0E94560680932203E5
:1054E0001CCE85E080937601C6CC80913903843050
:1054F00021F180E00E94001C1092F7020FB6F89490
:10550000A895E09260000FBEC092600083B7817FD3
:10551000846083BF83B7816083BF7894889583B7A5
:105520008E7F83BF0FB6F894A89580916000886144
:1055300080936000109260000FBE80913803882332
:1055400049F00E94321AE8EFF2E081918111A6C081
:10555000DE12FBCF80913903853009F4C6CF0E945B
:10556000CD140E94A5260E945606DECD9394BB0C56
:1055700047E09412EECD0F5F1F4F0830110509F080
:10558000DECD8FEF888B898B1A8A0E94F1128160A1
:10559000782F9C8B8B8B488959896A898C890E94CA
:1055A0001526F8CD863059F4F0E0E151FB4FE49137
:1055B0000E2F10E0E9EBAE2EEFE0BE2E05CE8930C7
:1055C00061F4E695F0E0E451FB4FE4910E2F10E01A
:1055D00079E0A72E7DE0B72EF7CD8F3061F4E69508
:1055E000F0E0E751FB4FE4910E2F10E066E4A62EA9
:1055F0006DE0B62EE9CD853159F4F0E0EA51FB4F6C
:10560000E4910E2F10E05FEDA52E5DE0B52EDCCD10
:1056100008E210E026E6A22E2EE0B22E883109F430
:10562000D3CD833249F4E4EEF4E0059114914CE4D7
:10563000A42E4FE0B42EC8CD04EF11E096EFA92EB2
:105640009EE0B92E843209F4BFCD853281F48E2FCD
:1056500063E00E94492EE92FF0E0EF51FB4FE49107
:105660000E2F10E03BE2A32E3CE0B32EADCD00EDBB
:1056700017E08BEEA82E84E0B82EA6CD81E08093B3
:105680001E03B7CE81E080931F03BCCE81E08093E0
:105690002003FBCE81E08093210300CF09BD19BD1B
:1056A00009B400FEFDCF8091D8008F7D8093D80093
:1056B0008091E00082608093E0008091E00081FDB5
:1056C000FCCF0E94CD1446CF2D32314008F0AFCE32
:1056D000E5CE2D32314008F05ECE94CE2F932FB719
:1056E0002F938F939F9380918800909189008130B0
:1056F000914008F05A9A9F918F912F912FBF2F912F
:1057000018955A9818958091720286958695869577
:10571000089580917202817008951F93CF93DF9353
:10572000EC01162F8F8180FF0BC0888180FF23C082
:105730009091090391609093090386950E9421132B
:105740008F8181FF06C0212F4B816A8189810E9450
:1057500016108F8182FF05C08E81882379F00E9408
:1057600006138F8183FF03C081E080930603DF91DE
:10577000CF911F9108950E94C90FE2CF0E94D206D7
:10578000F0CF25E0E9E0F3E0DC0101900D922A95ED
:10579000E1F720910E0330910F0340911003FC01BB
:1057A00025833683478308951092100308958091CE
:1057B000100308950F931F93CF93DF93CDB7DEB7F8
:1057C00029970FB6F894DEBF0FBECDBFAB0104E63C
:1057D00010E024E030E064E082E30E94882D0E9423
:1057E000892B882309F45DC00E94832B89879091BF
:1057F0005003981781F004E610E021E030E0AE019C
:10580000475F5F4F68E082E30E945B2D97FD03C016
:105810008985809350030E94D72B882391F0CE0175
:1058200001960E94C12B04E610E028E030E0AE01B2
:105830004F5F5F4F69E082E30E945B2D97FF0E94FC
:10584000D42B04E610E021E030E049E553E061E1CB
:1058500082E30E94882D89E593E00E94B81B0E9494
:1058600095126E5F7F4F8F4F9F4F609348037093E9
:10587000490380934A0390934B0324E030E048E4CB
:1058800053E060E082E30E945B2D81E029960FB631
:10589000F894DEBF0FBECDBFDF91CF911F910F9166
:1058A000089580E0A3CFCF93DF93EB01609148038D
:1058B0007091490380914A0390914B030E94B0126A
:1058C00084E0FE01ACE4B3E001900D928A95E1F72B
:1058D000809150030E94001C80915803882339F066
:1058E00060E081E593E00E948D2B1092580389E5DA
:1058F00093E0DF91CF910C94F71B0C94822C82E300
:105900000C94D72D1092B90088E48093B8000895C4
:10591000EF92FF920F931F93CF93DF93182FEB011A
:105920001092BC0084EA8093BC000E94F1127C01BA
:105930008091BC0087FF27C08091B900887F8830A4
:1059400029F08091B900887F8031D9F51093BB0090
:1059500084E88093BC000E94F1128C018091BC000D
:1059600087FF24C02091B900287F90E080E0283193
:10597000B1F081E090E0203411F490E080E0919566
:10598000819591090CC0CF3FDC0791F20E94F11282
:105990008E199F098C179D0758F28EEF9FEFDF91AC
:1059A000CF911F910F91FF90EF900895CF3FDC07AB
:1059B000A9F20E94F112801B910B8C179D0770F2C7
:1059C000ECCF8FEF9FEFEBCF0F931F93CF93DF932E
:1059D000EB018093BB0084E88093BC000E94F1122D
:1059E0008C018091BC0087FF11C02091B900287FF5
:1059F00081E090E0283211F490E080E0919581956B
:105A00009109DF91CF911F910F910895CF3FDC074E
:105A100041F30E94F112801B910B8C179D0708F334
:105A20008EEF9FEFEECF0F931F93CF93DF93EC0199
:105A300084EC8093BC000E94F1128C018091BC0028
:105A400087FF08C08091BB0090E0DF91CF911F914C
:105A50000F910895CF3FDC0789F30E94F112801B5C
:105A6000910B8C179D0750F38EEF9FEFEECF0F93A6
:105A70001F93CF93DF93EC0184E88093BC000E94D6
:105A8000F1128C018091BC0087FF08C08091BB009F
:105A900090E0DF91CF911F910F910895CF3FDC07E8
:105AA00089F30E94F112801B910B8C179D0750F314
:105AB0008EEF9FEFEECFCF92DF92EF92FF920F9398
:105AC0001F93CF93DF93C62F6A017901B8010E941B
:105AD000882C97FD0CC0B8018C2F0E94E42CE601A5
