:100000000C9459010C94A0010C94A0010C94A00133
:100010000C94A0010C94A0010C94A0010C94A001DC
:100020000C94A0010C94A0010C94C70B0C94830BAE
:100030000C9419190C94A0010C94A0010C94A0012B
:100040000C94A0010C94A0010C94A0010C94A001AC
:100050000C94A0010C949D0C0C94A0010C94A00194
:100060000C94A0010C94A0010C94A0010C94A0018C
:100070000C94A0010C94A0010C94A0010C94A0017C
:100080000C94A0010C94A0010C94A0010C94A0016C
:100090000C94A0010C94A0010C94A0010C94A0015C
:1000A0000C94A0010C94A0010C94A00100AF2900B5
:1000B0001E001F0020002100220023002400250034
:1000C000260027002D002E0000002A004A002B00E9
:1000D00014001A000800150017001C0018000C007E
:1000E000120013002F00300031004D00AE00390027
:1000F00004001600070009000A000B000D000E00A6
:100100000F0033003400000028004B00A8003562C7
:1001100000001D001B000600190005001100100062
:10012000360037003800E50052004E000000E000C5
:10013000E300E2000000000000002C0000000000CE
:100140000000E6000151500051004F00000029005E
:100150003A003B003C003D003E003F0040004100B3
:10016000420043002D002E0000004C004A002B00EE
:1001700014001A000800150017001C0018000C00DD
:10018000120013002F00300031004D00AE00390086
:1001900004001600070009000A000B000D000E0005
:1001A0000F0033003400000028004B00A800356227
:1001B00000001D001B0006001900050011001000C2
:1001C000360037003800E50052004E000000E00025
:1001D000E300E2000000000000002C00000000002E
:1001E0000000E600E400500051004F00000000DA7B
:1001F0000281FFD9F1DB20A4A62EAF00A0C000A190
:10020000C800AED580A81FD300408D14200000AEDA
:1002100005010906A101050719E029E715002501D7
:10022000950875018102950175088101050719007E
:1002300029FF150026FF009506750881000508199D
:10024000012905950575019102950175039101C07C
:1002500009022200010100A0FA09040000010301C3
:100260000100092111010001224000070581030856
:10027000000A120110010000000886805656010095
:10028000010200010C036C00610067006F006D004B
:1002900000001A034D0041004E0055004600410089
:1002A0004300540055005200450052000000040372
:1002B000090411241FBECFEFDAE0DEBFCDBF04B6C4
:1002C00003FE27C080911E0490911F04A09120047A
:1002D000B09121048730904BA740B04BD1F41092DD
:1002E0001E0410921F04109220041092210414BEC8
:1002F00084B7877F84BF0FB6F894A895809160007B
:10030000886180936000109260000FBEE0E0F8E327
:10031000099511E0A0E0B1E0EEEDF8E302C0059030
:100320000D92A432B107D9F724E0A4E2B1E001C0F4
:100330001D92AE31B207E1F70E940E160C94491CD3
:100340000C940000982F9093E900891779F0509150
:10035000EC002091ED004091F00021FD0AC09F5F6C
:10036000973089F78093E90081E00895562F40E0A7
:1003700022E03091EB003E7F3093EB003091ED00B6
:100380003D7F3093ED003091EB0031603093EB0016
:100390005093EC002093ED004093F0002091EE008C
:1003A00027FDDDCF80E00895E8EDF0E080818E7FCD
:1003B00080831092E2001092DA001092E100A0EE29
:1003C000B0E08C9181608C9380818F77808319BCA1
:1003D000A7EDB0E08C918E7F8C9380818F7E80839F
:1003E000109204040895CF92DF92EF92FF920F9340
:1003F0001F93CF93DF93C8EDD0E088818F7E8883F1
:10040000E7EDF0E080818160808384E082BF81E05D
:100410008093040488818E7F888302EE10E0F801C7
:1004200010821092DA0081EEC82ED12CF6011082D3
:1004300088818F77888388818068888388818F7D91
:10044000888319BC109211041092120410921004A7
:1004500010920F0490EEE92EF12CF70180818B7F32
:10046000808388818160888360E080E00E94A201AF
:10047000F60180818E7F8083F80180818160808396
:10048000808188608083F70180818E7F808388816E
:1004900080618883DF91CF911F910F91FF90EF9042
:1004A000DF90CF9008952091E4003091E50095E62B
:1004B000A9012091EC00822F817020FF06C080915D
:1004C000E80080FF06C080E008952091E80022FD4A
:1004D0001AC080911104882389F0853089F08091B9
:1004E000EB0085FD0FC02091E4003091E50042173C
:1004F0005307F9F29150E1F684E0089582E00895FF
:1005000083E0089581E00895EF92FF920F931F9387
:10051000CF937C010E945302C82F811119C008E0BB
:1005200010E08091E80085FD0BC08091E8008E7797
:100530008093E8000E945302882399F3C82F08C0D3
:10054000F70181917F018093F1000150110949F772
:100550008C2FCF911F910F91FF90EF900895809174
:10056000130487FF13C08091E80082FF06C08091CA
:10057000E8008B778093E80004C08091110481111A
:10058000F2CF0895809111048823D9F38091E80077
:1005900080FFF8CF8091E8008E77ECCFFC0180914E
:1005A000190490911A0486179707A0F06115710538
:1005B00029F49091E8009E779093E80090E061150F
:1005C000710551F4911108C08091E80082FF34C098
:1005D00080E00895BC01F2CF809111048823C1F11D
:1005E0008530C1F18091E80083FD30C08091E80042
:1005F00082FDEACF8091E80080FFE1CF8091F30097
:100600002091F200382F6115710519F0283031055D
:1006100058F091E02830310509F090E02091E80091
:100620002E772093E800CBCF81918093F100615029
:1006300071092F5F3F4FE7CF80911104882341F06C
:10064000853041F08091E80083FFBECF81E00895BE
:1006500082E0089583E0089580E008950895089564
:1006600008958091060408959C014FB7F8948091F5
:10067000AC019091AD01A091AE01B091AF014FBF1F
:10068000821B930B08952FB7F8946091AC01709181
:10069000AD018091AE019091AF012FBF089580917F
:1006A000A70181111092A70108958091A601909150
:1006B000A501892B9091A401892B8093260190910B
:1006C000A701992391F0892B8093260120E088E2ED
:1006D00091E0FC013191CF0131112F5FF1E08E32B9
:1006E0009F07B9F721110E944F03E091C001F091DB
:1006F000C101309731F00280F381E02D86E291E074
:1007000009940895E8E2F1E09191891303C0DF01B3
:1007100011971C9291E0EE32F907B1F70895A8E223
:10072000B1E0EFEF90E02D91821751F0EF3F19F417
:10073000211101C0E92F9F5F9630A9F7EF3F09F41F
:1007400008950E2E000CFF0BEA5DFE4F8283089584
:100750009295907F890F982F9770869586958695AC
:1007600025E0829FF0011124EF58FE4F50E040E059
:1007700080E0219130E0092E02C0369527950A9439
:10078000E2F721703327042E01C0220F0A94EAF702
:10079000822B4F5F5F4F4530510559F70895929571
:1007A000907F890F982F977041E001C0440F9A9570
:1007B000EAF786958695869595E0899FF001112444
:1007C000EF58FE4F30E020E070E05191DF011197CB
:1007D000CB01022E02C0969587950A94E2F78170AC
:1007E00081958527842385278C932F5F3F4F253064
:1007F000310559F708956093B0017093B10180936A
:10080000B2019093B3011092A5011092A4010C942F
:1008100055030F931F9341E050E060E070E004C087
:10082000440F551F661F771F8A95D2F7CB01BA0177
:1008300060957095809590950091B0011091B101EF
:100840002091B2013091B30160237123822393235D
:100850001F910F910C94FB039091A3018095892324
:100860008093A301282F277039F4282F082E000C1D
:10087000330B9217130621F49091B50192FF07C034
:100880008595859585950E9409041092A301089588
:100890000F931F9341E050E060E070E004C0440F0C
:1008A000551F661F771F8A95D2F78091B0019091EE
:1008B000B101A091B201B091B3018A019B01082B53
:1008C000192B2A2B3B2BC901B8011F910F910C94B6
:1008D000FB036093A8017093A9018093AA019093F0
:1008E000AB011092A5011092A4010C9455038091C4
:1008F000700190913F01981301C008958F5F877038
:10090000FACF882341F080959091A60189238093A6
:10091000A6010C9455030895882339F09091A601FF
:10092000982B9093A6010C9455030895E091C00173
:10093000F091C101309721F00190F081E02D0994F0
:1009400080E00895882309F474C0823871F40E940D
:10095000960481FF6EC089E30E948F030E945503B5
:1009600089E30E9482030C945503833859F40E9452
:10097000960480FF5EC083E50E948F030E945503AA
:1009800083E5EFCF843859F40E94960482FF51C06A
:1009900087E40E948F030E94550387E4E2CF9CEF17
:1009A000980F913AF0F290E2980F983088F487709F
:1009B00021E030E0A90102C0440F551F8A95E2F7FB
:1009C000CA0180959091A60189238093A601CBCF7F
:1009D0009BE5980F9330B0F48091350190913601EA
:1009E000892B39F11092360110923501E091C00146
:1009F000F091C1013097E9F00680F781E02D90E099
:100A000080E00994885A8731A0F480913701909151
:100A10003801892B71F01092380110923701E09162
:100A2000C001F091C101309721F00084F185E02DE3
:100A3000E6CF08959091B40192FF06C0282F287147
:100A40002830F9F4877F846093FF06C0282F28712F
:100A50002831F1F4877E84612091B50120FF06C022
:100A6000382F38713830D9F4877F816021FF06C074
:100A7000282F28712831D1F4877E816194FD877EEB
:100A80000895282F24712430F9F68B7F8860DCCFFD
:100A9000282F2471243101F78B7E8861DDCF382F18
:100AA0003171313019F78E7F8860E0CF282F2171A6
:100AB000213121F78E7E8861E1CFCF93DF9325E04E
:100AC000829FC0011124FC01E70FF11DA4E0EE0F8D
:100AD000FF1FAA95E1F7E60FF11DEE0FFF1FE2558C
:100AE000FF4FC591D491CE01C238D10591F1C0F527
:100AF000C133D10509F494C028F5C932D10509F4F0
:100B000088C0CA32D10509F492C0C11533E5D307B4
:100B100008F0ADC0C11522E5D20708F00FC1C1151C
:100B200030E2D30708F090C0C11521E0D20730F5BC
:100B3000C53AD10508F082C0C430D105F8F4219738
:100B4000E9F040C0C533D10509F45CC0C933D10513
:100B5000E1F62091B401237089F080EE90E00EC0A0
:100B6000C33ED10591F168F4C03ED105F9F0C23E13
:100B7000D10559F62091B40122FD20C0DF91CF911B
:100B80000895C63ED10561F1C73ED10581F1C43E4D
:100B9000D10509F0BACF2091B50121FFEFCF8091A7
:100BA000B40184FD0FC087EE90E0E8CF2091B4013E
:100BB00020FDF3C03091B50130FFE0CF83EE90E02F
:100BC00024FFDCCF90E080E0D9CF2091B40122FD5A
:100BD000E7C03091B50130FDC0CF24FFCFCFF2CFB9
:100BE0002091B40123FFCACF24FDECCFDCCF2091AC
:100BF000B40123FDD8C03091B50131FFEECF84EEB2
:100C000090E0BCCF2091B40125FFB8CF89E290E0FD
:100C1000B5CF2091B40125FFB1CF85E390E0AECFF1
:100C20002091B40126FFAACF8AE290E0A7CF2091BD
:100C3000B40126FFA3CF81E390E0A0CFC05ED1092D
:100C4000289708F49BCFBECFC11531E5D30708F034
:100C500070C0C11580E5D80708F04FC0C11520E469
:100C6000D20708F4AFCFCE019F70906A87CFC1152D
:100C700036E5D307F0F4C11585E5D80708F076C04E
:100C8000C11524E5D20708F06CC09E0123703327FC
:100C900081E090E002C0880F991F2A95E2F7C6957F
:100CA000C69530E2C39FE00111248C2B9D2B9A68DE
:100CB00065CFC1153AE5D30778F4C11589E5D807A2
:100CC00008F05EC0C11528E5D20708F47BCF9C2F41
:100CD0008827806F906A52CFCE019056811590423E
:100CE00008F070CF8D2F8F710E941A0590E0982F19
:100CF000882788279F718C2B41C09E01E4E03695A0
:100D00002795EA95E1F723708C2F86958695837059
:100D100030E2839FC0011124922BC37021E030E0A8
:100D200002C0220F331FCA95E2F7822B932B9C68D7
:100D300025CF9C2F8827816F906A20CF9E0123703A
:100D4000332781E090E002C0880F991F2A95E2F7CF
:100D5000C695C69520E2C29FE00111248C2B9D2BE5
:100D6000E6CF9C2F8827846F906A08CF8C2F0E9433
:100D70001A0590E0982F882788279F719062FECEF1
:100D80008C2F8F700E941A0534E0D695C7953A953E
:100D9000E1F7CF709C2F9069F1CE89E390E0EECE21
:100DA00082EE90E0EBCE86EE90E0E8CEBF92CF925E
:100DB000DF92EF92FF920F931F93CF93DF938C01FB
:100DC000C090B001D090B101E090B201F090B301B9
:100DD0008091A8019091A901A091AA01B091AB01C5
:100DE000C82AD92AEA2AFB2ACFE1D0E0BC2ED701B3
:100DF000C6010C2E04C0B695A795979587950A94C1
:100E0000D2F780FD0EC0219788F7B12C8B2DDF9192
:100E1000CF911F910F91FF90EF90DF90CF90BF90F7
:100E20000895B8018C2F0E945D05019761F3EECF04
:100E3000CF93DF93EC010E94D606BE01DF91CF91E4
:100E40000C945D050E941807292F2F7092959F70B2
:100E500092509E3078F4E92FF0E0E55BF34E0C946D
:100E6000481A803F19F020F4883E20F481E008956C
:100E7000843FE1F380E00895883EC0F3813FD1F7DD
:100E8000F5CF822F8695869586950895CF93DF932B
:100E9000EC0181E08093E9008FEF9091E8008150B0
:100EA00095FD06C095ED9A95F1F700008111F5CFFB
:100EB0008091E80085FF14C050E040E068E070E0F9
:100EC000CE010E9484028091E8008E778093E80032
:100ED00088E0FE01A7E0B4E001900D928A95E1F769
:100EE000DF91CF910895CF93C82F882309F46EC066
:100EF0008238C1F40E94960481FD68C089E30E9493
:100F00008F030E9455032FEF81EE94E02150804023
:100F10009040E1F700C0000089E30E948203CF9176
:100F20000C9455038338A1F40E94960480FD4EC0B2
:100F300083E50E948F030E9455032FEF81EE94E01A
:100F4000215080409040E1F700C0000083E5E5CFEC
:100F50008438A1F40E94960482FD38C087E40E9480
:100F60008F030E9455032FEF81EE94E021508040C3
:100F70009040E1F700C0000087E4CFCF8CEF8C0FEA
:100F8000813A68F4E8E2F1E08191C817C9F021E004
:100F9000EE32F207C9F78C2F0E948F03C0CF80E298
:100FA0008C0F883098F4C77021E030E001C0220F28
:100FB000CA95EAF78091A601822B8093A601AFCF54
:100FC0008C2F0E9482030E945503E5CFCF91089594
:100FD000CF92DF92EF92FF920F931F93CF93DF9305
:100FE0006C017B0164E670E088E70E944619EC0121
:100FF00097FD12C010E000E0F601E00FF11F8491B0
:1010000064E670E00E94A219EC01892B29F40F5FBD
:101010001F4F0E151F0581F70E94251ACE01DF9183
:10102000CF911F910F91FF90EF90DF90CF90089597
:10103000CF93C091F6038091F7038823D1F00E94EB
:101040004303605A75418F4F9F4F6093F203709333
:10105000F3038093F4039093F503C11108C062E099
:1010600070E08CEA90E00E94E807892B29F0C0919B
:10107000F6038C2FCF91089581E08093F603F7CF8C
:101080001092A601E8E2F1E086E0DF011D928A9568
:10109000E9F71092A5011092A4010C9455031F9337
:1010A000CF93DF93CDB7DEB7AA970FB6F894DEBF24
:1010B0000FBECDBF83E194E02091F100FC012193AC
:1010C000CF01F4E08B319F07B9F78091140483308E
:1010D00009F46FC0B8F4813009F446C0823009F4D5
:1010E000B0C08091E80083FF38C1809113049091D3
:1010F00014049A3008F031C1E92FF0E0E75AF34EBA
:101100000C94481A8A3009F48BC08B3009F46EC0F5
:10111000893039F780911304813219F780911704CF
:1011200090911804892BE9F68091E800877F8093DD
:10113000E8008091E80082FF37C09091F300809131
:10114000F200029729F48091F1008B7F813021F425
:101150008091F100809306048091E8008B77809362
:10116000E8000E94AF02BDCF80911304813A09F0DC
:10117000B8CF8091E800877F8093E80080911704C2
:1011800090911804892B61F468E087E094E070E0A6
:101190000E94CE028091E8008B778093E800A1CF77
:1011A00060E090E080E0F3CF809111048111C1CF25
:1011B00098CF80911304813A09F093CF809117045E
:1011C00090911804892B09F08CCF8091E800877FDB
:1011D0008093E8008091E80080FFFCCF80911101AE
:1011E0008093F1008091E8008E77B9CF809113044D
:1011F000813209F076CF8091170490911804892BE1
:1012000009F06FCF8091E800877F8093E8000E940B
:10121000AF0280911504809311010E94400861CFB4
:1012200080911304813209F05CCF8091E800877FC0
:101230008093E8000E94AF02809116048093050419
:1012400050CF80911304813A09F04BCF8091E80090
:10125000877F8093E8008091E80080FFFCCF809139
:101260000504BECF803899F0823809F076C08091AD
:1012700017048F70873008F070C08093E900809168
:10128000EB0085FB882780F91092E90006C0809169
:101290000F0490911004911182609091E800977F63
:1012A0009093E8008093F1001092F1008091E800A3
:1012B0008E7791C1882309F47EC1823009F04DC038
:1012C00080911504811182C1809117048F702FEFD6
:1012D000280F263008F041C08093E9002091EB00F0
:1012E00020FF74C1933031F48091EB0080628093D1
:1012F000EB006CC19091EB0090619093EB0021E0CA
:1013000030E001C0220F8A95EAF72093EA0010929C
:10131000EA008091EB008860EACF81111EC0109135
:1013200015041F778091E3008078812B8093E30080
:101330008091E800877F8093E8000E94AF0280914F
:10134000E80080FFFCCF8091E30080688093E30099
:1013500082E0111183E0809311048091E80083FF03
:101360000AC08091E800877F8093E8008091EB00BD
:1013700080628093EB00AA960FB6F894DEBF0FBE92
:10138000CDBFDF91CF911F9108958058823028F70B
:1013900080911504909116048C3D23E09207A1F5ED
:1013A00083E08A838AE289834FB7F894DE0113963B
:1013B00020E03EE051E2E32FF0E050935700E4914B
:1013C00020FF03C0E295EF703F5FEF708E2F90E03B
:1013D000EA30C0F0C7968D939D932F5F243159F763
:1013E0004FBF8091E800877F8093E8006AE270E059
:1013F000CE0101960E94CE028091E8008B77809307
:10140000E800ABCFC096E7CF409117045091180485
:10141000292F33272330310509F43FC078F52130D7
:10142000310509F466C082E290E0E0E5F2E02230A6
:10143000310509F092CF2091E800277F2093E80042
:101440002091190430911A048217930708F49C0123
:1014500040E02115310509F051C041114FC0809184
:10146000E80082FDC9CF80911104882329F28530DC
:1014700019F28091E80083FFF2CFBECF213231050F
:1014800081F12232310509F068CF452B09F065CF93
:1014900080E490E0E0E1F2E0CECF99278130910541
:1014A000C1F0009759F0029709F057CFE4E8F2E055
:1014B000E4918E2F90E0E4E8F2E007C0EEEAF2E07B
:1014C000E4918E2F90E0EEEAF2E0009709F0B3CFBE
:1014D00044CFE2E9F2E0E4918E2F90E0E2E9F2E01D
:1014E000F4CF452B09F039CF89E090E0E2E6F2E055
:1014F000A2CF82E190E0E2E7F2E09DCF809111047B
:10150000882309F479CF853009F476CF8091E800FB
:1015100083FD72CF8091E80082FDA1CF8091E80029
:1015200080FF97CF9091F3008091F2002115310553
:1015300019F08830910550F041E0089709F040E03B
:101540008091E8008E778093E80083CF44914093A8
:10155000F1003196215031090196E8CF803809F029
:10156000FCCE8091E800877F8093E8008091120490
:101570008093F1009BCE8111F0CE109115041230B2
:1015800008F0EBCE8091E800877F8093E80010930D
:1015900012040E94AF02112311F084E005C0809173
:1015A000E30087FDFACF81E08093110461EC81E0D4
:1015B0000E94A201D2CE80911504813009F0CDCED7
:1015C00081E0933009F080E0809310041092E900EC
:1015D0008091E800877F8093E8000E94AF02BDCE33
:1015E000CF9384E090E00E94701AC82F82E290E0CE
:1015F0000E94701A982F8C2FCF9108956AEE7EEF7B
:1016000090E080E00E949C1A60E082E090E00E94FE
:101610007E1A60E083E090E00E947E1A1092A8019A
:101620001092A9011092AA011092AB0160E084E02F
:1016300090E00E947E1A60E082E290E00E947E1AB2
:1016400060E085E090E00E947E1A60E086E090E035
:101650000E947E1A6FEF87E090E00E947E1A40E0C1
:1016600050E0BA0188E090E00E94901A60E08DE0BE
:1016700090E00E947E1A40E050E0BA0188E190E0DC
:101680000E94901A60E087E190E00E947E1A40E09C
:1016900050E0BA018CE190E00E94901A70E060E0A6
:1016A00080E290E00E949C1A40E050E0BA0188E19C
:1016B00090E00E94901A40E050E0BA018FE090E084
:1016C0000E94901A40E050E0BA0183E190E00C944F
:1016D000901ACF93C091B501C2FB992790F9981742
:1016E00081F080FBC2F9C093B5016091B40184E040
:1016F00090E00E947E1A6C2F82E290E0CF910C94D1
:101700007E1ACF9108951F920F920FB60F92112457
:101710002F933F934F935F936F937F938F939F93F9
:10172000AF93BF93CF93DF93EF93FF93D091E900F3
:10173000DF708091EC00C82FC17080FDC0E810926E
:10174000E9008091F000877F8093F00078940E94F8
:101750004F081092E9008091F00088608093F000BB
:10176000CD2BCF70C093E900FF91EF91DF91CF9126
:10177000BF91AF919F918F917F916F915F914F91A9
:101780003F912F910F900FBE0F901F9018951F92B1
:101790000F920FB60F9211242F933F934F935F93A5
:1017A0006F937F938F939F93AF93BF93EF93FF9329
:1017B0008091E10082FF09C08091E20082FF05C0B4
:1017C0008091E1008B7F8093E1008091DA0080FFBF
:1017D00024C08091D80080FF20C08091DA008E7FE5
:1017E0008093DA008091D90080FF9AC080E189BDA2
:1017F00082E189BD09B400FEFDCF81E08093110430
:1018000080910404811109C00E94D4010E94F30157
:101810008091E20084608093E2008091E10080FF8B
:1018200017C08091E20080FF13C08091E2008E7F9C
:101830008093E2008091E20080618093E2008091D9
:10184000D80080628093D80019BC85E08093110491
:101850008091E10084FF29C08091E20084FF25C0CF
:1018600080E189BD82E189BD89B5982F917080FFA3
:10187000FBCF8091D8008F7D8093D8008091E100CC
:101880008F7E8093E1008091E2008F7E8093E20062
:101890008091E20081608093E200809112048823AD
:1018A00009F444C084E0809311048091E10083FF37
:1018B00026C08091E20083FF22C08091E100877FF3
:1018C0008093E10082E080931104109212048091D1
:1018D000E1008E7F8093E1008091E2008E7F809313
:1018E000E2008091E20080618093E20060E080E0AD
:1018F0000E94A2018091F00088608093F000FF9127
:10190000EF91BF91AF919F918F917F916F915F9177
:101910004F913F912F910F900FBE0F901F901895F0
:1019200019BC109211041092040477CF8091E30047
:1019300087FD93E090931104B8CF78941F921FB65F
:101940001F9211248F939F93AF93BF938091AC010B
:101950009091AD01A091AE01B091AF010196A11D92
:10196000B11D8093AC019093AD01A093AE01B093F3
:10197000AF01BF91AF919F918F911F901FBE1F909C
:1019800018952FB7F8948091AC019091AD01A0917A
:10199000AE01B091AF012FBF08950F931F93CF9366
:1019A000DF93C62FD42F022FFC0182818823A1F060
:1019B00060931D040E94C10C90931C0480931B042F
:1019C000C77081E001C0880FCA95EAF7DF91CF9117
:1019D0001F910F910C948C0480911D04681338C0E2
:1019E00080911B0490911C040E943403883C910553
:1019F00078F510E21D0FCD17B9F080E28C0F88301A
:101A000040F4C77081E001C0880FCA95EAF70E94D0
:101A10008104183048F481E09D2F977001C0880F31
:101A20009A95EAF70E948C04802F0E947307802FFA
:101A30000E94A204183098F4D77081E001C0880F8A
:101A4000DA95EAF7DF91CF911F910F910C94810401
:101A5000C77081E001C0880FCA95EAF7F3CFDF9124
:101A6000CF911F910F9108958F929F92AF92BF9245
:101A7000CF92DF92EF92FF920F931F93CF93DF935A
:101A800000D000D00F92CDB7DEB77C01FC0183817E
:101A90009481892B39F010810181812F80238F3F20
:101AA00009F0ADC40F900F900F900F900F90DF9141
:101AB000CF911F910F91FF90EF90DF90CF90BF904B
:101AC000AF909F908F9008950E94D606D82E682FD1
:101AD00089819A810E94CF03E02FF0E025E0D29E19
:101AE000E00DF11D1124A4E0EE0FFF1FAA95E1F710
:101AF000E10FF11DEE0FFF1FE255FF4F059114910D
:101B0000F7018281882309F45DC0C80190568115D0
:101B1000F0E29F0750F0905E811520E1920728F0D7
:101B2000915C81159F4108F085C0C80199279C01EF
:101B3000245031092432310520F08B970E9708F09C
:101B400041C080913201909133010097A9F10E9428
:101B50003403D09031019C0150E040E060E67AEE21
:101B600080E090E00E94291ACA01B90125E030E026
:101B700040E050E00E94291ACA01B9016D197109AB
:101B8000810991090E94501B27EA39E747E45DE388
:101B90000E94DC1B4B015C016D2D70E090E080E049
:101BA0000E94501B9B01AC01C501B4010E94B31AF5
:101BB0000E941F1B609331010E94C10C909333015E
:101BC00080933201043F8CE5180709F497C0D8F5DB
:101BD000093DECE51E0709F48DC00A3DFCE51F0731
:101BE00009F498C0083D2CE51207D9F526E241EE2C
:101BF00061EEC7010E94CD0C8091A301877009F4AA
:101C000051CFF7018281882309F44CCF82E00F90F5
:101C10000F900F900F900F90DF91CF911F910F9128
:101C2000FF90EF90DF90CF90BF90AF909F908F90FC
:101C30000C942C0490E080E00F3F110511F008F0A7
:101C400076CFC80174CF063F3CE5130709F45EC0A8
:101C500008F458C027E245EE66EE073F9CE51907F9
:101C600041F2F7018281882309F4DAC310921D043E
:101C70000230FCE51F0708F42EC106312CE51207DF
:101C800030F0C8018B5F9C45099708F024C10E9481
:101C9000F00A9093B5018093B40100313CE513073D
:101CA00009F4E8C008F076C008309CE5190709F48B
:101CB000D7C008F045C00430FCE51F0709F4C8C0D0
:101CC00060F502303CE5130709F4B8C003301C4549
:101CD00009F4BAC06091B4011091B50184E090E0BC
:101CE0000E947E1A612F82E290E00E947E1A0E947A
:101CF000400882CF27E245EE65EE7BCF26E241EE3B
:101D000060EE77CF27E245EE64EE73CF26E241EE38
:101D100062EE6FCF28E241E0EFCF8091B4018061A5
:101D200006309CE5190709F48CC08091B4018860E5
:101D300007301C4508F485C08091B401806281C0E1
:101D40008091B4018D7F0C30FCE51F0709F479C048
:101D500070F48091B4018C600A303CE5130709F4FB
:101D600070C008F481C08091B4018E7F6AC08091F8
:101D7000B401877F0E309CE5190709F462C0809199
:101D8000B4018B7F0F301C4508F45BC08091B40117
:101D90008F7E57C00C3FFCE51F0709F45DC030F58E
:101DA00003313CE5130709F46DC078F401319CE57B
:101DB000190709F463C002311C4509F08BCF0E945A
:101DC00040088091B4018F773CC00531FCE51F07C6
:101DD00009F460C008F474C08091B50181600B3FC4
:101DE0001C4509F077CF8093B50174CF01158DE5BF
:101DF000180709F44BC088F48091B5018D7F0E3F20
:101E0000ECE51E0781F38091B5018E7F0F3F1C45E5
:101E100050F38091B5018360E6CF02302DE51207C3
:101E200009F457C008F442C060E003301D4509F0D2
:101E300051CF8EE090E00E947E1A4CCF8091B40189
:101E400081608093B40146CF8091B4018260F9CF64
:101E50008091B4018460F5CF8091B5018260C3CFD9
:101E60008091B4018064EDCF0E9440088091B4015C
:101E70008068E7CF8091B4018F7DE3CF8091B4017A
:101E80008F7BDFCF8091B401837FDBCF8091B50161
:101E90008C7FA9CF8091B40182FB992790F921E032
:101EA000922790FB82F990FB83F9CBCF8091B5010B
:101EB000982F909591708E7F892B90FB81F993CF0D
:101EC0000E9440089091B401892F97FB87F98058B0
:101ED000B8CF61E0AECF06319CE5190709F0ABC27F
:101EE0008091A6018A7A91E009F490E09093340100
:101EF000811106C089E20E948F030E9455037CCEA7
:101F000085E3F9CF85E394C20E944008EFEFF4E344
:101F10002CE0E150F0402040E1F700C0000081E0FB
:101F20008093E00080E28093D8001092C9008FE196
:101F30009EE40197F1F700C0000087E090EBDC0120
:101F400080931E0490931F04A0932004B093210457
:101F500088E19CE00FB6F894A895809360000FBECE
:101F600090936000FFCF81E086C280E084C2C80108
:101F70000E94A803D82E90C2212F2F70B22E107F5E
:101F800019F0B29450EFB522AA20C9F0BB2069F035
:101F900080E2800F883010F081100BC08091A60184
:101FA000B82AB092A6010E945503802F0E947307A1
:101FB00018C08091A501B82AB092A501F4CF802F56
:101FC0000E94A204BB2069F0B094005E083010F0BB
:101FD000811048C08091A601B822B092A6010E944B
:101FE0005503EC2DE850FF0B349710F40E94960433
:101FF000DD20A9F08091A30180FD11C0F7011282BC
:102000008595859585950E944804C7010E94340DE9
:102010008091A3018595859585950E94090485E0A9
:10202000F701DE01119601900D928A95E1F7898101
:102030009A810E94A803EA81F5E08F9FC0011124D4
:102040008E0F911D24E0880F991F2A95E1F7E981F1
:10205000E80FF92FF11DEE0FFF1FE255FF4F85919D
:10206000949120CD8091A501B822B092A501B7CF5F
:10207000312F3F70932E107F103219F0929440EF61
:102080009422882071F081E0881681F1AA20D9F18C
:10209000BB2091F1F701858180FF87CF8F70858309
:1020A0002BC0AA20B1F09091A701892D892BB110E6
:1020B00003C00E948C0495CFE1E0BE12FACF2091BC
:1020C000B50122FD8ECF981709F48BCF8093A7011D
:1020D00088CFB11006C00E944F03892D0E94810451
:1020E00080CFF1E0BF1609F47CCFF5CFAA2031F004
:1020F00025E02B1508F475CF892DDBCF34E03B1597
:1021000008F46FCFEACFBB2041F3F9E38F1270C11F
:102110002FEF37EE83E0215030408040E1F700C0E0
:10212000000066C1812F837009F066C0A11059CFED
:10213000802F829586958770880F880F602F6F702B
:10214000862E912CB12CA12C082E04C0880C991C31
:10215000AA1CBB1C0A94D2F740E050E0BA0104FF6D
:102160000FC04FE050E060E070E004C0440F551F26
:10217000661F771F8A95D2F74095509560957095A8
:10218000812F869586958370823019F1D8F400915D
:10219000A8011091A9012091AA013091AB018130D1
:1021A00069F0482959296A297B29CB01BA016023A2
:1021B0007123822393230E94690413CF802A912ADA
:1021C000A22AB32ACB01BA01682979298A299B2935
:1021D000F2CF482959296A297B290091A801109139
:1021E000A9012091AA013091AB01CB01BA0160276E
:1021F000712782279327DFCF8695AA2011F0812FA0
:102200008170882309F4EDCE802F829586958770A2
:10221000880F880F602F6F70862E912CB12CA12C07
:10222000082E04C0880C991CAA1CBB1C0A94D2F767
:1022300040E050E0BA0104FF0FC04FE050E060E022
:1022400070E004C0440F551F661F771F8A95D2F7B0
:102250004095509560957095812F869586958370F1
:10226000823019F1D8F40091B0011091B1012091A0
:10227000B2013091B301813069F0482959296A29A6
:102280007B29CB01BA0160237123822393230E940F
:10229000FB03A7CE802A912AA22AB32ACB01BA0136
:1022A000682979298A299B29F2CF482959296A293D
:1022B0007B290091B0011091B1012091B2013091C0
:1022C000B301CB01BA016027712782279327DFCFA3
:1022D0001F70AA2029F0812F0E944804802FE9CE88
:1022E000802F0E948104812F0E9409047ACE802FC2
:1022F00092EF891609F454C0981578F0E0EF8E1625
:1023000039F1F1EF8F1609F443C0AA2009F46BC02C
:10231000B1104BCE812F8F7140C023EF821609F48C
:1023200044C034EF8312F1CFAA2009F451C01F71C9
:10233000812F0E9448048091B50182FD07C0E8E02A
:102340001E9FC001112483608093A301812F25C0AB
:10235000AA20C9F084E08B1508F443CE1F7161E018
:1023600070E080E090E004C0660F771F881F991F1F
:102370001A95D2F70091B0011091B1012091B201EC
:102380003091B301A0CF95E09B1508F42ACEE6CF9B
:10239000812F8F71AA2009F4A7CF0E94480421CE73
:1023A000812F8F71AA20C9F39FCF60E070E0CB012D
:1023B000AA2009F46CCF1F7161E070E080E090E02A
:1023C00004C0660F771F881F991F1A95D2F75FCF39
:1023D00081E00E942C04F1E0FB1508F002CE82E0BF
:1023E0000E942C04FECDBB2039F0893309F490CE35
:1023F000802F0E94A204F5CD812F8F7175CF85E0CB
:10240000DE01119601900D928A95E1F7F701228184
:1024100089819A81211158CB0E94A803D82E5CCBC8
:1024200006311C4551F58091340181116BCD89E253
:102430000E94820362CD0B352DE5120709F493CD7E
:1024400058F401158CE5180709F45ECD0F3D1C45C5
:10245000A1F40E94FE0AD0CB0C35EDE51E0709F46D
:1024600084CD0D351D4549F48091B50182FB882747
:1024700080F991E089270E94690BF7018281008130
:102480001181882309F473CDC8010E94D606D82E85
:10249000682FC8010E94CF03B8018D2D0E945D05F1
:1024A0008C01882EF701A280B580B2947FE0B7221C
:1024B0008091A3018770A1F0DA2CAA2091F0812FDE
:1024C000807F803421F080E2800F883048F082E005
:1024D0000E942C048091A3018770DD24D394811184
:1024E000D12CC12EC2946FE0C622FBE0FC1508F48B
:1024F00078CDEC2DF0E0ED59F34E0C94481A1F9373
:10250000CF93DF9380913E01807FA9F480913B01BE
:10251000882389F080917001D0913F016091390149
:1025200070913A01A0913C01B0913D01C62FC723A3
:1025300016E0D81304C0DF91CF911F91089590E069
:10254000109711F0CF3F19F401968770F2CF189FC2
:102550009001199F300D1124F901E05CFE4F41817B
:102560004713F2CF40814613EFCF42814111ECCFA8
:10257000438154814A1B5B0B483C510528F78091ED
:102580003E018F70806180933E01F901EB5BFE4F4D
:1025900080818F708061808389E391E00E94340D97
:1025A000DF91CF911F910C947704AF92BF92CF929D
:1025B000DF92EF92FF920F931F93CF93DF93CDB7EC
:1025C000DEB761970FB6F894DEBF0FBECDBF8C01AA
:1025D00085E0F801DE011D9601900D928A95E1F7E4
:1025E000F80180819181E28029E3A22E21E0B22EC0
:1025F00060913C0170913D016115710509F43EC186
:102600003091390140913A01232F24232F3F09F4BF
:1026100035C1C380D480F0903B01F601E61BF70B77
:10262000FF2009F4FBC020913E01522F507FE83C6F
:10263000F10508F0BBC0511178C0FE2C491321C030
:1026400038131FC0E1101DC02F70206120933E0180
:10265000C5010E94340D80913E01F80185838F2DC4
:1026600061960FB6F894DEBF0FBECDBFDF91CF915C
:102670001F910F91FF90EF90DF90CF90BF90AF90A0
:102680000895CD2829F0282F29232F3F09F014C1C0
:1026900020E0F22FF170DF2E20FF3DC0209170016D
:1026A00040913F0156E0241315C08D879E878D858C
:1026B0009E850E941807292F22952F702230F8F04E
:1026C000243020F59F70F9F0F8019581907FD9F4BE
:1026D000D12C1FC030E0529FF001539FF00D112408
:1026E000E05CFE4F6181961306C06081861303C0D3
:1026F0006281E61210C02F5F3F4F2770D4CF9F70CA
:1027000011F0882329F3805E883010F3C8010E94FD
:10271000340DFD2CA4CFEE2009F4A1CF80913E0111
:10272000816080933E01F12C9ACF491312C0381377
:1027300010C0E1100EC0F8012583C8010E94340DBD
:1027400086E0F801A9E3B1E001900D928A95E1F7E6
:1027500086CF8D879E878D859E850E942207882340
:1027600009F1EE20F9F080913E01803270F0209165
:10277000390130913A0138872F831986DB86CA8662
:102780008C87CE0107960E94340D86E0F801A9E3FC
:10279000B1E001900D928A95E1F70E947F12FF242B
:1027A000F3945DCFC8010E94340DF9CF51110AC0D6
:1027B00089E391E00E94340D86E0F50111928A953B
:1027C000E9F7B1CF49130FC038130DC0E1100BC0AA
:1027D000F8012583C8010E94340D86E0F5011192AD
:1027E0008A95E9F73CCF8D879E878D859E850E94CF
:1027F00022078823B9F2EE20A9F280913E018032AF
:1028000020F22091390130913A013A8329831B82C9
:10281000DD82CC828E83CE010196B5CFE83CF105F6
:10282000E0F6FE2CEE2009F4BDCF491316C0381394
:1028300014C080913E0180FD83CF982F907F09F4D2
:102840007FCFF8018583903F09F477CF982F907F51
:10285000905F8F70892B858370CF8D879E878D8544
:102860009E850E942207811190CF80913E01816058
:1028700080933E01C8010E94340DF1CEEE2009F490
:1028800091CF8D879E878D859E850E942207F82E89
:10289000882309F487CF86E0F801A9E3B1E001902D
:1028A0000D928A95E1F78091390190913A010E9449
:1028B00018070E947F12D3CE21E02E25EACE1F9367
:1028C000CF93DF93CDB7DEB767970FB6F894DEBF2F
:1028D0000FBECDBF342F4B8B252F5C8B6D8B7E8B2A
:1028E0008F8B8E899F8961111092A5011A8A198A8E
:1028F0003D872E876F87998B888B86E0FE013D96FA
:10290000DE01179601900D928A95E1F7CE010796A8
:102910000E94D512882389F016E080917001909171
:102920003F01891349C067960FB6F894DEBF0FBE0A
:10293000CDBFDF91CF911F91089586E0FE013796BC
:10294000DE01119601900D928A95E1F78A859B85AB
:10295000892B11F38F81988589238F3FE9F220918C
:102960003F0130E0C90101968770992740917001BD
:102970004817190671F40E94400810923F01109206
:10298000700186E0E9E3F1E0DF011D928A95E9F745
:10299000C3CF96E0929FD001939FB00D1124A05C0D
:1029A000BE4FFE01319601900D929A95E1F780930A
:1029B0003F010E947704B0CF819FC0011124805C49
:1029C0009E4F0E94D512882309F4ADCF80917001EB
:1029D00090E0019687709927809370019ECF3F9277
:1029E0004F925F926F927F928F929F92AF92BF921F
:1029F000CF92DF92EF92FF920F931F93CF93DF93CB
:102A000090E080E0C0E061E070E0812C912C540106
:102A1000839430EC432E31E0532E07E111E050E077
:102A200040E0D8012D918D01E22FE295EF70F0E0AA
:102A30002F70DB0102C0AA0FBB1F2A95E2F79D0190
:102A4000DB01042E02C0AA0FBB1F0A94E2F7A823E1
:102A5000B923042E02C0B595A7950A94E2F732A1D6
:102A6000AA2309F488C0232B22A34F5F5F4F443071
:102A70005105B9F6BAE1BA95F1F700C075016401E4
:102A8000082E04C0CC0CDD1CEE1CFF1C0A94D2F7EF
:102A90003601C094D094E6EBF1E002E111E0D0E021
:102AA0007F0140815181D8013D908D01A32DA295D8
:102AB000AF70B0E090962C9130E0A32DAF7002C0C3
:102AC00035952795AA95E2F720FD58C09A01262949
:102AD0003729318320833296D7012D913C914217BB
:102AE000530709F0D1E04E165F06D1F6CD2B0196C3
:102AF0008031910509F091CFCC2309F443C081E0E6
:102B0000809330010E94C10C90932F0180932E017D
:102B100080912E0190912F010E9434030697B0F10D
:102B20008091B6019091B7019093C4018093C30145
:102B30008091B8019091B9019093C6018093C5012D
:102B40008091BA019091BB019093C8018093C70115
:102B50008091BC019091BD019093CA018093C901FD
:102B60008091BE019091BF019093CC018093CB01E5
:102B7000109230010BC02095232376CF9A012C218F
:102B80003D21A7CF809130018111C2CF80913201C8
:102B9000909133010E943403893E934060F160912B
:102BA0003101062F10E066277727601B710B072E77
:102BB000000C880B990B0E94501B27EA39E747E469
:102BC0005DE30E94DC1B6B017C01B801110F880BD7
:102BD000990B0E94501B9B01AC01C701B6010E94DA
:102BE000B31A0E941F1B609331010E94C10C909385
:102BF0003301809332018C2FDF91CF911F910F9180
:102C0000FF90EF90DF90CF90BF90AF909F908F900C
:102C10007F906F905F904F903F900895CDB7DEB753
:102C20002C970FB6F894DEBF0FBECDBF84B7877F59
:102C300084BF0FB6F894A895809160008861809356
:102C40006000109260000FBE80E890E00FB6F8942C
:102C500080936100909361000FBE85B7806885BF47
:102C600085B7806885BF8CE293E0909325018093BF
:102C700024010E94D4010E94F3018091E20084604B
:102C80008093E2007894809111048823A1F0109140
:102C9000E9001F709091EC00892F817090FD80E811
:102CA000182B1092E9008091E80083FD0E944F08E4
:102CB0001F701093E90082E084BD93E095BD9AEF08
:102CC00097BD80936E00A7E1B1E09D0161E070E0E7
:102CD000F90181919F01E82FE295EF70F0E091A159
:102CE0008F70AB0101C0440F8A95EAF7892F842BBE
:102CF00081A3F1E02B313F0759F741E050E09D916E
:102D0000E92FE295EF70F0E022A19F70BA0102C0B6
:102D1000660F771F9A95E2F7CB018095822382A3F5
:102D200071E0AB31B70759F7A2E1B1E047E151E0FB
:102D300061E070E08D91E82FE295EF70F0E011A175
:102D40008F709B0101C0220F8A95EAF7922F909510
:102D5000912391A382A1822B82A34A175B0751F78B
:102D60001092B7011092B6011092C4011092C301E3
:102D70001092B9011092B8011092C6011092C501CB
:102D80001092BB011092BA011092C8011092C701B3
:102D90001092BD011092BC011092CA011092C9019B
:102DA0001092BF011092BE011092CC011092CB0183
:102DB00090E080E00E94781A8A3E9E4F11F00E94B7
:102DC000FE0A82E090E00E94701A8093F9030E944C
:102DD000F00A9093B5018093B40183E090E00E94E3
:102DE000701A682F70E090E080E00E9469041092F1
:102DF000EE0380E88093CD010E9440196DE070E001
:102E000081E092E00E94E807892BC9F58091EE03EA
:102E100063E070E081FDCAC08EEF91E00E94E80798
:102E2000892B69F56DE070E08EEE91E00E94E80775
:102E3000892B29F50E944303605A75418F4F9F4F9C
:102E40006093F2037093F3038093F4039093F5037C
:102E5000EEEEF1E080E092E0DF019C011D92215056
:102E60003040E1F78FEF9FEF9093F1038093F003F1
:102E700081E08093F7038093F6031092EF0387E0DD
:102E800091E09093C1018093C00158E1852E912C6F
:102E90008091110412E1853009F4C3C00E94EF143F
:102EA000D82E81110E944303A3ECB1E0EAEFF3E0D6
:102EB00010E000E0702F8D919D91219131912817A4
:102EC000390709F4BEC02827392760E0EE24E394CF
:102ED000F12CA9014E215F21452B09F4ACC0698377
:102EE0007A839C012E213F2191E0232B09F490E06D
:102EF0009B830E94C10C8160782F9D838C834981C4
:102F00005A816B818D810E945F14000F111FF8019F
:102F1000E650FC4F80819181E826F926F182E0821B
:102F20008091F703882399F12091F0033091F10308
:102F30002115310539F08091EF0361E070E08823BD
:102F400009F497C08091F603882309F10E94430396
:102F50000091F2031091F3032091F4033091F503F3
:102F6000601B710B820B930B6F3F7F4F8F4F9F47FF
:102F700070F48091F703882351F062E070E08EE0F6
:102F800092E00E94E807892B11F41092F603D11009
:102F90000E9418080E9496049091F803891709F47A
:102FA00077CF0E9496048093F80372CF8BEF91E065
:102FB00035CF80911104843011F11092C20130E4B8
:102FC0000FB6F894A895809260000FBE3093600011
:102FD00083B7817F846083BF83B7816083BF789428
:102FE000889583B78E7F83BF0FB6F894A89580919C
:102FF0006000886180936000109260000FBE809135
:103000001004882371F00E94EF14E3ECF1E0819149
:103010009191892B09F0F6C06DEC71E06E177F0776
:10302000B1F780911104853009F4C3CF0E944008A4
:103030000E94960433CF6F5FEE0CFF1C603109F0E5
:1030400048CF0F5F1F4F0530110509F033CF8FEFC9
:103050008E838F8318860E94C10C8160782F9A8797
:1030600089874E815F8168858A850E945F1458CF69
:103070008F5F082F10E07B01082E02C0EE0CFF1CB2
:103080000A94E2F7A9014E215F21452B89F3909123
:10309000EE0390FD43C08295880F807680930201F5
:1030A0009801369527953695279520930501815EE1
:1030B000809303011092060124E630E047E050E0DF
:1030C00060E071E088E70E94D119892B09F03ACFBE
:1030D000A80125E0440F551F2A95E1F78091EE03E2
:1030E00080FD2AC042515E4F04E610E020E230E04D
:1030F00060E488E70E94F819892B09F023CF0E9429
:103100001808E094F0948091F0039091F103E82284
:10311000F922F092F103E092F00314CF880F880FA8
:10312000880F8093020110920501895F809303014B
:1031300083E080930601C0CFEEECF1E080E2DF0196
:103140001D928A95E9F7EFE1F1E0FC87EB870BE14F
:1031500011E093E2292E91E0392EAB85BC852D91AB
:10316000BC87AB87F80141908F01440E552E511C4E
:10317000B20162517E4F2B01E22FF0E0E253FE4F8D
:1031800030E020E087E0682E621ACC24C394022E3F
:1031900001C0CC0C0A94EAF7520190E0D5018D9160
:1031A0005D018C21662D691B6770762E062E000C42
:1031B000770BB82F01C0BB0F7A94EAF77B2E71957D
:1031C000619571096770772701C086956A95EAF75E
:1031D000782A8081782A70829F5F9830F9F62F5F75
:1031E0003F4F31962830310569F6EB85FC852E1668
:1031F0003F0609F0B2CF04E610E020E230E04EECEA
:1032000051E076CF20E129BD19BD09B400FEFDCF04
:103210008091D8008F7D8093D8008091E0008260FB
:103220008093E0008091E00081FDFCCF0E94400887
:10323000F8CE1F921FB61F9211248F939F93AF93C6
:10324000BF938091C201811113C08091AC01909114
:10325000AD01A091AE01B091AF014196A11DB11D8C
:103260008093AC019093AD01A093AE01B093AF01F8
:10327000BF91AF919F918F911F901FBE1F90189586
:103280001092B9008CE08093B8000895EF92FF92FD
:103290000F931F93CF93DF93182FEB011092BC0075
:1032A00084EA8093BC000E94C10C7C018091BC0028
:1032B00087FF27C08091B900887F883029F08091EE
:1032C000B900887F8031D9F51093BB0084E88093E2
:1032D000BC000E94C10C8C018091BC0087FF24C0FF
:1032E0002091B900287F90E080E02831B1F081E0A2
:1032F00090E0203411F490E080E09195819591095F
:103300000CC0CF3FDC0791F20E94C10C8E199F09BF
:103310008C179D0758F28EEF9FEFDF91CF911F9191
:103320000F91FF90EF900895CF3FDC07A9F20E9424
:10333000C10C801B910B8C179D0770F2ECCF8FEFA7
:103340009FEFEBCF0F931F93CF93DF93EB0180930E
:10335000BB0084E88093BC000E94C10C8C0180916A
:10336000BC0087FF11C02091B900287F81E090E068
:10337000283211F490E080E0919581959109DF91D8
:10338000CF911F910F910895CF3FDC0741F30E9429
:10339000C10C801B910B8C179D0708F38EEF9FEFDC
:1033A000EECFCF92DF92EF92FF920F931F93CF93C6
:1033B000DF936B018A017901B9010E944619E60188
:1033C0000C0D1D1DC017D10761F424E92093BC002A
:1033D000DF91CF911F910F91FF90EF90DF90CF90F1
:1033E000089597FDF2CFB70189910E94A219EACF03
:1033F000CF92DF92EF92FF920F931F93CF93DF93C1
:10340000C62F6A017901B8010E94461997FD0CC0C8
:10341000B8018C2F0E94A219E601EC0CFD1CCE1500
:10342000DF0511F097FF0CC024E92093BC00DF9169
:10343000CF911F910F91FF90EF90DF90CF90089563
:10344000B80189910E94A219EACF84E98093BC0057
:103450000895052E97FB1EF400940E94401A57FD14
:1034600007D00E944E1A07FC03D04EF40C94401A69
:1034700050954095309521953F4F4F4F5F4F0895A0
:1034800090958095709561957F4F8F4F9F4F0895D0
:10349000EE0FFF1F0590F491E02D0994A1E21A2E82
:1034A000AA1BBB1BFD010DC0AA1FBB1FEE1FFF1FE8
:1034B000A217B307E407F50720F0A21BB30BE40B38
:1034C000F50B661F771F881F991F1A9469F760957F
:1034D0007095809590959B01AC01BD01CF01089539
:1034E000F999FECF92BD81BDF89A992780B50895CC
:1034F000A8E1B0E042E050E00C94A41A262FF9991C
:10350000FECF92BD81BDF89A019700B4021639F042
:103510001FBA20BD0FB6F894FA9AF99A0FBE089513
:103520000396272F0E947F1A0E947E1A252F0E9441
:103530007F1A242F0C947F1A0196272F0E947F1A3E
:103540000C947E1ADC01CB01FC01F999FECF06C078
:10355000F2BDE1BDF89A319600B40D924150504051
:10356000B8F708955058BB27AA270E94CA1A0C948E
:10357000A21B0E94941B38F00E949B1B20F039F480
:103580009F3F19F426F40C94911B0EF4E095E7FB91
:103590000C948B1BE92F0E94B31B58F3BA176207D8
:1035A00073078407950720F079F4A6F50C94D51BD2
:1035B0000EF4E0950B2EBA2FA02D0B01B90190014E
:1035C0000C01CA01A0011124FF27591B99F0593F92
:1035D00050F4503E68F11A16F040A22F232F342FDA
:1035E0004427585FF3CF469537952795A795F04028
:1035F0005395C9F77EF41F16BA0B620B730B840B3D
:10360000BAF09150A1F0FF0FBB1F661F771F881FF4
:10361000C2F70EC0BA0F621F731F841F48F487954C
:1036200077956795B795F7959E3F08F0B0CF93953E
:10363000880F08F09927EE0F9795879508950E94B7
:10364000BB1B88F09F5798F0B92F9927B751B0F05E
:10365000E1F0660F771F881F991F1AF0BA95C9F716
:1036600014C0B13091F00E94D51BB1E008950C94C4
:10367000D51B672F782F8827B85F39F0B93FCCF377
:10368000869577956795B395D9F73EF49095809593
:10369000709561957F4F8F4F9F4F0895E89409C0B3
:1036A00097FB3EF490958095709561957F4F8F4F75
:1036B0009F4F9923A9F0F92F96E9BB279395F6958B
:1036C000879577956795B795F111F8CFFAF4BB0F09
:1036D00011F460FF1BC06F5F7F4F8F4F9F4F16C06D
:1036E000882311F096E911C0772321F09EE8872FF7
:1036F000762F05C0662371F096E8862F70E060E0B3
:103700002AF09A95660F771F881FDAF7880F96952B
:10371000879597F9089597F99F6780E870E060E0D2
:1037200008959FEF80EC089500240A94161617065A
:1037300018060906089500240A94121613061406A2
:1037400005060895092E0394000C11F4882352F005
:10375000BB0F40F4BF2B11F460FF04C06F5F7F4FBD
:103760008F4F9F4F089557FD9058440F551F59F0A4
:103770005F3F71F04795880F97FB991F61F09F3F5E
:1037800079F087950895121613061406551FF2CF87
:103790004695F1DF08C0161617061806991FF1CFD7
:1037A00086957105610508940895E894BB276627FE
:1037B0007727CB0197F908950E94EF1B0C94A21B69
:1037C0000E94941B38F00E949B1B20F0952311F05F
:1037D0000C948B1B0C94911B11240C94D61B0E94EF
:1037E000B31B70F3959FC1F3950F50E0551F629F77
:1037F000F001729FBB27F00DB11D639FAA27F00D4A
:10380000B11DAA1F649F6627B00DA11D661F829F70
:103810002227B00DA11D621F739FB00DA11D621F55
:10382000839FA00D611D221F749F3327A00D611D72
:10383000231F849F600D211D822F762F6A2F112454
:103840009F5750409AF0F1F088234AF0EE0FFF1F87
:10385000BB1F661F771F881F91505040A9F79E3FDE
:10386000510580F00C948B1B0C94D61B5F3FE4F346
:10387000983ED4F3869577956795B795F795E79534
:103880009F5FC1F7FE2B880F911D9695879597F93D
:103890000895F894FFCF310731073A073A073C07FC
:1038A0003A073A073A073107310741073A073A071B
:1038B000410732095A09AD095A09AD098D09C509EF
:1038C000AD09AE0ABB0ABC0FBC0F38103810F10F9F
:0E38D000F10FF10FF10F9210681177117711BF
:1038DE000021007F2200033103460730032E032F01
:1038EE00030136323331F797C634350008101818F5
:0438FE0010080000AE
:00000001FF
