:100000000C94950D0C94DC0D0C94DC0D0C94DC0D13
:100010000C94DC0D0C94DC0D0C94DC0D0C94DC0DBC
:100020000C94DC0D0C94DC0D0C94C3170C947A1C0E
:100030000C94882E0C94DC0D0C94DC0D0C94DC0DCF
:100040000C94DC0D0C94DC0D0C94DC0D0C94DC0D8C
:100050000C94DC0D0C949A180C94DC0D0C94DC0DB3
:100060000C94DC0D0C94DC0D0C94DC0D0C94DC0D6C
:100070000C94DC0D0C94DC0D0C94DC0D0C94DC0D5C
:100080000C94DC0D0C94DC0D0C94DC0D0C94DC0D4C
:100090000C94DC0D0C94DC0D0C94DC0D0C94DC0D3C
:1000A0000C94DC0D0C94DC0D0C94DC0D05010902A4
:1000B000A10185020901A1000509190129081500FE
:1000C0002501950875018102050109300931158165
:1000D000257F95027508810609381581257F9501D0
:1000E00075088106050C0A38021581257F95017572
:1000F000088106C0C005010980A101850319012AF4
:10010000B700150126B700950175108100C0050CD8
:100110000901A101850419012AA002150126A002E6
:10012000950175108100C005010906A1018505052D
:100130000719E029E71500250195087501810205D9
:1001400007190029EF1500250195F07501810205B9
:10015000081901290595057501910295017503910D
:1001600001C00660FF0961A1010962150026FF00B8
:100170009520750881020963150026FF00952075FA
:10018000089102C005010906A101050719E029E748
:1001900015002501950875018102950175088101F9
:1001A0000507190029FF150026FF0095067508812F
:1001B000000508190129059505750191029501753C
:1001C000039101C0000000000000000000000000DA
:1001D000000000000000000000000000000000001F
:1001E000000000000000000000000000000000000F
:1001F00000000000000000000000000000000000FF
:100200000000000000008080804040202010080492
:1002100002040810102020404080800000000000F0
:1002200000000000000000000000000000000000CE
:1002300000000000000000000000000000000000BE
:1002400000000000000000000000000000000000AE
:10025000000000000000000000000000000000009E
:10026000000000000000000000000000000000008E
:10027000000000000000003FC1010102020404046C
:1002800004020201010100000000000080000040A3
:10029000808040000030300000000001026418043B
:1002A00012C2CA2488F08080404040402020202094
:1002B00010101010080808080404040402020202C6
:1002C000010101010000000000000000000000002A
:1002D000000000000000000000000000000000001E
:1002E000000000000000000000000000000000000E
:1002F000000000000000E0180601000000000000FF
:1003000000000000008083834040404020212120E5
:100310001010101008080808040404040202020265
:1003200001010101000000000000000000000000C9
:1003300000000000000000000000000000000000BD
:1003400000000000000000000000000000000000AD
:10035000000000000000000000000000000000009D
:10036000000000008080808040404040202020200D
:1003700010101010080F08080404040402040810E8
:10038000102020404041422498C088888C9C1C1E2C
:100390000E06000000000000000000000000000049
:1003A000000000000000000000000000000000004D
:1003B000000000000000000000000000000000003D
:1003C000000000000000000000000000000000002D
:1003D000000000000000000000000000000000001D
:1003E000000000000000000000000000000000000D
:1003F00000000000000000000000000000000000FD
:1004000000000000000000000000000000000000EC
:1004100000000000000000000000000000000000DC
:1004200000000000000000000000000000000000CC
:1004300000000000000000000000000000000000BC
:1004400000000000000000000000000000000000AC
:10045000000000000000000000000000000000009C
:10046000000000000000000000000000000000008C
:10047000000000000000000000000000000000007C
:1004800000008080804040202010080402040810F2
:10049000102020404080800000000000000000008C
:1004A000000000000000000000000000000000004C
:1004B000000000000000000000000000000000003C
:1004C000000000000000000000000000000000002C
:1004D000000000000000000000000000000000001C
:1004E000000000000000000000000000000000000C
:1004F0000000003FC1010102020484444442820121
:1005000001010000000000008000004080804000E9
:1005100000303000000000010204040808102040F0
:10052000808080804040404020202020101010100B
:10053000080808080404040402020202010101017F
:1005400000000000000000000000000000000000AB
:10055000000000000000000000000000000000009B
:10056000000000000000000000000000000000008B
:100570000000E018060100000C0300021819000535
:10058000FE80838340404040202121201010101025
:1005900008080808040404040408304080800000AF
:1005A00001869860000000000000000000000000CC
:1005B000000000000000000000000000000000003B
:1005C000000000000000000000000000000000002B
:1005D000000000000000000000000000000000001B
:1005E000808080804040404020202020101010104B
:1005F000080F0808040404040202020201010101B8
:1006000000000000000000000000000000000000EA
:10061000000000060F0F07030361F0F8FC60010102
:10062000013C78F8F07000000000000000000000BD
:1006300000000000000000000000000000000000BA
:1006400000000000000000000000000000000000AA
:10065000000000000000000000000000000000009A
:10066000000000000000000000000000000000008A
:10067000000000000000000000000000000000007A
:10068000000000000000000000000000000000006A
:10069000000000000000000000000000000000005A
:1006A000000000000000000000000000000000004A
:1006B000000000000000000000000000000000003A
:1006C000000000000000000000000000000000002A
:1006D000000000000000000000000000000000001A
:1006E000000000000000000000000000000000000A
:1006F000000000000000000000000080804040403A
:10070000202020202018040201020408102020408C
:100710004080800000000000000000000000000099
:1007200000000000000000000000000000000000C9
:1007300000000000000000000000000000000000B9
:1007400000000000000000000000000000000000A9
:100750000000000000000000000000000000000099
:100760000000000000000000000000000000003F4A
:10077000C10101020204040404020201000000009D
:100780000000000080000040808040000030300009
:1007900000000001020404080810204080808080CE
:1007A0004040404020202020101010100808080869
:1007B000040404040202020201010101000000001D
:1007C0000000000000000000000000000000000029
:1007D0000000000000000000000000000000000019
:1007E0000000000000000000000000000000E01811
:1007F000060100000000000000000000008083836C
:100800004040404020212120101010100808080806
:1008100004040404040830408080000001869860CD
:1008200000000000000000000000000000000000C8
:1008300000000000000000000000000000000000B8
:1008400000000000000000000000000000000000A8
:100850000000000000000000000000008080808098
:10086000404040402020202010101010080F0808A1
:1008700004040404020408101020204040414224D3
:100880001800000000000000000000000000000050
:100890000000000000000000000001010100000055
:1008A0000000000000000000000000000000000048
:1008B0000000000000000000000000000000000038
:1008C0000000000000000000000000000000000028
:1008D0000000000000000000000000000000000018
:1008E0000000000000000000000000000000000008
:1008F00000000000000000000000000000000000F8
:1009000000000000000000000000000000000000E7
:1009100000000000000000000000000000000000D7
:1009200000000000000000000000000000000000C7
:1009300000000000000000000000000000000000B7
:1009400000000000000000000000000000000000A7
:100950000000000000000000000000000000000097
:100960000000000000000000000000000000000087
:100970000000000000000000000080804040402097
:1009800010080402010204081020408080000000CA
:100990000000000000000000000000000000000057
:1009A0000000000000000000000000000000000047
:1009B0000000000000000000000000000000000037
:1009C0000000000000000000000000000000000027
:1009D0000000000000000000000000000000000017
:1009E00000000000000000000000003FC101010203
:1009F00002040404040202010101000000000000DE
:100A0000000000800000800000606000000102041F
:100A10000408081010202040808080804040404022
:100A200020202020101010100808080804040404D6
:100A300002020202010101010000000000000000AA
:100A400000000000000000000000000000000000A6
:100A50000000000000000000000000000000000096
:100A600000000000000000000000C0300C03000087
:100A700000000000000000000080868640404040EA
:100A8000212222201111101008080808040404046F
:100A9000040830408080000001869860000000005B
:100AA0000000000000000000000000000000000046
:100AB0000000000000000000000000000000000036
:100AC0000000000000000000000000000000000026
:100AD0000000000000000000808080804040404016
:100AE0002020202010101010080F0808040404040F
:100AF0000204081010202040404142241800000049
:100B000000000000000000000000000000000000E5
:100B100000000000000001010100000000000000D2
:100B200000000000000000000000000000000000C5
:100B300000000000000000000000000000000000B5
:100B400000000000000000000000000000000000A5
:100B50000000000000000000000000000000000095
:100B60000000000000000000000000000000000085
:100B70000000000000000000000000000000000075
:100B80000000000000000000000000000000000065
:100B90000000000000000000000000000000000055
:100BA0000000000000000000000000000000000045
:100BB0000000000000000000000000000000000035
:100BC0000000000000000000000000000000000025
:100BD0000000000000000000000000000000000015
:100BE0000000000000000000000000000000000005
:100BF0000000000000008080808040402010080439
:100C00000204081020408080000000000000000066
:100C100000000000000000000000000000000000D4
:100C200000000000000000000000000000000000C4
:100C300000000000000000000000000000000000B4
:100C400000000000000000000000000000000000A4
:100C50000000000000000000000000000000000094
:100C6000000000000000007E820202040408080860
:100C700008040402010100000000000000000080E0
:100C800000008000006060000101020404080810F8
:100C90001020204080808080404040402020202044
:100CA00010101010080808080404040402020202CC
:100CB0000101010100000000000000000000000030
:100CC0000000000000000000000000000000000024
:100CD0000000000000000000000000000000000014
:100CE000000000000000C0300C0300000000000005
:100CF00000000000008086864040404021222220E3
:100D000011111010080808080404040404083040F5
:100D10008080000001869860000000000000000054
:100D200000000000000000000000000000000000C3
:100D300000000000000000000000000000000000B3
:100D400000000000000000000000000000000000A3
:100D50000000000080808080404040402020202013
:100D600010101010080F08080404040402040810EE
:100D700010202040404142241800000000000000E4
:100D80000000000000000000000000000000000063
:100D90000000010101000000000000000000000050
:100DA0000000000000000000000000000000000043
:100DB0000000000000000000000000000000000033
:100DC0000000000000000000000000000000000023
:100DD0000000000000000000000000000000000013
:100DE0000000000000000000000000000000000003
:100DF00000000000000000000000000000000000F3
:100E000000000000000000000000000000000000E2
:100E100000000000000000000000000000000000D2
:100E200000000000000000000000000000000000C2
:100E300000000000000000000000000000000000B2
:100E400000000000000000000000000000000000A2
:100E50000000000000000000000000000000000092
:100E60000000000000000000000000000000000082
:100E70000000808080804040201008040204081098
:100E80002040808000000000000000000000000002
:100E90000000000000000000000000000000000052
:100EA0000000000000000000000000000000000042
:100EB0000000000000000000000000000000000032
:100EC0000000000000000000000000000000000022
:100ED0000000000000000000000000000000000012
:100EE00000001C34C40404040808080808040402B0
:100EF00001010000000000008000004080804000F0
:100F000000303000010102020404040808102040EF
:100F10008080808040404040202020201010101011
:100F20000808080804040404020202020101010185
:100F300000000000000000000000000000000000B1
:100F400000000000000000000000000000000000A1
:100F50000000000000000000000000000000000091
:100F60000000E01806010000000000000000000082
:100F70000080838340404040202121201010101029
:100F800008080808040404040408304080800000B5
:100F900001869860000000000000000000000000D2
:100FA0000000000000000000000000000000000041
:100FB0000000000000000000000000000000000031
:100FC0000000000000000000000000000000000021
:100FD0008080808040404040202020201010101051
:100FE000080F08080404040402040810102020401C
:100FF00040414224180000000000000000000000F2
:1010000000000000000000000000000000000101DE
:1010100001000000000000000000000000000000CF
:1010200000000000000000000000000000000000C0
:1010300000000000000000000000000000000000B0
:1010400000000000000000000000000000000000A0
:101050000000000000000000000000000000000090
:101060000000000000000000000000000000000080
:101070000000000000000000000000000000000070
:101080000000000000000000000000000000000060
:101090000000000000000000000000000000000050
:1010A0000000000000000000000000000000000040
:1010B0000000000000000000000000000000000030
:1010C0000000000000000000000000000000000020
:1010D0000000000000000000000000000000000010
:1010E0000000000000000000000000808040404040
:1010F0002020202020180402010204081020204093
:10110000408080000000000000000000000000009F
:1011100000000000000000000000000000000000CF
:1011200000000000000000000000000000000000BF
:1011300000000000000000000000000000000000AF
:10114000000000000000000000000000000000009F
:1011500000000000000000000000000000060D314B
:10116000C1010101020202040402020100000000A8
:10117000000000008000004080804000003030000F
:1011800000000001020404080810204080808080D4
:10119000404040402020202010101010080808086F
:1011A0000404040402020202010101010000000023
:1011B000000000000000000000000000000000002F
:1011C000000000000000000000000000000000001F
:1011D0000000000000000000000000000000E01817
:1011E0000601000000000000000000000080838372
:1011F000404040402021212010101010080808080D
:1012000004040404040830408080000001869860D3
:1012100000000000000000000000000000000000CE
:1012200000000000000000000000000000000000BE
:1012300000000000000000000000000000000000AE
:10124000000000000000000000000000808080809E
:10125000404040402020202010101010080F0808A7
:1012600004040404020408101020204040414224D9
:101270001800000000000000000000000000000056
:10128000000000000000000000000101010000005B
:10129000000000000000000000000000000000004E
:1012A000000000000000000000000000000000003E
:1012B000000000000000000000000000000000002E
:1012C000000000000000000000000000000000001E
:1012D000000000000000000000000000000000000E
:1012E00000000000000000000000000000000000FE
:1012F00000000000000000000000000000000000EE
:1013000000000000000000000000000000000000DD
:1013100000000000000000000000000000000000CD
:10132000000000000000000014001A000800150072
:1013300017001C0018000C00120013000400160017
:10134000070009000A000B000D000E0000000F004E
:10135000E1001D001B00060019000500110010002F
:10136000E1003800E000E30000002C000000000075
:101370002C0076000000E0000100010001000100E7
:101380000100010001000100010001000100010055
:101390000100010001000100010001000000010046
:1013A0000100010001000100010001000100010035
:1013B0000100010001000100000001000000000028
:1013C0000100010000000100010001000100010016
:1013D0000100010001000100010001000100010005
:1013E00001000100010001000100010000000100F6
:1013F00001000100010001000100010001000100E5
:1014000001000100010001000000010000000000D7
:1014100001000100000001000100010001000100C5
:1014200001000100010001000100010001000100B4
:1014300001000100010001000100010000000100A5
:101440000100010001000100010001000100010094
:101450000100010001000100000001000000000087
:10146000010001000000010000AF000000000000CA
:10147000000000000000000000000000000000006C
:1014800000000000000000000000000000007E0FCF
:1014900000D4FFFFFFC7000000780000000000003C
:1014A00000002A2B280000000000000000000000BF
:1014B000000000000029000000002C1E3420212222
:1014C00024342627252E362D3738271E1F2021228B
:1014D000232425263333362E37381F040506070804
:1014E000090A0B0C0D0E0F101112131415161718F4
:1014F000191A1B1C1D2F3130232D35040506070832
:10150000090A0B0C0D0E0F101112131415161718D3
:10151000191A1B1C1D2F3130354C00DA0281FFD9FE
:10152000F1DB20A4A62EAF00A0C000A1C800AED55C
:1015300080A81FD300408D142000556E6465666935
:101540006E6564002D332D002D322D002D312D00C0
:101550004D61696E0000AE09025B00030100A0FA54
:101560000904000001030101000921110100012209
:1015700040000705810308000A0904010002030076
:101580000000092111010001222200070582032029
:101590000001070503032000010904020001030004
:1015A000000009211101000122B600070584032073
:1015B000000A12011001000000084B41190001004F
:1015C0000102000114034D0069006E006900410032
:1015D0006C0069006300650000000A034C006500B0
:1015E00041004B0000000403090407087F080700BE
:1015F0003E5B4F5B3E003E6B4F6B3E001C3E7C3EB5
:101600001C00183C7E3C18001C577D571C001C5EBB
:101610007F5E1C0000183C180000FFE7C3E7FF00D6
:10162000001824180000FFE7DBE7FF0030483A0607
:101630000E00262979292600407F05050700407FF6
:1016400005253F005A3CE73C5A007F3E1C1C080021
:10165000081C1C3E7F0014227F2214005F5F005F85
:101660005F0006097F017F00006689956A0060605F
:101670006060600094A2FFA2940008047E04080049
:1016800010207E20100008082A1C0800081C2A08C8
:1016900008001E10101010000C1E0C1E0C0030381C
:1016A0003E383000060E3E0E06000000000000002E
:1016B00000005F000000000700070000147F147F97
:1016C0001400242A7F2A120023130864620036497A
:1016D00056205000000807030000001C22410000B3
:1016E0000041221C00002A1C7F1C2A0008083E081A
:1016F000080000807030000008080808080000009A
:10170000606000002010080402003E5149453E0080
:1017100000427F4000007249494946002141494D3D
:1017200033001814127F10002745454539003C4A04
:10173000494931004121110907003649494936001C
:10174000464949291E0000001400000000403400F2
:101750000000000814224100141414141400004165
:10176000221408000201590906003E415D594E004D
:101770007C1211127C007F49494936003E414141AB
:1017800022007F4141413E007F49494941007F0994
:10179000090901003E41415173007F0808087F009C
:1017A00000417F4100002040413F01007F0814229A
:1017B00041007F40404040007F021C027F007F04C8
:1017C00008107F003E4141413E007F0909090600A3
:1017D0003E4151215E007F091929460026494949A9
:1017E000320003017F0103003F4040403F001F20C3
:1017F00040201F003F4038403F006314081463003E
:101800000304780403006159494D4300007F4141BE
:101810004100020408102000004141417F00040201
:10182000010204004040404040000003070800005F
:101830002054547840007F284444380038444444BD
:101840002800384444287F003854545418000008B5
:101850007E09020018A4A49C78007F080404780084
:1018600000447D4000002040403D00007F1028449F
:10187000000000417F4000007C04780478007C0870
:1018800004047800384444443800FC182424180028
:1018900018242418FC007C080404080048545454FC
:1018A000240004043F4424003C4040207C001C20D1
:1018B00040201C003C4030403C004428102844009C
:1018C0004C9090907C004464544C44000008364195
:1018D000000000007700000000413608000002010F
:1018E000020402003C2623263C0000000000000009
:1018F000404040F0F8F8FF38FFF8F83FF8F8FF38BC
:10190000FFF8F8F040404000000000000080C0C038
:10191000C0800000C0C08000000080C0C000C0C007
:10192000000080C0C00000000000C0C0C0C0C000F7
:10193000C0C0000000000000000000000000000027
:101940000000000000000000000000000000000097
:101950000000000000000000000000000000000087
:10196000000000000000000000C0F0F8FC3E1E0671
:10197000010000007F4141417F007F4141417F00E4
:101980000080C0E07E5B4F5BFEC00000C000DCD783
:10199000DEDEDED7DC00C00000000000000000003A
:1019A0000000000000000000000000000000000037
:1019B000494949FFFFFFFFE0DFBFBF00BFBFDFE0D6
:1019C000FFFFFFFF49494900000000001F3F606022
:1019D000E0BF1F007F7F071E381E077F7F007F7FCD
:1019E0000E1F3B716000000000007F7F0C0C0C009C
:1019F0007E7E007F7E0303007F7E03037E7E0303E3
:101A00007F7E000F3E703C063C703E0F00327B49EB
:101A1000493F7E007F7E0303001E3F69696F2600F9
:101A2000000000000000000000030F1F3F3C787022
:101A3000600000007F4141417F007F4141417F00C4
:101A4000307B7F7830202030787F3B0003000F7F91
:101A50000F0F0F7F0F0003000000000000000000C8
:101A60000000000000000000000000000000000076
:101A7000010101070F0F7F0F7F0F0F7E0F0F7F0FE9
:101A80007F0F0F07010101000000000000000000AF
:101A90000001010000000000000000000000000044
:101AA0000000000000000000000000000000000036
:101AB0000000000000000000000000000000000026
:101AC0000000000000000000000000000000000016
:101AD0000000000000000000000000000000000006
:101AE00000000000000000000000000000000000F6
:101AF00000000000000000000000000000000000E6
:101B000000000000000000000000000000000000D5
:101B100000000000000000000000000000000000C5
:101B20000000000000000000000011241FBECFEFE5
:101B3000DAE0DEBFCDBF04B603FE27C080918F047C
:101B400090919004A0919104B09192048730904BB1
:101B5000A740B04BD1F410928F04109290041092D1
:101B600091041092920414BE84B7877F84BF0FB68D
:101B7000F894A8958091600088618093600010922D
:101B800060000FBEE0E0F8E3099511E0A0E0B1E0ED
:101B9000E4E8F4E602C005900D92A836B107D9F743
:101BA00024E0A8E6B1E001C01D92AF38B207E1F72A
:101BB0000E9449280C9409320C940000CF93DF93C3
:101BC00040918D0450918E044D5852409A012458F2
:101BD0003D4F21303240C0F020E032E0241B350B75
:101BE00060918B0270918C02FC01CA01240F351F99
:101BF000C1E0D0E08217930750F070938C0260939D
:101C00008B02DF91CF9108952CE732E0E9CF449128
:101C1000DC01A357BD4F5C91451781F04C93AC019B
:101C2000A5E056954795AA95E1F7DE0102C0AA0FF7
:101C3000BB1F4A95E2F7AD016A2B752B01963196D1
:101C4000D9CFE8EDF0E080818E7F80831092E200B2
:101C50001092DA001092E100A0EEB0E08C91816069
:101C60008C9380818F77808319BCA7EDB0E08C9135
:101C70008E7F8C9380818F7E808310924E02089598
:101C80002091E4003091E50095E6A9012091EC0057
:101C9000822F817020FF06C08091E80080FF06C07F
:101CA00080E008952091E80022FD1AC0809173021F
:101CB000882389F0853089F08091EB0085FD0FC085
:101CC0002091E4003091E50042175307F9F291505A
:101CD000E1F684E0089582E0089583E0089581E0CC
:101CE0000895EF92FF920F931F93CF937C018B0186
:101CF0000E94400EC82F811117C08091E80085FD19
:101D00000BC08091E8008E778093E8000E94400E1F
:101D1000882399F3C82F08C0F70181917F01809330
:101D2000F1000150110949F78C2FCF911F910F91AC
:101D3000FF90EF9008958091750287FF13C0809106
:101D4000E80082FF06C08091E8008B778093E8006E
:101D500004C0809173028111F2CF089580917302C3
:101D60008823D9F38091E80080FFF8CF8091E800C4
:101D70008E77ECCF982F9093E900242F762F50E0A8
:101D8000891731F07091EC002091ED005091F00036
:101D900021FD07C09F5F973071F78093E90081E0D4
:101DA00008953091EB003E7F3093EB003091ED00D1
:101DB0003D7F3093ED003091EB0031603093EB00CC
:101DC0007093EC002093ED005093F0002091EE0012
:101DD00027FDE0CF80E00895CF92DF92EF92FF924F
:101DE0000F931F93CF93DF93C8EDD0E088818F7E50
:101DF0008883E7EDF0E080818160808384E082BFAA
:101E000081E080934E0288818E7F888302EE10E00D
:101E1000F80110821092DA0081EEC82ED12CF60162
:101E2000108288818F778883888180688883888101
:101E30008F7D888319BC10927302109274021092E5
:101E400072021092710290EEE92EF12CF70180815E
:101E50008B7F808388818160888342E060E080E0BE
:101E60000E94BA0EF60180818E7F8083F801808106
:101E700081608083808188608083F70180818E7F8C
:101E80008083888180618883DF91CF911F910F913A
:101E9000FF90EF90DF90CF900895FC0180917B023E
:101EA00090917C0286179707A0F06115710529F4BF
:101EB0009091E8009E779093E80090E0611571059D
:101EC00051F4911108C08091E80082FF34C080E095
:101ED0000895BC01F2CF809173028823C1F185304F
:101EE000C1F18091E80083FD30C08091E80082FD5F
:101EF000EACF8091E80080FFE1CF8091F30020914C
:101F0000F200382F6115710519F02830310558F0AD
:101F100091E02830310509F090E02091E8002E771B
:101F20002093E800CBCF81918093F100615071093B
:101F30002F5F3F4FE7CF80917302882341F08530B8
:101F400041F08091E80083FFBECF81E0089582E0F8
:101F5000089583E0089580E00895809150020895E7
:101F60009C014FB7F8948091000290910102A091DA
:101F70000202B09103024FBF821B930B08952FB74B
:101F8000F894609100027091010280910202909198
:101F900003022FBF08958091ED0181111092ED0190
:101FA00008958091EC019091EB01892B9091EA01C9
:101FB000892B80936A019091ED019923A1F0892BDF
:101FC00080936A0180911101882341F18091F2018F
:101FD00087FF24C08EE1ECE6F1E090E0815000F54F
:101FE00091110E94CB0FE091FC01F091FD0130971F
:101FF000E1F080911101882359F08091F20187FF6F
:1020000007C080916A0180936B0185E080936A012B
:102010000280F381E02D8AE691E0099486E0DBCF2F
:1020200021912223D9F29F5FD9CF08959091110178
:102030009923D1F09091F20197FF16C0E82FE69511
:10204000E695E695EE31E0F4F0E0E659FE4F282FF4
:10205000277081E090E001C0880F2A95EAF780950B
:102060009281892382830895ECE6F1E091918913AE
:1020700003C0DF0111971C9291E0E237F907B1F735
:102080000895909111019923C1F09091F20197FF69
:1020900014C0E82FE695E695E695EE31F8F4F0E009
:1020A000E659FE4F877021E030E001C0220F8A958B
:1020B000EAF78281822B82830895ACE6B1E0EFEFEC
:1020C00090E02D91821751F0EF3F19F4211101C0DA
:1020D000E92F9F5F9630A9F7EF3F09F408950E2E80
:1020E000000CFF0BE659FE4FE6CF2AE0929F800DD1
:1020F0001124982F977086958695869525E0829F66
:10210000F0011124E053FE4F50E040E080E02191C7
:1021100030E0092E02C0369527950A94E2F7217027
:102120003327042E01C0220F0A94EAF7822B4F5F57
:102130005F4F4530510559F708952AE0929F800D71
:102140001124982F977041E001C0440F9A95EAF747
:1021500086958695869595E0899FF0011124E05338
:10216000FE4F90E080E070E05191DF0111979B01FC
:10217000082E02C0369527950A94E2F72170219522
:102180002527242325272C9301968530910561F777
:1021900008958091CF0190919E01981301C00895F8
:1021A0008F5F8770FACF882341F080959091EC0182
:1021B00089238093EC010C94D10F0895882339F082
:1021C0009091EC01982B9093EC010C94D10F089511
:1021D00020919101309192012817390771F0909365
:1021E000920180939101E091FC01F091FD01309703
:1021F00021F00084F185E02D0994089520918F014C
:10220000309190012817390771F0909390018093D5
:102210008F01E091FC01F091FD01309721F00680E3
:10222000F781E02D09940895E091FC01F091FD0102
:10223000309721F00190F081E02D099480E008951D
:1022400040913802803F59F48091390287FF0DC0D8
:102250001092390241110BC01092330208C0813F25
:1022600081F48091390218169CF3442381F0809107
:102270003A0290913B02892B09F05AC01092300229
:102280000895823F49F447FFF0CF109238028091C1
:1022900039028111ECCFE0CF833F19F41416ACF36F
:1022A000E4CF90913A02893F29F41916F4F610927E
:1022B0003A02DBCF8A3F19F497FFD7CFF8CF90913E
:1022C0003B028B3F29F497FFD0CF10923B02CDCF3A
:1022D0008C3F19F41916CCF3C8CF9CE0980F9530B9
:1022E00090F4845F990B21E030E0B90102C0660FE1
:1022F000771F8A95E2F7CB01809590913702892369
:1023000080933702B2CF8D3F31F4809197018E7F59
:1023100080939701AACF8E3F21F4809197018D7F02
:10232000F7CF8F3F09F0A1CF809197018B7FF0CF3E
:1023300008958091970180FD16C081FD16C082FD31
:1023400016C0809130028823A1F0883280F428E002
:10235000829FC001112468E270E00E94B82F862F8E
:10236000672B39F0089582E0089584E0089588E0AD
:10237000089581E008958091970180FD14C081FD4A
:1023800014C082FD16C080913302882381F084310D
:1023900080F422E3829FC001112464E170E00E9476
:1023A000B82F862F08958CE0089589E1089585E07F
:1023B000089582E30895803F31F40E94BB11819516
:1023C000809339020895813F19F40E94BB11F8CF20
:1023D000823F31F40E94BB118195809338020895A9
:1023E000833F19F40E94BB11F8CF893F29F40E9462
:1023F000991180933A0208958A3F21F40E9499111D
:102400008195F7CF8B3F31F40E949911819580938C
:102410003B0208958C3F19F40E949911F8CF9CE07B
:10242000980F953070F4845F990B21E030E001C083
:10243000220F8A95EAF780913702822B8093370228
:1024400008958D3F31F480919701816080939701C9
:1024500008958E3F21F4809197018260F7CF8F3FDE
:10246000B9F7809197018460F1CFF894E82FE29555
:10247000EF70F0E031A1282F2F7081E090E001C0D3
:10248000880F2A95EAF7982F9095932391A392A10C
:10249000892B82A3789408959091F20192FF06C04F
:1024A000282F28712830F9F4877F846093FF06C0B5
:1024B000282F28712831F1F4877E84612091F3015F
:1024C00020FF06C0382F38713830D9F4877F8160FB
:1024D00021FF06C0282F28712831D1F4877E816121
:1024E00094FD877E0895282F24712430F9F68B7F80
:1024F0008860DCCF282F2471243101F78B7E88611E
:10250000DDCF382F3171313019F78E7F8860E0CF01
:10251000282F2171213121F78E7E8861E1CF8091B2
:10252000950181111BC080918B0190E0019665E0BF
:1025300070E00E94B82F80938B0124E030E0281BCC
:10254000390B4CE752E0249FC001259F900D349F2A
:10255000900D11248454994F0C94DE0D80918A01C2
:1025600090E001968170992780938A0121E030E004
:10257000281B390B4CE752E0249FC001259F900D8A
:10258000349F900D11248C539E4FE6CFCF92DF9253
:10259000EF92FF920F931F93CF93DF936C017B0118
:1025A00064E670E088E70E94B52EEC0197FD12C04A
:1025B00010E000E0F601E00FF11F849164E670E0A6
:1025C0000E94112FEC01892B29F40F5F1F4F0E156C
:1025D0001F0581F70E94942FCE01DF91CF911F91AB
:1025E0000F91FF90EF90DF90CF900895CF93C0911F
:1025F0002E0280912F028823D1F00E94BF0F605AD3
:1026000075418F4F9F4F60932A0270932B028093E6
:102610002C0290932D02C11108C062E070E088E6A0
:1026200094E10E94C612892B29F0C0912E028C2FB2
:10263000CF91089581E080932E02F7CFCF93DF935F
:10264000682F81E06A3019F06D3029F480E0DF9165
:10265000CF910C94AD1380918D0490918E0426E05F
:10266000FC01A5E8B2E001900D922A95E1F7603EE9
:1026700008F45AC026E0FC0111922A95E9F7C091AE
:102680008D04D0918E0446E050E0BE0185E892E0D2
:102690000E9423309E012D583240892B41F1C901FF
:1026A00045E0969587954A95E1F741E050E0BA01FB
:1026B00002C0660F771F8A95E2F7CB0160918B020B
:1026C00070918C02862B972BB9016B5F7F4FE5E0F1
:1026D00076956795EA95E1F702C0440F551F6A9514
:1026E000E2F7842B952B90938C0280938B022A5FC8
:1026F0003F4F40918402642F70E0C9010E94A42FD3
:10270000481B463010F4240F311D211572E03707A5
:1027100010F030E020E023573D4F30938E0420939B
:102720008D04DF91CF910895F6E06F9FB0011124E1
:1027300066517A4E46E050E00E941A30A0CFCF9307
:10274000DF93EC01FE018491811103C0DF91CF91F1
:1027500008950E941E132196F5CFCF93382FE09154
:102760008D04F0918E04ED58F24020918402622F86
:1027700070E0CF010E94A42F281B822F332361F029
:1027800066E00E94982FC82FC15010F4CF91089591
:1027900080E20E941E13F8CF9F01280F311D2115E2
:1027A000324018F080E0F0E0E0E08E0F9F2F911DA6
:1027B00083579D4F90938E0480938D04E7CFCF93E2
:1027C00084E090E00E943030C82F82E290E00E94C6
:1027D0003030982F8C2FCF9108950F931F93CF9364
:1027E000DF93C42FD0E0CC0FDD1F24E1629FC00D2A
:1027F000D11D112430E5839FC00DD11D1124CE01C0
:1028000087960E943030082F10E0102F0027CE014D
:1028100088960E9430309801282BC901DF91CF9112
:102820001F910F910895462F843038F4743028F4A6
:102830006A3018F4672F0C94ED1390E080E008954F
:10284000CF93DF930E941314EC0182389105A9F114
:10285000D8F58133910509F496C048F58932910580
:1028600009F48AC08A9709F495C0C11521E5D207F9
:1028700008F0BCC0C11530E5D30708F014C1C83E4C
:10288000D10508F09CC0C03ED10560F5C83AD1051D
:1028900008F087C0C53AD10508F0FDC0C130D105A8
:1028A00009F12097F9F0C430D105E0F440C0853338
:1028B000910509F45AC0C997C1F68091F20183705D
:1028C00089F0C0EED0E00EC0833E910599F170F41E
:1028D000803E910501F1823E910539F68091F20129
:1028E00082FD21C0CE01DF91CF910895863E9105F2
:1028F00061F1873E910571F1843E910509F0B5CFF4
:102900008091F30181FFEECF8091F201C7EED0E01C
:1029100084FD0DC0E7CF8091F20180FD12C190913E
:10292000F30190FFDFCFC3EED0E084FFDBCFD0E038
:10293000C0E0D8CF8091F20182FD06C19091F301F1
:1029400090FDBFCF84FFCECFF2CF8091F20183FD07
:10295000DDCFC8CF8091F20183FDF9C09091F301E2
:1029600091FFF0CFC4EED0E0BDCF8091F20185FFA2
:10297000B9CFC9E2D0E0B6CF8091F20185FFB2CFE6
:10298000C5E3D0E0AFCF8091F20186FFABCFCAE2C2
:10299000D0E0A8CF8091F20186FFA4CFC1E3D0E0C0
:1029A000A1CFCF3BD10518F6C85AD0E0CC0FDD1F20
:1029B000CB5EDE4F0990D881C02DD46493CFC11572
:1029C00040E2D40758F4C11581E0D80708F08ACF57
:1029D000C03FD10508F4ABCFD06584CFC11590E4DA
:1029E000D90708F4A4CFDF70D06A7CCFC11525E5E4
:1029F000D20700F5C11534E5D30708F08AC0C11528
:102A000043E5D40708F071C0C11582E5D80708F482
:102A100067C0CE018370992721E030E002C0220F09
:102A2000331F8A95E2F7C695C69580E2C89FE001FC
:102A3000112452C0C11599E5D907A8F4C11528E59C
:102A4000D20708F06BC0C11536E5D30708F06FCF89
:102A50008C2F0E944C12C82FD0E0DC2FCC27CC2723
:102A6000DF71D0623FCFC1154AE5D40708F45BC0DF
:102A7000CE0190568115904208F059CF8D2F8F715D
:102A80000E944C1290E0982F882788279F719C0104
:102A90002C2BE901E6CFC55AD0E0CE5EDE4FC881CF
:102AA000D0E0D0641FCFCE01E4E096958795EA95FB
:102AB000E1F783702C2F26952695237040E2249F02
:102AC00090011124382B8C2F8370C1E0D0E002C01C
:102AD000CC0FDD1F8A95E2F7C22BD32BDC6802CF27
:102AE000DC2FCC27C16FD06AFDCECE018370992731
:102AF00021E030E002C0220F331F8A95E2F7C6952D
:102B0000C69590E2C99FE0011124C22BD32BDA684D
:102B1000E9CEDC2FCC27C46FD06AE4CEDC2FCC27E3
:102B2000C06FD06ADFCE8C2F8F700E944C1234E0C1
:102B3000D695C7953A95E1F7CF709C2FEC01D069F7
:102B4000D1CEC9E3D0E0CECEC2EED0E0CBCEC6EE41
:102B5000D0E0C8CEBF92CF92DF92EF92FF920F9358
:102B60001F93CF93DF938C01C0908002D09081029D
:102B7000E0908202F09083028091EE019091EF014B
:102B8000A091F001B091F101C82AD92AEA2AFB2AC2
:102B9000CFE1D0E0BC2ED701C6010C2E04C0B69503
:102BA000A795979587950A94D2F780FD0EC0219737
:102BB00088F7B12C8B2DDF91CF911F910F91FF9052
:102BC000EF90DF90CF90BF900895B8018C2F0E94B6
:102BD0002014019761F3EECFCF93DF93EC010E94B5
:102BE000AA15BE01DF91CF910C9420140E94EC1520
:102BF000292F2F7092959F7092509E3078F4E92F74
:102C0000F0E0E55FFD4C0C94EB2F803F19F020F4D1
:102C1000883E20F481E00895843FE1F380E0089548
:102C2000883EC0F3813FD1F7F5CF822F86958695F8
:102C3000869508956F927F928F929F92AF92BF92E6
:102C4000CF92DF92EF92FF920F931F93CF93DF9378
:102C500088E2C82E83E1D82E9BE8E92EF12CE7010B
:102C6000C055D10936011BC0F50185909490692D9E
:102C7000C8010E943E30682DC80101960E943E3076
:102C800082E0A80EB11C0E5F1F4FC017D10761F77D
:102C900084E1680E711C6496CE15DF0529F08E0163
:102CA000045111095301E0CF7E0180E5E80EF11CCB
:102CB00080E5C80ED11C8BECE81681E0F80679F6A9
:102CC000DF91CF911F910F91FF90EF90DF90CF9008
:102CD000BF90AF909F908F907F906F900895CF930B
:102CE000C091F301C2FB992790F9981781F080FBFE
:102CF000C2F9C093F3016091F20184E090E00E9478
:102D00003E306C2F82E290E0CF910C943E30CF9118
:102D10000895CF93DF93C7E6D1E060E0CE010E9433
:102D20003E302196C11584E0D807B9F7DF91CF91E5
:102D30000895CF93DF9300D00F92CDB7DEB7909177
:102D40007302943011F589837B836A839093E90041
:102D50008FEF9091E800815095FD06C095ED9A9512
:102D6000F1F700008111F5CF8091E80085FF0DC0DB
:102D700050E040E063E070E0CE0101960E94710EE9
:102D80008091E8008E778093E8000F900F900F906D
:102D9000DF91CF910895BC0184E00C949916BC0199
:102DA00083E00C9499169C0184E08093E9009FEFE6
:102DB0008091E800915085FD06C085ED8A95F1F778
:102DC00000009111F5CF8091E80085FF0CC050E024
:102DD00040E066E070E0C9010E94710E8091E80059
:102DE0008E778093E8000895CF93DF93EC01809174
:102DF00011018823B1F18091F20187FF32C060E2B6
:102E000084E08093E9008FEF9091E800815095FD78
:102E100006C095ED9A95F1F700008111F5CF8091EC
:102E2000E80085FF1BC08091110170E050E040E098
:102E3000811104C050E040E068E070E0CE010E94E3
:102E4000710E8091E8008E778093E80080E2FE01A9
:102E5000A1E5B2E001900D928A95E1F7DF91CF9163
:102E6000089568E081E0CDCF81E08093E00080E2CA
:102E70008093D8001092C9008FE19EE40197F1F78A
:102E800000C0000087E090EBDC0180938F049093FA
:102E90009004A0939104B093920488E19CE00FB653
:102EA000F894A895809360000FBE90936000FFCFC8
:102EB0006AEE7EEF90E080E00E945C3060E082E0AD
:102EC00090E00E943E3060E083E090E00E943E305F
:102ED0001092EE011092EF011092F0011092F101A8
:102EE00060E084E090E00E943E3060E082E290E0AA
:102EF0000E943E3060E085E090E00E943E3060E05D
:102F000086E090E00E943E306FEF87E090E00E9404
:102F10003E3040E050E0BA0188E090E00E9450303E
:102F200060E08DE090E00E943E3040E050E0BA0169
:102F300088E190E00E94503060E087E190E00E94DC
:102F40003E3040E050E0BA018CE190E00E94503009
:102F500070E060E080E290E00E945C3040E050E091
:102F6000BA0188E190E00E94503040E050E0BA01A0
:102F70008FE090E00E94503040E050E0BA0183E1E1
:102F800090E00C9450301F920F920FB60F921124C4
:102F90002F933F934F935F936F937F938F939F9361
:102FA000AF93BF93EF93FF938091E10082FF09C03D
:102FB0008091E20082FF05C08091E1008B7F8093C9
:102FC000E1008091DA0080FF24C08091D80080FF6A
:102FD00020C08091DA008E7F8093DA008091D90042
:102FE00080FF9BC080E189BD82E189BD09B400FEFC
:102FF000FDCF81E08093730280914E02811109C060
:103000000E94210E0E94EC0E8091E2008460809369
:10301000E2008091E10080FF17C08091E20080FF14
:1030200013C08091E2008E7F8093E2008091E200E5
:1030300080618093E2008091D80080628093D80004
:1030400019BC85E0809373028091E10084FF29C060
:103050008091E20084FF25C080E189BD82E189BDC5
:1030600089B5982F917080FFFBCF8091D8008F7D1C
:103070008093D8008091E1008F7E8093E100809161
:10308000E2008F7E8093E2008091E2008160809375
:10309000E20080917402882309F445C084E08093A3
:1030A00073028091E10083FF27C08091E20083FFDB
:1030B00023C08091E100877F8093E10082E08093CC
:1030C0007302109274028091E1008E7F8093E10080
:1030D0008091E2008E7F8093E2008091E200806127
:1030E0008093E20042E060E080E00E94BA0E8091AE
:1030F000F00088608093F000FF91EF91BF91AF9155
:103100009F918F917F916F915F914F913F912F91FF
:103110000F900FBE0F901F90189519BC109273025C
:1031200010924E0276CF8091E30087FD93E090935A
:103130007302B7CF78941F921FB61F9211248F93FA
:103140009F93AF93BF938091000290910102A09151
:103150000202B09103020196A11DB11D80930002ED
:1031600090930102A0930202B0930302BF91AF912A
:103170009F918F911F901FBE1F9018952FB7F894A5
:103180008091000290910102A0910202B09103028D
:103190002FBF08950E94BE189C0190913802809123
:1031A0003902982B21F0309335022093340290910C
:1031B0003A0280913B02982B21F030933202209307
:1031C0003102E091FC01F091FD01309749F082E07D
:1031D000809336020480F581E02D86E392E0099425
:1031E000089590E080E00E94FE1090E080E00E9450
:1031F000E8101092EB011092EA010E94D10F86E0D4
:10320000E6E3F2E0DF011D928A95E9F710923302BE
:1032100010923002109297010C94CA1860938002A9
:103220007093810280938202909383020C94F11830
:103230000F931F93609180027091810280918202AE
:10324000909183028B019C0106701127222733275E
:10325000063011052105310529F468601F910F9191
:103260000C940E19677FFACF0F931F9341E050E043
:1032700060E070E004C0440F551F661F771F8A95F9
:10328000D2F7CB01BA016095709580959095009129
:10329000800210918102209182023091830260238A
:1032A0007123822393231F910F910C940E199091F7
:1032B000E901809589238093E901282F277039F44B
:1032C000282F082E000C330B9217130621F490912F
:1032D000F30192FF07C08595859585950E94341965
:1032E0001092E90108950F931F9341E050E060E0D0
:1032F00070E004C0440F551F661F771F8A95D2F7F0
:103300008091800290918102A0918202B09183020B
:103310008A019B01082B192B2A2B3B2BC901B801D1
:103320001F910F910C940E196093EE017093EF01B1
:103330008093F0019093F1010C94F1181092EC013C
:1033400080911101ECE6F1E0882359F08091F201BF
:1033500087FF07C08EE1DF011D928A95E9F70C9483
:10336000F11886E0F8CF1F93CF93DF93CDB7DEB788
:10337000AA970FB6F894DEBF0FBECDBF85E792E0E7
:103380002091F100DC012D93CD01B2E08D379B0738
:10339000B9F780917602833009F471C0B8F48130B6
:1033A00009F448C0823009F4B2C08091E80083FF7C
:1033B0003AC180917502909176029A3008F033C13B
:1033C000E92FF0E0E75EFD4C0C94EB2F8A3009F416
:1033D0008DC08B3009F470C0893039F78091750247
:1033E000813219F78091790290917A02009711F059
:1033F0000297D9F68091E800877F8093E80080915A
:10340000E80082FF37C09091F3008091F2000297AC
:1034100029F48091F1008B7F813021F48091F100BB
:10342000809350028091E8008B778093E8000E949F
:103430009B0EBBCF80917502813A09F0B6CF809187
:10344000E800877F8093E8008091790290917A026A
:10345000892B61F460E281E592E070E00E944D0FFB
:103460008091E8008B778093E8009FCF60E090E048
:1034700080E0F3CF809173028111C1CF96CF80910C
:103480007502813A09F091CF8091790290917A0288
:10349000892B09F08ACF8091E800877F8093E8002C
:1034A0008091E80080FFFCCF809111018093F100B2
:1034B0008091E8008E77B9CF80917502813209F052
:1034C00074CF8091790290917A02892B09F06DCFA7
:1034D0008091E800877F8093E8000E949B0E809196
:1034E0007702809311010E949E195FCF809175022F
:1034F000813209F05ACF8091E800877F8093E800FD
:103500000E949B0E8091780280934F024ECF809153
:103510007502813A09F049CF8091E800877F809356
:10352000E8008091E80080FFFCCF80914F02BECF81
:10353000803899F0823809F076C0809179028F70D6
:10354000873008F070C08093E9008091EB0085FB24
:10355000882780F91092E90006C08091710290914D
:103560007202911182609091E800977F9093E80039
:103570008093F1001092F1008091E8008E77B5C140
:10358000882309F4A2C1823009F04DC080917702EE
:103590008111A6C1809179028F702FEF280F2630FC
:1035A00008F041C08093E9002091EB0020FF98C112
:1035B000933031F48091EB0080628093EB0090C1F6
:1035C0009091EB0090619093EB0021E030E001C01E
:1035D000220F8A95EAF72093EA001092EA00809180
:1035E000EB008860EACF81111EC0109177021F772F
:1035F0008091E3008078812B8093E3008091E80044
:10360000877F8093E8000E949B0E8091E80080FFF6
:10361000FCCF8091E30080688093E30082E0111189
:1036200083E0809373028091E80083FF0AC0809159
:10363000E800877F8093E8008091EB0080628093B0
:10364000EB00AA960FB6F894DEBF0FBECDBFDF9198
:10365000CF911F9108958058823028F720917702EA
:10366000309178022C3DE3E03E07A1F583E08A83A8
:103670008AE289834FB7F894DE01139620E03EE09A
:1036800051E2E32FF0E050935700E49120FF03C094
:10369000E295EF703F5FEF708E2F90E0EA30C0F060
:1036A000C7968D939D932F5F243159F74FBF80911B
:1036B000E800877F8093E8006AE270E0CE0101961F
:1036C0000E944D0F8091E8008B778093E800ABCF8C
:1036D000C096E7CF8091790290917A02432F5527C7
:1036E0004330510509F44AC078F54130510509F4D9
:1036F0007AC08BE590E0E7E5F5E14230510509F04D
:1037000092CF2091E800277F2093E80020917B0250
:1037100030917C028217930708F49C0140E0211548
:10372000310509F065C0411163C08091E80082FD58
:10373000C9CF80917302882329F2853019F28091D4
:10374000E80083FFF2CFBECF4132510509F43CC0FF
:103750004232510509F067CF8330910508F063CFFD
:10376000FC01EE0FFF1FE45AFE4F0190F081E02DA7
:10377000875A9E4FDC018C9190E01AC0332721308C
:103780003105D1F02115310561F02230310509F004
:103790004ACFE4ECF5E1E4918E2F90E0E4ECF5E122
:1037A00007C0E6EEF5E1E4918E2F90E0E6EEF5E15C
:1037B000009709F438CFA5CFEAEDF5E1E4918E2F1B
:1037C00090E0EAEDF5E1F4CF8330910508F02BCFDE
:1037D000880F991FFC01EE59FE4F0190F081E02DFA
:1037E00089E090E08ECF82E190E0E2EBF5E189CFD5
:1037F00080917302882309F465CF853009F462CF84
:103800008091E80083FD5ECF8091E80082FD8DCF3E
:103810008091E80080FF83CF9091F3008091F200C7
:103820002115310519F08830910550F041E00897D5
:1038300009F040E08091E8008E778093E8006FCF38
:1038400044914093F1003196215031090196E8CF1F
:10385000803809F0E8CE8091E800877F8093E80007
:10386000809174028093F10087CE8111DCCE10919B
:103870007702123008F0D7CE8091E800877F8093DE
:10388000E800109374020E949B0E112311F084E053
:1038900005C08091E30087FDFACF81E08093730239
:1038A00042E061EC81E00E94BA0E42E261EC84E009
:1038B0000E94BA0E42E261EC82E00E94BA0E42E23D
:1038C00060EC83E00E94BA0EAECE80917702813028
:1038D00009F0A9CE81E0933009F080E08093720274
:1038E0001092E9008091E800877F8093E8000E94B1
:1038F0009B0E99CE1F920F920FB60F9211242F9309
:103900003F934F935F936F937F938F939F93AF9367
:10391000BF93CF93DF93EF93FF93D091E900DF70D4
:103920008091EC00C82FC17080FDC0E81092E900C2
:103930008091F000877F8093F00078940E94B31903
:103940001092E9008091F00088608093F000CD2B08
:10395000CF70C093E900FF91EF91DF91CF91BF91BC
:10396000AF919F918F917F916F915F914F913F9117
:103970002F910F900FBE0F901F901895882309F478
:1039800059C0823871F40E94141181FF53C089E339
:103990000E9441100E94D10F89E30E9416100C94DE
:1039A000D10F833859F40E94141180FF43C083E57E
:1039B0000E9441100E94D10F83E5EFCF843859F463
:1039C0000E94141182FF36C087E40E9441100E94B9
:1039D000D10F87E4E2CF9CEF980F913AF0F290E29A
:1039E000980F983088F4877021E030E0A90102C078
:1039F000440F551F8A95E2F7CA0180959091EC011A
:103A000089238093EC01CBCF9BE5980F933020F472
:103A100090E080E00C94FE1098E5980F973120F428
:103A200090E080E00C94E810803F20F00E9420118C
:103A30000C94CA180895CF93C82F882309F4AEC0F8
:103A40008238C1F40E94141181FDA8C089E30E944C
:103A500041100E94D10F2FEF81EE94E02150804061
:103A60009040E1F700C0000089E30E941610CF915A
:103A70000C94D10F8338A1F40E94141180FD8EC0E4
:103A800083E50E9441100E94D10F2FEF81EE94E058
:103A9000215080409040E1F700C0000083E5E5CF71
:103AA0008438A1F40E94141182FD78C087E40E943A
:103AB00041100E94D10F2FEF81EE94E02150804001
:103AC0009040E1F700C0000087E4CFCF8CEF8C0F6F
:103AD000813A88F580911101882301F18091F201EA
:103AE00087FF1CC0EC2FE695E695E695F0E0E659D9
:103AF000FE4F828190E04C2F477021E030E002C001
:103B0000220F331F4A95E2F782239323892B79F002
:103B10008C2F0E9416100E94D10F09C0ECE6F1E034
:103B20008191C817A9F321E0E237F207C9F78C2F7A
:103B30000E9441109CCF80E28C0F883068F4C770DF
:103B400021E030E001C0220FCA95EAF78091EC0134
:103B5000822B8093EC018BCFEBE5EC0FE33040F44C
:103B6000F0E0EE5EFE4F808190E0CF910C94FE106D
:103B7000E8E5EC0FE73150F4F0E0EE0FFF1FEB5EED
:103B8000FE4F80819181CF910C94E810C03F30F0BE
:103B90008C2F0E94DB11CF910C94CA18CF910895FD
:103BA0001F93CF93DF93182FD0E0C0E0893311F437
:103BB000C0E5D0E0812F0E941B1D209731F4812F9A
:103BC000DF91CF911F910C94BE1C8FE99FE001976C
:103BD000F1F700C000002197F0CF0F931F93CF9310
:103BE000DF93C62FD42F022FFC0182818823A1F0FE
:103BF00060937F020E94BE1890937E0280937D02A4
:103C0000C77081E001C0880FCA95EAF7DF91CF91B4
:103C10001F910F910C94DE1080917F02681335C0C4
:103C200080917D0290917E020E94B00F883C9105A8
:103C300060F510E21D0FCD17B9F080E28C0F8830CF
:103C400040F4C77081E001C0880FCA95EAF70E946E
:103C5000D310183048F481E09D2F977001C0880F71
:103C60009A95EAF70E94DE10802F0E94D01D18302E
:103C700098F4D77081E001C0880FDA95EAF7DF91F8
:103C8000CF911F910F910C94D310C77081E001C0A8
:103C9000880FCA95EAF7F3CFDF91CF911F910F916B
:103CA00008953F924F925F926F927F928F929F9270
:103CB000AF92BF92CF92DF92EF92FF920F931F933A
:103CC000CF93DF9300D000D00F92CDB7DEB78C0139
:103CD000FC0183819481892B31F08081918189233A
:103CE0008F3F09F0F4C50F900F900F900F900F9039
:103CF000DF91CF911F910F91FF90EF90DF90CF90C8
:103D0000BF90AF909F908F907F906F905F904F90FB
:103D10003F9008950E94AA15F82E682F89819A81F4
:103D20000E949D1069817A818F2D0E9413147C015D
:103D3000F8018281882309F45DC0C701905681157E
:103D4000F0E29F0750F0905E811520E1920728F085
:103D5000915C81159F4108F088C0C70199279C019B
:103D6000245031092432310520F08B970E9708F04A
:103D700041C080919301909194010097A9F10E9414
:103D8000B00FD090FF019C0150E040E060E67AEE79
:103D900080E090E00E94CC2FCA01B90125E030E01C
:103DA00040E050E00E94CC2FCA01B9016D197109A1
:103DB000810991090E94103127EA39E747E45DE360
:103DC0000E949C314B015C016D2D70E090E080E021
:103DD0000E9410319B01AC01C501B4010E947330F7
:103DE0000E94DF306093FF010E94BE1890939401FF
:103DF00080939301F8018281882309F459C59701C2
:103E000022513F452031310508F022C58FEF93E064
:103E10000E943030FEEEEF0E57E6852E99249394E3
:103E20008823D1F18091E901877009F45CCFF80112
:103E30008281882309F457CF82E00F900F900F9072
:103E40000F900F90DF91CF911F910F91FF90EF9006
:103E5000DF90CF90BF90AF909F908F907F906F90AA
:103E60005F904F903F900C9457198FEFE816F10434
:103E700021F018F090E080E072CFC70170CF81147C
:103E800024E0920679F2C4010E943030811101C011
:103E9000EA943FEF831A930AE110F1CF1C821B8250
:103EA000442443944AE0342E74018FEFE81AF80A50
:103EB000C4010E94303089831A82882309F4B2CF6A
:103EC0009FEF980F933000F58A83498292E0890E24
:103ED000911CC7010E9430308B83882309F4A2CF44
:103EE000FE0131967F01F70120812223E9F2213082
:103EF00009F049C091818281913041F4F2E0EF0EE6
:103F0000F11C0E94D01D09C04701EACF923049F44C
:103F100022E0E20EF11C0E941B1D3FEFE31AF30AA0
:103F2000E2CF933031F432E0E30EF11C0E94BE1C6C
:103F3000F4CF943021F08FEFE81AF80AEECF92E038
:103F4000E90EF11C30E020E0B7016F5F7F4FF70111
:103F500041818053990B8A30910550F021503109ED
:103F6000E0F28FE99FE00197F1F700C00000F6CF83
:103F7000329EF001339EF00D11249C012E0F3F1F45
:103F8000842F7B01E1CFE22FF0E0E656FB4E549008
:103F9000822F86958695869590E0FC01E657FB4E2C
:103FA00064902770712C022E02C0759467940A9455
:103FB000E2F7E1E06E227724FC01E658FB4EA49084
:103FC000B12C022E02C0B594A7940A94E2F7F1E056
:103FD000AF22BB24FC01E659FB4EC490D12C02C099
:103FE000D594C7942A95E2F721E0C222DD2461141A
:103FF000710419F081EE0E941B1DA114B10419F087
:1040000086EE0E941B1D852D0E94D01DAB2819F045
:1040100086EE0E94BE1C672819F081EE0E94BE1C2D
:10402000CD2809F47ACF8CE26CCF81E00E9473191D
:104030000E941819F7CE81E00E943419F9CF82E06E
:10404000F5CF82E0F9CF95EFE9169CE5F90609F482
:1040500069C008F463C027E245EE66EEF6EFEF169E
:10406000FCE5FF0609F420C4882309F441C410923A
:104070007F0222E0E2162CE5F20608F44CC136E19C
:10408000E3163CE5F30630F0C7018A5F9C450997CB
:1040900008F041C10E94DF139093F3018093F20175
:1040A00080E1E8168CE5F80609F404C108F083C045
:1040B000E8E0EE16ECE5FE0609F4EEC008F04FC0AD
:1040C00024E0E2162CE5F20609F4DEC090F582E069
:1040D000E8168CE5F80609F4D1C08091F2018260FF
:1040E00093E0E9169CE5F90609F4CBC06091F20172
:1040F000F090F30184E090E00E943E306F2D82E268
:1041000090E00E943E300E949E198CCE27E245EE40
:1041100065EECAC326E241EE60EEC6C327E245EE75
:1041200064EEC2C326E241EE62EEBEC328E241E085
:10413000EFCF8091F2018061E6E0EE16ECE5FE063D
:1041400009F49FC08091F2018860F7E0EF16FCE56A
:10415000FF0608F496C08091F201806292C08091BF
:10416000F2018D7F2CE0E2162CE5F20609F489C0FD
:1041700060F48AE0E8168CE5F80609F497C008F4C4
:104180008FC08091F2018E7F7CC08091F201877F89
:10419000EEE0EE16ECE5FE0609F473C08091F20144
:1041A0008B7FFFE0EF16FCE5FF0608F46AC0809104
:1041B000F2018F7E66C02BEFE2162CE5F20609F4C1
:1041C00067C068F583E1E8168CE5F80609F47AC063
:1041D00090F4E1E1EE16ECE5FE0609F46FC0F2E1C1
:1041E000EF16FCE5FF0609F081CF0E949E19809131
:1041F000F2018F7746C025E1E2162CE5F20609F4BC
:1042000069C008F47DC08AEFE8168CE5F80609F06D
:104210006DCF8091F30181608093F30167CF9FEFB1
:10422000E9169CE5F90609F451C0A0F48091F30168
:104230008D7FFDEFEF16FCE5FF0671F38091F30132
:104240008E7F2EEFE2162CE5F20630F38091F3011B
:104250008360E2CF31E0E3163DE5F30609F459C08F
:1042600008F444C060E092E0E9169DE5F90609F023
:104270003DCF8EE090E00E943E3038CF8091F20139
:1042800081608093F20132CF8091F2018460F9CF96
:104290008091F3018260C0CF8091F2018064F1CF00
:1042A0000E949E198091F2018068EBCF8091F2010B
:1042B0008C60E7CF8091F2018F7DE3CF8091F20196
:1042C0008F7BDFCF8091F201837FDBCF8091F30181
:1042D0008C7FA2CF8091F20182FB992790F921E097
:1042E000922790FB82F990FB83F9CBCF8091F30169
:1042F000982F909591708E7F892B90FB81F98CCFB0
:104300000E949E199091F201892F97FB87F980589E
:10431000B8CF61E0AECFE6E1EE16ECE5FE0609F0BF
:10432000F4C28091EC018A7A91E009F490E09093D4
:104330009601811106C089E20E9441100E94D10FAE
:1043400071CD85E3F9CF85E3DDC20E949E19FFEFB1
:1043500024E33CE0F15020403040E1F700C0000091
:104360000E94341781E0F7C280E0F5C2C7010E94C5
:104370007510D82E01C32F2D2F70A22E8F2D807F68
:1043800019F0A29490EFA922DD20C9F0AA2069F0CB
:1043900080E28E0D883010F081100BC08091EC010E
:1043A000A82AA092EC010E94D10F8E2D0E941B1D05
:1043B00019C08091EB01A82AA092EB01F4CF8E2DB9
:1043C0000E94BE1CAA2071F0A09480E28E0D88305D
:1043D00010F081103DC08091EC01A822A092EC0168
:1043E0000E94D10F232D2850330B2430310510F4B7
:1043F0000E941411CC2009F476CC8091E90180FD53
:1044000072CCF80112828595859585950E94731965
:10441000C8010E94511E8091E90185958595859579
:104420000F900F900F900F900F90DF91CF911F91F1
:104430000F91FF90EF90DF90CF90BF90AF909F9043
:104440008F907F906F905F904F903F900C943419B5
:104450008091EB01A822A092EB01C2CF3F2D3F70CB
:10446000932E8F2D807F803219F0929480EF9822C6
:10447000882071F081E0881681F1DD20D9F1AA2031
:1044800091F1F801858180FF90CF8F7085832BC0DB
:10449000DD20B1F09091ED01892D892BA11003C091
:1044A0000E94DE109FCFE1E0AE12FACF2091F3011F
:1044B00022FD98CF981709F495CF8093ED0192CF04
:1044C000A11006C00E94CB0F892D0E94D3108ACF65
:1044D000F1E0AF1609F486CFF5CFDD2031F025E00D
:1044E0002A1508F47FCF892DDBCF34E03A1508F484
:1044F00079CFEACFAA2041F3F9E38F1209C02FEF59
:1045000037EE83E0215030408040E1F700C00000EA
:104510008E2D0E94BE1C66CF8F2D8695869583704A
:1045200061F0813009F05ECFC7019370D11002C0F5
:1045300090E080E00E94E81055CFC7019370D11041
:1045400002C090E080E00E94FE104CCF8E2DDD2056
:1045500029F00E94DB110E94CA1844CF0E9420114A
:10456000FACF8F2D837009F066C0D1103BCF8E2D0E
:10457000829586958770880F880F6E2D6F70462EF6
:10458000512C712C612C082E04C0440C551C661C47
:10459000771C0A94D2F740E050E0BA01E4FE0FC065
:1045A0004FE050E060E070E004C0440F551F661F0C
:1045B000771F8A95D2F740955095609570958F2D0D
:1045C000869586958370823019F1D8F48090EE013B
:1045D0009090EF01A090F001B090F101813069F06E
:1045E0004429552966297729CB01BA016821792107
:1045F0008A219B210E949419F5CE482859286A28BF
:104600007B28CB01BA016429752986299729F2CF25
:1046100044295529662977294090EE015090EF01F1
:104620006090F0017090F101CB01BA01642575250D
:1046300086259725DFCF8695DD2011F08F2D81709F
:10464000882309F4CFCE8E2D829586958770880FAA
:10465000880F6E2D6F70462E512C712C612C082EF8
:1046600004C0440C551C661C771C0A94D2F740E029
:1046700050E0BA01E4FE0FC04FE050E060E070E0AF
:1046800004C0440F551F661F771F8A95D2F74095C7
:104690005095609570958F2D8695869583708230A4
:1046A00019F1D8F48090800290908102A09082024B
:1046B000B0908302813069F0442955296629772911
:1046C000CB01BA01682179218A219B210E940E1910
:1046D00089CE482859286A287B28CB01BA01642949
:1046E000752986299729F2CF4429552966297729E2
:1046F000409080025090810260908202709083020C
:10470000CB01BA016425752586259725DFCF9F2D1E
:104710009F70F92EDD2029F0892F0E9473198E2DAC
:10472000BFCE8E2D0E94D3108F2D0E9434195ACEE9
:104730008E2DE2EF8E1609F457C0E81578F0F0EFF1
:104740008F1649F121EF821609F446C0DD2009F4E5
:104750006FC0A1102ACE8F2D8F7143C033EF831607
:1047600009F447C094EF8912F1CFDD2009F455C058
:104770002F2D2F71F22E822F0E9473198091F30139
:1047800082FD07C038E0F39EC0011124836080934E
:10479000E9018F2D26C0DD20D1F0E4E0EA1508F410
:1047A00021CE2F2D2F7161E070E080E090E004C0F9
:1047B000660F771F881F991F2A95D2F740908002B5
:1047C0005090810260908202709083029BCFF5E04E
:1047D000FA1508F407CEE5CF8F2D8F71DD2009F48F
:1047E000A4CF0E947319FECD8F2D8F71DD20C9F3E8
:1047F0009CCF60E070E0CB01DD2009F467CF2F2D66
:104800002F7161E070E080E090E004C0660F771FD8
:10481000881F991F2A95D2F759CF81E00E94571916
:1048200081E08A1508F0DECD82E00E945719DACDCA
:10483000AA2059F0893309F06BCE9FEFE7EEF3E041
:104840009150E040F040E1F761CE8F2D8F716DCF38
:10485000F0E1EF16FFE5FF0609F4E7CB21E1E216F0
:104860002FE5F20609F4EBCB91E09093950193EFDD
:10487000E9169CE5F90609F44DCC08F0E4CBF8ED17
:10488000EF16FCE5FF0609F441CC29EDE2162CE514
:10489000F20609F44BCC37EDE3163CE5F30609F0DC
:1048A000E3CB26E241EE61EEC8010E94ED1DBACADB
:1048B00030E1E3163FE5F30609F4BDCB91E1E916DB
:1048C0009FE5F90609F4BDCB10929501D0CF85E0A4
:1048D000DE01119601900D928A95E1F7F80122818F
:1048E00089819A81211116CA0E947510F82E1ACA60
:1048F000F6E1EF16FCE5FF0681F580919601811146
:1049000022CD89E20E94161019CD2AE5E2162DE586
:10491000F20609F427CD68F4E1148CE5F80609F4F1
:1049200014CD9EEDE9169CE5F906B9F40E945817DE
:1049300079CAEBE5EE16EDE5FE0609F415CDFCE5CA
:10494000EF16FDE5FF0649F48091F30182FB88270D
:1049500080F991E089270E946F16F8018281E0803A
:10496000F180882309F402CDC7010E94AA15D82E30
:10497000682FC7010E949D10B7018D2D0E94201441
:104980007C01882EF801D280A580A2943FE0A3226A
:104990008091E9018770A1F0CD2CDD2091F08F2D61
:1049A000807F803421F080E28E0D883048F082E0F4
:1049B0000E9457198091E9018770CC24C39481111A
:1049C000C12C3F2C32942FE03222FBE0F31508F487
:1049D00009CDE32DF0E0ED5DFD4C0C94EB2F1F9322
:1049E000CF93DF9380919D01807FA9F480919A01FC
:1049F000882389F08091CF01D0919E016091980128
:104A000070919901A0919B01B0919C01C62FC72381
:104A100016E0D81304C0DF91CF911F91089590E064
:104A2000109711F0CF3F19F401968770F2CF189FBD
:104A30009001199F300D1124F901E156FE4F41817B
:104A40004713F2CF40814613EFCF42814111ECCFA3
:104A5000438154814A1B5B0B483C510528F78091E8
:104A60009D018F70806180939D01F901EC55FE4F8F
:104A700080818F708061808388E991E00E94511E5F
:104A8000DF91CF911F910C94C910AF92BF92CF923A
:104A9000DF92EF92FF920F931F93CF93DF93CDB7E7
:104AA000DEB761970FB6F894DEBF0FBECDBF8C01A5
:104AB00085E0F801DE011D9601900D928A95E1F7DF
:104AC000F80180819181E28028E9A22E21E0B22EB6
:104AD00060919B0170919C016115710509F43EC1C3
:104AE0003091980140919901232F24232F3F09F4FD
:104AF00035C1C380D480F0909A01F601E61BF70B14
:104B0000FF2009F4FBC020919D01522F507FE83C0B
:104B1000F10508F0BBC0511178C0FE2C491321C02B
:104B200038131FC0E1101DC02F70206120939D011C
:104B3000C5010E94511E80919D01F80185838F2D32
:104B400061960FB6F894DEBF0FBECDBFDF91CF9157
:104B50001F910F91FF90EF90DF90CF90BF90AF909B
:104B60000895CD2829F0282F29232F3F09F014C1BB
:104B700020E0F22FF170DF2E20FF3DC02091CF0109
:104B800040919E0156E0241315C08D879E878D8528
:104B90009E850E94EC15292F22952F702230F8F067
:104BA000243020F59F70F9F0F8019581907FD9F4B9
:104BB000D12C1FC030E0529FF001539FF00D112403
:104BC000E156FE4F6181961306C06081861303C0D3
:104BD0006281E61210C02F5F3F4F2770D4CF9F70C5
:104BE00011F0882329F3805E883010F3C8010E94F9
:104BF000511EFD2CA4CFEE2009F4A1CF80919D0180
:104C0000816080939D01F12C9ACF491312C0381313
:104C100010C0E1100EC0F8012583C8010E94511E8A
:104C200086E0F801A8E9B1E001900D928A95E1F7DC
:104C300086CF8D879E878D859E850E94F615882359
:104C400009F1EE20F9F080919D01803270F0209101
:104C500098013091990138872F831986DB86CA869F
:104C60008C87CE0107960E94511E86E0F801A8E9C4
:104C7000B1E001900D928A95E1F70E94EF24FF24A4
:104C8000F3945DCFC8010E94511EF9CF51110AC0A3
:104C900088E991E00E94511E86E0F50111928A9503
:104CA000E9F7B1CF49130FC038130DC0E1100BC0A5
:104CB000F8012583C8010E94511E86E0F50111927A
:104CC0008A95E9F73CCF8D879E878D859E850E94CA
:104CD000F6158823B9F2EE20A9F280919D01803269
:104CE00020F220919801309199013A8329831B8207
:104CF000DD82CC828E83CE010196B5CFE83CF105F2
:104D0000E0F6FE2CEE2009F4BDCF491316C038138F
:104D100014C080919D0180FD83CF982F907F09F46E
:104D20007FCFF8018583903F09F477CF982F907F4C
:104D3000905F8F70892B858370CF8D879E878D853F
:104D40009E850E94F615811190CF80919D01816012
:104D500080939D01C8010E94511EF1CEEE2009F4FE
:104D600091CF8D879E878D859E850E94F615F82EA2
:104D7000882309F487CF86E0F801A8E9B1E0019023
:104D80000D928A95E1F780919801909199010E9486
:104D9000EC150E94EF24D3CE21E02E25EACE1F93FE
:104DA000CF93DF93CDB7DEB767970FB6F894DEBF2A
:104DB0000FBECDBF342F4B8B252F5C8B6D8B7E8B25
:104DC0008F8B8E899F8961111092EB011A8A198A43
:104DD0003D872E876F87998B888B86E0FE013D96F5
:104DE000DE01179601900D928A95E1F7CE010796A4
:104DF0000E944525882389F016E08091CF0190918B
:104E00009E01891349C067960FB6F894DEBF0FBEA6
:104E1000CDBFDF91CF911F91089586E0FE013796B7
:104E2000DE01119601900D928A95E1F78A859B85A6
:104E3000892B11F38F81988589238F3FE9F2209187
:104E40009E0130E0C9010196877099274091CF01FA
:104E50004817190671F40E949E1910929E01109233
:104E6000CF0186E0E8E9F1E0DF011D928A95E9F7DC
:104E7000C3CF96E0929FD001939FB00D1124A1560D
:104E8000BE4FFE01319601900D929A95E1F7809305
:104E90009E010E94C910B0CF819FC001112481568C
:104EA0009E4F0E944525882309F4ADCF8091CF0104
:104EB00090E00196877099278093CF019ECF8F92C3
:104EC0009F92AF92BF92DF92EF92FF920F931F9348
:104ED000CF93DF93C3E4D1E004EF11E0D12CEE24B3
:104EE000E394F12C8991F894E82FE295EF70F0E0CB
:104EF00021A18F70A70102C0440F551F8A95E2F7C8
:104F0000CA01922F982B91A392A18095892382A305
:104F1000789400C0E7E4F1E030E020E0B12CA12C6F
:104F20004191A42FA295AF70B0E090968C9190E043
:104F30004F7002C0959587954A95E2F780FD5EC057
:104F4000C701022E02C0880F991F0A94E2F7A82A0F
:104F5000B92A2F5F3F4F2A30310511F7FE013197F3
:104F600080810E94351250EA5A95F1F7F80180814C
:104F70009181A816B90609F444C0B182A08281E0EB
:104F8000D82A0E5F1F4FF1E0C734DF0709F0AACF20
:104F9000DD20C9F181E080938E010E94BE189093BC
:104FA0008D0180938C0180918C0190918D010E94E4
:104FB000B00F069760F18091F4019091F501909304
:104FC0004702809346028091F6019091F7019093F9
:104FD0004902809348028091F8019091F9019093E1
:104FE0004B0280934A028091FA019091FB019093C9
:104FF0004D0280934C0210928E0109C090E080E037
:10500000A6CF80E0BDCF80918E018111CCCF809161
:105010009301909194010E94B00F893E934060F1FA
:105020006091FF01C62FD0E0662777276C1B7D0BB0
:10503000072E000C880B990B0E94103127EA39E7E4
:1050400047E45DE30E949C314B015C01BE01DD0F32
:10505000880B990B0E9410319B01AC01C501B40172
:105060000E9473300E94DF306093FF010E94BE18DF
:1050700090939401809393018D2DDF91CF911F9197
:105080000F91FF90EF90DF90BF90AF909F908F9027
:105090000895CDB7DEB7AC970FB6F894DEBF0FBE5C
:1050A000CDBF84B7877F84BF0FB6F894A895809151
:1050B0006000886180936000109260000FBE80E8FD
:1050C00090E00FB6F89480936100909361000FBE5A
:1050D00085B7806885BF85B7806885BF8BEA9FE00C
:1050E00090936901809368010E94210E0E94EC0E4A
:1050F0008091E20084608093E20078948091730252
:105100008823A1F01091E9001F709091EC00892F85
:10511000817090FD80E8182B1092E9008091E800E2
:1051200083FD0E94B3191F701093E90082E084BDD3
:1051300093E095BD9AEF97BD80936E0085E30E9442
:10514000351284E30E94351282E30E94351286E311
:105150000E94351207E411E071E5E72E71E0F72EA9
:10516000D8018D918D010E943512E016F106C1F72C
:105170001092F5011092F40110924702109246022B
:105180001092F7011092F601109249021092480213
:105190001092F9011092F80110924B0210924A02FB
:1051A0001092FB011092FA0110924D0210924C02E3
:1051B00090E080E00E9438308A3E9E4F11F00E94BD
:1051C000581782E090E00E94303080933D020E94A8
:1051D000DF139093F3018093F2010E945F27EFEFBA
:1051E000F6E721E0E150F0402040E1F700C0000088
:1051F0000E945F278091460280FF17C06FEF83E215
:1052000090E00E943E306FEF84E290E00E943E30DA
:105210006FEF85E290E00E943E306FEF7FEF90E00D
:1052200080E00E945C300E94341783E090E00E948E
:105230003030682F70E090E080E00E94941983E2A3
:1052400090E00E943030843209F036C584E290E06C
:105250000E943030833009F02FC585E290E00E9433
:105260003030853209F028C582E08093280280E83A
:10527000809384020E94AF2E6DE070E08DE295E194
:105280000E94C612892BE9F58091280263E070E044
:1052900081FD25C18AE295E10E94C612892B89F51C
:1052A0006DE070E08AE195E10E94C612892B49F514
:1052B0000E94BF0F605A75418F4F9F4F60932A0223
:1052C00070932B0280932C0290932D02EDE8F2E074
:1052D00080E092E0DF019C011D9221503040E1F717
:1052E000F0938E04E0938D048FEF9FEF90938C02E8
:1052F00080938B0281E080932F0280932E02109284
:10530000290287E091E09093FD018093FC0158E130
:10531000852E912C6DE8462E62E0562E8091730208
:1053200000E112E1853009F415C10E945F27D82EF3
:1053300081110E94BF0FA6E4B2E0EEE3F2E010E0BC
:1053400000E0702F8D919D9121913191281739079F
:1053500009F410C12827392760E0EE24E394F12CEA
:10536000A70142235323452B09F4FEC069A37AA366
:1053700097012823392391E0232B09F490E09BA384
:105380000E94BE188160782F9DA38CA349A15AA1C9
:105390006BA18DA10E94CF26000F111FF801E25CC6
:1053A000FD4F80819181E826F926F182E08280918B
:1053B0002F02882309F432C150928E0440928D044A
:1053C0008091FF0181110E94F612409104025091D8
:1053D000050260910602709107022FB7F894809140
:1053E000000290910102A0910202B09103022FBF2E
:1053F000841B950BA60BB70B893C9105A105B10544
:1054000060F00E94BF0F60930402709305028093C6
:105410000602909307020E948F1250928E044092CF
:105420008D044091800250918102609182027091BE
:105430008302CB01AA27BB270097A105B10509F478
:10544000B0C0AC01BD0180E1052F162F272F3327F7
:10545000011511052105310519F0885FB901A80171
:105460008A019B01B4E03695279517950795BA9563
:10547000D1F7011511052105310519F08C5FB9012E
:10548000A8018A019B01A2E03695279517950795FB
:10549000AA95D1F7011511052105310519F08E5F87
:1054A000B901A8017695679557954795452B462BE9
:1054B000472B09F08F5F813009F4B4C1882309F4C8
:1054C00072C0823009F4B1C1833009F4B1C18AE3FA
:1054D00095E10E949F1381E00E94AD1368C087E2AE
:1054E00095E1DACE80917302843011F11092FE01C1
:1054F00030E40FB6F894A895809260000FBE309308
:10550000600083B7817F846083BF83B7816083BF7E
:105510007894889583B78E7F83BF0FB6F894A8954B
:1055200080916000886180936000109260000FBEDF
:1055300080917202882371F00E945F27E6E4F2E016
:1055400081919191892B09F0A1C38EE492E08E178D
:105550009F07B1F780917302853009F4C3CF0E9491
:105560009E190E941411E1CE6F5FEE0CFF1C6A3091
:1055700009F0F6CE0F5F1F4F0430110509F0E1CEA0
:105580008FEF8EA38FA318A60E94BE188160782F7C
:105590009AA789A74EA15FA168A58AA50E94CF26D8
:1055A00006CF80E051CF80E595E10E949F13809166
:1055B0002F02882371F020918B0230918C022115EB
:1055C000310539F08091290261E070E0882309F407
:1055D00033C180912E02882309F10E94BF0F0091F0
:1055E0002A0210912B0220912C0230912D02601B77
:1055F000710B820B930B6F3F7F4F8F4F9F4770F460
:1056000080912F02882351F062E070E085E595E1FA
:105610000E94C612892B11F410922E02D1100E9402
:10562000F61286E0E6E3F2E0DE01119601900D92BB
:105630008A95E1F7F0903802E090390210913A0231
:1056400000913B02109238021092390210923A02F5
:1056500010923B028F2D8E2909F448C080913402AC
:10566000909135020E94B00F9C01909133029923D2
:1056700009F449C323333105C8F19F3F19F09F5FF7
:1056800090933302FF2059F00E94BB119FEF1F142B
:105690000CF491E0899F802D112480933802EE2034
:1056A00059F00E94BB119FEF1E140CF491E0899FEA
:1056B000802D112480933902309138023323B1F0C8
:1056C00020913902222391F045EB3403C0011124CB
:1056D000992309F478C19093380245EB2403900193
:1056E0001124332309F473C130933902812F802BA5
:1056F00009F448C080913102909132020E94B00FAB
:105700009C0190913002992309F4F8C225363105A5
:10571000C8F19F3F19F09F5F90933002112359F019
:105720000E9499119FEF11160CF491E0899F802D32
:10573000112480933A02002359F00E9499119FEF9F
:1057400010160CF491E0899F802D112480933B0268
:1057500030913A023323B1F020913B02222391F0A1
:1057600045EB3403C0011124992309F434C190930B
:105770003A0245EB240390011124332309F42FC18D
:1057800030933B028091380290913902892B90919D
:105790003A02892B90913B02892B11F00E94CA1882
:1057A00086E0FE013196A6E3B2E001900D928A9563
:1057B000E1F70E94141190913C02891721F00E9498
:1057C000141180933C0280917302843009F0A6CDBD
:1057D00083E08093E9008091E80082FF9FCD809173
:1057E000E80090E085FF0CC00E94400E30E2E32EFE
:1057F000F12C8E010F5F1F4F882309F4FEC091E04A
:105800008091E8008B778093E800992309F486CD96
:10581000E981E150E33108F06DC1F0E0E15DFD4C5C
:105820000C94EB2F8CE495E1C0CE88E495E1BDCEDD
:1058300084E495E1BACE8F5F082F10E07B01082E3B
:1058400002C0EE0CFF1C0A94E2F7A9014E215F2171
:10585000452B89F39091280290FD43C08295880FD3
:105860008076809302019801369527953695279585
:1058700020930501815E809303011092060124E6C6
:1058800030E047E050E060E071E088E70E94402FA0
:10589000892B09F09ECEA80175E0440F551F7A951B
:1058A000E1F78091280280FD2AC043575D4F04E64E
:1058B00010E020E230E060E488E70E94672F892B47
:1058C00009F087CE0E94F612E094F09480918B024A
:1058D00090918C02E822F922F0928C02E0928B02E5
:1058E00078CE880F880F880F8093020110920501EF
:1058F000895F8093030183E080930601C0CFE8E0D5
:10590000F2E080E2DF011D928A95E9F7E5E5F1E03A
:10591000FCA7EBA701E511E0ABA5BCA52D91BCA7A9
:10592000ABA7F80121908F01240E352E311CC10147
:1059300083579D4F1C01E22FF0E0E85FFD4F30E000
:1059400020E067E0662E621ACC24C394022E01C0C8
:10595000CC0C0A94EAF7510190E0D5018D915D01DC
:105960008C21662D691B6770762E062E000C770B36
:10597000B82F01C0BB0F7A94EAF77B2E7195619521
:1059800071096770772701C086956A95EAF7782ACA
:105990008081782A70829F5F9830F9F62F5F3F4FA1
:1059A00031962830310569F6E9E5F1E02BA53CA5F3
:1059B000E217F30709F0B0CF04E610E020E230E090
:1059C00048E052E078CF81E08093380286CE81E0D3
:1059D000809339028BCE81E080933A02CACE81E077
:1059E00080933B02CFCE8091F100D8018D938D0141
:1059F000B1E0EB1AF10809F402CF8091E80085FDCF
:105A0000F2CF8091E8008B778093E8000E94400EEF
:105A1000882399F3F4CE1A8289E08B8336C08A8179
:105A2000823009F462C1833061F0813009F062C0D4
:105A30000E94BF0F0E94F12F6B837C838D839E8316
:105A400024C0809146029091470298278927982781
:105A50009C838B83809148029091490298278927E3
:105A600098279E838D8380914A0290914B029827BC
:105A70008927982798878F8380914C0290914D02B7
:105A80009827892798279A8789878091730284307D
:105A900009F044CC1091E9001F709091EC00892F1F
:105AA000817090FD80E8182B82E08093E90080915E
:105AB000E80080FF0DC050E040E060E270E0CE0101
:105AC00001960E94710E8091E8008E778093E80025
:105AD0001F701093E90022CC8A81823059F46B81C7
