:100000000C9425080C946C080C946C080C946C08E7
:100010000C946C080C946C080C946C080C946C0890
:100020000C946C080C946C080C9494190C94501952
:100030000C943B2D0C946C080C946C080C946C087C
:100040000C946C080C946C080C946C080C946C0860
:100050000C946C080C946B1A0C946C080C946C083F
:100060000C946C080C946C080C946C080C946C0840
:100070000C946C080C946C080C946C080C946C0830
:100080000C946C080C946C080C946C080C946C0820
:100090000C946C080C946C080C946C080C946C0810
:1000A0000C946C080C946C080C946C080501098085
:1000B000A101850319012AB700150126B700950192
:1000C00075108100C0050C0901A101850419012AE0
:1000D000A002150126A002950175108100C005013E
:1000E0000906A1018505050719E029E71500250185
:1000F0009508750181020507190029EF15002501F2
:1001000095F075018102050819012905950575010C
:100110009102950175039101C00660FF0961A1017B
:100120000962150026FF00952075088102096315F4
:100130000026FF00952075089102C005010906A15F
:1001400001050719E029E7150025019508750181CA
:10015000029501750881010507190029FF15002680
:10016000FF00950675088100050819012905950508
:1001700075019102950175039101C0000101010112
:100180000101010101020202020202020202030352
:100190000303030303030404040404040405050522
:1001A00005050606060606070707070708080808E4
:1001B000090909090A0A0A0B0B0B0C0C0C0D0D0D91
:1001C0000E0E0E0F0F0F1010111111121213131427
:1001D00014151516161717181819191A1A1B1B1C9F
:1001E0001D1D1E1E1F2020212222232424252626F9
:1001F000272829292A2B2C2D2D2E2F30313232332E
:100200003435363738393A3B3C3D3E3F4041424336
:100210004445464748494A4C4D4E4F50515354551A
:100220005658595A5B5D5E5F616264656668696BCA
:100230006C6D6F7072737577787A7B7D7E80828348
:100240008587888A8C8E8F91939596989A9C9EA08C
:10025000A2A3A5A7A9ABADAFB1B3B5B7BABCBEC099
:10026000C2C4C6C9CBCDCFD1D4D6D8DBDDDFE2E462
:10027000E7E9EBEEF0F3F5F8FAFDFFFFAA7F554052
:100280002223252628292A2C2D2F303233353638A3
:100290003A3B3D3E4042434547494A4C4E505153FC
:1002A0005557595A5C5E6062646668696B6D6F7120
:1002B000737577797B7D7F81838587898A8C8E9022
:1002C000929496989A9C9E9FA1A3A5A7A8AAACAE2B
:1002D000AFB1B3B4B6B8B9BBBCBEBFC1C2C3C5C66B
:1002E000C7C9CACBCCCDCED0D1D2D2D3D4D5D6D714
:1002F000D7D8D9D9DADADBDBDBDCDCDCDCDCDDDD52
:10030000DDDDDCDCDCDCDCDBDBDBDADAD9D9D8D741
:10031000D7D6D5D4D3D2D2D1D0CECDCCCBCAC9C7E3
:10032000C6C5C3C2C1BFBEBCBBB9B8B6B4B3B1AF1A
:10033000AEACAAA8A7A5A3A19F9E9C9A98969492BA
:10034000908E8C8A89878583817F7D7B7977757391
:10035000716F6D6B6968666462605E5C5A5957556F
:100360005351504E4C4A4947454342403E3D3B3A2B
:100370003836353332302F2D2C2A292826252322B2
:1003800014001A000800150017001C0018000C00CB
:100390001200130004001600070009000A000B00F9
:1003A0000D000E000F0028001D001B0006001900A4
:1003B0000500110010000151E1002C0001000100B6
:1003C0000100010001000100010001000100010025
:1003D0000100010001000100010001000100010015
:1003E0000100010001000100010001000100010005
:1003F00001000100010001000100010001000100F5
:1004000001000100010001000100010001000100E4
:1004100001000100010001000100010001000100D4
:1004200001000100010001000100010001000100C4
:1004300001000100010001000100010001000100B4
:1004400001000100010001000100010001000100A4
:100450000100010001000100010001000100010094
:100460000100010001000100010001000100010084
:1004700000AF0000000000000000000000000000CD
:10048000000000000000000000000000000000006C
:100490000000000000007E0F00D4FFFFFFC7000037
:1004A000007800000000000000002A2B2800000057
:1004B0000000000000000000000000000029000013
:1004C00000002C1E3420212224342627252E362DF0
:1004D0003738271E1F202122232425263333362E8A
:1004E00037381F0405060708090A0B0C0D0E0F10FC
:1004F0001112131415161718191A1B1C1D2F313041
:10050000232D350405060708090A0B0C0D0E0F10E4
:100510001112131415161718191A1B1C1D2F313020
:10052000354C00DA0281FFD9F1DB20A4A62EAF0002
:10053000A0C000A1C800AED580A81FD300408D1474
:1005400020001E0F0500047F3F1F64321464321424
:10055000783C1E1E140A0500000000000000000088
:10056000000000000000FE01E2448810E0000000EE
:100570000000000000000000000080407E01FE003E
:1005800000003048848487403F0001020100008061
:10059000404080000000000000030408080403003D
:1005A000F008888888889020C000008040209F0044
:1005B00006F2888700000000000000001824424274
:1005C00043203F48848487403F00000708D3242C01
:1005D000C002EE201F00000000000000000000002C
:1005E0000000000000000000000000000001020404
:1005F00004020100000000000000000080408000B4
:10060000000000000000F804881020408000000076
:10061000000000000000000000C020101F00FF00CC
:100620000000C02010101F00FF0106080700C020B6
:10063000909020C0000000000000010202010000B4
:10064000C020202122224281000000E010C82700A3
:1006500001BCA221C000000000000000609008085A
:100660000F80FE2212121E00FF0000010274890B8F
:1006700030807B080700000000000000000001013E
:100680000100000102020201000000000000000160
:1006900001000000000000556E646566696E6564C7
:1006A0000020464E320A0020464E310A00204D619D
:1006B000696E0A004C617965720A0000000000E072
:1006C000100808C8B08080808080808040403C1442
:1006D000040890180408B0408000000000000001E9
:1006E00002C4A4FC00000000800000000000000024
:1006F000000080C858282A100F00000000000000E9
:100700000E09040404040203020101020204081099
:10071000262B320405060000000000000000E01057
:1007200010F00000000000000000808080782808A1
:10073000102030081020408000000000000003045A
:10074000081011F901010101010100000000000081
:1007500000000110B05055201F00000000000000F4
:100760000000000001020C10202837021E20201873
:100770000C141E010000000000000000000000003A
:1007800080402010909090A0C08080807008140855
:1007900090101008A4788000000000000000000005
:1007A0000708FC01000000008000000100000000BC
:1007B00000000818EA100F00000000000000000010
:1007C0000000031C20203C0F111F03061820203CB2
:1007D0000C121E01000000000000000000000000DC
:1007E000008040202020408000000000E010281001
:1007F0002020201048F00000000000000000000051
:100800001F20F802010101010101010300000000A5
:1008100001001030D5201F00000000000000000083
:1008200000003F20300C020509121E021C140810A3
:10083000202C320100000000000000000000000039
:10084000000000000000000000E01C02050224047B
:100850000402A91EE00000000000000000000000EB
:1008600000E0100868100804030000000000000009
:100870000206827C0300000000000000000000006F
:10088000000102040C1010202020283E1C20203ED5
:100890000F111F0000000000000000000000000019
:1008A000000000000000000000E01C02050224041B
:1008B0000402A91EE000000000000000000000008B
:1008C000E090081860100804030000000000000019
:1008D000020E827C03000000000000000000000007
:1008E000000102040C1010202020283E1C20203E75
:1008F0000F111F00000000000000000000000000B9
:1009000000804040404080000000000000C04040A7
:100910008000804080000000000000000000001EF9
:1009200021F0040202020203020204040403010093
:100930000009018080AB04F8000000000000000006
:1009400000031C20203C0F111F020618202038082D
:100950001018040402020100000000000000000062
:1009600000804040408000000000000000E0A02027
:100970004080C02040800000000000000000003ED9
:1009800041F0040202020302020204040201000018
:10099000000400404055827C000000000000000080
:1009A000003F20300C020509121E04181008102008
:1009B000283406020101000000000000C02010D011
:1009C00030000000000000008080403C14040890CB
:1009D000180408B040800000000000000304081064
:1009E00011F9010101010101000000000000008077
:1009F000C848282A100F0000000000000000000076
:100A0000000001020C102028370202040810262BD7
:100A1000320405060000000000000000E01010F0A5
:100A20000000000000000000808040402C140408FA
:100A300090180408B0408000000000000304081073
:100A400011F9010101010101000000000000000096
:100A500080C048282A100F204A091000000000001A
:100A6000000001020C102028370202040810262B77
:100A7000320405060000000000000000AE09025B21
:100A800000030100A0FA09040000010301010009AC
:100A900021110100012240000705810308000A0915
:100AA00004010002030000000921110100012222BB
:100AB0000007058203200001070503032000010948
:100AC0000402000103000000092111010001226D50
:100AD000000705840320000A12011001000000082D
:100AE000EDFE10000100010200010E03590061003B
:100AF0006E0067003300300000000A034C00650000
:100B000041004B0000000403090407087F080700A8
:100B10003E5B4F5B3E003E6B4F6B3E001C3E7C3E9F
:100B20001C00183C7E3C18001C577D571C001C5EA6
:100B30007F5E1C0000183C180000FFE7C3E7FF00C1
:100B4000001824180000FFE7DBE7FF0030483A06F2
:100B50000E00262979292600407F05050700407FE1
:100B600005253F005A3CE73C5A007F3E1C1C08000C
:100B7000081C1C3E7F0014227F2214005F5F005F70
:100B80005F0006097F017F00006689956A0060604A
:100B90006060600094A2FFA2940008047E04080034
:100BA00010207E20100008082A1C0800081C2A08B3
:100BB00008001E10101010000C1E0C1E0C00303807
:100BC0003E383000060E3E0E060000000000000019
:100BD00000005F000000000700070000147F147F82
:100BE0001400242A7F2A1200231308646200364965
:100BF00056205000000807030000001C224100009E
:100C00000041221C00002A1C7F1C2A0008083E0804
:100C10000800008070300000080808080800000084
:100C2000606000002010080402003E5149453E006B
:100C300000427F4000007249494946002141494D28
:100C400033001814127F10002745454539003C4AEF
:100C50004949310041211109070036494949360007
:100C6000464949291E0000001400000000403400DD
:100C70000000000814224100141414141400004150
:100C8000221408000201590906003E415D594E0038
:100C90007C1211127C007F49494936003E41414196
:100CA00022007F4141413E007F49494941007F097F
:100CB000090901003E41415173007F0808087F0087
:100CC00000417F4100002040413F01007F08142285
:100CD00041007F40404040007F021C027F007F04B3
:100CE00008107F003E4141413E007F09090906008E
:100CF0003E4151215E007F09192946002649494994
:100D0000320003017F0103003F4040403F001F20AD
:100D100040201F003F4038403F0063140814630028
:100D20000304780403006159494D4300007F4141A9
:100D30004100020408102000004141417F000402EC
:100D4000010204004040404040000003070800004A
:100D50002054547840007F284444380038444444A8
:100D60002800384444287F003854545418000008A0
:100D70007E09020018A4A49C78007F08040478006F
:100D800000447D4000002040403D00007F1028448A
:100D9000000000417F4000007C04780478007C085B
:100DA00004047800384444443800FC182424180013
:100DB00018242418FC007C080404080048545454E7
:100DC000240004043F4424003C4040207C001C20BC
:100DD00040201C003C4030403C0044281028440087
:100DE0004C9090907C004464544C44000008364180
:100DF00000000000770000000041360800000201FA
:100E0000020402003C2623263C00000000000000F3
:100E1000404040F0F8F8FF38FFF8F83FF8F8FF38A6
:100E2000FFF8F8F040404000000000000080C0C023
:100E3000C0800000C0C08000000080C0C000C0C0F2
:100E4000000080C0C00000000000C0C0C0C0C000E2
:100E5000C0C0000000000000000000000000000012
:100E60000000000000000000000000000000000082
:100E70000000000000000000000000000000000072
:100E8000000000000000000000C0F0F8FC3E1E065C
:100E9000010000007F4141417F007F4141417F00CF
:100EA0000080C0E07E5B4F5BFEC00000C000DCD76E
:100EB000DEDEDED7DC00C000000000000000000025
:100EC0000000000000000000000000000000000022
:100ED000494949FFFFFFFFE0DFBFBF00BFBFDFE0C1
:100EE000FFFFFFFF49494900000000001F3F60600D
:100EF000E0BF1F007F7F071E381E077F7F007F7FB8
:100F00000E1F3B716000000000007F7F0C0C0C0086
:100F10007E7E007F7E0303007F7E03037E7E0303CD
:100F20007F7E000F3E703C063C703E0F00327B49D6
:100F3000493F7E007F7E0303001E3F69696F2600E4
:100F4000000000000000000000030F1F3F3C78700D
:100F5000600000007F4141417F007F4141417F00AF
:100F6000307B7F7830202030787F3B0003000F7F7C
:100F70000F0F0F7F0F0003000000000000000000B3
:100F80000000000000000000000000000000000061
:100F9000010101070F0F7F0F7F0F0F7E0F0F7F0FD4
:100FA0007F0F0F070101010000000000000000009A
:100FB000000101000000000000000000000000002F
:100FC0000000000000000000000000000000000021
:100FD0000000000000000000000000000000000011
:100FE0000000000000000000000000000000000001
:100FF00000000000000000000000000000000000F1
:1010000000000000000000000000000000000000E0
:1010100000000000000000000000000000000000D0
:1010200000000000000000000000000000000000C0
:1010300000000000000000000000000000000000B0
:101040000000000000000000000011241FBECFEFD0
:10105000DAE0DEBFCDBF04B603FE27C08091C8042E
:101060009091C904A091CA04B091CB048730904BF1
:10107000A740B04BD1F41092C8041092C90410924A
:10108000CA041092CB0414BE84B7877F84BF0FB606
:10109000F894A89580916000886180936000109218
:1010A00060000FBEE0E0F8E3099524E0A4EAB1E0B7
:1010B00001C01D92A83CB207E1F711E0A0E0B1E049
:1010C000EAE2F3E602C005900D92A43AB107D9F71F
:1010D0000E945A260C945C310C940000E8EDF0E07C
:1010E00080818E7F80831092E2001092DA0010924D
:1010F000E100A0EEB0E08C9181608C9380818F77CD
:10110000808319BCA7EDB0E08C918E7F8C93808199
:101110008F7E80831092870208952091E4003091A1
:10112000E50095E6A9012091EC00822F817020FF57
:1011300006C08091E80080FF06C080E008952091FD
:10114000E80022FD1AC08091AC02882389F0853026
:1011500089F08091EB0085FD0FC02091E400309173
:10116000E50042175307F9F29150E1F684E0089543
:1011700082E0089583E0089581E00895EF92FF9260
:101180000F931F93CF937C018B010E948D08C82F72
:10119000811117C08091E80085FD0BC08091E800A7
:1011A0008E778093E8000E948D08882399F3C82FDA
:1011B00008C0F70181917F018093F100015011096E
:1011C00049F78C2FCF911F910F91FF90EF900895C9
:1011D0008091AE0287FF13C08091E80082FF06C0B5
:1011E0008091E8008B778093E80004C08091AC0286
:1011F0008111F2CF08958091AC028823D9F38091B8
:10120000E80080FFF8CF8091E8008E77ECCF982F30
:101210009093E900242F762F50E0891731F07091D8
:10122000EC002091ED005091F00021FD07C09F5F80
:10123000973071F78093E90081E008953091EB00D9
:101240003E7F3093EB003091ED003D7F3093ED0019
:101250003091EB0031603093EB007093EC00209301
:10126000ED005093F0002091EE0027FDE0CF80E0EC
:101270000895CF92DF92EF92FF920F931F93CF9337
:10128000DF93C8EDD0E088818F7E8883E7EDF0E0C2
:1012900080818160808384E082BF81E080938702C7
:1012A00088818E7F888302EE10E0F8011082109210
:1012B000DA0081EEC82ED12CF601108288818F775A
:1012C000888388818068888388818F7D888319BC22
:1012D0001092AC021092AD021092AB021092AA02D0
:1012E00090EEE92EF12CF70180818B7F808388813D
:1012F0008160888342E060E080E00E940709F60197
:1013000080818E7F8083F8018081816080838081ED
:1013100088608083F70180818E7F808388818061EF
:101320008883DF91CF911F910F91FF90EF90DF9015
:10133000CF900895FC018091B4029091B502861778
:101340009707A0F06115710529F49091E8009E7748
:101350009093E80090E06115710551F4911108C077
:101360008091E80082FF34C080E00895BC01F2CF94
:101370008091AC028823C1F18530C1F18091E800F1
:1013800083FD30C08091E80082FDEACF8091E800C3
:1013900080FFE1CF8091F3002091F200382F61159A
:1013A000710519F02830310558F091E028303105E9
:1013B00009F090E02091E8002E772093E800CBCF51
:1013C00081918093F100615071092F5F3F4FE7CF0A
:1013D0008091AC02882341F0853041F08091E80093
:1013E00083FFBECF81E0089582E0089583E00895F1
:1013F000089580E00895089580918902089587E70F
:1014000097E7909301088093000888E19AE00FB66F
:10141000F894A895809360000FBE90936000FFCF72
:101420009C014FB7F8948091300290913102A091C5
:101430003202B09133024FBF821B930B08952FB736
:10144000F894609130027091310280913202909153
:1014500033022FBF089580912B02811110922B022D
:10146000089580912A0290912902892B9091280257
:10147000892B8093A60190912B029923A1F0892BAF
:101480008093A60180912301882341F18091340249
:1014900087FF24C08EE1E8EAF1E090E0815000F59A
:1014A00091110E942B0AE0914502F091460230977B
:1014B000E1F080912301882359F08091340287FF65
:1014C00007C08091A6018093A70185E08093A601C3
:1014D0000280F381E02D86EA91E0099486E0DBCF7B
:1014E00021912223D9F29F5FD9CF089590912301B2
:1014F0009923D1F09091340297FF16C0E82FE6951A
:10150000E695E695EE31E0F4F0E0EA55FE4F282F3F
:10151000277081E090E001C0880F2A95EAF7809556
:101520009281892382830895E8EAF1E091918913F9
:1015300003C0DF0111971C9291E0EE3AF907B1F771
:101540000895909123019923C1F09091340297FF5F
:1015500014C0E82FE695E695E695EE31F8F4F0E054
:10156000EA55FE4F877021E030E001C0220F8A95D6
:10157000EAF78281822B82830895A8EAB1E0EFEF37
:1015800090E02D91821751F0EF3F19F4211101C025
:10159000E92F9F5F9630A9F7EF3F09F408950E2ECB
:1015A000000CFF0BEA55FE4FE6CF2AE0929F800D1C
:1015B0001124982F977086958695869525E0829FB1
:1015C000F0011124ED5EFD4F50E040E080E02191FC
:1015D00030E0092E02C0369527950A94E2F7217073
:1015E0003327042E01C0220F0A94EAF7822B4F5FA3
:1015F0005F4F4530510559F708952AE0929F800DBD
:101600001124982F977041E001C0440F9A95EAF792
:1016100086958695869595E0899FF0011124ED5E6B
:10162000FD4F90E080E070E05191DF0111979B0148
:10163000082E02C0369527950A94E2F7217021956D
:101640002527242325272C9301968530910561F7C2
:101650000895809112029091E101981301C00895BC
:101660008F5F8770FACF882341F0809590912A028E
:10167000892380932A020C94310A0895882339F033
:1016800090912A02982B90932A020C94310A089583
:101690002091D6013091D7012817390771F0909326
:1016A000D7018093D601E0914502F0914602309730
:1016B00021F00084F185E02D099408952091D40152
:1016C0003091D5012817390771F09093D501809397
:1016D000D401E0914502F0914602309721F0068056
:1016E000F781E02D0994089590E080E00E945E0B60
:1016F00090E080E00E94480B10922902109228028C
:101700000C94310A6093B9027093BA028093BB02C1
:101710009093BC020C94740B0F931F936091B902C9
:101720007091BA028091BB029091BC028B019C0126
:1017300006701127222733270630110521053105B0
:1017400029F468601F910F910C94820B677FFACF88
:101750000F931F9341E050E060E070E004C0440F3D
:10176000551F661F771F8A95D2F7CB01BA01609586
:101770007095809590950091B9021091BA022091D0
:10178000BB023091BC0260237123822393231F91FB
:101790000F910C94820B909127028095892380935E
:1017A0002702282F277039F4282F082E000C330B1E
:1017B0009217130621F49091350292FF07C0859588
:1017C000859585950E94A80B1092270208950F9386
:1017D0001F9341E050E060E070E004C0440F551FEB
:1017E000661F771F8A95D2F78091B9029091BA024D
:1017F000A091BB02B091BC028A019B01082B192B5E
:101800002A2B3B2BC901B8011F910F910C94820B1D
:1018100060932C0270932D0280932E0290932F02DE
:101820000C94740BE0914502F0914602309721F040
:101830000190F081E02D099480E00895882309F457
:1018400052C0823871F40E94120C81FF4CC089E3AF
:101850000E94A10A0E94310A89E30E94760A0C9430
:10186000310A833859F40E94120C80FF3CC083E592
:101870000E94A10A0E94310A83E5EFCF843859F40F
:101880000E94120C82FF2FC087E40E94A10A0E94CE
:10189000310A87E4E2CF9CEF980F913AF0F290E2A0
:1018A000980F983088F4877021E030E0A90102C0D9
:1018B000440F551F8A95E2F7CA01809590912A023C
:1018C000892380932A02CBCF9BE5980F933020F495
:1018D00090E080E00C945E0B885A873120F490E011
:1018E00080E00C94480B0895CF93DF932091C604B9
:1018F0003091C704205C3240A901460F571F413088
:10190000524020F060E072E0621B730B4091BE0217
:101910005091BF02FC01C901620F731FC1E0D0E00A
:101920008617970738F05093BF024093BE02DF91AD
:10193000CF9108952491DC01A054BD4F3C91321702
:1019400081F02C939C01A5E036952795AA95E1F7A7
:10195000DE0102C0AA0FBB1F2A95E2F79D014A2BA8
:10196000532B01963196DCCFFA01811101C0FB01A6
:10197000099480917C02982F9E7F29F48170826067
:1019800080937C0208958635E8F381708465F8CFF2
:10199000AF92BF92DF92EF92FF920F931F93CF937C
:1019A000DF93082F162FE901E42FF0E0E558FE4FF2
:1019B000611110C0E4915E2F4E2F4983E8835A8352
:1019C000DF91CF911F910F91FF90EF90DF90BF902B
:1019D000AF900895E62EF12C4491D42EE42FF0E040
:1019E00026E0829FC00111242FEF30E0B9010E9450
:1019F000572E802F90E0880F991F55E5569FD001F4
:101A0000579FB00D11248A1B9B0B982F990F890F9C
:101A10005901AE18BF08AE9ED001AF9EB00DBE9E5C
:101A2000B00D11245B2F189F80011124012F112765
:101A30005901A01AB10AAE9E8001AF9E100DBE9E44
:101A4000100D11245901A81AB108AE9CC001AF9C19
:101A5000900DBE9C900D1124892F9927281B390BBE
:101A60002E9FC0012F9F900D3E9F900D1124E92FB6
:101A700062307105A1F050F46115710509F49DCF34
:101A80006130710581F0EB2F512F97CF64307105D4
:101A900069F080F06630710509F48FCFF4CFE42F40
:101AA0004B2F592F8ACFE42F412F87CFEB2F542F65
:101AB000492F83CF4B2F5D2DE12F7FCFF894E82F57
:101AC000E295EF70F0E031A1282F2F7081E090E0D7
:101AD00001C0880F2A95EAF7982F9095932391A338
:101AE00092A1892B82A3789408959091340292FF59
:101AF00006C0282F28712830F9F4877F846093FF6F
:101B000006C0282F28712831F1F4877E8461209146
:101B1000350220FF06C0382F38713830D9F4877F5E
:101B2000816021FF06C0282F28712831D1F4877EDB
:101B3000816194FD877E0895282F24712430F9F661
:101B40008B7F8860DCCF282F2471243101F78B7EB6
:101B50008861DDCF382F3171313019F78E7F886081
:101B6000E0CF282F2171213121F78E7E8861E1CFCE
:101B700010922A0280912301E8EAF1E0882359F0CB
:101B80008091340287FF07C08EE1DF011D928A95A4
:101B9000E9F70C94740B86E0F8CF1F93CF93DF9393
:101BA000CDB7DEB7AA970FB6F894DEBF0FBECDBF94
:101BB0008EEA92E02091F100DC012D93CD01B2E09C
:101BC000863B9B07B9F78091AF02833009F471C05F
:101BD000B8F4813009F448C0823009F4B2C0809171
:101BE000E80083FF3AC18091AE029091AF029A3033
:101BF00008F033C1E92FF0E0E25AFE4C0C947F2E3E
:101C00008A3009F48DC08B3009F470C0893039F7FF
:101C10008091AE02813219F78091B2029091B302A5
:101C2000009711F00297D9F68091E800877F8093A2
:101C3000E8008091E80082FF37C09091F300809126
:101C4000F200029729F48091F1008B7F813021F41A
:101C50008091F100809389028091E8008B778093D6
:101C6000E8000E94E808BBCF8091AE02813A09F0FB
:101C7000B6CF8091E800877F8093E8008091B20220
:101C80009091B302892B61F460E28AE892E070E0FF
:101C90000E949A098091E8008B778093E8009FCF9B
:101CA00060E090E080E0F3CF8091AC028111C1CF81
:101CB00096CF8091AE02813A09F091CF8091B20225
:101CC0009091B302892B09F08ACF8091E800877F39
:101CD0008093E8008091E80080FFFCCF8091230191
:101CE0008093F1008091E8008E77B9CF8091AE02A9
:101CF000813209F074CF8091B2029091B302892BA6
:101D000009F06DCF8091E800877F8093E8000E9402
:101D1000E8088091B002809323010E94B80D5FCF44
:101D20008091AE02813209F05ACF8091E800877F1E
:101D30008093E8000E94E8088091B10280938802B5
:101D40004ECF8091AE02813A09F049CF8091E800F0
:101D5000877F8093E8008091E80080FFFCCF80912E
:101D60008802BECF803899F0823809F076C0809121
:101D7000B2028F70873008F070C08093E9008091C4
:101D8000EB0085FB882780F91092E90006C080915E
:101D9000AA029091AB02911182609091E800977F26
:101DA0009093E8008093F1001092F1008091E80098
:101DB0008E77B5C1882309F4A2C1823009F04DC0E5
:101DC0008091B0028111A6C18091B2028F702FEF75
:101DD000280F263008F041C08093E9002091EB00E5
:101DE00020FF98C1933031F48091EB0080628093A2
:101DF000EB0090C19091EB0090619093EB0021E09B
:101E000030E001C0220F8A95EAF72093EA00109291
:101E1000EA008091EB008860EACF81111EC010912A
:101E2000B0021F778091E3008078812B8093E300DC
:101E30008091E800877F8093E8000E94E808809105
:101E4000E80080FFFCCF8091E30080688093E3008E
:101E500082E0111183E08093AC028091E80083FF5F
:101E60000AC08091E800877F8093E8008091EB00B2
:101E700080628093EB00AA960FB6F894DEBF0FBE87
:101E8000CDBFDF91CF911F9108958058823028F700
:101E90002091B0023091B1022C3DE3E03E07A1F564
:101EA00083E08A838AE289834FB7F894DE01139630
:101EB00020E03EE051E2E32FF0E050935700E49140
:101EC00020FF03C0E295EF703F5FEF708E2F90E030
:101ED000EA30C0F0C7968D939D932F5F243159F758
:101EE0004FBF8091E800877F8093E8006AE270E04E
:101EF000CE0101960E949A098091E8008B77809329
:101F0000E800ABCFC096E7CF8091B2029091B302C8
:101F1000432F55274330510509F44AC078F5413025
:101F2000510509F47AC08BE590E0EDE7FAE0423024
:101F3000510509F092CF2091E800277F2093E80017
:101F40002091B4023091B5028217930708F49C01E6
:101F500040E02115310509F065C0411163C0809151
:101F6000E80082FDC9CF8091AC02882329F2853038
:101F700019F28091E80083FFF2CFBECF41325105C4
:101F800009F43CC04232510509F067CF8330910516
:101F900008F063CFFC01EE0FFF1FE856FE4F0190E3
:101FA000F081E02D8B569E4FDC018C9190E01AC0A1
:101FB000332721303105D1F02115310561F0223070
:101FC000310509F04ACFEAEEFAE0E4918E2F90E075
:101FD000EAEEFAE007C0E6E0FBE0E4918E2F90E045
:101FE000E6E0FBE0009709F438CFA5CFEAEFFAE08E
:101FF000E4918E2F90E0EAEFFAE0F4CF8330910580
:1020000008F02BCF880F991FFC01E256FE4F01907C
:10201000F081E02D89E090E08ECF82E190E0E8ED64
:10202000FAE089CF8091AC02882309F465CF85302E
:1020300009F462CF8091E80083FD5ECF8091E800D3
:1020400082FD8DCF8091E80080FF83CF9091F300D7
:102050008091F2002115310519F08830910550F07A
:1020600041E0089709F040E08091E8008E77809386
:10207000E8006FCF44914093F1003196215031092F
:102080000196E8CF803809F0E8CE8091E800877F9C
:102090008093E8008091AD028093F10087CE81119A
:1020A000DCCE1091B002123008F0D7CE8091E8005B
:1020B000877F8093E8001093AD020E94E808112307
:1020C00011F084E005C08091E30087FDFACF81E044
:1020D0008093AC0242E061EC81E00E94070942E299
:1020E00061EC84E00E94070942E261EC82E00E9418
:1020F000070942E260EC83E00E940709AECE8091BE
:10210000B002813009F0A9CE81E0933009F080E07F
:102110008093AB021092E9008091E800877F809362
:10212000E8000E94E80899CECF93DF93682F81E002
:102130006A3019F06D3029F480E0DF91CF910C9472
:1021400023118091C6049091C70426E0FC01A0EC05
:10215000B4E001900D922A95E1F7603E08F45AC070
:1021600026E0FC0111922A95E9F7C091C604D091AE
:10217000C70446E050E0BE0180EC94E00E940D2FC1
:102180009E01205C3240892B41F1C90145E09695C2
:1021900087954A95E1F741E050E0BA0102C0660F29
:1021A000771F8A95E2F7CB016091BE027091BF0262
:1021B000862B972BB9016B5F7F4FE5E0769567958E
:1021C000EA95E1F702C0440F551F6A95E2F7842BA8
:1021D000952B9093BF028093BE022A5F3F4F4091A0
:1021E000BD02642F70E0C9010E94572E481B463083
:1021F00010F4240F311D211572E0370710F030E084
:1022000020E020543D4F3093C7042093C604DF9153
:10221000CF910895F6E06F9FB0011124665F744F6F
:1022200046E050E00E94F72EA0CFCF93DF93EC0161
:10223000FE018491811103C0DF91CF9108950E9426
:1022400094102196F5CFCF93382FE091C604F091EA
:10225000C704E05CF2402091BD02622F70E0CF0124
:102260000E94572E281B822F332361F066E00E94C4
:102270004B2EC82FC15010F4CF91089580E20E94D8
:102280009410F8CF9F01280F311D2115324018F00E
:1022900080E0F0E0E0E08E0F9F2F911D80549D4F75
:1022A0009093C7048093C604E7CFCF92DF92EF925A
:1022B000FF920F931F93CF93DF936C017B0164E632
:1022C00070E088E70E94682DEC0197FD12C010E0D5
:1022D00000E0F601E00FF11F849164E670E00E94D7
:1022E000C42DEC01892B29F40F5F1F4F0E151F051C
:1022F00081F70E94472ECE01DF91CF911F910F9160
:10230000FF90EF90DF90CF900895CF93C09170022F
:10231000809171028823D1F00E941F0A605A754192
:102320008F4F9F4F60936C0270936D0280936E028B
:1023300090936F02C11108C062E070E080E794E002
:102340000E945511892B29F0C09170028C2FCF91DA
:10235000089581E080937002F7CFCF9384E090E0FE
:102360000E941A2FC82F82E290E00E941A2F982F05
:102370008C2FCF9108950F931F93CF93DF93C42F8A
:10238000D0E0CC0FDD1F24E1629FC00DD11D1124D0
:102390003CE3839FC00DD11D1124CE0187960E947E
:1023A0001A2F082F10E0102F0027CE0188960E94C8
:1023B0001A2F9801282BC901DF91CF911F910F91FE
:1023C0000895462F843038F4733028F46A3018F4B6
:1023D000672F0C94BB1190E080E00895CF93DF93BA
:1023E0000E94E111EC0182389105A9F1D8F5813301
:1023F000910509F496C048F58932910509F48AC01F
:102400008A9709F495C0C11522E5D20708F0B6C035
:10241000C11531E5D30708F026C1C83ED10508F043
:102420009CC0C03ED10560F5C83AD10508F087C010
:10243000C53AD10508F0EFC0C130D10509F12097A8
:10244000F9F0C430D105E0F440C08533910509F4BA
:102450005AC0C997C1F680913402837089F0C0EEEA
:10246000D0E00EC0833E910599F170F4803E910555
:1024700001F1823E910539F68091340282FD21C03E
:10248000CE01DF91CF910895863E910561F1873E9F
:10249000910571F1843E910509F0B5CF8091350227
:1024A00081FFEECF80913402C7EED0E084FD0DC0F5
:1024B000E7CF8091340280FD07C19091350290FFF3
:1024C000DFCFC3EED0E084FFDBCFD0E0C0E0D8CFD9
:1024D0008091340282FDFBC09091350290FDBFCF08
:1024E00084FFCECFF2CF8091340283FDDDCFC8CF01
:1024F0008091340283FDEEC09091350291FFF0CFC0
:10250000C4EED0E0BDCF8091340285FFB9CFC9E2DF
:10251000D0E0B6CF8091340285FFB2CFC5E3D0E0E2
:10252000AFCF8091340286FFABCFCAE2D0E0A8CF14
:102530008091340286FFA4CFC1E3D0E0A1CFCF3B8E
:10254000D10518F6C85AD0E0CC0FDD1FCE5ADE4FA9
:102550000990D881C02DD46493CFC11540E5D4072C
:1025600008F064C0C11580E4D80708F05CC0CE0153
:102570009A9581159F4108F483CFA7CFC11536E501
:10258000D30718F5C11545E5D40708F084C0C11577
:1025900084E5D80708F07AC09C2F969596959E0101
:1025A00023703327C115D34508F462C0C1E0D0E0E1
:1025B00002C0CC0FDD1F2A95E2F730E2939FC001E5
:1025C0001124C82BD92BDA685BCFC1158AE5D8074F
:1025D00078F4C11599E5D90708F068C0C11528E558
:1025E000D20708F472CFDC2FCC27C06FD06A48CF57
:1025F000CE0190568115904208F067CF8D2F8F71D4
:102600000E94750D90E0982F882788279F719C0164
:102610002C2BE90149C0C55AD0E0C15BDE4FC8810F
:10262000D0E0D0642DCFDF70D06A2ACFCE01E4E0B5
:1026300096958795EA95E1F783702C2F2695269538
:10264000237040E2249F90011124382B8C2F83703B
:10265000C1E0D0E002C0CC0FDD1F8A95E2F7C22BAB
:10266000D32BDC680DCFDC2FCC27C16FD06A08CF0D
:10267000C1E0D0E002C0CC0FDD1F2A95E2F720E2D6
:10268000929FC0011124C82BD92BEBCFDC2FCC2774
:10269000C46FD06AF5CE8C2F0E94750DC82FD0E084
:1026A000DC2FCC27CC27DF71D062EACE8C2F8F7045
:1026B0000E94750D34E0D695C7953A95E1F7CF7035
:1026C0009C2FEC01D069DCCEC9E3D0E0D9CEC2EEBC
:1026D000D0E0D6CEC6EED0E0D3CEBF92CF92DF927E
:1026E000EF92FF920F931F93CF93DF938C01C090D3
:1026F000B902D090BA02E090BB02F090BC02809187
:102700002C0290912D02A0912E02B0912F02C82A86
:10271000D92AEA2AFB2ACFE1D0E0BC2ED701C60194
:102720000C2E04C0B695A795979587950A94D2F775
:1027300080FD0EC0219788F7B12C8B2DDF91CF91B2
:102740001F910F91FF90EF90DF90CF90BF90089571
:10275000B8018C2F0E94EE11019761F3EECFCF9359
:10276000DF93EC010E946D13BE01DF91CF910C94B9
:10277000EE110E94AF13292F2F7092959F709250E7
:102780009E3078F4E92FF0E0E859FE4C0C947F2E4F
:10279000803F19F020F4883E20F481E00895843FC2
:1027A000E1F380E00895883EC0F3813FD1F7F5CF93
:1027B000822F86958695869508956F927F928F9247
:1027C0009F92AF92BF92CF92DF92EF92FF920F93C0
:1027D0001F93CF93DF9380E8C82E83E0D82E97E72E
:1027E000E92EF12CE701EC9736011BC0F50185902D
:1027F0009490692DC8010E942E2F682DC801019662
:102800000E942E2F82E0A80EB11C0E5F1F4FC01732
:10281000D10761F784E1680E711C6496CE15DF055F
:1028200029F08E01045111095301E0CF7E018CE3A0
:10283000E80EF11C8CE3C80ED11C87E6E81681E097
:10284000F80681F6DF91CF911F910F91FF90EF90E5
:10285000DF90CF90BF90AF909F908F907F906F90C0
:102860000895CF93C0913502C2FB992790F998172C
:1028700081F080FBC2F9C09335026091340284E09C
:1028800090E00E942E2F6C2F82E290E0CF910C946A
:102890002E2FCF910895CF93DF93C7E1D1E060E071
:1028A000CE010E942E2F2196C11584E0D807B9F7DA
:1028B000DF91CF910895CF93DF9300D00F92CDB7E2
:1028C000DEB79091AC02943011F589837B836A83E3
:1028D0009093E9008FEF9091E800815095FD06C03C
:1028E00095ED9A95F1F700008111F5CF8091E80000
:1028F00085FF0DC050E040E063E070E0CE0101963E
:102900000E94BE088091E8008E778093E8000F90C7
:102910000F900F90DF91CF910895BC0184E00C944B
:102920005B14BC0183E00C945B14CF93DF93EC0148
:10293000809123018823B1F18091340287FF32C056
:1029400060E284E08093E9008FEF9091E80081508D
:1029500095FD06C095ED9A95F1F700008111F5CF30
:102960008091E80085FF1BC08091230170E050E05A
:1029700040E0811104C050E040E068E070E0CE012A
:102980000E94BE088091E8008E778093E80080E284
:10299000FE01AAE8B2E001900D928A95E1F7DF917D
:1029A000CF91089568E081E0CDCFCF93C82F8823E1
:1029B00009F4A6C08238C1F40E94120C81FDA0C0A7
:1029C00089E30E94A10A0E94310A2FEF81EE94E070
:1029D000215080409040E1F700C0000089E30E9450
:1029E000760ACF910C94310A8338A1F40E94120C1C
:1029F00080FD86C083E50E94A10A0E94310A2FEF64
:102A000081EE94E0215080409040E1F700C000004A
:102A100083E5E5CF8438A1F40E94120C82FD70C0DA
:102A200087E40E94A10A0E94310A2FEF81EE94E010
:102A3000215080409040E1F700C0000087E4CFCFF4
:102A40008CEF8C0F813A88F580912301882301F166
:102A50008091340287FF1CC0EC2FE695E695E69541
:102A6000F0E0EA55FE4F828190E04C2F477021E064
:102A700030E002C0220F331F4A95E2F782239323EE
:102A8000892B79F08C2F0E94760A0E94310A09C0A6
:102A9000E8EAF1E08191C817A9F321E0EE3AF207E4
:102AA000C9F78C2F0E94A10A9CCF80E28C0F88303E
:102AB00068F4C77021E030E001C0220FCA95EAF740
:102AC00080912A02822B80932A028BCFEBE5EC0FB8
:102AD000E33040F4F0E0E15BFE4F808190E0CF9185
:102AE0000C945E0BC85AC73158F4EC2FF0E0EE0F8F
:102AF000FF1FEE5AFE4F80819181CF910C94480BBD
:102B0000CF9108951F93CF93DF93182FD0E0C0E0AB
:102B1000893311F4C0E5D0E0812F0E94D5142097AD
:102B200031F4812FDF91CF911F910C941E0C8FE90E
:102B30009FE00197F1F700C000002197F0CF80914E
:102B40007C0280FF27C0849A31B33F7E21B320618D
:102B50004FB7F8948CEC91E0FC015191CF0168E003
:102B600021BB000000C057FF31BB550F000000C063
:102B700000C000C031BB00C06A9591F7F1E08F3C06
:102B80009F0751F74FBF8FE594E00197F1F700C021
:102B9000000008951092CD011092CC011092CE0148
:102BA000D2CFCF93DF93EC012CEC31E040917F0248
:102BB00060917E028C810E94C80C0E949F159A81B0
:102BC0008C8190FF05C08F5F8C83DF91CF9108953A
:102BD0008150FACF0F931F93CF93DF93FC01828133
:102BE0001FEF80FF11E01092CD011092CC011092E6
:102BF000CE01C4E0D0E000E08091C901800F8230B6
:102C000024F487FD8F5F811113C080917F028C9F18
:102C1000A0018D9F500D11245595479555954795C9
:102C20002CEC31E060917E0280917D020E94C80C04
:102C3000010F219709F70E949F15113061F48091CF
:102C4000C901882319F081508093C901DF91CF9188
:102C50001F910F9108951092C901F8CF1092CD01E4
:102C60001092CC011092CE018091CA01181674F016
:102C70008091100187FD0AC02CEC31E040917F0269
:102C800060917E0280917D020E94C80C0E949F1577
:102C900080910F019091CA01980F9093CA012091E1
:102CA0001001280F20931001121614F497FD03C091
:102CB000819580930F0108958F929F92AF92BF925A
:102CC000CF92DF92EF92FF92CF93DF93EC014C8192
:102CD000E42EF12C9701D7010E94B62F9B01AC0185
:102CE0000E94812F4B015C01E0E2F0E0EE19FF0948
:102CF000A5E5B0E0AC019B010E94812F6B017C0136
:102D00009F01DF010E948C2E9B01AC010E948C2F41
:102D10009B01AC01280D391D4A1D5B1DC701B60181
:102D20000E94942F922F30E09A3248F563E0969FEC
:102D3000A00111245595479540952CEC31E0609108
:102D40007E0285E5891B0E94C80C0E949F159C810C
:102D500081E0992319F0903219F48FEF80931101DB
:102D600080911101890F8C83DF91CF91FF90EF90BB
:102D7000DF90CF90BF90AF909F908F90089545E5E2
:102D800050E0BA01621B730B9B01AB01440F551F4E
:102D9000420F531F57FFCECF4F5F5F4FCBCFCF9325
:102DA000DF93EC0180917D0260917E029C812CEC8E
:102DB00031E040E0911102C040917F020E94C80CB6
:102DC0000E949F158C8190E00196817099278C83D9
:102DD000DF91CF91089590917C0290FF08C080937D
:102DE000CD016093CC014093CE010C949F150895C2
:102DF0000F931F93CF93DF9300D00F92CDB7DEB721
:102E00008C018091CB0181110AC09E012F5F3F4F41
:102E10004FEF6FEF0E94C80C8A818093CB01F801BD
:102E20006481613069F08091CB0140E0662361F0FC
:102E300040E0623011F44091CB0180E060E004C0DA
:102E40006091CB0140E080E00E94EB16F8018481A4
:102E500090E0019663E070E00E946B2E84830F90F7
:102E60000F900F90DF91CF911F910F910895CF9305
:102E7000DF9300D00F92CDB7DEB790917C0290FF28
:102E80000AC09E012F5F3F4F0E94C80C4B81698191
:102E90008A810E94EB160F900F900F90DF91CF91D7
:102EA0000895CF93DF93EC01EC81F0E0E058FD4F03
:102EB0004491ECE7F2E0628181810E9437178C81B6
:102EC0008F5F8C83DF91CF910895CF93DF93EC01D7
:102ED000ECE7F2E0438162818C810E9437178C819C
:102EE0008F5F8C83DF91CF910895CF93FC01C281D6
:102EF000848191E09483E0E8F2E03491EFEFF2E036
:102F00002491C33040F490917D029093CF01909131
:102F10007E029093D001811111C01092D2011092C3
:102F2000D1012CEC31E04091D1016091D001809130
:102F3000CF010E94C80CCF910C949F158091D201B3
:102F4000882319F181508093D2014FEF849FC001F3
:102F500011246091D30170E00E94572EFB01FF27DE
:102F6000E058FD4F8491E82FE31BE49FC00111243A
:102F7000231B622F70E00E94572E80917F02689F72
:102F8000B00111247093D101CCCF0E94E72E209183
:102F90007F022695215862E071E0269FA001279FBD
:102FA000500D1124452F5527841795070CF0B9CFE4
:102FB000C330A0F00E94E72E6FEF70E00E946B2EEE
:102FC0008093CF010E94E72E20917E022695622FEA
:102FD00070E00E946B2E280F2093D0011092D10137
:102FE00080917F02893C30F088EC8093D3018093FC
:102FF000D20197CF8431C8F784E1F7CF6AEE7EEF34
:1030000090E080E00E944C2F60E082E090E00E941F
:103010002E2F60E083E090E00E942E2F10922C0271
:1030200010922D0210922E0210922F0260E084E086
:1030300090E00E942E2F60E082E290E00E942E2F0E
:1030400060E085E090E00E942E2F60E086E090E056
:103050000E942E2F6FEF87E090E00E942E2F40E01D
:1030600050E0BA0188E090E00E94402F60E08DE0DF
:1030700090E00E942E2F40E050E0BA0188E190E0FD
:103080000E94402F60E087E190E00E942E2F40E0F8
:1030900050E0BA018CE190E00E94402F70E060E0C7
:1030A00080E290E00E944C2F40E050E0BA0188E1BD
:1030B00090E00E94402F40E050E0BA018FE090E0A5
:1030C0000E94402F40E050E0BA0183E190E00C9470
:1030D000402FCF92DF92EF92FF926B017C010E9412
:1030E000B90CB701A60188E090E0FF90EF90DF9067
:1030F000CF900C94402FEF92FF920F931F93CF939A
:10310000DF9300D00F92CDB7DEB7082FF62E142F25
:10311000E22E90917C0290FF29C0E92FE695AE2F18
:10312000B0E0AC5DBE4F8C9180937A029E7F92306E
:1031300039F59E012F5F3F4F802F0E94C80C4B81B5
:1031400069818A810E94EB1600937D02F0927E02D3
:1031500010937F02EE2051F060917C0270917D020D
:1031600080917E0290917F020E9469180F900F90CB
:103170000F90DF91CF911F910F91FF90EF900895E5
:10318000823019F410917F02DFCF863019F400915C
:103190007D02DACF8930D9F38931B1F6E951E6956C
:1031A000F0E0E558FD4F859194912CEC31E0802FB3
:1031B0000E94C80C0E949F15C7CFECE7F2E0438144
:1031C00028E0421B08F440E021E0628181810C94F8
:1031D0007B18ECE7F2E0438128E0420F08F44FEF60
:1031E00021E0628181810C947B18ECE7F2E062813E
:1031F00028E0621B08F460E021E0438181810C94A7
:103200007B18ECE7F2E0628128E0620F08F46FEFD0
:1032100021E0438181810C947B18ECE7F2E081810D
:1032200021E04381628188500C947B18ECE7F2E046
:10323000818121E043816281885F0C947B188091B9
:103240008002882319F081508093800260917C0273
:1032500070917D0280917E0290917F020C9469189A
:1032600080918002833018F48F5F80938002609198
:103270007C0270917D0280917E0290917F020C947D
:103280006918ECE7F2E083E0808311828FEF82839C
:103290008383148260817181828193810C94691887
:1032A0001F920F920FB60F9211242F933F934F93BB
:1032B0005F936F937F938F939F93AF93BF93CF93BE
:1032C000DF93EF93FF93D091E900DF708091EC00E2
:1032D000C82FC17080FDC0E81092E9008091F00015
:1032E000877F8093F00078940E94CD0D1092E900C2
:1032F0008091F00088608093F000CD2BCF70C09358
:10330000E900FF91EF91DF91CF91BF91AF919F9134
:103310008F917F916F915F914F913F912F910F907E
:103320000FBE0F901F9018951F920F920FB60F921D
:1033300011242F933F934F935F936F937F938F93BA
:103340009F93AF93BF93EF93FF938091E10082FF30
:1033500009C08091E20082FF05C08091E1008B7F6F
:103360008093E1008091DA0080FF24C08091D80032
:1033700080FF20C08091DA008E7F8093DA008091F8
:10338000D90080FF9BC080E189BD82E189BD09B47D
:1033900000FEFDCF81E08093AC0280918702811115
:1033A00009C00E946E080E9439098091E200846081
:1033B0008093E2008091E10080FF17C08091E200DD
:1033C00080FF13C08091E2008E7F8093E2008091A5
:1033D000E20080618093E2008091D8008062809357
:1033E000D80019BC85E08093AC028091E10084FF95
:1033F00029C08091E20084FF25C080E189BD82E17F
:1034000089BD89B5982F917080FFFBCF8091D8003E
:103410008F7D8093D8008091E1008F7E8093E100C2
:103420008091E2008F7E8093E2008091E2008160D3
:103430008093E2008091AD02882309F445C084E0C6
:103440008093AC028091E10083FF27C08091E2006D
:1034500083FF23C08091E100877F8093E10082E0B9
:103460008093AC021092AD028091E1008E7F809338
:10347000E1008091E2008E7F8093E2008091E20083
:1034800080618093E20042E060E080E00E940709F2
:103490008091F00088608093F000FF91EF91BF91E0
:1034A000AF919F918F917F916F915F914F913F91DC
:1034B0002F910F900FBE0F901F90189519BC10926E
:1034C000AC021092870276CF8091E30087FD93E0F3
:1034D0009093AC02B7CF78941F921FB61F9211241D
:1034E0008F939F93AF93BF9380913002909131025D
:1034F000A0913202B09133020196A11DB11D8093BB
:10350000300290933102A0933202B0933302BF9104
:10351000AF919F918F911F901FBE1F9018952FB74D
:10352000F8948091300290913102A0913202B091D2
:1035300033022FBF08950F931F93CF93DF93C62FAE
:10354000D42F022FFC0182818823A1F06093B8025E
:103550000E948F1A9093B7028093B602C77081E0E1
:1035600001C0880FCA95EAF7DF91CF911F910F91A3
:103570000C943E0B8091B802681335C08091B6025E
:103580009091B7020E94100A883C910560F510E204
:103590001D0FCD17B9F080E28C0F883040F4C77052
:1035A00081E001C0880FCA95EAF70E94330B1830FA
:1035B00048F481E09D2F977001C0880F9A95EAF733
:1035C0000E943E0B802F0E948215183098F4D7700D
:1035D00081E001C0880FDA95EAF7DF91CF911F9162
:1035E0000F910C94330BC77081E001C0880FCA950E
:1035F000EAF7F3CFDF91CF911F910F91089590914A
:103600007C0290FF3DC09170811129C0926090931F
:103610007C02662351F060917C0270917D02809162
:103620007E0290917F020E94691860917C026695EB
:1036300070E04BE050E084E091E00E94002F892B85
:10364000A9F010927B0281E08093410220E040913A
:103650007F0260917E0280917D020C947B188B32F8
:1036600010F09465D4CF880F982BD1CF81E0809350
:103670007B020E948F1A90933F0280933E02E3CF19
:10368000089580917C028695815009F48AE261E078
:103690000C94FF1A80917C0286958F5F8B3208F024
:1036A00081E061E00C94FF1A90917C0290FF07C0CA
:1036B0009695981720F0961710F40C944A1B61E029
:1036C0000C94FF1A3F924F925F926F927F928F926B
:1036D0009F92AF92BF92CF92DF92EF92FF920F93A1
:1036E0001F93CF93DF9300D000D00F92CDB7DEB7FA
:1036F0008C01FC0183819481892B31F0808191813F
:1037000089238F3F09F077C60F900F900F900F908D
:103710000F90DF91CF911F910F91FF90EF90DF906D
:10372000CF90BF90AF909F908F907F906F905F9061
:103730004F903F9008950E946D13F82E682F898155
:103740009A810E94FD0A69817A818F2D0E94E11180
:103750007C01F8018281882309F45DC0C70190567D
:103760008115F0E29F0750F0905E811520E19207ED
:1037700028F0915C81159F4108F087C0C701992707
:103780009C01245031092432310520F08B970E978B
:1037900008F041C08091D8019091D9010097A9F11A
:1037A0000E94100AD09044029C0150E040E060E684
:1037B0007AEE80E090E00E94622FCA01B90125E014
:1037C00030E040E050E00E94622FCA01B9016D195B
:1037D0007109810991090E94633027EA39E747E4BA
:1037E0005DE30E94EF304B015C016D2D70E090E0D5
:1037F00080E00E9463309B01AC01C501B4010E94CE
:10380000C62F0E943230609344020E948F1A909318
:10381000D9018093D801F8018281882309F4DDC59C
:10382000C70182519F45409708F068C58FEF93E02C
:103830000E941A2FFEEEEF0E57E1852E99249394E5
:103840008823D1F180912702877009F45DCFF801B8
:103850008281882309F458CF82E00F900F900F9057
:103860000F900F90DF91CF911F910F91FF90EF90EC
:10387000DF90CF90BF90AF909F908F907F906F9090
:103880005F904F903F900C94CB0B8FEFE816F104B4
:1038900021F018F090E080E073CFC70171CF811460
:1038A00024E0920679F2C4010E941A2F811101C00E
:1038B000EA943FEF831A930AE110F1CF1C821B8236
:1038C000442443944AE0342E74018FEFE81AF80A36
:1038D000C4010E941A2F89831A82882309F4B2CF67
:1038E0009FEF980F933000F58A83498292E0890E0A
:1038F000911CC7010E941A2F8B83882309F4A2CF41
:10390000FE0131967F01F70120812223E9F2213067
:1039100009F049C091818281913041F4F2E0EF0ECB
:10392000F11C0E94821509C04701EACF923049F488
:1039300022E0E20EF11C0E94D5143FEFE31AF30AD5
:10394000E2CF933031F432E0E30EF11C0E941E0C02
:10395000F4CF943021F08FEFE81AF80AEECF92E01E
:10396000E90EF11C30E020E0B7016F5F7F4FF701F7
:1039700041818053990B8A30910550F021503109D3
:10398000E0F28FE99FE00197F1F700C00000F6CF69
:10399000329EF001339EF00D11249C012E0F3F1F2B
:1039A000842F7B01E1CFE22FF0E0EE55FB4F5490E6
:1039B000822F86958695869590E0FC01EE56FB4F0A
:1039C00064902770712C022E02C0759467940A943B
:1039D000E2F7E1E06E227724FC01EE57FB4FA49062
:1039E000B12C022E02C0B594A7940A94E2F7F1E03C
:1039F000AF22BB24FC01EE58FB4FC490D12C02C077
:103A0000D594C7942A95E2F721E0C222DD246114FF
:103A1000710419F081EE0E94D514A114B10419F0BB
:103A200086EE0E94D514852D0E948215AB2819F0D0
:103A300086EE0E941E0C672819F081EE0E941E0C73
:103A4000CD2809F47ACF8CE26CCF81E00E94E70B9D
:103A50000E948C0BF7CE81E00E94A80BF9CF82E088
:103A6000F5CFF8018281882321F081E0809347021D
:103A700062C4109247025FC4F3EFEF16FCE5FF0645
:103A800061F1B8F438EDE3163CE5F30611F189ED88
:103A9000E8168CE5F80669F197EDE9169CE5F9065C
:103AA00009F049C426E241EE61EEC8010E949B1A6A
:103AB000C9CEE5EFEE16ECE5FE06B9F090F026EF84
:103AC000E2162CE5F20609F036C427E245EE66EE72
:103AD000ECCF27E245EE65EEE8CF26E241EE60EE60
:103AE000E4CF27E245EE64EEE0CF26E241EE62EE5F
:103AF000DCCF28E241E0EFCF80913402806196E094
:103B0000E9169CE5F90609F4A2C0809134028860A8
:103B1000E7E0EE16ECE5FE0608F499C08091340269
:103B2000806295C0809134028D7FFCE0EF16FCE549
:103B3000FF0609F48CC078F4809134028C603AE07E
:103B4000E3163CE5F30609F482C008F493C08091C3
:103B500034028E7F7CC080913402877F9EE0E9161C
:103B60009CE5F90609F473C0809134028B7FEFE085
:103B7000EE16ECE5FE0608F46AC0809134028F7EF2
:103B800066C0FBEFEF16FCE5FF0609F46BC068F5B5
:103B900033E1E3163CE5F30609F47AC090F491E1D1
:103BA000E9169CE5F90609F46FC0E2E1EE16ECE5D2
:103BB000FE0609F002C40E94B80D809134028F778E
:103BC00046C0F5E1EF16FCE5FF0609F469C008F40C
:103BD0007DC08091350281603AEFE3163CE5F30643
:103BE00009F0EBC380933502E8C38FEFE8168CE54C
:103BF000F80609F451C0A0F4809135028D7FEDEFF5
:103C0000EE16ECE5FE0671F3809135028E7FFEEF35
:103C1000EF16FCE5FF0630F3809135028360E2CFBA
:103C200021E0E2162DE5F20609F459C008F444C07B
:103C300060E082E0E8168DE5F80609F0BEC38EE08C
:103C400090E00E942E2FB9C380913402816080934E
:103C50003402B3C3809134028260F9CF8091340280
:103C60008460F5CF809135028260BCCF80913402B0
:103C70008064EDCF0E94B80D809134028068E7CF58
:103C8000809134028F7DE3CF809134028F7BDFCF30
:103C900080913402837FDBCF809135028C7FA2CF6D
:103CA0008091340282FB992790F921E0922790FBC2
:103CB00082F990FB83F9CBCF80913502982F9095B4
:103CC00091708E7F892B90FB81F98CCF0E94B80D6B
:103CD00090913402892F97FB87F98058B8CF61E023
:103CE000AECF80912A0296E1E9169CE5F90609F02B
:103CF000A0C38A7A91E009F490E09093DA018111EF
:103D000006C089E20E94A10A0E94310A9BCD85E388
:103D1000F9CF85E38BC380917C0280FF1BC08E7F2F
:103D200080937C0260917C0270917D0280917E0282
:103D300090917F020E94691810927B02EFEFF0E7EA
:103D400022E0E150F0402040E1F700C000000E9476
:103D50009F1578CD816080937C0261E086950E94FA
:103D6000FF1A70CD41E45BE16AE47BE10E94B40C90
:103D700069CD4AE45BE161E47BE1F8CF46E159E1DA
:103D80006DE079E1F3CF45EF58E161E079E1EECF05
:103D90004DED58E169EE78E1E9CF49EE58E16DED7E
:103DA00078E1E4CF40E359E16FE179E1DFCF61E011
:103DB00081E0D5CF65E082E00E94541B43CD68E0EE
:103DC00086E0FACF64E18FE0F7CF67E185E1F4CFD9
:103DD00062E289E1F1CF61E083E2C1CFFBE5EF165A
:103DE000FDE5FF0611F12CE5E2162DE5F20609F0DE
:103DF00052C38091350282FB882780F991E08927A0
:103E00000E94311448C30E94B80D3FEF84E39CE048
:103E1000315080409040E1F700C000000E94FF094F
:103E20000E94FE170FCD81E0EBCF80E0E9CFC70104
:103E30000E94D50AD82E3EC32F2D2F70A22E8F2D73
:103E4000807F19F0A29490EFA922DD20C9F0AA206A
:103E500069F080E28E0D883010F081100BC08091E7
:103E60002A02A82AA0922A020E94310A8E2D0E94BC
:103E7000D51419C080912902A82AA0922902F4CF52
:103E80008E2D0E941E0CAA2071F0A09480E28E0D4F
:103E9000883010F081103DC080912A02A822A092A3
:103EA0002A020E94310A232D2850330B2430310579
:103EB00010F40E94120CCC2009F426CC8091270229
:103EC00080FD22CCF80112828595859585950E940A
:103ED000E70BC8010E94621B80912702859585959A
:103EE00085950F900F900F900F900F90DF91CF91CD
:103EF0001F910F91FF90EF90DF90CF90BF90AF9008
:103F00009F908F907F906F905F904F903F900C9418
:103F1000A80B80912902A822A0922902C2CF3F2D8E
:103F20003F70932E8F2D807F803219F0929480EF16
:103F30009822882071F081E0881681F1DD20D9F186
:103F4000AA2091F1F801858180FF90CF8F70858341
:103F50002BC0DD20B1F090912B02892D892BA1106F
:103F600003C00E943E0B9FCFE1E0AE12FACF20913A
:103F7000350222FD98CF981709F495CF80932B0234
:103F800092CFA11006C00E942B0A892D0E94330BEC
:103F90008ACFF1E0AF1609F486CFF5CFDD2031F0FE
:103FA00025E02A1508F47FCF892DDBCF34E03A15C0
:103FB00008F479CFEACFAA2041F3F9E38F1209C0C0
:103FC0002FEF37EE83E0215030408040E1F700C012
:103FD00000008E2D0E941E0C66CF8F2D8695869533
:103FE000837061F0813009F05ECFC7019370D1100A
:103FF00002C090E080E00E94480B55CFC70193704B
:10400000D11002C090E080E00E945E0B4CCF8F2D5B
:10401000837009F066C0D11046CF8E2D82958695AB
:104020008770880F880F6E2D6F70462E512C712C63
:10403000612C082E04C0440C551C661C771C0A9485
:10404000D2F740E050E0BA01E4FE0FC04FE050E08C
:1040500060E070E004C0440F551F661F771F8A950B
:10406000D2F740955095609570958F2D86958695E1
:104070008370823019F1D8F480902C0290902D0238
:10408000A0902E02B0902F02813069F0442955296A
:1040900066297729CB01BA01682179218A219B21E0
:1040A0000E94080C00CF482859286A287B28CB0199
:1040B000BA016429752986299729F2CF44295529FF
:1040C0006629772940902C0250902D0260902E0294
:1040D00070902F02CB01BA0164257525862597259E
:1040E000DFCF8695DD2011F08F2D8170882309F4B4
:1040F000DACE8E2D829586958770880F880F6E2D6B
:104100006F70462E512C712C612C082E04C0440C6B
:10411000551C661C771C0A94D2F740E050E0BA01A7
:10412000E4FE0FC04FE050E060E070E004C0440FD8
:10413000551F661F771F8A95D2F740955095609559
:1041400070958F2D869586958370823019F1D8F4FD
:104150008090B9029090BA02A090BB02B090BC02CD
:10416000813069F04429552966297729CB01BA01A4
:10417000682179218A219B210E94820B94CE4828B4
:1041800059286A287B28CB01BA0164297529862918
:104190009729F2CF44295529662977294090B902F9
:1041A0005090BA026090BB027090BC02CB01BA0181
:1041B0006425752586259725DFCF9F2D9F70F92EC5
:1041C000DD2029F0892F0E94E70B8E2DCACE8E2D7F
:1041D0000E94330B8F2D0E94A80B65CE8E2DE2EF2F
:1041E0008E1609F457C0E81578F0F0EF8F1649F1F4
:1041F00021EF821609F446C0DD2009F46FC0A1103A
:1042000035CE8F2D8F7143C033EF831609F447C02D
:1042100094EF8912F1CFDD2009F455C02F2D2F71B5
:10422000F22E822F0E94E70B8091350282FD07C09B
:1042300038E0F39EC00111248360809327028F2D04
:1042400026C0DD20D1F0E4E0EA1508F42CCE2F2DB5
:104250002F7161E070E080E090E004C0660F771F8E
:10426000881F991F2A95D2F74090B9025090BA0240
:104270006090BB027090BC029BCFF5E0FA1508F489
:1042800012CEE5CF8F2D8F71DD2009F4A4CF0E94CF
:10429000E70B09CE8F2D8F71DD20C9F39CCF60E035
:1042A00070E0CB01DD2009F467CF2F2D2F7161E085
:1042B00070E080E090E004C0660F771F881F991FB0
:1042C0002A95D2F759CF81E00E94CB0B81E08A1565
:1042D00008F0E9CD82E00E94CB0BE5CDAA2059F091
:1042E000893309F076CE9FEFE7EEF3E09150E0409E
:1042F000F040E1F76CCE8F2D8F716DCFF0E1EF16AE
:10430000FFE5FF0609F4A1CB21E1E2162FE5F20655
:1043100009F4A5CB0E948F1A80EEE816F10409F487
:10432000A0CB94EEE916F10409F49BCBECE2EE1677
:10433000F10409F0A1CBF8018281882309F46CC053
:104340001092B802F2E0EF16FCE5FF0608F4C9CCC3
:1043500026E1E2162CE5F20630F0C7018A5F9C45A3
:10436000099708F0BECC0E94AD119093350280935E
:10437000340230E1E3163CE5F30609F481CC08F0A1
:1043800000CC98E0E9169CE5F90609F46FCC08F03A
:10439000C9CBF4E0EF16FCE5FF0609F45FCC08F0AA
:1043A000ABCB32E0E3163CE5F30609F44DCC83E0F9
:1043B000E8168CE5F80609F44DCC60913402F090D3
:1043C000350284E090E00E942E2F6F2D82E290E073
:1043D0000E942E2F0E94B80D35CA30E1E3163FE54A
:1043E000F30609F438CB81E1E8168FE5F80609F009
:1043F00093CF82E031CB85E0DE01119601900D92E2
:104400008A95E1F7F801228189819A81211193C966
:104410000E94D50AF82E97C9F6E1EF16FCE5FF06D3
:10442000D1F58091DA01811174CC89E20E94760A7B
:104430006BCC82722CECE2162CE5F20609F4B2CCBD
:1044400008F0A5C096ECE9169CE5F90609F496CCAF
:1044500008F074C0F3ECEF16FCE5FF0609F482CC1B
:1044600008F05BC032ECE3163CE5F30609F453CCEC
:104470003AE5E3163DE5F30609F4D5CC08F0AECCF9
:10448000E1149CE5F90609F4BECCEEEDEE16ECE580
:10449000FE0609F4C5CCF8018281E080F180882312
:1044A00009F4C5CCC7010E946D13D82E682FC7012F
:1044B0000E94FD0AB7018D2D0E94EE117C01882E0D
:1044C000F801D280A580A2943FE0A3228091270228
:1044D0008770A1F0CD2CDD2091F08F2D807F80346E
:1044E00021F080E28E0D883048F082E00E94CB0BF4
:1044F000809127028770CC24C3948111C12C3F2C5A
:1045000032942FE03222FBE0F31508F4CCCCE32DFB
:10451000F0E0EA58FE4C0C947F2E94ECE9169CE5F2
:10452000F90609F426CC4DE059E166E179E1E5ECC4
:10453000EE16ECE5FE0609F419CC9ACFF9ECEF166D
:10454000FCE5FF0609F424CC88F437ECE3163CE5DF
:10455000F30609F418CC41E059E165EF78E198ECF5
:10456000E9169CE5F90609F401CC82CFEAECEE16D7
:10457000ECE5FE0609F411CC4FE159E160E379E185
:10458000FBECEF16FCE5FF0609F4F0CB71CF21ED53
:10459000E2162CE5F20609F415CCB8F48EECE81618
:1045A0008CE5F80609F406CC08F401CCEFECEE1625
:1045B000ECE5FE0609F403CC6EE089E0F0EDEF16C1
:1045C000FCE5FF0609F4F8CB53CF24EDE2162CE509
:1045D000F20609F4FDCB78F482EDE8168CE5F806D6
:1045E00009F4F3CB61E088E193EDE9169CE5F90667
:1045F00009F4B5CB3DCFE5EDEE16ECE5FE0609F48A
:10460000EACB6AE285E2FDE5EF16FF0609F4D4CBBA
:104610002FCF1F93CF93DF938091E001807FA9F488
:104620008091DD01882389F080911202D091E1010F
:104630006091DB017091DC01A091DE01B091DF019E
:10464000C62FC72316E0D81304C0DF91CF911F9166
:10465000089590E0109711F0CF3F19F401968770FC
:10466000F2CF189F9001199F300D1124F901EE51DE
:10467000FE4F41814713F2CF40814613EFCF428175
:104680004111ECCF438154814A1B5B0B483C5105DF
:1046900028F78091E0018F7080618093E001F9013B
:1046A000E951FE4F80818F70806180838BED91E0B6
:1046B0000E94621BDF91CF911F910C94290BAF9246
:1046C000BF92CF92DF92EF92FF920F931F93CF93FF
:1046D000DF93CDB7DEB761970FB6F894DEBF0FBE9C
:1046E000CDBF8C0185E0F801DE011D9601900D9291
:1046F0008A95E1F7F80180819181E2802BEDA22E6D
:1047000021E0B22E6091DE017091DF01611571052B
:1047100009F43EC13091DB014091DC01232F2423B9
:104720002F3F09F435C1C380D480F090DD01F6013C
:10473000E61BF70BFF2009F4FBC02091E001522F8C
:10474000507FE83CF10508F0BBC0511178C0FE2C49
:10475000491321C038131FC0E1101DC02F70206104
:104760002093E001C5010E94621B8091E001F801E5
:1047700085838F2D61960FB6F894DEBF0FBECDBF37
:10478000DF91CF911F910F91FF90EF90DF90CF902D
:10479000BF90AF900895CD2829F0282F29232F3FCF
:1047A00009F014C120E0F22FF170DF2E20FF3DC090
:1047B000209112024091E10156E0241315C08D872B
:1047C0009E878D859E850E94AF13292F22952F707D
:1047D0002230F8F0243020F59F70F9F0F80195812F
:1047E000907FD9F4D12C1FC030E0529FF001539F2D
:1047F000F00D1124EE51FE4F6181961306C06081C9
:10480000861303C06281E61210C02F5F3F4F2770EE
:10481000D4CF9F7011F0882329F3805E883010F385
:10482000C8010E94621BFD2CA4CFEE2009F4A1CF89
:104830008091E00181608093E001F12C9ACF4913CF
:1048400012C0381310C0E1100EC0F8012583C80152
:104850000E94621B86E0F801ABEDB1E001900D9281
:104860008A95E1F786CF8D879E878D859E850E94EC
:10487000B913882309F1EE20F9F08091E00180322C
:1048800070F02091DB013091DC0138872F8319868D
:10489000DB86CA868C87CE0107960E94621B86E063
:1048A000F801ABEDB1E001900D928A95E1F70E941D
:1048B0000923FF24F3945DCFC8010E94621BF9CF46
:1048C00051110AC08BED91E00E94621B86E0F50158
:1048D00011928A95E9F7B1CF49130FC038130DC073
:1048E000E1100BC0F8012583C8010E94621B86E01D
:1048F000F50111928A95E9F73CCF8D879E878D85CA
:104900009E850E94B9138823B9F2EE20A9F2809106
:10491000E001803220F22091DB013091DC013A830A
:1049200029831B82DD82CC828E83CE010196B5CF96
:10493000E83CF105E0F6FE2CEE2009F4BDCF49136A
:1049400016C0381314C08091E00180FD83CF982FEA
:10495000907F09F47FCFF8018583903F09F477CFEA
:10496000982F907F905F8F70892B858370CF8D8774
:104970009E878D859E850E94B913811190CF80916D
:10498000E00181608093E001C8010E94621BF1CECA
:10499000EE2009F491CF8D879E878D859E850E949C
:1049A000B913F82E882309F487CF86E0F801ABED20
:1049B000B1E001900D928A95E1F78091DB01909131
:1049C000DC010E94AF130E940923D3CE21E02E25E3
:1049D000EACE1F93CF93DF93CDB7DEB767970FB6BD
:1049E000F894DEBF0FBECDBF342F4B8B252F5C8BD1
:1049F0006D8B7E8B8F8B8E899F896111109229021E
:104A00001A8A198A3D872E876F87998B888B86E053
:104A1000FE013D96DE01179601900D928A95E1F711
:104A2000CE0107960E945F23882389F016E08091CB
:104A300012029091E101891349C067960FB6F8946C
:104A4000DEBF0FBECDBFDF91CF911F91089586E0ED
:104A5000FE013796DE01119601900D928A95E1F7DD
:104A60008A859B85892B11F38F81988589238F3FB8
:104A7000E9F22091E10130E0C901019687709927A0
:104A8000409112024817190671F40E94B80D109255
:104A9000E1011092120286E0EBEDF1E0DF011D92E0
:104AA0008A95E9F7C3CF96E0929FD001939FB00D0E
:104AB0001124AE51BE4FFE01319601900D929A9590
:104AC000E1F78093E1010E94290BB0CF819FC001E3
:104AD00011248E519E4F0E945F23882309F4ADCF8D
:104AE0008091120290E001968770992780931202BC
:104AF0009ECF8F929F92AF92BF92DF92EF92FF92E2
:104B00000F931F93CF93DF93C0E8D1E006E312E049
:104B1000D12CEE24E394F12C8991F894E82FE295BE
:104B2000EF70F0E021A18F70A70102C0440F551F64
:104B30008A95E2F7CA01922F982B91A392A18095B2
:104B4000892382A3789400C0E3E8F1E030E020E01C
:104B5000B12CA12C4191A42FA295AF70B0E09096FA
:104B60008C9190E04F7002C0959587954A95E2F739
:104B700080FD55C0C701022E02C0880F991F0A94FC
:104B8000E2F7A82AB92A2F5F3F4F2A30310511F7E3
:104B9000FE01319780810E945E0D50EA5A95F1F72F
:104BA000F80180819181A816B906E1F1B182A08255
:104BB00081E0D82A0E5F1F4FF1E0C338DF0709F00C
:104BC000ABCFDD2089F181E08093C8010E948F1A6C
:104BD0009093C7018093C6018091C6019091C7014F
:104BE0000E94100A069720F18091360290913702B8
:104BF00090938202809381028091380290913902D1
:104C0000909384028093830280913A0290913B02B8
:104C100090938602809385021092C80109C090E0AB
:104C200080E0AFCF80E0C5CF8091C8018111D4CFA3
:104C30008091D8019091D9010E94100A893E934039
:104C400060F160914402C62FD0E0662777276C1B85
:104C50007D0B072E000C880B990B0E94633027EA0E
:104C600039E747E45DE30E94EF304B015C01BE0190
:104C7000DD0F880B990B0E9463309B01AC01C501CD
:104C8000B4010E94C62F0E943230609344020E94F9
:104C90008F1A9093D9018093D8018D2DDF91CF91F8
:104CA0001F910F91FF90EF90DF90BF90AF909F907A
:104CB0008F900895CDB7DEB7AC970FB6F894DEBFEE
:104CC0000FBECDBF84B7877F84BF0FB6F894A89579
:104CD00080916000886180936000109260000FBE38
:104CE00080E890E00FB6F8948093610090936100A3
:104CF0000FBE85B7806885BF85B7806885BF89EF9F
:104D000099E09093A5018093A4010E946E080E94EF
:104D100039098091E20084608093E2007894809168
:104D2000AC028823A1F01091E9001F709091EC0073
:104D3000892F817090FD80E8182B1092E9008091F6
:104D4000E80083FD0E94CD0D1F701093E90082E002
:104D500084BD93E095BD9AEF97BD80936E0084EF7C
:104D60000E945E0D81E30E945E0D86E30E945E0D4F
:104D700003E811E06DE8E62E61E0F62ED8018D9192
:104D80008D010E945E0DE016F106C1F71092370208
:104D90001092360210928202109281021092390211
:104DA00010923802109284021092830210923B02F9
:104DB00010923A02109286021092850290E080E0F2
:104DC0000E94282F8A3E9E4F11F00E94FE1782E01B
:104DD00090E00E941A2F809373020E94AD1190936D
:104DE0003502809334020E947925EFE3FCE9319784
:104DF000F1F700C000000E9479258091810280FFB8
:104E000017C06FEF83E290E00E942E2F6FEF84E2D5
:104E100090E00E942E2F6FEF85E290E00E942E2FEF
:104E20006FEF7FEF90E080E00E944C2F0E94FF091F
:104E300083E090E00E941A2F682F70E090E080E0FD
:104E40000E94080C83E290E00E941A2F813209F040
:104E5000F0C584E290E00E941A2F823109F0E9C582
:104E600085E290E00E941A2F853209F0E2C583E0C6
:104E700080936A0280E28093BD020E94622D6DE001
:104E800070E085E395E00E945511892BE9F580914A
:104E90006A0263E070E081FD8CC182E395E00E94CC
:104EA0005511892B89F56DE070E082E295E00E9452
:104EB0005511892B49F50E941F0A605A75418F4F81
:104EC0009F4F60936C0270936D0280936E0290937B
:104ED0006F02E0ECF2E080E092E0DF019C011D92C5
:104EE00021503040E1F7F093C704E093C6048FEF00
:104EF0009FEF9093BF028093BE0281E08093710286
:104F00008093700210926B0280913C02811136C036
:104F100090E080E00E94282F8A3E9E4F21F00E9460
:104F2000FE170E94411988E090E00E94222F6093B2
:104F30007C0270937D0280937E0290937F026E7F4D
:104F400071F40E94411988E090E00E94222F609342
:104F50007C0270937D0280937E0290937F020E9478
:104F6000B90C10927B0280917C0280FF04C060E04B
:104F700086950E94FF1A81E080933C0289E191E0CE
:104F8000909346028093450258E1852E912C8091A2
:104F9000AC02853009F465C10E947925D82E8111B3
:104FA0000E941F0AA1E8B2E0E4E7F2E010E000E0AE
:104FB000702F8D919D91219131912817390709F416
:104FC00060C12827392760E0EE24E394F12CA70183
:104FD00042235323452B09F44EC169A37AA39701B9
:104FE0002823392391E0232B09F490E09BA30E940E
:104FF0008F1A8160782F9DA38CA349A15AA16BA120
:105000008DA10E94E924000F111FF801EC58FD4FFB
:1050100080819181E826F926F182E08280917B02ED
:105020008823D1F180917A02E0917C02E695E81B19
:10503000E0934002823009F03BC1F0E0ED5AFA4FB4
:10504000E4910E2F10E091E5E92E97E1F92E809181
:105050004102882361F0109241020E948F1A9093BE
:105060003F0280933E0210924302109242020E943D
:105070008F1AE0913E02F0913F028E1B9F0B8F3FF3
:105080009F4750F4E00FF11FF0933F02E0933E0280
:105090008EE392E0F701099580917102882309F46B
:1050A000E9C11091BD0280EC92E09093C704809317
:1050B000C6040E948F1A60EF70E00E94572E617044
:1050C000F0EA6F9FC001112460EA70E0895A9A4F9C
:1050D0000E94740C27E0129FC0011124811532E058
:1050E000930714F090E080E080549D4F9093C704A4
:1050F0008093C60484EB96E00E9415114091B9029A
:105100005091BA026091BB027091BC02CB01AA27F8
:10511000BB270097A105B10509F436C1AC01BD015B
:1051200080E1052F162F272F3327011511052105A3
:10513000310519F0885FB901A8018A019B0194E04B
:1051400036952795179507959A95D1F7011511056D
:105150002105310519F08C5FB901A8018A019B0175
:10516000B2E03695279517950795BA95D1F70115B1
:1051700011052105310519F08E5FB901A801769559
:10518000679557954795452B462B472B09F08F5F21
:10519000813009F4ABC1882309F4F8C0823009F4E6
:1051A000A8C187E996E00E94151181E00E942311B1
:1051B000F1C08FE295E073CE8091AC02843011F1A2
:1051C00010923D0280E40FB6F894A895809260009A
:1051D0000FBE8093600083B7817F846083BF83B7F5
:1051E000816083BF7894889583B78E7F83BF0FB625
:1051F000F894A89580916000886180936000109277
:1052000060000FBE8091AB02882359F10E9479257E
:1052100080918302909184022091810230918202D8
:10522000822B932B2091850230918602822B932B27
:10523000892BB9F090E199BDA2E1A9BD09B400FEA6
:10524000FDCF8091D8008F7D8093D8008091E000C1
:1052500082608093E0008091E00081FDFCCF0E949D
:10526000B80D8091AC02853009F4A6CF0E94B80D2C
:105270000E94120C91CE6F5FEE0CFF1C6A3009F099
:10528000A6CE0F5F1F4F0330110509F091CE8FEFAF
:105290008EA38FA318A60E948F1A8160782F9AA7D9
:1052A00089A74EA15FA168A58AA50E94E924B6CE70
:1052B000863059F4F0E0E05BFA4FE4910E2F10E0F5
:1052C00085E6E82E87E1F82EC2CE893061F4E695B6
:1052D000F0E0E35BFA4FE4910E2F10E0B1EDEB2E1E
:1052E000B5E1FB2EB4CE8F3061F4E695F0E0E65BDD
:1052F000FA4FE4910E2F10E0AAEEEA2EA5E1FA2E65
:10530000A6CE853159F4F0E0E95BFA4FE4910E2F17
:1053100010E0FEE2EF2EF6E1FF2E99CE08E210E05B
:105320006CE5E62E66E1F62E883109F490CE8332E4
:1053300049F4E5E4F5E005911491E8EFEE2EE6E19D
:10534000FE2E85CE04EF11E05FECE52E56E1F52E42
:10535000843209F47CCE00ED17E048EFE42E49E0FA
:10536000F42E853209F073CE8E2F63E00E944B2E0F
:10537000E92FF0E0EE5BFA4FE4910E2F10E075E7B5
:10538000E72E77E1F72E63CE80E0CBCE8DEA96E074
:105390000E9415118091BD02ADE08A9FC0011124C9
:1053A0008115B2E09B0714F090E080E080549D4F9F
:1053B0009093C7048093C6040E948F1A68E770E038
:1053C0000E94572E162F11708091440290E0909306
:1053D000490280934802E0914502F091460220E0A4
:1053E000309729F00190F081E02D0995282FE0E613
:1053F0001E9FC001112421FF7FC060E670E085542C
:10540000964F0E94740C80917102882371F0209154
:10541000BE023091BF022115310539F080916B0237
:1054200061E070E0882309F486C0809170028823CF
:1054300009F10E941F0A00916C0210916D022091E7
:105440006E0230916F02601B710B820B930B6F3FEA
:105450007F4F8F4F9F4770F480917102882351F0E6
:1054600062E070E08BE79AE00E945511892B11F4FD
:1054700010927002D1100E9485110E94120C90911E
:105480007202891721F00E94120C8093720280919F
:10549000AC02843009F07BCD83E08093E9008091F9
:1054A000E80082FF74CD8091E80090E085FF0CC099
:1054B0000E948D0830E2E32EF12C8E010F5F1F4F0A
:1054C000882309F40BC191E08091E8008B778093E9
:1054D000E800992309F45BCDE981E150E33108F05C
:1054E00071C1F0E0EE57FE4C0C947F2E87EA96E0F7
:1054F0004FCF81EA96E04CCF20914702222329F03A
:1055000060E670E08550974F7CCF20914802309143
:10551000490260E670E02B3031051CF4855C974F42
:1055200070CF233331051CF48558984F6ACF8554CA
:10553000994F67CF8F5F082F10E07B01082E02C0C4
:10554000EE0CFF1C0A94E2F7A9014E215F21452BC6
:1055500089F390916A0290FD43C08295880F80760E
:1055600080931401980136952795369527952093B9
:105570001701815E809315011092180124E630E036
:1055800047E050E062E171E088E70E94F32D892B4B
:1055900009F04BCFA801E5E0440F551FEA95E1F76C
:1055A00080916A0280FD2AC040545D4F04E610E0FD
:1055B00020E230E060E488E70E941A2E892B09F08F
:1055C00034CF0E948511E094F0948091BE029091B6
:1055D000BF02E822F922F092BF02E092BE0225CF7C
:1055E000880F880F880F8093140110921701895F2C
:1055F0008093150183E080931801C0CFEAE4F2E0C4
:1056000080E2DF011D928A95E9F7E1E9F1E0FCA76C
:10561000EBA70DE811E075E9272E71E0372EABA559
:10562000BCA52D91BCA7ABA7F80141908F01440EFA
:10563000552E511CC20180549D4F2C01E22FF0E0E9
:10564000E65BFD4F30E020E067E0662E621ACC2476
:10565000C394022E01C0CC0C0A94EAF7520190E0E8
:10566000D5018D915D018C21662D691B6770762EA9
:10567000062E000C770BB82F01C0BB0F7A94EAF707
:105680007B2E7195619571096770772701C08695AA
:105690006A95EAF7782A8081782A70829F5F98302D
:1056A000F9F62F5F3F4F31962830310569F6EBA5AB
:1056B000FCA52E163F0609F0B2CF04E610E020E26A
:1056C00030E04AE452E076CF8091F100D8018D932A
:1056D0008D01B1E0EB1AF10809F4F5CE8091E800F4
:1056E00085FDF2CF8091E8008B778093E8000E94DF
:1056F0008D08882399F3E7CE1A8289E08B832DC029
:105700008A81823009F4AEC1833061F0813009F0C2
:1057100059C00E941F0A0E94852E6B837C838D8353
:105720009E831BC0809181029091820298278927D5
:1057300098279C838B838091830290918402982781
:10574000892798279E838D83809185029091860278
:1057500098278927982798878F838091AC02843077
:1057600009F015CC1091E9001F709091EC00892F81
:10577000817090FD80E8182B82E08093E900809191
:10578000E80080FF0DC050E040E060E270E0CE0134
:1057900001960E94BE088091E8008E778093E80011
:1057A0001F701093E900F3CB8A81823059F46B812A
:1057B0007C818D819E810E94852E86E290E00E94F0
:1057C0002E2FCBCF8FEF8983C8CF4C816B818A81FD
:1057D0000E94BB119827892798279E838D83BDCF70
:1057E0000D811E811027012710278A81EB80E4E1BB
:1057F000EE9E70011124FCE38F9FE00CF11C11243C
:105800008C8190E0880F991FE80EF91E612FC70167
:1058100087960E942E2F602FC7018896D0CF0E94B6
:10582000DD139BCF8A818138C1F060F4803809F0A4
:1058300094CF20E04B8160917E0280917D020E9496
:105840007B188BCF823859F1833809F086CF20E05E
:1058500040917F026C818B81F2CF60E08B810E944E
:10586000FF1A9B8180917C02911111C08E7F8093E1
:105870007C0210927B022FEF30E782E02150304013
:105880008040E1F700C000000E949F1566CF816054
:1058900080937C0260E086950E94FF1A5ECF8B8128
:1058A000809380025ACF8A81813899F030F4803811
:1058B00009F053CF80917F0221CF823891F0833855
:1058C00009F04BCF80917D028B8380917E028C8387
:1058D00044CF80917C0280FF02C086950FCF80E08C
:1058E0000DCF809180020ACF60917C0270917D0281
:1058F00080917E0290917F020E9469182ECF90E1E4
:105900009A832BCF82E08A8389EEF8CECA80DB802F
:10591000DC24CD24DC248E010F5F1F4FEC80E00ED1
:10592000F12EF11CC601895E9E4F0E151F0509F46C
:1059300014CFA9EECA16A2E0DA0650F40E941A2F7C
:10594000F8018483BFEFCB1ADB0A0F5F1F4FEACF4A
:10595000D80114961C92F6CF0A811B8110270127CB
:105960001027FE0131966F01EC80E00EF12EF11C44
:10597000C801895E9E4F0E151F0509F4EECE093E43
:10598000F2E01F0728F4D60114966C910E942E2F86
:10599000BFEFCB1ADB0A0F5F1F4FEACF0E944B14F9
:1059A000DCCE84E08A83D9CECA80DB80DC24CD249F
:1059B000DC248E010F5F1F4FEC80E00EF12EF11CF6
:1059C000C6018796E016F10609F4C7CEE0EFCE16C1
:1059D000D10458F40E941A2FD80114968C93FFEF2B
:1059E000CF1ADF0A0F5F1F4FEBCFF8011482F7CFFA
:1059F0000A811B811027012710279E012F5F3F4F2F
:105A00006901EC80E00EF12EF11CC8018796E016CA
:105A1000F10609F4A2CE003F110528F4D601149630
:105A20006C910E942E2FBFEFCB1ADB0A0F5F1F4F26
:105A3000ECCF60E086E290E00E942E2F0E94DD1302
:105A40000E944B1461E283E290E00E942E2F62E1FB
:105A500084E290E00E942E2F65E285E290E00E94B1
:105A60002E2F05CA86E290E00E941A2F1B821C820C
:105A70001D828E8372CE1F921FB61F9211248F93A8
:105A80009F93AF93BF9380913D02811113C080918A
:105A9000300290913102A0913202B09133024196CE
:105AA000A11DB11D8093300290933102A093320268
:105AB000B0933302BF91AF919F918F911F901FBE02
:105AC0001F9018951092B9008CE08093B80008954B
:105AD000EF92FF920F931F93CF93DF93182FEB0159
