:100000000C9488020C94CF020C94CF020C94CF0273
:100010000C94CF020C94CF020C94CF020C94CF021C
:100020000C94CF020C94CF020C94181C0C94D41B8B
:100030000C9435220C94CF020C94CF020C94CF0276
:100040000C94CF020C94CF020C94CF020C94CF02EC
:100050000C94CF020C9411220C94CF020C94CF027A
:100060000C94CF020C94CF020C94CF020C94CF02CC
:100070000C94CF020C94CF020C94CF020C94CF02BC
:100080000C94CF020C94CF020C94CF020C94CF02AC
:100090000C94CF020C94CF020C94CF020C94CF029C
:1000A0000C94CF020C94CF020C94CF020631FF09BE
:1000B00074A1010975150026FF00952075088102BD
:1000C0000976150026FF00952075089102C00501EC
:1000D0000902A10185020901A100050919012908E8
:1000E00015002501950875018102050109300931C6
:1000F0001581257F95027508810609381581257FB0
:10010000950175088106050C0A38021581257F9531
:100110000175088106C0C005010980A10185031988
:10012000012AB700150126B700950175108100C09E
:10013000050C0901A101850419012AA00215012657
:10014000A002950175108100C005010906A1018575
:1001500005050719E029E7150025019508750181B6
:10016000020507190029EF1500250195F075018199
:10017000020508190129059505750191029501757A
:10018000039101C00660FF0961A101096215002603
:10019000FF009520750881020963150026FF009570
:1001A0002075089102C005010906A101050719E0A3
:1001B00029E715002501950875018102950175084B
:1001C00081010507190029FF150026FF0095067516
:1001D0000881000508190129059505750191029509
:1001E0000175039101C0290A002575002F002575AE
:1001F000005D28002564002000256400200025649F
:100200000020002564007C0025303258006D6F7599
:1002100073656B6579205B62746E7C7820792076DB
:1002200020685D287265702F61636C293A205B003D
:10023000240025002600250221002200230038008A
:100240001E001F0020002D0027002800370001514C
:10025000005C01000100010001000100010001003B
:100260000100010001000100010001000100010086
:100270000100010001000100010001000100010076
:100280000100010001000100010001000100010066
:100290000100010001000100010001000100010056
:1002A0000100010001000100010001000100010046
:1002B000000000000000000000000000000000003E
:1002C000000000000000000000000000000000002E
:1002D000000000007E0F00D4FFFFFFC70000007881
:1002E00000000000000000002A2B28000000000091
:1002F00000000000000000000000002900000000D5
:100300002C1E3420212224342627252E362D373842
:10031000271E1F202122232425263333362E37384B
:100320001F0405060708090A0B0C0D0E0F10111209
:10033000131415161718191A1B1C1D2F3130232DD5
:10034000350405060708090A0B0C0D0E0F101112D3
:10035000131415161718191A1B1C1D2F3130354C84
:1003600044454255473A2064697361626C65642E66
:100370000A0044454255473A20656E61626C6564E7
:100380002E0A006164645F6B65795F6269743A206C
:1003900063616E2774206164643A20253032580A04
:1003A0000064656C5F6B65795F6269743A206361B4
:1003B0006E27742064656C3A20253032580A004F4D
:1003C0006E6573686F743A206163746976653A206C
:1003D00025640A000A002530325820006B657962D6
:1003E0006F6172645F7265706F72743A20000A0008
:1003F00025303862003A200025303258000A722F2A
:10040000632030313233343536370A000A00253064
:100410003258006B6579626F6172645F7365745FF7
:100420006C65643A20005B735D004B6579626F61B7
:1004300072642073746172742E0A005B435D005B0A
:10044000445D005B535D005B575D005B525D0009DE
:10045000027B00040100A0FA09040000010301016D
:100460000009211101000122400007058103080055
:100470000A09040100020300000009211101000122
:100480002222000705820320000107050303200044
:10049000010904020001030000000921110100010B
:1004A00022B6000705840320000A090403000203A2
:1004B0000000000921110100012222000705850327
:1004C00020000107050503200001120110010000B2
:1004D0000008756F62010100010200011003530062
:1004E00077006500650074003100360000001C03D1
:1004F00031007500700020004B006500790062003B
:100500006F006100720064007300000004030904BE
:1005100011241FBECFEFDAE0DEBFCDBF04B603FE6D
:1005200027C080913D0290913E02A0913F02B09180
:1005300040028730904BA740B04BD1F410923D025F
:1005400010923E0210923F021092400214BE84B7F5
:10055000877F84BF0FB6F894A8958091600088616A
:1005600080936000109260000FBEE0E0F8E3099510
:1005700011E0A0E0B1E0E0E3F6E402C005900D92E6
:10058000A836B107D9F722E0A8E6B1E001C01D9274
:10059000AD33B207E1F70E94451D0C94DF220C94A5
:1005A0000000FF93EF93E0916801F09169013097AB
:1005B00009F00995EF91FF910895FC018591803034
:1005C00011F0EFDFFBCF0895FF27E0E230E247FFB5
:1005D0000CC0419597FF09C0EDE26095709580953C
:1005E0009095611D711D811D911D27FF02C02195F0
:1005F00030E350E2AA27660F771F881F991FAA1FB2
:10060000A41710F0A41B63955A95A9F7AA3008F017
:10061000A95FA05DAF93F395611571058105910503
:1006200041F7ED3211F4EF93F395F21718F43F937D
:10063000F395FBCF8F91B5DFFA95E1F70895E99136
:10064000F9918591803021F0853219F0AADFF9CF38
:10065000089520E0E89455915532C1F3503311F4D8
:10066000689455915A3348F4505390F3220F022E58
:10067000220F220F200D250FF4CF0EF42195899122
:100680009991533619F3533729F1533559F1BC0178
:1006900088279927E8945C3621F489919991689488
:1006A0005591543639F446EF7EF077FF0DC08FEF49
:1006B0009FEF0AC055374AE039F0583540E121F044
:1006C000523642E009F00895FF93EF937DDFEF91FA
:1006D000FF91B7CFFF93EF93FC0181918030B9F385
:1006E00060DFFBCFFF93EF9368DFF1CFDF93CF9312
:1006F000CDB7DEB72596A3DFCF91DF910895E8ED62
:10070000F0E080818E7F80831092E2001092DA0008
:100710001092E100A0EEB0E08C9181608C9380811A
:100720008F77808319BCA7EDB0E08C918E7F8C937E
:1007300080818F7E80831092070208952091E400CB
:100740003091E50095E6A9012091EC00822F81709F
:1007500020FF06C08091E80080FF06C080E0089579
:100760002091E80022FD1AC080912C02882389F094
:10077000853089F08091EB0085FD0FC02091E40069
:100780003091E50042175307F9F29150E1F684E009
:10079000089582E0089583E0089581E00895EF923E
:1007A000FF920F931F93CF937C018B010E949E03B6
:1007B000C82F811117C08091E80085FD0BC0809182
:1007C000E8008E778093E8000E949E03882399F3C7
:1007D000C82F08C0F70181917F018093F10001507B
:1007E000110949F78C2FCF911F910F91FF90EF9036
:1007F000089580912E0287FF13C08091E80082FF48
:1008000006C08091E8008B778093E80004C0809157
:100810002C028111F2CF089580912C028823D9F304
:100820008091E80080FFF8CF8091E8008E77ECCFD0
:10083000982F9093E900242F762F50E0891731F0FC
:100840007091EC002091ED005091F00021FD07C067
:100850009F5F973071F78093E90081E008953091B0
:10086000EB003E7F3093EB003091ED003D7F309305
:10087000ED003091EB0031603093EB007093EC00B1
:100880002093ED005093F0002091EE0027FDE0CF83
:1008900080E00895CF92DF92EF92FF920F931F9323
:1008A000CF93DF93C8EDD0E088818F7E8883E7ED1A
:1008B000F0E080818160808384E082BF81E080936A
:1008C000070288818E7F888302EE10E0F801108293
:1008D0001092DA0081EEC82ED12CF60110828881A8
:1008E0008F77888388818068888388818F7D8883DB
:1008F00019BC10922C0210922D0210922B02109211
:100900002A0290EEE92EF12CF70180818B7F808303
:1009100088818160888342E060E080E00E94180462
:10092000F60180818E7F8083F801808181608083E1
:10093000808188608083F70180818E7F80838881B9
:1009400080618883DF91CF911F910F91FF90EF908D
:10095000DF90CF900895FC01809134029091350290
:1009600086179707A0F06115710529F49091E800AA
:100970009E779093E80090E06115710551F4911114
:1009800008C08091E80082FF34C080E00895BC0177
:10099000F2CF80912C028823C1F18530C1F1809182
:1009A000E80083FD30C08091E80082FDEACF8091AD
:1009B000E80080FFE1CF8091F3002091F200382F12
:1009C0006115710519F02830310558F091E0283093
:1009D000310509F090E02091E8002E772093E8009F
:1009E000CBCF81918093F100615071092F5F3F4F10
:1009F000E7CF80912C02882341F0853041F080912F
:100A0000E80083FFBECF81E0089582E0089583E08F
:100A1000089580910902089587E797E79093010868
:100A20008093000888E19AE00FB6F894A895809327
:100A300060000FBE90936000FFCF9C014FB7F89409
:100A40008091010290910202A0910302B0910402F0
:100A50004FBF821B930B08952FB7F894809101022A
:100A600090910202A0910302B09104022FBF089559
:100A70008091D90181111092D9010895990F990F90
:100A8000890F982F977086958695869525E0829F89
:100A9000F0011124E553FE4F50E040E080E0219149
:100AA00030E0092E02C0369527950A94E2F72170AE
:100AB0003327042E01C0220F0A94EAF7822B4F5FDE
:100AC0005F4F4530510559F70895990F990F890FD8
:100AD000982F977041E001C0440F9A95EAF78695E8
:100AE0008695869595E0899FF0011124E553FE4F88
:100AF00030E020E070E05191DF011197CB01022E30
:100B000002C0969587950A94E2F7817081958527B2
:100B1000842385278C932F5F3F4F2530310559F76C
:100B200008958091CA0190919901981301C0089588
:100B30008F5F8770FACF20918F0130919001281735
:100B4000390771F09093900180938F01E091E50156
:100B5000F091E601309721F00084F185E02D0994B1
:100B6000089520918D0130918E012817390771F079
:100B700090938E0180938D01E091E501F091E60163
:100B8000309721F00680F781E02D09940895E091D7
:100B9000E501F091E601309721F00190F081E02D20
:100BA000099480E008954091F301803F59F48091C9
:100BB000F40187FF0DC01092F40141110BC0109297
:100BC000EE0108C0813F81F48091F40118169CF376
:100BD000442381F08091F5019091F601892B09F071
:100BE0005AC01092EB010895823F49F447FFF0CFBD
:100BF0001092F3018091F4018111ECCFE0CF833F9B
:100C000019F41416ACF3E4CF9091F501893F29F45F
:100C10001916F4F61092F501DBCF8A3F19F497FF0D
:100C2000D7CFF8CF9091F6018B3F29F497FFD0CF23
:100C30001092F601CDCF8C3F19F41916CCF3C8CF22
:100C40009CE0980F953090F4845F990B21E030E0A0
:100C5000B90102C0660F771F8A95E2F7CB01809534
:100C60009091F20189238093F201B2CF8D3F31F44C
:100C7000809192018E7F80939201AACF8E3F21F4C2
:100C8000809192018D7FF7CF8F3F09F0A1CF8091A6
:100C900092018B7FF0CF08958091920180FD16C064
:100CA00081FD16C082FD16C08091EB018823A1F062
:100CB000883280F428E0829FC001112468E270E04D
:100CC0000E946822862F672B39F0089582E00895EC
:100CD00084E0089588E0089581E00895809192016C
:100CE00080FD14C081FD14C082FD16C08091EE010C
:100CF000882381F0843180F422E3829FC001112493
:100D000064E170E00E946822862F08958CE00895C7
:100D100089E1089585E0089582E30895803F31F4E4
:100D20000E946E0681958093F4010895813F19F425
:100D30000E946E06F8CF823F31F40E946E068195C4
:100D40008093F3010895833F19F40E946E06F8CF53
:100D5000893F29F40E944C068093F50108958A3F4B
:100D600021F40E944C068195F7CF8B3F31F40E940D
:100D70004C0681958093F60108958C3F19F40E94EA
:100D80004C06F8CF9CE0980F953070F4845F990B77
:100D900021E030E001C0220F8A95EAF78091F2014C
:100DA000822B8093F20108958D3F31F4809192015E
:100DB00081608093920108958E3F21F48091920189
:100DC0008260F7CF8F3FB9F7809192018460F1CFB5
:100DD000F894E82FE295EF70F0E031A1282F2F7002
:100DE00081E090E001C0880F2A95EAF7982F90954E
:100DF000932391A392A1892B82A378940895909133
:100E0000DF0192FF06C0282F28712830F9F4877F70
:100E1000846093FF06C0282F28712831F1F4877E63
:100E200084612091E00120FF06C0382F38713830EE
:100E3000D9F4877F816021FF06C0282F28712831CF
:100E4000D1F4877E816194FD877E0895282F2471D7
:100E50002430F9F68B7F8860DCCF282F2471243171
:100E600001F78B7E8861DDCF382F3171313019F772
:100E70008E7F8860E0CF282F2171213121F78E7E6F
:100E80008861E1CF829590E09C01220F331F220FF1
:100E9000331F2C7C95958795959587958373282B83
:100EA00030E0C901880F991F8A7A359527952575F5
:100EB000822B0895CF9384E090E00E949D22C82F5A
:100EC00082E290E00E949D22982F8C2FCF9108956E
:100ED0000F931F93CF93DF9328E0629FE0011124CB
:100EE00050E0440F551FC40FD51F30E2839FC0014F
:100EF0001124C80FD91FCE0187960E949D22082F6A
:100F000010E0102F0027CE0188960E949D229801A4
:100F1000282BC901DF91CF911F910F910895462F82
:100F2000843038F4743028F4643018F4672F0C944B
:100F3000680790E080E00895CF93DF930E948F07C9
:100F4000EC0182389105A9F1D8F58133910509F4B6
:100F500096C048F58932910509F48AC08A9709F448
:100F600095C0C11521E5D20708F0BCC0C11530E518
:100F7000D30708F014C1C83ED10508F09CC0C03E9C
:100F8000D10560F5C83AD10508F087C0C53AD1054A
:100F900008F0FDC0C130D10509F12097F9F0C43047
:100FA000D105E0F440C08533910509F45AC0C997D2
:100FB000C1F68091DF01837089F0C0EED0E00EC0F1
:100FC000833E910599F170F4803E910501F1823ED6
:100FD000910539F68091DF0182FD21C0CE01DF91BC
:100FE000CF910895863E910561F1873E910571F19B
:100FF000843E910509F0B5CF8091E00181FFEECFED
:101000008091DF01C7EED0E084FD0DC0E7CF809175
:10101000DF0180FD12C19091E00190FFDFCFC3EEB0
:10102000D0E084FFDBCFD0E0C0E0D8CF8091DF01FB
:1010300082FD06C19091E00190FDBFCF84FFCECF2D
:10104000F2CF8091DF0183FDDDCFC8CF8091DF013A
:1010500083FDF9C09091E00191FFF0CFC4EED0E0A4
:10106000BDCF8091DF0185FFB9CFC9E2D0E0B6CF17
:101070008091DF0185FFB2CFC5E3D0E0AFCF809193
:10108000DF0186FFABCFCAE2D0E0A8CF8091DF01BD
:1010900086FFA4CFC1E3D0E0A1CFCF3BD10518F6A6
:1010A000C85AD0E0CC0FDD1FC25FDE4F0990D88157
:1010B000C02DD46493CFC11540E2D40758F4C115B4
:1010C00081E0D80708F08ACFC03FD10508F4ABCF44
:1010D000D06584CFC11590E4D90708F4A4CFDF70A0
:1010E000D06A7CCFC11525E5D20700F5C11534E5DE
:1010F000D30708F08AC0C11543E5D40708F071C0D2
:10110000C11582E5D80708F467C0CE01837099271E
:1011100021E030E002C0220F331F8A95E2F7C69526
:10112000C69580E2C89FE001112452C0C11599E51F
:10113000D907A8F4C11528E5D20708F06BC0C1157E
:1011400036E5D30708F06FCF8C2F0E94FF06C82F1B
:10115000D0E0DC2FCC27CC27DF71D0623FCFC11588
:101160004AE5D40708F45BC0CE0190568115904241
:1011700008F059CF8D2F8F710E94FF0690E0982FB5
:10118000882788279F719C012C2BE901E6CFC55A3F
:10119000D0E0C55FDE4FC881D0E0D0641FCFCE0164
:1011A000E4E096958795EA95E1F783702C2F2695D4
:1011B0002695237040E2249F90011124382B8C2F18
:1011C0008370C1E0D0E002C0CC0FDD1F8A95E2F74A
:1011D000C22BD32BDC6802CFDC2FCC27C16FD06AA7
:1011E000FDCECE018370992721E030E002C0220FAE
:1011F000331F8A95E2F7C695C69590E2C99FE00134
:101200001124C22BD32BDA68E9CEDC2FCC27C46F94
:10121000D06AE4CEDC2FCC27C06FD06ADFCE8C2F13
:101220008F700E94FF0634E0D695C7953A95E1F796
:10123000CF709C2FEC01D069D1CEC9E3D0E0CECEE7
:10124000C2EED0E0CBCEC6EED0E0C8CEBF92CF92F9
:10125000DF92EF92FF920F931F93CF93DF938C0156
:10126000C0903902D0903A02E0903B02F0903C02EC
:101270008091DA019091DB01A091DC01B091DD0158
:10128000C82AD92AEA2AFB2ACFE1D0E0BC2ED7010E
:10129000C6010C2E04C0B695A795979587950A941C
:1012A000D2F780FD0EC0219788F7B12C8B2DDF91EE
:1012B000CF911F910F91FF90EF90DF90CF90BF9053
:1012C0000895B8018C2F0E949C07019761F3EECF1F
:1012D000CF93DF93EC010E942609BE01DF91CF91ED
:1012E0000C949C070E946809292F2F7092959F707B
:1012F00092509E3078F4E92FF0E0EF51FD4D0C94C0
:101300007C22803F19F020F4883E20F481E008958B
:10131000843FE1F380E00895883EC0F3813FD1F738
:10132000F5CF822F86958695869508956F927F9248
:101330008F929F92AF92BF92CF92DF92EF92FF92E5
:101340000F931F93CF93DF9380E3C82E82E0D82EB4
:101350000FE410E0E801A09736011CC0F50185906C
:101360009490692DC7010E94AB22682DC701019698
:101370000E94AB2282E0A80EB11C82E0E80EF11CB4
:10138000CE15DF0559F788E0680E711C28960C17FA
:101390001D0731F07E0188E0E81AF1085301DECF25
:1013A000005E1F4F80E2C80ED11C0F3C110591F664
:1013B000DF91CF911F910F91FF90EF90DF90CF9031
:1013C000BF90AF909F908F907F906F900895CF9334
:1013D000DF93C7EAD0E060E0CE010E94AB22219605
:1013E000C11584E0D807B9F7DF91CF910895EF9246
:1013F000FF920F931F93CF93DF938091D801909129
:10140000D701892B9091D601892B80936A01909105
:10141000D9019923B1F0892B80936A0180910A0147
:10142000882309F45DC08091DF0187FF59C08EE1F8
:10143000ECE6F1E090E0815008F054C091110E9478
:101440003805E091E501F091E601309709F450C0CC
:1014500080910A01882359F08091DF0187FF07C03E
:1014600080916A0180936B0185E080936A0102801C
:10147000F381E02D8AE691E009958091F80182FFE1
:1014800037C080FF04C08CED93E00E94DD02CAE605
:10149000D1E082E7E82E81E0F82E06ED13E080919E
:1014A000F80180FF0BC088811F928F931F930F93C9
:1014B0000E9476030F900F900F900F902196EC16DC
:1014C000FD0669F78091F80180FF12C084ED93E07A
:1014D000DF91CF911F910F91FF90EF900C94DD025F
:1014E00086E0A6CF2191222309F4A5CF9F5FA3CF49
:1014F000DF91CF911F910F91FF90EF900895882376
:1015000041F080959091D80189238093D8010C9463
:10151000F7090895882339F09091D801982B90937A
:10152000D8010C94F7090895CF93DF93D82FC09179
:10153000E001C2FB882780F98D17F9F0D0FBC2F9D2
:10154000C093E0016091DF0184E090E00E94AB2253
:101550006C2F82E290E00E94AB228091F80180FF24
:101560000CC01F92DF938FEB93E09F938F930E94A9
:1015700076030F900F900F900F90DF91CF91089509
:1015800090910A01992359F19091DF0197FF27C0AB
:10159000E82FE695E695E695EE3180F4F0E0E65921
:1015A000FE4F282F277081E090E001C0880F2A9518
:1015B000EAF7809592818923828308959091F801BA
:1015C00090FF19C01F928F9381EA93E09F938F93AE
:1015D0000E9476030F900F900F900F900895ECE605
:1015E000F1E09191891303C0DF0111971C9291E002
:1015F000E237F907B1F7089590910A01992349F16B
:101600009091DF0197FF25C0E82FE695E695E695D6
:10161000EE3170F4F0E0E659FE4F877021E030E0E3
:1016200001C0220F8A95EAF78281822B8283089576
:101630009091F80190FF1EC01F928F9383E893E072
:101640009F938F930E9476030F900F900F900F90AF
:101650000895ACE6B1E0EFEF90E02D91821751F0E4
:10166000EF3F19F4211101C0E92F9F5F9630A9F7D0
:10167000EF3F09F408950E2E000CFF0BE659FE4FC4
:10168000D5CF8091F80183FF7EC08DE092E00E946B
:10169000DD028091F2011F928F9388E092E09F9388
:1016A0008F930E94760386E092E00E94DD02809193
:1016B000F301282F082E000C330B3F938F9383E008
:1016C00092E09F938F930E94760381E092E00E94C4
:1016D000DD028091F401282F082E000C330B3F937C
:1016E0008F938EEF91E09F938F930E9476038CEF00
:1016F00091E00E94DD028091F501282F082E000C58
:10170000330B3F938F9389EF91E09F938F930E94C8
:10171000760387EF91E00E94DD028091F601282F89
:10172000082E000C330B3F938F9384EF91E09F932F
:101730008F930E94760381EF91E00E94DD028091F9
:10174000EE011F928F938EEE91E09F938F930E94F4
:1017500076038CEE91E00E94DD02809192011F924F
:101760008F9389EE91E09F938F930E94760386EE8C
:1017700091E00E94DD028DB79EB74C960FB6F894AB
:101780009EBF0FBE8DBF0E942C059C019091F3015E
:101790008091F401982B21F03093F0012093EF0118
:1017A0009091F5018091F601982B21F03093ED0195
:1017B0002093EC01E091E501F091E601309749F0CA
:1017C00082E08093F1010480F581E02D81EF91E0CA
:1017D0000994089590E080E00E94B10590E080E0D7
:1017E0000E949B051092D7011092D6010E94F70922
:1017F00086E0E1EFF1E0DF011D928A95E9F71092B2
:10180000EE011092EB01109292010C94410B609347
:10181000390270933A0280933B0290933C020C94FD
:10182000EA0B0F931F936091390270913A028091F5
:101830003B0290913C028B019C01067011272227EC
:101840003327063011052105310529F468601F9101
:101850000F910C94070C677FFACF0F931F9341E011
:1018600050E060E070E004C0440F551F661F771F12
:101870008A95D2F7CB01BA016095709580959095C5
:101880000091390210913A0220913B0230913C02C2
:1018900060237123822393231F910F910C94070CD3
:1018A0009091D501809589238093D501282F2770A9
:1018B00039F4282F082E000C330B9217130621F44D
:1018C0009091E00192FF07C08595859585950E94CE
:1018D0002D0C1092D50108950F931F9341E050E015
:1018E00060E070E004C0440F551F661F771F8A95A3
:1018F000D2F78091390290913A02A0913B02B091C7
:101900003C028A019B01082B192B2A2B3B2BC90176
:10191000B8011F910F910C94070C6093DA0170933A
:10192000DB018093DC019093DD010C94EA0B8823AA
:1019300009F459C0823871F40E94C70581FF53C071
:1019400089E30E94FC0A0E94F70989E30E94C00A09
:101950000C94F709833859F40E94C70580FF43C0EF
:1019600083E50E94FC0A0E94F70983E5EFCF8438E3
:1019700059F40E94C70582FF36C087E40E94FC0A22
:101980000E94F70987E4E2CF9CEF980F913AF0F2BA
:1019900090E2980F983088F4877021E030E0A90138
:1019A00002C0440F551F8A95E2F7CA0180959091B5
:1019B000D80189238093D801CBCF9BE5980F933032
:1019C00020F490E080E00C94B10598E5980F9731F1
:1019D00020F490E080E00C949B05803F20F00E9472
:1019E000D3050C94410B08959FB7F894109205020B
:1019F0009FBF90912C02943009F048C02091E900DB
:101A00002F703091EC00932F917030FD90E8922B65
:101A100025E02093E9002091EB0020FF34C02091C5
:101A2000EE0027FF30C02091DE01222321F020911B
:101A3000E80025FF28C01092DE0126E03091E80082
:101A400035FF14C08093F1008091E80085FD27C028
:101A50008091E80080FFFCCF8091E8008E77809332
:101A6000E8009F709093E90080E0089530912C0287
:101A7000343049F43091EB0035FD05C0215041F47C
:101A800081E08093DE019F709093E9008FEF0895CD
:101A9000EFE9FFE03197F1F700C00000CFCF8FB73B
:101AA000F89421E0209305028FBFDBCFCF93DF9323
:101AB00000D00F92CDB7DEB790912C02943011F583
:101AC00089837B836A839093E9008FEF9091E8008C
:101AD000815095FD06C095ED9A95F1F700008111B2
:101AE000F5CF8091E80085FF0DC050E040E063E055
:101AF00070E0CE0101960E94CF038091E8008E77BE
:101B00008093E8000F900F900F90DF91CF91089590
:101B1000BC0184E00C94560DBC0183E00C94560D7E
:101B20009C0184E08093E9009FEF8091E800915050
:101B300085FD06C085ED8A95F1F700009111F5CF7E
:101B40008091E80085FF0CC050E040E066E070E066
:101B5000C9010E94CF038091E8008E778093E8004E
:101B60000895CF93DF93EC0180910A018823B1F1AE
:101B70008091DF0187FF32C060E284E08093E9005A
:101B80008FEF9091E800815095FD06C095ED9A95F4
:101B9000F1F700008111F5CF8091E80085FF1BC0AF
:101BA00080910A0170E050E040E0811104C050E0F3
:101BB00040E068E070E0CE010E94CF038091E80031
:101BC0008E778093E80080E2FE01AAE0B2E0019007
:101BD0000D928A95E1F7DF91CF91089568E081E059
:101BE000CDCFCF93C82F882309F4AEC08238C1F47B
:101BF0000E94C70581FDA8C089E30E94FC0A0E94DB
:101C0000F7092FEF81EE94E0215080409040E1F7FA
:101C100000C0000089E30E94C00ACF910C94F7092C
:101C20008338A1F40E94C70580FD8EC083E50E9421
:101C3000FC0A0E94F7092FEF81EE94E021508040CA
:101C40009040E1F700C0000083E5E5CF8438A1F4BF
:101C50000E94C70582FD78C087E40E94FC0A0E94AA
:101C6000F7092FEF81EE94E0215080409040E1F79A
:101C700000C0000087E4CFCF8CEF8C0F813A88F54D
:101C800080910A01882301F18091DF0187FF1CC048
:101C9000EC2FE695E695E695F0E0E659FE4F828159
:101CA00090E04C2F477021E030E002C0220F331F3C
:101CB0004A95E2F782239323892B79F08C2F0E9497
:101CC000C00A0E94F70909C0ECE6F1E08191C8174B
:101CD000A9F321E0E237F207C9F78C2F0E94FC0A32
:101CE0009CCF80E28C0F883068F4C77021E030E030
:101CF00001C0220FCA95EAF78091D801822B809308
:101D0000D8018BCFEBE5EC0FE33040F4F0E0E55F7A
:101D1000FE4F808190E0CF910C94B105E8E5EC0F87
:101D2000E73150F4F0E0EE0FFF1FE25FFE4F8081DD
:101D30009181CF910C949B05C03F30F08C2F0E9475
:101D40008E06CF910C94410BCF9108951F93CF93A2
:101D5000DF93182FD0E0C0E0893311F4C0E5D0E064
:101D6000812F0E94F10D209731F4812FDF91CF91C7
:101D70001F910C94970C8FE99FE00197F1F700C039
:101D800000002197F0CF0F931F93CF93DF93C62FBF
:101D9000D42F022FFC0182818823A1F060933802A6
:101DA0000E942C059093370280933602C77081E021
:101DB00001C0880FCA95EAF7DF91CF911F910F916B
:101DC0000C948A0A80913802681335C080913602DB
:101DD000909137020E941D05883C910560F510E244
:101DE0001D0FCD17B9F080E28C0F883040F4C7701A
:101DF00081E001C0880FCA95EAF70E947F0A183077
:101E000048F481E09D2F977001C0880F9A95EAF7FA
:101E10000E948A0A802F0E94A60E183098F4D7706C
:101E200081E001C0880FDA95EAF7DF91CF911F9129
:101E30000F910C947F0AC77081E001C0880FCA958A
:101E4000EAF7F3CFDF91CF911F910F9108958F9211
:101E50009F92AF92BF92CF92DF92EF92FF920F9339
:101E60001F93CF93DF930CE311E0D0E0C0E0B12CDF
:101E7000CC24C394D12C25EEE22E21E0F22ED80101
:101E80008D918D01F894E82FE295EF70F0E021A19B
:101E90008F70A60102C0440F551F8A95E2F7CA0150
:101EA000922F982B91A392A18095892382A3789455
:101EB00000C096010C2E01C0220F0A94EAF7522F9F
:101EC0002095E1EEF1E080E4882E81E0982EA12CAF
:101ED0004191D4013D914D01832F82958F7090E007
:101EE000DC0190968C9190E03F7002C095958795AB
:101EF0003A95E2F780FD42C0852F842B481739F0D0
:101F0000BF0161507109DB018C93AA24A394EE16E2
:101F1000FF06F1F6F801319780810E94E806B0EAE9
:101F2000BA95F1F7BA282196C430D10509F0A7CFA8
:101F3000BB2039F181E080938C010E942C059093A5
:101F40008B0180938A0180918A0190918B010E947C
:101F50001D050697D0F08091E1018093FD018091ED
:101F6000E2018093FE018091E3018093FF01809163
:101F7000E4018093000210928C0107C0822F842319
:101F8000BDCF80918C018111DECF8B2DDF91CF9160
:101F90001F910F91FF90EF90DF90CF90BF90AF9087
:101FA0009F908F9008956AEE7EEF90E080E00E940F
:101FB000C92260E082E090E00E94AB2260E083E012
:101FC00090E00E94AB221092DA011092DB01109295
:101FD000DC011092DD0160E084E090E00E94AB2221
:101FE00060E082E290E00E94AB2260E085E090E059
:101FF0000E94AB2260E086E090E00E94AB226FEF8F
:1020000087E090E00E94AB2240E050E0BA0188E017
:1020100090E00E94BD2260E08DE090E00E94AB2243
:1020200040E050E0BA0188E190E00E94BD2260E00B
:1020300087E190E00E94AB2240E050E0BA018CE1E1
:1020400090E00E94BD2270E060E080E290E00E949B
:10205000C92240E050E0BA0188E190E00E94BD2230
:1020600040E050E0BA018FE090E00E94BD2240E0E5
:1020700050E0BA0183E190E00C94BD221092D801A7
:1020800080910A01ECE6F1E0882359F08091DF01AC
:1020900087FF07C08EE1DF011D928A95E9F70C9456
:1020A000EA0B86E0F8CF1F93CF93DF93CDB7DEB76F
:1020B000AA970FB6F894DEBF0FBECDBF8EE292E0B6
:1020C0002091F100DC012D93CD01B2E086339B0716
:1020D000B9F780912F02833009F471C0B8F48130D0
:1020E00009F448C0823009F4B2C08091E80083FF4F
:1020F0003AC180912E0290912F029A3008F033C19C
:10210000E92FF0E0E151FD4D0C947C228A3009F476
:102110008DC08B3009F470C0893039F780912E0260
:10212000813219F78091320290913302009711F0B9
:102130000297D9F68091E800877F8093E80080912C
:10214000E80082FF37C09091F3008091F20002977F
:1021500029F48091F1008B7F813021F48091F1008E
:10216000809309028091E8008B778093E8000E94B9
:10217000F903BBCF80912E02813A09F0B6CF80914E
:10218000E800877F8093E8008091320290913302CB
:10219000892B61F460E28AE092E070E00E94AB0477
:1021A0008091E8008B778093E8009FCF60E090E01B
:1021B00080E0F3CF80912C028111C1CF96CF809126
:1021C0002E02813A09F091CF809132029091330230
:1021D000892B09F08ACF8091E800877F8093E800FF
:1021E0008091E80080FFFCCF80910A018093F1008C
:1021F0008091E8008E77B9CF80912E02813209F06C
:1022000074CF8091320290913302892B09F06DCF07
:102210008091E800877F8093E8000E94F903809115
:10222000300280930A010E943E105FCF80912E02FF
:10223000813209F05ACF8091E800877F8093E800CF
:102240000E94F90380913102809308024ECF809161
:102250002E02813A09F049CF8091E800877F809370
:10226000E8008091E80080FFFCCF80910802BECF9B
:10227000803899F0823809F076C0809132028F70F0
:10228000873008F070C08093E9008091EB0085FBF7
:10229000882780F91092E90006C080912A02909167
:1022A0002B02911182609091E800977F9093E80053
:1022B0008093F1001092F1008091E8008E77BAC10E
:1022C000882309F4A7C1823009F04DC08091300203
:1022D0008111ABC1809132028F702FEF280F263011
:1022E00008F041C08093E9002091EB0020FF9DC1E0
:1022F000933031F48091EB0080628093EB0095C1C4
:102300009091EB0090619093EB0021E030E001C0F0
:10231000220F8A95EAF72093EA001092EA00809152
:10232000EB008860EACF81111EC0109130021F7748
:102330008091E3008078812B8093E3008091E80016
:10234000877F8093E8000E94F9038091E80080FF76
:10235000FCCF8091E30080688093E30082E011115C
:1023600083E080932C028091E80083FF0AC0809173
:10237000E800877F8093E8008091EB008062809383
:10238000EB00AA960FB6F894DEBF0FBECDBFDF916B
:10239000CF911F9108958058823028F72091300204
:1023A000309131022C3DE3E03E07A1F583E08A83C2
:1023B0008AE289834FB7F894DE01139620E03EE06D
:1023C00051E2E32FF0E050935700E49120FF03C067
:1023D000E295EF703F5FEF708E2F90E0EA30C0F033
:1023E000C7968D939D932F5F243159F74FBF8091EE
:1023F000E800877F8093E8006AE270E0CE010196F2
:102400000E94AB048091E8008B778093E800ABCF0B
:10241000C096E7CF8091320290913302432F552727
:102420004330510509F44AC078F54130510509F4AB
:102430007AC08BE790E0EFE4F4E04230510509F018
:1024400092CF2091E800277F2093E800209134026A
:10245000309135028217930708F49C0140E0211562
:10246000310509F065C0411163C08091E80082FD2B
:10247000C9CF80912C02882329F2853019F28091EE
:10248000E80083FFF2CFBECF4132510509F43CC0D2
:102490004232510509F067CF8430910508F063CFCF
:1024A000FC01EE0FFF1FE85AFE4F0190F081E02D76
:1024B0008C5A9E4FDC018C9190E01AC0332721305A
:1024C0003105D1F02115310561F02230310509F0D7
:1024D0004ACFECEDF4E0E4918E2F90E0ECEDF4E0E7
:1024E00007C0ECE0F5E0E4918E2F90E0ECE0F5E041
:1024F000009709F438CFA5CFEEEEF4E0E4918E2FEB
:1025000090E0EEEEF4E0F4CF8430910508F02BCFAC
:10251000880F991FFC01E05AFE4F0190F081E02DD9
:1025200089E090E08ECF82E190E0EAECF4E089CFA0
:1025300080912C02882309F465CF853009F462CF9D
:102540008091E80083FD5ECF8091E80082FD8DCF11
:102550008091E80080FF83CF9091F3008091F2009A
:102560002115310519F08830910550F041E00897A8
:1025700009F040E08091E8008E778093E8006FCF0B
:1025800044914093F1003196215031090196E8CFF2
:10259000803809F0E8CE8091E800877F8093E800DA
:1025A00080912D028093F10087CE8111DCCE1091B5
:1025B0003002123008F0D7CE8091E800877F8093F8
:1025C000E80010932D020E94F903112311F084E01A
:1025D00005C08091E30087FDFACF81E080932C0253
:1025E00042E061EC81E00E94180442E261EC84E088
:1025F0000E94180442E261EC82E00E94180442E268
:1026000060EC83E00E94180442E261EC85E00E94E5
:102610001804A9CE80913002813009F0A4CE81E067
:10262000933009F080E080932B021092E9008091B2
:10263000E800877F8093E8000E94F90394CE3F92E0
:102640004F925F926F927F928F929F92AF92BF92C2
:10265000CF92DF92EF92FF920F931F93CF93DF936E
:1026600000D000D00F92CDB7DEB78C01FC01838182
:102670009481892B31F08081918189238F3F09F0EA
:10268000CFC50F900F900F900F900F90DF91CF91CB
:102690001F910F91FF90EF90DF90CF90BF90AF9080
:1026A0009F908F907F906F905F904F903F90089594
:1026B0000E942609F82E682F89819A810E9465055B
:1026C00069817A818F2D0E948F077C01F8018281B8
:1026D000882309F498C5970122513F4520313105DF
:1026E00008F064C58FEF93E00E949D22FEEEEF0E8E
:1026F00057EA852E912C882381F18091D50187702E
:1027000009F4BFCFF8018281882309F4BACF82E0AF
:102710000F900F900F900F900F90DF91CF911F911E
:102720000F91FF90EF90DF90CF90BF90AF909F9070
:102730008F907F906F905F904F903F900C94500CD3
:10274000811424E09206C9F2C4010E949D228111E5
:1027500001C0EA943FEF831A930AE110F1CF1C8283
:102760001B82442443944AE0342E74018FEFE81A0C
:10277000F80AC4010E949D2289831A82882309F4E1
:10278000BCCF9FEF980F933000F58A83498292E087
:10279000890E911CC7010E949D228B83882309F416
:1027A000ACCFFE0131967F01F70120812223E9F2AF
:1027B000213009F049C091818281913041F4F2E0E9
:1027C000EF0EF11C0E94A60E09C04701EACF92301D
:1027D00049F422E0E20EF11C0E94F10D3FEFE31AF2
:1027E000F30AE2CF933031F432E0E30EF11C0E94A1
:1027F000970CF4CF943021F08FEFE81AF80AEECF5F
:1028000092E0E90EF11C30E020E0B7016F5F7F4FEE
:10281000F70141818053990B8A30910550F0215086
:102820003109E0F28FE99FE00197F1F700C0000065
:10283000F6CF329EF001339EF00D11249C012E0F35
:102840003F1F842F7B01E1CFE22FF0E0E052FD4FEC
:102850005490822F86958695869590E0FC01E053F2
:10286000FD4F64902770712C022E02C075946794FE
:102870000A94E2F7E1E06E227724FC01E054FD4F78
:10288000A490B12C022E02C0B594A7940A94E2F74A
:10289000F1E0AF22BB24FC01E055FD4FC490D12CE8
:1028A00002C0D594C7942A95E2F721E0C222DD2424
:1028B0006114710419F081EE0E94F10DA114B104AC
:1028C00019F086EE0E94F10D852D0E94A60EAB2810
:1028D00019F086EE0E94970C672819F081EE0E948D
:1028E000970CCD2809F47ACF8CE26CCF81E00E945E
:1028F0006C0C0E94110C01CF81E00E942D0CF9CFCD
:1029000082E0F5CF95EFE9169CE5F90609F469C078
:1029100008F463C027E245EE66EEF6EFEF16FCE53D
:10292000FF0609F46CC4882309F48BC410923802A2
:1029300022E0E2162CE5F20608F44CC136E1E3167B
:102940003CE5F30630F0C7018A5F9C45099708F023
:1029500041C10E945A079093E0018093DF0180E11A
:10296000E8168CE5F80609F404C108F083C0E8E035
:10297000EE16ECE5FE0609F4EEC008F04FC024E0C8
:10298000E2162CE5F20609F4DEC090F582E0E816C6
:102990008CE5F80609F4D1C08091DF01826093E0F4
:1029A000E9169CE5F90609F4CBC06091DF01F090CF
:1029B000E00184E090E00E94AB226F2D82E290E083
:1029C0000E94AB220E943E1098CE27E245EE65EEB3
:1029D00016C426E241EE60EE12C427E245EE64EE34
:1029E0000EC426E241EE62EE0AC428E241E0EFCFD7
:1029F0008091DF018061E6E0EE16ECE5FE0609F469
:102A00009FC08091DF018860F7E0EF16FCE5FF06CC
:102A100008F496C08091DF01806292C08091DF014E
:102A20008D7F2CE0E2162CE5F20609F489C060F4F3
:102A30008AE0E8168CE5F80609F497C008F48FC020
:102A40008091DF018E7F7CC08091DF01877FEEE087
:102A5000EE16ECE5FE0609F473C08091DF018B7F72
:102A6000FFE0EF16FCE5FF0608F46AC08091DF0185
:102A70008F7E66C02BEFE2162CE5F20609F467C0E4
:102A800068F583E1E8168CE5F80609F47AC090F45D
:102A9000E1E1EE16ECE5FE0609F46FC0F2E1EF1697
:102AA000FCE5FF0609F081CF0E943E108091DF0116
:102AB0008F7746C025E1E2162CE5F20609F469C0DD
:102AC00008F47DC08AEFE8168CE5F80609F06DCFB2
:102AD0008091E00181608093E00167CF9FEFE9166C
:102AE0009CE5F90609F451C0A0F48091E0018D7FC6
:102AF000FDEFEF16FCE5FF0671F38091E0018E7F9C
:102B00002EEFE2162CE5F20630F38091E0018360AF
:102B1000E2CF31E0E3163DE5F30609F459C008F4CD
:102B200044C060E092E0E9169DE5F90609F03DCF6A
:102B30008EE090E00E94AB2238CF8091DF0181606F
:102B40008093DF0132CF8091DF018460F9CF8091E3
:102B5000E0018260C0CF8091DF018064F1CF0E94EC
:102B60003E108091DF018068EBCF8091DF018C60A7
:102B7000E7CF8091DF018F7DE3CF8091DF018F7BF5
:102B8000DFCF8091DF01837FDBCF8091E0018C7FFD
:102B9000A2CF8091DF0182FB992790F921E0922753
:102BA00090FB82F990FB83F9CBCF8091E001982FC5
:102BB000909591708E7F892B90FB81F98CCF0E942C
:102BC0003E109091DF01892F97FB87F98058B8CF8D
:102BD00061E0AECFE6E1EE16ECE5FE0609F03FC39C
:102BE0008091D8018A7A91E009F490E09093910164
:102BF000811106C089E20E94FC0A0E94F7097DCD7E
:102C000085E3F9CF85E328C30E943E10FFEF24E35C
:102C10003CE0F15020403040E1F700C000000E944D
:102C20000C0580E693E039C30E94D30F66CD8091F6
:102C3000E00182FB882780F991E089270E94940AAD
:102C4000F8018281E080F180882309F43DC0C7014A
:102C50000E942609D82E682FC7010E946505B7017A
:102C60008D2D0E949C077C01882EF801D280A580C2
:102C7000A2943FE0A3228091D5018770A1F0CD2CD2
:102C8000DD2091F08F2D807F803421F080E28E0D49
:102C9000883048F082E00E94500C8091D501877006
:102CA000CC24C3948111C12C3F2C32942FE03222CA
:102CB000FBE0F31508F444C0E32DF0E0E750FD4DD0
:102CC0000C947C2280E0BACFC7010E943E05D82E2A
:102CD000C6CF2F2D2F70A22E8F2D807F19F0A2949A
:102CE00090EFA922DD20C9F0AA2069F080E28E0DC4
:102CF000883010F081100BC08091D801A82AA092D2
:102D0000D8010E94F7098E2D0E94F10D19C0809103
:102D1000D701A82AA092D701F4CF8E2D0E94970C3C
:102D2000AA2071F0A09480E28E0D883010F08110FE
:102D30003DC08091D801A822A092D8010E94F70935
:102D4000232D2850330B2430310510F40E94C70581
:102D5000CC2009F496CC8091D50180FD92CCF8016D
:102D600012828595859585950E946C0CC8010E94FC
:102D70001F138091D5018595859585950F900F90AE
:102D80000F900F900F90DF91CF911F910F91FF90B7
:102D9000EF90DF90CF90BF90AF909F908F907F90FB
:102DA0006F905F904F903F900C942D0C8091D701C5
:102DB000A822A092D701C2CF3F2D3F70932E8F2D16
:102DC000807F803219F0929480EF9822882071F0F1
:102DD00081E0881681F1DD20D9F1AA2091F1F80176
:102DE000858180FF90CF8F7085832BC0DD20B1F06F
:102DF0009091D901892D892BA11003C00E948A0AC4
:102E00009FCFE1E0AE12FACF2091E00122FD98CFF2
:102E1000981709F495CF8093D90192CFA11006C0DD
:102E20000E943805892D0E947F0A8ACFF1E0AF16F3
:102E300009F486CFF5CFDD2031F025E02A1508F41E
:102E40007FCF892DDBCF34E03A1508F479CFEACF74
:102E5000AA2041F3F9E38F1209C02FEF37EE83E088
:102E6000215030408040E1F700C000008E2D0E94CC
:102E7000970C66CF8F2D86958695837061F0813093
:102E800009F05ECFC7019370D11002C090E080E0DE
:102E90000E949B0555CFC7019370D11002C090E0EE
:102EA00080E00E94B1054CCF8E2DDD2029F00E94DC
:102EB0008E060E94410B44CF0E94D305FACF8F2D7E
:102EC000837009F066C0D1103BCF8E2D8295869518
:102ED0008770880F880F6E2D6F70462E512C712CC5
:102EE000612C082E04C0440C551C661C771C0A94E7
:102EF000D2F740E050E0BA01E4FE0FC04FE050E0EE
:102F000060E070E004C0440F551F661F771F8A956C
:102F1000D2F740955095609570958F2D8695869542
:102F20008370823019F1D8F48090DA019090DB013F
:102F3000A090DC01B090DD01813069F04429552971
:102F400066297729CB01BA01682179218A219B2141
:102F50000E948D0CF5CE482859286A287B28CB0181
:102F6000BA016429752986299729F2CF4429552960
:102F7000662977294090DA015090DB016090DC01EE
:102F80007090DD01CB01BA01642575258625972552
:102F9000DFCF8695DD2011F08F2D8170882309F415
:102FA000CFCE8E2D829586958770880F880F6E2DD7
:102FB0006F70462E512C712C612C082E04C0440CCD
:102FC000551C661C771C0A94D2F740E050E0BA0109
:102FD000E4FE0FC04FE050E060E070E004C0440F3A
:102FE000551F661F771F8A95D2F7409550956095BB
:102FF00070958F2D869586958370823019F1D8F45F
:103000008090390290903A02A0903B02B0903C022E
:10301000813069F04429552966297729CB01BA0105
:10302000682179218A219B210E94070C89CE48289A
:1030300059286A287B28CB01BA0164297529862979
:103040009729F2CF442955296629772940903902DA
:1030500050903A0260903B0270903C02CB01BA0162
:103060006425752586259725DFCF9F2D9F70F92E26
:10307000DD2029F0892F0E946C0C8E2DBFCE8E2D65
:103080000E947F0A8F2D0E942D0C5ACE8E2DE2EFCA
:103090008E1609F457C0E81578F0F0EF8F1649F155
:1030A00021EF821609F446C0DD2009F46FC0A1109B
:1030B0002ACE8F2D8F7143C033EF831609F447C09A
:1030C00094EF8912F1CFDD2009F455C02F2D2F7117
:1030D000F22E822F0E946C0C8091E00182FD07C0CD
:1030E00038E0F39EC001112483608093D5018F2DB9
:1030F00026C0DD20D1F0E4E0EA1508F421CE2F2D22
:103100002F7161E070E080E090E004C0660F771FEF
:10311000881F991F2A95D2F74090390250903A02A1
:1031200060903B0270903C029BCFF5E0FA1508F4EA
:1031300007CEE5CF8F2D8F71DD2009F4A4CF0E943B
:103140006C0CFECD8F2D8F71DD20C9F39CCF60E01C
:1031500070E0CB01DD2009F467CF2F2D2F7161E0E6
:1031600070E080E090E004C0660F771F881F991F11
:103170002A95D2F759CF81E00E94500C81E08A1540
:1031800008F0DECD82E00E94500CDACDAA2059F082
:10319000893309F06BCE9FEFE7EEF3E09150E0400A
:1031A000F040E1F761CE8F2D8F716DCFF0E1EF161A
:1031B000FFE5FF0609F49ACB21E1E2162FE5F206BE
:1031C00009F49ECB93EFE9169CE5F90609F401CCCE
:1031D00008F098CBF8EDEF16FCE5FF0609F4F5CB07
:1031E00029EDE2162CE5F20609F4FFCB37EDE316E4
:1031F0003CE5F30609F097CB26E241EE61EEC8010B
:103200000E94C30E7ACA30E1E3163FE5F30609F4E3
:1032100073CB91E1E9169FE5F906A1F682E06DCB4B
:1032200085E0DE01119601900D928A95E1F7F80193
:10323000228189819A8121113BCA0E943E05F82E84
:103240003FCAF6E1EF16FCE5FF0609F0F9CC8091E4
:1032500091018111D7CC89E20E94C00ACECC2EED1B
:10326000E2162CE5F20609F4DFCCD0F4E1148CE58B
:10327000F80609F4C9CC91E0E9169CE5F90609F0D5
:10328000DFCC9091F801892F8E7F90FF8160809331
:10329000F80180FFC6CC82E793E00E94DD022DCAD0
:1032A000EBE5EE16EDE5FE0609F40CCDFCE5EF16B8
:1032B000FDE5FF0609F4BBCC2AE5E2162DE5F20692
:1032C00009F0BECC81E0BACC1F93CF93DF938091FD
:1032D0009801807FA9F480919501882389F08091DD
:1032E000CA01D09199016091930170919401A091CC
:1032F0009601B0919701C62FC72316E0D81304C0DA
:10330000DF91CF911F91089590E0109711F0CF3F7A
:1033100019F401968770F2CF189F9001199F300D14
:103320001124F901E656FE4F41814713F2CF408147
:103330004613EFCF42814111ECCF438154814A1BA8
:103340005B0B483C510528F7809198018F70806194
:1033500080939801F901E156FE4F80818F70806162
:10336000808383E991E00E941F13DF91CF911F9129
:103370000C949105AF92BF92CF92DF92EF92FF92A1
:103380000F931F93CF93DF93CDB7DEB761970FB63F
:10339000F894DEBF0FBECDBF8C0185E0F801DE01E1
:1033A0001D9601900D928A95E1F7F8018081918137
:1033B000E28023E9A22E21E0B22E60919601709165
:1033C00097016115710509F43EC130919301409157
:1033D0009401232F24232F3F09F435C1C380D480C7
:1033E000F0909501F601E61BF70BFF2009F4FBC0F6
:1033F00020919801522F507FE83CF10508F0BBC0A6
:10340000511178C0FE2C491321C038131FC0E110A0
:103410001DC02F70206120939801C5010E941F13C9
:1034200080919801F80185838F2D61960FB6F894ED
:10343000DEBF0FBECDBFDF91CF911F910F91FF90E7
:10344000EF90DF90CF90BF90AF900895CD2829F0F6
:10345000282F29232F3F09F014C120E0F22FF1700B
:10346000DF2E20FF3DC02091CA014091990156E016
:10347000241315C08D879E878D859E850E946809BF
:10348000292F22952F702230F8F0243020F59F70DC
:10349000F9F0F8019581907FD9F4D12C1FC030E06C
:1034A000529FF001539FF00D1124E656FE4F6181AB
:1034B000961306C06081861303C06281E61210C0B5
:1034C0002F5F3F4F2770D4CF9F7011F0882329F3CF
:1034D000805E883010F3C8010E941F13FD2CA4CF1A
:1034E000EE2009F4A1CF809198018160809398012A
:1034F000F12C9ACF491312C0381310C0E1100EC03E
:10350000F8012583C8010E941F1386E0F801A3E992
:10351000B1E001900D928A95E1F786CF8D879E8765
:103520008D859E850E947209882309F1EE20F9F0AD
:1035300080919801803270F0209193013091940134
:1035400038872F831986DB86CA868C87CE0107963B
:103550000E941F1386E0F801A3E9B1E001900D92EB
:103560008A95E1F70E946419FF24F3945DCFC801A6
:103570000E941F13F9CF51110AC083E991E00E9404
:103580001F1386E0F50111928A95E9F7B1CF49132F
:103590000FC038130DC0E1100BC0F8012583C8011E
:1035A0000E941F1386E0F50111928A95E9F73CCF3E
:1035B0008D879E878D859E850E9472098823B9F22A
:1035C000EE20A9F280919801803220F2209193019F
:1035D000309194013A8329831B82DD82CC828E83D1
:1035E000CE010196B5CFE83CF105E0F6FE2CEE20C9
:1035F00009F4BDCF491316C0381314C08091980147
:1036000080FD83CF982F907F09F47FCFF8018583C9
:10361000903F09F477CF982F907F905F8F70892B20
:10362000858370CF8D879E878D859E850E947209C8
:10363000811190CF80919801816080939801C80199
:103640000E941F13F1CEEE2009F491CF8D879E8743
:103650008D859E850E947209F82E882309F487CFF4
:1036600086E0F801A3E9B1E001900D928A95E1F7B7
:1036700080919301909194010E9468090E946419BD
:10368000D3CE21E02E25EACE1F93CF93DF93CDB783
:10369000DEB767970FB6F894DEBF0FBECDBF342FED
:1036A0004B8B252F5C8B6D8B7E8B8F8B8E899F89AF
:1036B00061111092D7011A8A198A3D872E876F8768
:1036C000998B888B86E0FE013D96DE01179601906E
:1036D0000D928A95E1F7CE0107960E94BA198823C8
:1036E00089F016E08091CA0190919901891349C02F
:1036F00067960FB6F894DEBF0FBECDBFDF91CF91B6
:103700001F91089586E0FE013796DE011196019023
:103710000D928A95E1F78A859B85892B11F38F811C
:10372000988589238F3FE9F22091990130E0C90102
:103730000196877099274091CA014817190671F4BC
:103740000E943E10109299011092CA0186E0E3E9AE
:10375000F1E0DF011D928A95E9F7C3CF96E0929FD1
:10376000D001939FB00D1124A656BE4FFE01319695
:1037700001900D929A95E1F7809399010E9491052D
:10378000B0CF819FC001112486569E4F0E94BA1966
:10379000882309F4ADCF8091CA0190E0019687702B
:1037A00099278093CA019ECF1F920F920FB60F9256
:1037B00011242F933F934F935F936F937F938F9336
:1037C0009F93AF93BF93CF93DF93EF93FF93D091EA
:1037D000E900DF708091EC00C82FC17080FDC0E867
:1037E0001092E9008091F000877F8093F000789438
:1037F0000E9453101092E9008091F000886080933D
:10380000F000CD2BCF70C093E900FF91EF91DF91D5
:10381000CF91BF91AF919F918F917F916F915F9168
:103820004F913F912F910F900FBE0F901F901895C1
:103830001F920F920FB60F9211242F933F934F9325
:103840005F936F937F938F939F93AF93BF93EF9308
:10385000FF938091E10082FF15C08091E20082FF1A
:1038600011C08091E1008B7F8093E10020910602DE
:103870002F5F822F62E30E945C22992309F4BEC06D
:10388000209306028091DA0080FF28C08091D80042
:1038900080FF24C08091DA008E7F8093DA008091CF
:1038A000D90080FFE1C080E189BD82E189BD09B412
:1038B00000FEFDCF81E080932C028BE394E00E9418
:1038C000DD0280910702811109C00E947F030E94DE
:1038D0004A048091E20084608093E2008091E100DC
:1038E00080FF1BC08091E20080FF17C08091E20042
:1038F0008E7F8093E2008091E20080618093E200FD
:103900008091D80080628093D80019BC85E08093B4
:103910002C0283E494E00E94DD028091E10084FFA8
:103920002DC08091E20084FF29C080E189BD82E141
:1039300089BD89B5982F917080FFFBCF8091D80009
:103940008F7D8093D8008091E1008F7E8093E1008D
:103950008091E2008F7E8093E2008091E20081609E
:103960008093E20080912D02882309F487C084E0CF
:1039700080932C0287E494E00E94DD028091E100B4
:1039800083FF2BC08091E20083FF27C08091E1007C
:10399000877F8093E10082E080932C0210922D02B9
:1039A0008091E1008E7F8093E1008091E2008E7F24
:1039B0008093E2008091E20080618093E20042E027
:1039C00060E080E00E9418048091F000886080939D
:1039D000F0008BE494E00E94DD02FF91EF91BF9133
:1039E000AF919F918F917F916F915F914F913F9197
:1039F0002F910F900FBE0F901F90189510920602F6
:103A000080910502882309F43DCF80912C028430F7
:103A1000C1F49091E9009F702091EC00822F817099
:103A200020FD80E8892B95E09093E9009091EB00D0
:103A300090FF04C09091EE0097FD08C08F708093B6
:103A4000E900109205021ECF1092F1009091E8005B
:103A500095FDFACF9091E80090FFF0CF9091E800AB
:103A60009E779093E800EACF19BC10922C028FE366
:103A700094E00E94DD021092070230CF8091E300B3
:103A800087FD93E090932C0275CFCDB7DEB7AC974E
:103A90000FB6F894DEBF0FBECDBF84B7877F84BF5B
:103AA0000FB6F894A89580916000886180936000BB
:103AB000109260000FBE80E890E00FB6F8948093FB
:103AC0006100909361000FBE85B7806885BF85B7A0
:103AD000806885BF84EF9CE09093690180936801C2
:103AE0000E947F030E944A048091E20084608093D8
:103AF000E200789480912C028823A1F01091E900D3
:103B00001F709091EC00892F817090FD80E8182B38
:103B10001092E9008091E80083FD0E9453101F700D
:103B20001093E90082E084BD93E095BD9AEF97BDC4
:103B300080936E0087EF0E94E80686EF0E94E806F9
:103B400082E90E94E80683E90E94E80684E90E946F
:103B5000E80681E90E94E80686EC0E94E80685E313
:103B60000E94E8061092E1011092FD011092E2011C
:103B70001092FE011092E3011092FF011092E401F5
:103B80001092000290E080E00E94A5228A3E9E4FA3
:103B900011F00E94D30F82E090E00E949D2280935A
:103BA000F8010E945A079093E0018093DF010E9480
:103BB000270F8FE39CE90197F1F700C000000E94F6
:103BC000270F8091FD0180FF17C06FEF83E290E027
:103BD0000E94AB226FEF84E290E00E94AB226FEF75
:103BE00085E290E00E94AB226FEF7FEF90E080E0F3
:103BF0000E94C9220E940C0583E090E00E949D2251
:103C0000682F70E090E080E00E948D0C83E290E0ED
:103C10000E949D22813209F0D9C384E290E00E9483
:103C20009D22873009F0D2C385E290E00E949D2258
:103C3000893209F0CBC384988C9A85988D9A8FB17C
:103C4000829581707D9964C090E0892B8093EA0110
:103C500080E091E09093E6018093E5018AE294E0B0
:103C60000E94DD028DEF91E0E4E0E80FECA7E8EFC1
:103C70004E2EE3E05E2E80912C02853089F486E2A0
:103C800094E00E94DD0270E4F72E00E112E18091E1
:103C90002C02853009F43EC00E943E100E94C705E8
:103CA0000E94270F882359F08FB7F89440910102A2
:103CB0005091020260910302709104028FBF59EF8C
:103CC000652E51E0752E6DEFC62E61E0D62E10E008
:103CD00000E00BA7F60131906F01F30121903F0145
:103CE00023104FC00F5F1F4F0430110591F78FEF66
:103CF0008EA38FA318A60E942C058160782F9AA707
:103D000089A74EA15FA168A58AA50E94441B5FC038
:103D100092E09BCF80912C02843019F11092E70140
:103D200088E190E00FB6F894A895809360000FBEEC
:103D3000F092600083B7817F846083BF83B7816026
:103D400083BF7894889583B78E7F83BF0FB6F8942E
:103D5000A895809160008861809360001092600057
:103D60000FBE80912B02882309F491CF0E94270F68
:103D7000EDEFF1E08191811113C39CA59E13FACF61
:103D800086CF8091F80181FD83C1232480E0FF2448
:103D9000F394922D9F2109F4ADC189A3EBA5EAA369
:103DA0003F2081E009F480E08BA30E942C05816014
:103DB000782F9DA38CA349A15AA16BA18DA10E942C
:103DC000441BF801E750FE4F8081F826F082E09115
:103DD000EA01EE0FEE0FE093EA018FB184FBAA2413
:103DE000A0F87D998DC180E08A29E82BE093EA0153
:103DF000EF70F0E0EC5BFE4F80819091E901890F5C
:103E00009091E8019F5F843034F420E08D3F34F4DA
:103E10009091E80191509093E80121E0082E000C68
:103E2000990B64E070E00E9468228093E9012223EC
:103E300059F08FB7F89440910102509102026091BD
:103E40000302709104028FBF86E0E1EFF1E0DE0132
:103E5000119601900D928A95E1F7F090F301E090B0
:103E6000F4011091F5010091F6011092F301109206
:103E7000F4011092F5011092F6018F2D8E2909F4AC
:103E800048C08091EF019091F0010E941D059C01B6
:103E90009091EE01992309F4BFC223333105C8F193
:103EA0009F3F19F09F5F9093EE01FF2059F00E9411
:103EB0006E069FEF1F140CF491E0899F802D112452
:103EC0008093F301EE2059F00E946E069FEF1E14BE
:103ED0000CF491E0899F802D11248093F40130919E
:103EE000F3013323B1F02091F401222391F045EB4B
:103EF0003403C0011124992309F405C19093F301FF
:103F000045EB240390011124332309F400C13093BD
:103F1000F401812F802B09F448C08091EC0190912D
:103F2000ED010E941D059C019091EB01992309F47C
:103F30006EC225363105C8F19F3F19F09F5F9093FF
:103F4000EB01112359F00E944C069FEF11160CF45F
:103F500091E0899F802D11248093F501002359F071
:103F60000E944C069FEF10160CF491E0899F802D63
:103F700011248093F6013091F5013323B1F02091A3
:103F8000F601222391F045EB3403C001112499235B
:103F900009F4C1C09093F50145EB2403900111246D
:103FA000332309F4BCC03093F6018091F301909162
:103FB000F401892B9091F501892B9091F601892BC1
:103FC00011F00E94410B86E0FE013196A1EFB1E0B5
:103FD00001900D928A95E1F70E94C7059091F70133
:103FE000891739F10E94C705182F8093F701809136
:103FF000F80182FF1EC080FF1CC083E194E00E9494
:10400000DD028091F80180FF14C01F921F938EE0A3
:1040100094E09F938F930E9476038091F8010F9014
:104020000F900F900F9080FF04C08CE094E00E94EE
:10403000DD0280912C02843009F01DCE83E0809354
:10404000E9008091E80082FF16CE8091E80090E0C0
:1040500085FF0CC00E949E0330E2E32EF12C8E01FE
:104060000F5F1F4F882309F468C091E08091E8003A
:104070008B778093E800992309F4FDCDE981E15025
:10408000E33108F0C8C0F0E0EB5FFC4D0C947C22FB
:104090008DEF93E00E94DD024DEF842E41E0942EDF
:1040A000F12CE12CFF92EF925F924F920E947603E7
:1040B00085EF93E00E94DD02F40181914F010E949F
:1040C00042071F928F9380EF93E09F938F930E94FC
:1040D00076038EEE93E00E94DD02FFEFEF1AFF0AF7
:1040E0000FB6F894DEBF0FBECDBF94E0E916F10421
:1040F000C9F64BCE8F5FFF0C843009F04ACEF2CD6B
:1041000082E090E071CE81E08093F301F9CE81E00E
:104110008093F401FECE81E08093F5013DCF81E0F4
:104120008093F60142CF8091F100F80181938F01D5
:10413000F1E0EF1AF10809F498CF8091E80085FDCD
:10414000F2CF8091E8008B778093E8000E949E0375
:10415000882399F38ACF1A8289E08B831AC08A81D7
:10416000823009F44CC18330D9F1813009F053C059
:104170002FB7F894609101027091020280910302BE
:10418000909104022FBF0E9482226B837C838D83D7
:104190009E8380912C02843009F06DCD1091E9004E
:1041A0001F709091EC00892F817090FD80E8182B92
:1041B00082E08093E9008091E80080FF0DC050E02C
:1041C00040E060E270E0CE0101960E94CF03809152
:1041D000E8008E778093E8001F701093E9004BCDC4
:1041E0008091FD018B838091FE018C838091FF0182
:1041F0008D83809100028E83CCCF8A81823059F4E6
:104200006B817C818D819E810E94822286E290E07A
:104210000E94AB22BECF8FEF8983BBCF4C816B81D5
:104220008A810E9468079827892798279E838D8313
:10423000B0CF0D811E81102701271027EA8020E2D0
:10424000E29E700111248B8148E0849FC0011124FB
:10425000E80EF91E8C8190E0880F991FE80EF91E78
:10426000612FC70187960E94AB22602FC7018896F5
:10427000CFCF0E9496098DCF80E18A838ACF83E0D9
:104280008A8389E56ACF0A811B81102701271027BD
:10429000CE0101967C01CC80FC01EC0DF11D6F017B
:1042A000C80189559F4FEC14FD0409F472CF0935FC
:1042B000F3E01F0750F40E949D22F70184830F5FF3
:1042C0001F4FFFEFEF1AFF0AEBCFF7011482F7CF72
:1042D0000A811B81102701271027CE0101966C014E
:1042E000EC80E00EF12EF11CC80189559F4FE016BD
:1042F000F10609F44ECF0935E3E01E0720F4F6017C
:1043000064810E94AB22FFEFCF1ADF0A0F5F1F4FBD
:10431000EBCF0E94E7093DCF84E0AFCF0A811B813C
:10432000102701271027CE0101967C01CC80FC01CB
:10433000EC0DF11D6F01C8018796EC14FD0409F422
:1043400028CF0038110550F40E949D22F701848384
:104350000F5F1F4FFFEFEF1AFF0AEDCFF701148237
:10436000F7CF0A811B81102701271027CE01019664
:104370006C01EC80E00EF12EF11CC80187960E1541
:104380001F0509F406CF0038110520F4F6016481F9
:104390000E94AB22FFEFCF1ADF0A0F5F1F4FEDCF56
:1043A00009BD19BD09B400FEFDCF8091D8008F7DF5
:1043B0008093D8008091E00082608093E00080913B
:1043C000E00081FDFCCF0E943E1061CC60E086E2FF
:1043D00090E00E94AB220E9496090E94E70961E2E8
:1043E00083E290E00E94AB2267E084E290E00E94CA
:1043F000AB2269E285E290E00E94AB221CCC86E20F
:1044000090E00E949D221B821C821D82F4CE2D32E0
:10441000314008F093CDC9CD2D32314008F042CD66
:1044200078CD78941F921FB61F9211248F939F937B
:10443000AF93BF938091010290910202A091030279
:10444000B09104020196A11DB11D809301029093C9
:104450000202A0930302B0930402BF91AF919F9117
:104460008F911F901FBE1F9018951F921FB61F920D
:1044700011248F939F93AF93BF938091E701811194
:1044800013C08091010290910202A0910302B091A9
:1044900004024196A11DB11D809301029093020276
:1044A000A0930302B0930402BF91AF919F918F91AB
:1044B0001F901FBE1F901895991B79E004C0991F8B
:1044C000961708F0961B881F7A95C9F7809508956E
:1044D00097FB072E16F4009407D077FD09D00E94B1
:1044E000892207FC05D03EF4909581959F4F089551
:1044F000709561957F4F0895EE0FFF1F0590F49121
:10450000E02D099469279627692778278727782738
:104510000895AA1BBB1B51E107C0AA1FBB1FA6170A
:10452000B70710F0A61BB70B881F991F5A95A9F75C
:1045300080959095BC01CD010895F999FECF92BD6B
:1045400081BDF89A992780B50895A8E1B0E042E0CE
:1045500050E00C94D122262FF999FECF92BD81BD57
:10456000F89A019700B4021639F01FBA20BD0FB6B1
:10457000F894FA9AF99A0FBE08950396272F0E948D
:10458000AC220E94AB22252F0E94AC22242F0C9437
:10459000AC220196272F0E94AC220C94AB22DC01A6
:1045A000CB01FC01F999FECF06C0F2BDE1BDF89A3E
:1045B000319600B40D9241505040B8F70895F894E8
:1045C000FFCF810981098A098A098C098A098A0928
:1045D0008A098109810991098A098A099109381191
:1045E0006011B3116011B3119311CB11B311C81243
:1045F000D51269166916DC16DC163A175417A01680
:10460000A0165F17351846184618AB20AF20FD20BE
:104610000E21192139210B210B210B210B210B21FB
:104620003C213F214321682189218C218E21B12108
:104630000905B10D900D8C0D880D01818283E2007A
:10464000E900EA00B500B600B700CD008301CC0058
:104650008A019201940121022302240225022602EA
:1046600027022A02B300B4006F007000F7F692939D
:104670009491C63500FF0100010000FFFF0000011A
:104680000001FF004022B622A6018401CE00AC004A
:0846900061047A049A04B304EA
:00000001FF
