:100000000C945F080C94A6080C94A6080C94A608FF
:100010000C94A6080C94A6080C94A6080C94A608A8
:100020000C94A6080C94A6080C94BD1A0C94791A8A
:100030000C947C2E0C94A6080C94A6080C94A6088C
:100040000C94A6080C94A6080C94A6080C94A60878
:100050000C94A6080C94941B0C94A6080C94A60867
:100060000C94A6080C94A6080C94A6080C94A60858
:100070000C94A6080C94A6080C94A6080C94A60848
:100080000C94A6080C94A6080C94A6080C94A60838
:100090000C94A6080C94A6080C94A6080C94A60828
:1000A0000C94A6080C94A6080C94A60805010980D7
:1000B000A101850319012AB700150126B700950192
:1000C00075108100C0050C0901A101850419012AE0
:1000D000A002150126A002950175108100C005013E
:1000E0000906A1018505050719E029E71500250185
:1000F0009508750181020507190029EF15002501F2
:1001000095F075018102050819012905950575010C
:100110009102950175039101C00660FF0961A1017B
:100120000962150026FF00952075088102096315F4
:100130000026FF00952075089102C005010906A15F
:1001400001050719E029E7150025019508750181CA
:10015000029501750881010507190029FF15002680
:10016000FF00950675088100050819012905950508
:1001700075019102950175039101C0000101010112
:100180000101010101020202020202020202030352
:100190000303030303030404040404040405050522
:1001A00005050606060606070707070708080808E4
:1001B000090909090A0A0A0B0B0B0C0C0C0D0D0D91
:1001C0000E0E0E0F0F0F1010111111121213131427
:1001D00014151516161717181819191A1A1B1B1C9F
:1001E0001D1D1E1E1F2020212222232424252626F9
:1001F000272829292A2B2C2D2D2E2F30313232332E
:100200003435363738393A3B3C3D3E3F4041424336
:100210004445464748494A4C4D4E4F50515354551A
:100220005658595A5B5D5E5F616264656668696BCA
:100230006C6D6F7072737577787A7B7D7E80828348
:100240008587888A8C8E8F91939596989A9C9EA08C
:10025000A2A3A5A7A9ABADAFB1B3B5B7BABCBEC099
:10026000C2C4C6C9CBCDCFD1D4D6D8DBDDDFE2E462
:10027000E7E9EBEEF0F3F5F8FAFDFFFFAA7F554052
:100280002223252628292A2C2D2F303233353638A3
:100290003A3B3D3E4042434547494A4C4E505153FC
:1002A0005557595A5C5E6062646668696B6D6F7120
:1002B000737577797B7D7F81838587898A8C8E9022
:1002C000929496989A9C9E9FA1A3A5A7A8AAACAE2B
:1002D000AFB1B3B4B6B8B9BBBCBEBFC1C2C3C5C66B
:1002E000C7C9CACBCCCDCED0D1D2D2D3D4D5D6D714
:1002F000D7D8D9D9DADADBDBDBDCDCDCDCDCDDDD52
:10030000DDDDDCDCDCDCDCDBDBDBDADAD9D9D8D741
:10031000D7D6D5D4D3D2D2D1D0CECDCCCBCAC9C7E3
:10032000C6C5C3C2C1BFBEBCBBB9B8B6B4B3B1AF1A
:10033000AEACAAA8A7A5A3A19F9E9C9A98969492BA
:10034000908E8C8A89878583817F7D7B7977757391
:10035000716F6D6B6968666462605E5C5A5957556F
:100360005351504E4C4A4947454342403E3D3B3A2B
:100370003836353332302F2D2C2A292826252322B2
:10038000290014001A000800150017001C001800AE
:100390000C00120013002B000400160007000900D7
:1003A0000A000B000D000E000F003300E0001D00DE
:1003B0001B0006001900050011001000360038006F
:1003C000E500E20001512C000251500051004F00A5
:1003D000520028002F002A0035001E001F002000B8
:1003E0002100220023002400250026002700E3002E
:1003F00001000100010001000100010001002D00C9
:100400002E003400E00001000100010001000100A5
:100410000100010037000100E500E20001002C00AE
:10042000A800AC00AA00AB00A90031002F004600D4
:10043000A5003A003B003C003D003E003F0040006C
:100440004100420043002B0049004A004B00460097
:10045000010001000100010001000100E0004C006A
:100460004D004E00010001000100010001000100EB
:10047000E500E2003900AE000100C25CC55CC35C6F
:10048000C75C0100440045000100010001000100BB
:100490000100010001000100010001000100010054
:1004A0000100010001000100010001000100010044
:1004B0000100010001000100010001000100010034
:1004C0000100010001000100010001000100010024
:1004D0000100010001000100010001000100010014
:1004E00000AF00000000000000000000000000005D
:1004F00000000000000000000000000000000000FC
:100500000000000000007E0F00D4FFFFFFC70000C6
:10051000007800000000000000002A2B28000000E6
:1005200000000000000000000000000000290000A2
:1005300000002C1E3420212224342627252E362D7F
:100540003738271E1F202122232425263333362E19
:1005500037381F0405060708090A0B0C0D0E0F108B
:100560001112131415161718191A1B1C1D2F3130D0
:10057000232D350405060708090A0B0C0D0E0F1074
:100580001112131415161718191A1B1C1D2F3130B0
:10059000354C00DA0281FFD9F1DB20A4A62EAF0092
:1005A000A0C000A1C800AED580A81FD300408D1404
:1005B00020001E0F0500047F3F1F643214643214B4
:1005C000783C1E1E140A0500000000000000000018
:1005D000000000000000FE01E2448810E00000007E
:1005E0000000000000000000000080407E01FE00CE
:1005F00000003048848487403F00010201000080F1
:1006000040408000000000000003040808040300CC
:10061000F008888888889020C000008040209F00D3
:1006200006F2888700000000000000001824424203
:1006300043203F48848487403F00000708D3242C90
:10064000C002EE201F0000000000000000000000BB
:100650000000000000000000000000000001020493
:100660000402010000000000000000008040800043
:10067000000000000000F804881020408000000006
:10068000000000000000000000C020101F00FF005C
:100690000000C02010101F00FF0106080700C02046
:1006A000909020C000000000000001020201000044
:1006B000C020202122224281000000E010C8270033
:1006C00001BCA221C00000000000000060900808EA
:1006D0000F80FE2212121E00FF0000010274890B1F
:1006E00030807B08070000000000000000000101CE
:1006F00001000001020202010000000000000001F0
:1007000001000000000000556E646566696E656456
:100710000020464E320A0020464E310A00204D612C
:10072000696E0A004C617965720A0000000000E001
:10073000100808C8B08080808080808040403C14D1
:10074000040890180408B040800000000000000178
:1007500002C4A4FC000000008000000000000000B3
:10076000000080C858282A100F0000000000000078
:100770000E09040404040203020101020204081029
:10078000262B320405060000000000000000E010E7
:1007900010F0000000000000000080808078280831
:1007A00010203008102040800000000000000304EA
:1007B000081011F901010101010100000000000011
:1007C00000000110B05055201F0000000000000084
:1007D0000000000001020C10202837021E20201803
:1007E0000C141E01000000000000000000000000CA
:1007F00080402010909090A0C080808070081408E5
:1008000090101008A4788000000000000000000094
:100810000708FC010000000080000001000000004B
:1008200000000818EA100F0000000000000000009F
:100830000000031C20203C0F111F03061820203C41
:100840000C121E010000000000000000000000006B
:10085000008040202020408000000000E010281090
:100860002020201048F000000000000000000000E0
:100870001F20F80201010101010101030000000035
:1008800001001030D5201F00000000000000000013
:1008900000003F20300C020509121E021C14081033
:1008A000202C3201000000000000000000000000C9
:1008B000000000000000000000E01C02050224040B
:1008C0000402A91EE000000000000000000000007B
:1008D00000E0100868100804030000000000000099
:1008E0000206827C030000000000000000000000FF
:1008F000000102040C1010202020283E1C20203E65
:100900000F111F00000000000000000000000000A8
:10091000000000000000000000E01C0205022404AA
:100920000402A91EE000000000000000000000001A
:10093000E0900818601008040300000000000000A8
:10094000020E827C03000000000000000000000096
:10095000000102040C1010202020283E1C20203E04
:100960000F111F0000000000000000000000000048
:1009700000804040404080000000000000C0404037
:100980008000804080000000000000000000001E89
:1009900021F0040202020203020204040403010023
:1009A0000009018080AB04F8000000000000000096
:1009B00000031C20203C0F111F02061820203808BD
:1009C00010180404020201000000000000000000F2
:1009D00000804040408000000000000000E0A020B7
:1009E0004080C02040800000000000000000003E69
:1009F00041F00402020203020202040402010000A8
:100A0000000400404055827C00000000000000000F
:100A1000003F20300C020509121E04181008102097
:100A2000283406020101000000000000C02010D0A0
:100A300030000000000000008080403C140408905A
:100A4000180408B0408000000000000003040810F3
:100A500011F9010101010101000000000000008006
:100A6000C848282A100F0000000000000000000005
:100A7000000001020C102028370202040810262B67
:100A8000320405060000000000000000E01010F035
:100A90000000000000000000808040402C1404088A
:100AA00090180408B0408000000000000304081003
:100AB00011F9010101010101000000000000000026
:100AC00080C048282A100F204A09100000000000AA
:100AD000000001020C102028370202040810262B07
:100AE000320405060000000000000000AE09025BB1
:100AF00000030100A0FA090400000103010100093C
:100B000021110100012240000705810308000A09A4
:100B1000040100020300000009211101000122224A
:100B200000070582032000010705030320000109D7
:100B30000402000103000000092111010001226DDF
:100B4000000705840320000A1201100100000008BC
:100B5000756F100001000102000112034D007400C6
:100B60004F006C00650064003400340000000A038C
:100B70004C00650041004B00000004030904070815
:100B80007F0807003E5B4F5B3E003E6B4F6B3E00B5
:100B90001C3E7C3E1C00183C7E3C18001C577D57B8
:100BA0001C001C5E7F5E1C0000183C180000FFE764
:100BB000C3E7FF00001824180000FFE7DBE7FF0091
:100BC00030483A060E00262979292600407F05057F
:100BD0000700407F05253F005A3CE73C5A007F3E16
:100BE0001C1C0800081C1C3E7F0014227F221400DD
:100BF0005F5F005F5F0006097F017F0000668995E7
:100C00006A0060606060600094A2FFA29400080423
:100C10007E04080010207E20100008082A1C08000E
:100C2000081C2A0808001E10101010000C1E0C1EB4
:100C30000C0030383E383000060E3E0E0600000034
:100C40000000000000005F00000000070007000037
:100C5000147F147F1400242A7F2A120023130864AF
:100C60006200364956205000000807030000001CAF
:100C7000224100000041221C00002A1C7F1C2A0087
:100C800008083E08080000807030000008080808C6
:100C900008000000606000002010080402003E51BF
:100CA00049453E0000427F400000724949494600E4
:100CB0002141494D33001814127F10002745454546
:100CC00039003C4A494931004121110907003649A0
:100CD00049493600464949291E0000001400000019
:100CE00000403400000000081422410014141414C1
:100CF00014000041221408000201590906003E4177
:100D00005D594E007C1211127C007F494949360022
:100D10003E41414122007F4141413E007F494949D6
:100D200041007F09090901003E41415173007F08DC
:100D300008087F0000417F4100002040413F010042
:100D40007F08142241007F40404040007F021C0287
:100D50007F007F0408107F003E4141413E007F0933
:100D6000090906003E4151215E007F09192946000C
:100D700026494949320003017F0103003F404040BA
:100D80003F001F2040201F003F4038403F006314B9
:100D9000081463000304780403006159494D4300BB
:100DA000007F414141000204081020000041414100
:100DB0007F00040201020400404040404000000364
:100DC000070800002054547840007F28444438002D
:100DD000384444442800384444287F00385454544C
:100DE000180000087E09020018A4A49C78007F085F
:100DF0000404780000447D4000002040403D000095
:100E00007F102844000000417F4000007C047804EB
:100E100078007C0804047800384444443800FC1806
:100E20002424180018242418FC007C08040408005A
:100E300048545454240004043F4424003C404020BF
:100E40007C001C2040201C003C4030403C004428DA
:100E5000102844004C9090907C004464544C440012
:100E6000000836410000000077000000004136080D
:100E700000000201020402003C2623263C00000080
:100E800000000000404040F0F8F8FF38FFF8F83F5D
:100E9000F8F8FF38FFF8F8F040404000000000008C
:100EA0000080C0C0C0800000C0C08000000080C0C2
:100EB000C000C0C0000080C0C00000000000C0C072
:100EC000C0C0C000C0C00000000000000000000062
:100ED0000000000000000000000000000000000012
:100EE0000000000000000000000000000000000002
:100EF00000000000000000000000000000C0F0F84A
:100F0000FC3E1E06010000007F4141417F007F4101
:100F100041417F000080C0E07E5B4F5BFEC000006F
:100F2000C000DCD7DEDEDED7DC00C0000000000041
:100F300000000000000000000000000000000000B1
:100F400000000000494949FFFFFFFFE0DFBFBF008D
:100F5000BFBFDFE0FFFFFFFF49494900000000007D
:100F60001F3F6060E0BF1F007F7F071E381E077FA6
:100F70007F007F7F0E1F3B716000000000007F7FBD
:100F80000C0C0C007E7E007F7E0303007F7E03033B
:100F90007E7E03037F7E000F3E703C063C703E0F5A
:100FA00000327B49493F7E007F7E0303001E3F697C
:100FB000696F2600000000000000000000030F1F02
:100FC0003F3C7870600000007F4141417F007F41DD
:100FD00041417F00307B7F7830202030787F3B009C
:100FE00003000F7F0F0F0F7F0F00030000000000B2
:100FF00000000000000000000000000000000000F1
:1010000000000000010101070F0F7F0F7F0F0F7E0F
:101010000F0F7F0F7F0F0F0701010100000000007D
:1010200000000000000101000000000000000000BE
:1010300000000000000000000000000000000000B0
:1010400000000000000000000000000000000000A0
:101050000000000000000000000000000000000090
:101060000000000000000000000000000000000080
:101070000000000000000000000000000000000070
:101080000000000000000000000000000000000060
:101090000000000000000000000000000000000050
:1010A0000000000000000000000000000000000040
:1010B00000000000000000000000000000001124FB
:1010C0001FBECFEFDAE0DEBFCDBF04B603FE27C000
:1010D0008091020590910305A0910405B09105054A
:1010E0008730904BA740B04BD1F41092020510927C
:1010F0000305109204051092050514BE84B7877F7E
:1011000084BF0FB6F894A8958091600088618093A1
:101110006000109260000FBEE0E0F8E3099525E062
:10112000A6EAB1E001C01D92A230B207E1F711E0DA
:10113000A0E0B1E0E8ECF5E602C005900D92A63A19
:10114000B107D9F70E948C270C94AB320C940000A5
:10115000E8EDF0E080818E7F80831092E2001092B3
:10116000DA001092E100A0EEB0E08C9181608C93E7
:1011700080818F77808319BCA7EDB0E08C918E7F42
:101180008C9380818F7E80831092C102089520917C
:10119000E4003091E50095E6A9012091EC00822F52
:1011A000817020FF06C08091E80080FF06C080E0CB
:1011B00008952091E80022FD1AC08091E60288235C
:1011C00089F0853089F08091EB0085FD0FC020917A
:1011D000E4003091E50042175307F9F29150E1F62F
:1011E00084E0089582E0089583E0089581E0089501
:1011F000EF92FF920F931F93CF937C018B010E947C
:10120000C708C82F811117C08091E80085FD0BC069
:101210008091E8008E778093E8000E94C7088823B9
:1012200099F3C82F08C0F70181917F018093F100E5
:101230000150110949F78C2FCF911F910F91FF9009
:10124000EF9008958091E80287FF13C08091E80035
:1012500082FF06C08091E8008B778093E80004C08D
:101260008091E6028111F2CF08958091E6028823F1
:10127000D9F38091E80080FFF8CF8091E8008E7765
:10128000ECCF982F9093E900242F762F50E0891708
:1012900031F07091EC002091ED005091F00021FDB3
:1012A00007C09F5F973071F78093E90081E0089550
:1012B0003091EB003E7F3093EB003091ED003D7FAD
:1012C0003093ED003091EB0031603093EB00709380
:1012D000EC002093ED005093F0002091EE0027FDEC
:1012E000E0CF80E00895CF92DF92EF92FF920F93CC
:1012F0001F93CF93DF93C8EDD0E088818F7E8883E2
:10130000E7EDF0E080818160808384E082BF81E04E
:101310008093C10288818E7F888302EE10E0F801FD
:1013200010821092DA0081EEC82ED12CF6011082C4
:1013300088818F77888388818068888388818F7D82
:10134000888319BC1092E6021092E7021092E5021F
:101350001092E40290EEE92EF12CF70180818B7F50
:10136000808388818160888342E060E080E00E9421
:101370004109F60180818E7F8083F8018081816040
:101380008083808188608083F70180818E7F808365
:10139000888180618883DF91CF911F910F91FF90A9
:1013A000EF90DF90CF900895FC018091EE02909134
:1013B000EF0286179707A0F06115710529F4909147
:1013C000E8009E779093E80090E06115710551F474
:1013D000911108C08091E80082FF34C080E0089538
:1013E000BC01F2CF8091E6028823C1F18530C1F1C2
:1013F0008091E80083FD30C08091E80082FDEACF53
:101400008091E80080FFE1CF8091F3002091F2000D
:10141000382F6115710519F02830310558F091E029
:101420002830310509F090E02091E8002E772093D4
:10143000E800CBCF81918093F100615071092F5F5B
:101440003F4FE7CF8091E602882341F0853041F09D
:101450008091E80083FFBECF81E0089582E0089587
:1014600083E00895089580E0089508958091C3026F
:10147000089587E797E7909301088093000888E133
:101480009AE00FB6F894A895809360000FBE9093F1
:101490006000FFCF9C014FB7F89480916402909157
:1014A0006502A0916602B09167024FBF821B930B49
:1014B00008952FB7F894609164027091650280914D
:1014C0006602909167022FBF089580915F0281119B
:1014D00010925F02089580915E0290915D02892BC7
:1014E00090915C02892B8093A80190915F029923CF
:1014F000A1F0892B8093A80180912301882341F1D9
:101500008091680287FF24C08EE1EAEAF1E090E072
:10151000815000F591110E94650AE0917B02F091E3
:101520007C023097E1F080912301882359F080916B
:10153000680287FF07C08091A8018093A90185E018
:101540008093A8010280F381E02D88EA91E009945C
:1015500086E0DBCF21912223D9F29F5FD9CF089576
:10156000909123019923D1F09091680297FF16C0C2
:10157000E82FE695E695E695EE31E0F4F0E0E855E3
:10158000FE4F282F277081E090E001C0880F2A9538
:10159000EAF780959281892382830895EAEAF1E04F
:1015A0009191891303C0DF0111971C9291E0E03BF8
:1015B000F907B1F70895909123019923C1F0909113
:1015C000680297FF14C0E82FE695E695E695EE31A0
:1015D000F8F4F0E0E855FE4F877021E030E001C0FC
:1015E000220F8A95EAF78281822B82830895AAEAE4
:1015F000B1E0EFEF90E02D91821751F0EF3F19F439
:10160000211101C0E92F9F5F9630A9F7EF3F09F440
:1016100008950E2E000CFF0BE855FE4FE6CF2BE091
:10162000929F800D1124982F9770869586958695A8
:1016300025E0829FF0011124E35CFD4F50E040E083
:1016400080E0219130E0092E02C0369527950A945A
:10165000E2F721703327042E01C0220F0A94EAF723
:10166000822B4F5F5F4F4530510559F708952BE0AE
:10167000929F800D1124982F977041E001C0440F74
:101680009A95EAF786958695869595E0899FF0016B
:101690001124E35CFD4F90E080E070E05191DF01A8
:1016A00011979B01082E02C0369527950A94E2F700
:1016B000217021952527242325272C9301968530F9
:1016C000910561F7089580913C0290910B02981367
:1016D00001C008958F5F8770FACF882341F080950D
:1016E00090915E02892380935E020C946B0A0895A8
:1016F000882339F090915E02982B90935E020C94AF
:101700006B0A0895209100023091010228173907D1
:1017100071F09093010280930002E0917B02F091BE
:101720007C02309721F00084F185E02D0994089522
:101730002091FE013091FF012817390771F0909335
:10174000FF018093FE01E0917B02F0917C023097D3
:1017500021F00680F781E02D0994089590E080E063
:101760000E94980B90E080E00E94820B10925D0234
:1017700010925C020C946B0A6093F3027093F40273
:101780008093F5029093F6020C94AE0B0F931F9387
:101790006091F3027091F4028091F5029091F6024B
:1017A0008B019C0106701127222733270630110573
:1017B0002105310529F468601F910F910C94BC0B31
:1017C000677FFACF0F931F9341E050E060E070E035
:1017D00004C0440F551F661F771F8A95D2F7CB01AF
:1017E000BA0160957095809590950091F3021091E3
:1017F000F4022091F5023091F602602371238223D6
:1018000093231F910F910C94BC0B90915B028095D8
:10181000892380935B02282F277039F4282F082E04
:10182000000C330B9217130621F49091690292FF7A
:1018300007C08595859585950E94E20B10925B0205
:1018400008950F931F9341E050E060E070E004C002
:10185000440F551F661F771F8A95D2F78091F302B8
:101860009091F402A091F502B091F6028A019B01D9
:10187000082B192B2A2B3B2BC901B8011F910F9163
:101880000C94BC0B609360027093610280936202BF
:10189000909363020C94AE0BE0917B02F0917C027A
:1018A000309721F00190F081E02D099480E00895B7
:1018B000882309F452C0823871F40E944C0C81FFD5
:1018C0004CC089E30E94DB0A0E946B0A89E30E94F4
:1018D000B00A0C946B0A833859F40E944C0C80FFB8
:1018E0003CC083E50E94DB0A0E946B0A83E5EFCFD0
:1018F000843859F40E944C0C82FF2FC087E40E9468
:10190000DB0A0E946B0A87E4E2CF9CEF980F913AC2
:10191000F0F290E2980F983088F4877021E030E080
:10192000A90102C0440F551F8A95E2F7CA018095AC
:1019300090915E02892380935E02CBCF9BE5980F46
:10194000933020F490E080E00C94980B885A873113
:1019500020F490E080E00C94820B0895CF93DF9305
:1019600020910005309101052A5F3240A901460F00
:10197000571F4130524020F060E072E0621B730B51
:101980004091F8025091F902FC01C901620F731FE6
:10199000C1E0D0E08617970738F05093F9024093E2
:1019A000F802DF91CF9108952491DC01A650BD4F3C
:1019B0003C91321781F02C939C01A5E03695279538
:1019C000AA95E1F7DE0102C0AA0FBB1F2A95E2F734
:1019D0009D014A2B532B01963196DCCFFA018111E0
:1019E00001C0FB0109948091B402982F9E7F29F4D5
:1019F000817082608093B40208958635E8F3817027
:101A00008465F8CFAF92BF92DF92EF92FF920F936F
:101A10001F93CF93DF93082F162FE901E42FF0E0F7
:101A2000E558FE4F611110C0E4915E2F4E2F49839F
:101A3000E8835A83DF91CF911F910F91FF90EF9030
:101A4000DF90BF90AF900895E62EF12C4491D42EF4
:101A5000E42FF0E026E0829FC00111242FEF30E058
:101A6000B9010E94A62F802F90E0880F991F55E59D
:101A7000569FD001579FB00D11248A1B9B0B982FA6
:101A8000990F890F5901AE18BF08AE9ED001AF9EC5
:101A9000B00DBE9EB00D11245B2F189F8001112444
:101AA000012F11275901A01AB10AAE9E8001AF9EE5
:101AB000100DBE9E100D11245901A81AB108AE9C3C
:101AC000C001AF9C900DBE9C900D1124892F9927C9
:101AD000281B390B2E9FC0012F9F900D3E9F900D0C
:101AE0001124E92F62307105A1F050F461157105E0
:101AF00009F49DCF6130710581F0EB2F512F97CF05
:101B00006430710569F080F06630710509F48FCF9B
:101B1000F4CFE42F4B2F592F8ACFE42F412F87CFBB
:101B2000EB2F542F492F83CF4B2F5D2DE12F7FCFEC
:101B3000F894E82FE295EF70F0E031A1282F2F7094
:101B400081E090E001C0880F2A95EAF7982F9095E0
:101B5000932391A392A1892B82A3789408959091C5
:101B6000680292FF06C0282F28712830F9F4877F79
:101B7000846093FF06C0282F28712831F1F4877EF6
:101B800084612091690220FF06C0382F38713830F7
:101B9000D9F4877F816021FF06C0282F2871283162
:101BA000D1F4877E816194FD877E0895282F24716A
:101BB0002430F9F68B7F8860DCCF282F2471243104
:101BC00001F78B7E8861DDCF382F3171313019F705
:101BD0008E7F8860E0CF282F2171213121F78E7E02
:101BE0008861E1CF10925E0280912301EAEAF1E080
:101BF000882359F08091680287FF07C08EE1DF01DA
:101C00001D928A95E9F70C94AE0B86E0F8CF1F93EE
:101C1000CF93DF93CDB7DEB7AA970FB6F894DEBFA8
:101C20000FBECDBF88EE92E02091F100DC012D9334
:101C3000CD01B2E0803F9B07B9F78091E902833084
:101C400009F471C0B8F4813009F448C0823009F455
:101C5000B2C08091E80083FF3AC18091E802909180
:101C6000E9029A3008F033C1E92FF0E0E355FD4C6A
:101C70000C94CE2F8A3009F48DC08B3009F470C0DB
:101C8000893039F78091E802813219F78091EC02AE
:101C90009091ED02009711F00297D9F68091E8003B
:101CA000877F8093E8008091E80082FF37C09091A1
:101CB000F3008091F200029729F48091F1008B7F6C
:101CC000813021F48091F1008093C3028091E8007B
:101CD0008B778093E8000E942209BBCF8091E802B5
:101CE000813A09F0B6CF8091E800877F8093E800C1
:101CF0008091EC029091ED02892B61F460E284EC1A
:101D000092E070E00E94D4098091E8008B77809384
:101D1000E8009FCF60E090E080E0F3CF8091E602A2
:101D20008111C1CF96CF8091E802813A09F091CF1D
:101D30008091EC029091ED02892B09F08ACF80917D
:101D4000E800877F8093E8008091E80080FFFCCF67
:101D5000809123018093F1008091E8008E77B9CFC4
:101D60008091E802813209F074CF8091EC02909169
:101D7000ED02892B09F06DCF8091E800877F809379
:101D8000E8000E9422098091EA02809323010E94C8
:101D9000F20D5FCF8091E802813209F05ACF809135
:101DA000E800877F8093E8000E9422098091EB027F
:101DB0008093C2024ECF8091E802813A09F049CF68
:101DC0008091E800877F8093E8008091E80080FFA1
:101DD000FCCF8091C202BECF803899F0823809F0E2
:101DE00076C08091EC028F70873008F070C08093CD
:101DF000E9008091EB0085FB882780F91092E900CB
:101E000006C08091E4029091E50291118260909168
:101E1000E800977F9093E8008093F1001092F10022
:101E20008091E8008E77B5C1882309F4A2C1823081
:101E300009F04DC08091EA028111A6C18091EC02A7
:101E40008F702FEF280F263008F041C08093E900F3
:101E50002091EB0020FF98C1933031F48091EB008A
:101E600080628093EB0090C19091EB009061909321
:101E7000EB0021E030E001C0220F8A95EAF72093C1
:101E8000EA001092EA008091EB008860EACF8111AD
:101E90001EC01091EA021F778091E3008078812BA9
:101EA0008093E3008091E800877F8093E8000E94A0
:101EB00022098091E80080FFFCCF8091E3008068D8
:101EC0008093E30082E0111183E08093E602809129
:101ED000E80083FF0AC08091E800877F8093E800D4
:101EE0008091EB0080628093EB00AA960FB6F89485
:101EF000DEBF0FBECDBFDF91CF911F9108958058F7
:101F0000823028F72091EA023091EB022C3DE3E089
:101F10003E07A1F583E08A838AE289834FB7F8946C
:101F2000DE01139620E03EE051E2E32FF0E0509313
:101F30005700E49120FF03C0E295EF703F5FEF7020
:101F40008E2F90E0EA30C0F0C7968D939D932F5F5F
:101F5000243159F74FBF8091E800877F8093E800D4
:101F60006AE270E0CE0101960E94D4098091E800F7
:101F70008B778093E800ABCFC096E7CF8091EC02DF
:101F80009091ED02432F55274330510509F44AC083
:101F900078F54130510509F47AC08BE590E0EDEE1B
:101FA000FAE04230510509F092CF2091E800277FF6
:101FB0002093E8002091EE023091EF028217930700
:101FC00008F49C0140E02115310509F065C041117C
:101FD00063C08091E80082FDC9CF8091E60288232A
:101FE00029F2853019F28091E80083FFF2CFBECF4D
:101FF0004132510509F43CC04232510509F067CF26
:102000008330910508F063CFFC01EE0FFF1FE65609
:10201000FE4F0190F081E02D89569E4FDC018C919E
:1020200090E01AC0332721303105D1F02115310558
:1020300061F02230310509F04ACFEAE5FBE0E49196
:102040008E2F90E0EAE5FBE007C0EAE7FBE0E491D1
:102050008E2F90E0EAE7FBE0009709F438CFA5CF98
:10206000EEE6FBE0E4918E2F90E0EEE6FBE0F4CFAD
:102070008330910508F02BCF880F991FFC01E056A3
:10208000FE4F0190F081E02D89E090E08ECF82E15B
:1020900090E0E8E4FBE089CF8091E602882309F430
:1020A00065CF853009F462CF8091E80083FD5ECF73
:1020B0008091E80082FD8DCF8091E80080FF83CF82
:1020C0009091F3008091F2002115310519F08830CC
:1020D000910550F041E0089709F040E08091E80058
:1020E0008E778093E8006FCF44914093F100319652
:1020F000215031090196E8CF803809F0E8CE80916F
:10210000E800877F8093E8008091E7028093F100E8
:1021100087CE8111DCCE1091EA02123008F0D7CEC2
:102120008091E800877F8093E8001093E7020E9487
:102130002209112311F084E005C08091E30087FD9E
:10214000FACF81E08093E60242E061EC81E00E94F8
:10215000410942E261EC84E00E94410942E261EC03
:1021600082E00E94410942E260EC83E00E94410962
:10217000AECE8091EA02813009F0A9CE81E09330A1
:1021800009F080E08093E5021092E9008091E80078
:10219000877F8093E8000E94220999CECF93DF9336
:1021A000682F81E06A3019F06D3029F480E0DF910A
:1021B000CF910C945D11809100059091010526E06E
:1021C000FC01AAEFB4E001900D922A95E1F7603E80
:1021D00008F45AC026E0FC0111922A95E9F7C09153
:1021E0000005D091010546E050E0BE018AEF94E081
:1021F0000E945C309E012A5F3240892B41F1C90167
:1022000045E0969587954A95E1F741E050E0BA019F
:1022100002C0660F771F8A95E2F7CB016091F80242
:102220007091F902862B972BB9016B5F7F4FE5E028
:1022300076956795EA95E1F702C0440F551F6A95B8
:10224000E2F7842B952B9093F9028093F8022A5F92
:102250003F4F4091F702642F70E0C9010E94A62F02
:10226000481B463010F4240F311D211572E037074A
:1022700010F030E020E026503D4F309301052093D0
:102280000005DF91CF910895F6E06F9FB001112412
:102290006258744F46E050E00E944630A0CFCF9382
:1022A000DF93EC01FE018491811103C0DF91CF9196
:1022B00008950E94CE102196F5CFCF93382FE0914C
:1022C0000005F0910105EA5FF2402091F702622FCC
:1022D00070E0CF010E94A62F281B822F332361F0CC
:1022E00066E00E948C2FC82FC15010F4CF91089542
:1022F00080E20E94CE10F8CF9F01280F311D2115DA
:10230000324018F080E0F0E0E0E08E0F9F2F911D4A
:1023100086509D4F9093010580930005E7CFCF92A3
:10232000DF92EF92FF920F931F93CF93DF936C0195
:102330007B0164E670E088E70E94A92EEC0197FD1E
:1023400012C010E000E0F601E00FF11F849164E696
:1023500070E00E94052FEC01892B29F40F5F1F4FBD
:102360000E151F0581F70E94882FCE01DF91CF91B6
:102370001F910F91FF90EF90DF90CF900895CF9332
:10238000C091A6028091A7028823D1F00E94590A29
:10239000605A75418F4F9F4F6093A2027093A302C2
:1023A0008093A4029093A502C11108C062E070E07E
:1023B00080EE94E00E948F11892B29F0C091A60233
:1023C0008C2FCF91089581E08093A602F7CFCF9311
:1023D00084E090E00E946930C82F82E290E00E9481
:1023E0006930982F8C2FCF9108950F931F93CF931F
:1023F000DF93C42FD0E0CC0FDD1F26E1629FC00D1C
:10240000D11D112438E5839FC00DD11D1124CE01AB
:1024100087960E946930082F10E0102F0027CE0108
:1024200088960E9469309801282BC901DF91CF91CD
:102430001F910F910895462F843038F4743028F49A
:102440006B3018F4672F0C94F51190E080E008953C
:10245000CF93DF930E941B12EC0182389105A9F102
:10246000D8F58133910509F496C048F58932910574
:1024700009F48AC08A9709F495C0C11522E5D207EC
:1024800008F0B6C0C11531E5D30708F026C1C83E33
:10249000D10508F09CC0C03ED10560F5C83AD10511
:1024A00008F087C0C53AD10508F0EFC0C130D105AA
:1024B00009F12097F9F0C430D105E0F440C085332C
:1024C000910509F45AC0C997C1F6809168028370DA
:1024D00089F0C0EED0E00EC0833E910599F170F412
:1024E000803E910501F1823E910539F680916802A6
:1024F00082FD21C0CE01DF91CF910895863E9105E6
:1025000061F1873E910571F1843E910509F0B5CFE7
:102510008091690281FFEECF80916802C7EED0E022
:1025200084FD0DC0E7CF8091680280FD07C19091C6
:10253000690290FFDFCFC3EED0E084FFDBCFD0E0B5
:10254000C0E0D8CF8091680282FDFBC09091690203
:1025500090FDBFCF84FFCECFF2CF8091680283FD84
:10256000DDCFC8CF8091680283FDEEC090916902F3
:1025700091FFF0CFC4EED0E0BDCF8091680285FF1F
:10258000B9CFC9E2D0E0B6CF8091680285FFB2CF63
:10259000C5E3D0E0AFCF8091680286FFABCFCAE23F
:1025A000D0E0A8CF8091680286FFA4CFC1E3D0E03D
:1025B000A1CFCF3BD10518F6C85AD0E0CC0FDD1F14
:1025C000CE5ADE4F0990D881C02DD46493CFC11567
:1025D00040E5D40708F064C0C11580E4D80708F0CE
:1025E0005CC0CE019A9581159F4108F483CFA7CF97
:1025F000C11536E5D30718F5C11545E5D40708F030
:1026000084C0C11584E5D80708F07AC09C2F969540
:1026100096959E0123703327C115D34508F462C0F7
:10262000C1E0D0E002C0CC0FDD1F2A95E2F730E216
:10263000939FC0011124C82BD92BDA685BCFC11539
:102640008AE5D80778F4C11599E5D90708F068C07C
:10265000C11528E5D20708F472CFDC2FCC27C06F54
:10266000D06A48CFCE0190568115904208F067CFCE
:102670008D2F8F710E94AF0D90E0982F88278827AB
:102680009F719C012C2BE90149C0C55AD0E0C15B68
:10269000DE4FC881D0E0D0642DCFDF70D06A2ACF62
:1026A000CE01E4E096958795EA95E1F783702C2FAB
:1026B00026952695237040E2249F90011124382B03
:1026C0008C2F8370C1E0D0E002C0CC0FDD1F8A9553
:1026D000E2F7C22BD32BDC680DCFDC2FCC27C16FE8
:1026E000D06A08CFC1E0D0E002C0CC0FDD1F2A9530
:1026F000E2F720E2929FC0011124C82BD92BEBCF27
:10270000DC2FCC27C46FD06AF5CE8C2F0E94AF0D82
:10271000C82FD0E0DC2FCC27CC27DF71D062EACEE7
:102720008C2F8F700E94AF0D34E0D695C7953A95E7
:10273000E1F7CF709C2FEC01D069DCCEC9E3D0E08B
:10274000D9CEC2EED0E0D6CEC6EED0E0D3CEBF9288
:10275000CF92DF92EF92FF920F931F93CF93DF936D
:102760008C01C090F302D090F402E090F502F0905A
:10277000F6028091600290916102A0916202B09194
:102780006302C82AD92AEA2AFB2ACFE1D0E0BC2E6C
:10279000D701C6010C2E04C0B695A79597958795CD
:1027A0000A94D2F780FD0EC0219788F7B12C8B2DAB
:1027B000DF91CF911F910F91FF90EF90DF90CF901D
:1027C000BF900895B8018C2F0E942812019761F3E1
:1027D000EECFCF93DF93EC010E94A713BE01DF91F0
:1027E000CF910C9428120E94E913292F2F709295F3
:1027F0009F7092509E3078F4E92FF0E0E954FD4C40
:102800000C94CE2F803F19F020F4883E20F481E014
:102810000895843FE1F380E00895883EC0F3813F4E
:10282000D1F7F5CF822F86958695869508956F927C
:102830007F928F929F92AF92BF92CF92DF92EF9250
:10284000FF920F931F93CF93DF9380E8C82E83E00E
:10285000D82E95E9E92EF12CE701C855D1093601AA
:102860001BC0F50185909490692DC8010E947D30B0
:10287000682DC80101960E947D3082E0A80EB11C2F
:102880000E5F1F4FC017D10761F786E1680E711CFC
:102890006696CE15DF0529F08E0106511109530108
:1028A000E0CF7E0188E5E80EF11C88E5C80ED11C5A
:1028B00085EFE81681E0F80679F6DF91CF911F9158
:1028C0000F91FF90EF90DF90CF90BF90AF909F90CF
:1028D0008F907F906F900895CF93C0916902C2FB53
:1028E000992790F9981781F080FBC2F9C09369028B
:1028F0006091680284E090E00E947D306C2F82E25B
:1029000090E0CF910C947D30CF910895CF93DF93D9
:10291000C7E8D1E060E0CE010E947D302196C1156C
:1029200084E0D807B9F7DF91CF910895CF93DF9373
:1029300000D00F92CDB7DEB79091E602943011F53A
:1029400089837B836A839093E9008FEF9091E800FD
:10295000815095FD06C095ED9A95F1F70000811123
:10296000F5CF8091E80085FF0DC050E040E063E0C6
:1029700070E0CE0101960E94F8088091E8008E7701
:102980008093E8000F900F900F90DF91CF91089502
:10299000BC0184E00C949614BC0183E00C94961462
:1029A000CF93DF93EC01809123018823B1F18091D3
:1029B000680287FF32C060E284E08093E9008FEF15
:1029C0009091E800815095FD06C095ED9A95F1F73C
:1029D00000008111F5CF8091E80085FF1BC0809138
:1029E000230170E050E040E0811104C050E040E07D
:1029F00068E070E0CE010E94F8088091E8008E77D0
:102A00008093E80080E2FE01A4ECB2E001900D9218
:102A10008A95E1F7DF91CF91089568E081E0CDCF0D
:102A2000CF93C82F882309F4A6C08238C1F40E942E
:102A30004C0C81FDA0C089E30E94DB0A0E946B0A56
:102A40002FEF81EE94E0215080409040E1F700C0EC
:102A5000000089E30E94B00ACF910C946B0A83387E
:102A6000A1F40E944C0C80FD86C083E50E94DB0A25
:102A70000E946B0A2FEF81EE94E02150804090403D
:102A8000E1F700C0000083E5E5CF8438A1F40E949F
:102A90004C0C82FD70C087E40E94DB0A0E946B0A26
:102AA0002FEF81EE94E0215080409040E1F700C08C
:102AB000000087E4CFCF8CEF8C0F813A88F58091AE
:102AC0002301882301F18091680287FF1CC0EC2F4D
:102AD000E695E695E695F0E0E855FE4F828190E0B8
:102AE0004C2F477021E030E002C0220F331F4A957F
:102AF000E2F782239323892B79F08C2F0E94B00A6E
:102B00000E946B0A09C0EAEAF1E08191C817A9F3B3
:102B100021E0E03BF207C9F78C2F0E94DB0A9CCF33
:102B200080E28C0F883068F4C77021E030E001C08B
:102B3000220FCA95EAF780915E02822B80935E0293
:102B40008BCFEBE5EC0FE33040F4F0E0E15BFE4FC0
:102B5000808190E0CF910C94980BC85AC73158F4FB
:102B6000EC2FF0E0EE0FFF1FEE5AFE4F80819181B7
:102B7000CF910C94820BCF9108951F93CF93DF9345
:102B8000182FD0E0C0E0893311F4C0E5D0E0812FE8
:102B90000E941015209731F4812FDF91CF911F9162
:102BA0000C94580C8FE99FE00197F1F700C00000EA
:102BB0002197F0CF8091B40280FD0AC0EEECF1E0E5
:102BC000118210821282339651E0E03EF507C1F780
:102BD000539A3BB1377F2BB128604FB7F8948EECF6
:102BE00091E0FC015191CF0168E02BB9000000C0D9
:102BF00057FF3BB9550F000000C000C000C03BB9F3
:102C000000C06A9591F7F1E0803E9F0751F74FBFF2
:102C10008FE594E00197F1F700C000000895EF926E
:102C2000FF921F93CF93DF93EC018EECE82E81E0AF
:102C3000F82E10E08C8197014091B7026091B602A6
:102C4000810F0E94020D165D83E0E80EF11C1C3F0F
:102C500089F70E94DA159A818C8190FF08C08F5FF6
:102C60008C83DF91CF911F91FF90EF900895815059
:102C7000F7CFBF92CF92DF92EF92FF920F931F9305
:102C8000CF93DF93FC018281DD24DA9480FD02C0C2
:102C9000DD24D3940EEC11E0D0E0C0E026E0B22EAB
:102CA000F80111821082128294E0E92EF12CC12CDD
:102CB0008091CB018C0D87300CF43DC06B2D0E94B0
:102CC000982F892F082E000C990B8C179D0791F4D3
:102CD0008091B7028E9DA0018F9D500D11245595B6
:102CE00047955595479598016091B6028091B50238
:102CF0000E94020DCD0CF1E0EF1AF108C9F6219601
:102D00000D5F1F4FC630D10559F60E94DA1580912C
:102D1000CB0191E0D91215C0811111C085E08093DB
:102D2000CB01DF91CF911F910F91FF90EF90DF903A
:102D3000CF90BF90089587FFC5CF8A5FC3CF8150E2
:102D4000EECF90E00196BE010E94BA2FE8CF0F931C
:102D50001F93CF93DF93CEECD1E0FE01118210825E
:102D60001282339681E0E03EF807C1F710E000E000
:102D70008091CC01082E000C990B081719078CF1D3
:102D800080911001082E000C990B801791074CF1CF
:102D90009E014091B7026091B6028091B5020E94F7
:102DA000020D0F5F1F4F23960630110509F70E9491
:102DB000DA1580910F019091CC01980F9093CC017E
:102DC00020911001280F20931001121614F4953051
:102DD0001CF0819580930F01DF91CF911F910F918E
:102DE0000895198218821A82DCCF8F929F92AF9237
:102DF000BF92CF92DF92EF92FF920F931F93CF93E8
:102E0000DF93EC014C81042F10E09801D8010E945F
:102E100005319B01AC010E94D0304B015C01E0E226
:102E2000F0E0E01BF10BA5E5B0E0AC019B010E94D6
:102E3000D0306B017C019F01DF010E94DB2F9B01E1
:102E4000AC010E94DB309B01AC01280D391D4A1DED
:102E50005B1DC701B6010E94E330F22E822F90E085
:102E600039E23F15D8F143E0249F900111243595B4
:102E70002795122F10959EECC92E91E0D92E00E0D7
:102E800085E5E82EEF188E2D01FD8F2D9601412F3F
:102E90006091B6020E94020D0F5F53E0C50ED11C77
:102EA000063089F70E94DA159C8181E0992319F098
:102EB000903219F48FEF8093110180911101890FE5
:102EC0008C83DF91CF911F910F91FF90EF90DF9056
:102ED000CF90BF90AF909F908F90089525E530E000
:102EE000A901481B590BCA019A01220F331F280F51
:102EF000391F37FFBCCF2F5F3F4FB9CFEF92FF9203
:102F00000F931F93CF93DF938C01CEECD1E0F12C84
:102F1000E12CF80194816091B6028091B502F3E052
:102F2000EF16F104FCF49923F9F09E014091B702E9
:102F30000E94020D2FEFE21AF20A239686E0E816AD
:102F4000F10439F70E94DA15F801848190E00196C6
:102F5000817099278483DF91CF911F910F91FF900A
:102F6000EF900895992309F39E0140E0E1CF9091FD
:102F7000B40290FF0CC0EEECF1E0818360834283E9
:102F8000339691E0E03EF907C1F70C94DA15089505
:102F90000F931F93CF93DF9300D00F92CDB7DEB77F
:102FA0008C018091CD0181110AC09E012F5F3F4F9E
:102FB0004FEF6FEF0E94020D8A818093CD01F801DF
:102FC0006481613069F08091CD0140E0662361F059
:102FD00040E0623011F44091CD0180E060E004C037
:102FE0006091CD0140E080E00E94B717F801848134
:102FF00090E0019663E070E00E94BA2F84830F9006
:103000000F900F90DF91CF911F910F910895CF9363
:10301000DF9300D00F92CDB7DEB79091B40290FF4E
:103020000AC09E012F5F3F4F0E94020D4B816981B4
:103030008A810E94B7170F900F900F90DF91CF9168
:103040000895CF93DF93EC01EC81F0E0E058FD4F61
:103050004491E4EBF2E0628181810E9407188C8147
:103060008F5F8C83DF91CF910895CF93DF93EC0135
:10307000E4EBF2E0438162818C810E9407188C812D
:103080008F5F8C83DF91CF9108954F925F926F9203
:103090007F928F929F92AF92BF92CF92DF92EF92E8
:1030A000FF920F931F93CF93DF93FC0162804480C4
:1030B00081E08483E0E8F2E07490EFEFF2E0E491E5
:1030C000C0EED1E03EECE32E31E0F32E4EEFC42E05
:1030D00041E0D42E52E0A52EBB24B39488248A94D8
:1030E000912C55245A94E7190E2F10E082E0861592
:1030F00030F08091B50288838091B60289834110B7
:1031000021C01B821A8297014A81698188810E94AD
:10311000020D259683E0E80EF11CCC16DD0631F792
:10312000DF91CF911F910F91FF90EF90DF90CF90A3
:10313000BF90AF909F908F907F906F905F904F90D7
:103140000C94DA158B818823E9F081508B83859D5F
:10315000C00111246C8170E00E94A62FFB01FF27A3
:10316000E058FD4F8491E82FE719E59DC001112437
:10317000B8010E94A62F8091B702689FB001112468
:103180007A83C1CF0E9436302091B702269521580C
:103190002A9DA0012B9D500D1124452F55278417E2
:1031A00095070CF0B0CF82E0861588F40E94363087
:1031B000B4010E94BA2F88830E9436302091B60253
:1031C0002695622F70E00E94BA2F280F29831A8259
:1031D0008091B702893C20F088EC8C838B8393CF5D
:1031E0008431D8F784E1F9CF6AEE7EEF90E080E099
:1031F0000E949B3060E082E090E00E947D3060E0C1
:1032000083E090E00E947D30109260021092610293
:10321000109262021092630260E084E090E00E94EB
:103220007D3060E082E290E00E947D3060E085E0E9
:1032300090E00E947D3060E086E090E00E947D306A
:103240006FEF87E090E00E947D3040E050E0BA01EF
:1032500088E090E00E948F3060E08DE090E00E9476
:103260007D3040E050E0BA0188E190E00E948F306C
:1032700060E087E190E00E947D3040E050E0BA01DC
:103280008CE190E00E948F3070E060E080E290E09E
:103290000E949B3040E050E0BA0188E190E00E943B
:1032A0008F3040E050E0BA018FE090E00E948F3014
:1032B00040E050E0BA0183E190E00C948F30CF926F
:1032C000DF92EF92FF926B017C010E94F30CB70139
:1032D000A60188E090E0FF90EF90DF90CF900C94F3
:1032E0008F305F926F927F928F929F92AF92BF9238
:1032F000CF92DF92EF92FF920F931F93CF93DF93C2
:1033000000D00F92CDB7DEB7182F762E042F622E85
:103310009091B40290FF29C0E92FE695AE2FB0E05E
:10332000AC5DBE4F8C918093B2029E7F923081F54E
:103330009E012F5F3F4F812F0E94020D4B816981BB
:103340008A810E94B7171093B5027092B60200935B
:10335000B702662051F06091B4027091B50280917D
:10336000B6029091B7020E945F190F900F900F90D4
:10337000DF91CF911F910F91FF90EF90DF90CF9051
:10338000BF90AF909F908F907F906F905F900895C7
:10339000823019F40091B702D6CF863019F410911B
:1033A000B502D1CF8930D9F3893169F6E9518E2F31
:1033B0008170582EE695F0E0E558FD4FA590B49049
:1033C000BB248EECE82E81E0F82ED12CC12C96E0A7
:1033D000892E912CC601B4010E94A62F812F511075
:1033E00013C0860F9701402F672D0E94020DCA0C53
:1033F000DB1C83E0E80EF11C80EEE81681E0F806A5
:1034000049F70E94DA159FCF861BECCFE4EBF2E080
:10341000438128E0421B08F440E021E06281818181
:103420000C947119E4EBF2E0438128E0420F08F4B8
:103430004FEF21E0628181810C947119E4EBF2E09D
:10344000628128E0621B08F460E021E04381818111
:103450000C947119E4EBF2E0628128E0620F08F449
:103460006FEF21E0438181810C947119E4EBF2E06C
:10347000818121E04381628188500C947119E4EBD1
:10348000F2E0818121E043816281885F0C947119AF
:103490008091B802882319F081508093B80260911E
:1034A000B4027091B5028091B6029091B7020C946B
:1034B0005F198091B802833018F48F5F8093B8024F
:1034C0006091B4027091B5028091B6029091B702FA
:1034D0000C945F19E4EBF2E083E0808311828FEFBC
:1034E00082838383148260817181828193810C94B1
:1034F0005F191F920F920FB60F9211242F933F93D3
:103500004F935F936F937F938F939F93AF93BF93EB
:10351000CF93DF93EF93FF93D091E900DF70809119
:10352000EC00C82FC17080FDC0E81092E9008091C6
:10353000F000877F8093F00078940E94070E10922D
:10354000E9008091F00088608093F000CD2BCF706F
:10355000C093E900FF91EF91DF91CF91BF91AF91BF
:103560009F918F917F916F915F914F913F912F919B
:103570000F900FBE0F901F9018951F920F920FB6CD
:103580000F9211242F933F934F935F936F937F93E9
:103590008F939F93AF93BF93EF93FF938091E1003D
:1035A00082FF09C08091E20082FF05C08091E100A6
:1035B0008B7F8093E1008091DA0080FF24C08091AE
:1035C000D80080FF20C08091DA008E7F8093DA00DF
:1035D0008091D90080FF9BC080E189BD82E189BDD7
:1035E00009B400FEFDCF81E08093E6028091C10224
:1035F000811109C00E94A8080E9473098091E2000D
:1036000084608093E2008091E10080FF17C0809188
:10361000E20080FF13C08091E2008E7F8093E20081
:103620008091E20080618093E2008091D800806206
:103630008093D80019BC85E08093E6028091E10078
:1036400084FF29C08091E20084FF25C080E189BD0C
:1036500082E189BD89B5982F917080FFFBCF809161
:10366000D8008F7D8093D8008091E1008F7E809379
:10367000E1008091E2008F7E8093E2008091E20081
:1036800081608093E2008091E702882309F445C0BD
:1036900084E08093E6028091E10083FF27C080915F
:1036A000E20083FF23C08091E100877F8093E100E7
:1036B00082E08093E6021092E7028091E1008E7F23
:1036C0008093E1008091E2008E7F8093E200809100
:1036D000E20080618093E20042E060E080E00E94CE
:1036E00041098091F00088608093F000FF91EF9194
:1036F000BF91AF919F918F917F916F915F914F910A
:103700003F912F910F900FBE0F901F90189519BCED
:103710001092E6021092C10276CF8091E30087FDFD
:1037200093E09093E602B7CF78941F921FB61F9252
:1037300011248F939F93AF93BF93809164029091D4
:103740006502A0916602B09167020196A11DB11DAC
:103750008093640290936502A0936602B09367021F
:10376000BF91AF919F918F911F901FBE1F90189591
:103770002FB7F8948091640290916502A09166023F
:10378000B09167022FBF08950F931F93CF93DF93DC
:10379000C62FD42F022FFC0182818823A1F06093D1
:1037A000F2020E94B81B9093F1028093F002C7705E
:1037B00081E001C0880FCA95EAF7DF91CF911F9190
:1037C0000F910C94780B8091F202681335C08091B0
:1037D000F0029091F1020E944A0A883C910560F53E
:1037E00010E21D0FCD17B9F080E28C0F883040F445
:1037F000C77081E001C0880FCA95EAF70E946D0B7F
:10380000183048F481E09D2F977001C0880F9A9579
:10381000EAF70E94780B802F0E94BD15183098F4AB
:10382000D77081E001C0880FDA95EAF7DF91CF9178
:103830001F910F910C946D0BC77081E001C0880F30
:10384000CA95EAF7F3CFDF91CF911F910F910895B9
:103850009091B40290FF3DC09170811129C0926097
:103860009093B402662351F06091B4027091B50256
:103870008091B6029091B7020E945F196091B402E4
:10388000669570E04BE050E084E091E00E944F309C
:10389000892BA9F01092B30281E08093770220E097
:1038A0004091B7026091B6028091B5020C947119F3
:1038B0008B3210F09465D4CF880F982BD1CF81E054
:1038C0008093B3020E94B81B909375028093740298
:1038D000E3CF08958091B4028695815009F48AE27D
:1038E00061E00C94281C8091B40286958F5F8B3226
:1038F00008F081E061E00C94281C9091B40290FFE4
:1039000007C09695981720F0961710F40C94731C26
:1039100061E00C94281C3F924F925F926F927F92CD
:103920008F929F92AF92BF92CF92DF92EF92FF92CF
:103930000F931F93CF93DF9300D000D00F92CDB79A
:10394000DEB78C01FC0183819481892B31F0808169
:10395000918189238F3F09F077C60F900F900F90C8
:103960000F900F90DF91CF911F910F91FF90EF90EB
:10397000DF90CF90BF90AF909F908F907F906F908F
:103980005F904F903F9008950E94A713F82E682FE4
:1039900089819A810E94370B69817A818F2D0E94DB
:1039A0001B127C01F8018281882309F45DC0C701E4
:1039B00090568115F0E29F0750F0905E811520E14E
:1039C000920728F0915C81159F4108F087C0C701DC
:1039D00099279C01245031092432310520F08B971E
:1039E0000E9708F041C08091020290910302009767
:1039F000A9F10E944A0AD0907A029C0150E040E06E
:103A000060E67AEE80E090E00E94B130CA01B90130
:103A100025E030E040E050E00E94B130CA01B90139
:103A20006D197109810991090E94B23127EA39E7BC
:103A300047E45DE30E943E324B015C016D2D70E076
:103A400090E080E00E94B2319B01AC01C501B4015D
:103A50000E9415310E94813160937A020E94B81B46
:103A60009093030280930202F8018281882309F473
:103A7000DDC5C70182519F45409708F068C58FEFAB
:103A800093E00E946930FEEEEF0E57E8852E9924F0
:103A900093948823D1F180915B02877009F45DCF04
:103AA000F8018281882309F458CF82E00F900F90AB
:103AB0000F900F900F90DF91CF911F910F91FF907A
:103AC000EF90DF90CF90BF90AF909F908F907F90BE
:103AD0006F905F904F903F900C94050C8FEFE8161D
:103AE000F10421F018F090E080E073CFC70171CFAE
:103AF000811424E0920679F2C4010E946930811198
:103B000001C0EA943FEF831A930AE110F1CF1C82BF
:103B10001B82442443944AE0342E74018FEFE81A48
:103B2000F80AC4010E94693089831A82882309F443
:103B3000B2CF9FEF980F933000F58A83498292E0CD
:103B4000890E911CC7010E9469308B83882309F478
:103B5000A2CFFE0131967F01F70120812223E9F2F5
:103B6000213009F049C091818281913041F4F2E025
:103B7000EF0EF11C0E94BD1509C04701EACF92303B
:103B800049F422E0E20EF11C0E9410153FEFE31A07
:103B9000F30AE2CF933031F432E0E30EF11C0E94DD
:103BA000580CF4CF943021F08FEFE81AF80AEECFDA
:103BB00092E0E90EF11C30E020E0B7016F5F7F4F2B
:103BC000F70141818053990B8A30910550F02150C3
:103BD0003109E0F28FE99FE00197F1F700C00000A2
:103BE000F6CF329EF001339EF00D11249C012E0F72
:103BF0003F1F842F7B01E1CFE22FF0E0EE5EFA4F12
:103C00005490822F86958695869590E0FC01EE5F14
:103C1000FA4F64902770712C022E02C0759467943D
:103C20000A94E2F7E1E06E227724FC01EE50FB4FAC
:103C3000A490B12C022E02C0B594A7940A94E2F786
:103C4000F1E0AF22BB24FC01EE51FB4FC490D12C1C
:103C500002C0D594C7942A95E2F721E0C222DD2460
:103C60006114710419F081EE0E941015A114B104C1
:103C700019F086EE0E941015852D0E94BD15AB2807
:103C800019F086EE0E94580C672819F081EE0E9408
:103C9000580CCD2809F47ACF8CE26CCF81E00E94D9
:103CA000210C0E94C60BF7CE81E00E94E20BF9CFF7
:103CB00082E0F5CFF8018281882321F081E08093B2
:103CC0007D0262C410927D025FC4F3EFEF16FCE543
:103CD000FF0661F1B8F438EDE3163CE5F30611F1A7
:103CE00089EDE8168CE5F80669F197EDE9169CE593
:103CF000F90609F049C426E241EE61EEC8010E94CE
:103D0000C41BC9CEE5EFEE16ECE5FE06B9F090F067
:103D100026EFE2162CE5F20609F036C427E245EE5E
:103D200066EEECCF27E245EE65EEE8CF26E241EE07
:103D300060EEE4CF27E245EE64EEE0CF26E241EE0E
:103D400062EEDCCF28E241E0EFCF80916802806133
:103D500096E0E9169CE5F90609F4A2C08091680294
:103D60008860E7E0EE16ECE5FE0608F499C0809165
:103D70006802806295C0809168028D7FFCE0EF163A
:103D8000FCE5FF0609F48CC078F4809168028C6031
:103D90003AE0E3163CE5F30609F482C008F493C068
:103DA000809168028E7F7CC080916802877F9EE050
:103DB000E9169CE5F90609F473C0809168028B7FCF
:103DC000EFE0EE16ECE5FE0608F46AC080916802AA
:103DD0008F7E66C0FBEFEF16FCE5FF0609F46BC0B3
:103DE00068F533E1E3163CE5F30609F47AC090F494
:103DF00091E1E9169CE5F90609F46FC0E2E1EE16DF
:103E0000ECE5FE0609F002C40E94F20D8091680202
:103E10008F7746C0F5E1EF16FCE5FF0609F469C0AF
:103E200008F47DC08091690281603AEFE3163CE5B9
:103E3000F30609F0EBC380936902E8C38FEFE8163D
:103E40008CE5F80609F451C0A0F4809169028D7FD9
:103E5000EDEFEE16ECE5FE0671F3809169028E7FC0
:103E6000FEEFEF16FCE5FF0630F3809169028360F8
:103E7000E2CF21E0E2162DE5F20609F459C008F47C
:103E800044C060E082E0E8168DE5F80609F0BEC3A4
:103E90008EE090E00E947D30B9C38091680281601D
:103EA00080936802B3C3809168028260F9CF8091E9
:103EB00068028460F5CF809169028260BCCF8091F6
:103EC00068028064EDCF0E94F20D809168028068E4
:103ED000E7CF809168028F7DE3CF809168028F7B6E
:103EE000DFCF80916802837FDBCF809169028C7F76
:103EF000A2CF8091680282FB992790F921E0922756
:103F000090FB82F990FB83F9CBCF80916902982FC7
:103F1000909591708E7F892B90FB81F98CCF0E94B8
:103F2000F20D90916802892F97FB87F98058B8CFDE
:103F300061E0AECF80915E0296E1E9169CE5F9065C
:103F400009F0A0C38A7A91E009F490E0909304020A
:103F5000811106C089E20E94DB0A0E946B0A9BCD98
:103F600085E3F9CF85E38BC38091B40280FF1BC04A
:103F70008E7F8093B4026091B4027091B5028091FB
:103F8000B6029091B7020E945F191092B302EFEF50
:103F9000F0E722E0E150F0402040E1F700C00000EF
:103FA0000E94DA1578CD81608093B40261E0869535
:103FB0000E94281C70CD4AE65CE163E77CE10E9428
:103FC000EE0C69CD43E75CE16AE67CE1F8CF4FE3B4
:103FD0005AE166E37AE1F3CF4EE15AE16AE27AE12F
:103FE000EECF46E05AE162E17AE1E9CF42E15AE1FF
:103FF00066E07AE1E4CF49E55AE168E47AE1DFCFAF
:1040000061E081E0D5CF65E082E00E947D1C43CD78
:1040100068E086E0FACF64E18FE0F7CF67E185E101
:10402000F4CF62E289E1F1CF61E083E2C1CFFBE549
:10403000EF16FDE5FF0611F12CE5E2162DE5F2067F
:1040400009F052C38091690282FB882780F991E0D0
:1040500089270E946C1448C30E94F20D3FEF84E34D
:104060009CE0315080409040E1F700C000000E9489
:10407000390A0E94F4180FCD81E0EBCF80E0E9CF40
:10408000C7010E940F0BD82E3EC32F2D2F70A22EDA
:104090008F2D807F19F0A29490EFA922DD20C9F026
:1040A000AA2069F080E28E0D883010F081100BC0DC
:1040B00080915E02A82AA0925E020E946B0A8E2D59
:1040C0000E94101519C080915D02A82AA0925D027D
:1040D000F4CF8E2D0E94580CAA2071F0A09480E29B
:1040E0008E0D883010F081103DC080915E02A822B4
:1040F000A0925E020E946B0A232D2850330B2430BD
:10410000310510F40E944C0CCC2009F426CC80918F
:104110005B0280FD22CCF8011282859585958595FC
:104120000E94210CC8010E948B1C80915B02859526
:10413000859585950F900F900F900F900F90DF91C0
:10414000CF911F910F91FF90EF90DF90CF90BF9094
:10415000AF909F908F907F906F905F904F903F9027
:104160000C94E20B80915D02A822A0925D02C2CF66
:104170003F2D3F70932E8F2D807F803219F09294C7
:1041800080EF9822882071F081E0881681F1DD208F
:10419000D9F1AA2091F1F801858180FF90CF8F702D
:1041A00085832BC0DD20B1F090915F02892D892B92
:1041B000A11003C00E94780B9FCFE1E0AE12FACFAE
:1041C0002091690222FD98CF981709F495CF80932A
:1041D0005F0292CFA11006C00E94650A892D0E943D
:1041E0006D0B8ACFF1E0AF1609F486CFF5CFDD2055
:1041F00031F025E02A1508F47FCF892DDBCF34E09C
:104200003A1508F479CFEACFAA2041F3F9E38F12E7
:1042100009C02FEF37EE83E0215030408040E1F7B6
:1042200000C000008E2D0E94580C66CF8F2D869501
:104230008695837061F0813009F05ECFC70193707D
:10424000D11002C090E080E00E94820B55CFC701E0
:104250009370D11002C090E080E00E94980B4CCF88
:104260008F2D837009F066C0D11046CF8E2D8295B8
:1042700086958770880F880F6E2D6F70462E512C93
:10428000712C612C082E04C0440C551C661C771C34
:104290000A94D2F740E050E0BA01E4FE0FC04FE0CC
:1042A00050E060E070E004C0440F551F661F771FA8
:1042B0008A95D2F740955095609570958F2D86958B
:1042C00086958370823019F1D8F4809060029090C6
:1042D0006102A0906202B0906302813069F04429CB
:1042E000552966297729CB01BA01682179218A21CC
:1042F0009B210E94420C00CF482859286A287B281D
:10430000CB01BA016429752986299729F2CF44295E
:10431000552966297729409060025090610260908B
:10432000620270906302CB01BA016425752586256F
:104330009725DFCF8695DD2011F08F2D81708823A2
:1043400009F4DACE8E2D829586958770880F880FB6
:104350006E2D6F70462E512C712C612C082E04C0CE
:10436000440C551C661C771C0A94D2F740E050E0C0
:10437000BA01E4FE0FC04FE050E060E070E004C01E
:10438000440F551F661F771F8A95D2F740955095A9
:10439000609570958F2D869586958370823019F182
:1043A000D8F48090F3029090F402A090F502B090BF
:1043B000F602813069F04429552966297729CB0115
:1043C000BA01682179218A219B210E94BC0B94CEDD
:1043D000482859286A287B28CB01BA016429752905
:1043E00086299729F2CF44295529662977294090B3
:1043F000F3025090F4026090F5027090F602CB0147
:10440000BA016425752586259725DFCF9F2D9F70DE
:10441000F92EDD2029F0892F0E94210C8E2DCACE85
:104420008E2D0E946D0B8F2D0E94E20B65CE8E2D7E
:10443000E2EF8E1609F457C0E81578F0F0EF8F160A
:1044400049F121EF821609F446C0DD2009F46FC05E
:10445000A11035CE8F2D8F7143C033EF831609F431
:1044600047C094EF8912F1CFDD2009F455C02F2DFC
:104470002F71F22E822F0E94210C8091690282FD01
:1044800007C038E0F39EC0011124836080935B0273
:104490008F2D26C0DD20D1F0E4E0EA1508F42CCE03
:1044A0002F2D2F7161E070E080E090E004C0660F76
:1044B000771F881F991F2A95D2F74090F3025090DA
:1044C000F4026090F5027090F6029BCFF5E0FA15C9
:1044D00008F412CEE5CF8F2D8F71DD2009F4A4CF23
:1044E0000E94210C09CE8F2D8F71DD20C9F39CCF46
:1044F00060E070E0CB01DD2009F467CF2F2D2F7134
:1045000061E070E080E090E004C0660F771F881FD4
:10451000991F2A95D2F759CF81E00E94050C81E0BE
:104520008A1508F0E9CD82E00E94050CE5CDAA20AD
:1045300059F0893309F076CE9FEFE7EEF3E0915022
:10454000E040F040E1F76CCE8F2D8F716DCFF0E140
:10455000EF16FFE5FF0609F4A1CB21E1E2162FE5F6
:10456000F20609F4A5CB0E94B81B80EEE816F10410
:1045700009F4A0CB94EEE916F10409F49BCBECE22C
:10458000EE16F10409F0A1CBF8018281882309F429
:104590006CC01092F202F2E0EF16FCE5FF0608F4A0
:1045A000C9CC26E1E2162CE5F20630F0C7018A5F9D
:1045B0009C45099708F0BECC0E94E71190936902D0
:1045C0008093680230E1E3163CE5F30609F481CC00
:1045D00008F000CC98E0E9169CE5F90609F46FCCE8
:1045E00008F0C9CBF4E0EF16FCE5FF0609F45FCC58
:1045F00008F0ABCB32E0E3163CE5F30609F44DCC12
:1046000083E0E8168CE5F80609F44DCC6091680269
:10461000F090690284E090E00E947D306F2D82E28C
:1046200090E00E947D300E94F20D35CA30E1E31621
:104630003FE5F30609F438CB81E1E8168FE5F8068B
:1046400009F093CF82E031CB85E0DE011196019035
:104650000D928A95E1F7F801228189819A812111D1
:1046600093C90E940F0BF82E97C9F6E1EF16FCE5EF
:10467000FF06D1F580910402811174CC89E20E9479
:10468000B00A6BCC82722CECE2162CE5F20609F42F
:10469000B2CC08F0A5C096ECE9169CE5F90609F441
:1046A00096CC08F074C0F3ECEF16FCE5FF0609F4B5
:1046B00082CC08F05BC032ECE3163CE5F30609F46B
:1046C00053CC3AE5E3163DE5F30609F4D5CC08F002
:1046D000AECCE1149CE5F90609F4BECCEEEDEE1685
:1046E000ECE5FE0609F4C5CCF8018281E080F1809A
:1046F000882309F4C5CCC7010E94A713D82E682FC0
:10470000C7010E94370BB7018D2D0E9428127C0132
:10471000882EF801D280A580A2943FE0A322809148
:104720005B028770A1F0CD2CDD2091F08F2D807F72
:10473000803421F080E28E0D883048F082E00E94C3
:10474000050C80915B028770CC24C3948111C12C2D
:104750003F2C32942FE03222FBE0F31508F4CCCC4E
:10476000E32DF0E0EB53FD4C0C94CE2F94ECE916C6
:104770009CE5F90609F426CC46E35AE16FE37AE1B9
:10478000E5ECEE16ECE5FE0609F419CC9ACFF9EC4F
:10479000EF16FCE5FF0609F424CC88F437ECE316A9
:1047A0003CE5F30609F418CC4AE25AE16EE17AE1FD
:1047B00098ECE9169CE5F90609F401CC82CFEAEC05
:1047C000EE16ECE5FE0609F411CC48E45AE169E581
:1047D0007AE1FBECEF16FCE5FF0609F4F0CB71CFB4
:1047E00021EDE2162CE5F20609F415CCB8F48EECB6
:1047F000E8168CE5F80609F406CC08F401CCEFECD9
:10480000EE16ECE5FE0609F403CC6EE089E0F0ED6F
:10481000EF16FCE5FF0609F4F8CB53CF24EDE216C2
:104820002CE5F20609F4FDCB78F482EDE8168CE570
:10483000F80609F4F3CB61E088E193EDE9169CE515
:10484000F90609F4B5CB3DCFE5EDEE16ECE5FE0635
:1048500009F4EACB6AE285E2FDE5EF16FF0609F40A
:10486000D4CB2FCF1F93CF93DF9380910A02807F09
:10487000A9F480910702882389F080913C02D091AD
:104880000B026091050270910602A0910802B0919E
:104890000902C62FC72316E0D81304C0DF91CF91B9
:1048A0001F91089590E0109711F0CF3F19F40196F1
:1048B0008770F2CF189F9001199F300D1124F901D4
:1048C000E45FFD4F41814713F2CF40814613EFCFA4
:1048D00042814111ECCF438154814A1B5B0B483C20
:1048E000510528F780910A028F70806180930A0237
:1048F000F901EF5EFD4F80818F708061808385E0DC
:1049000092E00E948B1CDF91CF911F910C94630B5E
:10491000AF92BF92CF92DF92EF92FF920F931F93CD
:10492000CF93DF93CDB7DEB761970FB6F894DEBFB4
:104930000FBECDBF8C0185E0F801DE011D96019010
:104940000D928A95E1F7F80180819181E28025E05E
:10495000A22E22E0B22E6091080270910902611528
:10496000710509F43EC13091050240910602232FE2
:1049700024232F3F09F435C1C380D480F09007026F
:10498000F601E61BF70BFF2009F4FBC020910A0299
:10499000522F507FE83CF10508F0BBC0511178C0A0
:1049A000FE2C491321C038131FC0E1101DC02F7009
:1049B000206120930A02C5010E948B1C80910A028B
:1049C000F80185838F2D61960FB6F894DEBF0FBE78
:1049D000CDBFDF91CF911F910F91FF90EF90DF90AE
:1049E000CF90BF90AF900895CD2829F0282F29238C
:1049F0002F3F09F014C120E0F22FF170DF2E20FFCD
:104A00003DC020913C0240910B0256E0241315C09A
:104A10008D879E878D859E850E94E913292F22957B
:104A20002F702230F8F0243020F59F70F9F0F80153
:104A30009581907FD9F4D12C1FC030E0529FF001B6
:104A4000539FF00D1124E45FFD4F6181961306C062
:104A50006081861303C06281E61210C02F5F3F4F52
:104A60002770D4CF9F7011F0882329F3805E88309F
:104A700010F3C8010E948B1CFD2CA4CFEE2009F47A
:104A8000A1CF80910A02816080930A02F12C9ACF13
:104A9000491312C0381310C0E1100EC0F80125836D
:104AA000C8010E948B1C86E0F801A5E0B2E00190ED
:104AB0000D928A95E1F786CF8D879E878D859E859D
:104AC0000E94F313882309F1EE20F9F080910A0285
:104AD000803270F0209105023091060238872F83D2
:104AE0001986DB86CA868C87CE0107960E948B1CAE
:104AF00086E0F801A5E0B2E001900D928A95E1F719
:104B00000E943224FF24F3945DCFC8010E948B1CC5
:104B1000F9CF51110AC085E092E00E948B1C86E01B
:104B2000F50111928A95E9F7B1CF49130FC03813F7
:104B30000DC0E1100BC0F8012583C8010E948B1C39
:104B400086E0F50111928A95E9F73CCF8D879E8723
:104B50008D859E850E94F3138823B9F2EE20A9F279
:104B600080910A02803220F22091050230910602E3
:104B70003A8329831B82DD82CC828E83CE0101960B
:104B8000B5CFE83CF105E0F6FE2CEE2009F4BDCFF0
:104B9000491316C0381314C080910A0280FD83CFD8
:104BA000982F907F09F47FCFF8018583903F09F417
:104BB00077CF982F907F905F8F70892B858370CFF0
:104BC0008D879E878D859E850E94F313811190CFDE
:104BD00080910A02816080930A02C8010E948B1CA6
:104BE000F1CEEE2009F491CF8D879E878D859E852D
:104BF0000E94F313F82E882309F487CF86E0F8018A
:104C0000A5E0B2E001900D928A95E1F7809105024E
:104C1000909106020E94E9130E943224D3CE21E033
:104C20002E25EACE1F93CF93DF93CDB7DEB76797DC
:104C30000FB6F894DEBF0FBECDBF342F4B8B252FA0
:104C40005C8B6D8B7E8B8F8B8E899F89611110920F
:104C50005D021A8A198A3D872E876F87998B888B08
:104C600086E0FE013D96DE01179601900D928A9531
:104C7000E1F7CE0107960E948824882389F016E088
:104C800080913C0290910B02891349C067960FB640
:104C9000F894DEBF0FBECDBFDF91CF911F91089575
:104CA00086E0FE013796DE01119601900D928A95FD
:104CB000E1F78A859B85892B11F38F81988589235C
:104CC0008F3FE9F220910B0230E0C9010196877015
:104CD000992740913C024817190671F40E94F20D81
:104CE00010920B0210923C0286E0E5E0F2E0DF0158
:104CF0001D928A95E9F7C3CF96E0929FD001939FCA
:104D0000B00D1124A45FBD4FFE01319601900D92AC
:104D10009A95E1F780930B020E94630BB0CF819FBD
:104D2000C0011124845F9D4F0E948824882309F4C8
:104D3000ADCF80913C0290E00196877099278093D7
:104D40003C029ECF8F929F92AF92BF92DF92EF92E2
:104D5000FF920F931F93CF93DF93C0E8D1E00AE651
:104D600012E0D12CEE24E394F12C8991F894E82FF1
:104D7000E295EF70F0E021A18F70A70102C0440F0F
:104D8000551F8A95E2F7CA01922F982B91A392A101
:104D90008095892382A3789400C0E4E8F1E030E0B4
:104DA00020E0B12CA12C4191A42FA295AF70B0E0CE
:104DB00090968C9190E04F7002C0959587954A959A
:104DC000E2F780FD5EC0C701022E02C0880F991F66
:104DD0000A94E2F7A82AB92A2F5F3F4F2B303105FA
:104DE00011F7FE01319780810E94980D50EA5A9583
:104DF000F1F7F80180819181A816B90609F444C041
:104E0000B182A08281E0D82A0E5F1F4FF1E0C43842
:104E1000DF0709F0AACFDD20C9F181E08093CA0144
:104E20000E94B81B9093C9018093C8018091C8016A
:104E30009091C9010E944A0A069760F180916A0226
:104E400090916B029093BA028093B90280916C02A8
:104E500090916D029093BC028093BB0280916E0290
:104E600090916F029093BE028093BD028091700278
:104E7000909171029093C0028093BF021092CA0178
:104E800009C090E080E0A6CF80E0BDCF8091CA014C
:104E90008111CCCF80910202909103020E944A0AB4
:104EA000893E934060F160917A02C62FD0E0662778
:104EB00077276C1B7D0B072E000C880B990B0E942B
:104EC000B23127EA39E747E45DE30E943E324B0105
:104ED0005C01BE01DD0F880B990B0E94B2319B0172
:104EE000AC01C501B4010E9415310E94813160936B
:104EF0007A020E94B81B90930302809302028D2DC8
:104F0000DF91CF911F910F91FF90EF90DF90BF90B5
:104F1000AF909F908F900895CDB7DEB7AC970FB646
:104F2000F894DEBF0FBECDBF84B7877F84BF0FB6B6
:104F3000F894A89580916000886180936000109239
:104F400060000FBE80E890E00FB6F8948093610097
:104F5000909361000FBE85B7806885BF85B7806874
:104F600085BF83E39AE09093A7018093A6010E94F6
:104F7000A8080E9473098091E20084608093E20097
:104F800078948091E6028823A1F01091E9001F70C7
:104F90009091EC00892F817090FD80E8182B109281
:104FA000E9008091E80083FD0E94070E1F701093B6
:104FB000E90082E084BD93E095BD9AEF97BD8093B0
:104FC0006E0084EF0E94980D85EF0E94980D86EF89
:104FD0000E94980D87EF0E94980D04E811E06FE899
:104FE000E62E61E0F62ED8018D918D010E94980D7C
:104FF000E016F106C1F710926B0210926A0210924D
:10500000BA021092B90210926D0210926C021092C4
:10501000BC021092BB0210926F0210926E021092AC
:10502000BE021092BD021092710210927002109294
:10503000C0021092BF0290E080E00E9477308A3E6A
:105040009E4F11F00E94F41882E090E00E946930B7
:105050008093A9020E94E7119093690280936802ED
:105060000E94A226EFE3FCE93197F1F700C00000AF
:105070000E94A2268091B90280FF17C06FEF83E2E1
:1050800090E00E947D306FEF84E290E00E947D30DE
:105090006FEF85E290E00E947D306FEF7FEF90E050
:1050A00080E00E949B300E94390A83E090E00E94D9
:1050B0006930682F70E090E080E00E94420C83E24B
:1050C00090E00E946930823209F0F4C584E290E0F9
:1050D0000E946930883009F0EDC585E290E00E94B9
:1050E0006930873009F0E6C583E08093A00280E252
:1050F0008093F7020E94A32E6DE070E085EA95E0B0
:105100000E948F11892BE9F58091A00263E070E085
:1051100081FD8EC182EA95E00E948F11892B89F56D
:105120006DE070E082E995E00E948F11892B49F5CE
:105130000E94590A605A75418F4F9F4F6093A20297
:105140007093A3028093A4029093A502EAEFF2E089
:1051500080E092E0DF019C011D9221503040E1F798
:10516000F0930105E09300058FEF9FEF9093F90214
:105170008093F80281E08093A7028093A6021092A8
:10518000A10280917202811136C090E080E00E94FD
:1051900077308A3E9E4F21F00E94F4180E946A1ACE
:1051A00088E090E00E9471306093B4027093B50281
:1051B0008093B6029093B7026E7F71F40E946A1AD0
:1051C00088E090E00E9471306093B4027093B50261
:1051D0008093B6029093B7020E94F30C1092B30230
:1051E0008091B40280FF04C060E086950E94281C74
:1051F00081E08093720289E191E090937C02809338
:105200007B0258E1852E912C8091E60200E112E1AB
:10521000853009F448C10E94A226D82E81110E942F
:10522000590AA9EBB2E0EAEAF2E010E000E0702FE0
:105230008D919D91219131912817390709F443C12E
:105240002827392760E0EE24E394F12CA9014E21B0
:105250005F21452B09F431C169A37AA39C012E215A
:105260003F2191E0232B09F490E09BA30E94B81BFF
:105270008160782F9DA38CA349A15AA16BA18DA118
:105280000E941226000F111FF801E655FD4F808184
:105290009181E826F926F182E0828091B302882389
:1052A000D1F18091B202E091B402E695E81BE0935F
:1052B0007602823009F01EC1F0E0ED53FA4FE4911E
:1052C0000E2F10E091E2E92E98E1F92E80917702FD
:1052D000882361F0109277020E94B81B90937502A8
:1052E0008093740210927902109278020E94B81B87
:1052F000E0917402F09175028E1B9F0B8F3F9F47C8
:1053000050F4E00FF11FF0937502E093740284E70C
:1053100092E0F70109958091A702882309F4CCC196
:105320001091F7028AEF92E09093010580930005B7
:105330000E94B81B60EF70E00E94A62F6170F0EA37
:105340006F9FC001112460EA70E089539A4F0E9458
:10535000AE0C27E0129FC0011124811532E09307A3
:1053600014F090E080E086509D4F9093010580936B
:10537000000584E297E00E944F114091F3025091A2
:10538000F4026091F5027091F602CB01AA27BB27C7
:105390000097A105B10509F419C1AC01BD0180E177
:1053A000052F162F272F332701151105210531054C
:1053B00019F0885FB901A8018A019B0194E0369534
:1053C0002795179507959A95D1F701151105210590
:1053D000310519F08C5FB901A8018A019B01B2E087
:1053E0003695279517950795BA95D1F701151105AB
:1053F0002105310519F08E5FB901A80176956795F1
:1054000057954795452B462B472B09F08F5F8130E9
:1054100009F488C1882309F4DBC0823009F485C10E
:1054200087E097E00E944F1181E00E945D11D4C097
:105430008FE995E071CE8091E602843011F11092EF
:10544000730280E40FB6F894A895809260000FBEB6
:105450008093600083B7817F846083BF83B781605E
:1054600083BF7894889583B78E7F83BF0FB6F894F7
:10547000A895809160008861809360001092600020
:105480000FBE8091E502882371F00E94A226E9EB0D
:10549000F2E081919191892B09F0F6C3A1ECB2E081
:1054A000AE17BF07B1F78091E602853009F4C3CF8C
:1054B0000E94F20D0E944C0CAECE6F5FEE0CFF1CF2
:1054C0006B3009F0C3CE0F5F1F4F0430110509F098
:1054D000AECE8FEF8EA38FA318A60E94B81B81605B
:1054E000782F9AA789A74EA15FA168A58AA50E94D7
:1054F0001226D3CE863059F4F0E0E054FA4FE4910E
:105500000E2F10E085E3E82E88E1F82EDFCE8930FB
:1055100061F4E695F0E0E354FA4FE4910E2F10E0C9
:10552000BFE0EB2EB6E1FB2ED1CE8F3061F4E695D5
:10553000F0E0E654FA4FE4910E2F10E0A9E3EA2ED2
:10554000A6E1FA2EC3CE853159F4F0E0E954FA4FC2
:10555000E4910E2F10E0F7EAEF2EF6E1FF2EB6CE23
:1055600008E210E065EFE62E66E1F62E883109F4D8
:10557000ADCE833249F4E5EBF5E005911491E8EC0A
:10558000EE2EE7E1FE2EA2CE04EF11E05EE7E52E5F
:1055900057E1F52E843209F499CE00ED17E042E38D
:1055A000E42E4AE0F42E853209F090CE8E2F63E08F
:1055B0000E948C2FE92FF0E0EE54FA4FE4910E2F69
:1055C00010E075E4E72E78E1F72E80CE80E0E8CE9B
:1055D0008DE197E00E944F118091F702ADE08A9F24
:1055E000C00111248115B2E09B0714F090E080E027
:1055F00086509D4F90930105809300050E94B81B33
:1056000068E770E00E94A62F162F117080917A0231
:1056100090E090937F0280937E02E0917B02F09174
:105620007C0220E0309729F00190F081E02D09956F
:10563000282FE0E61E9FC001112421FF79C060E6FB
:1056400070E0855D954F0E94AE0C8091A702882383
:1056500071F02091F8023091F9022115310539F0ED
:105660008091A10261E070E0882309F480C08091FC
:10567000A602882309F10E94590A0091A202109102
:10568000A3022091A4023091A502601B710B820B32
:10569000930B6F3F7F4F8F4F9F4770F48091A7020E
:1056A000882351F062E070E08BEE9AE00E948F1147
:1056B000892B11F41092A602D1100E94BF110E94F2
:1056C0004C0C9091A802891721F00E944C0C8093F9
:1056D000A8028091E602843009F096CD83E08093A1
:1056E000E9008091E80082FF8FCD8091E80090E092
:1056F00085FF06C00E94C708882309F401C191E014
:105700008091E8008B778093E800992309F47CCDA1
:10571000E981E150E33108F07FC1F0E0EF52FD4C48
:105720000C94CE2F87E197E055CF81E197E052CFDF
:1057300020917D02222329F060E670E08559964F82
:1057400082CF20917E0230917F0260E670E02B30A4
:1057500031051CF48555974F76CF233331051CF462
:105760008551984F70CF855D984F6DCF8F5F082F13
:1057700010E07B01082E02C0EE0CFF1C0A94E2F739
:10578000A9014E215F21452B89F39091A00290FD44
:1057900043C08295880F80768093140198013695D6
:1057A00027953695279520931701815E80931501E3
:1057B0001092180124E630E047E050E062E171E029
:1057C00088E70E94342F892B09F051CFA801E5E02A
:1057D000440F551FEA95E1F78091A00280FD2AC091
:1057E00046505D4F04E610E020E230E060E488E7D8
:1057F0000E945B2F892B09F03ACF0E94BF11E094E1
:10580000F0948091F8029091F902E822F922F09246
:10581000F902E092F8022BCF880F880F880F80934F
:10582000140110921701895F8093150183E0809322
:105830001801C0CFE0E8F2E080E2DF011D928A9516
:10584000E9F7E3E9F1E0FCA7EBA70FE811E077E95E
:10585000272E71E0372EABA5BCA52D91BCA7ABA719
:10586000F80141908F01440E552E511CC201865003
:105870009D4F2C01E22FF0E0E058FD4F30E020E09A
:1058800067E0662E621ACC24C394022E01C0CC0CB1
:105890000A94EAF7520190E0D5018D915D018C21C7
:1058A000662D691B6770762E062E000C770BB82FBD
:1058B00001C0BB0F7A94EAF77B2E7195619571094F
:1058C0006770772701C086956A95EAF7782A808104
:1058D000782A70829F5F9830F9F62F5F3F4F31969C
:1058E0002830310569F6EBA5FCA52E163F0609F018
:1058F000B2CF04E610E020E230E040E852E076CF9C
:1059000000E210E09E012F5F3F4F79018091E80097
:1059100085FD0AC08091E8008B778093E8000E94A3
:10592000C708882399F3EBCE8091F100D7018D93BE
:105930007D010150110951F7E2CE1A8289E08B8373
:1059400036C08A81823009F4CEC1833061F0813063
:1059500009F062C00E94590A0E94D42F6B837C8395
:105960008D839E8324C08091B9029091BA029827BA
:10597000892798279C838B838091BB029091BC02DE
:105980009827892798279E838D838091BD029091C7
:10599000BE0298278927982798878F838091BF0216
:1059A0009091C0029827892798279A8789878091A4
:1059B000E602843009F028CC1091E9001F70909124
:1059C000EC00892F817090FD80E8182B82E0809395
:1059D000E9008091E80080FF0DC050E040E060E207
:1059E00070E0CE0101960E94F8088091E8008E7761
:1059F0008093E8001F701093E90006CC8A81823002
:105A000059F46B817C818D819E810E94D42F86E226
:105A100090E00E947D30CBCF8FEF8983C8CF4C813F
:105A20006B818A810E94F5119827892798279E8388
:105A30008D83BDCFED80FE80FE24EF24FE248A817D
:105A40000B81B6E10B9F80011124E8E58E9F000DCC
:105A5000111D11248C8190E0880F991F080F191FC8
:105A60006F2DC80187960E947D306E2DC8018896E3
:105A7000D0CF0E9417149BCF8A818138C1F060F487
:105A8000803809F094CF20E04B816091B60280917C
:105A9000B5020E9471198BCF823859F1833809F011
:105AA00086CF20E04091B7026C818B81F2CF60E01D
:105AB0008B810E94281C9B818091B402911111C09E
:105AC0008E7F8093B4021092B302FFEF20E732E0A2
:105AD000F15020403040E1F700C000000E94DA158C
