:100000000C94E7050C942E060C942E060C942E06E8
:100010000C942E060C942E060C942E060C942E0690
:100020000C942E060C942E060C94A5250C94612598
:100030000C943C2E0C942E060C942E060C942E063A
:100040000C942E060C942E060C942E060C942E0660
:100050000C942E060C94182E0C942E060C942E063E
:100060000C942E060C942E060C942E060C942E0640
:100070000C942E060C942E060C942E060C942E0630
:100080000C942E060C942E060C942E060C942E0620
:100090000C942E060C942E060C942E060C942E0610
:1000A0000C942E060C942E060C942E060631FF0995
:1000B00074A1010975150026FF00952075088102BD
:1000C0000976150026FF00952075089102C00501EC
:1000D0000902A10185020901A100050919012908E8
:1000E00015002501950875018102050109300931C6
:1000F0001581257F95027508810609381581257FB0
:10010000950175088106050C0A38021581257F9531
:100110000175088106C0C005010980A10185031988
:10012000012AB700150126B700950175108100C09E
:10013000050C0901A101850419012AA00215012657
:10014000A002950175108100C005010906A1018575
:1001500005050719E029E7150025019508750181B6
:10016000020507190029EF1500250195F075018199
:10017000020508190129059505750191029501757A
:10018000039101C00660FF0961A101096215002603
:10019000FF009520750881020963150026FF009570
:1001A0002075089102C005010906A101050719E0A3
:1001B00029E715002501950875018102950175084B
:1001C00081010507190029FF150026FF0095067516
:1001D0000881000508190129059505750191029509
:1001E0000175039101C00000000000000000000044
:1001F00000000000000000000000000000000000FF
:10020000000000000000000000007E0F00D4FFFF8F
:10021000FFC70000007800000000000000002A2B4B
:1002200028000000000000000000000000000000A6
:100230000029000000002C1E34202122243426270F
:10024000252E362D3738271E1F2021222324252630
:100250003333362E37381F0405060708090A0B0CFE
:100260000D0E0F101112131415161718191A1B1C46
:100270001D2F3130232D350405060708090A0B0C04
:100280000D0E0F101112131415161718191A1B1C26
:100290001D2F3130354C290A002575002F0025759A
:1002A000005D2800256400200025640020002564EE
:1002B0000020002564007C0025303258006D6F75E9
:1002C00073656B6579205B62746E7C78207920762B
:1002D00020685D287265702F61636C293A205B008D
:1002E00000010101010101010101020202020202F9
:1002F00002020203030303030303030404040404CC
:100300000404050505050506060606060707070792
:100310000708080808090909090A0A0A0B0B0B0C47
:100320000C0C0D0D0D0E0E0E0F0F0F1010111111E4
:100330001212131314141515161617171818191965
:100340001A1A1B1B1C1D1D1E1E1F202021222223CA
:100350002424252626272829292A2B2C2D2D2E2F0B
:1003600030313232333435363738393A3B3C3D3E22
:100370003F404142434445464748494A4C4D4E4F11
:1003800050515354555658595A5B5D5E5F616264D3
:10039000656668696B6C6D6F7072737577787A7B60
:1003A0007D7E8082838587888A8C8E8F91939596B7
:1003B000989A9C9EA0A2A3A5A7A9ABADAFB1B3B5D7
:1003C000B7BABCBEC0C2C4C6C9CBCDCFD1D4D6D8B3
:1003D000DBDDDFE2E4E7E9EBEEF0F3F5F8FAFDFF51
:1003E0007267626C696768742074696D65722065F4
:1003F0006E61626C65642E0A007267626C69676880
:1004000074206D6F6465205B4E4F454550524F4DD3
:100410005D3A2025750A007267626C69676874200E
:100420006D6F6465205B454550524F4D5D3A202508
:10043000750A007267626C6967687420736574205E
:10044000687376205B4E4F454550524F4D5D3A20C4
:1004500025752C25752C25750A007267626C6967F5
:1004600068742073657420687376205B454550522C
:100470004F4D5D3A2025752C25752C25750A007287
:1004800067626C69676874207261696E626F772059
:10049000736574206873763A2025642C25642C25B6
:1004A000642C25750A00FFAA7F55407267626C694B
:1004B0006768742074696D65722064697361626C29
:1004C000652E0A002223252628292A2C2D2F30329A
:1004D000333536383A3B3D3E4042434547494A4C26
:1004E0004E5051535557595A5C5E60626466686954
:1004F0006B6D6F71737577797B7D7F81838587895C
:100500008A8C8E90929496989A9C9E9FA1A3A5A760
:10051000A8AAACAEAFB1B3B4B6B8B9BBBCBEBFC18C
:10052000C2C3C5C6C7C9CACBCCCDCED0D1D2D2D317
:10053000D4D5D6D7D7D8D9D9DADADBDBDBDCDCDC2B
:10054000DCDCDDDDDDDDDCDCDCDCDCDBDBDBDADAEE
:10055000D9D9D8D7D7D6D5D4D3D2D2D1D0CECDCC65
:10056000CBCAC9C7C6C5C3C2C1BFBEBCBBB9B8B67A
:10057000B4B3B1AFAEACAAA8A7A5A3A19F9E9C9A05
:1005800098969492908E8C8A89878583817F7D7BD3
:1005900079777573716F6D6B6968666462605E5CB4
:1005A0005A5957555351504E4C4A4947454342407A
:1005B0003E3D3B3A3836353332302F2D2C2A292810
:1005C00026252322290014001A0008001500170010
:1005D0001C0018000C00120013002F002A002B0032
:1005E00004001600070009000A000B000D000E00B1
:1005F0000F00330034003100E1001D001B00060035
:1006000019000500050011001000360038005200E6
:100610002800E000040004000400E2002C000000B8
:10062000040004000400500051004F0001000100CC
:1006300001000100010001000100010001000100B2
:1006400001002F004C0039000100010001000100F1
:100650000100010001000100010001000100010092
:100660000100010001000100010001000100010082
:10067000010037000100010001000100010001003C
:100680000100010001000000010001000100010063
:100690000100010001000100010001000100010052
:1006A0000100010001000100010001000100010042
:1006B0000100010001000100010001000100010032
:1006C0000100010001000100010001000100010022
:1006D0000100010001000100010001000100010012
:1006E0000100010001000100010001000100000003
:1006F00001000100010001000100010001000100F2
:1007000001000100010001000100010001000100E1
:1007100001000100010001000100010001000100D1
:1007200001000100010001000100010001000100C1
:1007300001000100010001000100010001000100B1
:1007400001000100010001000100010001000100A1
:100750000100010001000000010001000100010092
:1007600001000100687474703A2F2F3175706B6549
:1007700079626F617264732E636F6D007267626C71
:10078000696768742064697361626C65205B4545C4
:1007900050524F4D5D3A207267626C696768745FB2
:1007A000636F6E6669672E656E61626C65203D20C1
:1007B00025750A007267626C6967687420656E61EE
:1007C000626C65205B454550524F4D5D3A20726723
:1007D000626C696768745F636F6E6669672E656EC9
:1007E00061626C65203D2025750A007267626C6944
:1007F00067687420746F67676C65205B454550526D
:100800004F4D5D3A207267626C696768745F636F11
:100810006E6669672E656E61626C65203D20257588
:100820000A0044454255473A2064697361626C6529
:10083000642E0A0044454255473A20656E61626C59
:1008400065642E0A006164645F6B65795F62697438
:100850003A2063616E2774206164643A2025303247
:10086000580A0064656C5F6B65795F6269743A2051
:1008700063616E27742064656C3A20253032580A13
:10088000004F6E6573686F743A20616374697665B2
:100890003A2025640A000A002530325820006B6592
:1008A00079626F6172645F7265706F72743A200072
:1008B0007267626C696768745F636F6E6669672EE2
:1008C0007370656564203D2025640A007267626C60
:1008D000696768745F636F6E6669672E76616C2006
:1008E0003D2025640A007267626C696768745F6303
:1008F0006F6E6669672E736174203D2025640A005F
:100900007267626C696768745F636F6E6669672E91
:10091000687565203D2025640A007267686C696708
:1009200068745F636F6E6669672E6D6F6465203DE6
:100930002025640A007267626C696768745F636F80
:100940006E6669672E656E61626C65203D20256468
:100950000A007267626C696768745F636F6E6669CC
:100960006720454550524F4D3A0A007267626C69E4
:100970006768745F696E6974207267626C69676822
:10098000745F636F6E6669672E6D6F6465203D20CE
:10099000302E2057726974652064656661756C74C9
:1009A0002076616C75657320746F20454550524FF9
:1009B0004D2E0A007267626C696768745F696E69C0
:1009C00074206565636F6E666967206973206E6F5A
:1009D0007420656E61626C65642E0A007267626CD9
:1009E000696768745F696E697420737461727421D9
:1009F0000A007267626C696768745F696E69742067
:100A000063616C6C65642E0A000A00253031366221
:100A1000003A200025303258000A722F632030310E
:100A200032333435363738394142434445460A007B
:100A30001E0F0500047F3F1F643214643214783C9B
:100A40001E1E140A050A0025303258006B657962B3
:100A50006F6172645F7365745F6C65643A200072E5
:100A600067626C696768742064697361626C652091
:100A70005B4E4F454550524F4D5D3A207267626C58
:100A8000696768745F636F6E6669672E656E616221
:100A90006C65203D2025750A007267626C69676885
:100AA0007420656E61626C65205B4E4F4545505207
:100AB0004F4D5D3A207267626C696768745F636F5F
:100AC0006E6669672E656E61626C65203D202575D6
:100AD0000A007267626C69676874207365742073BA
:100AE00070656564205B4E4F454550524F4D5D3AF1
:100AF0002025750A005B735D004B6579626F61723A
:100B0000642073746172742E0A005B435D005B4461
:100B10005D005B535D005B575D005B525D00090249
:100B20007B00040100A0FA09040000010301010098
:100B30000921110100012240000705810308000A74
:100B40000904010002030000000921110100012233
:100B5000220007058203200001070503032000018E
:100B60000904020001030000000921110100012213
:100B7000B6000705840320000A09040300020300ED
:100B80000000092111010001222200070585032030
:100B900000010705050320000112011001000000FB
:100BA000084B411200010001020001100341006CDA
:100BB000006900630065003500310000000A034C45
:100BC00000650041004B00000004030904001124EB
:100BD0001FBECFEFDAE0DEBFCDBF04B603FE27C0F5
:100BE0008091C1029091C202A091C302B091C4024F
:100BF0008730904BA740B04BD1F41092C1021092B5
:100C0000C2021092C3021092C40214BE84B7877F3E
:100C100084BF0FB6F894A895809160008861809396
:100C20006000109260000FBEE0E0F8E3099522E05A
:100C3000AEEAB1E001C01D92A13CB207E1F711E0BC
:100C4000A0E0B1E0E0E0F0E602C005900D92AE3A1F
:100C5000B107D9F70E94D2260C94C72F0C9400003C
:100C6000FF93EF93E091AE01F091AF01309709F05F
:100C70000995EF91FF910895FC018591803011F065
:100C8000EFDFFBCF0895FF27E0E230E247FF0CC023
:100C9000419597FF09C0EDE260957095809590951C
:100CA000611D711D811D911D27FF02C0219530E33B
:100CB00050E2AA27660F771F881F991FAA1FA41743
:100CC00010F0A41B63955A95A9F7AA3008F0A95F04
:100CD000A05DAF93F395611571058105910541F70D
:100CE000ED3211F4EF93F395F21718F43F93F39567
:100CF000FBCF8F91B5DFFA95E1F70895E991F9916E
:100D00008591803021F0853219F0AADFF9CF08955E
:100D100020E0E89455915532C1F3503311F46894B2
:100D200055915A3348F4505390F3220F022E220F5C
:100D3000220F200D250FF4CF0EF421958991999162
:100D4000533619F3533729F1533559F1BC0188272C
:100D50009927E8945C3621F489919991689455918A
:100D6000543639F446EF7EF077FF0DC08FEF9FEFDA
:100D70000AC055374AE039F0583540E121F0523683
:100D800042E009F00895FF93EF937DDFEF91FF912B
:100D9000B7CFFF93EF93FC0181918030B9F360DF0F
:100DA000FBCFFF93EF9368DFF1CFDF93CF93CDB706
:100DB000DEB72596A3DFCF91DF910895E8EDF0E04F
:100DC00080818E7F80831092E2001092DA00109270
:100DD000E100A0EEB0E08C9181608C9380818F77F0
:100DE000808319BCA7EDB0E08C918E7F8C938081BD
:100DF0008F7E808310928B0208952091E4003091C1
:100E0000E50095E6A9012091EC00822F817020FF7A
:100E100006C08091E80080FF06C080E00895209120
:100E2000E80022FD1AC08091B002882389F0853045
:100E300089F08091EB0085FD0FC02091E400309196
:100E4000E50042175307F9F29150E1F684E0089566
:100E500082E0089583E0089581E00895EF92FF9283
:100E60000F931F93CF937C018B010E94FD06C82F27
:100E7000811117C08091E80085FD0BC08091E800CA
:100E80008E778093E8000E94FD06882399F3C82F8F
:100E900008C0F70181917F018093F1000150110991
:100EA00049F78C2FCF911F910F91FF90EF900895EC
:100EB0008091B20287FF13C08091E80082FF06C0D4
:100EC0008091E8008B778093E80004C08091B002A5
:100ED0008111F2CF08958091B0028823D9F38091D7
:100EE000E80080FFF8CF8091E8008E77ECCF982F54
:100EF0009093E900242F762F50E0891731F07091FC
:100F0000EC002091ED005091F00021FD07C09F5FA3
:100F1000973071F78093E90081E008953091EB00FC
:100F20003E7F3093EB003091ED003D7F3093ED003C
:100F30003091EB0031603093EB007093EC00209324
:100F4000ED005093F0002091EE0027FDE0CF80E00F
:100F50000895CF92DF92EF92FF920F931F93CF935A
:100F6000DF93C8EDD0E088818F7E8883E7EDF0E0E5
:100F700080818160808384E082BF81E080938B02E6
:100F800088818E7F888302EE10E0F8011082109233
:100F9000DA0081EEC82ED12CF601108288818F777D
:100FA000888388818068888388818F7D888319BC45
:100FB0001092B0021092B1021092AF021092AE02E3
:100FC00090EEE92EF12CF70180818B7F8083888160
:100FD0008160888342E060E080E00E947707F6014C
:100FE00080818E7F8083F801808181608083808111
:100FF00088608083F70180818E7F80838881806113
:101000008883DF91CF911F910F91FF90EF90DF9038
:10101000CF900895FC018091B8029091B902861793
:101020009707A0F06115710529F49091E8009E776B
:101030009093E80090E06115710551F4911108C09A
:101040008091E80082FF34C080E00895BC01F2CFB7
:101050008091B0028823C1F18530C1F18091E80010
:1010600083FD30C08091E80082FDEACF8091E800E6
:1010700080FFE1CF8091F3002091F200382F6115BD
:10108000710519F02830310558F091E0283031050C
:1010900009F090E02091E8002E772093E800CBCF74
:1010A00081918093F100615071092F5F3F4FE7CF2D
:1010B0008091B002882341F0853041F08091E800B2
:1010C00083FFBECF81E0089582E0089583E0089514
:1010D000089580918D02089587E797E7909301081E
:1010E0008093000888E19AE00FB6F894A895809361
:1010F00060000FBE90936000FFCF9C014FB7F89443
:101100008091850290918602A0918702B091880219
:101110004FBF821B930B08952FB7F89480918502DF
:1011200090918602A0918702B09188022FBF089506
:101130008091430281111092430208952DE0929F05
:10114000800D1124982F977086958695869525E0B9
:10115000829FF0011124E45EFD4F50E040E080E00A
:10116000219130E0092E02C0369527950A94E2F7C6
:1011700021703327042E01C0220F0A94EAF7822B34
:101180004F5F5F4F4530510559F708952DE0929F0D
:10119000800D1124982F977041E001C0440F9A955B
:1011A000EAF786958695869595E0899FF00111244A
:1011B000E45EFD4F90E080E070E05191DF01119717
:1011C0009B01082E02C0369527950A94E2F72170FC
:1011D00021952527242325272C93019685309105D9
:1011E00061F7089580911B029091EA01981301C064
:1011F00008958F5F8770FACF2091E0013091E1016F
:101200002817390771F09093E1018093E001E09194
:101210005402F0915502309721F00084F185E02DC1
:10122000099408952091DE013091DF0128173907D4
:1012300071F09093DF018093DE01E0915402F09110
:101240005502309721F00680F781E02D099408952A
:10125000E0915402F0915502309721F00190F08115
:10126000E02D099480E00895FA01811101C0FB018D
:10127000099480917802982F9E7F29F48170826072
:101280008093780208958635E8F381708465F8CFFD
:10129000AF92BF92DF92EF92FF920F931F93CF9383
:1012A000DF93082F162FE901E42FF0E0E052FD4F05
:1012B000611110C0E4915E2F4E2F4983E8835A8359
:1012C000DF91CF911F910F91FF90EF90DF90BF9032
:1012D000AF900895E62EF12C4491D42EE42FF0E047
:1012E00026E0829FC00111242FEF30E0B9010E9457
:1012F0006F2E802F90E0880F991F55E5569FD001E3
:10130000579FB00D11248A1B9B0B982F990F890FA3
:101310005901AE18BF08AE9ED001AF9EB00DBE9E63
:10132000B00D11245B2F189F80011124012F11276C
:101330005901A01AB10AAE9E8001AF9E100DBE9E4B
:10134000100D11245901A81AB108AE9CC001AF9C20
:10135000900DBE9C900D1124892F9927281B390BC5
:101360002E9FC0012F9F900D3E9F900D1124E92FBD
:1013700062307105A1F050F46115710509F49DCF3B
:101380006130710581F0EB2F512F97CF64307105DB
:1013900069F080F06630710509F48FCFF4CFE42F47
:1013A0004B2F592F8ACFE42F412F87CFEB2F542F6C
:1013B000492F83CF4B2F5D2DE12F7FCF40916A02C4
:1013C000803F59F480916B0287FF0DC010926B0231
:1013D00041110BC01092650208C0813F81F48091D9
:1013E0006B0218169CF3442381F080916C0290915B
:1013F0006D02892B09F05AC0109262020895823F53
:1014000049F447FFF0CF10926A0280916B0281117C
:10141000ECCFE0CF833F19F41416ACF3E4CF9091F6
:101420006C02893F29F41916F4F610926C02DBCF96
:101430008A3F19F497FFD7CFF8CF90916D028B3F79
:1014400029F497FFD0CF10926D02CDCF8C3F19F4C5
:101450001916CCF3C8CF9CE0980F953090F4845FB8
:10146000990B21E030E0B90102C0660F771F8A9521
:10147000E2F7CB01809590916902892380936902FC
:10148000B2CF8D3F31F48091E3018E7F8093E301F1
:10149000AACF8E3F21F48091E3018D7FF7CF8F3F5C
:1014A00009F0A1CF8091E3018B7FF0CF0895809167
:1014B000E30180FD16C081FD16C082FD16C080913B
:1014C00062028823A1F0883280F428E0829FC00164
:1014D000112468E270E00E94832E862F672B39F07A
:1014E000089582E0089584E0089588E0089581E0F9
:1014F00008958091E30180FD14C081FD14C082FD38
:1015000016C080916502882381F0843180F422E343
:10151000829FC001112464E170E00E94832E862F17
:1015200008958CE0089589E1089585E0089582E3A7
:101530000895803F31F40E94790A819580936B026F
:101540000895813F19F40E94790AF8CF823F31F45F
:101550000E94790A819580936A020895833F19F465
:101560000E94790AF8CF893F29F40E94570A809394
:101570006C0208958A3F21F40E94570A8195F7CFA3
:101580008B3F31F40E94570A819580936D02089534
:101590008C3F19F40E94570AF8CF9CE0980F9530C1
:1015A00070F4845F990B21E030E001C0220F8A952E
:1015B000EAF780916902822B8093690208958D3F3A
:1015C00031F48091E30181608093E30108958E3FBF
:1015D00021F48091E3018260F7CF8F3FB9F78091CA
:1015E000E3018460F1CFF894E82FE295EF70F0E02A
:1015F00031A1282F2F7081E090E001C0880F2A953B
:10160000EAF7982F9095932391A392A1892B82A317
:10161000789408959091490292FF06C0282F28716E
:101620002830F9F4877F846093FF06C0282F287143
:101630002831F1F4877E846120914A0220FF06C0A0
:10164000382F38713830D9F4877F816021FF06C088
:10165000282F28712831D1F4877E816194FD877EFF
:101660000895282F24712430F9F68B7F8860DCCF11
:10167000282F2471243101F78B7E8861DDCF382F2C
:101680003171313019F78E7F8860E0CF282F2171BA
:10169000213121F78E7E8861E1CF829590E09C0117
:1016A000220F331F220F331F2C7C9595879595951C
:1016B00087958373282B30E0C901880F991F8A7A98
:1016C000359527952575822B0895CF9384E090E07A
:1016D0000E941C2FC82F82E290E00E941C2F982F9E
:1016E0008C2FCF9108950F931F93CF93DF93C42F27
:1016F000D0E0CC0FDD1F2AE1629FC00DD11D112467
:1017000038E6839FC00DD11D1124CE0187960E941B
:101710001C2F082F10E0102F0027CE0188960E9462
:101720001C2F9801282BC901DF91CF911F910F9198
:101730000895462F843038F4743028F46D3018F44E
:10174000672F0C94730B90E080E00895CF93DF93A4
:101750000E94990BEC0182389105A9F1D8F58133EB
:10176000910509F496C048F58932910509F48AC0BB
:101770008A9709F495C0C11521E5D20708F0BCC0CD
:10178000C11530E5D30708F014C1C83ED10508F0F3
:101790009CC0C03ED10560F5C83AD10508F087C0AD
:1017A000C53AD10508F0FDC0C130D10509F1209737
:1017B000F9F0C430D105E0F440C08533910509F457
:1017C0005AC0C997C1F680914902837089F0C0EE72
:1017D000D0E00EC0833E910599F170F4803E9105F2
:1017E00001F1823E910539F68091490282FD21C0C6
:1017F000CE01DF91CF910895863E910561F1873E3C
:10180000910571F1843E910509F0B5CF80914A02AE
:1018100081FFEECF80914902C7EED0E084FD0DC07C
:10182000E7CF8091490280FD12C190914A0290FF5A
:10183000DFCFC3EED0E084FFDBCFD0E0C0E0D8CF75
:101840008091490282FD06C190914A0290FDBFCF6E
:1018500084FFCECFF2CF8091490283FDDDCFC8CF88
:101860008091490283FDF9C090914A0291FFF0CF27
:10187000C4EED0E0BDCF8091490285FFB9CFC9E267
:10188000D0E0B6CF8091490285FFB2CFC5E3D0E06A
:10189000AFCF8091490286FFABCFCAE2D0E0A8CF9C
:1018A0008091490286FFA4CFC1E3D0E0A1CFCF3B16
:1018B000D10518F6C85AD0E0CC0FDD1FC55BDE4F4E
:1018C0000990D881C02DD46493CFC11540E2D407CC
:1018D00058F4C11581E0D80708F08ACFC03FD10580
:1018E00008F4ABCFD06584CFC11590E4D90708F4D4
:1018F000A4CFDF70D06A7CCFC11525E5D20700F5F3
:10190000C11534E5D30708F08AC0C11543E5D407F3
:1019100008F071C0C11582E5D80708F467C0CE0190
:101920008370992721E030E002C0220F331F8A958F
:10193000E2F7C695C69580E2C89FE001112452C027
:10194000C11599E5D907A8F4C11528E5D20708F013
:101950006BC0C11536E5D30708F06FCF8C2F0E94FE
:101960000A0BC82FD0E0DC2FCC27CC27DF71D06248
:101970003FCFC1154AE5D40708F45BC0CE019056AD
:101980008115904208F059CF8D2F8F710E940A0B5C
:1019900090E0982F882788279F719C012C2BE901C4
:1019A000E6CFC55AD0E0C85BDE4FC881D0E0D06436
:1019B0001FCFCE01E4E096958795EA95E1F7837015
:1019C0002C2F26952695237040E2249F9001112408
:1019D000382B8C2F8370C1E0D0E002C0CC0FDD1F0C
:1019E0008A95E2F7C22BD32BDC6802CFDC2FCC2701
:1019F000C16FD06AFDCECE018370992721E030E01F
:101A000002C0220F331F8A95E2F7C695C69590E271
:101A1000C99FE0011124C22BD32BDA68E9CEDC2F59
:101A2000CC27C46FD06AE4CEDC2FCC27C06FD06A3D
:101A3000DFCE8C2F8F700E940A0B34E0D695C795AD
:101A40003A95E1F7CF709C2FEC01D069D1CEC9E374
:101A5000D0E0CECEC2EED0E0CBCEC6EED0E0C8CE47
:101A6000BF92CF92DF92EF92FF920F931F93CF938B
:101A7000DF938C01C090BD02D090BE02E090BF0207
:101A8000F090C0028091440290914502A0914602DC
:101A9000B0914702C82AD92AEA2AFB2ACFE1D0E02E
:101AA000BC2ED701C6010C2E04C0B695A7959795FC
:101AB00087950A94D2F780FD0EC0219788F7B12C44
:101AC0008B2DDF91CF911F910F91FF90EF90DF90C1
:101AD000CF90BF900895B8018C2F0E94A60B01975C
:101AE00061F3EECFCF93DF93EC010E94300DBE0186
:101AF000DF91CF910C94A60B0E94720D292F2F70AD
:101B000092959F7092509E3078F4E92FF0E0E75361
:101B1000F04D0C94972E803F19F020F4883E20F46D
:101B200081E00895843FE1F380E00895883EC0F3AA
:101B3000813FD1F7F5CF822F8695869586950895BA
:101B40006F927F928F929F92AF92BF92CF92DF92CD
:101B5000EF92FF920F931F93CF93DF9384ECC82EE5
:101B600085E0D82E99EAE92EF12CE701C856D10973
:101B700036011BC0F50185909490692DC8010E9423
:101B8000302F682DC80101960E94302F82E0A80EE8
:101B9000B11C0E5F1F4FC017D10761F78AE1680EB5
:101BA000711C6A96CE15DF0529F08E010A511109C4
:101BB0005301E0CF7E0188E6E80EF11C88E6C80EEE
:101BC000D11C89E4E81682E0F80679F6DF91CF911E
:101BD0001F910F91FF90EF90DF90CF90BF90AF904B
:101BE0009F908F907F906F900895CF93DF93C7EC75
:101BF000D1E060E0CE010E94302F2196C11584E033
:101C0000D807B9F7DF91CF910895EF92FF920F9324
:101C10001F93CF93DF938091420290914102892BD1
:101C200090914002892B8093B001909143029923B7
:101C3000B1F0892B8093B00180911C01882309F4B5
:101C40005DC08091490287FF59C08EE1E2EBF1E06F
:101C500090E0815008F054C091110E949808E091E2
:101C60005402F0915502309709F450C080911C0144
:101C7000882359F08091490287FF07C08091B00105
:101C80008093B10185E08093B0010280F381E02D63
:101C900080EB91E009958091770282FF37C080FF49
:101CA00004C08EE998E00E943C06C0EBD1E088EBCE
:101CB000E82E81E0F82E08E918E08091770280FF95
:101CC0000BC088811F928F931F930F930E94D5069C
:101CD0000F900F900F900F902196EC16FD0669F76C
:101CE0008091770280FF12C086E998E0DF91CF9162
:101CF0001F910F91FF90EF900C943C0686E0A6CFC9
:101D00002191222309F4A5CF9F5FA3CFDF91CF912B
:101D10001F910F91FF90EF900895882341F08095D7
:101D2000909142028923809342020C94050E0895FB
:101D3000882339F090914202982B909342020C94A0
:101D4000050E0895CF93DF93D82FC0914A02C2FBAE
:101D5000882780F98D17F9F0D0FBC2F9C0934A02A9
:101D60006091490284E090E00E94302F6C2F82E263
:101D700090E00E94302F8091770280FF0CC01F926C
:101D8000DF9381E898E09F938F930E94D5060F9090
:101D90000F900F900F90DF91CF91089590911C01BB
:101DA000992359F19091490297FF27C0E82FE695B2
:101DB000E695E695EE3180F4F0E0E055FE4F282FF1
:101DC000277081E090E001C0880F2A95EAF780959E
:101DD00092818923828308959091770290FF19C0A0
:101DE0001F928F9383E698E09F938F930E94D5066E
:101DF0000F900F900F900F900895E2EBF1E091910A
:101E0000891303C0DF0111971C9291E0E83BF907A9
:101E1000B1F7089590911C01992349F190914902DD
:101E200097FF25C0E82FE695E695E695EE3170F42C
:101E3000F0E0E055FE4F877021E030E001C0220F56
:101E40008A95EAF78281822B8283089590917702A6
:101E500090FF1EC01F928F9385E498E09F938F930D
:101E60000E94D5060F900F900F900F900895A2EB4F
:101E7000B1E0EFEF90E02D91821751F0EF3F19F4B0
:101E8000211101C0E92F9F5F9630A9F7EF3F09F4B8
:101E900008950E2E000CFF0BE055FE4FD5CF10928B
:101EA0005E028091770280FF08C08BEA94E09F93E6
:101EB0008F930E94D5060F900F900895809177021E
:101EC00083FF7EC08DEB92E00E943C068091690208
:101ED0001F928F9388EB92E09F938F930E94D50679
:101EE00086EB92E00E943C0680916A02282F082E21
:101EF000000C330B3F938F9383EB92E09F938F9370
:101F00000E94D50681EB92E00E943C0680916B0214
:101F1000282F082E000C330B3F938F938EEA92E00C
:101F20009F938F930E94D5068CEA92E00E943C0614
:101F300080916C02282F082E000C330B3F938F9357
:101F400089EA92E09F938F930E94D50687EA92E0F8
:101F50000E943C0680916D02282F082E000C330B46
:101F60003F938F9384EA92E09F938F930E94D506CC
:101F700081EA92E00E943C06809165021F928F9355
:101F80008EE992E09F938F930E94D5068CE992E0B0
:101F90000E943C068091E3011F928F9389E992E0B1
:101FA0009F938F930E94D50686E992E00E943C069B
:101FB0008DB79EB74C960FB6F8949EBF0FBE8DBFDF
:101FC0000E948C089C0190916A0280916B02982B70
:101FD00021F0309367022093660290916C02809109
:101FE0006D02982B21F03093640220936302E091FC
:101FF0005402F0915502309749F082E080936802D4
:102000000480F581E02D88E692E00994089590E03F
:1020100080E00E94120990E080E00E94FC0810928B
:102020004102109240020E94050E86E0E8E6F2E0CE
:10203000DF011D928A95E9F7109265021092620203
:102040001092E3010C945E0F6093BD027093BE0288
:102050008093BF029093C0020C9407100F931F93BC
:102060006091BD027091BE028091BF029091C0024A
:102070008B019C010670112722273327063011059A
:102080002105310529F468601F910F910C942410EB
:10209000677FFACF0F931F9341E050E060E070E05C
:1020A00004C0440F551F661F771F8A95D2F7CB01D6
:1020B000BA0160957095809590950091BD02109140
:1020C000BE022091BF023091C0026023712382239F
:1020D00093231F910F910C94241090913F028095AF
:1020E000892380933F02282F277039F4282F082E48
:1020F000000C330B9217130621F490914A0292FFC1
:1021000007C08595859585950E944A1010923F02DB
:1021100008950F931F9341E050E060E070E004C029
:10212000440F551F661F771F8A95D2F78091BD0215
:102130009091BE02A091BF02B091C0028A019B01A2
:10214000082B192B2A2B3B2BC901B8011F910F918A
:102150000C942410609344027093450280934602CD
:10216000909347020C940710882309F459C08238D1
:1021700071F40E94280981FF53C089E30E940A0F6D
:102180000E94050E89E30E94CE0E0C94050E833842
:1021900059F40E94280980FF43C083E50E940A0F7A
:1021A0000E94050E83E5EFCF843859F40E94280978
:1021B00082FF36C087E40E940A0F0E94050E87E462
:1021C000E2CF9CEF980F913AF0F290E2980F98309E
:1021D00088F4877021E030E0A90102C0440F551F48
:1021E0008A95E2F7CA0180959091420289238093F3
:1021F0004202CBCF9BE5980F933020F490E080E033
:102200000C94120998E5980F973120F490E080E043
:102210000C94FC08803F20F00E94DE090C945E0FB5
:1022200008959FB7F894109289029FBF9091B002D1
:10223000943009F048C02091E9002F703091EC00F3
:10224000932F917030FD90E8922B25E02093E900C8
:102250002091EB0020FF34C02091EE0027FF30C01A
:1022600020914802222321F02091E80025FF28C078
:102270001092480226E03091E80035FF14C08093A8
:10228000F1008091E80085FD27C08091E80080FF83
:10229000FCCF8091E8008E778093E8009F70909348
:1022A000E90080E008953091B002343049F4309173
:1022B000EB0035FD05C0215041F481E080934802D8
:1022C0009F709093E9008FEF0895EFE9FFE0319759
:1022D000F1F700C00000CFCF8FB7F89421E0209332
:1022E00089028FBFDBCFCF93DF9300D00F92CDB7A2
:1022F000DEB79091B002943011F589837B836A83B5
:102300009093E9008FEF9091E800815095FD06C011
:1023100095ED9A95F1F700008111F5CF8091E800D5
:1023200085FF0DC050E040E063E070E0CE01019613
:102330000E942E078091E8008E778093E8000F902E
:102340000F900F90DF91CF910895BC0184E00C9421
:102350007311BC0183E00C9473119C0184E08093A1
:10236000E9009FEF8091E800915085FD06C085ED62
:102370008A95F1F700009111F5CF8091E80085FF73
:102380000CC050E040E066E070E0C9010E942E07FA
:102390008091E8008E778093E8000895CF93DF93D3
:1023A000EC0180911C018823B1F18091490287FFE3
:1023B00032C060E284E08093E9008FEF9091E80002
:1023C000815095FD06C095ED9A95F1F700008111B9
:1023D000F5CF8091E80085FF1BC080911C0170E063
:1023E00050E040E0811104C050E040E068E070E05F
:1023F000CE010E942E078091E8008E778093E8003E
:1024000080E2FE01AEE8B2E001900D928A95E1F71C
:10241000DF91CF91089568E081E0CDCFCF93C82FB1
:10242000882309F4AEC08238C1F40E94280981FDD6
:10243000A8C089E30E940A0F0E94050E2FEF81EECB
:1024400094E0215080409040E1F700C0000089E313
:102450000E94CE0ECF910C94050E8338A1F40E94F9
:10246000280980FD8EC083E50E940A0F0E94050E98
:102470002FEF81EE94E0215080409040E1F700C0C2
:10248000000083E5E5CF8438A1F40E94280982FD8D
:1024900078C087E40E940A0F0E94050E2FEF81EE9C
:1024A00094E0215080409040E1F700C0000087E4B4
:1024B000CFCF8CEF8C0F813A88F580911C01882357
:1024C00001F18091490287FF1CC0EC2FE695E6954B
:1024D000E695F0E0E055FE4F828190E04C2F47708A
:1024E00021E030E002C0220F331F4A95E2F7822339
:1024F0009323892B79F08C2F0E94CE0E0E94050E1B
:1025000009C0E2EBF1E08191C817A9F321E0E83BB3
:10251000F207C9F78C2F0E940A0F9CCF80E28C0F24
:10252000883068F4C77021E030E001C0220FCA95FE
:10253000EAF780914202822B809342028BCFEBE537
:10254000EC0FE33040F4F0E0E85BFE4F808190E078
:10255000CF910C941209E8E5EC0FE73150F4F0E06C
:10256000EE0FFF1FE55BFE4F80819181CF910C94B0
:10257000FC08C03F30F08C2F0E94990ACF910C9438
:102580005E0FCF9108951F93CF93DF93182FD0E064
:10259000C0E0893311F4C0E5D0E0812F0E940E1213
:1025A000209731F4812FDF91CF911F910C94B410BB
:1025B0008FE99FE00197F1F700C000002197F0CF6D
:1025C0000F931F93CF93DF93C62FD42F022FFC01BD
:1025D00082818823A1F06093BC020E948C089093B2
:1025E000BB028093BA02C77081E001C0880FCA9510
:1025F000EAF7DF91CF911F910F910C94980E809183
:10260000BC02681335C08091BA029091BB020E944F
:102610007D08883C910560F510E21D0FCD17B9F0DB
:1026200080E28C0F883040F4C77081E001C0880FD1
:10263000CA95EAF70E948D0E183048F481E09D2F6C
:10264000977001C0880F9A95EAF70E94980E802F24
:102650000E94C312183098F4D77081E001C0880F2F
:10266000DA95EAF7DF91CF911F910F910C948D0EBF
:10267000C77081E001C0880FCA95EAF7F3CFDF91F8
:10268000CF911F910F910895DF92EF92FF920F93D8
:102690001F93CF93DF93E82FF0E0EA5EFD4FD490D5
:1026A000282F26952695269530E0F901EA5FFD4F03
:1026B0000491877010E0082E02C0159507950A94C2
:1026C000E2F701701127F901EA50FE4FE490F12C76
:1026D000082E02C0F594E7940A94E2F791E0E9220B
:1026E000FF24F901EA51FE4FC491D0E002C0D59514
:1026F000C7958A95E2F7C170DD270115110519F01C
:1027000081EE0E940E12E114F10419F086EE0E948F
:102710000E128D2D0E94C312EF2819F086EE0E9432
:10272000B410012B19F081EE0E94B410CD2B51F0A2
:102730008CE2DF91CF911F910F91FF90EF90DF908E
:102740000C94C312DF91CF911F910F91FF90EF90E6
:10275000DF9008958091780280FF27C0849A31B37A
:102760003F7E21B320614FB7F89486ED91E0FC01E4
:102770005191CF0168E021BB000000C057FF31BB81
:10278000550F000000C000C000C031BB00C06A95FA
:1027900091F7F1E0893D9F0751F74FBF8FE594E036
:1027A0000197F1F700C0000008951092D701109230
:1027B000D6011092D801D2CFCF93DF93EC0126ED52
:1027C00031E040917B0260917A028C810E9448093D
:1027D0000E94AA139A818C8190FF05C08F5F8C8321
:1027E000DF91CF9108958150FACF0F931F93CF932C
:1027F000DF93FC0182811FEF80FF11E01092D7016F
:102800001092D6011092D801C4E0D0E000E080918F
:10281000D301800F823024F487FD8F5F811113C0B4
:1028200080917B028C9FA0018D9F500D11245595A6
:1028300047955595479526ED31E060917A02809154
:1028400079020E944809010F219709F70E94AA13F3
:10285000113061F48091D301882319F08150809365
:10286000D301DF91CF911F910F9108951092D30161
:10287000F8CF1092D7011092D6011092D801809112
:10288000D401181674F08091100187FD0AC026ED5E
:1028900031E040917B0260917A02809179020E943E
:1028A00048090E94AA1380910F019091D401980FBA
:1028B0009093D40120911001280F2093100112163B
:1028C00014F497FD03C0819580930F0108958F92B2
:1028D0009F92AF92BF92CF92DF92EF92FF92CF93EF
:1028E000DF93EC014C81E42EF12C9701D7010E947B
:1028F000B82F9B01AC010E94832F4B015C01E0E2E9
:10290000F0E0EE19FF09A5E5B0E0AC019B010E94E3
:10291000832F6B017C019F01DF010E94A42E9B018C
:10292000AC010E948E2F9B01AC01280D391D4A1D60
:102930005B1DC701B6010E94962F922F30E09A329C
:1029400048F563E0969FA001112455954795409561
:1029500026ED31E060917A0285E5891B0E944809E5
:102960000E94AA139C8181E0992319F0903219F4F6
:102970008FEF8093110180911101890F8C83DF917A
:10298000CF91FF90EF90DF90CF90BF90AF909F904E
:102990008F90089545E550E0BA01621B730B9B01CF
:1029A000AB01440F551F420F531F57FFCECF4F5F50
:1029B0005F4FCBCFCF93DF93EC0180917902609191
:1029C0007A029C8126ED31E040E0911102C04091F5
:1029D0007B020E9448090E94AA138C8190E0019614
:1029E000817099278C83DF91CF910895909178021F
:1029F00090FF08C08093D7016093D6014093D8011F
:102A00000C94AA1308950F931F93CF93DF9300D0D4
:102A10000F92CDB7DEB78C018091D50181110AC02C
:102A20009E012F5F3F4F4FEF6FEF0E9448098A8151
:102A30008093D501F8016481613069F08091D501FE
:102A400040E0662361F040E0623011F44091D5012E
:102A500080E060E004C06091D50140E080E00E9429
:102A6000F614F801848190E0019663E070E00E9422
:102A7000832E84830F900F900F90DF91CF911F9141
:102A80000F910895CF93DF9300D00F92CDB7DEB7AB
:102A90009091780290FF0AC09E012F5F3F4F0E94E5
:102AA00048094B8169818A810E94F6140F900F902A
:102AB0000F90DF91CF910895CF93DF93EC01EC81DC
:102AC000F0E0EC53FB4F4491E8E7F2E06281818152
:102AD0000E9442158C818F5F8C83DF91CF91089586
:102AE000CF93DF93EC01E8E7F2E0438162818C81D0
:102AF0000E9442158C818F5F8C83DF91CF91089566
:102B0000AF92BF92DF92EF92FF920F931F93CF93FA
:102B1000DF93C9E7D1E00BE412E0D12CEE24E3947B
:102B2000F12C8991F894E82FE295EF70F0E021A163
:102B30008F70A70102C0440F551F8A95E2F7CA01A2
:102B4000922F982B91A392A18095892382A37894A8
:102B500000C0EDE7F1E030E020E0B12CA12C419184
:102B6000A42FA295AF70B0E090968C9190E04F703A
:102B700002C0959587954A95E2F780FD5EC0C70132
:102B8000022E02C0880F991F0A94E2F7A82AB92AD8
:102B90002F5F3F4F2D30310511F7FE0131978081B6
:102BA0000E94F30A50EA5A95F1F7F8018081918169
:102BB000A816B90609F444C0B182A08281E0D82ADF
:102BC0000E5F1F4FF1E0CD37DF0709F0AACFDD2000
:102BD000C9F181E08093D2010E948C089093D101C9
:102BE0008093D0018091D0019091D1010E947D0805
:102BF000069760F180914B0290914C0290937E0277
:102C000080937D0280914D0290914E0290938002BC
:102C100080937F0280914F029091500290938202A4
:102C2000809381028091510290915202909384028C
:102C3000809383021092D20109C090E080E0A6CF79
:102C400080E0BDCF8091D2018111CCCF8D2DDF915D
:102C5000CF911F910F91FF90EF90DF90BF90AF90B9
:102C60000895CF93FC01C281848191E09483E4ECC8
:102C7000F4E03491E3E4F5E02491C33040F4909122
:102C800079029093D90190917A029093DA0181119F
:102C900011C01092DC011092DB0126ED31E0409171
:102CA000DB016091DA018091D9010E944809CF913E
:102CB0000C94AA138091DC01882319F18150809330
:102CC000DC014FEF849FC00111246091DD0170E0B1
:102CD0000E946F2EFB01FF27EC53FB4F8491E82FDE
:102CE000E31BE49FC0011124231B622F70E00E94AC
:102CF0006F2E80917B02689FB00111247093DB01DD
:102D0000CCCF0E94FF2E20917B022695215862E0B5
:102D100071E0269FA001279F500D1124452F5527B4
:102D2000841795070CF0B9CFC330A0F00E94FF2E96
:102D30006FEF70E00E94832E8093D9010E94FF2ED6
:102D400020917A022695622F70E00E94832E280F30
:102D50002093DA011092DB0180917B02893C30F0F4
:102D600088EC8093DD018093DC0197CF8431C8F734
:102D700084E1F7CF6AEE7EEF90E080E00E944E2F74
:102D800060E082E090E00E94302F60E083E090E01D
:102D90000E94302F10924402109245021092460277
:102DA0001092470260E084E090E00E94302F60E0E3
:102DB00082E290E00E94302F60E085E090E00E9487
:102DC000302F60E086E090E00E94302F6FEF87E0C8
:102DD00090E00E94302F40E050E0BA0188E090E09F
:102DE0000E94422F60E08DE090E00E94302F40E092
:102DF00050E0BA0188E190E00E94422F60E087E154
:102E000090E00E94302F40E050E0BA018CE190E069
:102E10000E94422F70E060E080E290E00E944E2F1E
:102E200040E050E0BA0188E190E00E94422F40E08B
:102E300050E0BA018FE090E00E94422F40E050E065
:102E4000BA0183E190E00C94422FCF92DF92EF928F
:102E5000FF926B017C010E943909B701A60188E04D
:102E600090E0FF90EF90DF90CF900C94422FEF9284
:102E7000FF920F931F93CF93DF9300D00F92CDB7A4
:102E8000DEB7182FF62E042FE22E2091780220FFB5
:102E900046C0822F8695E82FF0E0E35EFE4F9081DA
:102EA00090935D022E7F223009F043C09E012F5F78
:102EB0003F4F812F0E9448094B8169818A810E947E
:102EC000F61410937902F0927A0200937B02EE20BE
:102ED00009F46AC0609178027091790280917A0257
:102EE00090917B020E9425178091770280FF17C086
:102EF00080917B021F928F9380917A021F928F9311
:102F0000809179021F928F938AE594E09F938F932B
:102F10000E94D5060FB6F894DEBF0FBECDBF0F904E
:102F20000F900F90DF91CF911F910F91FF90EF9035
:102F30000895923019F400917B02C3CF963019F4B2
:102F400010917902BECF9930D9F3993109F0B9CFF8
:102F50008951E82FE695F0E0EA55FB4F2591349131
:102F60009091770290FF16C033273F932F9380955F
:102F700081701F928F931F921F931F921F928FE752
:102F800094E09F938F930E94D5060FB6F894DEBF0E
:102F90000FBECDBF26ED31E0402F6F2D812F0E9457
:102FA00048090E94AA138DCF8091770280FFB7CF86
:102FB0001F920F931F92FF921F921F9383E394E03F
:102FC000A5CFE8E7F2E0438128E0421B08F440E0A7
:102FD00021E0628181810C943717E8E7F2E04381B8
:102FE00028E0420F08F44FEF21E0628181810C94C8
:102FF0003717E8E7F2E0628128E0621B08F460E03E
:1030000021E0438181810C943717E8E7F2E0628187
:1030100028E0620F08F46FEF21E0438181810C9476
:103020003717E8E7F2E0818121E04381628188502F
:103030000C943717E8E7F2E0818121E04381628157
:10304000885F0C94371780917C02882319F0815097
:1030500080937C02609178027091790280917A026B
:1030600090917B020C94251780917C02833018F498
:103070008F5F80937C0260917802709179028091D9
:103080007A0290917B020C942517E8E7F2E083E046
:10309000808311828FEF82838383148260817181A8
:1030A000828193810C9425171092420280911C0119
:1030B000E2EBF1E0882359F08091490287FF07C0D5
:1030C0008EE1DF011D928A95E9F70C94071086E0E6
:1030D000F8CF1F93CF93DF93CDB7DEB7AA970FB684
:1030E000F894DEBF0FBECDBF82EB92E02091F100DD
:1030F000DC012D93CD01B2E08A3B9B07B9F78091AB
:10310000B302833009F471C0B8F4813009F448C0C7
:10311000823009F4B2C08091E80083FF3AC1809107
:10312000B2029091B3029A3008F033C1E92FF0E077
:10313000E952F04D0C94972E8A3009F48DC08B30F3
:1031400009F470C0893039F78091B202813219F7E1
:103150008091B6029091B702009711F00297D9F6CC
:103160008091E800877F8093E8008091E80082FFEB
:1031700037C09091F3008091F200029729F480917A
:10318000F1008B7F813021F48091F10080938D02DA
:103190008091E8008B778093E8000E945807BBCFAE
:1031A0008091B202813A09F0B6CF8091E800877F22
:1031B0008093E8008091B6029091B702892B61F468
:1031C00060E28EE892E070E00E940A088091E800D8
:1031D0008B778093E8009FCF60E090E080E0F3CFB2
:1031E0008091B0028111C1CF96CF8091B202813A15
:1031F00009F091CF8091B6029091B702892B09F026
:103200008ACF8091E800877F8093E8008091E80072
:1032100080FFFCCF80911C018093F1008091E80039
:103220008E77B9CF8091B202813209F074CF80914C
:10323000B6029091B702892B09F06DCF8091E8001A
:10324000877F8093E8000E9458078091B4028093A2
:103250001C010E9454185FCF8091B202813209F0A4
:103260005ACF8091E800877F8093E8000E9458073A
:103270008091B50280938C024ECF8091B202813A48
:1032800009F049CF8091E800877F8093E800809122
:10329000E80080FFFCCF80918C02BECF803899F08F
:1032A000823809F076C08091B6028F70873008F0BE
:1032B00070C08093E9008091EB0085FB882780F93E
:1032C0001092E90006C08091AE029091AF02911178
:1032D00082609091E800977F9093E8008093F100DE
:1032E0001092F1008091E8008E77BAC1882309F42A
:1032F000A7C1823009F04DC08091B4028111ABC1E9
:103300008091B6028F702FEF280F263008F041C051
:103310008093E9002091EB0020FF9DC1933031F4B0
:103320008091EB0080628093EB0095C19091EB005F
:1033300090619093EB0021E030E001C0220F8A956C
:10334000EAF72093EA001092EA008091EB0088608F
:10335000EACF81111EC01091B4021F778091E30063
:103360008078812B8093E3008091E800877F8093B1
:10337000E8000E9458078091E80080FFFCCF809110
:10338000E30080688093E30082E0111183E0809382
:10339000B0028091E80083FF0AC08091E800877F37
:1033A0008093E8008091EB0080628093EB00AA9606
:1033B0000FB6F894DEBF0FBECDBFDF91CF911F9146
:1033C00008958058823028F72091B4023091B502D8
:1033D0002C3DE3E03E07A1F583E08A838AE28983FE
:1033E0004FB7F894DE01139620E03EE051E2E32F60
:1033F000F0E050935700E49120FF03C0E295EF7096
:103400003F5FEF708E2F90E0EA30C0F0C7968D934B
:103410009D932F5F243159F74FBF8091E800877F3C
:103420008093E8006AE270E0CE0101960E940A08EB
:103430008091E8008B778093E800ABCFC096E7CF10
:103440008091B6029091B702432F55274330510522
:1034500009F44AC078F54130510509F47AC08BE788
:1034600090E0EEE1FBE04230510509F092CF20916F
:10347000E800277F2093E8002091B8023091B9023C
:103480008217930708F49C0140E02115310509F0EB
:1034900065C0411163C08091E80082FDC9CF809171
:1034A000B002882329F2853019F28091E80083FF69
:1034B000F2CFBECF4132510509F43CC04232510532
:1034C00009F067CF8430910508F063CFFC01EE0F5F
:1034D000FF1FE256FE4F0190F081E02D86569E4F71
:1034E000DC018C9190E01AC0332721303105D1F0F6
:1034F0002115310561F02230310509F04ACFEBEAA0
:10350000FBE0E4918E2F90E0EBEAFBE007C0E9ECF2
:10351000FBE0E4918E2F90E0E9ECFBE0009709F4EA
:1035200038CFA5CFEDEBFBE0E4918E2F90E0EDEBF3
:10353000FBE0F4CF8430910508F02BCF880F991F62
:10354000FC01EA55FE4F0190F081E02D89E090E00A
:103550008ECF82E190E0E9E9FBE089CF8091B00273
:10356000882309F465CF853009F462CF8091E800A3
:1035700083FD5ECF8091E80082FD8DCF8091E800D1
:1035800080FF83CF9091F3008091F20021153105E7
:1035900019F08830910550F041E0089709F040E0BB
:1035A0008091E8008E778093E8006FCF449140933C
:1035B000F1003196215031090196E8CF803809F0A9
:1035C000E8CE8091E800877F8093E8008091B10287
:1035D0008093F10087CE8111DCCE1091B4021230BD
:1035E00008F0D7CE8091E800877F8093E8001093A1
:1035F000B1020E945807112311F084E005C08091A8
:10360000E30087FDFACF81E08093B00242E061ECF5
:1036100081E00E94770742E261EC84E00E94770734
:1036200042E261EC82E00E94770742E260EC83E0D4
:103630000E94770742E261EC85E00E947707A9CEFD
:103640008091B402813009F0A4CE81E0933009F07A
:1036500080E08093AF021092E9008091E800877FBC
:103660008093E8000E94580794CE9091780290FFD2
:1036700068C0917081113CC092609093780266237B
:10368000F1F1609178027091790280917A029091C3
:103690007B020E9425178091770280FF0FC08091E6
:1036A000780286951F928F9387E194E09F938F9382
:1036B0000E94D5060F900F900F900F9060917802A6
:1036C000669570E04BE050E084E091E00E940F2F9F
:1036D000892B09F10E944F0F81E080935A0220E06C
:1036E00040917B0260917A02809179020C943717A5
:1036F0008B3210F09465C1CF880F982BBECF80918C
:10370000770280FFDBCF8091780286951F928F939E
:1037100089EF93E0CBCF81E080935E020E948C081A
:1037200090935802809357028091770280FFD4CF04
:1037300080EE93E09F938F930E94D5060F900F9099
:10374000CBCF0895809178028695815009F48AE262
:1037500061E00C94351B8091780286958F5F8B32E7
:1037600008F081E061E00C94351B9091780290FFA5
:1037700007C09695981720F0961710F40C94AB1B81
:1037800061E00C94351B4F925F926F927F928F9203
:103790009F92AF92BF92CF92DF92EF92FF920F93E0
:1037A0001F93CF93DF9300D000D00F92CDB7DEB739
:1037B0007C01FC0183819481892B31F0808191818E
:1037C00089238F3F09F018C60F900F900F900F902C
:1037D0000F90DF91CF911F910F91FF90EF90DF90AD
:1037E000CF90BF90AF909F908F907F906F905F90A1
:1037F0004F9008950E94300D182F682F89819A816B
:103800000E94C60869817A81812F0E94990B8C01E0
:10381000F7018281882309F4E4C5980122513F45CC
:103820002031310508F0AAC58FEF93E00E941C2FCC
:10383000025177ECC72EDD24D394882379F180914F
:103840003F02877009F4C0CFF7018281882309F411
:10385000BBCF82E00F900F900F900F900F90DF91F1
:10386000CF911F910F91FF90EF90DF90CF90BF907D
:10387000AF909F908F907F906F905F904F900C943F
:103880006D10C114F4E0DF06D1F2C6010E941C2FB6
:10389000811101C001502FEFC21AD20A0111F1CFDC
:1038A0001C821B82BB24B3946AE0A62E86010F5FA4
:1038B0001F4FC6010E941C2F89831A82882309F496
:1038C000BECF9FEF980F933008F58A83B98232E01C
:1038D000C30ED11CC8010E941C2F8B83882309F4BE
:1038E000AECF8E010F5F1F4FF80180818823F1F268
:1038F000813009F043C091818281913049F40E5F9B
:103900001F4F0E94C3120F5F1F4FEECF6801E9CF18
:10391000923029F40E5F1F4F0E940E12F4CF9330A5
:1039200029F40E5F1F4F0E94B410EDCF943019F0B0
:103930000F5F1F4FE8CF0E5F1F4F30E020E0B80150
:103940006F5F7F4FF80141818053990B8A30910559
:1039500050F021503109B8F28FE99FE00197F1F75B
:1039600000C00000F6CFA29EF001A39EF00D11242E
:103970009C012E0F3F1F842F8B01E1CF0E94441327
:10398000C2CF81E00E9489100E942E1058CF81E0A2
:103990000E944A10F9CF82E0F5CF823041F48601CF
:1039A0000E5F1F4FF80184910E940E1215C58330DF
:1039B00041F486010E5F1F4FF80184910E94B410FC
:1039C0000BC5843009F008C586010E5F1F4FF80152
:1039D000249190E080E0F80131962053330B2A3097
:1039E000310550F0019708F4F7C4EFE9FFE0319793
:1039F000F1F700C00000F6CFB89EA001B99E500DAF
:103A00001124C901840F951F24918F01E4CF0E94D6
:103A100044138601E1C4033F3CE5130709F46FC07A
:103A2000A8F4083DECE51E0709F465C0093DFCE576
:103A30001F0709F470C0073D2CE51207A9F426E220
:103A400041EE61EEC7010E94E012F9CE053F3CE570
:103A5000130709F45CC008F456C027E245EE66EE91
:103A6000063FECE51E0771F3882309F4D6C41092D3
:103A7000BC020230FCE51F0708F42EC106312CE51C
:103A8000120730F0C8018A5F9C45099708F024C1ED
:103A90000E94650B90934A028093490200313CE5F5
:103AA000130709F4E8C008F076C008309CE5190750
:103AB00009F4D7C008F045C00430FCE51F0709F43D
:103AC000C8C060F502303CE5130709F4B8C0033004
:103AD0001C4509F4BAC06091490210914A0284E081
:103AE00090E00E94302F612F82E290E00E94302F00
:103AF0000E945418A4CE27E245EE65EEA3CF26E23D
:103B000041EE60EE9FCF27E245EE64EE9BCF26E2CA
:103B100041EE62EE97CF28E241E0EFCF809149027B
:103B2000806106309CE5190709F48CC08091490238
:103B3000886007301C4508F485C080914902806286
:103B400081C0809149028D7F0C30FCE51F0709F48C
:103B500079C070F4809149028C600A303CE513070B
:103B600009F470C008F481C0809149028E7F6AC058
:103B700080914902877F0E309CE5190709F462C0E5
:103B8000809149028B7F0F301C4508F45BC0809107
:103B900049028F7E57C00B3FFCE51F0709F45DC04B
:103BA00030F503313CE5130709F46DC078F40131B9
:103BB0009CE5190709F463C002311C4509F08BCF5D
:103BC0000E945418809149028F773CC00531FCE572
:103BD0001F0709F460C008F474C080914A02816034
:103BE0000A3F1C4509F077CF80934A0274CF0F3FFC
:103BF0008CE5180709F44BC088F480914A028D7F48
:103C00000D3FECE51E0781F380914A028E7F0E3F47
:103C10001C4550F380914A028360E6CF01302DE5C8
:103C2000120709F457C008F442C060E002301D4595
:103C300009F051CF8EE090E00E94302F4CCF809160
:103C4000490281608093490246CF80914902826097
:103C5000F9CF809149028460F5CF80914A02826059
:103C6000C3CF809149028064EDCF0E9454188091A7
:103C700049028068E7CF809149028F7DE3CF809130
:103C800049028F7BDFCF80914902837FDBCF809118
:103C90004A028C7FA9CF8091490282FB992790F933
:103CA00021E0922790FB82F990FB83F9CBCF8091A2
:103CB0004A02982F909591708E7F892B90FB81F905
:103CC00093CF0E94541890914902892F97FB87F94E
:103CD0008058B8CF61E0AECF8091420206319CE5BA
:103CE000190709F0A5C38A7A91E009F490E090934E
:103CF000E201811106C089E20E940A0F0E94050EAE
:103D00009ECD85E3F9CF85E390C38091770280FF54
:103D100010C080917802809581701F928F938BEEF6
:103D200097E09F938F930E94D5060F900F900F906E
:103D30000F908091780280FF2EC08E7F8093780252
:103D4000609178027091790280917A0290917B0261
:103D50000E9425178091770280FF0FC08091780222
:103D600081701F928F938CE797E09F938F930E94AF
:103D7000D5060F900F900F900F900E944F0FEFEF0E
:103D8000F0E722E0E150F0402040E1F700C0000001
:103D90000E94AA1354CD81608093780280917702AB
:103DA00080FF0DC01F9281E08F9384EB97E09F937B
:103DB0008F930E94D5060F900F900F900F908091D7
:103DC000780261E086950E94351B39CD42EA5BE1BD
:103DD0006BEA7BE10E94340932CD4BEA5BE162EA97
:103DE0007BE1F8CF4AE158E161E178E1F3CF49EFB7
:103DF00057E165E078E1EECF41EE57E16DEE77E116
:103E0000E9CF4DEE57E161EE77E1E4CF44E358E1CD
:103E100063E278E1DFCF61E081E0D5CF65E082E069
:103E20000E94B51B0CCD68E086E0FACF64E18FE01C
:103E3000F7CF67E185E1F4CF62E289E1F1CF61E09C
:103E400083E2C1CF0B35FDE51F07B1F10C352DE540
:103E5000120741F10A351D4509F015C381E029C05B
:103E60000E9454188FEF94E3ECE081509040E040C2
:103E7000E1F700C000000E946C0890917702892F42
:103E80008E7F90FF81608093770280FF05C084E37E
:103E900098E00E943C06D3CC82E298E0FACF0E94E0
:103EA000BA16CDCC80914A0282FB882780F991E036
:103EB00089270E94A20EE7C280E0FBCFC8010E94C2
:103EC0009E08D82EEFC2212F2F70A22E107F19F03E
:103ED000A29490EFA922DD20C9F0AA2069F080E227
:103EE000800F883010F081100BC080914202A82A08
:103EF000A09242020E94050E802F0E940E1218C04E
:103F000080914102A82AA0924102F4CF802F0E9402
:103F1000B410AA2069F0A094005E083010F081105F
:103F20003BC080914202A822A09242020E94050E4C
:103F3000EB2DE850FF0B349710F40E942809CC2099
:103F400009F442CC80913F0280FD3ECCF701128201
:103F50008595859585950E948910C7010E94C31B90
:103F600080913F028595859585950F900F900F90D4
:103F70000F900F90DF91CF911F910F91FF90EF90D5
:103F8000DF90CF90BF90AF909F908F907F906F9079
:103F90005F904F900C944A1080914102A822A09209
:103FA0004102C4CF312F3F70932E107F103219F091
:103FB000929480EF9822882071F081E0881681F138
:103FC000DD20D9F1AA2091F1F701858180FF94CFFE
:103FD0008F7085832BC0DD20B1F090914302892D35
:103FE000892BA11003C00E94980EA2CFE1E0AE126F
:103FF000FACF20914A0222FD9BCF981709F498CF5F
:104000008093430295CFA11006C00E949808892D85
:104010000E948D0E8DCFF1E0AF1609F489CFF5CF58
:10402000DD2031F025E02A1508F482CF892DDBCF81
:1040300034E03A1508F47CCFEACFAA2041F3F9E343
:104040008F1295C12FEF37EE83E021503040804032
:10405000E1F700C000008BC1812F869586958370A3
:1040600061F0813009F064CFC8019370D11002C0B3
:1040700090E080E00E94FC085BCFC8019370D110F3
:1040800002C090E080E00E94120952CF802FDD2014
:1040900029F00E94990A0E945E0F4ACF0E94DE0911
:1040A000FACF812F837009F066C0D11041CF802FE5
:1040B000829586958770880F880F602F6F70462EC7
:1040C000512C712C612C082E04C0440C551C661C0C
:1040D000771C0A94D2F740E050E0BA0104FF0FC009
:1040E0004FE050E060E070E004C0440F551F661FD1
:1040F000771F8A95D2F74095509560957095812FDE
:10410000869586958370823019F1D8F40091440227
:10411000109145022091460230914702813069F0AA
:104120004429552966297729CB01BA0160237123D7
:10413000822393230E94AA10FBCE402A512A622A8E
:10414000732ACB01BA016429752986299729F2CFF0
:104150004429552966297729009144021091450286
:104160002091460230914702CB01BA0160277127A6
:1041700082279327DFCF8695DD2011F0812F817074
:10418000882309F4D5CE802F829586958770880F75
:10419000880F602F6F70462E512C712C612C082EC9
:1041A00004C0440C551C661C771C0A94D2F740E0EE
:1041B00050E0BA0104FF0FC04FE050E060E070E053
:1041C00004C0440F551F661F771F8A95D2F740958C
:1041D000509560957095812F869586958370823075
:1041E00019F1D8F40091BD021091BE022091BF02D6
:1041F0003091C002813069F0442955296629772918
:10420000CB01BA0160237123822393230E942410DF
:104210008FCE402A512A622A732ACB01BA0164291F
:10422000752986299729F2CF4429552966297729A6
:104230000091BD021091BE022091BF023091C002D8
:10424000CB01BA016027712782279327DFCF1F7028
:10425000DD2029F0812F0E948910802FC4CE802F6D
:104260000E948D0E812F0E944A1062CE802F92EF05
:10427000891609F454C0981578F0E0EF8E1639F1DC
:10428000F1EF8F1609F443C0DD2009F46BC0A110D3
:1042900033CE812F8F7140C023EF821609F444C0C2
:1042A00034EF8312F1CFDD2009F451C01F71812F4B
:1042B0000E94891080914A0282FD07C0E8E01E9F9B
:1042C000C0011124836080933F02812F25C0DD202F
:1042D000C9F084E08A1508F42BCE1F7161E070E00C
:1042E00080E090E004C0660F771F881F991F1A9521
:1042F000D2F70091BD021091BE022091BF02309111
:10430000C002A0CF95E09A1508F412CEE6CF812F17
:104310008F71DD2009F4A7CF0E94891009CE812F6B
:104320008F71DD20C9F39FCF60E070E0CB01DD200D
:1043300009F46CCF1F7161E070E080E090E004C090
:10434000660F771F881F991F1A95D2F75FCF81E0FC
:104350000E946D10F1E0FA1508F0EACD82E00E94AB
:104360006D10E6CDAA2039F0893309F46BCE802F89
:104370000E94B410DDCD812F8F7175CF0031FFE524
:104380001F0709F4FECA01312FE5120709F403CB18
:104390000E35EDE51E0709F03ECB882309F44FCA20
:1043A00044E6C42E47E0D42E5AE0B52EF60184919F
:1043B000882309F444CA813009F029CB86010F5FB4
:1043C0001F4FF8018491813009F0E7CA0F5F1F4F3A
:1043D000F80184910E94C31268012FEFC21AD20A19
:1043E000E5CF00313FE5130709F4D1CA01319FE55C
:1043F000190771F682E0CCCA85E0DE0111960190C2
:104400000D928A95E1F7F701228189819A81211124
:10441000F1C90E949E08182FF5C906311C4599F56F
:104420008091E20181116FCC89E20E94CE0E66CCB0
:1044300082720C3C2CE5120709F4E8CC08F098C015
:10444000063C9CE5190709F4CDCC08F06DC0033C8F
:10445000FCE51F0709F4BACC08F057C0023C3CE564
:10446000130709F452CC0E3D3CE5130709F417CDB0
:1044700008F0E8CC01159CE5190709F4F1CC0130EE
:104480001C4509F4FACCF70182810081118188234F
:1044900009F414CDC8010E94300DD82E682FC80130
:1044A0000E94C608B8018D2D0E94A60B8C01882E93
:1044B000F701D280A580A2943FE0A32280913F0221
:1044C0008770A1F0CD2CDD2091F0812F807F80348A
:1044D00021F080E2800F883048F082E00E946D1069
:1044E00080913F028770CC24C3948111C12CB12EDE
:1044F000B2942FE0B222FBE0FB1508F419CDEB2DAE
:10450000F0E0EF51F04D0C94972E043C9CE5190718
:1045100009F463CC41E158E16AE178E1053CECE55E
:104520001E0709F457CC9FCF093CFCE51F0709F48F
:1045300063CC78F4073C3CE5130709F458CC45E01C
:1045400058E169EF77E1083C9CE5190709F442CC92
:104550008ACF0A3CECE51E0709F453CC43E258E14C
:1045600064E378E10B3CFCE51F0709F433CC7BCF17
:10457000013D2CE5120709F459CCA0F40E3C8CE562
:10458000180709F44BCC08F446CC0F3CECE51E07A9
:1045900009F449CC6EE089E0003DFCE51F0709F411
:1045A0003FCC61CF043D2CE5120709F445CC68F4FB
:1045B000023D8CE5180709F43CCC61E088E1033D3D
:1045C0009CE5190709F4FFCB4ECF053DECE51E072E
:1045D00009F435CC6AE285E20D35100709F420CCE8
:1045E00042CF1F93CF93DF938091E901807FA9F49D
:1045F0008091E601882389F080911B02D091EA0125
:104600006091E4017091E501A091E701B091E801AA
:10461000C62FC72316E0D81304C0DF91CF911F9196
:10462000089590E0109711F0CF3F19F4019687702C
:10463000F2CF189F9001199F300D1124F901E55117
:10464000FE4F41814713F2CF40814613EFCF4281A5
:104650004111ECCF438154814A1B5B0B483C51050F
:1046600028F78091E9018F7080618093E901F90159
:10467000E051FE4F80818F708061808384EE91E0F5
:104680000E94C31BDF91CF911F910C94F208AF924F
:10469000BF92CF92DF92EF92FF920F931F93CF932F
:1046A000DF93CDB7DEB761970FB6F894DEBF0FBECC
:1046B000CDBF8C0185E0F801DE011D9601900D92C1
:1046C0008A95E1F7F80180819181E28024EEA22EA3
:1046D00021E0B22E6091E7017091E801611571054A
:1046E00009F43EC13091E4014091E501232F2423D8
:1046F0002F3F09F435C1C380D480F090E601F60164
:10470000E61BF70BFF2009F4FBC02091E901522FB3
:10471000507FE83CF10508F0BBC0511178C0FE2C79
:10472000491321C038131FC0E1101DC02F70206134
:104730002093E901C5010E94C31B8091E901F801A2
:1047400085838F2D61960FB6F894DEBF0FBECDBF67
:10475000DF91CF911F910F91FF90EF90DF90CF905D
:10476000BF90AF900895CD2829F0282F29232F3FFF
:1047700009F014C120E0F22FF170DF2E20FF3DC0C0
:1047800020911B024091EA0156E0241315C08D8749
:104790009E878D859E850E94720D292F22952F70F0
:1047A0002230F8F0243020F59F70F9F0F80195815F
:1047B000907FD9F4D12C1FC030E0529FF001539F5D
:1047C000F00D1124E551FE4F6181961306C0608102
:1047D000861303C06281E61210C02F5F3F4F27701F
:1047E000D4CF9F7011F0882329F3805E883010F3B6
:1047F000C8010E94C31BFD2CA4CFEE2009F4A1CF59
:104800008091E90181608093E901F12C9ACF4913ED
:1048100012C0381310C0E1100EC0F8012583C80182
:104820000E94C31B86E0F801A4EEB1E001900D9256
:104830008A95E1F786CF8D879E878D859E850E941C
:104840007C0D882309F1EE20F9F08091E901803296
:1048500070F02091E4013091E50138872F831986AB
:10486000DB86CA868C87CE0107960E94C31B86E032
:10487000F801A4EEB1E001900D928A95E1F70E9453
:10488000F122FF24F3945DCFC8010E94C31BF9CF2E
:1048900051110AC084EE91E00E94C31B86E0F5012D
:1048A00011928A95E9F7B1CF49130FC038130DC0A3
:1048B000E1100BC0F8012583C8010E94C31B86E0EC
:1048C000F50111928A95E9F73CCF8D879E878D85FA
:1048D0009E850E947C0D8823B9F2EE20A9F280917A
:1048E000E901803220F22091E4013091E5013A8320
:1048F00029831B82DD82CC828E83CE010196B5CFC7
:10490000E83CF105E0F6FE2CEE2009F4BDCF49139A
:1049100016C0381314C08091E90180FD83CF982F11
:10492000907F09F47FCFF8018583903F09F477CF1A
:10493000982F907F905F8F70892B858370CF8D87A4
:104940009E878D859E850E947C0D811190CF8091E0
:10495000E90181608093E901C8010E94C31BF1CE87
:10496000EE2009F491CF8D879E878D859E850E94CC
:104970007C0DF82E882309F487CF86E0F801A4EE99
:10498000B1E001900D928A95E1F78091E401909158
:10499000E5010E94720D0E94F122D3CE21E02E2566
:1049A000EACE1F93CF93DF93CDB7DEB767970FB6ED
:1049B000F894DEBF0FBECDBF342F4B8B252F5C8B01
:1049C0006D8B7E8B8F8B8E899F8961111092410236
:1049D0001A8A198A3D872E876F87998B888B86E084
:1049E000FE013D96DE01179601900D928A95E1F742
:1049F000CE0107960E944723882389F016E0809114
:104A00001B029091EA01891349C067960FB6F8948A
:104A1000DEBF0FBECDBFDF91CF911F91089586E01D
:104A2000FE013796DE01119601900D928A95E1F70D
:104A30008A859B85892B11F38F81988589238F3FE8
:104A4000E9F22091EA0130E0C901019687709927C7
:104A500040911B024817190671F40E9454181092D5
:104A6000EA0110921B0286E0E4EEF1E0DF011D9204
:104A70008A95E9F7C3CF96E0929FD001939FB00D3E
:104A80001124A551BE4FFE01319601900D929A95C9
:104A9000E1F78093EA010E94F208B0CF819FC00144
:104AA000112485519E4F0E944723882309F4ADCFDE
:104AB00080911B0290E001968770992780931B02DA
:104AC0009ECF1F920F920FB60F9211242F933F93F8
:104AD0004F935F936F937F938F939F93AF93BF9306
:104AE000CF93DF93EF93FF93D091E900DF70809134
:104AF000EC00C82FC17080FDC0E81092E9008091E1
:104B0000F000877F8093F00078940E9469181092DB
:104B1000E9008091F00088608093F000CD2BCF7089
:104B2000C093E900FF91EF91DF91CF91BF91AF91D9
:104B30009F918F917F916F915F914F913F912F91B5
:104B40000F900FBE0F901F9018951F920F920FB6E7
:104B50000F9211242F933F934F935F936F937F9303
:104B60008F939F93AF93BF93EF93FF938091E10057
:104B700082FF15C08091E20082FF11C08091E100A8
:104B80008B7F8093E10020918A022F5F822F62E366
:104B90000E94632E992309F4BEC020938A0280915B
:104BA000DA0080FF28C08091D80080FF24C0809167
:104BB000DA008E7F8093DA008091D90080FFE1C017
:104BC00080E189BD82E189BD09B400FEFDCF81E0AD
:104BD0008093B0028AE09BE00E943C0680918B02A9
:104BE000811109C00E94DE060E94A9078091E2009F
:104BF00084608093E2008091E10080FF1BC080917F
:104C0000E20080FF17C08091E2008E7F8093E20077
:104C10008091E20080618093E2008091D800806200
:104C20008093D80019BC85E08093B00282E19BE0BC
:104C30000E943C068091E10084FF2DC08091E2003B
:104C400084FF29C080E189BD82E189BD89B5982FA3
:104C5000917080FFFBCF8091D8008F7D8093D8002A
:104C60008091E1008F7E8093E1008091E2008F7E51
:104C70008093E2008091E20081608093E200809165
:104C8000B102882309F487C084E08093B00286E1F2
:104C90009BE00E943C068091E10083FF2BC0809145
:104CA000E20083FF27C08091E100877F8093E100CD
:104CB00082E08093B0021092B1028091E1008E7F79
:104CC0008093E1008091E2008E7F8093E2008091EA
:104CD000E20080618093E20042E060E080E00E94B8
:104CE00077078091F00088608093F0008AE19BE074
:104CF0000E943C06FF91EF91BF91AF919F918F91E0
:104D00007F916F915F914F913F912F910F900FBEC7
:104D10000F901F90189510928A0280918902882323
:104D200009F43DCF8091B0028430C1F49091E90044
:104D30009F702091EC00822F817020FD80E8892BEC
:104D400095E09093E9009091EB0090FF04C0909162
:104D5000EE0097FD08C08F708093E90010928902E1
:104D60001ECF1092F1009091E80095FDFACF90913E
:104D7000E80090FFF0CF9091E8009E779093E800D4
:104D8000EACF19BC1092B0028EE09BE00E943C0674
:104D900010928B0230CF8091E30087FD93E09093D7
:104DA000B00275CFCDB7DEB7AD970FB6F894DEBFC2
:104DB0000FBECDBF84B7877F84BF0FB6F894A89588
:104DC00080916000886180936000109260000FBE47
:104DD00080E890E00FB6F8948093610090936100B2
:104DE0000FBE85B7806885BF85B7806885BF81E1C4
:104DF00091E19093AF018093AE010E94DE060E9484
:104E0000A9078091E20084608093E2007894809109
:104E1000B0028823A1F01091E9001F709091EC007E
:104E2000892F817090FD80E8182B1092E900809105
:104E3000E80083FD0E9469181F701093E90082E06A
:104E400084BD93E095BD9AEF97BD80936E0084EF8B
:104E50000E94F30A82E90E94F30A83E90E94F30A9E
:104E600085E30E94F30A0DE711E06AE8E62E61E0AF
:104E7000F62EF80181918F010E94F30AE016F106E7
:104E8000C1F710924C0210924B0210927E021092C7
:104E90007D0210924E0210924D02109280021092EA
:104EA0007F021092500210924F02109282021092D2
:104EB00081021092520210925102109284021092BA
:104EC000830290E080E00E942A2F8A3E9E4F11F0DC
:104ED0000E94BA1682E090E00E941C2F8093770215
:104EE0000E94650B90934A02809349020E948015AC
:104EF0008FE39CE90197F1F700C000000E94801544
:104F000080917D0280FF17C06FEF83E290E00E94E6
:104F1000302F6FEF84E290E00E94302F6FEF85E238
:104F200090E00E94302F6FEF7FEF90E080E00E94D2
:104F30004E2F0E946C0883E090E00E941C2F682F87
:104F400070E090E080E00E94AA1083E290E00E946E
:104F50001C2F823209F040C684E290E00E941C2F90
:104F6000823109F039C685E290E00E941C2F823020
:104F700009F032C6809153028111E0C0809177021E
:104F800080FF14C082EF99E09F938F930E94D50613
:104F9000809177020F900F9080FF08C08CED99E010
:104FA0009F938F930E94D5060F900F9090E080E022
:104FB0000E942A2F8A3E9E4F81F08091770280FFC7
:104FC00008C084EB99E09F938F930E94D5060F90C1
:104FD0000F900E94BA160E94451888E090E00E9447
:104FE000242F609378027093790280937A029093D1
:104FF0007B026E7FD1F48091770280FF08C08BE640
:1050000099E09F938F930E94D5060F900F900E9476
:10501000451888E090E00E94242F609378027093F6
:10502000790280937A0290937B020E9439098091E1
:10503000770280FF76C082E599E09F938F930E946C
:10504000D506809177020F900F9080FF6AC0809103
:10505000780281701F928F9385E399E09F938F93DD
:105060000E94D506809177020F900F900F900F90BD
:1050700080FF57C08091780286951F928F938AE1B6
:1050800099E09F938F930E94D506809177020F90AD
:105090000F900F900F9080FF44C0809179021F9273
:1050A0008F9380E099E09F938F930E94D506809123
:1050B00077020F900F900F900F9080FF32C0809179
:1050C0007A021F928F9386EE98E09F938F930E94AF
:1050D000D506809177020F900F900F900F9080FF70
:1050E00020C080917B021F928F938CEC98E09F935D
:1050F0008F930E94D506809177020F900F900F90AA
:105100000F9080FF0EC080917C021F928F9380EBE6
:1051100098E09F938F930E94D5060F900F900F9069
:105120000F9010925E028091780280FF04C060E0D0
:1051300086950E94351B81E0809353028098889A5F
:105140008198899A8FB1817079995FC090E0892B9D
:105150008093610282E191E0909355028093540222
:1051600089EF9AE00E943C068091B002853079F484
:1051700085EF9AE00E943C0600E112E18091B002C6
:10518000853009F444C00E9454180E9428090E94E6
:105190008015882359F08FB7F8944091850250917B
:1051A000860260918702709188028FBFEFE6F2E07D
:1051B000FCA7EBA75DE7452E52E0552E10E000E07E
:1051C0000DA7F201E190F1902F01EBA5FCA5A190B4
:1051D000B190FCA7EBA7AE14BF0409F054C00F5F59
:1051E0001F4F0430110561F78FEF8EA38FA318A610
:1051F0000E948C088160782F9AA789A74EA15FA191
:1052000068A58AA50E94D1246FC092E0A0CF8091AA
:10521000B002843021F11092560288E190E0E0E47F
:105220000FB6F894A895809360000FBEE0936000DD
:1052300083B7817F846083BF83B7816083BF7894A5
:10524000889583B78E7F83BF0FB6F894A895809119
:105250006000886180936000109260000FBE8091B2
:10526000AF02882309F48ACF0E948015EDE7F2E0AF
:1052700081919191892B09F099C485E892E08E176C
:105280009F07B1F77BCF8091770281FDD5C1AE2416
:10529000BF2480E0CC24C394D12C95012C213D2146
:1052A000232B09F404C289A3EDA5EAA3EC20FD2079
:1052B00081E0EF2809F480E08BA30E948C088160D4
:1052C000782F9DA38CA349A15AA16BA18DA10E9407
:1052D000D124000F111FF801E159FD4F8081918108
:1052E000C826D926D182C08280915E028823D1F15E
:1052F00080915D02E0917802E695E81BE093590207
:10530000823009F0DBC1F0E0EF5BF54FE4910E2F46
:1053100010E08CE5E82E85E1F82E80915A02882372
:1053200061F010925A020E948C0890935802809368
:10533000570210925C0210925B020E948C08E0916E
:105340005702F09158028E1B9F0B8F3F9F4750F4DE
:10535000E00FF11FF0935802E093570287E592E0C7
:10536000F7010995E0916102EE0FEE0FE093610203
:105370008FB180FB662460F879990CC280E08629A1
:10538000E82BE0936102EF70F0E0E657FE4F80817A
:1053900090916002890F8093600220E084304CF08D
:1053A00080915F028F5F80935F028AEA0E94C3123E
:1053B00021E0809160028D3F4CF480915F0281502A
:1053C00080935F0289EA0E94C31221E0809160020B
:1053D000082E000C990B64E070E00E94832E8093ED
:1053E0006002222359F08FB7F894409185025091C2
:1053F000860260918702709188028FBF86E0E8E69E
:10540000F2E0DE01119601900D928A95E1F7F0909D
:105410006A02E0906B0210916C0200916D02109292
:105420006A0210926B0210926C0210926D028F2D24
:105430008E2909F448C080916602909167020E940B
:105440007D089C0190916502992309F4ECC32333F4
:105450003105C8F19F3F19F09F5F90936502FF20CF
:1054600059F00E94790A9FEF1F140CF491E0899F74
:10547000802D112480936A02EE2059F00E94790A4F
:105480009FEF1E140CF491E0899F802D11248093CE
:105490006B0230916A023323B1F020916B02222318
:1054A00091F045EB3403C0011124992309F475C12F
:1054B00090936A0245EB240390011124332309F4ED
:1054C00070C130936B02812F802B09F448C080910A
:1054D0006302909164020E947D089C019091620297
:1054E000992309F49BC325363105C8F19F3F19F074
:1054F0009F5F90936202112359F00E94570A9FEF19
:1055000011160CF491E0899F802D112480936C0278
:10551000002359F00E94570A9FEF10160CF491E0F7
:10552000899F802D112480936D0230916C0233236A
:10553000B1F020916D02222391F045EB3403C001BC
:105540001124992309F431C190936C0245EB240393
:1055500090011124332309F42CC130936D02809102
:105560006A0290916B02892B90916C02892B909129
:105570006D02892B11F00E945E0F86E0FE013196CC
:10558000A8E6B2E001900D928A95E1F70E94280901
:1055900090916E02891739F10E942809182F809383
:1055A0006E028091770282FF1EC080FF1CC08CE4D7
:1055B0009AE00E943C068091770280FF14C01F92FF
:1055C0001F9387E49AE09F938F930E94D506809162
:1055D00077020F900F900F900F9080FF04C085E42A
:1055E0009AE00E943C068091B002843009F0BCCD64
:1055F00083E08093E9008091E80082FFB5CD80913F
:10560000E80090E085FF06C00E94FD06882309F4AB
:10561000D4C091E08091E8008B778093E8009923D3
:1056200009F4A2CDE981E150E33108F05AC1F0E07C
:10563000E351F04D0C94972E89E19AE00E943C06CC
:105640003DE7832E32E0932ED12CC12CDF92CF92F6
:1056500084E19AE09F938F930E94D50681E19AE0BE
:105660000E943C06F40180812180F2E08F0E911CA3
:105670000E944D0B382E822D0E944D0B3F928F932E
:105680008BE09AE09F938F930E94D50689E09AE081
:105690000E943C06FFEFCF1ADF0A0FB6F894DEBF78
:1056A0000FBECDBF94E0C916D10481F6F0CD8F5F57
:1056B000CC0CDD1C8D3009F0F0CD91CD863059F445
:1056C000F0E0E25CF54FE4910E2F10E0B0E7EB2E36
:1056D000B5E1FB2E22CE893061F4E695F0E0E55C81
:1056E000F54FE4910E2F10E0ACEDEA2EA3E1FA2E77
:1056F00014CE8F3061F4E695F0E0E85CF54FE4916C
:105700000E2F10E0F5EFEF2EF3E1FF2E06CE8531E0
:1057100059F4F0E0EB5CF54FE4910E2F10E0E9E373
:10572000EE2EE4E1FE2EF9CD08E210E057E6E52E7C
:1057300054E1F52E883109F4F0CD833249F4E3E3E6
:10574000FAE00591149173E0E72E75E1F72EE5CDAF
:1057500004EF11E04AEDE42E44E1F42E843209F422
:10576000DCCD00ED17E038E6E32E38E0F32E85328D
:1057700009F0D3CD8E2F63E00E94632EE92FF0E075
:10578000E05DF54FE4910E2F10E061E3E62E66E157
:10579000F62EC3CD82E090E0F2CD81E080936A02E4
:1057A00089CE81E080936B028ECE81E080936C0283
:1057B000CDCE81E080936D02D2CE00E210E0CE012A
:1057C00001967C018091E80085FD0AC08091E80087
:1057D0008B778093E8000E94FD06882399F319CF08
:1057E0008091F100F70181937F010150110951F778
:1057F00010CF1A8289E08B833FC08A81823009F4FE
:1058000004C28330A9F0813009F06BC02FB7F8943F
:105810006091850270918602809187029091880242
:105820002FBF0E949D2E6B837C838D839E8324C01B
:1058300080917D0290917E029827892798279C83EA
:105840008B8380917F0290918002982789279827E7
:105850009E838D838091810290918202982789276F
:10586000982798878F83809183029091840298274C
:10587000892798279A8789878091B002843009F018
:1058800073CC1091E9001F709091EC00892F81700A
:1058900090FD80E8182B82E08093E9008091E80079
:1058A00080FF0DC050E040E060E270E0CE01019664
:1058B0000E942E078091E8008E778093E8001F7089
:1058C0001093E90051CC8A81823059F46B817C813C
:1058D0008D819E810E949D2E86E290E00E94302F55
:1058E000CBCF8FEF8983C8CF4C816B818A810E9497
:1058F000730B9827892798279E838D83BDCFED80D2
:10590000FE80FE24EF24FE248A810B81FAE10F9FA2
:105910008001112428E6829F000D111D11248C8125
:1059200090E0880F991F080F191F6F2DC8018796E7
:105930000E94302F6E2DC8018896D0CF0E94A00DF6
:105940009BCF8A818138C9F060F4803809F094CF08
:1059500020E04B8160917A02809179020E94371792
:105960008BCF823809F44CC0833809F085CF20E012
:1059700040917B026C818B81F1CF60E08B810E9432
:10598000351B2B81909177028091780221111FC0E5
:105990008E7F8093780290FF0CC01F921F928FE53C
:1059A0009AE09F938F930E94D5060F900F900F90CF
:1059B0000F900E944F0F4FEF80E792E041508040E0
:1059C0009040E1F700C000000E94AA1355CF81600B
:1059D0008093780290FF0DC01F9281E08F9389E938
:1059E0009AE09F938F930E94D5060F900F900F908F
:1059F0000F908091780260E086950E94351B3CCF25
:105A00008B8180937C029091770290FF35CF1F921B
:105A10008F9382ED9AE09F938F930E94D5060F900B
:105A20000F900F900F9028CF8A81813899F030F431
:105A3000803809F021CF80917B02DDCE823891F051
:105A4000833809F019CF809179028B8380917A0293
:105A50008C8312CF8091780280FF02C08695CBCED6
:105A600080E0C9CE80917C02C6CE609178027091B0
:105A7000790280917A0290917B020E942517FCCED8
:105A800080E18A83F9CE82E08A8389E3B4CE0A81F9
:105A90001B81102701271027FE0131967F01CC8042
:105AA000CF018C0D911D6C01C80189539E4FCE14FE
:105AB000DF0409F4E1CE0933E2E01E0750F40E944E
:105AC0001C2FF70184830F5F1F4FFFEFEF1AFF0AB0
:105AD000EBCFF7011482F7CF0A811B811027012732
