:100000000C9427050C946E050C946E050C946E05EB
:100010000C946E050C946E050C946E050C946E0594
:100020000C946E050C946E050C94BA240C947624F2
:100030000C94052D0C946E050C946E050C946E05B5
:100040000C946E050C946E050C946E050C946E0564
:100050000C946E050C94E12C0C946E050C946E05BA
:100060000C946E050C946E050C946E050C946E0544
:100070000C946E050C946E050C946E050C946E0534
:100080000C946E050C946E050C946E050C946E0524
:100090000C946E050C946E050C946E050C946E0514
:1000A0000C946E050C946E050C946E050631FF09D8
:1000B00074A1010975150026FF00952075088102BD
:1000C0000976150026FF00952075089102C00501EC
:1000D0000902A10185020901A100050919012908E8
:1000E00015002501950875018102050109300931C6
:1000F0001581257F95027508810609381581257FB0
:10010000950175088106050C0A38021581257F9531
:100110000175088106C0C005010980A10185031988
:10012000012AB700150126B700950175108100C09E
:10013000050C0901A101850419012AA00215012657
:10014000A002950175108100C005010906A1018575
:1001500005050719E029E7150025019508750181B6
:10016000020507190029EF1500250195F075018199
:10017000020508190129059505750191029501757A
:10018000039101C00660FF0961A101096215002603
:10019000FF009520750881020963150026FF009570
:1001A0002075089102C005010906A101050719E0A3
:1001B00029E715002501950875018102950175084B
:1001C00081010507190029FF150026FF0095067516
:1001D0000881000508190129059505750191029509
:1001E0000175039101C00000000000000000000044
:1001F00000000000000000000000000000000000FF
:10020000000000000000000000007E0F00D4FFFF8F
:10021000FFC70000007800000000000000002A2B4B
:1002200028000000000000000000000000000000A6
:100230000029000000002C1E34202122243426270F
:10024000252E362D3738271E1F2021222324252630
:100250003333362E37381F0405060708090A0B0CFE
:100260000D0E0F101112131415161718191A1B1C46
:100270001D2F3130232D350405060708090A0B0C04
:100280000D0E0F101112131415161718191A1B1C26
:100290001D2F3130354C290A002575002F0025759A
:1002A000005D2800256400200025640020002564EE
:1002B0000020002564007C0025303258006D6F75E9
:1002C00073656B6579205B62746E7C78207920762B
:1002D00020685D287265702F61636C293A205B008D
:1002E00000010101010101010101020202020202F9
:1002F00002020203030303030303030404040404CC
:100300000404050505050506060606060707070792
:100310000708080808090909090A0A0A0B0B0B0C47
:100320000C0C0D0D0D0E0E0E0F0F0F1010111111E4
:100330001212131314141515161617171818191965
:100340001A1A1B1B1C1D1D1E1E1F202021222223CA
:100350002424252626272829292A2B2C2D2D2E2F0B
:1003600030313232333435363738393A3B3C3D3E22
:100370003F404142434445464748494A4C4D4E4F11
:1003800050515354555658595A5B5D5E5F616264D3
:10039000656668696B6C6D6F7072737577787A7B60
:1003A0007D7E8082838587888A8C8E8F91939596B7
:1003B000989A9C9EA0A2A3A5A7A9ABADAFB1B3B5D7
:1003C000B7BABCBEC0C2C4C6C9CBCDCFD1D4D6D8B3
:1003D000DBDDDFE2E4E7E9EBEEF0F3F5F8FAFDFF51
:1003E0007267626C696768742074696D65722065F4
:1003F0006E61626C65642E0A007267626C69676880
:1004000074206D6F6465205B4E4F454550524F4DD3
:100410005D3A2025750A007267626C69676874200E
:100420006D6F6465205B454550524F4D5D3A202508
:10043000750A007267626C6967687420736574205E
:10044000687376205B4E4F454550524F4D5D3A20C4
:1004500025752C25752C25750A007267626C6967F5
:1004600068742073657420687376205B454550522C
:100470004F4D5D3A2025752C25752C25750A007287
:1004800067626C69676874207261696E626F772059
:10049000736574206873763A2025642C25642C25B6
:1004A000642C25750A00FFAA7F55407267626C694B
:1004B0006768742074696D65722064697361626C29
:1004C000652E0A002223252628292A2C2D2F30329A
:1004D000333536383A3B3D3E4042434547494A4C26
:1004E0004E5051535557595A5C5E60626466686954
:1004F0006B6D6F71737577797B7D7F81838587895C
:100500008A8C8E90929496989A9C9E9FA1A3A5A760
:10051000A8AAACAEAFB1B3B4B6B8B9BBBCBEBFC18C
:10052000C2C3C5C6C7C9CACBCCCDCED0D1D2D2D317
:10053000D4D5D6D7D7D8D9D9DADADBDBDBDCDCDC2B
:10054000DCDCDDDDDDDDDCDCDCDCDCDBDBDBDADAEE
:10055000D9D9D8D7D7D6D5D4D3D2D2D1D0CECDCC65
:10056000CBCAC9C7C6C5C3C2C1BFBEBCBBB9B8B67A
:10057000B4B3B1AFAEACAAA8A7A5A3A19F9E9C9A05
:1005800098969492908E8C8A89878583817F7D7BD3
:1005900079777573716F6D6B6968666462605E5CB4
:1005A0005A5957555351504E4C4A4947454342407A
:1005B0003E3D3B3A3836353332302F2D2C2A292810
:1005C0002625232204000500060007000800090074
:1005D0000100010001000100010001000100010013
:1005E0000100010001000100010001000100010003
:1005F00001000100687474703A2F2F3175706B65BB
:1006000079626F617264732E636F6D007267626CE2
:10061000696768742064697361626C65205B454535
:1006200050524F4D5D3A207267626C696768745F23
:10063000636F6E6669672E656E61626C65203D2032
:1006400025750A007267626C6967687420656E615F
:10065000626C65205B454550524F4D5D3A20726794
:10066000626C696768745F636F6E6669672E656E3A
:1006700061626C65203D2025750A007267626C69B5
:1006800067687420746F67676C65205B45455052DE
:100690004F4D5D3A207267626C696768745F636F83
:1006A0006E6669672E656E61626C65203D202575FA
:1006B0000A0044454255473A2064697361626C659B
:1006C000642E0A0044454255473A20656E61626CCB
:1006D00065642E0A006164645F6B65795F626974AA
:1006E0003A2063616E2774206164643A20253032B9
:1006F000580A0064656C5F6B65795F6269743A20C3
:1007000063616E27742064656C3A20253032580A84
:10071000004F6E6573686F743A2061637469766523
:100720003A2025640A000A002530325820006B6503
:1007300079626F6172645F7265706F72743A2000E3
:100740007267626C696768745F636F6E6669672E53
:100750007370656564203D2025640A007267626CD1
:10076000696768745F636F6E6669672E76616C2077
:100770003D2025640A007267626C696768745F6374
:100780006F6E6669672E736174203D2025640A00D0
:100790007267626C696768745F636F6E6669672E03
:1007A000687565203D2025640A007267686C69677A
:1007B00068745F636F6E6669672E6D6F6465203D58
:1007C0002025640A007267626C696768745F636FF2
:1007D0006E6669672E656E61626C65203D202564DA
:1007E0000A007267626C696768745F636F6E66693E
:1007F0006720454550524F4D3A0A007267626C6956
:100800006768745F696E6974207267626C69676893
:10081000745F636F6E6669672E6D6F6465203D203F
:10082000302E2057726974652064656661756C743A
:100830002076616C75657320746F20454550524F6A
:100840004D2E0A007267626C696768745F696E6931
:1008500074206565636F6E666967206973206E6FCB
:100860007420656E61626C65642E0A007267626C4A
:10087000696768745F696E6974207374617274214A
:100880000A007267626C696768745F696E697420D8
:1008900063616C6C65642E0A000A002530386200C2
:1008A0003A200025303258000A722F63203031324E
:1008B00033343536370A001E0F0500047F3F1F64AE
:1008C0003214643214783C1E1E140A050A002530C6
:1008D0003258006B6579626F6172645F7365745F33
:1008E0006C65643A20007267626C696768742064A2
:1008F000697361626C65205B4E4F454550524F4DA8
:100900005D3A207267626C696768745F636F6E66D8
:1009100069672E656E61626C65203D2025750A0051
:100920007267626C6967687420656E61626C6520CD
:100930005B4E4F454550524F4D5D3A207267626C99
:10094000696768745F636F6E6669672E656E616262
:100950006C65203D2025750A007267626C696768C6
:100960007420736574207370656564205B4E4F4519
:100970004550524F4D5D3A2025750A005B735D006E
:100980004B6579626F6172642073746172742E0AB0
:10099000005B435D005B445D005B535D005B575D46
:1009A000005B525D0009027B00040100A0FA09040B
:1009B0000000010301010009211101000122400092
:1009C0000705810308000A09040100020300000072
:1009D00009211101000122220007058203200001E4
:1009E00007050303200001090402000103000000C1
:1009F00009211101000122B6000705840320000A25
:100A00000904030002030000000921110100012272
:100A100022000705850320000107050503200001CA
:100A200012011001000000084B41120001000102F8
:100A300000010A0354006B003400370000000A0371
:100A40004C00650041004B00000004030904112420
:100A50001FBECFEFDAE0DEBFCDBF04B603FE27C076
:100A60008091830290918402A0918502B0918602C8
:100A70008730904BA740B04BD1F410928302109274
:100A80008402109285021092860214BE84B7877F7A
:100A900084BF0FB6F894A895809160008861809318
:100AA0006000109260000FBEE0E0F8E3099522E0DC
:100AB000A0EAB1E001C01D92A338B207E1F711E04E
:100AC000A0E0B1E0E2E9FDE502C005900D92A03A98
:100AD000B107D9F70E94E7250C94902E0C940000E2
:100AE000FF93EF93E091A001F091A101309709F0FD
:100AF0000995EF91FF910895FC018591803011F0E7
:100B0000EFDFFBCF0895FF27E0E230E247FF0CC0A4
:100B1000419597FF09C0EDE260957095809590959D
:100B2000611D711D811D911D27FF02C0219530E3BC
:100B300050E2AA27660F771F881F991FAA1FA417C4
:100B400010F0A41B63955A95A9F7AA3008F0A95F85
:100B5000A05DAF93F395611571058105910541F78E
:100B6000ED3211F4EF93F395F21718F43F93F395E8
:100B7000FBCF8F91B5DFFA95E1F70895E991F991EF
:100B80008591803021F0853219F0AADFF9CF0895E0
:100B900020E0E89455915532C1F3503311F4689434
:100BA00055915A3348F4505390F3220F022E220FDE
:100BB000220F200D250FF4CF0EF4219589919991E4
:100BC000533619F3533729F1533559F1BC018827AE
:100BD0009927E8945C3621F489919991689455910C
:100BE000543639F446EF7EF077FF0DC08FEF9FEF5C
:100BF0000AC055374AE039F0583540E121F0523605
:100C000042E009F00895FF93EF937DDFEF91FF91AC
:100C1000B7CFFF93EF93FC0181918030B9F360DF90
:100C2000FBCFFF93EF9368DFF1CFDF93CF93CDB787
:100C3000DEB72596A3DFCF91DF910895E8EDF0E0D0
:100C400080818E7F80831092E2001092DA001092F1
:100C5000E100A0EEB0E08C9181608C9380818F7771
:100C6000808319BCA7EDB0E08C918E7F8C9380813E
:100C70008F7E808310924D0208952091E400309180
:100C8000E50095E6A9012091EC00822F817020FFFC
:100C900006C08091E80080FF06C080E008952091A2
:100CA000E80022FD1AC080917202882389F0853005
:100CB00089F08091EB0085FD0FC02091E400309118
:100CC000E50042175307F9F29150E1F684E00895E8
:100CD00082E0089583E0089581E00895EF92FF9205
:100CE0000F931F93CF937C018B010E943D06C82F69
:100CF000811117C08091E80085FD0BC08091E8004C
:100D00008E778093E8000E943D06882399F3C82FD0
:100D100008C0F70181917F018093F1000150110912
:100D200049F78C2FCF911F910F91FF90EF9008956D
:100D30008091740287FF13C08091E80082FF06C093
:100D40008091E8008B778093E80004C08091720264
:100D50008111F2CF0895809172028823D9F3809196
:100D6000E80080FFF8CF8091E8008E77ECCF982FD5
:100D70009093E900242F762F50E0891731F070917D
:100D8000EC002091ED005091F00021FD07C09F5F25
:100D9000973071F78093E90081E008953091EB007E
:100DA0003E7F3093EB003091ED003D7F3093ED00BE
:100DB0003091EB0031603093EB007093EC002093A6
:100DC000ED005093F0002091EE0027FDE0CF80E091
:100DD0000895CF92DF92EF92FF920F931F93CF93DC
:100DE000DF93C8EDD0E088818F7E8883E7EDF0E067
:100DF00080818160808384E082BF81E080934D02A6
:100E000088818E7F888302EE10E0F80110821092B4
:100E1000DA0081EEC82ED12CF601108288818F77FE
:100E2000888388818068888388818F7D888319BCC6
:100E3000109272021092730210927102109270025C
:100E400090EEE92EF12CF70180818B7F80838881E1
:100E50008160888342E060E080E00E94B706F6018E
:100E600080818E7F8083F801808181608083808192
:100E700088608083F70180818E7F80838881806194
:100E80008883DF91CF911F910F91FF90EF90DF90BA
:100E9000CF900895FC0180917A0290917B02861791
:100EA0009707A0F06115710529F49091E8009E77ED
:100EB0009093E80090E06115710551F4911108C01C
:100EC0008091E80082FF34C080E00895BC01F2CF39
:100ED000809172028823C1F18530C1F18091E800D0
:100EE00083FD30C08091E80082FDEACF8091E80068
:100EF00080FFE1CF8091F3002091F200382F61153F
:100F0000710519F02830310558F091E0283031058D
:100F100009F090E02091E8002E772093E800CBCFF5
:100F200081918093F100615071092F5F3F4FE7CFAE
:100F300080917202882341F0853041F08091E80071
:100F400083FFBECF81E0089582E0089583E0089595
:100F5000089580914F02089587E797E790930108DD
:100F60008093000888E19AE00FB6F894A8958093E2
:100F700060000FBE90936000FFCF9C014FB7F894C4
:100F80008091470290914802A0914902B0914A0293
:100F90004FBF821B930B08952FB7F894809147029F
:100FA00090914802A0914902B0914A022FBF089542
:100FB000809117028111109217020895E92FEE0F08
:100FC0009E0F890F982F977086958695869525E0B8
:100FD000829FF0011124E25FFD4F50E040E080E08D
:100FE000219130E0092E02C0369527950A94E2F748
:100FF00021703327042E01C0220F0A94EAF7822BB6
:101000004F5F5F4F4530510559F70895E92FEE0FB7
:101010009E0F890F982F977041E001C0440F9A9559
:10102000EAF786958695869595E0899FF0011124CB
:10103000E25FFD4F30E020E070E05191DF01119759
:10104000CB01022E02C0969587950A94E2F7817033
:1010500081958527842385278C932F5F3F4F2530EB
:10106000310559F7089580910D029091DC01981394
:1010700001C008958F5F8770FACF2091D20130911F
:10108000D3012817390771F09093D3018093D201CF
:10109000E0912202F0912302309721F00084F18543
:1010A000E02D099408952091D0013091D1012817A5
:1010B000390771F09093D1018093D001E091220221
:1010C000F0912302309721F00680F781E02D0994FA
:1010D0000895E0912202F0912302309721F00190CF
:1010E000F081E02D099480E00895FA01811101C09A
:1010F000FB01099480914002982F9E7F29F4817012
:1011000082608093400208958635E8F3817084659B
:10111000F8CFAF92BF92DF92EF92FF920F931F939F
:10112000CF93DF93082F162FE901E42FF0E0E05270
:10113000FD4F611110C0E4915E2F4E2F4983E8836B
:101140005A83DF91CF911F910F91FF90EF90DF9025
:10115000BF90AF900895E62EF12C4491D42EE42F49
:10116000F0E026E0829FC00111242FEF30E0B901AA
:101170000E94382D802F90E0880F991F55E5569FCB
:10118000D001579FB00D11248A1B9B0B982F990FEC
:10119000890F5901AE18BF08AE9ED001AF9EB00DA9
:1011A000BE9EB00D11245B2F189F80011124012FCA
:1011B00011275901A01AB10AAE9E8001AF9E100DF1
:1011C000BE9E100D11245901A81AB108AE9CC00191
:1011D000AF9C900DBE9C900D1124892F9927281B40
:1011E000390B2E9FC0012F9F900D3E9F900D112413
:1011F000E92F62307105A1F050F46115710509F411
:101200009DCF6130710581F0EB2F512F97CF643066
:10121000710569F080F06630710509F48FCFF4CF65
:10122000E42F4B2F592F8ACFE42F412F87CFEB2F5D
:10123000542F492F83CF4B2F5D2DE12F7FCF40912E
:101240003802803F59F48091390287FF0DC0109217
:10125000390241110BC01092330208C0813F81F462
:101260008091390218169CF3442381F080913A0250
:1012700090913B02892B09F05AC0109230020895D8
:10128000823F49F447FFF0CF109238028091390233
:101290008111ECCFE0CF833F19F41416ACF3E4CF07
:1012A00090913A02893F29F41916F4F610923A0205
:1012B000DBCF8A3F19F497FFD7CFF8CF90913B024D
:1012C0008B3F29F497FFD0CF10923B02CDCF8C3FBC
:1012D00019F41916CCF3C8CF9CE0980F953090F410
:1012E000845F990B21E030E0B90102C0660F771FDF
:1012F0008A95E2F7CB0180959091370289238093FC
:101300003702B2CF8D3F31F48091D5018E7F80932B
:10131000D501AACF8E3F21F48091D5018D7FF7CFE3
:101320008F3F09F0A1CF8091D5018B7FF0CF089539
:101330008091D50180FD16C081FD16C082FD16C0CA
:10134000809130028823A1F0883280F428E0829FC7
:10135000C001112468E270E00E944C2D862F672B9B
:1013600039F0089582E0089584E0089588E00895B2
:1013700081E008958091D50180FD14C081FD14C0E5
:1013800082FD16C080913302882381F0843180F47D
:1013900022E3829FC001112464E170E00E944C2D81
:1013A000862F08958CE0089589E1089585E00895D9
:1013B00082E30895803F31F40E94BA0981958093B9
:1013C00039020895813F19F40E94BA09F8CF823F8B
:1013D00031F40E94BA098195809338020895833FC1
:1013E00019F40E94BA09F8CF893F29F40E9498099C
:1013F00080933A0208958A3F21F40E9498098195CA
:10140000F7CF8B3F31F40E949809819580933B027E
:1014100008958C3F19F40E949809F8CF9CE0980F2A
:10142000953070F4845F990B21E030E001C0220F09
:101430008A95EAF780913702822B809337020895CC
:101440008D3F31F48091D50181608093D50108955D
:101450008E3F21F48091D5018260F7CF8F3FB9F79D
:101460008091D5018460F1CFF894E82FE295EF7078
:10147000F0E031A1282F2F7081E090E001C0880FAB
:101480002A95EAF7982F9095932391A392A1892BFF
:1014900082A37894089590911D0292FF06C0282F90
:1014A00028712830F9F4877F846093FF06C0282FC5
:1014B00028712831F1F4877E846120911E0220FF7B
:1014C00006C0382F38713830D9F4877F816021FF0A
:1014D00006C0282F28712831D1F4877E816194FDC0
:1014E000877E0895282F24712430F9F68B7F886039
:1014F000DCCF282F2471243101F78B7E8861DDCF6A
:10150000382F3171313019F78E7F8860E0CF282F66
:101510002171213121F78E7E8861E1CF829590E0A3
:101520009C01220F331F220F331F2C7C959587952A
:10153000959587958373282B30E0C901880F991FF3
:101540008A7A359527952575822B0895CF9384E067
:1015500090E00E94E52DC82F82E290E00E94E52DE8
:10156000982F8C2FCF9108950F931F93CF93DF93D4
:10157000C42FD0E0CC0FDD1F26E0629FC00DD11D2F
:1015800011243CE0839FC00DD11D1124CE0187960C
:101590000E94E52D082F10E0102F0027CE0188961D
:1015A0000E94E52D9801282BC901DF91CF911F9151
:1015B0000F910895462F843038F4723028F4633048
:1015C00018F4672F0C94B40A90E080E00895CF934C
:1015D000DF930E94DA0AEC0182389105A9F1D8F56F
:1015E0008133910509F496C048F58932910509F4D3
:1015F0008AC08A9709F495C0C11521E5D20708F081
:10160000BCC0C11530E5D30708F014C1C83ED105F0
:1016100008F09CC0C03ED10560F5C83AD10508F07D
:1016200087C0C53AD10508F0FDC0C130D10509F128
:101630002097F9F0C430D105E0F440C0853391051E
:1016400009F45AC0C997C1F680911D02837089F0D0
:10165000C0EED0E00EC0833E910599F170F4803E5B
:10166000910501F1823E910539F680911D0282FDBE
:1016700021C0CE01DF91CF910895863E910561F1A1
:10168000873E910571F1843E910509F0B5CF8091B7
:101690001E0281FFEECF80911D02C7EED0E084FDD7
:1016A0000DC0E7CF80911D0280FD12C190911E02F6
:1016B00090FFDFCFC3EED0E084FFDBCFD0E0C0E00F
:1016C000D8CF80911D0282FD06C190911E0290FD2F
:1016D000BFCF84FFCECFF2CF80911D0283FDDDCF3F
:1016E000C8CF80911D0283FDF9C090911E0291FF29
:1016F000F0CFC4EED0E0BDCF80911D0285FFB9CF01
:10170000C9E2D0E0B6CF80911D0285FFB2CFC5E31C
:10171000D0E0AFCF80911D0286FFABCFCAE2D0E010
:10172000A8CF80911D0286FFA4CFC1E3D0E0A1CF56
:10173000CF3BD10518F6C85AD0E0CC0FDD1FC55BF2
:10174000DE4F0990D881C02DD46493CFC11540E2FB
:10175000D40758F4C11581E0D80708F08ACFC03FFC
:10176000D10508F4ABCFD06584CFC11590E4D9077B
:1017700008F4A4CFDF70D06A7CCFC11525E5D2076D
:1017800000F5C11534E5D30708F08AC0C11543E55B
:10179000D40708F071C0C11582E5D80708F467C006
:1017A000CE018370992721E030E002C0220F331F61
:1017B0008A95E2F7C695C69580E2C89FE00111249C
:1017C00052C0C11599E5D907A8F4C11528E5D2077B
:1017D00008F06BC0C11536E5D30708F06FCF8C2F2A
:1017E0000E944B0AC82FD0E0DC2FCC27CC27DF711A
:1017F000D0623FCFC1154AE5D40708F45BC0CE01E3
:1018000090568115904208F059CF8D2F8F710E940C
:101810004B0A90E0982F882788279F719C012C2BDA
:10182000E901E6CFC55AD0E0C85BDE4FC881D0E001
:10183000D0641FCFCE01E4E096958795EA95E1F755
:1018400083702C2F26952695237040E2249F9001CB
:101850001124382B8C2F8370C1E0D0E002C0CC0F54
:10186000DD1F8A95E2F7C22BD32BDC6802CFDC2F79
:10187000CC27C16FD06AFDCECE018370992721E0BD
:1018800030E002C0220F331F8A95E2F7C695C69555
:1018900090E2C99FE0011124C22BD32BDA68E9CE74
:1018A000DC2FCC27C46FD06AE4CEDC2FCC27C06FEE
:1018B000D06ADFCE8C2F8F700E944B0A34E0D69511
:1018C000C7953A95E1F7CF709C2FEC01D069D1CE46
:1018D000C9E3D0E0CECEC2EED0E0CBCEC6EED0E0B3
:1018E000C8CEBF92CF92DF92EF92FF920F931F93D9
:1018F000CF93DF938C01C0907F02D0908002E09064
:101900008102F09082028091180290911902A091B8
:101910001A02B0911B02C82AD92AEA2AFB2ACFE16F
:10192000D0E0BC2ED701C6010C2E04C0B695A795F9
:10193000979587950A94D2F780FD0EC0219788F776
:10194000B12C8B2DDF91CF911F910F91FF90EF90D4
:10195000DF90CF90BF900895B8018C2F0E94E70AC6
:10196000019761F3EECFCF93DF93EC010E94710CEE
:10197000BE01DF91CF910C94E70A0E94B30C292F8E
:101980002F7092959F7092509E3078F4E92FF0E07E
:10199000EE56F14D0C94602D803F19F020F4883EF6
:1019A00020F481E00895843FE1F380E00895883ECB
:1019B000C0F3813FD1F7F5CF822F86958695869526
:1019C00008956F927F928F929F92AF92BF92CF9223
:1019D000DF92EF92FF920F931F93CF93DF9384ECEC
:1019E000C82E85E0D82E99E3E92EF12CE7012C973B
:1019F00036011BC0F50185909490692DC8010E94A5
:101A0000F92D682DC80101960E94F92D82E0A80EDB
:101A1000B11C0E5F1F4FC017D10761F786E0680E3B
:101A2000711C2696CE15DF0529F08E01065011098E
:101A30005301E0CF7E018CE0E80EF11C8CE0C80E73
:101A4000D11C89E6E816F10489F6DF91CF911F9148
:101A50000F91FF90EF90DF90CF90BF90AF909F904D
:101A60008F907F906F900895CF93DF93C7E5D0E07C
:101A700060E0CE010E94F92D2196C11584E0D807BF
:101A8000B9F7DF91CF910895EF92FF920F931F93D3
:101A9000CF93DF938091160290911502892B90913C
:101AA0001402892B8093A201909117029923B1F01F
:101AB000892B8093A20180911C01882309F45DC0C9
:101AC00080911D0287FF59C08EE1E4EAF1E090E0C9
:101AD000815008F054C091110E94D807E091220271
:101AE000F0912302309709F450C080911C018823A3
:101AF00059F080911D0287FF07C08091A201809359
:101B0000A30185E08093A2010280F381E02D82EAA7
:101B100091E0099580913F0282FF37C080FF04C0A9
:101B20008EE297E00E947C05C2EAD1E08AEAE82EC4
:101B300081E0F82E08E217E080913F0280FF0BC0A1
:101B400088811F928F931F930F930E9415060F9009
:101B50000F900F900F902196EC16FD0669F780917B
:101B60003F0280FF12C086E297E0DF91CF911F9184
:101B70000F91FF90EF900C947C0586E0A6CF219109
:101B8000222309F4A5CF9F5FA3CFDF91CF911F91AF
:101B90000F91FF90EF900895882341F080959091E8
:101BA00016028923809316020C94440D089588230D
:101BB00039F090911602982B909316020C94440DD4
:101BC0000895CF93DF93D82FC0911E02C2FB8827C0
:101BD00080F98D17F9F0D0FBC2F9C0931E02609115
:101BE0001D0284E090E00E94F92D6C2F82E290E0CB
:101BF0000E94F92D80913F0280FF0CC01F92DF935D
:101C000081E197E09F938F930E9415060F900F90AC
:101C10000F900F90DF91CF91089590911C0199231F
:101C200059F190911D0297FF27C0E82FE695E695A0
:101C3000E695EE3180F4F0E0EE55FE4F282F277048
:101C400081E090E001C0880F2A95EAF780959281A3
:101C500089238283089590913F0290FF19C01F92BB
:101C60008F9383EF96E09F938F930E9415060F90BA
:101C70000F900F900F900895E4EAF1E0919189138D
:101C800003C0DF0111971C9291E0EA3AF907B1F71E
:101C9000089590911C01992349F190911D0297FF9D
:101CA00025C0E82FE695E695E695EE3170F4F0E074
:101CB000EE55FE4F877021E030E001C0220F8A957B
:101CC000EAF78281822B8283089590913F0290FFF0
:101CD0001EC01F928F9385ED96E09F938F930E9475
:101CE00015060F900F900F900F900895A4EAB1E0A1
:101CF000EFEF90E02D91821751F0EF3F19F4211191
:101D000001C0E92F9F5F9630A9F7EF3F09F40895CE
:101D10000E2E000CFF0BEE55FE4FD5CF10922C026D
:101D200080913F0280FF08C08BEA94E09F938F93DD
:101D30000E9415060F900F90089580913F0283FF37
:101D40007EC08DEB92E00E947C05809137021F924D
:101D50008F9388EB92E09F938F930E94150686EBFA
:101D600092E00E947C0580913802282F082E000CFA
:101D7000330B3F938F9383EB92E09F938F930E945B
:101D8000150681EB92E00E947C0580913902282F94
:101D9000082E000C330B3F938F938EEA92E09F93B3
:101DA0008F930E9415068CEA92E00E947C05809138
:101DB0003A02282F082E000C330B3F938F9389EAA9
:101DC00092E09F938F930E94150687EA92E00E940B
:101DD0007C0580913B02282F082E000C330B3F938B
:101DE0008F9384EA92E09F938F930E94150681EA75
:101DF00092E00E947C05809133021F928F938EE9BE
:101E000092E09F938F930E9415068CE992E00E94C6
:101E10007C058091D5011F928F9389E992E09F9371
:101E20008F930E94150686E992E00E947C058DB78B
:101E30009EB74C960FB6F8949EBF0FBE8DBF0E9402
:101E4000CC079C019091380280913902982B21F0A7
:101E5000309335022093340290913A0280913B02F4
:101E6000982B21F03093320220933102E09122022C
:101E7000F0912302309749F082E08093360204808B
:101E8000F581E02D86E392E00994089590E080E0EA
:101E90000E94530890E080E00E943D0810921502D5
:101EA000109214020E94440D86E0E6E3F2E0DF01A6
:101EB0001D928A95E9F71092330210923002109227
:101EC000D5010C949D0E60937F02709380028093E5
:101ED0008102909382020C94460F0F931F9360919E
:101EE0007F027091800280918102909182028B0129
:101EF0009C01067011272227332706301105210582
:101F0000310529F468601F910F910C94630F677F6E
:101F1000FACF0F931F9341E050E060E070E004C0FF
:101F2000440F551F661F771F8A95D2F7CB01BA0160
:101F3000609570958095909500917F021091800238
:101F400020918102309182026023712382239323A6
:101F50001F910F910C94630F909113028095892328
:101F600080931302282F277039F4282F082E000C95
:101F7000330B9217130621F490911E0292FF07C0B3
:101F80008595859585950E94890F10921302089575
:101F90000F931F9341E050E060E070E004C0440FF5
:101FA000551F661F771F8A95D2F780917F02909107
:101FB0008002A0918102B09182028A019B01082BCC
:101FC000192B2A2B3B2BC901B8011F910F910C949F
:101FD000630F609318027093190280931A02909312
:101FE0001B020C94460F882309F459C0823871F4FF
:101FF0000E94690881FF53C089E30E94490E0E9434
:10200000440D89E30E940D0E0C94440D833859F45D
:102010000E94690880FF43C083E50E94490E0E9428
:10202000440D83E5EFCF843859F40E94690882FF9C
:1020300036C087E40E94490E0E94440D87E4E2CF37
:102040009CEF980F913AF0F290E2980F983088F454
:10205000877021E030E0A90102C0440F551F8A9526
:10206000E2F7CA01809590911602892380931602A7
:10207000CBCF9BE5980F933020F490E080E00C9458
:10208000530898E5980F973120F490E080E00C9485
:102090003D08803F20F00E941F090C949D0E08957A
:1020A0009FB7F89410924B029FBF909172029430A8
:1020B00009F048C02091E9002F703091EC00932F77
:1020C000917030FD90E8922B25E02093E90020915B
:1020D000EB0020FF34C02091EE0027FF30C020919C
:1020E0001C02222321F02091E80025FF28C0109235
:1020F0001C0226E03091E80035FF14C08093F10007
:102100008091E80085FD27C08091E80080FFFCCF2A
:102110008091E8008E778093E8009F709093E900AB
:1021200080E0089530917202343049F43091EB0030
:1021300035FD05C0215041F481E080931C029F7061
:102140009093E9008FEF0895EFE9FFE03197F1F701
:1021500000C00000CFCF8FB7F89421E020934B024E
:102160008FBFDBCFCF93DF9300D00F92CDB7DEB719
:1021700090917202943011F589837B836A839093E6
:10218000E9008FEF9091E800815095FD06C095ED34
:102190009A95F1F700008111F5CF8091E80085FF55
:1021A0000DC050E040E063E070E0CE0101960E9477
:1021B0006E068091E8008E778093E8000F900F9074
:1021C0000F90DF91CF910895BC0184E00C94B21080
:1021D000BC0183E00C94B2109C0184E08093E90080
:1021E0009FEF8091E800915085FD06C085ED8A95AE
:1021F000F1F700009111F5CF8091E80085FF0CC048
:1022000050E040E066E070E0C9010E946E068091F7
:10221000E8008E778093E8000895CF93DF93EC0178
:1022200080911C018823B1F180911D0287FF32C08B
:1022300060E284E08093E9008FEF9091E8008150A4
:1022400095FD06C095ED9A95F1F700008111F5CF47
:102250008091E80085FF1BC080911C0170E050E078
:1022600040E0811104C050E040E068E070E0CE0141
:102270000E946E068091E8008E778093E80080E2ED
:10228000FE01A0E5B2E001900D928A95E1F7DF91A1
:10229000CF91089568E081E0CDCFCF93C82F8823F8
:1022A00009F4AEC08238C1F40E94690881FDA8C05B
:1022B00089E30E94490E0E94440D2FEF81EE94E0C5
:1022C000215080409040E1F700C0000089E30E9467
:1022D0000D0ECF910C94440D8338A1F40E9469082F
:1022E00080FD8EC083E50E94490E0E94440D2FEFB1
:1022F00081EE94E0215080409040E1F700C0000062
:1023000083E5E5CF8438A1F40E94690882FD78C096
:1023100087E40E94490E0E94440D2FEF81EE94E065
:10232000215080409040E1F700C0000087E4CFCF0B
:102330008CEF8C0F813A88F580911C01882301F184
:1023400080911D0287FF1CC0EC2FE695E695E6956F
:10235000F0E0EE55FE4F828190E04C2F477021E077
:1023600030E002C0220F331F4A95E2F78223932305
:10237000892B79F08C2F0E940D0E0E94440D09C00C
:10238000E4EAF1E08191C817A9F321E0EA3AF20703
:10239000C9F78C2F0E94490E9CCF80E28C0F8830A9
:1023A00068F4C77021E030E001C0220FCA95EAF757
:1023B00080911602822B809316028BCFEBE5EC0FF7
:1023C000E33040F4F0E0E85BFE4F808190E0CF9195
:1023D0000C945308E8E5EC0FE73150F4F0E0EE0F11
:1023E000FF1FE55BFE4F80819181CF910C943D08EA
:1023F000C03F30F08C2F0E94DA09CF910C949D0ED3
:10240000CF9108951F93CF93DF93182FD0E0C0E0B2
:10241000893311F4C0E5D0E0812F0E944D1120973F
:1024200031F4812FDF91CF911F910C94F30F8FE93D
:102430009FE00197F1F700C000002197F0CF0F93C4
:102440001F93CF93DF93C62FD42F022FFC018281DD
:102450008823A1F060937E020E94CC0790937D02B6
:1024600080937C02C77081E001C0880FCA95EAF7AB
:10247000DF91CF911F910F910C94D70D80917E0227
:10248000681335C080917C0290917D020E94BD0747
:10249000883C910560F510E21D0FCD17B9F080E280
:1024A0008C0F883040F4C77081E001C0880FCA9556
:1024B000EAF70E94CC0D183048F481E09D2F977008
:1024C00001C0880F9A95EAF70E94D70D802F0E94CD
:1024D0000212183098F4D77081E001C0880FDA95A5
:1024E000EAF7DF91CF911F910F910C94CC0DC7703B
:1024F00081E001C0880FCA95EAF7F3CFDF91CF9151
:102500001F910F910895DF92EF92FF920F931F9307
:10251000CF93DF93E82FF0E0EA5EFD4FD490282FB1
:1025200026952695269530E0F901EA5FFD4F049146
:10253000877010E0082E02C0159507950A94E2F7FF
:1025400001701127F901EA50FE4FE490F12C082E9A
:1025500002C0F594E7940A94E2F791E0E922FF249F
:10256000F901EA51FE4FC491D0E002C0D595C7955C
:102570008A95E2F7C170DD270115110519F081EE8A
:102580000E944D11E114F10419F086EE0E944D11E4
:102590008D2D0E940212EF2819F086EE0E94F30F93
:1025A000012B19F081EE0E94F30FCD2B51F08CE23C
:1025B000DF91CF911F910F91FF90EF90DF900C94DE
:1025C0000212DF91CF911F910F91FF90EF90DF905A
:1025D00008958091400280FF27C0849A31B33F7EE6
:1025E00021B320614FB7F89488EC91E0FC01519140
:1025F000CF0168E021BB000000C057FF31BB550F81
:10260000000000C000C000C031BB00C06A9591F757
:10261000F1E08B3C9F0751F74FBF8FE594E00197A6
:10262000F1F700C0000008951092C9011092C8018E
:102630001092CA01D2CFCF93DF93EC0128EC31E0A6
:1026400040914302609142028C810E9489080E945D
:10265000E9129A818C8190FF05C08F5F8C83DF9196
:10266000CF9108958150FACF0F931F93CF93DF93AB
:10267000FC0182811FEF80FF11E01092C9011092CE
:10268000C8011092CA01C4E0D0E000E08091C50109
:10269000800F823024F487FD8F5F811113C08091F9
:1026A00043028C9FA0018D9F500D11245595479595
:1026B0005595479528EC31E06091420280914102A6
:1026C0000E948908010F219709F70E94E912113031
:1026D00061F48091C501882319F081508093C50170
:1026E000DF91CF911F910F9108951092C501F8CFFE
:1026F0001092C9011092C8011092CA018091C601BE
:10270000181674F08091100187FD0AC028EC31E0A2
:102710004091430260914202809141020E948908E7
:102720000E94E91280910F019091C601980F909339
:10273000C60120911001280F20931001121614F4E5
:1027400097FD03C0819580930F0108958F929F920A
:10275000AF92BF92CF92DF92EF92FF92CF93DF932F
:10276000EC014C81E42EF12C9701D7010E94812EBF
:102770009B01AC010E944C2E4B015C01E0E2F0E0B9
:10278000EE19FF09A5E5B0E0AC019B010E944C2EBB
:102790006B017C019F01DF010E946D2D9B01AC014B
:1027A0000E94572E9B01AC01280D391D4A1D5B1D4F
:1027B000C701B6010E945F2E922F30E09A3248F591
:1027C00063E0969FA001112455954795409528EC0C
:1027D00031E06091420285E5891B0E9489080E94D0
:1027E000E9129C8181E0992319F0903219F48FEF5E
:1027F0008093110180911101890F8C83DF91CF911A
:10280000FF90EF90DF90CF90BF90AF909F908F9010
:10281000089545E550E0BA01621B730B9B01AB01C3
:10282000440F551F420F531F57FFCECF4F5F5F4FCF
:10283000CBCFCF93DF93EC018091410260914202B4
:102840009C8128EC31E040E0911102C040914302AC
:102850000E9489080E94E9128C8190E001968170A3
:1028600099278C83DF91CF9108959091400290FF3A
:1028700008C08093C9016093C8014093CA010C94B9
:10288000E91208950F931F93CF93DF9300D00F9217
:10289000CDB7DEB78C018091C70181110AC09E01BE
:1028A0002F5F3F4F4FEF6FEF0E9489088A8180931F
:1028B000C701F8016481613069F08091C70140E08F
:1028C000662361F040E0623011F44091C70180E07E
:1028D00060E004C06091C70140E080E00E943514D0
:1028E000F801848190E0019663E070E00E944C2D35
:1028F00084830F900F900F90DF91CF911F910F91D4
:102900000895CF93DF9300D00F92CDB7DEB79091AB
:10291000400290FF0AC09E012F5F3F4F0E9489082E
:102920004B8169818A810E9435140F900F900F901E
:10293000DF91CF910895CF93DF93EC01EC81F0E02C
:10294000EC53FB4F4491E0E4F2E0628181810E940C
:1029500081148C818F5F8C83DF91CF910895CF9309
:10296000DF93EC01E0E4F2E0438162818C810E941C
:1029700081148C818F5F8C83DF91CF910895CF92EA
:10298000DF92EF92FF920F931F93CF93DF9309E7AC
:1029900011E0D0E0C0E0D12CEE24E394F12CF8015A
:1029A00081918F01F894E82FE295EF70F0E021A17A
:1029B0008F70A70102C0440F551F8A95E2F7CA0124
:1029C000922F982B91A392A18095892382A378942A
:1029D00000C030911F02C7010C2E01C0880F0A945D
:1029E000EAF74C9B42C0282F20952323C12C321795
:1029F00021F020931F02CC24C394209120024E9BEF
:102A000037C080958223281721F080932002CC24A0
:102A1000C394F801319780810E94340A80EA8A9534
:102A2000F1F7DC282196C330D10509F0B8CFDD20BD
:102A300009F181E08093C4010E94CC079093C30107
:102A40008093C2018091C2019091C3010E94BD0791
:102A50000697A0F080911F0280934502809120028A
:102A6000809346021092C40109C0232F282BBECFA9
:102A7000822BC9CF8091C4018111E4CF8D2DDF91CC
:102A8000CF911F910F91FF90EF90DF90CF9008951D
:102A9000CF93FC01C281848191E09483E4ECF4E063
:102AA0003491E3E4F5E02491C33040F49091410285
:102AB0009093CB01909142029093CC01811111C06F
:102AC0001092CE011092CD0128EC31E04091CD0161
:102AD0006091CC018091CB010E948908CF910C9428
:102AE000E9128091CE01882319F181508093CE01A3
:102AF0004FEF849FC00111246091CF0170E00E94CC
:102B0000382DFB01FF27EC53FB4F8491E82FE31B8B
:102B1000E49FC0011124231B622F70E00E94382D16
:102B200080914302689FB00111247093CD01CCCFF6
:102B30000E94C82D209143022695215862E071E041
:102B4000269FA001279F500D1124452F552784173C
:102B500095070CF0B9CFC330A0F00E94C82D6FEFDD
:102B600070E00E944C2D8093CB010E94C82D2091D3
:102B700042022695622F70E00E944C2D280F209370
:102B8000CC011092CD0180914302893C30F088EC59
:102B90008093CF018093CE0197CF8431C8F784E131
:102BA000F7CF6AEE7EEF90E080E00E94172E60E0A3
:102BB00082E090E00E94F92D60E083E090E00E94C6
:102BC000F92D109218021092190210921A02109206
:102BD0001B0260E084E090E00E94F92D60E082E258
:102BE00090E00E94F92D60E085E090E00E94F92DD0
:102BF00060E086E090E00E94F92D6FEF87E090E0C2
:102C00000E94F92D40E050E0BA0188E090E00E9477
:102C10000B2E60E08DE090E00E94F92D40E050E046
:102C2000BA0188E190E00E940B2E60E087E190E01D
:102C30000E94F92D40E050E0BA018CE190E00E9442
:102C40000B2E70E060E080E290E00E94172E40E0E2
:102C500050E0BA0188E190E00E940B2E40E050E085
:102C6000BA018FE090E00E940B2E40E050E0BA01E4
:102C700083E190E00C940B2ECF92DF92EF92FF92C3
:102C80006B017C010E947A08B701A60188E090E000
:102C9000FF90EF90DF90CF900C940B2EEF92FF926D
:102CA0000F931F93CF93DF9300D00F92CDB7DEB772
:102CB000182FF62E042FE22E2091400220FF46C04E
:102CC000822F8695E82FF0E0E35EFE4F908190938F
:102CD0002B022E7F223009F043C09E012F5F3F4F11
:102CE000812F0E9489084B8169818A810E94351455
:102CF00010934102F092420200934302EE2009F445
:102D00006AC06091400270914102809142029091AC
:102D100043020E943C1680913F0280FF17C08091C1
:102D200043021F928F93809142021F928F93809152
:102D300041021F928F938AE594E09F938F930E94A4
:102D400015060FB6F894DEBF0FBECDBF0F900F90E3
:102D50000F90DF91CF911F910F91FF90EF90089509
:102D6000923019F400914302C3CF963019F41091B8
:102D70004102BECF9930D9F3993109F0B9CF8951C9
:102D8000E82FE695F0E0EA55FB4F259134919091BC
:102D90003F0290FF16C033273F932F938095817099
:102DA0001F928F931F921F931F921F928FE794E0A1
:102DB0009F938F930E9415060FB6F894DEBF0FBE47
:102DC000CDBF28EC31E0402F6F2D812F0E94890864
:102DD0000E94E9128DCF80913F0280FFB7CF1F92F2
:102DE0000F931F92FF921F921F9383E394E0A5CF4E
:102DF000E0E4F2E0438128E0421B08F440E021E0F7
:102E0000628181810C944E16E0E4F2E0438128E077
:102E1000420F08F44FEF21E0628181810C944E163D
:102E2000E0E4F2E0628128E0621B08F460E021E067
:102E3000438181810C944E16E0E4F2E0628128E047
:102E4000620F08F46FEF21E0438181810C944E16EC
:102E5000E0E4F2E0818121E04381628188500C94BA
:102E60004E16E0E4F2E0818121E043816281885FD7
:102E70000C944E1680914402882319F0815080935F
:102E8000440260914002709141028091420290910F
:102E900043020C943C1680914402833018F48F5FF7
:102EA00080934402609140027091410280914202FD
:102EB000909143020C943C16E0E4F2E083E08083BE
:102EC00011828FEF8283838314826081718182817A
:102ED00093810C943C161092160280911C01E4EA36
:102EE000F1E0882359F080911D0287FF07C08EE131
:102EF000DF011D928A95E9F70C94460F86E0F8CF22
:102F00001F93CF93DF93CDB7DEB7AA970FB6F89490
:102F1000DEBF0FBECDBF84E792E02091F100DC015F
:102F20002D93CD01B2E08C379B07B9F780917502E4
:102F3000833009F471C0B8F4813009F448C082309C
:102F400009F4B2C08091E80083FF3AC18091740215
:102F5000909175029A3008F033C1E92FF0E0E05605
:102F6000F14D0C94602D8A3009F48DC08B3009F43A
:102F700070C0893039F780917402813219F78091DD
:102F8000780290917902009711F00297D9F680911A
:102F9000E800877F8093E8008091E80082FF37C0D7
:102FA0009091F3008091F200029729F48091F10052
:102FB0008B7F813021F48091F10080934F028091CA
:102FC000E8008B778093E8000E949806BBCF809141
:102FD0007402813A09F0B6CF8091E800877F809330
:102FE000E8008091780290917902892B61F460E287
:102FF00080E592E070E00E944A078091E8008B77BC
:103000008093E8009FCF60E090E080E0F3CF809174
:1030100072028111C1CF96CF80917402813A09F07A
:1030200091CF8091780290917902892B09F08ACF13
:103030008091E800877F8093E8008091E80080FF1E
:10304000FCCF80911C018093F1008091E8008E7785
:10305000B9CF80917402813209F074CF80917802E7
:1030600090917902892B09F06DCF8091E800877FDC
:103070008093E8000E9498068091760280931C015C
:103080000E946B175FCF80917402813209F05ACF92
:103090008091E800877F8093E8000E9498068091E5
:1030A000770280934E024ECF80917402813A09F0EC
:1030B00049CF8091E800877F8093E8008091E80005
:1030C00080FFFCCF80914E02BECF803899F08238CD
:1030D00009F076C0809178028F70873008F070C058
:1030E0008093E9008091EB0085FB882780F910929E
:1030F000E90006C080917002909171029111826086
:103100009091E800977F9093E8008093F1001092EF
:10311000F1008091E8008E77BAC1882309F4A7C135
:10312000823009F04DC0809176028111ABC180914F
:1031300078028F702FEF280F263008F041C080935F
:10314000E9002091EB0020FF9DC1933031F4809184
:10315000EB0080628093EB0095C19091EB00906151
:103160009093EB0021E030E001C0220F8A95EAF74E
:103170002093EA001092EA008091EB008860EACF89
:1031800081111EC0109176021F778091E300807834
:10319000812B8093E3008091E800877F8093E80093
:1031A0000E9498068091E80080FFFCCF8091E300A8
:1031B00080688093E30082E0111183E080937202C3
:1031C0008091E80083FF0AC08091E800877F8093A8
:1031D000E8008091EB0080628093EB00AA960FB626
:1031E000F894DEBF0FBECDBFDF91CF911F91089540
:1031F0008058823028F720917602309177022C3D5A
:10320000E3E03E07A1F583E08A838AE289834FB732
:10321000F894DE01139620E03EE051E2E32FF0E067
:1032200050935700E49120FF03C0E295EF703F5F99
:10323000EF708E2F90E0EA30C0F0C7968D939D938B
:103240002F5F243159F74FBF8091E800877F80932B
:10325000E8006AE270E0CE0101960E944A07809180
:10326000E8008B778093E800ABCFC096E7CF8091E2
:10327000780290917902432F55274330510509F484
:103280004AC078F54130510509F47AC08BE790E0E7
:10329000E5EAF9E04230510509F092CF2091E800CB
:1032A000277F2093E80020917A0230917B028217D9
:1032B000930708F49C0140E02115310509F065C031
:1032C000411163C08091E80082FDC9CF80917202F4
:1032D000882329F2853019F28091E80083FFF2CF2C
:1032E000BECF4132510509F43CC04232510509F0CC
:1032F00067CF8430910508F063CFFC01EE0FFF1F0C
:10330000E057FE4F0190F081E02D84579E4FDC0185
:103310008C9190E01AC0332721303105D1F021156E
:10332000310561F02230310509F04ACFE2E3FAE0DD
:10333000E4918E2F90E0E2E3FAE007C0EAE4FAE0DD
:10334000E4918E2F90E0EAE4FAE0009709F438CF98
:10335000A5CFEEE3FAE0E4918E2F90E0EEE3FAE001
:10336000F4CF8430910508F02BCF880F991FFC0112
:10337000E856FE4F0190F081E02D89E090E08ECF7D
:1033800082E190E0E0E2FAE089CF80917202882346
:1033900009F465CF853009F462CF8091E80083FDA0
:1033A0005ECF8091E80082FD8DCF8091E80080FFA4
:1033B00083CF9091F3008091F2002115310519F02F
:1033C0008830910550F041E0089709F040E0809185
:1033D000E8008E778093E8006FCF44914093F1002E
:1033E0003196215031090196E8CF803809F0E8CEB6
:1033F0008091E800877F8093E8008091730280933A
:10340000F10087CE8111DCCE10917602123008F0E7
:10341000D7CE8091E800877F8093E80010937302F5
:103420000E949806112311F084E005C08091E3000A
:1034300087FDFACF81E08093720242E061EC81E087
:103440000E94B70642E261EC84E00E94B70642E2C5
:1034500061EC82E00E94B70642E260EC83E00E94E9
:10346000B70642E261EC85E00E94B706A9CE8091E2
:103470007602813009F0A4CE81E0933009F080E03B
:10348000809371021092E9008091E800877F809319
:10349000E8000E94980694CE9091400290FF68C088
:1034A000917081113CC09260909340026623F1F1CB
:1034B00060914002709141028091420290914302DA
:1034C0000E943C1680913F0280FF0FC08091400215
:1034D00086951F928F9387E194E09F938F930E942C
:1034E00015060F900F900F900F9060914002669517
:1034F00070E04BE050E084E091E00E94D82D892BF1
:1035000009F10E948E0E81E08093280220E0409114
:10351000430260914202809141020C944E168B321C
:1035200010F09465C1CF880F982BBECF80913F02D9
:1035300080FFDBCF8091400286951F928F9389EFA9
:1035400093E0CBCF81E080932C020E94CC07909334
:1035500026028093250280913F0280FFD4CF80EE27
:1035600093E09F938F930E9415060F900F90CBCFFF
:103570000895809140028695815009F48AE261E0C5
:103580000C944C1A8091400286958F5F8B3208F024
:1035900081E061E00C944C1A9091400290FF07C0CA
:1035A0009695981720F0961710F40C94C21A61E0C3
:1035B0000C944C1A4F925F926F927F928F929F92CF
:1035C000AF92BF92CF92DF92EF92FF920F931F9331
:1035D000CF93DF9300D000D00F92CDB7DEB77C0140
:1035E000FC0183819481892B31F080819181892331
:1035F0008F3F09F016C60F900F900F900F900F900D
:10360000DF91CF911F910F91FF90EF90DF90CF90BE
:10361000BF90AF909F908F907F906F905F904F90F2
:1036200008950E94710C182F682F89819A810E9439
:10363000060869817A81812F0E94DA0A8C01F701DC
:103640008281882309F4E2C5980122513F45203147
:10365000310508F0A8C58FEF93E00E94E52D0251D7
:1036600077E5C72ED12C882371F1809113028770E2
:1036700011F2F7018281882309F4BDCF82E00F9017
:103680000F900F900F900F90DF91CF911F910F919E
:10369000FF90EF90DF90CF90BF90AF909F908F9072
:1036A0007F906F905F904F900C94AC0FC114F4E03A
:1036B000DF06D9F2C6010E94E52D811101C001503B
:1036C0002FEFC21AD20A0111F1CF1C821B82BB2438
:1036D000B3946AE0A62E86010F5F1F4FC6010E94B9
:1036E000E52D89831A82882309F4BFCF9FEF980FB5
:1036F000933008F58A83B98232E0C30ED11CC80129
:103700000E94E52D8B83882309F4AFCF8E010F5FD4
:103710001F4FF80180818823F1F2813009F043C006
:1037200091818281913049F40E5F1F4F0E940212F5
:103730000F5F1F4FEECF6801E9CF923029F40E5F83
:103740001F4F0E944D11F4CF933029F40E5F1F4F8D
:103750000E94F30FEDCF943019F00F5F1F4FE8CFA9
:103760000E5F1F4F30E020E0B8016F5F7F4FF80120
:1037700041818053990B8A30910550F021503109D5
:10378000B8F28FE99FE00197F1F700C00000F6CF93
:10379000A29EF001A39EF00D11249C012E0F3F1F4D
:1037A000842F8B01E1CF0E948312C2CF81E00E945F
:1037B000C80F0E946D0F59CF81E00E94890FF9CF89
:1037C00082E0F5CF823041F486010E5F1F4FF80191
:1037D00084910E944D1115C5833041F486010E5F1E
:1037E0001F4FF80184910E94F30F0BC5843009F03C
:1037F00008C586010E5F1F4FF801249190E080E01C
:10380000F80131962053330B2A30310550F00197DF
:1038100008F4F7C4EFE9FFE03197F1F700C00000CA
:10382000F6CFB89EA001B99E500D1124C901840F96
:10383000951F24918F01E4CF0E9483128601E1C479
:10384000033F3CE5130709F46FC0A8F4083DECE51D
:103850001E0709F465C0093DFCE51F0709F470C0A7
:10386000073D2CE51207A9F426E241EE61EEC701FF
:103870000E941F12FACE053F3CE5130709F45CC015
:1038800008F456C027E245EE66EE063FECE51E075B
:1038900071F3882309F4D6C410927E020230FCE54D
:1038A0001F0708F42EC106312CE5120730F0C801BD
:1038B0008A5F9C45099708F024C10E94A60A90934C
:1038C0001E0280931D0200313CE5130709F4E8C095
:1038D00008F076C008309CE5190709F4D7C008F055
:1038E00045C00430FCE51F0709F4C8C060F502308C
:1038F0003CE5130709F4B8C003301C4509F4BAC00D
:1039000060911D0210911E0284E090E00E94F92D4A
:10391000612F82E290E00E94F92D0E946B17A5CEE4
:1039200027E245EE65EEA3CF26E241EE60EE9FCFA3
:1039300027E245EE64EE9BCF26E241EE62EE97CFA2
:1039400028E241E0EFCF80911D02806106309CE5C6
:10395000190709F48CC080911D02886007301C454E
:1039600008F485C080911D02806281C080911D0293
:103970008D7F0C30FCE51F0709F479C070F480914D
:103980001D028C600A303CE5130709F470C008F48E
:1039900081C080911D028E7F6AC080911D02877F49
:1039A0000E309CE5190709F462C080911D028B7FDF
:1039B0000F301C4508F45BC080911D028F7E57C0FC
:1039C0000B3FFCE51F0709F45DC030F503313CE512
:1039D000130709F46DC078F401319CE5190709F467
:1039E00063C002311C4509F08BCF0E946B17809198
:1039F0001D028F773CC00531FCE51F0709F460C04C
:103A000008F474C080911E0281600A3F1C4509F0D1
:103A100077CF80931E0274CF0F3F8CE5180709F40F
:103A20004BC088F480911E028D7F0D3FECE51E0790
:103A300081F380911E028E7F0E3F1C4550F38091D2
:103A40001E028360E6CF01302DE5120709F457C04E
:103A500008F442C060E002301D4509F051CF8EE00D
:103A600090E00E94F92D4CCF80911D0281608093DF
:103A70001D0246CF80911D028260F9CF80911D0208
:103A80008460F5CF80911E028260C3CF80911D02B9
:103A90008064EDCF0E946B1780911D028068E7CF94
:103AA00080911D028F7DE3CF80911D028F7BDFCF40
:103AB00080911D02837FDBCF80911E028C7FA9CF76
:103AC00080911D0282FB992790F921E0922790FBBB
:103AD00082F990FB83F9CBCF80911E02982F9095AD
:103AE00091708E7F892B90FB81F993CF0E946B1789
:103AF00090911D02892F97FB87F98058B8CF61E01C
:103B0000AECF8091160206319CE5190709F0A5C3D6
:103B10008A7A91E009F490E09093D401811106C073
:103B200089E20E94490E0E94440D9FCD85E3F9CFA2
:103B300085E390C380913F0280FF10C080914002D6
:103B4000809581701F928F938BE796E09F938F9360
:103B50000E9415060F900F900F900F9080914002D9
:103B600080FF2EC08E7F8093400260914002709152
:103B7000410280914202909143020E943C16809142
:103B80003F0280FF0FC08091400281701F928F938F
:103B90008CE096E09F938F930E9415060F900F90F4
:103BA0000F900F900E948E0EEFEFF0E722E0E150B1
:103BB000F0402040E1F700C000000E94E91255CD1E
:103BC00081608093400280913F0280FF0DC01F9270
:103BD00081E08F9384E496E09F938F930E94150673
:103BE0000F900F900F900F908091400261E08695AA
:103BF0000E944C1A3ACD49EB5AE162EC7AE10E94FC
:103C0000750833CD42EC5AE169EB7AE1F8CF41E334
:103C100057E168E277E1F3CF40E157E16CE177E10A
:103C2000EECF48EF56E164E077E1E9CF44E057E1B9
:103C300068EF76E1E4CF4BE457E16AE377E1DFCF69
:103C400061E081E0D5CF65E082E00E94CC1A0DCD25
:103C500068E086E0FACF64E18FE0F7CF67E185E1C5
:103C6000F4CF62E289E1F1CF61E083E2C1CF0B35AD
:103C7000FDE51F07B1F10C352DE5120741F10A35BD
:103C80001D4509F015C381E029C00E946B178FEF15
:103C900094E3ECE081509040E040E1F700C0000088
:103CA0000E94AC0790913F02892F8E7F90FF816028
:103CB00080933F0280FF05C084EC96E00E947C0563
:103CC000D4CC82EB96E0FACF0E94D115CECC809175
:103CD0001E0282FB882780F991E089270E94E10D6E
:103CE000E7C280E0FBCFC8010E94DE07D82EEFC2FA
:103CF000212F2F70A22E107F19F0A29490EFA922ED
:103D0000DD20C9F0AA2069F080E2800F883010F031
:103D100081100BC080911602A82AA09216020E9460
:103D2000440D802F0E944D1118C080911502A82AC1
:103D3000A0921502F4CF802F0E94F30FAA2069F001
:103D4000A094005E083010F081103BC080911602F4
:103D5000A822A09216020E94440DEB2DE850FF0B02
:103D6000349710F40E946908CC2009F444CC809167
:103D7000130280FD40CCF7011282859585958595CB
:103D80000E94C80FC7010E94DA1A8091130285951C
:103D9000859585950F900F900F900F900F90DF9164
:103DA000CF911F910F91FF90EF90DF90CF90BF9038
:103DB000AF909F908F907F906F905F904F900C94FA
:103DC000890F80911502A822A0921502C4CF312F2D
:103DD0003F70932E107F103219F0929480EF98224A
:103DE000882071F081E0881681F1DD20D9F1AA20C8
:103DF00091F1F701858180FF94CF8F7085832BC06F
:103E0000DD20B1F090911702892D892BA11003C0FC
:103E10000E94D70DA2CFE1E0AE12FACF20911E0290
:103E200022FD9BCF981709F498CF8093170295CF66
:103E3000A11006C00E94D807892D0E94CC0D8DCFFD
:103E4000F1E0AF1609F489CFF5CFDD2031F025E0A0
:103E50002A1508F482CF892DDBCF34E03A1508F417
:103E60007CCFEACFAA2041F3F9E38F1295C12FEF5F
:103E700037EE83E0215030408040E1F700C0000081
:103E80008BC1812F86958695837061F0813009F012
:103E900064CFC8019370D11002C090E080E00E940E
:103EA0003D085BCFC8019370D11002C090E080E064
:103EB0000E94530852CF802FDD2029F00E94DA099A
:103EC0000E949D0E4ACF0E941F09FACF812F837056
:103ED00009F066C0D11041CF802F829586958770FA
:103EE000880F880F602F6F70462E512C712C612C1B
:103EF000082E04C0440C551C661C771C0A94D2F78B
:103F000040E050E0BA0104FF0FC04FE050E060E035
:103F100070E004C0440F551F661F771F8A95D2F7C3
:103F20004095509560957095812F86958695837004
:103F3000823019F1D8F400911802109119022091E1
:103F40001A0230911B02813069F0442955296629F3
:103F50007729CB01BA0160237123822393230E9426
:103F6000E90FFBCE402A512A622A732ACB01BA01FB
:103F70006429752986299729F2CF4429552966296C
:103F80007729009118021091190220911A0230919C
:103F90001B02CB01BA016027712782279327DFCF4D
:103FA0008695DD2011F0812F8170882309F4D5CE0C
:103FB000802F829586958770880F880F602F6F708D
:103FC000462E512C712C612C082E04C0440C551C1B
:103FD000661C771C0A94D2F740E050E0BA0104FF57
:103FE0000FC04FE050E060E070E004C0440F551F88
:103FF000661F771F8A95D2F740955095609570950A
:10400000812F869586958370823019F1D8F40091BE
:104010007F021091800220918102309182028130D2
:1040200069F04429552966297729CB01BA01602313
:104030007123822393230E94630F8FCE402A512A3B
:10404000622A732ACB01BA01642975298629972926
:10405000F2CF442955296629772900917F021091D2
:1040600080022091810230918202CB01BA01602747
:10407000712782279327DFCF1F70DD2029F0812F42
:104080000E94C80F802FC4CE802F0E94CC0D812F9C
:104090000E94890F62CE802F92EF891609F454C0D6
:1040A000981578F0E0EF8E1639F1F1EF8F1609F4DC
:1040B00043C0DD2009F46BC0A11033CE812F8F7176
:1040C00040C023EF821609F444C034EF8312F1CFCD
:1040D000DD2009F451C01F71812F0E94C80F80910B
:1040E0001E0282FD07C0E8E01E9FC001112483600C
:1040F00080931302812F25C0DD20C9F084E08A154A
:1041000008F42BCE1F7161E070E080E090E004C005
:10411000660F771F881F991F1A95D2F700917F02AB
:10412000109180022091810230918202A0CF95E00F
:104130009A1508F412CEE6CF812F8F71DD2009F495
:10414000A7CF0E94C80F09CE812F8F71DD20C9F340
:104150009FCF60E070E0CB01DD2009F46CCF1F71D0
:1041600061E070E080E090E004C0660F771F881F78
:10417000991F1A95D2F75FCF81E00E94AC0FF1E052
:10418000FA1508F0EACD82E00E94AC0FE6CDAA2035
:1041900039F0893309F46BCE802F0E94F30FDDCD07
:1041A000812F8F7175CF0031FFE51F0709F4FECA1B
:1041B00001312FE5120709F403CB0E35EDE51E079B
:1041C00009F03ECB882309F450CA44EFC42E45E0E1
:1041D000D42E5AE0B52EF6018491882309F445CAFD
:1041E000813009F029CB86010F5F1F4FF8018491C0
:1041F000813009F0E7CA0F5F1F4FF80184910E94D8
:10420000021268012FEFC21AD20AE5CF00313FE552
:10421000130709F4D1CA01319FE5190771F682E04D
:10422000CCCA85E0DE01119601900D928A95E1F7E6
:10423000F701228189819A812111F3C90E94DE0749
:10424000182FF7C906311C4599F58091D4018111C9
:104250006FCC89E20E940D0E66CC82720C3C2CE57C
:10426000120709F4E8CC08F098C0063C9CE5190751
:1042700009F4CDCC08F06DC0033CFCE51F0709F440
:10428000BACC08F057C0023C3CE5130709F452CC05
:104290000E3D3CE5130709F417CD08F0E8CC0115F5
:1042A0009CE5190709F4F1CC01301C4509F4FACC5E
:1042B000F701828100811181882309F414CDC8019E
:1042C0000E94710CD82E682FC8010E940608B80100
:1042D0008D2D0E94E70A8C01882EF701D280A580DF
:1042E000A2943FE0A322809113028770A1F0CD2C0D
:1042F000DD2091F0812F807F803421F080E2800FDB
:10430000883048F082E00E94AC0F809113028770E1
:10431000CC24C3948111C12CB12EB2942FE0B222CF
:10432000FBE0FB1508F419CDEB2DF0E0E655F14D5F
:104330000C94602D043C9CE5190709F463CC48E219
:1043400057E161E377E1053CECE51E0709F457CC42
:104350009FCF093CFCE51F0709F463CC78F4073CC8
:104360003CE5130709F458CC4CE157E160E177E1F3
:10437000083C9CE5190709F442CC8ACF0A3CECE5DD
:104380001E0709F453CC4AE357E16BE477E10B3C99
:10439000FCE51F0709F433CC7BCF013D2CE5120768
:1043A00009F459CCA0F40E3C8CE5180709F44BCC69
:1043B00008F446CC0F3CECE51E0709F449CC6EE04E
:1043C00089E0003DFCE51F0709F43FCC61CF043DC7
:1043D0002CE5120709F445CC68F4023D8CE518077A
:1043E00009F43CCC61E088E1033D9CE5190709F440
:1043F000FFCB4ECF053DECE51E0709F435CC6AE254
:1044000085E20D35100709F420CC42CF1F93CF93DE
:10441000DF938091DB01807FA9F48091D80188230C
:1044200089F080910D02D091DC016091D6017091EC
:10443000D701A091D901B091DA01C62FC72316E0A8
:10444000D81304C0DF91CF911F91089590E0109789
:1044500011F0CF3F19F401968770F2CF189F9001A9
:10446000199F300D1124F901E352FE4F418147138A
:10447000F2CF40814613EFCF42814111ECCF43810F
:1044800054814A1B5B0B483C510528F78091DB01A6
:104490008F7080618093DB01F901EE51FE4F8081C6
:1044A0008F708061808386ED91E00E94DA1ADF913F
:1044B000CF911F910C943308AF92BF92CF92DF92AD
:1044C000EF92FF920F931F93CF93DF93CDB7DEB799
:1044D00061970FB6F894DEBF0FBECDBF8C0185E0AB
:1044E000F801DE011D9601900D928A95E1F7F80121
:1044F00080819181E28026EDA22E21E0B22E609192
:10450000D9017091DA016115710509F43EC130914C
:10451000D6014091D701232F24232F3F09F435C121
:10452000C380D480F090D801F601E61BF70BFF2082
:1045300009F4FBC02091DB01522F507FE83CF105CC
:1045400008F0BBC0511178C0FE2C491321C03813AC
:104550001FC0E1101DC02F7020612093DB01C50139
:104560000E94DA1A8091DB01F80185838F2D619614
:104570000FB6F894DEBF0FBECDBFDF91CF911F9174
:104580000F91FF90EF90DF90CF90BF90AF90089584
:10459000CD2829F0282F29232F3F09F014C120E02E
:1045A000F22FF170DF2E20FF3DC020910D024091CF
:1045B000DC0156E0241315C08D879E878D859E856E
:1045C0000E94B30C292F22952F702230F8F024304E
:1045D00020F59F70F9F0F8019581907FD9F4D12CE6
:1045E0001FC030E0529FF001539FF00D1124E352A1
:1045F000FE4F6181961306C06081861303C06281FD
:10460000E61210C02F5F3F4F2770D4CF9F7011F07C
:10461000882329F3805E883010F3C8010E94DA1ADB
:10462000FD2CA4CFEE2009F4A1CF8091DB018160A5
:104630008093DB01F12C9ACF491312C0381310C0BC
:10464000E1100EC0F8012583C8010E94DA1A86E045
:10465000F801A6EDB1E001900D928A95E1F786CFC1
:104660008D879E878D859E850E94BD0C882309F1CC
:10467000EE20F9F08091DB01803270F02091D601BC
:104680003091D70138872F831986DB86CA868C87BD
:10469000CE0107960E94DA1A86E0F801A6EDB1E095
:1046A00001900D928A95E1F70E940622FF24F3946F
:1046B0005DCFC8010E94DA1AF9CF51110AC086ED08
:1046C00091E00E94DA1A86E0F50111928A95E9F7E5
:1046D000B1CF49130FC038130DC0E1100BC0F80162
:1046E0002583C8010E94DA1A86E0F50111928A95A5
:1046F000E9F73CCF8D879E878D859E850E94BD0CF6
:104700008823B9F2EE20A9F28091DB01803220F2F9
:104710002091D6013091D7013A8329831B82DD8213
:10472000CC828E83CE010196B5CFE83CF105E0F650
:10473000FE2CEE2009F4BDCF491316C0381314C067
:104740008091DB0180FD83CF982F907F09F47FCF8C
:10475000F8018583903F09F477CF982F907F905F81
:104760008F70892B858370CF8D879E878D859E85E1
:104770000E94BD0C811190CF8091DB0181608093FC
:10478000DB01C8010E94DA1AF1CEEE2009F491CFC4
:104790008D879E878D859E850E94BD0CF82E88236F
:1047A00009F487CF86E0F801A6EDB1E001900D9203
:1047B0008A95E1F78091D6019091D7010E94B30CC0
:1047C0000E940622D3CE21E02E25EACE1F93CF935E
:1047D000DF93CDB7DEB767970FB6F894DEBF0FBE95
:1047E000CDBF342F4B8B252F5C8B6D8B7E8B8F8BAE
:1047F0008E899F896111109215021A8A198A3D8744
:104800002E876F87998B888B86E0FE013D96DE01AF
:10481000179601900D928A95E1F7CE0107960E94B6
:104820005C22882389F016E080910D029091DC01D2
:10483000891349C067960FB6F894DEBF0FBECDBF8F
:10484000DF91CF911F91089586E0FE013796DE013A
:10485000119601900D928A95E1F78A859B85892BA7
:1048600011F38F81988589238F3FE9F22091DC0134
:1048700030E0C90101968770992740910D024817D1
:10488000190671F40E946B171092DC0110920D0250
:1048900086E0E6EDF1E0DF011D928A95E9F7C3CFEE
:1048A00096E0929FD001939FB00D1124A352BE4F6A
:1048B000FE01319601900D929A95E1F78093DC010B
:1048C0000E943308B0CF819FC001112483529E4FB4
:1048D0000E945C22882309F4ADCF80910D0290E004
:1048E00001968770992780930D029ECF1F920F9299
:1048F0000FB60F9211242F933F934F935F936F93B3
:104900007F938F939F93AF93BF93CF93DF93EF9357
:10491000FF93D091E900DF708091EC00C82FC17047
:1049200080FDC0E81092E9008091F000877F8093BD
:10493000F00078940E9480171092E9008091F000B6
:1049400088608093F000CD2BCF70C093E900FF9179
:10495000EF91DF91CF91BF91AF919F918F917F9117
:104960006F915F914F913F912F910F900FBE0F90DC
:104970001F9018951F920F920FB60F9211242F932C
:104980003F934F935F936F937F938F939F93AF93D7
:10499000BF93EF93FF938091E10082FF15C0809158
:1049A000E20082FF11C08091E1008B7F8093E100E3
:1049B00020914C022F5F822F62E30E942C2D9923BD
:1049C00009F4BEC020934C028091DA0080FF28C019
:1049D0008091D80080FF24C08091DA008E7F809380
:1049E000DA008091D90080FFE1C080E189BD82E1D9
:1049F00089BD09B400FEFDCF81E08093720281E998
:104A000099E00E947C0580914D02811109C00E94AD
:104A10001E060E94E9068091E20084608093E20015
:104A20008091E10080FF1BC08091E20080FF17C0F1
:104A30008091E2008E7F8093E2008091E2008061AD
:104A40008093E2008091D80080628093D80019BCE6
:104A500085E08093720289E999E00E947C0580914B
:104A6000E10084FF2DC08091E20084FF29C080E135
:104A700089BD82E189BD89B5982F917080FFFBCFF8
:104A80008091D8008F7D8093D8008091E1008F7E47
:104A90008093E1008091E2008F7E8093E20080911C
:104AA000E20081608093E20080917302882309F420
:104AB00087C084E0809372028DE999E00E947C05B2
:104AC0008091E10083FF2BC08091E20083FF27C02B
:104AD0008091E100877F8093E10082E08093720201
:104AE000109273028091E1008E7F8093E1008091AB
:104AF000E2008E7F8093E2008091E20080618093EB
:104B0000E20042E060E080E00E94B7068091F000A1
:104B100088608093F00081EA99E00E947C05FF9113
:104B2000EF91BF91AF919F918F917F916F915F9125
:104B30004F913F912F910F900FBE0F901F9018959E
:104B400010924C0280914B02882309F43DCF809152
:104B500072028430C1F49091E9009F702091EC00C2
:104B6000822F817020FD80E8892B95E09093E900E9
:104B70009091EB0090FF04C09091EE0097FD08C06B
:104B80008F708093E90010924B021ECF1092F100BB
:104B90009091E80095FDFACF9091E80090FFF0CF5A
:104BA0009091E8009E779093E800EACF19BC1092AC
:104BB000720285E999E00E947C0510924D0230CF87
:104BC0008091E30087FD93E09093720275CFCDB79B
:104BD000DEB7AB970FB6F894DEBF0FBECDBF84B77C
:104BE000877F84BF0FB6F894A89580916000886194
:104BF00080936000109260000FBE80E890E00FB6D6
:104C0000F89480936100909361000FBE85B780682F
:104C100085BF85B7806885BF80E590E19093A1014D
:104C20008093A0010E941E060E94E9068091E20086
:104C300084608093E2007894809172028823A1F0CE
:104C40001091E9001F709091EC00892F817090FD08
:104C500080E8182B1092E9008091E80083FD0E9403
:104C600080171F701093E90082E084BD93E095BD2A
:104C70009AEF97BD80936E0087EF0E94340A86EF0B
:104C80000E94340A85EF0E94340A84E90E94340AA3
:104C900086E90E94340A10921F0210924502109277
:104CA00020021092460290E080E00E94F32D8A3E9E
:104CB0009E4F11F00E94D11582E090E00E94E52DF8
:104CC00080933F020E94A60A90931E0280931D02C9
:104CD0000E94BF148FE39CE90197F1F700C0000028
:104CE0000E94BF148091450280FF17C06FEF83E2DE
:104CF00090E00E94F92D6FEF84E290E00E94F92D80
:104D00006FEF85E290E00E94F92D6FEF7FEF90E06A
:104D100080E00E94172E0E94AC0783E090E00E9482
:104D2000E52D682F70E090E080E00E94E90F83E2BB
:104D300090E00E94E52D823209F017C684E290E0EF
:104D40000E94E52D833009F010C685E290E00E94B4
:104D5000E52D823209F009C6809121028111E0C05F
:104D600080913F0280FF14C082E898E09F938F9368
:104D70000E94150680913F020F900F9080FF08C09F
:104D80008CE698E09F938F930E9415060F900F90EA
:104D900090E080E00E94F32D8A3E9E4F81F080914A
:104DA0003F0280FF08C084E498E09F938F930E94A5
:104DB00015060F900F900E94D1150E945C1788E095
:104DC00090E00E94ED2D6093400270934102809329
:104DD0004202909343026E7FD1F480913F0280FFA4
:104DE00008C08BEF97E09F938F930E9415060F905A
:104DF0000F900E945C1788E090E00E94ED2D609378
:104E000040027093410280934202909343020E94B9
:104E10007A0880913F0280FF76C082EE97E09F93F0
:104E20008F930E94150680913F020F900F9080FF94
:104E30006AC08091400281701F928F9385EC97E049
:104E40009F938F930E94150680913F020F900F90C1
:104E50000F900F9080FF57C08091400286951F925F
:104E60008F938AEA97E09F938F930E941506809113
:104E70003F020F900F900F900F9080FF44C08091E1
:104E800041021F928F9380E997E09F938F930E9436
:104E9000150680913F020F900F900F900F9080FFAA
:104EA00032C0809142021F928F9386E797E09F93D2
:104EB0008F930E94150680913F020F900F900F90E4
:104EC0000F9080FF20C0809143021F928F938CE54A
:104ED00097E09F938F930E94150680913F020F9059
:104EE0000F900F900F9080FF0EC0809144021F9290
:104EF0008F9380E497E09F938F930E9415060F9005
:104F00000F900F900F9010922C028091400280FF22
:104F100004C060E086950E944C1A81E080932102D3
:104F20008098889A8198899A8FB18170799954C0B4
:104F300090E0892B80932F0282E191E090932302ED
:104F40008093220280E899E00E947C0558E1652E5A
:104F5000712C63EAE62E68E0F62E7BE9C72E78E036
:104F6000D72E80917202853071F48CE799E00E940F
:104F70007C0510E102E180917202853079F10E9496
:104F80006B170E9469080E94BF14882359F08FB7DD
:104F9000F894409147025091480260914902709103
:104FA0004A028FBF35E4832E32E0932E4DE3A42EC8
:104FB00042E0B42E10E000E00BA7F40121904F0175
:104FC000F50131905F01321053C00130110509F431
:104FD00064C201E010E0F0CF92E0ABCF80917202AA
:104FE000843011F110922402F0E40FB6F894A895E1
:104FF000609260000FBEF093600083B7817F846091
:1050000083BF83B7816083BF7894889583B78E7F91
:1050100083BF0FB6F894A895809160008861809353
:105020006000109260000FBE80917102882309F425
:10503000A2CF0E94BF148091460290914502892B15
:1050400009F499CF19BD09BD09B400FEFDCF8091C7
:10505000D8008F7D8093D8008091E000826080939B
:10506000E0008091E00081FDFCCF0E946B1783CFB0
:1050700080913F0281FD0DC0832D8225F82FF170B4
:105080003F2E80FD08C281FF3FC081E092E0392EB3
:1050900040C088EA98E00E947C051F921F92FF9210
:1050A000EF920E94150680EA98E00E947C058091AC
:1050B00045020E948E0A1F928F93DF92CF920E9428
:1050C000150689E998E00E947C051F9221E02F9344
:1050D000FF92EF920E94150680EA98E00E947C05FC
:1050E000809146020E948E0A1F928F93DF92CF9288
:1050F0000E94150689E998E00E947C050FB6F89495
:10510000DEBF0FBECDBFB8CF82FF5FCF82E024E00D
:10511000322E89A39BA59AA3232081E009F480E085
:105120008BA30E94CC078160782F9DA38CA349A1FB
:105130005AA16BA18DA10E94E623F801E35CFD4F0B
:1051400080813826308280912C028823D1F1809191
:105150002B02E0914002E695E81BE09327028230A3
:1051600009F0ACC1F0E0E853F74FE4910E2F10E0E6
:105170008BE9A82E84E1B82E80912802882361F063
:10518000109228020E94CC07909326028093250259
:1051900010922A02109229020E94CC07E091250267
:1051A000F09126028E1B9F0B8F3F9F4750F4E00F1C
:1051B000F11FF0932602E093250285E292E0F501CB
:1051C0000995E0912F02EE0FEE0FE0932F028FB1C1
:1051D00080FB442440F87999DDC180E08429E82BE4
:1051E000E0932F02EF70F0E0E458FE4F8081909141
:1051F0002E02890F80932E0220E084304CF08091A3
:105200002D028F5F80932D028AEA0E94021221E014
:1052100080912E028D3F4CF480912D02815080931D
:105220002D0289EA0E94021221E080912E02082EAE
:10523000000C990B64E070E00E944C2D80932E02CC
:10524000222359F08FB7F8944091470250914802B9
:105250006091490270914A028FBF86E0E6E3F2E076
:10526000DE01119601900D928A95E1F7B090380217
:10527000A090390210913A0200913B02109238023C
:105280001092390210923A0210923B028B2D8A2919
:1052900009F448C080913402909135020E94BD0704
:1052A0009C0190913302992309F486C3233331057D
:1052B000C8F19F3F19F09F5F90933302BB2059F0D4
:1052C0000E94BA099FEF1B140CF491E0899F802D76
:1052D000112480933802AA2059F00E94BA099FEF46
:1052E0001A140CF491E0899F802D112480933902C7
:1052F000309138023323B1F020913902222391F00A
:1053000045EB3403C0011124992309F446C190935D
:10531000380245EB240390011124332309F441C1E1
:1053200030933902812F802B09F448C080913102DB
:10533000909132020E94BD079C0190913002992306
:1053400009F435C325363105C8F19F3F19F09F5F39
:1053500090933002112359F00E9498099FEF111683
:105360000CF491E0899F802D112480933A02002350
:1053700059F00E9498099FEF10160CF491E0899F54
:10538000802D112480933B0230913A023323B1F0F7
:1053900020913B02222391F045EB3403C0011124FC
:1053A000992309F402C190933A0245EB240390013A
:1053B0001124332309F4FDC030933B02809138025D
:1053C00090913902892B90913A02892B90913B025E
:1053D000892B11F00E949D0E86E0FE013196A6E316
:1053E000B2E001900D928A95E1F70E9469089091D0
:1053F0003C02891739F10E946908182F80933C02FA
:1054000080913F0282FF1EC080FF1CC083ED98E0A8
:105410000E947C0580913F0280FF14C01F921F9361
:105420008EEC98E09F938F930E94150680913F0227
:105430000F900F900F900F9080FF04C08CEC98E0BD
:105440000E947C0580917202843009F08ACD83E04D
:105450008093E9008091E80082FF83CD8091E8008D
:1054600090E085FF06C00E943D06882309F4A5C090
:1054700091E08091E8008B778093E800992309F40C
:1054800070CDE981E150E33108F00DC1F0E0EA545C
:10549000F14D0C94602D80E03CCE8FEF8EA38FA356
:1054A00018A60E94CC078160782F9AA789A74EA1E1
:1054B0005FA168A58AA50E94E62345CE863059F4EF
:1054C000F0E0EB53F74FE4910E2F10E0BFEAAB2E64
:1054D000B4E1BB2E51CE893061F4E695F0E0EE5395
:1054E000F74FE4910E2F10E0ABE1AA2EA3E1BA2E04
:1054F00043CE8F3061F4E695F0E0E154F74FE4914C
:105500000E2F10E0F4E3AF2EF3E1BF2E35CE853140
:1055100059F4F0E0E454F74FE4910E2F10E0E8E77F
:10552000AE2EE3E1BE2E28CE08E210E056EAA52E0C
:1055300053E1B52E883109F41FCE833249F4EAEBEA
:10554000F8E00591149172E4A72E74E1B72E14CE01
:1055500004EF11E049E1A42E44E1B42E843209F4B1
:105560000BCE00ED17E038EAA32E37E0B32E8532DC
:1055700009F002CE8E2F63E00E942C2DE92FF0E07F
:10558000E954F74FE4910E2F10E068E4A62E65E190
:10559000B62EF2CD82E090E021CE81E080933802F9
:1055A000B8CE81E080933902BDCE81E080933A028B
:1055B000FCCE81E080933B0201CF00E210E0CE01FF
:1055C00001965C018091E80085FD0AC08091E800A9
:1055D0008B778093E8000E943D06882399F348CF9B
:1055E0008091F100F50181935F010150110951F79C
:1055F0003FCF1A8289E08B831AC08A81823009F4F6
:10560000CDC18330D9F1813009F04DC02FB7F89466
:1056100060914702709148028091490290914A023C
:105620002FBF0E94662D6B837C838D839E83809128
:105630007202843009F095CC1091E9001F709091AE
:10564000EC00892F817090FD80E8182B82E0809318
:10565000E9008091E80080FF0DC050E040E060E28A
:1056600070E0CE0101960E946E068091E8008E7770
:105670008093E8001F701093E90073CC809145027D
:105680008B83809146028C83D2CF8A81823059F4F9
:105690006B817C818D819E810E94662D86E290E0E7
:1056A0000E94F92DC4CF8FEF8983C1CF4C816B81CC
:1056B0008A810E94B40A9827892798279E838D8320
:1056C000B6CFAD80BE80BA24AB24BA248A810B81C8
:1056D000F6E00F9F800111242CE0829F000D111D28
:1056E00011248C8190E0880F991F080F191F6B2DD2
:1056F000C80187960E94F92D6A2DC8018896D0CFDF
:105700000E94E10C94CF8A818138C9F060F480381E
:1057100009F08DCF20E04B816091420280914102DF
:105720000E944E1684CF823809F44CC0833809F0A9
:105730007ECF20E0409143026C818B81F1CF60E00D
:105740008B810E944C1A2B8190913F0280914002E4
:1057500021111FC08E7F8093400290FF0CC01F92CA
:105760001F9286EE98E09F938F930E9415060F90EC
:105770000F900F900F900E948E0E4FEF80E792E0F7
:10578000415080409040E1F700C000000E94E912C3
:105790004ECF81608093400290FF0DC01F9281E048
:1057A0008F9380E299E09F938F930E9415060F904C
:1057B0000F900F900F908091400260E086950E94BC
:1057C0004C1A35CF8B818093440290913F0290FF19
:1057D0002ECF1F928F9389E599E09F938F930E941C
:1057E00015060F900F900F900F9021CF8A8181386E
:1057F00091F030F4803809F01ACF80914302FBCE4B
:10580000823889F0833809F012CF809141028B836E
:105810008091420238CF8091400280FF02C086957D
:10582000EACE80E0E8CE80914402E5CE609140026D
:105830007091410280914202909143020E943C1675
:10584000F6CE80E18A83F3CE83E08A8389EAD3CEE1
:105850000A811B81102701271027FE0131965F0165
:105860008C80CF01880D911D4C01C801895A9F4F32
:10587000A814B90409F4DBCE093AE3E01E0750F49A
:105880000E94E52DF50184830F5F1F4FFFEFAF1AD4
:10589000BF0AEBCFF5011482F7CF0A811B811027D5
:1058A00001271027CE0101964C01AC80A00EB12E2D
:1058B000B11CC801895A9F4FA016B10609F4B7CE92
:1058C000093AE3E01E0720F4F40164810E94F92DF7
:1058D000FFEF8F1A9F0A0F5F1F4FEBCF0E94340D0F
:1058E000A6CE84E0AFCF0A811B81102701271027A5
:1058F000CE0101965C018C80FC01E80DF11D4F0189
:10590000C8018796A814B90409F491CE0033110593
:1059100050F40E94E52DF50184830F5F1F4FFFEFC8
:10592000AF1ABF0AEDCFF5011482F7CF0A811B81B0
:10593000102701271027CE0101964C01AC80A00E44
:10594000B12EB11CC8018796A016B10609F46FCE1E
:105950000033110520F4F40164810E94F92DFFEF5A
:105960008F1A9F0A0F5F1F4FEDCF60E086E290E035
:105970000E94F92D0E94E10C0E94340D62E283E244
:1059800090E00E94F92D63E084E290E00E94F92DFE
:1059900062E285E290E00E94F92DDEC986E290E0A5
:1059A0000E94E52D1B821C821D828E8340CE2D32EB
:1059B000314008F0CCCC02CD2D32314008F07BCC08
:1059C000B1CC78941F921FB61F9211248F939F938E
:1059D000AF93BF938091470290914802A0914902F2
:1059E000B0914A020196A11DB11D80934702909388
:1059F0004802A0934902B0934A02BF91AF919F9190
:105A00008F911F901FBE1F9018951F921FB61F9257
:105A100011248F939F93AF93BF93809124028111A0
:105A200013C08091470290914802A0914902B09121
:105A30004A024196A11DB11D8093470290934802EE
:105A4000A0934902B0934A02BF91AF919F918F9169
:105A50001F901FBE1F901895991B79E004C0991FD5
:105A6000961708F0961B881F7A95C9F780950895B8
:105A7000AA1BBB1B51E107C0AA1FBB1FA617B70774
:105A800010F0A61BB70B881F991F5A95A9F7809590
:105A90009095BC01CD01089597FB072E16F4009454
:105AA00007D077FD09D00E94382D07FC05D03EF4C1
:105AB000909581959F4F0895709561957F4F0895BA
:105AC000EE0FFF1F0590F491E02D099469279627AA
:105AD000692778278727782708950E94812E332306
