:100000000C9454030C949B030C949B030C949B033F
:100010000C949B030C949B030C949B030C949B03E8
:100020000C949B030C949B030C94F2200C94AE2034
:100030000C9459270C949B030C949B030C949B03E6
:100040000C949B030C949B030C949B030C949B03B8
:100050000C949B030C9435270C949B030C949B03EA
:100060000C949B030C949B030C949B030C949B0398
:100070000C949B030C949B030C949B030C949B0388
:100080000C949B030C949B030C949B030C949B0378
:100090000C949B030C949B030C949B030C949B0368
:1000A0000C949B030C949B030C949B030501090285
:1000B000A10185020901A1000509190129081500FE
:1000C0002501950875018102050109300931158165
:1000D000257F95027508810609381581257F9501D0
:1000E00075088106050C0A38021581257F95017572
:1000F000088106C0C005010980A101850319012AF4
:10010000B700150126B700950175108100C0050CD8
:100110000901A101850419012AA002150126A002E6
:10012000950175108100C005010906A1018505052D
:100130000719E029E71500250195087501810205D9
:1001400007190029EF1500250195F07501810205B9
:10015000081901290595057501910295017503910D
:1001600001C00660FF0961A1010962150026FF00B8
:100170009520750881020963150026FF00952075FA
:10018000089102C005010906A101050719E029E748
:1001900015002501950875018102950175088101F9
:1001A0000507190029FF150026FF0095067508812F
:1001B000000508190129059505750191029501753C
:1001C000039101C0000101010101010101010202CD
:1001D00002020202020202030303030303030304F5
:1001E00004040404040405050505050606060606C0
:1001F000070707070708080808090909090A0A0A7A
:100200000B0B0B0C0C0C0D0D0D0E0E0E0F0F0F101B
:1002100010111111121213131414151516161717A5
:10022000181819191A1A1B1B1C1D1D1E1E1F202011
:10023000212222232424252626272829292A2B2C5B
:100240002D2D2E2F30313232333435363738393A7E
:100250003B3C3D3E3F404142434445464748494A76
:100260004C4D4E4F50515354555658595A5B5D5E44
:100270005F616264656668696B6C6D6F70727375DF
:1002800077787A7B7D7E8082838587888A8C8E8F43
:1002900091939596989A9C9EA0A2A3A5A7A9ABAD71
:1002A000AFB1B3B5B7BABCBEC0C2C4C6C9CBCDCF5F
:1002B000D1D4D6D8DBDDDFE2E4E7E9EBEEF0F3F50D
:1002C000F8FAFDFFFFAA7F55402223252628292A78
:1002D0002C2D2F3032333536383A3B3D3E404243A9
:1002E0004547494A4C4E5051535557595A5C5E60E8
:1002F00062646668696B6D6F71737577797B7D7FFA
:1003000081838587898A8C8E90929496989A9C9EF8
:100310009FA1A3A5A7A8AAACAEAFB1B3B4B6B8B914
:10032000BBBCBEBFC1C2C3C5C6C7C9CACBCCCDCE7C
:10033000D0D1D2D2D3D4D5D6D7D7D8D9D9DADADB5F
:10034000DBDBDCDCDCDCDCDDDDDDDDDCDCDCDCDCEB
:10035000DBDBDBDADAD9D9D8D7D7D6D5D4D3D2D22A
:10036000D1D0CECDCCCBCAC9C7C6C5C3C2C1BFBE12
:10037000BCBBB9B8B6B4B3B1AFAEACAAA8A7A5A37D
:10038000A19F9E9C9A98969492908E8C8A8987853C
:1003900083817F7D7B79777573716F6D6B6968661B
:1003A0006462605E5C5A5957555351504E4C4A49ED
:1003B00047454342403E3D3B3A3836353332302F95
:1003C0002D2C2A29282625232229001E001F002043
:1003D000002100220023002B0014001A0008001541
:1003E0000017001C00390004001600070009000A6D
:1003F000000000E1001D001B0006001900050000C0
:1004000000E0002C002C002C002C0000000000005C
:10041000000000000000002C00520000000000005E
:1004200000000000002C005100000001000100014C
:1004300000010001000100010001000100010001B4
:1004400000010001000100010001000100010001A4
:100450000001000000010001000100010001000195
:100460000000000100010001000100010000000087
:10047000000000000000000000010001000000007A
:100480000000000000000001000100000001000168
:100490000001000100010001000100010001000154
:1004A0000001000100010001000100010001000144
:1004B0000001000100000001000100010001000135
:1004C0000001000000010001000100010001000026
:1004D000000000000000000000000001000100001A
:1004E0000000000000000000000100010000000109
:1004F00000010001000100010001000100010001F4
:1005000000010001000100010001000100010001E3
:1005100000010001000100000001000100010001D4
:1005200000010001000000010001000100010001C4
:1005300000000000000000000000000000010001B9
:1005400000000000000000000000000100010000A9
:10055000000000000000000000000000000000009B
:10056000000000000000000000000000000000008B
:1005700000000000007E0F00D4FFFFFFC700000056
:100580007800000000000000002A2B280000000076
:100590000000000000000000000000002900000032
:1005A000002C1E3420212224342627252E362D37D8
:1005B00038271E1F202122232425263333362E37A9
:1005C000381F0405060708090A0B0C0D0E0F101141
:1005D00012131415161718191A1B1C1D2F3130234E
:1005E0002D350405060708090A0B0C0D0E0F101116
:1005F00012131415161718191A1B1C1D2F3130351C
:100600004C1E0F0500047F3F1F64321464321478BF
:100610003C1E1E140A0509025B00030100A0FA0932
:100620000400000103010100092111010001224021
:10063000000705810308000A090401000203000005
:100640000009211101000122220007058203200078
:100650000107050303200001090402000103000053
:100660000009211101000122B600070584032000C2
:100670000A1201100100000008EDFE100001000147
:1006800002000106036B0062000000160371006D9A
:10069000006B006200750069006C00640065007208
:1006A000000000040309040011241FBECFEFDAE0AC
:1006B000DEBFCDBF04B603FE27C08091D802909163
:1006C000D902A091DA02B091DB028730904BA740AB
:1006D000B04BD1F41092D8021092D9021092DA02E3
:1006E0001092DB0214BE84B7877F84BF0FB6F894E4
:1006F000A8958091600088618093600010926000EE
:100700000FBEE0E0F8E3099522E0A6E9B1E001C000
:100710001D92A83DB207E1F711E0A0E0B1E0EAE3E5
:10072000F2E502C005900D92A639B107D9F70E94F3
:10073000C9210C94E4280C940000E8EDF0E08081DD
:100740008E7F80831092E2001092DA001092E10016
:10075000A0EEB0E08C9181608C9380818F77808354
:1007600019BCA7EDB0E08C918E7F8C9380818F7E39
:1007700080831092A20208952091E4003091E50058
:1007800095E6A9012091EC00822F817020FF06C020
:100790008091E80080FF06C080E008952091E80085
:1007A00022FD1AC08091C702882389F0853089F024
:1007B0008091EB0085FD0FC02091E4003091E500B1
:1007C00042175307F9F29150E1F684E0089582E070
:1007D000089583E0089581E00895EF92FF920F93CA
:1007E0001F93CF937C018B010E94BC03C82F811102
:1007F00017C08091E80085FD0BC08091E8008E77DE
:100800008093E8000E94BC03882399F3C82F08C096
:10081000F70181917F018093F1000150110949F79F
:100820008C2FCF911F910F91FF90EF9008958091A1
:10083000C90287FF13C08091E80082FF06C0809143
:10084000E8008B778093E80004C08091C702811193
:10085000F2CF08958091C7028823D9F38091E800F0
:1008600080FFF8CF8091E8008E77ECCF982F90939F
:10087000E900242F762F50E0891731F07091EC00B9
:100880002091ED005091F00021FD07C09F5F97304F
:1008900071F78093E90081E008953091EB003E7F8D
:1008A0003093EB003091ED003D7F3093ED003091BF
:1008B000EB0031603093EB007093EC002093ED007F
:1008C0005093F0002091EE0027FDE0CF80E00895E6
:1008D000CF92DF92EF92FF920F931F93CF93DF930C
:1008E000C8EDD0E088818F7E8883E7EDF0E08081DD
:1008F0008160808384E082BF81E08093A20288814E
:100900008E7F888302EE10E0F80110821092DA00E8
:1009100081EEC82ED12CF601108288818F778883D2
:1009200088818068888388818F7D888319BC109234
:10093000C7021092C8021092C6021092C50290EE31
:10094000E92EF12CF70180818B7F80838881816083
:10095000888342E060E080E00E943604F6018081F6
:100960008E7F8083F80180818160808380818860B0
:100970008083F70180818E7F808388818061888376
:10098000DF91CF911F910F91FF90EF90DF90CF906B
:100990000895FC018091CF029091D00286179707AD
:1009A000A0F06115710529F49091E8009E7790936D
:1009B000E80090E06115710551F4911108C0809133
:1009C000E80082FF34C080E00895BC01F2CF80913E
:1009D000C7028823C1F18530C1F18091E80083FD11
:1009E00030C08091E80082FDEACF8091E80080FF6E
:1009F000E1CF8091F3002091F200382F611571054D
:100A000019F02830310558F091E02830310509F00F
:100A100090E02091E8002E772093E800CBCF8191E1
:100A20008093F100615071092F5F3F4FE7CF8091B4
:100A3000C702882341F0853041F08091E80083FFB0
:100A4000BECF81E0089582E0089583E0089508957F
:100A500080E008958091A40208959C014FB7F89416
:100A600080919E0290919F02A091A002B091A1025C
:100A70004FBF821B930B08952FB7F89480919E026D
:100A800090919F02A091A002B091A1022FBF089562
:100A90008091630281111092630208958091620235
:100AA00090916102892B90916002892B809398012B
:100AB000909163029923A1F0892B809398018091F2
:100AC0001C01882341F18091680287FF24C08EE1D8
:100AD000EAE9F1E090E0815000F591110E944805AB
:100AE000E0917202F09173023097E1F080911C0165
:100AF000882359F08091680287FF07C08091980190
:100B00008093990185E0809398010280F381E02D24
:100B100088E991E0099486E0DBCF21912223D9F284
:100B20009F5FD9CF089590911C019923D1F09091A6
:100B3000680297FF16C0E82FE695E695E695EE3138
:100B4000E0F4F0E0E856FE4F282F277081E090E0B7
:100B500001C0880F2A95EAF78095928189238283C4
:100B60000895EAE9F1E09191891303C0DF0111973B
:100B70001C9291E0E03AF907B1F7089590911C01B9
:100B80009923C1F09091680297FF14C0E82FE69571
:100B9000E695E695EE31F8F4F0E0E856FE4F877002
:100BA00021E030E001C0220F8A95EAF78281822B92
:100BB00082830895AAE9B1E0EFEF90E02D918217CA
:100BC00051F0EF3F19F4211101C0E92F9F5F9630DA
:100BD000A9F7EF3F09F408950E2E000CFF0BE8561D
:100BE000FE4FE6CF27E0929F800D1124982F97703B
:100BF00086958695869525E0829FF0011124E45C18
:100C0000FD4F50E040E080E0219130E0092E02C02D
:100C1000369527950A94E2F721703327042E01C0F8
:100C2000220F0A94EAF7822B4F5F5F4F4530510540
:100C300059F7089527E0929F800D1124982F9770FF
:100C400041E001C0440F9A95EAF78695869586950E
:100C500095E0899FF0011124E45CFD4F90E080E075
:100C600070E05191DF0111979B01082E02C036956B
:100C700027950A94E2F7217021952527242325271B
:100C80002C9301968530910561F7089580913B0280
:100C900090910A02981301C008958F5F8770FACF70
:100CA000882341F0809590916202892380936202AB
:100CB0000C944E050895882339F090916202982B88
:100CC000909362020C944E05089520910002309199
:100CD00001022817390771F09093010280930002F6
:100CE000E0917202F0917302309721F00084F18557
:100CF000E02D099408952091FE013091FF012817FD
:100D0000390771F09093FF018093FE01E091720228
:100D1000F0917302309721F00680F781E02D09945D
:100D20000895E0917202F0917302309721F00190E2
:100D3000F081E02D099480E00895FA01811101C04D
:100D4000FB01099480919202982F9E7F29F4817073
:100D500082608093920208958635E8F381708465FD
:100D6000F8CFAF92BF92DF92EF92FF920F931F9353
:100D7000CF93DF93082F162FE901E42FF0E0EC5317
:100D8000FE4F611110C0E4915E2F4E2F4983E8831E
:100D90005A83DF91CF911F910F91FF90EF90DF90D9
:100DA000BF90AF900895E62EF12C4491D42EE42FFD
:100DB000F0E026E0829FC00111242FEF30E0B9015E
:100DC0000E948C27802F90E0880F991F55E5569F31
:100DD000D001579FB00D11248A1B9B0B982F990FA0
:100DE000890F5901AE18BF08AE9ED001AF9EB00D5D
:100DF000BE9EB00D11245B2F189F80011124012F7E
:100E000011275901A01AB10AAE9E8001AF9E100DA4
:100E1000BE9E100D11245901A81AB108AE9CC00144
:100E2000AF9C900DBE9C900D1124892F9927281BF3
:100E3000390B2E9FC0012F9F900D3E9F900D1124C6
:100E4000E92F62307105A1F050F46115710509F4C4
:100E50009DCF6130710581F0EB2F512F97CF64301A
:100E6000710569F080F06630710509F48FCFF4CF19
:100E7000E42F4B2F592F8ACFE42F412F87CFEB2F11
:100E8000542F492F83CF4B2F5D2DE12F7FCF0E9411
:100E90003C059C019091830280918402982B21F063
:100EA0003093800220937F02909185028091860288
:100EB000982B21F030937D0220937C02E091720206
:100EC000F0917302309749F082E0809381020480B0
:100ED000F581E02D81E892E00994089590E080E0AA
:100EE0000E947B0690E080E00E94650610926102FD
:100EF000109260020E944E0586E0E1E8F2E0DF0118
:100F00001D928A95E9F710927E0210927B02109250
:100F100003020C9447076093D4027093D502809328
:100F2000D6029093D7020C946E070F931F93609193
:100F3000D4027091D5028091D6029091D7028B0194
:100F40009C01067011272227332706301105210541
:100F5000310529F468601F910F910C948B07677F0E
:100F6000FACF0F931F9341E050E060E070E004C0BF
:100F7000440F551F661F771F8A95D2F7CB01BA0120
:100F800060957095809590950091D4021091D5024E
:100F90002091D6023091D7026023712382239323BC
:100FA0001F910F910C948B0790915F02809589237C
:100FB00080935F02282F277039F4282F082E000C09
:100FC000330B9217130621F49091690292FF07C028
:100FD0008595859585950E94B10710925F020895C9
:100FE0000F931F9341E050E060E070E004C0440FB5
:100FF000551F661F771F8A95D2F78091D402909172
:10100000D502A091D602B091D7028A019B01082B8C
:10101000192B2A2B3B2BC901B8011F910F910C945E
:101020008B076093640270936502809366029093CD
:1010300067020C946E0740918302803F59F48091BF
:10104000840287FF0DC01092840241110BC01092E0
:101050007E0208C0813F81F48091840218169CF3BF
:10106000442381F08091850290918602892B09F0BA
:101070005AC010927B020895823F49F447FFF0CF97
:1010800010928302809184028111ECCFE0CF833FE4
:1010900019F41416ACF3E4CF90918502893F29F43A
:1010A0001916F4F610928502DBCF8A3F19F497FFE8
:1010B000D7CFF8CF909186028B3F29F497FFD0CFFE
:1010C00010928602CDCF8C3F19F41916CCF3C8CFFD
:1010D0009CE0980F953090F4845F990B21E030E00C
:1010E000B90102C0660F771F8A95E2F7CB018095A0
:1010F00090918202892380938202B2CF8D3F31F496
:10110000809103028E7F80930302AACF8E3F21F449
:10111000809103028D7FF7CF8F3F09F0A1CF80919F
:1011200003028B7FF0CF0895882309F459C08238D9
:1011300071F40E94910681FF53C089E30E94BE05AD
:101140000E944E0589E30E9493050C944E05833856
:1011500059F40E94910680FF43C083E50E94BE05BA
:101160000E944E0583E5EFCF843859F40E94910622
:1011700082FF36C087E40E94BE050E944E0587E4C8
:10118000E2CF9CEF980F913AF0F290E2980F9830EE
:1011900088F4877021E030E0A90102C0440F551F98
:1011A0008A95E2F7CA018095909162028923809323
:1011B0006202CBCF9BE5980F933020F490E080E063
:1011C0000C947B0698E5980F973120F490E080E02E
:1011D0000C946506803F20F00E941B080C94470782
:1011E00008958091030280FD16C081FD16C082FD26
:1011F00016C080917B028823A1F0883280F428E019
:10120000829FC001112468E270E00E94A027862F0F
:10121000672B39F0089582E0089584E0089588E00E
:10122000089581E008958091030280FD14C081FD3E
:1012300014C082FD16C080917E02882381F0843123
:1012400080F422E3829FC001112464E170E00E94D7
:10125000A027862F08958CE0089589E1089585E000
:10126000089582E30895803F31F40E941309819527
:10127000809384020895813F19F40E941309F8CFE6
:10128000823F31F40E94130981958093830208956F
:10129000833F19F40E941309F8CF893F29F40E9473
:1012A000F1088093850208958A3F21F40E94F10895
:1012B0008195F7CF8B3F31F40E94F108819580939F
:1012C000860208958C3F19F40E94F108F8CF9CE043
:1012D000980F953070F4845F990B21E030E001C0E5
:1012E000220F8A95EAF780918202822B80938202F4
:1012F00008958D3F31F48091030281608093030251
:1013000008958E3F21F4809103028260F7CF8F3FD2
:10131000B9F7809103028460F1CFF894E82FE29549
:10132000EF70F0E031A1282F2F7081E090E001C034
:10133000880F2A95EAF7982F9095932391A392A16D
:10134000892B82A3789408959091680292FF06C039
:10135000282F28712830F9F4877F846093FF06C016
:10136000282F28712831F1F4877E84612091690249
:1013700020FF06C0382F38713830D9F4877F81605C
:1013800021FF06C0282F28712831D1F4877E816182
:1013900094FD877E0895282F24712430F9F68B7FE1
:1013A0008860DCCF282F2471243101F78B7E88617F
:1013B000DDCF382F3171313019F78E7F8860E0CF63
:1013C000282F2171213121F78E7E8861E1CFCF93C3
:1013D00084E090E00E943928C82F82E290E00E94C9
:1013E0003928982F8C2FCF9108950F931F93CF9367
:1013F000DF93C42FD0E0CC0FDD1F2EE0629FC00D25
:10140000D11D112432E6839FC00DD11D1124CE01C0
:1014100087960E943928082F10E0102F0027CE0150
:1014200088960E9439289801282BC901DF91CF9115
:101430001F910F910895462F843038F4773028F4A7
:10144000673018F4672F0C94F50990E080E0089558
:10145000CF93DF930E941B0AEC0182389105A9F11A
:10146000D8F58133910509F496C048F58932910584
:1014700009F48AC08A9709F495C0C11521E5D207FD
:1014800008F0BCC0C11530E5D30708F014C1C83E50
:10149000D10508F09CC0C03ED10560F5C83AD10521
:1014A00008F087C0C53AD10508F0FDC0C130D105AC
:1014B00009F12097F9F0C430D105E0F440C085333C
:1014C000910509F45AC0C997C1F6809168028370EA
:1014D00089F0C0EED0E00EC0833E910599F170F422
:1014E000803E910501F1823E910539F680916802B6
:1014F00082FD21C0CE01DF91CF910895863E9105F6
:1015000061F1873E910571F1843E910509F0B5CFF7
:101510008091690281FFEECF80916802C7EED0E032
:1015200084FD0DC0E7CF8091680280FD12C19091CB
:10153000690290FFDFCFC3EED0E084FFDBCFD0E0C5
:10154000C0E0D8CF8091680282FD06C19091690207
:1015500090FDBFCF84FFCECFF2CF8091680283FD94
:10156000DDCFC8CF8091680283FDF9C090916902F8
:1015700091FFF0CFC4EED0E0BDCF8091680285FF2F
:10158000B9CFC9E2D0E0B6CF8091680285FFB2CF73
:10159000C5E3D0E0AFCF8091680286FFABCFCAE24F
:1015A000D0E0A8CF8091680286FFA4CFC1E3D0E04D
:1015B000A1CFCF3BD10518F6C85AD0E0CC0FDD1F24
:1015C000C55BDE4F0990D881C02DD46493CFC1157F
:1015D00040E2D40758F4C11581E0D80708F08ACF5B
:1015E000C03FD10508F4ABCFD06584CFC11590E4DE
:1015F000D90708F4A4CFDF70D06A7CCFC11525E5E8
:10160000D20700F5C11534E5D30708F08AC0C1152B
:1016100043E5D40708F071C0C11582E5D80708F486
:1016200067C0CE018370992721E030E002C0220F0D
:10163000331F8A95E2F7C695C69580E2C89FE00100
:10164000112452C0C11599E5D907A8F4C11528E5A0
:10165000D20708F06BC0C11536E5D30708F06FCF8D
:101660008C2F0E94A409C82FD0E0DC2FCC27CC27D8
:10167000DF71D0623FCFC1154AE5D40708F45BC0E3
:10168000CE0190568115904208F059CF8D2F8F7161
:101690000E94A40990E0982F882788279F719C01B9
:1016A0002C2BE901E6CFC55AD0E0C85BDE4FC881DC
:1016B000D0E0D0641FCFCE01E4E096958795EA95FF
:1016C000E1F783702C2F26952695237040E2249F06
:1016D00090011124382B8C2F8370C1E0D0E002C020
:1016E000CC0FDD1F8A95E2F7C22BD32BDC6802CF2B
:1016F000DC2FCC27C16FD06AFDCECE018370992735
:1017000021E030E002C0220F331F8A95E2F7C69530
:10171000C69590E2C99FE0011124C22BD32BDA6851
:10172000E9CEDC2FCC27C46FD06AE4CEDC2FCC27E7
:10173000C06FD06ADFCE8C2F8F700E94A40934E076
:10174000D695C7953A95E1F7CF709C2FEC01D069FB
:10175000D1CEC9E3D0E0CECEC2EED0E0CBCEC6EE45
:10176000D0E0C8CEBF92CF92DF92EF92FF920F935C
:101770001F93CF93DF938C01C090D402D090D502F9
:10178000E090D602F090D7028091640290916502B9
:10179000A0916602B0916702C82AD92AEA2AFB2AD8
:1017A000CFE1D0E0BC2ED701C6010C2E04C0B69507
:1017B000A795979587950A94D2F780FD0EC021973B
:1017C00088F7B12C8B2DDF91CF911F910F91FF9056
:1017D000EF90DF90CF90BF900895B8018C2F0E94BA
:1017E000280A019761F3EECFCF93DF93EC010E94BB
:1017F000B20BBE01DF91CF910C94280A0E94F40B2A
:10180000292F2F7092959F7092509E3078F4E92F77
:10181000F0E0EA51F74D0C94B427803F19F020F422
:10182000883E20F481E00895843FE1F380E008954C
:10183000883EC0F3813FD1F7F5CF822F86958695FC
:10184000869508956F927F928F929F92AF92BF92EA
:10185000CF92DF92EF92FF920F931F93CF93DF937C
:1018600089ECC82E83E0D82E97E9E92EF12CE70108
:10187000C256D10936011BC0F50185909490692D9F
:10188000C8010E944D28682DC80101960E944D286C
:1018900082E0A80EB11C0E5F1F4FC017D10761F781
:1018A0008EE0680E711C2E96CE15DF0529F08E0194
:1018B0000E5011095301E0CF7E0182E6E80EF11CC3
:1018C00082E6C80ED11C8FE1E81682E0F80679F6B0
:1018D000DF91CF911F910F91FF90EF90DF90CF900C
:1018E000BF90AF909F908F907F906F900895CF930F
:1018F000C0916902C2FB992790F9981781F080FB8B
:10190000C2F9C09369026091680284E090E00E948D
:101910004D286C2F82E290E0CF910C944D28CF910E
:101920000895CF93DF93CFEAD1E060E0CE010E942B
:101930004D282196C11584E0D807B9F7DF91CF91E2
:101940000895CF93DF9300D00F92CDB7DEB790917B
:10195000C702943011F589837B836A839093E900F1
:101960008FEF9091E800815095FD06C095ED9A9516
:10197000F1F700008111F5CF8091E80085FF0DC0DF
:1019800050E040E063E070E0CE0101960E94ED037C
:101990008091E8008E778093E8000F900F900F9071
:1019A000DF91CF910895BC0184E00C94A10CBC019F
:1019B00083E00C94A10C9C0184E08093E9009FEFEC
:1019C0008091E800915085FD06C085ED8A95F1F77C
:1019D00000009111F5CF8091E80085FF0CC050E028
:1019E00040E066E070E0C9010E94ED038091E800EC
:1019F0008E778093E8000895CF93DF93EC01809178
:101A00001C018823B1F18091680287FF32C060E237
:101A100084E08093E9008FEF9091E800815095FD7C
:101A200006C095ED9A95F1F700008111F5CF8091F0
:101A3000E80085FF1BC080911C0170E050E040E091
:101A4000811104C050E040E068E070E0CE010E94E7
:101A5000ED038091E8008E778093E80080E2FE013C
:101A6000A5EAB2E001900D928A95E1F7DF91CF915E
:101A7000089568E081E0CDCF81E08093E00080E2CE
:101A80008093D8001092C9008FE19EE40197F1F78E
:101A900000C0000087E090EBDC018093D8029093B7
:101AA000D902A093DA02B093DB0288E19CE00FB682
:101AB000F894A895809360000FBE90936000FFCFCC
:101AC000CF93C82F882309F4AEC08238C1F40E9496
:101AD000910681FDA8C089E30E94BE050E944E05C3
:101AE0002FEF81EE94E0215080409040E1F700C05C
:101AF000000089E30E949305CF910C944E05833832
:101B0000A1F40E94910680FD8EC083E50E94BE056F
:101B10000E944E052FEF81EE94E0215080409040CE
:101B2000E1F700C0000083E5E5CF8438A1F40E940E
:101B3000910682FD78C087E40E94BE050E944E0592
:101B40002FEF81EE94E0215080409040E1F700C0FB
:101B5000000087E4CFCF8CEF8C0F813A88F580911D
:101B60001C01882301F18091680287FF1CC0EC2FC3
:101B7000E695E695E695F0E0E856FE4F828190E026
:101B80004C2F477021E030E002C0220F331F4A95EE
:101B9000E2F782239323892B79F08C2F0E949305FF
:101BA0000E944E0509C0EAE9F1E08191C817A9F346
:101BB00021E0E03AF207C9F78C2F0E94BE059CCFC6
:101BC00080E28C0F883068F4C77021E030E001C0FB
:101BD000220FCA95EAF780916202822B80936202FB
:101BE0008BCFEBE5EC0FE33040F4F0E0E85BFE4F29
:101BF000808190E0CF910C947B06E8E5EC0FE73113
:101C000050F4F0E0EE0FFF1FE55BFE4F8081918105
:101C1000CF910C946506C03F30F08C2F0E943309A1
:101C2000CF910C944707CF9108951F93CF93DF93E3
:101C3000182FD0E0C0E0893311F4C0E5D0E0812F47
:101C40000E94600D209731F4812FDF91CF911F9179
:101C50000C9494088FE99FE00197F1F700C0000011
:101C60002197F0CF0F931F93CF93DF93C62FD42FDD
:101C7000022FFC0182818823A1F06093D3020E948D
:101C80003C059093D2028093D102C77081E001C0DD
:101C9000880FCA95EAF7DF91CF911F910F910C94AD
:101CA0005B068091D302681335C08091D102909178
:101CB000D2020E942D05883C910560F510E21D0FAF
:101CC000CD17B9F080E28C0F883040F4C77081E006
:101CD00001C0880FCA95EAF70E945006183048F4F0
:101CE00081E09D2F977001C0880F9A95EAF70E94B6
:101CF0005B06802F0E94150E183098F4D77081E093
:101D000001C0880FDA95EAF7DF91CF911F910F910B
:101D10000C945006C77081E001C0880FCA95EAF79D
:101D2000F3CFDF91CF911F910F910895809192028F
:101D300080FD0AC0EEEBF1E0118210821282339630
:101D400051E0E63DF507C1F7559A3BB13F7D2BB118
:101D500020624FB7F8948EEB91E0FC015191CF01D6
:101D600068E02BB9000000C057FF3BB9550F0000D9
:101D700000C000C000C03BB900C06A9591F7F1E017
:101D8000863D9F0751F74FBF8FE594E00197F1F72C
:101D900000C000000895EF92FF921F93CF93DF934E
:101DA000EC018EEBE82E81E0F82E10E08C8197019B
:101DB0004091950260919402810F0E94B106115EDC
:101DC00083E0E80EF11C183F89F70E94960E9A8175
:101DD0008C8190FF08C08F5F8C83DF91CF911F9122
:101DE000FF90EF9008958150F7CFCF92DF92EF925E
:101DF000FF920F931F93CF93DF93FC018281DD2429
:101E0000DA9480FD02C0DD24D394CEEBD1E010E063
:101E100000E0198218821A8294E0E92EF12CC12C7C
:101E20008091BB018C0D8930CCF18770082E000C9D
:101E3000990B8017910791F4809195028E9DA001D6
:101E40008F9D500D112455954795559547959E01A9
:101E500060919402809193020E94B106CD0CF1E052
:101E6000EF1AF108E9F60F5F1F4F239608301105AE
:101E700081F60E94960E8091BB0191E0D91214C0A8
:101E8000811110C087E08093BB01DF91CF911F913A
:101E90000F91FF90EF90DF90CF90089587FFC6CF0E
:101EA000885FC4CF8150EFCF90E00196877099276B
:101EB000EACF0F931F93CF93DF93CEEBD1E0FE01D8
:101EC000118210821282339681E0E63DF807C1F755
:101ED00010E000E08091BC01082E000C990B08175F
:101EE00019078CF180911001082E000C990B8017B6
:101EF00091074CF19E01409195026091940280916E
:101F000093020E94B1060F5F1F4F23960830110500
:101F100009F70E94960E80910F019091BC01980FD5
:101F20009093BC0120911001280F209310011216EC
:101F300014F497301CF0819580930F01DF91CF91BD
:101F40001F910F910895198218821A82DCCF8F9207
:101F50009F92AF92BF92CF92DF92EF92FF920F9338
:101F60001F93CF93DF93EC014C81042F10E0980175
:101F7000D8010E94D5289B01AC010E94A0284B01EA
:101F80005C01E0E2F0E0E01BF10BA5E5B0E0AC01A4
:101F90009B010E94A0286B017C019F01DF010E9430
:101FA000C1279B01AC010E94AB289B01AC01280D0D
:101FB000391D4A1D5B1DC701B6010E94B328F22ED0
:101FC000822F90E039E23F15D8F143E0249F900141
:101FD000112435952795122F10959EEBC92E91E06F
:101FE000D92E00E085E5E82EEF188E2D01FD8F2D0E
:101FF0009601412F609194020E94B1060F5F53E059
:10200000C50ED11C083089F70E94960E9C8181E094
:10201000992319F0903219F48FEF80931101809178
:102020001101890F8C83DF91CF911F910F91FF9048
:10203000EF90DF90CF90BF90AF909F908F900895DA
:1020400025E530E0A901481B590BCA019A01220F6E
:10205000331F280F391F37FFBCCF2F5F3F4FB9CF3A
:10206000EF92FF920F931F93CF93DF938C01CEEBF0
:10207000D1E0F12CE12CF8019481609194028091DF
:102080009302F4E0EF16F104FCF49923F9F09E01B9
:10209000409195020E94B1062FEFE21AF20A2396B0
:1020A00088E0E816F10439F70E94960EF801848161
:1020B00090E00196817099278483DF91CF911F91E1
:1020C0000F91FF90EF900895992309F39E0140E04E
:1020D000E1CF9091920290FF0CC0EEEBF1E0818392
:1020E00060834283339691E0E63DF907C1F70C9493
:1020F000960E08950F931F93CF93DF9300D00F9206
:10210000CDB7DEB78C018091BD0181110AC09E015F
:102110002F5F3F4F4FEF6FEF0E94B1068A81809390
:10212000BD01F8016481613069F08091BD0140E03A
:10213000662361F040E0623011F44091BD0180E01F
:1021400060E004C06091BD0140E080E00E94691041
:10215000F801848190E0019663E070E00E94A0277E
:1021600084830F900F900F90DF91CF911F910F916B
:102170000895CF93DF9300D00F92CDB7DEB7909143
:10218000920290FF0AC09E012F5F3F4F0E94B1064E
:102190004B8169818A810E9469100F900F900F9086
:1021A000DF91CF910895CF93DF93EC01EC81F0E0C4
:1021B000E753FD4F4491E2E9F2E0628181810E94A0
:1021C000B9108C818F5F8C83DF91CF910895CF936D
:1021D000DF93EC01E2E9F2E0438162818C810E94AD
:1021E000B9108C818F5F8C83DF91CF910895AF926E
:1021F000BF92CF92DF92EF92FF920F931F93CF93F4
:10220000DF93C9E7D1E08AE6C82E82E0D82E90E8B5
:10221000E92E91E0F92EB12C01E010E08991F894BB
:10222000E82FE295EF70F0E021A18F70A80102C0C5
:10223000440F551F8A95E2F7CA01922F982B91A35C
:1022400092A18095892382A3789400C0E0E8F1E010
:1022500030E020E0A12C4191A42FA295AF70B0E016
:1022600090968C9190E04F7002C0959587954A9515
:10227000E2F780FD54C0802F022E01C0880F0A941F
:10228000EAF7A82A2F5F3F4F2730310521F7FE01DB
:10229000319780810E948D0950EA5A95F1F7F60135
:1022A0008081A816F1F1A08281E0B82AFFEFCF1A51
:1022B000DF0AEC16FD0609F0B1CFBB20A1F181E0E9
:1022C0008093BA010E943C059093B9018093B801B4
:1022D0008091B8019091B9010E942D05069738F1BF
:1022E00080916A028093970280916B02809398029A
:1022F00080916C028093990280916D0280939A0282
:1023000080916E0280939B0280916F0280939C0269
:102310008091700280939D021092BA0108C080E003
:10232000B0CF80E0C2CF8091BA018111D1CF8B2D87
:10233000DF91CF911F910F91FF90EF90DF90CF90A1
:10234000BF90AF9008954F925F926F927F928F925D
:102350009F92AF92BF92CF92DF92EF92FF920F9334
:102360001F93CF93DF93FC016280448081E08483DC
:10237000E9ECF2E07490E8E4F3E0E491C6EDD1E03A
:102380003EEBE32E31E0F32E4EEFC42E41E0D42E8F
:1023900052E0A52EBB24B39488248A94912C552412
:1023A0005A94E7190E2F10E082E0861530F08091E4
:1023B00093028883809194028983411021C01B82FB
:1023C0001A8297014A81698188810E94B106259607
:1023D00083E0E80EF11CCC16DD0631F7DF91CF91DA
:1023E0001F910F91FF90EF90DF90CF90BF90AF9033
:1023F0009F908F907F906F905F904F900C94960E6F
:102400008B818823E9F081508B83859DC001112445
:102410006C8170E00E948C27FB01FF27E753FD4F82
:102420008491E82FE719E59DC0011124B8010E94AD
:102430008C2780919502689FB00111247A83C1CFC7
:102440000E941C2820919502269521582A9DA001C2
:102450002B9D500D1124452F5527841795070CF0FF
:10246000B0CF82E0861588F40E941C28B4010E9437
:10247000A02788830E941C28209194022695622F11
:1024800070E00E94A027280F29831A82809195026C
:10249000893C20F088EC8C838B8393CF8431D8F7F0
:1024A00084E1F9CF6AEE7EEF90E080E00E946B2835
:1024B00060E082E090E00E944D2860E083E090E0E0
:1024C0000E944D28109264021092650210926602DA
:1024D0001092670260E084E090E00E944D2860E086
:1024E00082E290E00E944D2860E085E090E00E944A
:1024F0004D2860E086E090E00E944D286FEF87E075
:1025000090E00E944D2840E050E0BA0188E090E061
:102510000E945F2860E08DE090E00E944D2840E03E
:1025200050E0BA0188E190E00E945F2860E087E116
:1025300090E00E944D2840E050E0BA018CE190E02C
:102540000E945F2870E060E080E290E00E946B28CB
:1025500040E050E0BA0188E190E00E945F2840E04E
:1025600050E0BA018FE090E00E945F2840E050E028
:10257000BA0183E190E00C945F28CF92DF92EF9252
:10258000FF926B017C010E94A206B701A60188E0C0
:1025900090E0FF90EF90DF90CF900C945F287F92B7
:1025A0008F929F92AF92BF92CF92DF92EF92FF9263
:1025B0000F931F93CF93DF9300D00F92CDB7DEB769
:1025C000182FD62E042FC22E9091920290FF29C070
:1025D000E92FE695AE2FB0E0A35EBE4F8C918093BD
:1025E00090029E7F923071F59E012F5F3F4F812FA9
:1025F0000E94B1064B8169818A810E946910109303
:102600009302D092940200939502CC2051F06091F5
:1026100092027091930280919402909195020E948F
:10262000BD120F900F900F90DF91CF911F910F91DE
:10263000FF90EF90DF90CF90BF90AF909F908F90E2
:102640007F900895823019F400919502D8CF86309A
:1026500019F410919302D3CF8930D9F3893179F6E7
:10266000E9512E2F2170722EE695F0E0EC53FD4FCC
:102670008590949099243EEBE32E31E0F32EB12C1B
:10268000A12CC50123E0969587952A95E1F7711055
:1026900013C0810F9701402F6D2D0E94B106A80C29
:1026A000B91C83E0E80EF11C26EDE21621E0F206EB
:1026B00041F70E94960EA3CF212F281B822FEACF2D
:1026C000E2E9F2E0438128E0421B08F440E021E027
:1026D000628181810C94CF12E2E9F2E0438128E02B
:1026E000420F08F44FEF21E0628181810C94CF12F8
:1026F000E2E9F2E0628128E0621B08F460E021E098
:10270000438181810C94CF12E2E9F2E0628128E0FA
:10271000620F08F46FEF21E0438181810C94CF12A6
:10272000E2E9F2E0818121E04381628188500C94EA
:10273000CF12E2E9F2E0818121E043816281885F8A
:102740000C94CF1280919602882319F081508093C7
:1027500096026091920270919302809194029091FE
:1027600095020C94BD1280919602833018F48F5F0D
:1027700080939602609192027091930280919402EC
:10278000909195020C94BD12E2E9F2E083E080831F
:1027900011828FEF828383831482608171818281B1
:1027A00093810C94BD121092620280911C01EAE99F
:1027B000F1E0882359F08091680287FF07C08EE11D
:1027C000DF011D928A95E9F70C946E0786E0F8CF39
:1027D0001F93CF93DF93CDB7DEB7AA970FB6F894C8
:1027E000DEBF0FBECDBF89EC92E02091F100DC018D
:1027F0002D93CD01B2E0813D9B07B9F78091CA02CC
:10280000833009F471C0B8F4813009F448C08230D3
:1028100009F4B2C08091E80083FF3AC18091C902F7
:102820009091CA029A3008F033C1E92FF0E0EC50E1
:10283000F74D0C94B4278A3009F48DC08B3009F41D
:1028400070C0893039F78091C902813219F78091BF
:10285000CD029091CE02009711F00297D9F68091A7
:10286000E800877F8093E8008091E80082FF37C00E
:102870009091F3008091F200029729F48091F10089
:102880008B7F813021F48091F1008093A4028091AC
:10289000E8008B778093E8000E941704BBCF8091FB
:1028A000C902813A09F0B6CF8091E800877F809312
:1028B000E8008091CD029091CE02892B61F460E214
:1028C00085EA92E070E00E94C9048091E8008B776D
:1028D0008093E8009FCF60E090E080E0F3CF8091AC
:1028E000C7028111C1CF96CF8091C902813A09F008
:1028F00091CF8091CD029091CE02892B09F08ACFA1
:102900008091E800877F8093E8008091E80080FF55
:10291000FCCF80911C018093F1008091E8008E77BC
:10292000B9CF8091C902813209F074CF8091CD0274
:102930009091CE02892B09F06DCF8091E800877FBE
:102940008093E8000E9417048091CB0280931C01C1
:102950000E94D3135FCF8091C902813209F05ACF10
:102960008091E800877F8093E8000E94170480919F
:10297000CC028093A3024ECF8091C902813A09F024
:1029800049CF8091E800877F8093E8008091E8003C
:1029900080FFFCCF8091A302BECF803899F08238AF
:1029A00009F076C08091CD028F70873008F070C03A
:1029B0008093E9008091EB0085FB882780F91092D5
:1029C000E90006C08091C5029091C6029111826013
:1029D0009091E800977F9093E8008093F100109227
:1029E000F1008091E8008E77B5C1882309F4A2C177
:1029F000823009F04DC08091CB028111A6C1809137
:102A0000CD028F702FEF280F263008F041C0809341
:102A1000E9002091EB0020FF98C1933031F48091C0
:102A2000EB0080628093EB0090C19091EB0090618D
:102A30009093EB0021E030E001C0220F8A95EAF785
:102A40002093EA001092EA008091EB008860EACFC0
:102A500081111EC01091CB021F778091E300807816
:102A6000812B8093E3008091E800877F8093E800CA
:102A70000E9417048091E80080FFFCCF8091E30062
:102A800080688093E30082E0111183E08093C702A5
:102A90008091E80083FF0AC08091E800877F8093DF
:102AA000E8008091EB0080628093EB00AA960FB65D
:102AB000F894DEBF0FBECDBFDF91CF911F91089577
:102AC0008058823028F72091CB023091CC022C3DE7
:102AD000E3E03E07A1F583E08A838AE289834FB76A
:102AE000F894DE01139620E03EE051E2E32FF0E09F
:102AF00050935700E49120FF03C0E295EF703F5FD1
:102B0000EF708E2F90E0EA30C0F0C7968D939D93C2
:102B10002F5F243159F74FBF8091E800877F809362
:102B2000E8006AE270E0CE0101960E94C90480913B
:102B3000E8008B778093E800ABCFC096E7CF809119
:102B4000CD029091CE02432F55274330510509F411
:102B50004AC078F54130510509F47AC08BE590E020
:102B6000E6E1F6E04230510509F092CF2091E8000D
:102B7000277F2093E8002091CF023091D002821766
:102B8000930708F49C0140E02115310509F065C068
:102B9000411163C08091E80082FDC9CF8091C702D6
:102BA000882329F2853019F28091E80083FFF2CF63
:102BB000BECF4132510509F43CC04232510509F003
:102BC00067CF8330910508F063CFFC01EE0FFF1F44
:102BD000E657FE4F0190F081E02D89579E4FDC01B2
:102BE0008C9190E01AC0332721303105D1F02115A6
:102BF000310561F02230310509F04ACFE3E8F6E013
:102C0000E4918E2F90E0E3E8F6E007C0E3EAF6E017
:102C1000E4918E2F90E0E3EAF6E0009709F438CFD4
:102C2000A5CFEBE8F6E0E4918E2F90E0EBE8F6E03C
:102C3000F4CF8330910508F02BCF880F991FFC014A
:102C4000E057FE4F0190F081E02D89E090E08ECFBB
:102C500082E190E0E1E7F6E089CF8091C702882326
:102C600009F465CF853009F462CF8091E80083FDD7
:102C70005ECF8091E80082FD8DCF8091E80080FFDB
:102C800083CF9091F3008091F2002115310519F066
:102C90008830910550F041E0089709F040E08091BC
:102CA000E8008E778093E8006FCF44914093F10065
:102CB0003196215031090196E8CF803809F0E8CEED
:102CC0008091E800877F8093E8008091C80280931C
:102CD000F10087CE8111DCCE1091CB02123008F0CA
:102CE000D7CE8091E800877F8093E8001093C802D8
:102CF0000E941704112311F084E005C08091E300C5
:102D000087FDFACF81E08093C70242E061EC81E069
:102D10000E94360442E261EC84E00E94360442E202
:102D200061EC82E00E94360442E260EC83E00E94A3
:102D30003604AECE8091CB02813009F0A9CE81E07D
:102D4000933009F080E08093C6021092E9008091F0
:102D5000E800877F8093E8000E94170499CE909145
:102D6000920290FF3DC09170811129C092609093B2
:102D70009202662351F060919202709193028091C9
:102D80009402909195020E94BD1260919202669504
:102D900070E04BE050E084E091E00E942C28892B09
:102DA000A9F01092910281E08093780220E0409196
:102DB000950260919402809193020C94CF128B3211
:102DC00010F09465D4CF880F982BD1CF81E08093F9
:102DD00091020E943C059093760280937502E3CFA6
:102DE0000895809192028695815009F48AE261E00B
:102DF0000C94AF168091920286958F5F8B3208F00B
:102E000081E061E00C94AF169091920290FF07C0B0
:102E10009695981720F0961710F40C94FA1661E026
:102E20000C94AF163F924F925F926F927F928F9267
:102E30009F92AF92BF92CF92DF92EF92FF920F9349
:102E40001F93CF93DF9300D000D00F92CDB7DEB7A2
:102E50008C01FC0183819481892B31F080819181E7
:102E600089238F3F09F0FCC50F900F900F900F90B2
:102E70000F90DF91CF911F910F91FF90EF90DF9016
:102E8000CF90BF90AF909F908F907F906F905F900A
:102E90004F903F9008950E94B20BF82E682F8981C1
:102EA0009A810E941A0669817A818F2D0E941B0ADD
:102EB0007C01F8018281882309F4C5C5970122515C
:102EC0003F452031310508F091C58FEF93E00E9416
:102ED0003928FEEEEF0E5FEA852E9924939488231D
:102EE00081F180915F02877009F4BECFF801828181
:102EF000882309F4B9CF82E00F900F900F900F90C4
:102F00000F90DF91CF911F910F91FF90EF90DF9085
:102F1000CF90BF90AF909F908F907F906F905F9079
:102F20004F903F900C94D407811424E09206C9F28C
:102F3000C4010E943928811101C0EA943FEF831A2D
:102F4000930AE110F1CF1C821B82442443944AE08F
:102F5000342E74018FEFE81AF80AC4010E94392850
:102F600089831A82882309F4BCCF9FEF980F93308E
:102F700000F58A83498292E0890E911CC7010E9464
:102F800039288B83882309F4ACCFFE0131967F0169
:102F9000F70120812223E9F2213009F049C0918113
:102FA0008281913041F4F2E0EF0EF11C0E94150E87
:102FB00009C04701EACF923049F422E0E20EF11C49
:102FC0000E94600D3FEFE31AF30AE2CF933031F431
:102FD00032E0E30EF11C0E949408F4CF943021F00B
:102FE0008FEFE81AF80AEECF92E0E90EF11C30E01C
:102FF00020E0B7016F5F7F4FF70141818053990B4C
:103000008A30910550F021503109E0F28FE99FE0BC
:103010000197F1F700C00000F6CF329EF001339E19
:10302000F00D11249C012E0F3F1F842F7B01E1CF57
:10303000E22FF0E0EF57FA4F5490822F8695869555
:10304000869590E0FC01EF58FA4F64902770712C40
:10305000022E02C0759467940A94E2F7E1E06E22B2
:103060007724FC01EF59FA4FA490B12C022E02C034
:10307000B594A7940A94E2F7F1E0AF22BB24FC01D7
:10308000EF5AFA4FC490D12C02C0D594C7942A9518
:10309000E2F721E0C222DD246114710419F081EE0F
:1030A0000E94600DA114B10419F086EE0E94600D1B
:1030B000852D0E94150EAB2819F086EE0E9494080B
:1030C000672819F081EE0E949408CD2809F47ACF80
:1030D0008CE26CCF81E00E94F0070E94950701CF3F
:1030E00081E00E94B107F9CF82E0F5CF95EFE916B4
:1030F0009CE5F90609F469C008F463C027E245EECF
:1031000066EEF6EFEF16FCE5FF0609F498C4882397
:1031100009F4B7C41092D30222E0E2162CE5F206BD
:1031200008F44CC136E1E3163CE5F30630F0C70184
:103130008A5F9C45099708F041C10E94E709909376
:1031400069028093680280E1E8168CE5F80609F4CC
:1031500004C108F083C0E8E0EE16ECE5FE0609F4D1
:10316000EEC008F04FC024E0E2162CE5F20609F4A8
:10317000DEC090F582E0E8168CE5F80609F4D1C0CF
:1031800080916802826093E0E9169CE5F90609F4F3
:10319000CBC060916802F090690284E090E00E94E8
:1031A0004D286F2D82E290E00E944D280E94D3139B
:1031B00098CE27E245EE65EE42C426E241EE60EE8F
:1031C0003EC427E245EE64EE3AC426E241EE62EEEA
:1031D00036C428E241E0EFCF809168028061E6E0EA
:1031E000EE16ECE5FE0609F49FC080916802886047
:1031F000F7E0EF16FCE5FF0608F496C08091680240
:10320000806292C0809168028D7F2CE0E2162CE5EE
:10321000F20609F489C060F48AE0E8168CE5F80645
:1032200009F497C008F48FC0809168028E7F7CC03B
:1032300080916802877FEEE0EE16ECE5FE0609F469
:1032400073C0809168028B7FFFE0EF16FCE5FF06FC
:1032500008F46AC0809168028F7E66C02BEFE21688
:103260002CE5F20609F467C068F583E1E8168CE501
:10327000F80609F47AC090F4E1E1EE16ECE5FE06FA
:1032800009F46FC0F2E1EF16FCE5FF0609F081CF0B
:103290000E94D313809168028F7746C025E1E21621
:1032A0002CE5F20609F469C008F47DC08AEFE8163F
:1032B0008CE5F80609F06DCF8091690281608093FA
:1032C000690267CF9FEFE9169CE5F90609F451C042
:1032D000A0F4809169028D7FFDEFEF16FCE5FF06FB
:1032E00071F3809169028E7F2EEFE2162CE5F206D3
:1032F00030F3809169028360E2CF31E0E3163DE56F
:10330000F30609F459C008F444C060E092E0E916FD
:103310009DE5F90609F03DCF8EE090E00E944D2832
:1033200038CF8091680281608093680232CF8091AB
:1033300068028460F9CF809169028260C0CF809179
:1033400068028064F1CF0E94D31380916802806884
:10335000EBCF809168028C60E7CF809168028F7D0F
:10336000E3CF809168028F7BDFCF80916802837FFB
:10337000DBCF809169028C7FA2CF8091680282FBB3
:10338000992790F921E0922790FB82F990FB83F92D
:10339000CBCF80916902982F909591708E7F892B69
:1033A00090FB81F98CCF0E94D31390916802892FF2
:1033B00097FB87F98058B8CF61E0AECF8091620269
:1033C000E6E1EE16ECE5FE0609F068C38A7A91E0C4
:1033D00009F490E090930202811106C089E20E94F4
:1033E000BE050E944E057DCD85E3F9CF85E353C32D
:1033F0008091920280FF1BC08E7F80939202609129
:1034000092027091930280919402909195020E9491
:10341000BD1210929102FFEF20E732E0F150204000
:103420003040E1F700C000000E94960E5ACD816046
:103430008093920261E086950E94AF1652CD41EFD3
:1034400056E16AEF76E10E949D064BCD4AEF56E1C8
:1034500061EF76E1F8CF49E953E160E973E1F3CF39
:1034600048E753E164E873E1EECF40E653E16CE6F0
:1034700073E1E9CF4CE653E160E673E1E4CF43EB5F
:1034800053E162EA73E1DFCF61E081E0D5CF65E02F
:1034900082E00E94041725CD68E086E0FACF64E15F
:1034A0008FE0F7CF67E185E1F4CF62E289E1F1CF08
:1034B00061E083E2C1CF2BE5E2162DE5F20611F1C2
:1034C0003CE5E3163DE5F30609F01AC38091690275
:1034D00082FB882780F991E089270E94770C10C32E
:1034E0000E94D3138FEF94E3ECE081509040E040D2
:1034F000E1F700C000000E943C0D0E945212F1CC86
:1035000081E0EBCF80E0E9CFC7010E94F205D82E21
:1035100006C32F2D2F70A22E8F2D807F19F0A2941D
:1035200090EFA922DD20C9F0AA2069F080E28E0D7B
:10353000883010F081100BC080916202A82AA092FE
:1035400062020E944E058E2D0E94600D19C080916E
:103550006102A82AA0926102F4CF8E2D0E949408E5
:10356000AA2071F0A09480E28E0D883010F08110B6
:103570003DC080916202A822A09262020E944E0584
:10358000232D2850330B2430310510F40E9491066E
:10359000CC2009F469CC80915F0280FD65CCF801F4
:1035A00012828595859585950E94F007C8010E9435
:1035B000121780915F028595859585950F900F90E4
:1035C0000F900F900F90DF91CF911F910F91FF906F
:1035D000EF90DF90CF90BF90AF909F908F907F90B3
:1035E0006F905F904F903F900C94B1078091610273
:1035F000A822A0926102C2CF3F2D3F70932E8F2D43
:10360000807F803219F0929480EF9822882071F0A8
:1036100081E0881681F1DD20D9F1AA2091F1F8012D
:10362000858180FF90CF8F7085832BC0DD20B1F026
:1036300090916302892D892BA11003C00E945B0623
:103640009FCFE1E0AE12FACF2091690222FD98CF20
:10365000981709F495CF8093630292CFA11006C00A
:103660000E944805892D0E9450068ACFF1E0AF16CE
:1036700009F486CFF5CFDD2031F025E02A1508F4D6
:103680007FCF892DDBCF34E03A1508F479CFEACF2C
:10369000AA2041F3F9E38F1209C02FEF37EE83E040
:1036A000215030408040E1F700C000008E2D0E9484
:1036B000940866CF8F2D86958695837061F0813052
:1036C00009F05ECFC7019370D11002C090E080E096
:1036D0000E94650655CFC7019370D11002C090E0DB
:1036E00080E00E947B064CCF8E2DDD2029F00E94C9
:1036F00033090E94470744CF0E941B08FACF8F2D41
:10370000837009F066C0D1103BCF8E2D82958695CF
:103710008770880F880F6E2D6F70462E512C712C7C
:10372000612C082E04C0440C551C661C771C0A949E
:10373000D2F740E050E0BA01E4FE0FC04FE050E0A5
:1037400060E070E004C0440F551F661F771F8A9524
:10375000D2F740955095609570958F2D86958695FA
:103760008370823019F1D8F48090640290906502E1
:10377000A0906602B0906702813069F04429552913
:1037800066297729CB01BA01682179218A219B21F9
:103790000E941108F5CE482859286A287B28CB01B9
:1037A000BA016429752986299729F2CF4429552918
:1037B0006629772940906402509065026090660205
:1037C00070906702CB01BA0164257525862597257F
:1037D000DFCF8695DD2011F08F2D8170882309F4CD
:1037E000CFCE8E2D829586958770880F880F6E2D8F
:1037F0006F70462E512C712C612C082E04C0440C85
:10380000551C661C771C0A94D2F740E050E0BA01C0
:10381000E4FE0FC04FE050E060E070E004C0440FF1
:10382000551F661F771F8A95D2F740955095609572
:1038300070958F2D869586958370823019F1D8F416
:103840008090D4029090D502A090D602B090D7027A
:10385000813069F04429552966297729CB01BA01BD
:10386000682179218A219B210E948B0789CE4828D3
:1038700059286A287B28CB01BA0164297529862931
:103880009729F2CF44295529662977294090D402F7
:103890005090D5026090D6027090D702CB01BA0149
:1038A0006425752586259725DFCF9F2D9F70F92EDE
:1038B000DD2029F0892F0E94F0078E2DBFCE8E2D9E
:1038C0000E9450068F2D0E94B1075ACE8E2DE2EF36
:1038D0008E1609F457C0E81578F0F0EF8F1649F10D
:1038E00021EF821609F446C0DD2009F46FC0A11053
:1038F0002ACE8F2D8F7143C033EF831609F447C052
:1039000094EF8912F1CFDD2009F455C02F2D2F71CE
:10391000F22E822F0E94F0078091690282FD07C07B
:1039200038E0F39EC0011124836080935F028F2DE5
:1039300026C0DD20D1F0E4E0EA1508F421CE2F2DD9
:103940002F7161E070E080E090E004C0660F771FA7
:10395000881F991F2A95D2F74090D4025090D50223
:103960006090D6027090D7029BCFF5E0FA1508F46C
:1039700007CEE5CF8F2D8F71DD2009F4A4CF0E94F3
:10398000F007FECD8F2D8F71DD20C9F39CCF60E055
:1039900070E0CB01DD2009F467CF2F2D2F7161E09E
:1039A00070E080E090E004C0660F771F881F991FC9
:1039B0002A95D2F759CF81E00E94D40781E08A1579
:1039C00008F0DECD82E00E94D407DACDAA2059F0BB
:1039D000893309F06BCE9FEFE7EEF3E09150E040C2
:1039E000F040E1F761CE8F2D8F716DCFF0E1EF16D2
:1039F000FFE5FF0609F46ECB21E1E2162FE5F206A2
:103A000009F472CB93EFE9169CE5F90609F4D5CBDE
:103A100008F06CCBF8EDEF16FCE5FF0609F4C9CB16
:103A200029EDE2162CE5F20609F4D3CB37EDE316C7
:103A30003CE5F30609F06BCB26E241EE61EEC801EE
:103A40000E94320E4ECA30E1E3163FE5F30609F458
:103A500047CB91E1E9169FE5F906A1F682E041CB5B
:103A600085E0DE01119601900D928A95E1F7F8014B
:103A7000228189819A8121110ECA0E94F205F82EB5
:103A800012CAF6E1EF16FCE5FF06D1F580910202BD
:103A90008111ACCC89E20E949305A3CC82722CECFC
:103AA000E2162CE5F20609F4EACC08F0A5C096EC83
:103AB000E9169CE5F90609F4CECC08F074C0F3ECE5
:103AC000EF16FCE5FF0609F4BACC08F05BC032EC57
:103AD000E3163CE5F30609F48BCC8AE5E8168DE5A0
:103AE000F80609F40DCD08F0E6CCE114ECE5FE068D
:103AF00009F4F6CCFEEDEF16FCE5FF0609F4FDCC6B
:103B0000F8018281E080F180882309F4FDCCC701AF
:103B10000E94B20BD82E682FC7010E941A06B70167
:103B20008D2D0E94280A7C01882EF801D280A58064
:103B3000A2943FE0A32280915F028770A1F0CD2C78
:103B4000DD2091F08F2D807F803421F080E28E0D7A
:103B5000883048F082E00E94D40780915F0287702D
:103B6000CC24C3948111C12C3F2C32942FE03222FB
:103B7000FBE0F31508F404CDE32DF0E0E250F74D3F
:103B80000C94B42794ECE9169CE5F90609F45ECC94
:103B900040E953E169E973E1E5ECEE16ECE5FE0678
:103BA00009F451CC9ACFF9ECEF16FCE5FF0609F4C5
:103BB0005CCC88F437ECE3163CE5F30609F450CC12
:103BC00044E853E168E773E198ECE9169CE5F906EF
:103BD00009F439CC82CFEAECEE16ECE5FE0609F4E6
:103BE00049CC42EA53E163EB73E1FBECEF16FCE5F1
:103BF000FF0609F428CC71CF21EDE2162CE5F20680
:103C000009F44DCCB8F48EECE8168CE5F80609F40E
:103C10003ECC08F439CCEFECEE16ECE5FE0609F4E8
:103C20003BCC6EE089E0F0EDEF16FCE5FF0609F411
:103C300030CC53CF24EDE2162CE5F20609F435CC56
:103C400078F482EDE8168CE5F80609F42BCC61E0F7
:103C500088E193EDE9169CE5F90609F4EDCB3DCF3B
:103C6000E5EDEE16ECE5FE0609F422CC6AE285E20B
:103C7000FDE5EF16FF0609F40CCC2FCF1F93CF9371
:103C8000DF9380910902807FA9F480910602882346
:103C900089F080913B02D0910A02609104027091F8
:103CA0000502A0910702B0910802C62FC72316E0B3
:103CB000D81304C0DF91CF911F91089590E0109721
:103CC00011F0CF3F19F401968770F2CF189F900141
:103CD000199F300D1124F901E55FFD4F4181471314
:103CE000F2CF40814613EFCF42814111ECCF4381A7
:103CF00054814A1B5B0B483C510528F7809109020F
:103D00008F70806180930902F901E05FFD4F80812F
:103D10008F708061808384E092E00E941217DF91AF
:103D2000CF911F910C944606AF92BF92CF92DF9233
:103D3000EF92FF920F931F93CF93DF93CDB7DEB730
:103D400061970FB6F894DEBF0FBECDBF8C0185E042
:103D5000F801DE011D9601900D928A95E1F7F801B8
:103D600080819181E28024E0A22E22E0B22E609137
:103D70000702709108026115710509F43EC1309186
:103D8000040240910502232F24232F3F09F435C15B
:103D9000C380D480F0900602F601E61BF70BFF20EB
:103DA00009F4FBC020910902522F507FE83CF10535
:103DB00008F0BBC0511178C0FE2C491321C0381344
:103DC0001FC0E1101DC02F70206120930902C501A2
:103DD0000E94121780910902F80185838F2D619648
:103DE0000FB6F894DEBF0FBECDBFDF91CF911F910C
:103DF0000F91FF90EF90DF90CF90BF90AF9008951C
:103E0000CD2829F0282F29232F3F09F014C120E0C5
:103E1000F22FF170DF2E20FF3DC020913B02409138
:103E20000A0256E0241315C08D879E878D859E85D6
:103E30000E94F40B292F22952F702230F8F02430A5
:103E400020F59F70F9F0F8019581907FD9F4D12C7D
:103E50001FC030E0529FF001539FF00D1124E55F29
:103E6000FD4F6181961306C06081861303C0628195
:103E7000E61210C02F5F3F4F2770D4CF9F7011F014
:103E8000882329F3805E883010F3C8010E9412173E
:103E9000FD2CA4CFEE2009F4A1CF8091090281600E
:103EA00080930902F12C9ACF491312C0381310C025
:103EB000E1100EC0F8012583C8010E94121786E0A8
:103EC000F801A4E0B2E001900D928A95E1F786CF67
:103ED0008D879E878D859E850E94FE0B882309F124
:103EE000EE20F9F080910902803270F020910402F6
:103EF0003091050238872F831986DB86CA868C8726
:103F0000CE0107960E94121786E0F801A4E0B2E005
:103F100001900D928A95E1F70E943E1EFF24F394D2
:103F20005DCFC8010E941217F9CF51110AC084E079
:103F300092E00E94121786E0F50111928A95E9F746
:103F4000B1CF49130FC038130DC0E1100BC0F801F9
:103F50002583C8010E94121786E0F50111928A9507
:103F6000E9F73CCF8D879E878D859E850E94FE0B4D
:103F70008823B9F2EE20A9F280910902803220F262
:103F800020910402309105023A8329831B82DD824D
:103F9000CC828E83CE010196B5CFE83CF105E0F6E8
:103FA000FE2CEE2009F4BDCF491316C0381314C0FF
:103FB0008091090280FD83CF982F907F09F47FCFF5
:103FC000F8018583903F09F477CF982F907F905F19
:103FD0008F70892B858370CF8D879E878D859E8579
:103FE0000E94FE0B811190CF809109028160809325
:103FF0000902C8010E941217F1CEEE2009F491CFF8
:104000008D879E878D859E850E94FE0BF82E8823C6
:1040100009F487CF86E0F801A4E0B2E001900D92A8
:104020008A95E1F780910402909105020E94F40BB9
:104030000E943E1ED3CE21E02E25EACE1F93CF93C1
:10404000DF93CDB7DEB767970FB6F894DEBF0FBE2C
:10405000CDBF342F4B8B252F5C8B6D8B7E8B8F8B45
:104060008E899F896111109261021A8A198A3D878F
:104070002E876F87998B888B86E0FE013D96DE0147
:10408000179601900D928A95E1F7CE0107960E944E
:10409000941E882389F016E080913B0290910A02D9
:1040A000891349C067960FB6F894DEBF0FBECDBF27
:1040B000DF91CF911F91089586E0FE013796DE01D2
:1040C000119601900D928A95E1F78A859B85892B3F
:1040D00011F38F81988589238F3FE9F220910A029D
:1040E00030E0C90101968770992740913B0248173B
:1040F000190671F40E94D31310920A0210923B0227
:1041000086E0E4E0F2E0DF011D928A95E9F7C3CF93
:1041100096E0929FD001939FB00D1124A55FBD4FF3
:10412000FE01319601900D929A95E1F780930A0273
:104130000E944606B0CF819FC0011124855F9D4F2C
:104140000E94941E882309F4ADCF80913B0290E039
:1041500001968770992780933B029ECF1F920F9202
:104160000FB60F9211242F933F934F935F936F934A
:104170007F938F939F93AF93BF93CF93DF93EF93EF
:10418000FF93D091E900DF708091EC00C82FC170DF
:1041900080FDC0E81092E9008091F000877F809355
:1041A000F00078940E94E8131092E9008091F000EA
:1041B00088608093F000CD2BCF70C093E900FF9111
:1041C000EF91DF91CF91BF91AF919F918F917F91AF
:1041D0006F915F914F913F912F910F900FBE0F9074
:1041E0001F9018951F920F920FB60F9211242F93C4
:1041F0003F934F935F936F937F938F939F93AF936F
:10420000BF93EF93FF938091E10082FF09C08091FB
:10421000E20082FF05C08091E1008B7F8093E10086
:104220008091DA0080FF24C08091D80080FF20C0F8
:104230008091DA008E7F8093DA008091D90080FF30
:104240009BC080E189BD82E189BD09B400FEFDCF3C
:1042500081E08093C7028091A202811109C00E946F
:104260009D030E9468048091E20084608093E200D4
:104270008091E10080FF17C08091E20080FF13C0B1
:104280008091E2008E7F8093E2008091E200806165
:104290008093E2008091D80080628093D80019BC9E
:1042A00085E08093C7028091E10084FF29C080915E
:1042B000E20084FF25C080E189BD82E189BD89B526
:1042C000982F917080FFFBCF8091D8008F7D8093D5
:1042D000D8008091E1008F7E8093E1008091E20020
:1042E0008F7E8093E2008091E20081608093E20003
:1042F0008091C802882309F445C084E08093C702F6
:104300008091E10083FF27C08091E20083FF23C0FA
:104310008091E100877F8093E10082E08093C70273
:104320001092C8028091E1008E7F8093E10080911D
:10433000E2008E7F8093E2008091E20080618093B2
:10434000E20042E060E080E00E9436048091F000EC
:1043500088608093F000FF91EF91BF91AF919F91A2
:104360008F917F916F915F914F913F912F910F901E
:104370000FBE0F901F90189519BC1092C702109293
:10438000A20276CF8091E30087FD93E09093C7026D
:10439000B7CFCDB7DEB7AA970FB6F894DEBF0FBE82
:1043A000CDBF84B7877F84BF0FB6F894A89580915E
:1043B0006000886180936000109260000FBE80E80A
:1043C00090E00FB6F89480936100909361000FBE67
:1043D00085B7806885BF85B7806885BF88E295E02E
:1043E00090939701809396010E949D030E94680418
:1043F0008091E20084608093E20078948091C7020B
:104400008823A1F01091E9001F709091EC00892F92
:10441000817090FD80E8182B1092E9008091E800EF
:1044200083FD0E94E8131F701093E90082E084BDB1
:1044300093E095BD9AEF97BD80936E0009E711E078
:1044400050E8E52E51E0F52EF80181918F010E9490
:104450008D09E016F106C1F700E811E047E8E42E07
:1044600041E0F42EF80181918F010E948D09E01640
:10447000F106C1F7EAE6F2E0A7E9B2E011921D9277
:1044800022E0E137F207D1F790E080E00E94472870
:104490008A3E9E4F11F00E94521282E090E00E94EC
:1044A0003928809388020E94E709909369028093DB
:1044B00068020E94F7108FEF96E7E1E0815090408C
:1044C000E040E1F700C000000E94F71080919702E1
:1044D00080FF17C06FEF83E290E00E944D286FEFDE
:1044E00084E290E00E944D286FEF85E290E00E9408
:1044F0004D286FEF7FEF90E080E00E946B280E94D4
:104500003C0D83E090E00E943928682F70E090E035
:1045100080E00E94110883E290E00E9439288132F5
:1045200009F077C484E290E00E943928803109F0D4
:1045300070C485E290E00E943928863209F069C48F
:1045400080917102811136C090E080E00E9447287E
:104550008A3E9E4F21F00E9452120E94C41388E0AE
:1045600090E00E944128609392027093930280939E
:104570009402909395026E7F71F40E94C41388E0B8
:1045800090E00E944128609392027093930280937E
:104590009402909395020E94A2061092910280913B
:1045A000920280FF04C060E086950E94AF1681E011
:1045B0008093710282E191E0909373028093720282
:1045C00098E1E92EF12C20E4C22E87E992E037E051
:1045D000D32ED80E8091C70200E112E1853009F494
:1045E000A8C10E94F710882359F08FB7F894409122
:1045F0009E0250919F026091A0027091A1028FBF14
:10460000E9E8F2E0A7E9B2E010E000E0302F8D9198
:104610009191981709F49CC1292F282790E0BB2479
:10462000B394422F4B2109F48EC199A33AA38B2155
:1046300091E009F490E09BA30E943C058160782FF3
:104640009DA38CA349A15AA16BA18DA10E941E20FC
:10465000F801E757FD4F8081B826B0828091910222
:104660008823D1F180919002E0919202E695E81BB7
:10467000E0937702823009F082C1F0E0EE5EF94FFC
:10468000E4910E2F10E083EDA82E80E1B82E8091EA
:104690007802882361F0109278020E943C05909382
:1046A00076028093750210927A02109279020E942B
:1046B0003C05E0917502F09176028E1B9F0B8F3FB7
:1046C0009F4750F4E00FF11FF0937602E0937502DC
:1046D00085E792E0F501099586E0E1E8F2E0DE0188
:1046E000119601900D928A95E1F7B0908302A09007
:1046F000840210918502009186021092830210922A
:10470000840210928502109286028B2D8A2909F468
:1047100048C080917F02909180020E942D059C01EB
:1047200090917E02992309F49BC323333105C8F18C
:104730009F3F19F09F5F90937E02BB2059F00E942B
:1047400013099FEF1B140CF491E0899F802D112415
:1047500080938302AA2059F00E9413099FEF1A1434
:104760000CF491E0899F802D112480938402309174
:1047700083023323B1F020918402222391F045EB90
:104780003403C0011124992309F465C19093830275
:1047900045EB240390011124332309F460C13093C5
:1047A0008402812F802B09F448C080917C02909173
:1047B0007D020E942D059C0190917B02992309F4B2
:1047C0004AC325363105C8F19F3F19F09F5F90938A
:1047D0007B02112359F00E94F1089FEF11160CF48F
:1047E00091E0899F802D112480938502002359F048
:1047F0000E94F1089FEF10160CF491E0899F802D24
:10480000112480938602309185023323B1F02091E8
:104810008602222391F045EB3403C0011124992331
:1048200009F421C19093850245EB240390011124E2
:10483000332309F41CC13093860280918302909146
:104840008402892B90918502892B90918602892B75
:1048500011F00E94470786E0FE013196A1E8B2E020
:1048600001900D928A95E1F70E949106909187023E
:10487000891721F00E949106809387028091C702D8
:10488000843009F0A7CE83E08093E9008091E800AE
:1048900082FFA0CE8091E80090E085FF06C00E94D4
:1048A000BC03882309F4E7C091E08091E8008B778E
:1048B0008093E800992309F48DCEE981E150E3313A
:1048C00008F05EC1F0E0E65FF64D0C94B4278091ED
:1048D000C702843009F1109274020FB6F894A895BB
:1048E000E09260000FBEC092600083B7817F846059
:1048F00083BF83B7816083BF7894889583B78E7FA9
:1049000083BF0FB6F894A89580916000886180936A
:104910006000109260000FBE8091C602882349F0AB
:104920000E94F710E7E9F2E0819181115CC2DE128A
:10493000FBCF8091C702853009F4C9CF0E94D31301
:104940000E9491064ECE9F5FBB0C973009F069CE56
:104950000F5F1F4F0730110509F058CE8FEF8EA360
:104960008FA318A60E943C058160782F9AA789A77B
:104970004EA15FA168A58AA50E941E206FCE863039
:1049800059F4F0E0E15FF94FE4910E2F10E0B7EE3B
:10499000AB2EB0E1BB2E7BCE893061F4E695F0E022
:1049A000E45FF94FE4910E2F10E0ABECAA2EAEE0DD
:1049B000BA2E6DCE8F3061F4E695F0E0E75FF94FE7
:1049C000E4910E2F10E0F5EFAF2EFEE0BF2E5FCE8C
:1049D000853159F4F0E0EA5FF94FE4910E2F10E0D1
:1049E000E9E5AE2EEFE0BE2E52CE08E210E057EA27
:1049F000A52E5FE0B52E883109F449CE833249F403
:104A0000E4E0F6E0059114917AE7A72E70E1B72E65
:104A10003ECE04EF11E040E3A42E40E1B42E8432F8
:104A200009F435CE00ED17E037E2A32E35E0B32EC2
:104A3000853209F02CCE8E2F63E00E948027E92F6B
:104A4000F0E0EF5FF94FE4910E2F10E063EAA62E3D
:104A500061E1B62E1CCE81E08093830299CE81E085
:104A6000809384029ECE81E080938502DDCE81E03A
:104A700080938602E2CE00E210E0CE0101965C0156
:104A80008091E80085FD0AC08091E8008B778093D3
:104A9000E8000E94BC03882399F306CF8091F100BF
:104AA000F50181935F010150110951F7FDCE1A8282
:104AB00089E08B831AC08A81823009F4C3C18330B4
:104AC000D9F1813009F05CC02FB7F89460919E0253
:104AD00070919F028091A0029091A1022FBF0E942D
:104AE000BA276B837C838D839E838091C702843039
:104AF00009F070CD1091E9001F709091EC00892FA2
:104B0000817090FD80E8182B82E08093E90080910D
:104B1000E80080FF0DC050E040E060E270E0CE01B0
:104B200001960E94ED038091E8008E778093E80063
:104B30001F701093E9004ECD809197028B83809176
:104B400098028C83809199028D8380919A028E8342
:104B500080919B028F8380919C02888780919D0227
:104B60008987C3CF8A81823059F46B817C818D81A2
:104B70009E810E94BA2786E290E00E944D28B5CF20
:104B80008FEF8983B2CF4C816B818A810E94F509B6
:104B90009827892798279E838D83A7CFAD80BE80D5
:104BA000BA24AB24BA248A810B81FEE00F9F8001D6
:104BB000112422E6829F000D111D11248C8190E0AA
:104BC000880F991F080F191F6B2DC80187960E9427
:104BD0004D286A2DC8018896D0CF0E94220C85CF1F
:104BE0008A818138C1F060F4803809F07ECF20E0FE
:104BF0004B8160919402809193020E94CF1275CFF5
:104C0000823859F1833809F070CF20E04091950245
:104C10006C818B81F2CF60E08B810E94AF169B810B
:104C200080919202911111C08E7F80939202109216
:104C300091024FEF80E792E0415080409040E1F7D1
:104C400000C000000E94960E50CF816080939202B7
:104C500060E086950E94AF1648CF8B8180939602C4
:104C600044CF8A81813899F030F4803809F03DCF03
:104C7000809195021ECF823891F0833809F035CFAC
:104C8000809193028B83809194028C832ECF8091AC
:104C9000920280FF02C086950CCF80E00ACF8091FF
:104CA000960207CF609192027091930280919402D4
:104CB000909195020E94BD1218CF80E18A8315CF92
:104CC00082E08A8381E5F5CE0A811B8110270127C6
:104CD0001027FE0131965F018C80CF01880D911D58
:104CE0004C01C80181559E4F8A149B0409F4FDCEE6
:104CF0000135E2E01E0750F40E943928F501848353
:104D00000F5F1F4FFFEFAF1ABF0AEBCFF501148201
:104D1000F7CF0A811B81102701271027CE010196AA
:104D20004C01AC80A00EB12EB11CC80181559E4F24
:104D30000A151B0509F4D9CE0135E2E01E0720F45F
:104D4000F40164810E944D28FFEF8F1A9F0A0F5FC4
:104D50001F4FEBCF0E94910CC8CE84E0AFCF0A81E9
:104D60001B81102701271027CE0101965C018C8042
:104D7000FC01E80DF11D4F01C8018796A814B90484
:104D800009F4B3CE0838F1E01F0750F40E94392827
:104D9000F50184830F5F1F4FFFEFAF1ABF0AECCFFF
:104DA000F5011482F7CF0A811B81102701271027F4
:104DB000CE0101964C01AC80A00EB12EB11CC801F1
:104DC00087960A151B0509F490CE0838E1E01E0706
:104DD00020F4F40164810E944D28FFEF8F1A9F0A8E
:104DE0000F5F1F4FECCF09BD19BD09B400FEFDCF09
:104DF0008091D8008F7D8093D8008091E000826000
:104E00008093E0008091E00081FDFCCF0E94D313ED
:104E100090CD60E086E290E00E944D280E94220C36
:104E20000E94910C61E283E290E00E944D2860E1D3
:104E300084E290E00E944D2866E285E290E00E94C4
:104E40004D287ECB86E290E00E9439281B821C828E
:104E50001D828E834ACE2D32314008F0B7CCEDCC86
:104E60002D32314008F066CC9CCC78941F921FB64E
:104E70001F9211248F939F93AF93BF9380919E02B3
:104E800090919F02A091A002B091A1020196A11D54
:104E9000B11D80939E0290939F02A093A002B093B5
:104EA000A102BF91AF919F918F911F901FBE1F9044
:104EB00018951F921FB61F9211248F939F93AF9343
:104EC000BF9380917402811113C080919E029091D2
:104ED0009F02A091A002B091A1024196A11DB11D17
:104EE00080939E0290939F02A093A002B093A10290
:104EF000BF91AF919F918F911F901FBE1F901895EA
:104F0000991B79E004C0991F961708F0961B881F1B
:104F10007A95C9F780950895AA1BBB1B51E107C07C
:104F2000AA1FBB1FA617B70710F0A61BB70B881F39
:104F3000991F5A95A9F780959095BC01CD010895C8
:104F400097FB072E16F4009407D077FD09D00E9436
:104F50008C2707FC05D03EF4909581959F4F0895CE
:104F6000709561957F4F0895EE0FFF1F0590F491A6
:104F7000E02D0994692796276927782787277827BE
:104F800008950E94D528332312F48A1B9B0B0C949E
:104F9000CB270E94D528B7FF0895821B930B089555
:104FA0008F929F92AF92BF92CF92DF92EF92FF9239
:104FB000CF93DF93EC01688179818A819B816115B0
:104FC00071058105910521F464E279ED8BE597E0A7
:104FD0002DE133EF41E050E00E94812849015A0160
:104FE0009B01AC01A7EAB1E40E94A0286B017C01FF
:104FF000ACEEB4EFA50194010E94AE28DC01CB0118
:105000008C0D9D1DAE1DBF1DB7FF03C00197A109EB
:10501000B04888839983AA83BB839F77DF91CF9120
:10502000FF90EF90DF90CF90BF90AF909F908F90C8
:1050300008950E94D027089580E091E00E94D02733
:105040000895B0E0A0E08093000190930101A09347
:105050000201B09303010895FC014150504030F02B
:1050600001900616D1F73197CF0108958827992727
:105070000895F999FECF92BD81BDF89A992780B520
:105080000895A6E1B0E044E050E00C947328A8E154
:10509000B0E042E050E00C947328262FF999FECF3F
:1050A00092BD81BDF89A019700B4021639F01FBA7B
:1050B00020BD0FB6F894FA9AF99A0FBE0895039698
:1050C000272F0E944E280E944D28252F0E944E28EF
:1050D000242F0C944E280196272F0E944E280C94C2
:1050E0004D28DC01CB01FC01F999FECF06C0F2BDD1
:1050F000E1BDF89A319600B40D9241505040B8F796
:105100000895052E97FB1EF400940E94982857FDE1
:1051100007D00E94B32807FC03D04EF40C949828C3
:1051200050954095309521953F4F4F4F5F4F0895D3
:1051300090958095709561957F4F8F4F9F4F089503
:105140000E94D528A59F900DB49F900DA49F800D1F
:10515000911D11240895B7FF0C94A0280E94A02847
:10516000821B930B0895A1E21A2EAA1BBB1BFD0103
:105170000DC0AA1FBB1FEE1FFF1FA217B307E40736
:10518000F50720F0A21BB30BE40BF50B661F771F8E
:10519000881F991F1A9469F760957095809590956E
:1051A0009B01AC01BD01CF010895A29FB001B39F47
:1051B000C001A39F700D811D1124911DB29F700D20
:1051C000811D1124911D0895F894FFCF0D0C0D0C35
:1051D000160C160C180C160C160C160C0D0C0D0CCF
:1051E0001D0C160C160C1D0CCD14F5144815F514D9
:1051F00048152815601548155D166A16891A891A0A
:10520000FC1AFC1A5A1B741BC01AC01A7F1B551CAF
:10521000661C661C57255B25B225C325CE25ED25CA
:10522000F02531265226C025C0255D26602664263D
:0A5230008926AA26AD26AF26D32654
:10523A000100000001191A1B1C1D1E1F202122013A
:10524A0002012A05FC0CDB0CD70CD30C010001026D
:10525A000202020606060909090909090F0F0F0FBA
:10526A000F0F1515151819191919191919191919C5
:10527A002324252525252525818283E200E900EAC4
:10528A0000B500B600B700CD008301CC008A0192B8
:10529A000194012102230224022502260227022A5E
:1052AA0002B300B4006F007000F5F6F73635349794
:1052BA00333790919293664022B684016201AC0022
:0652CA0028064106610602
:00000001FF
