:100000000C94D1050C9418060C9418060C94180640
:100010000C9418060C9418060C9418060C941806E8
:100020000C9418060C9418060C94B0150C948D1CA6
:100030000C945D200C9418060C9418060C94180669
:100040000C9418060C941C310C9418060C94180689
:100050000C9409310C9415170C9418060C9418067E
:100060000C9418060C9418060C9418060C94180698
:100070000C9418060C9418060C9418060C94180688
:100080000C9418060C9418060C9418060C94180678
:100090000C9469330C9418060C9418060C941806EA
:1000A0000C9418060C9418060C9418060631FF09D7
:1000B00074A1010975150026FF00952075088102BD
:1000C0000976150026FF00952075089102C00501EC
:1000D0000902A10185020901A100050919012908E8
:1000E00015002501950875018102050109300931C6
:1000F0001581257F95027508810609381581257FB0
:10010000950175088106050C0A38021581257F9531
:100110000175088106C0C005010980A10185031988
:10012000012AB700150126B700950175108100C09E
:10013000050C0901A101850419012AA00215012657
:10014000A002950175108100C005010906A10105F5
:100150000719E029E7150025019508750181029529
:1001600001750881010507190029FF150026FF0008
:100170009506750881000508190129059505750181
:100180009102950175039101C0290A002575002F80
:10019000002575005D2800256400200025640020EE
:1001A0000025640020002564007C002530325800C2
:1001B0006D6F7573656B6579205B62746E7C7820FA
:1001C00079207620685D287265702F61636C293A0A
:1001D000205B000001010101010101010102020295
:1001E00002020202020203030303030303030404E3
:1001F00004040404040505050505060606060607AD
:100200000707070708080808090909090A0A0A0B65
:100210000B0B0C0C0C0D0D0D0E0E0E0F0F0F101006
:10022000111111121213131414151516161717188D
:100230001819191A1A1B1B1C1D1D1E1E1F202021F8
:100240002222232424252626272829292A2B2C2D3F
:100250002D2E2F30313232333435363738393A3B60
:100260003C3D3E3F404142434445464748494A4C55
:100270004D4E4F50515354555658595A5B5D5E5F21
:10028000616264656668696B6C6D6F7072737577B7
:10029000787A7B7D7E8082838587888A8C8E8F9119
:1002A000939596989A9C9EA0A2A3A5A7A9ABADAF43
:1002B000B1B3B5B7BABCBEC0C2C4C6C9CBCDCFD12D
:1002C000D4D6D8DBDDDFE2E4E7E9EBEEF0F3F5F8D6
:1002D000FAFDFF7267626C69676874206D6F646510
:1002E000205B4E4F454550524F4D5D3A2025750AD3
:1002F000007267626C69676874206D6F6465205B6B
:10030000454550524F4D5D3A2025750A007267628F
:100310006C696768742064697361626C65205B4E08
:100320004F454550524F4D5D3A207267626C696788
:1003300068745F636F6E6669672E656E61626C6577
:10034000203D2025750A007267626C696768742019
:1003500073657420687376205B4E4F454550524F4D
:100360004D5D3A2025752C25752C25750A00726780
:10037000626C696768742073657420687376205BAB
:10038000454550524F4D5D3A2025752C25752C253D
:10039000750A007267626C69676874207261696EC1
:1003A000626F7720736574206873763A2025642C19
:1003B00025642C25642C25750A00FFAA7F55407200
:1003C00067626C696768742074696D657220656E18
:1003D00061626C65642E0A007267626C696768749A
:1003E0002074696D65722064697361626C652E0AA0
:1003F000002223252628292A2C2D2F30323335366A
:10040000383A3B3D3E4042434547494A4C4E5051A5
:10041000535557595A5C5E6062646668696B6D6FCC
:1004200071737577797B7D7F81838587898A8C8ECF
:1004300090929496989A9C9E9FA1A3A5A7A8AAACD7
:10044000AEAFB1B3B4B6B8B9BBBCBEBFC1C2C3C511
:10045000C6C7C9CACBCCCDCED0D1D2D2D3D4D5D6B3
:10046000D7D7D8D9D9DADADBDBDBDCDCDCDCDCDDE6
:10047000DDDDDDDCDCDCDCDCDBDBDBDADAD9D9D8CA
:10048000D7D7D6D5D4D3D2D2D1D0CECDCCCBCAC962
:10049000C7C6C5C3C2C1BFBEBCBBB9B8B6B4B3B191
:1004A000AFAEACAAA8A7A5A3A19F9E9C9A9896942C
:1004B00092908E8C8A89878583817F7D7B79777501
:1004C00073716F6D6B6968666462605E5C5A5957E0
:1004D000555351504E4C4A4947454342403E3D3B9F
:1004E0003A3836353332302F2D2C2A292826252329
:1004F000227267626C6967687420656E61626C6500
:10050000205B4E4F454550524F4D5D3A2072676219
:100510006C696768745F636F6E6669672E656E618C
:10052000626C65203D2025750A007267626C696700
:10053000687420746F67676C65205B4E4F4545504B
:10054000524F4D5D3A207267626C696768745F63F1
:100550006F6E6669672E656E61626C65203D202551
:10056000750A006261636B6C696768742064656317
:1005700072656173653A2025750A006261636B6C70
:100580006967687420696E6372656173653A2025D6
:10059000750A006261636B6C6967687420646973D3
:1005A00061626C650A006261636B6C6967687420E4
:1005B000656E61626C650A006261636B6C69676895
:1005C0007420746F67676C653A2025750A00626154
:1005D000636B6C6967687420737465703A20257565
:1005E0000A007267626C696768742064697361628B
:1005F0006C65205B454550524F4D5D3A20726762F5
:100600006C696768745F636F6E6669672E656E619B
:10061000626C65203D2025750A007267626C69670F
:10062000687420656E61626C65205B454550524F71
:100630004D5D3A207267626C696768745F636F6EC4
:100640006669672E656E61626C65203D2025750ABE
:10065000007267626C6967687420746F67676C65A5
:10066000205B454550524F4D5D3A207267626C6980
:100670006768745F636F6E6669672E656E61626C32
:1006800065203D2025750A0044454255473A2064BF
:10069000697361626C65642E0A0044454255473AAD
:1006A00020656E61626C65642E0A00296114001A6F
:1006B00000080015001700000039000400160007AC
:1006C0000009000A00000001571D001B0006001968
:1006D00000050002530000000000000000E00002DE
:1006E000582C642A00130012000C0018001C000093
:1006F00000340033000F000E000D000B0000002836
:1007000000380037003600100011000453000000CC
:100710000000000000025704582C002B7F14001A20
:10072000000800150017000000E000040016000794
:100730000009000A00000001571D001B00060019F7
:1007400000050002530000000000000000E300026A
:10075000582C003100130012000C0018001C00007F
:10076000004C0033000F000E000D000B00000000D5
:100770005C38003700360010001100045300000000
:10078000000000000002570458280035001E001F1A
:10079000002000210022000000E3002F0030003183
:1007A000002D002E00000001571D001B000600193F
:1007B00000050002530000000000000000E30002FA
:1007C000582C64A9002700260025002400230000DF
:1007D00000AA005200340033000F000E0000004F4A
:1007E00000510050003600100011000453000000BA
:1007F00000000000000257045828003A003B003C6B
:10080000003D003E003F000000655DC45C0100CB80
:100810005CCA5C01000000645DC75CC65CC95CC862
:100820005C010002530000000000000000E3000231
:10083000582C0045004400430042004100400000A5
:1008400000010001004F0052005100500000000064
:100850005C010001000100010001000453000000E0
:1008600000000000000257045828002B7F35003696
:1008700002350037021E020000296131002F022ECE
:100880000030022002000001572202330225022E0E
:1008900002350202530000000000000000E30002E5
:1008A000582C004C00340030002D002F001F020097
:1008B000002A0031022702340226022D020000E540
:1008C0000038020100230224022102045300000028
:1008D00000000000000257045828004F6E6573683E
:1008E0006F743A206163746976653A2025640A0062
:1008F0000A002530325820006B6579626F6172649E
:100900005F7265706F72743A20007267626C69671B
:1009100068745F636F6E6669672E737065656420C7
:100920003D2025640A007267626C696768745F63C2
:100930006F6E6669672E76616C203D2025640A0023
:100940007267626C696768745F636F6E6669672E51
:10095000736174203D2025640A007267626C6967C8
:1009600068745F636F6E6669672E687565203D20E9
:1009700025640A007267686C696768745F636F6EEC
:100980006669672E6D6F6465203D2025640A0072DC
:1009900067626C696768745F636F6E6669672E650E
:1009A0006E61626C65203D2025640A007267626C8E
:1009B000696768745F636F6E66696720454550526A
:1009C0004F4D3A0A007267626C696768745F696EBE
:1009D0006974207267626C696768745F636F6E66C2
:1009E00069672E6D6F6465203D20302E2057726937
:1009F00074652064656661756C742076616C7565DC
:100A00007320746F20454550524F4D2E0A00726777
:100A1000626C696768745F696E6974206565636F8D
:100A20006E666967206973206E6F7420656E6162FF
:100A30006C65642E0A007267626C696768745F692E
:100A40006E6974207374617274210A007267626C3B
:100A5000696768745F696E69742063616C6C656452
:100A60002E0A000A0025303862003A200025303274
:100A700058000A722F632030313233343536370A4A
:100A8000007267626C6967687420616E696D617479
:100A9000696F6E207469636B207265706F72742069
:100AA000746F20736C6176650A001E0F0500047F69
:100AB0003F1F643214643214783C1E1E140A050A67
:100AC0000025303258006B6579626F6172645F7324
:100AD00065745F6C65643A20005B735D004B6579FB
:100AE000626F6172642073746172742E0A005B43DA
:100AF0005D005B445D005B535D005B575D005B52D6
:100B00005D0009025B00030100A0FA090400000176
:100B100003010100092111010001224000070581A4
:100B20000308000A09040100010300000009211163
:100B3000010001227B000705820320000A0904024C
:100B40000002030000000921110100012222000718
:100B50000583032000010705030320000112011093
:100B6000010000000810CB56120001010200011C18
:100B700003490072006900730020004B0065007992
:100B80000062006F0061007200640000000E034B01
:100B90000065006500620069006F00000004030941
:100BA000040011241FBECFEFDAE0DEBFCDBF04B6D4
:100BB00003FE27C08091530390915403A0915503E5
:100BC000B09156038730904BA740B04BD1F41092B0
:100BD000530310925403109255031092560314BEFF
:100BE00084B7877F84BF0FB6F894A8958091600082
:100BF000886180936000109260000FBEE0E0F8E32F
:100C0000099523E0ACEFB1E001C01D92A335B20716
:100C1000E1F711E0A0E0B1E0ECECFAE602C00590EB
:100C20000D92AC3FB107D9F70E94412C0C9440358E
:100C30000C940000FF93EF93E091FC01F091FD0113
:100C4000309709F00995EF91FF910895FC01859186
:100C5000803011F0EFDFFBCF0895FF27E0E230E2B4
:100C600047FF0CC0419597FF09C0EDE26095709574
:100C700080959095611D711D811D911D27FF02C0FA
:100C8000219530E350E2AA27660F771F881F991F2E
:100C9000AA1FA41710F0A41B63955A95A9F7AA30B0
:100CA00008F0A95FA05DAF93F3956115710581050B
:100CB000910541F7ED3211F4EF93F395F21718F423
:100CC0003F93F395FBCF8F91B5DFFA95E1F7089548
:100CD000E991F9918591803021F0853219F0AADFF0
:100CE000F9CF089520E0E89455915532C1F350337F
:100CF00011F4689455915A3348F4505390F3220FED
:100D0000022E220F220F200D250FF4CF0EF4219575
:100D100089919991533619F3533729F1533559F184
:100D2000BC0188279927E8945C3621F48991999130
:100D300068945591543639F446EF7EF077FF0DC034
:100D40008FEF9FEF0AC055374AE039F0583540E140
:100D500021F0523642E009F00895FF93EF937DDFD2
:100D6000EF91FF91B7CFFF93EF93FC01819180301A
:100D7000B9F360DFFBCFFF93EF9368DFF1CFDF9331
:100D8000CF93CDB7DEB72596A3DFCF91DF9108953E
:100D9000E8EDF0E080818E7F80831092E200109277
:100DA000DA001092E100A0EEB0E08C9181608C93AB
:100DB00080818F77808319BCA7EDB0E08C918E7F06
:100DC0008C9380818F7E80831092190308952091E7
:100DD000E4003091E50095E6A9012091EC00822F16
:100DE000817020FF06C08091E80080FF06C080E08F
:100DF00008952091E80022FD1AC0809126038823DF
:100E000089F0853089F08091EB0085FD0FC020913D
:100E1000E4003091E50042175307F9F29150E1F6F2
:100E200084E0089582E0089583E0089581E00895C4
:100E3000EF92FF920F931F93CF937C018B010E943F
:100E4000E706C82F811117C08091E80085FD0BC00F
:100E50008091E8008E778093E8000E94E70688235F
:100E600099F3C82F08C0F70181917F018093F100A9
:100E70000150110949F78C2FCF911F910F91FF90CD
:100E8000EF9008958091280387FF13C08091E800B8
:100E900082FF06C08091E8008B778093E80004C051
:100EA000809126038111F2CF089580912603882333
:100EB000D9F38091E80080FFF8CF8091E8008E7729
:100EC000ECCF982F9093E900242F762F50E08917CC
:100ED00031F07091EC002091ED005091F00021FD77
:100EE00007C09F5F973071F78093E90081E0089514
:100EF0003091EB003E7F3093EB003091ED003D7F71
:100F00003093ED003091EB0031603093EB00709343
:100F1000EC002093ED005093F0002091EE0027FDAF
:100F2000E0CF80E00895CF92DF92EF92FF920F938F
:100F30001F93CF93DF93C8EDD0E088818F7E8883A5
:100F4000E7EDF0E080818160808384E082BF81E012
:100F50008093190388818E7F888302EE10E0F80168
:100F600010821092DA0081EEC82ED12CF601108288
:100F700088818F77888388818068888388818F7D46
:100F8000888319BC10922603109227031092250320
:100F90001092240390EEE92EF12CF70180818B7FD3
:100FA000808388818160888342E060E080E00E94E5
:100FB0006107F60180818E7F8083F80180818160E6
:100FC0008083808188608083F70180818E7F808329
:100FD000888180618883DF91CF911F910F91FF906D
:100FE000EF90DF90CF900895FC0180912E039091B7
:100FF0002F0386179707A0F06115710529F49091CA
:10100000E8009E779093E80090E06115710551F437
:10101000911108C08091E80082FF34C080E00895FB
:10102000BC01F2CF809126038823C1F18530C1F144
:101030008091E80083FD30C08091E80082FDEACF16
:101040008091E80080FFE1CF8091F3002091F200D1
:10105000382F6115710519F02830310558F091E0ED
:101060002830310509F090E02091E8002E77209398
:10107000E800CBCF81918093F100615071092F5F1F
:101080003F4FE7CF80912603882341F0853041F020
:101090008091E80083FFBECF81E0089582E008954B
:1010A00083E00895089580911B0308959C014FB734
:1010B000F8948091CB029091CC02A091CD02B09196
:1010C000CE024FBF821B930B08952FB7F894609107
:1010D000CB027091CC028091CD029091CE022FBFB5
:1010E00008958091C60281111092C60208958095DC
:1010F0009091C50298239093C5020895E0E0F2E034
:101100009191891303C0DF0111971C9292E0E630A0
:10111000F907B1F70895A0E0B2E0EFEF90E02D916C
:10112000821751F0EF3F19F4211101C0E92F9F5FA1
:101130009630A9F7EF3F09F408950E2E000CFF0B2F
:10114000E250FE4F8283089527E0929F800D112484
:10115000982F977086958695869525E0829FF00159
:101160001124E156FD4F50E040E080E0219130E055
:10117000092E02C0369527950A94E2F7217033278D
:10118000042E01C0220F0A94EAF7822B4F5F5F4FB3
:101190004530510559F7089527E0929F800D11249D
:1011A000982F977041E001C0440F9A95EAF7869511
:1011B0008695869595E0899FF0011124E156FD4FB3
:1011C00090E080E070E05191DF0111979B01082EC3
:1011D00002C0369527950A94E2F7217021952527BC
:1011E000242325272C9301968530910561F70895D6
:1011F00020919E0290916D0256E0291302C080E07A
:10120000089530E0529FF001539FF00D1124E259F0
:10121000FD4F7181761306C07081781303C072810F
:10122000741304C02F5F3F4F2770E7CF81E008950C
:1012300080919E0290916D02981301C008958F5F76
:101240008770FACF20916002309161022817390728
:1012500071F09093610280936002E091E502F09159
:10126000E602309721F00084F185E02D099408957D
:1012700020915E0230915F022817390771F0909338
:101280005F0280935E02E091E502F091E602309702
:1012900021F00680F781E02D09940895E091E502A0
:1012A000F091E602309721F00190F081E02D099451
:1012B00080E00895FA01811101C0FB010994809139
:1012C000F902982F9E7F29F4817082608093F90241
:1012D00008958635E8F381708465F8CFAF92BF92A8
:1012E000DF92EF92FF920F931F93CF93DF93082F1C
:1012F000162FE901E42FF0E0ED52FE4F611110C00E
:10130000E4915E2F4E2F4983E8835A83DF91CF917A
:101310001F910F91FF90EF90DF90BF90AF900895D5
:10132000E62EF12C4491D42EE42FF0E026E0829FAB
:10133000C00111242FEF30E0B9010E94EF33802F5C
:1013400090E0880F991F55E5569FD001579FB00D2B
:1013500011248A1B9B0B982F990F890F5901AE18E6
:10136000BF08AE9ED001AF9EB00DBE9EB00D112441
:101370005B2F189F80011124012F11275901A01AFA
:10138000B10AAE9E8001AF9E100DBE9E100D1124BD
:101390005901A81AB108AE9CC001AF9C900DBE9C2B
:1013A000900D1124892F9927281B390B2E9FC001DE
:1013B0002F9F900D3E9F900D1124E92F62307105F3
:1013C000A1F050F46115710509F49DCF61307105EC
:1013D00081F0EB2F512F97CF6430710569F080F0C9
:1013E0006630710509F48FCFF4CFE42F4B2F592FBE
:1013F0008ACFE42F412F87CFEB2F542F492F83CF54
:101400004B2F5D2DE12F7FCF409109038D3E59F485
:1014100080910A0387FF0DC010920A0341110BC08F
:101420001092040308C08E3E81F480910A031816BE
:101430009CF3442381F080910B0390910C03892B42
:1014400009F05AC01092010308958F3E49F447FFF6
:10145000F0CF1092090380910A038111ECCFE0CF05
:10146000803F19F41416ACF3E4CF90910B03893F3D
:1014700029F41916F4F610920B03DBCF8A3F19F406
:1014800097FFD7CFF8CF90910C038B3F29F497FFAC
:10149000D0CF10920C03CDCF8C3F19F41916CCF39A
:1014A000C8CF9FE0980F983090F4815F990B21E0AE
:1014B00030E0B90102C0660F771F8A95E2F7CB01D1
:1014C000809590910803892380930803B2CF8D3FC4
:1014D00031F4809166028E7F80936602AACF8E3FA0
:1014E00021F4809166028D7FF7CF8F3F09F0A1CF65
:1014F000809166028B7FF0CF08958091660280FD17
:1015000016C081FD16C082FD16C08091010388239C
:10151000A1F0883280F428E0829FC001112468E2A3
:1015200070E00E940334862F672B39F0089582E023
:10153000089584E0089588E0089581E008958091F9
:10154000660280FD14C081FD14C082FD16C080912A
:101550000403882381F0843180F422E3829FC00158
:10156000112464E170E00E940334862F08958CE01A
:10157000089589E1089585E0089582E308958D3EF8
:1015800031F40E949F0A819580930A0308958E3E4C
:1015900019F40E949F0AF8CF8F3E31F40E949F0AEF
:1015A0008195809309030895803F19F40E949F0A52
:1015B000F8CF893F29F40E947D0A80930B03089598
:1015C0008A3F21F40E947D0A8195F7CF8B3F31F449
:1015D0000E947D0A819580930C0308958C3F19F435
:1015E0000E947D0AF8CF9FE0980F983070F4815FD9
:1015F000990B21E030E001C0220F8A95EAF7809133
:101600000803822B8093080308958D3F31F4809165
:10161000660281608093660208958E3F21F4809176
:1016200066028260F7CF8F3FB9F7809166028460CF
:10163000F1CFF894E82FE295EF70F0E031A1282F78
:101640002F7081E090E001C0880F2A95EAF7982F6B
:101650009095932391A392A1892B82A378940895C6
:101660009091D80292FF06C0282F28712830F9F4F3
:10167000877F846093FF06C0282F28712831F1F4FA
:10168000877E84612091D90220FF06C0382F3871EF
:101690003830D9F4877F816021FF06C0282F287158
:1016A0002831D1F4877E816194FD877E0895282FAB
:1016B00024712430F9F68B7F8860DCCF282F2471C9
:1016C000243101F78B7E8861DDCF382F31713130C5
:1016D00019F78E7F8860E0CF282F2171213121F703
:1016E0008E7E8861E1CFCF93DF93972F70E027E064
:1016F000929F600D711D1124FB0138E3839FE00D63
:10170000F11D1124EE0FFF1FE555F94FC591D4913E
:10171000CE01C238D105B9F1E8F5C133D10509F4DC
:1017200099C050F5C932D10509F48DC0CA32D1052E
:1017300009F497C0C11540E5D40708F0C5C0C1152C
:1017400020E4D20708F035C1C83ED10508F0A0C09A
:10175000C03ED10568F5C83AD10508F089C0C53A40
:10176000D10508F00CC1C130D10511F1209709F461
:1017700043C02497E8F440C0C533D10509F45CC0E8
:10178000C933D105B9F62091D802237089F080EED3
:1017900090E00EC0C33ED10591F168F4C03ED10582
:1017A000F9F0C23ED10531F62091D80222FD20C0C9
:1017B000DF91CF910895C63ED10561F1C73ED105B5
:1017C00081F1C43ED10509F0B5CF2091D90221FFA6
:1017D000EFCF8091D80284FD0FC087EE90E0E8CF74
:1017E0002091D80220FD2BC13091D90230FFE0CFEB
:1017F00083EE90E024FFDCCF90E080E0D9CF209111
:10180000D80222FD1FC13091D90230FDC0CF24FF84
:10181000CFCFF2CF2091D80223FFCACF24FDECCF47
:10182000DCCF2091D80223FD10C13091D90231FFC5
:10183000EECF84EE90E0BCCF2091D80225FFB8CF48
:1018400089E290E0B5CF2091D80225FFB1CF85E3A2
:1018500090E0AECF2091D80226FFAACF8AE290E096
:10186000A7CF2091D80226FFA3CF81E390E0A0CF9D
:10187000CF3BD10508F48BC0C03CD10508F4BCCFE8
:10188000FE01EE0FFF1FE75FFF4F8591949190CF10
:10189000C11530E2D30760F4C11541E0D40708F068
:1018A00087CFCE019065CD3ED10508F081CFA4CF82
:1018B000C11580E3D80708F074C0FE01FF70EE0F79
:1018C000FF1FE757FE4FE1CFC11595E5D90748F552
:1018D000C11524E5D20708F09BC0C11532E5D30736
:1018E00050F4C11541E5D40708F467C09C2F882740
:1018F000816F906A5DCF9C2F96959695AE0143704F
:101900005527C115D34508F074C021E030E002C06E
:10191000220F331F4A95E2F740E2949FC001112441
:1019200064C0C11599E5D907A0F4C11528E5D2070F
:1019300008F073C0C11536E5D30708F05DCF8C2FD2
:101940000E94300B90E0982F882788279F71906223
:101950002FCFC1154AE5D40708F464C0CE019056D4
:101960008115904208F048CF8D2F8F710E94300B67
:1019700090E0982F882788279F718C2BE8CFC55A35
:10198000D0E0C355DE4F888190E0906411CFC85AF3
:10199000D0E0CC0FDD1FC055DE4F88819981946463
:1019A00007CFCE019927D3FF02C0986C01CF906C6E
:1019B000FFCECE019F70906AFBCE9E01E4E036958B
:1019C0002795EA95E1F723708C2F8695869583708D
:1019D00030E2839FC0011124922BC37021E030E0DC
:1019E00002C0220F331FCA95E2F7822B932B9C680B
:1019F000DFCE21E030E002C0220F331F4A95E2F72C
:101A000040E2949FC0011124822B932B9A68D0CE80
:101A10009C2F8827846F906ACBCE9C2F8827806F5D
:101A2000906AC6CE8C2F8F700E94300B34E0D69512
:101A3000C7953A95E1F7CF709C2F9069B9CE89E3AD
:101A400090E0B6CE82EE90E0B3CE86EE90E0B0CEDF
:101A5000BF92CF92DF92EF92FF920F931F93CF939B
:101A6000DF938C01C090D402D090D502E090D602D2
:101A7000F090D7028091C7029091C802A091C9024C
:101A8000B091CA02C82AD92AEA2AFB2ACFE1D0E0BB
:101A9000BC2ED701C6010C2E04C0B695A79597950C
:101AA00087950A94D2F780FD0EC0219788F7B12C54
:101AB0008B2DDF91CF911F910F91FF90EF90DF90D1
:101AC000CF90BF900895B8018C2F0E94730B01979F
:101AD00061F3EECFCF93DF93EC010E94280DBE019E
:101AE000DF91CF910C94730B0E946A0D292F2F70F8
:101AF00092959F7092509E3078F4E92FF0E0EE5B63
:101B0000FA4C0C941734803F19F020F4883E20F4EE
:101B100081E00895843FE1F380E00895883EC0F3BA
:101B2000813FD1F7F5CF822F8695869586950895CA
:101B3000829590E09C01220F331F220F331F2C7CD3
:101B400095958795959587958373282B30E0C901E6
:101B5000880F991F8A7A359527952575822B0895C8
:101B6000CF93DF939C013A9521153F4168F5EC0135
:101B7000CC27D170DC01AA27B270AC014427547085
:101B80009C012227387094FF11C080E1CD2B09F40D
:101B900080E0AB2B09F08062452B09F08064232B99
:101BA00009F08068FB01DF91CF91099481E0CD2B92
:101BB00009F480E0AB2B09F08260452B09F08460CA
:101BC000232B81F38860EECFDF91CF9108959FB7EB
:101BD000F894109217039FBF90912603943009F058
:101BE00048C02091E9002F703091EC00932F917044
:101BF00030FD90E8922B23E02093E9002091EB0048
:101C000020FF34C02091EE0027FF30C02091CF028A
:101C1000222321F02091E80025FF28C01092CF0256
:101C200026E03091E80035FF14C08093F1008091E8
:101C3000E80085FD27C08091E80080FFFCCF8091FF
:101C4000E8008E778093E8009F709093E90080E031
:101C5000089530912603343049F43091EB0035FD7E
:101C600005C0215041F481E08093CF029F70909392
:101C7000E9008FEF0895EFE9FFE03197F1F700C039
:101C80000000CFCF8FB7F89421E0209317038FBFC8
:101C9000DBCFCF93DF9300D00F92CDB7DEB790911B
:101CA0002603943019F589837B836A8382E08093CD
:101CB000E9008FEF9091E800815095FD06C095ED09
:101CC0009A95F1F700008111F5CF8091E80085FF2A
:101CD0000DC050E040E063E070E0CE0101960E944C
:101CE00018078091E8008E778093E8000F900F909E
:101CF0000F90DF91CF910895BC0184E00C94490EC0
:101D0000BC0183E00C94490E9C0182E08093E900C1
:101D10009FEF8091E800915085FD06C085ED8A9582
:101D2000F1F700009111F5CF8091E80085FF0CC01C
:101D300050E040E066E070E0C9010E941807809121
:101D4000E8008E778093E8000895CF93DF93EC014D
:101D500081E08093E9008FEF9091E800815095FD3C
:101D600006C095ED9A95F1F700008111F5CF8091AD
:101D7000E80085FF14C050E040E068E070E0CE016C
:101D80000E9418078091E8008E778093E80088E031
:101D9000FE01ACE1B3E001900D928A95E1F7DF918D
:101DA000CF9108958091F90280FD0AC0EEE0F2E043
:101DB000118210821282339652E0EC32F507C1F79D
:101DC000539A3BB1377F2BB128604FB7F8948EE020
:101DD00092E0FC015191CF0168E02BB9000000C0F6
:101DE00057FF3BB9550F000000C000C000C03BB911
:101DF00000C06A9591F7F2E08C329F0751F74FBF10
:101E00008FE594E00197F1F700C000000895EF928C
:101E1000FF921F93CF93DF93EC018EE0E82E82E0D8
:101E2000F82E10E08C8197014091FC026091FB023A
:101E3000810F0E946E09175E83E0E80EF11C1A3FC5
:101E400089F70E94D20E9A818C8190FF08C08F5F23
:101E50008C83DF91CF911F91FF90EF900895815077
:101E6000F7CF9F92AF92BF92CF92DF92EF92FF9205
:101E70000F931F93CF93DF93EC018A81BB24BA9415
:101E800080FD02C0BB24B3948C81811108C081E025
:101E9000B8125DC089E080930B0281E08C832EE054
:101EA000E22E22E0F22E10E000E03AE0932EF7015D
:101EB00011821082128294E0C92ED12CA12C809123
:101EC0000B028A0D8B300CF445C0692D0E94E13362
:101ED000892F082E000C990B8017910791F480919F
:101EE000FC028C9DA0018D9D500D112455954795A8
:101EF0005595479597016091FB028091FA020E94E7
:101F00006E09AB0CF1E0CF1AD108C9F60F5F1F4F75
:101F100083E0E80EF11C0A30110549F60E94D20E4A
:101F200080910B0291E0B9121EC0811117C089E0A7
:101F300080930B021C82DF91CF911F910F91FF9034
:101F4000EF90DF90CF90BF90AF909F900895109248
:101F50000B02A3CF87FFBDCF865FBBCF815080939D
:101F60000B02BC82E8CF90E00196B8010E940334D6
:101F700080930B028C83DFCFEF92FF920F931F931E
:101F8000CF93DF937C01FC018481811109C081E042
:101F9000848310920C0292E090931B0180931A01AB
:101FA000CEE0D2E0FE01118210821282339682E0EE
:101FB000EC32F807C1F710E000E080910C02082E27
:101FC000000C990B08171907BCF180911B01082E12
:101FD000000C990B801791077CF19E014091FC0247
:101FE0006091FB028091FA020E946E090F5F1F4F01
:101FF00023960A30110509F70E94D20E80911A012A
:1020000090910C02980F90930C0220911B01280FC5
:1020100020931B01121614F499303CF081958093A3
:102020001A01813011F4F7011482DF91CF911F91D1
:102030000F91FF90EF900895198218821A82D6CFDF
:102040008F929F92AF92BF92CF92DF92EF92FF92C8
:102050000F931F93CF93DF93EC014C81042F10E07B
:102060009801D8010E9431359B01AC010E94FC34DB
:102070004B015C01E0E2F0E0E01BF10BA5E5B0E014
:10208000AC019B010E94FC346B017C019F01DF01CC
:102090000E941D349B01AC010E9407359B01AC01DD
:1020A000280D391D4A1D5B1DC701B6010E940F3561
:1020B000F22E822F90E039E23F15D8F143E0249FC1
:1020C0009001112435952795122F10959EE0C92E69
:1020D00092E0D92E00E085E5E82EEF188E2D01FD67
:1020E0008F2D9601412F6091FB020E946E090F5FB8
:1020F00053E0C50ED11C0A3089F70E94D20E9C8194
:1021000081E0992319F0903219F48FEF80931C012C
:1021100080911C01890F8C83DF91CF911F910F91CA
:10212000FF90EF90DF90CF90BF90AF909F908F90F7
:10213000089525E530E0A901481B590BCA019A0111
:10214000220F331F280F391F37FFBCCF2F5F3F4FA0
:10215000B9CFEF92FF920F931F93CF93DF938C0130
:10216000CEE0D2E0F12CE12CF80194816091FB02E9
:102170008091FA02F5E0EF16F104FCF49923F9F0EE
:102180009E014091FC020E946E092FEFE21AF20AB2
:1021900023968AE0E816F10439F70E94D20EF8017E
:1021A000848190E00196817099278483DF91CF919B
:1021B0001F910F91FF90EF900895992309F39E01CD
:1021C00040E0E1CF9091F90290FF0CC0EEE0F2E028
:1021D000818360834283339692E0EC32F907C1F742
:1021E0000C94D20E08950F931F93CF93DF9300D0DA
:1021F0000F92CDB7DEB78C0180910D0281110AC01C
:102200009E012F5F3F4F4FEF6FEF0E946E098A8153
:1022100080930D02F8016481613069F080910D02B4
:1022200040E0662361F040E0623011F440910D021D
:1022300080E060E004C060910D0240E080E00E9418
:10224000E210F801848190E0019663E070E00E9462
:10225000033484830F900F900F90DF91CF911F91E3
:102260000F910895CF93DF9300D00F92CDB7DEB7D3
:102270009091F90290FF0AC09E012F5F3F4F0E948C
:102280006E094B8169818A810E94E2100F900F9044
:102290000F90DF91CF910895CF93DF93EC01EC8104
:1022A000F0E0EF50FC4F4491E9EFF2E06281818170
:1022B0000E9432118C818F5F8C83DF91CF910895C2
:1022C000CF93DF93EC01E9EFF2E0438162818C81EF
:1022D0000E9432118C818F5F8C83DF91CF910895A2
:1022E00080910A02811118C088EC9091E30097FD5B
:1022F00010C0EFE3FCE93197F1F700C00000815016
:10230000A1F782E080930A020E94C8061092260379
:1023100003C081E080930A0281E090910A0291302B
:1023200011F080E008950895EF92FF920F931F93AC
:10233000CF93DF938091C5029091C402892B909135
:10234000C302892B8093FE019091C602992391F0DC
:10235000892B8093FE0120E080E092E0FC01319126
:10236000CF0131112F5FF2E086309F07B9F72111BD
:102370000E947108E091E502F091E6023097C9F100
:102380000280F381E02D8EEF91E0099580910E039C
:1023900082FF2FC080FF04C088EF98E00E942606CD
:1023A000CEEFD1E086E0E82E82E0F82E02EF18E0D2
:1023B00080910E0380FF0BC088811F928F931F9323
:1023C0000F930E94BF060F900F900F900F902196D1
:1023D000EC16FD0669F780910E0380FF0AC080EFBE
:1023E00098E0DF91CF911F910F91FF90EF900C94A7
:1023F0002606DF91CF911F910F91FF90EF900895E6
:10240000882341F080959091C40289238093C4026F
:102410000C9494110895882339F09091C402982B5C
:102420009093C4020C9494110895882321F00E9483
:1024300077080C9494110895882339F09091C5027F
:10244000982B9093C5020C9494110895CF93DF9329
:10245000EC0181E0898B8091C5029F81892B80935B
:10246000C5028091C4029885892B8093C4020E9482
:102470009411EA81FB81309739F06C897D89CE0116
:102480000696DF91CF910994DF91CF910895EF9255
:10249000FF920F931F93CF93DF93EC018A858111F5
:1024A00039C0EB80FC8087E5F81A26E12E9DC0013B
:1024B0002F9D900D1124DC01A35EBE4F1496ED916B
:1024C000FC911597309731F054966D917C918D5D0C
:1024D0009E4F099586E18E9D80018F9D100D1124E0
:1024E000035E1E4FF80187810E947708F8018085FE
:1024F000982F90958091C40289238093C4020E94F2
:102500009411188219861B861E821D821092640205
:1025100010926302DF91CF911F910F91FF90EF9086
:1025200008951092FF02809100038460809300035D
:1025300080910E0380FF08C088ED93E09F938F93F6
:102540000E94BF060F900F9008958091F9028E7F30
:102550008093F90280910E0380FF0CC01F921F929E
:102560008DE093E09F938F930E94BF060F900F9092
:102570000F900F900E9491128091000381608093D0
:1025800000032FEF80E792E0215080409040E1F778
:1025900000C000000C94D20E4F925F926F927F9217
:1025A0008F929F92AF92BF92CF92DF92EF92FF9263
:1025B0000F931F93CF93DF93FC016280448081E0EF
:1025C0008483E1EFF3E07490E0E7F4E0E491CCE29F
:1025D000D2E03EE0E32E32E0F32E4EE5C42E42E0A0
:1025E000D42E52E0A52EBB24B39488248A94912C37
:1025F00055245A94E7190E2F10E082E0861530F02A
:102600008091FA0288838091FB028983411021C066
:102610001B821A8297014A81698188810E946E0912
:10262000259683E0E80EF11CCC16DD0631F7DF912C
:10263000CF911F910F91FF90EF90DF90CF90BF90BF
:10264000AF909F908F907F906F905F904F900C9481
:10265000D20E8B818823E9F081508B83859DC00148
:1026600011246C8170E00E94EF33FB01FF27EF50D3
:10267000FC4F8491E82FE719E59DC0011124B801B2
:102680000E94EF338091FC02689FB00111247A838D
:10269000C1CF0E9478342091FC02269521582A9DB2
:1026A000A0012B9D500D1124452F55278417950708
:1026B0000CF0B0CF82E0861588F40E947834B40123
:1026C0000E94033488830E9478342091FB0226956F
:1026D000622F70E00E940334280F29831A828091B0
:1026E000FC02893C20F088EC8C838B8393CF84316F
:1026F000D8F784E1F9CFCF9384E090E00E9495343D
:10270000C82F82E290E00E949534982F8C2FCF91B1
:102710000895CF92DF92EF92FF926B017C010E94AD
:102720005F09B701A60188E090E0FF90EF90DF908D
:10273000CF900C94BB342F923F924F925F926F9246
:102740007F928F929F92AF92BF92CF92DF92EF9241
:10275000FF920F931F93CF93DF9300D000D000D050
:10276000CDB7DEB7582E262E442E2E839091F90237
:1027700090FF58C0E92FE695AE2FB0E0AE57BE4FA0
:102780008C918093FE029E7F923009F064C09E017E
:102790002F5F3F4F852D0E946E094B8169818A8191
:1027A0000E94E2108091FA02851108C08091FB021C
:1027B000821104C08091FC02841529F080910003ED
:1027C0008260809300035092FA022092FB024092B2
:1027D000FC028E81882309F49FC06091F9027091F8
:1027E000FA028091FB029091FC020E948913809171
:1027F0000E0380FF17C08091FC021F928F9380917F
:10280000FB021F928F938091FA021F928F938EE6A4
:1028100093E09F938F930E94BF060FB6F894DEBF9C
:102820000FBECDBF26960FB6F894DEBF0FBECDBF4C
:10283000DF91CF911F910F91FF90EF90DF90CF909C
:10284000BF90AF909F908F907F906F905F904F90D0
:102850003F902F900895823019F44090FC02A2CF4F
:10286000863019F45090FA029DCF8930D9F389311E
:1028700009F098CFE9518E2F81708C838E2F80952F
:1028800081708D83E695F0E0E654FC4FE590F4907E
:10289000FF248EE0C82E82E0D82EB12CA12C10E0AF
:1028A00000E09AE0692E712C23E9822E23E0922E1B
:1028B000C501B3010E94EF339C81352C91112AC0D0
:1028C000360E80910E0380FF12C0FF92EF921F928E
:1028D0008D818F931F923F921F930F939F928F92A0
:1028E0000E94BF060FB6F894DEBF0FBECDBF9601A3
:1028F000442D622D832D0E946E090F5F1F4FAE0C79
:10290000BF1C93E0C90ED11C0A30110589F60E9444
:10291000D20E48CF361AD5CF80910E0380FF82CFDA
:102920001F924F921F922F921F925F9287E493E023
:1029300070CFE9EFF2E0438128E0421B08F440E069
:1029400021E0628181810C949B13E9EFF2E04381E5
:1029500028E0420F08F44FEF21E0628181810C945E
:102960009B13E9EFF2E0628128E0621B08F460E06B
:1029700021E0438181810C949B13E9EFF2E06281B5
:1029800028E0620F08F46FEF21E0438181810C940D
:102990009B13E9EFF2E0818121E04381628188505D
:1029A0000C949B13E9EFF2E0818121E04381628185
:1029B000885F0C949B138091FD02882319F081504D
:1029C0008093FD026091F9027091FA028091FB02FE
:1029D0009091FC020C9489138091FD02833018F4CD
:1029E0008F5F8093FD026091F9027091FA028091ED
:1029F000FB029091FC020C948913E9EFF2E083E072
:102A0000808311828FEF828383831482AEEFB2E0E2
:102A100012968C911297836012968C9360817181CB
:102A2000828193810C9489136AEE7EEF90E080E0BE
:102A30000E94C73460E082E090E00E94A93460E028
:102A400083E090E00E94A9341092C7021092C8025D
:102A50001092C9021092CA0260E084E090E00E94E5
:102A6000A93460E082E290E00E94A93460E085E051
:102A700090E00E94A93460E086E090E00E94A934D2
:102A80006FEF87E090E00E94A93440E050E0BA0187
:102A900088E090E00E94BB3460E08DE090E00E940E
:102AA000A93440E050E0BA0188E190E00E94BB34D4
:102AB00060E087E190E00E94A93440E050E0BA0174
:102AC0008CE190E00E94BB3470E060E080E290E036
:102AD0000E94C73440E050E0BA0188E190E00E94D3
:102AE000BB3440E050E0BA018FE090E00E94BB347C
:102AF00040E050E0BA0183E190E00C94BB34CF9306
:102B0000DF93D82FC091D902C2FB882780F98D1797
:102B1000F9F0D0FBC2F9C093D9026091D80284E0E9
:102B200090E00E94A9346C2F82E290E00E94A934C8
:102B300080910E0380FF0CC01F92DF938BED98E015
:102B40009F938F930E94BF060F900F900F900F904E
:102B5000DF91CF910895682F86E090E00C94A9341E
:102B60001F920F920FB60F9211242F933F934F9302
:102B70005F936F937F938F939F93AF93BF93EF93E5
:102B8000FF938091E10082FF15C08091E20082FFF7
:102B900011C08091E1008B7F8093E10020911803A8
:102BA0002F5F822F62E30E94D533992309F4BEC0C0
:102BB000209318038091DA0080FF28C08091D8000C
:102BC00080FF24C08091DA008E7F8093DA008091AC
:102BD000D90080FFE1C080E189BD82E189BD09B4EF
:102BE00000FEFDCF81E0809326038EEE9AE00E94E6
:102BF000260680911903811109C00E94C8060E940F
:102C000093078091E20084608093E2008091E1006C
:102C100080FF1BC08091E20080FF17C08091E2001E
:102C20008E7F8093E2008091E20080618093E200D9
:102C30008091D80080628093D80019BC85E0809391
:102C4000260386EF9AE00E9426068091E10084FF29
:102C50002DC08091E20084FF29C080E189BD82E11E
:102C600089BD89B5982F917080FFFBCF8091D800E6
:102C70008F7D8093D8008091E1008F7E8093E1006A
:102C80008091E2008F7E8093E2008091E20081607B
:102C90008093E20080912703882309F487C084E0B1
:102CA000809326038AEF9AE00E9426068091E10035
:102CB00083FF2BC08091E20083FF27C08091E10059
:102CC000877F8093E10082E08093260310922703A0
:102CD0008091E1008E7F8093E1008091E2008E7F01
:102CE0008093E2008091E20080618093E20042E004
:102CF00060E080E00E9461078091F000886080932E
:102D0000F0008EEF9AE00E942606FF91EF91BF91AE
:102D1000AF919F918F917F916F915F914F913F9173
:102D20002F910F900FBE0F901F90189510921803BF
:102D300080911703882309F43DCF809126038430C6
:102D4000C1F49091E9009F702091EC00822F817076
:102D500020FD80E8892B93E09093E9009091EB00AF
:102D600090FF04C09091EE0097FD08C08F70809393
:102D7000E900109217031ECF1092F1009091E80025
:102D800095FDFACF9091E80090FFF0CF9091E80088
:102D90009E779093E800EACF19BC1092260382EF49
:102DA0009AE00E9426061092190330CF8091E3002A
:102DB00087FD93E09093260375CF0F931F930E9496
:102DC0007011882321F01F910F910C9465080E94C7
:102DD00065080091D0021091D1022091D202309169
:102DE000D302600F711F821F931F1F910F910895CF
:102DF000CF92DF92EF92FF926B017C010E947011E3
:102E000081110EC00E946508C61AD70AE80AF90A9D
:102E1000C092D002D092D102E092D202F092D302BC
:102E2000FF90EF90DF90CF90089578941F921FB697
:102E30001F9211248F939F93AF93BF938091CB02E6
:102E40009091CC02A091CD02B091CE020196A11D2D
:102E5000B11D8093CB029093CC02A093CD02B0938E
:102E6000CE02BF91AF919F918F911F901FBE1F9077
:102E700018952FB7F8948091CB029091CC02A09135
:102E8000CD02B091CE022FBF08950E947011811122
:102E90000C9439170E94DD16CB0108956091F90258
:102EA000669570E04BE050E08FE091E00E9488343E
:102EB000892B19F481E08093FF020E9445179093BB
:102EC000F4028093F30280910003846080930003F6
:102ED00080910E0380FF08C08FEB93E09F938F9348
:102EE0000E94BF060F900F9008959091F90290FFF5
:102EF0005AC09170811141C092609093F902809103
:102F000000038160809300036623F1F16091F90270
:102F10007091FA028091FB029091FC020E94891349
:102F200080910E0380FF0FC08091F90286951F9259
:102F30008F9381EF92E09F938F930E94BF060F9033
:102F40000F900F900F906091F902669570E04BE042
:102F500050E08FE091E00E948834892B09F10E94B3
:102F6000911281E08093F60220E04091FC02609192
:102F7000FB028091FA020C949B138B3210F0946543
:102F8000BCCF880F982BB9CF80910E0380FFDBCF89
:102F90008091F90286951F928F9383ED92E0CBCFBB
:102FA0000E944E17DECF089560E00C9475170F93C2
:102FB0001F93AB01BC01CB01AA27BB270097A1053A
:102FC000B10509F444C0AC01BD0180E1052F162F05
:102FD000272F3327011511052105310519F0885FC9
:102FE000B901A8018A019B01F4E036952795179550
:102FF0000795FA95D1F7011511052105310519F04D
:103000008C5FB901A8018A019B01E2E03695279502
:1030100017950795EA95D1F7011511052105310599
:1030200019F08E5FB901A801769567955795479578
:10303000452B462B472B09F08F5F823009F148F46E
:10304000882399F0813079F11F910F91089580E0E4
:10305000BDCF833001F18430B9F784E00E94D417EA
:1030600020E04FEF6FEF85E512C020E04FEF6FEFEC
:103070008AEA0E949B138DE01F910F910C94D41744
:1030800084E00E94D41720E04FEF6FEF80E01F91A3
:103090000F910C949B1320E04FEF6FEF8AEA0E9490
:1030A0009B1388E1E9CF84E00E94D41720E04FEF22
:1030B0006FEF8AEAECCF8091F9028695815009F48E
:1030C0008AE261E00C9475178091F90286958F5F12
:1030D0008B3208F081E061E00C9475179091F90251
:1030E00090FF07C09695981720F0961710F40C944F
:1030F000641861E00C94751780910E0383FF7EC005
:1031000080EB91E00E942606809108031F928F9326
:103110008BEA91E09F938F930E94BF0689EA91E02A
:103120000E94260680910903282F082E000C330BDD
:103130003F938F9386EA91E09F938F930E94BF06FF
:1031400084EA91E00E94260680910A03282F082E27
:10315000000C330B3F938F9381EA91E09F938F9301
:103160000E94BF068FE991E00E94260680910B0322
:10317000282F082E000C330B3F938F938CE991E09E
:103180009F938F930E94BF068AE991E00E942606D2
:1031900080910C03282F082E000C330B3F938F9344
:1031A00087E991E09F938F930E94BF0684E991E0A5
:1031B0000E942606809104031F928F9381E991E07B
:1031C0009F938F930E94BF068FE891E00E9426068E
:1031D000809166021F928F938CE891E09F938F936A
:1031E0000E94BF0689E891E00E9426068DB79EB72F
:1031F0004C960FB6F8949EBF0FBE8DBF0E94391734
:103200009C019091090380910A03982B21F030933F
:1032100006032093050390910B0380910C03982BD8
:1032200021F03093030320930203E091E502F09133
:10323000E602309749F082E0809307030480F5812D
:10324000E02D87E093E00994089590E080E00E94EB
:10325000380990E080E00E9422091092C402109286
:10326000C3020E94941186E0E7E0F3E0DF011D92C3
:103270008A95E9F7109204031092010310926602F6
:103280000C947C18CF92DF92EF92FF926B017C013D
:103290000E94D717C092D402D092D502E092D602F3
:1032A000F092D702FF90EF90DF90CF900C94251909
:1032B0000F931F9341E050E060E070E004C0440FC2
:1032C000551F661F771F8A95D2F7CB01BA0160950B
:1032D0007095809590950091D4021091D50220911F
:1032E000D6023091D70260237123822393231F914A
:1032F0000F910C9442199091C2028095892380937A
:10330000C202282F277039F4282F082E000C330B07
:103310009217130621F49091D90292FF07C0859568
:10332000859585950E9458191092C20208950F93B1
:103330001F9341E050E060E070E004C0440F551F6F
:10334000661F771F8A95D2F78091D4029091D5029B
:10335000A091D602B091D7028A019B01082B192BAC
:103360002A2B3B2BC901B8011F910F910C944219D4
:103370006093C7027093C8028093C9029093CA02F7
:103380000C9425191092C502E0E0F2E086E0DF011E
:103390001D928A95E9F70C9425191F93CF93DF931B
:1033A000CDB7DEB7AA970FB6F894DEBF0FBECDBF7C
:1033B00088E293E02091F100DC012D93CD01B3E090
:1033C00080339B07B9F780912903833009F46FC0DC
:1033D000B8F4813009F446C0823009F4B0C080915D
:1033E000E80083FF38C180912803909129039A3027
:1033F00008F031C1E92FF0E0E05BFA4C0C9417348F
:103400008A3009F48BC08B3009F46EC0893039F7EB
:1034100080912803813219F780912C0390912D031C
:103420000297E8F68091E800877F8093E80080911A
:10343000E80082FF37C09091F3008091F20002977C
:1034400029F48091F1008B7F813021F48091F1008B
:1034500080931B038091E8008B778093E8000E94A3
:103460004207BDCF80912803813A09F0B8CF8091FF
:10347000E800877F8093E80080912C0390912D03D2
:10348000892B61F468E08CE193E070E00E94F4071E
:103490008091E8008B778093E800A1CF60E090E016
:1034A00080E0F3CF809126038111C1CF98CF809126
:1034B0002803813A09F093CF80912C0390912D033A
:1034C000892B09F08CCF8091E800877F8093E800FA
:1034D0008091E80080FFFCCF809181018093F10012
:1034E0008091E8008E77B9CF80912803813209F06E
:1034F00076CF80912C0390912D03892B09F06FCF0B
:103500008091E800877F8093E8000E9442078091C5
:103510002A03809381010E94C21961CF8091280300
:10352000813209F05CCF8091E800877F8093E800CA
:103530000E94420780912B0380931A0350CF809101
:103540002803813A09F04BCF8091E800877F809370
:10355000E8008091E80080FFFCCF80911A03BECF85
:10356000803899F0823809F076C080912C038F70F2
:10357000873008F070C08093E9008091EB0085FBF4
:10358000882780F91092E90006C080912403909169
:103590002503911182609091E800977F9093E80055
:1035A0008093F1001092F1008091E8008E77B0C115
:1035B000882309F49DC1823009F04DC080912A030F
:1035C0008111A1C180912C038F702FEF280F26301D
:1035D00008F041C08093E9002091EB0020FF93C1E7
:1035E000933031F48091EB0080628093EB008BC1CB
:1035F0009091EB0090619093EB0021E030E001C0EE
:10360000220F8A95EAF72093EA001092EA0080914F
:10361000EB008860EACF81111EC010912A031F774A
:103620008091E3008078812B8093E3008091E80013
:10363000877F8093E8000E9442078091E80080FF26
:10364000FCCF8091E30080688093E30082E0111159
:1036500083E0809326038091E80083FF0AC0809175
:10366000E800877F8093E8008091EB008062809380
:10367000EB00AA960FB6F894DEBF0FBECDBFDF9168
:10368000CF911F9108958058823028F720912A0306
:1036900030912B032C3DE3E03E07A1F583E08A83C4
:1036A0008AE289834FB7F894DE01139620E03EE06A
:1036B00051E2E32FF0E050935700E49120FF03C064
:1036C000E295EF703F5FEF708E2F90E0EA30C0F030
:1036D000C7968D939D932F5F243159F74FBF8091EB
:1036E000E800877F8093E8006AE270E0CE010196EF
:1036F0000E94F4078091E8008B778093E800ABCFBD
:10370000C096E7CF80912C0390912D03432F55272E
:103710004330510509F44AC078F54130510509F4A8
:103720007AC08BE590E0E2E0FBE04230510509F021
:1037300092CF2091E800277F2093E80020912E036C
:1037400030912F038217930708F49C0140E0211564
:10375000310509F065C0411163C08091E80082FD28
:10376000C9CF80912603882329F2853019F28091F0
:10377000E80083FFF2CFBECF4132510509F43CC0CF
:103780004232510509F067CF8330910508F063CFCD
:10379000FC01EE0FFF1FE051FE4F0190F081E02D84
:1037A00083519E4FDC018C9190E01AC03327213069
:1037B0003105D1F02115310561F02230310509F0D4
:1037C0004ACFEFE6FBE0E4918E2F90E0EFE6FBE0DE
:1037D00007C0EDE9FBE0E4918E2F90E0EDE9FBE01E
:1037E000009709F438CFA5CFEDE8FBE0E4918E2FE8
:1037F00090E0EDE8FBE0F4CF8330910508F02BCFAB
:10380000880F991FFC01EA50FE4F0190F081E02DD6
:1038100089E090E08ECF82E190E0EDE5FBE089CF9A
:1038200080912603882309F465CF853009F462CF9F
:103830008091E80083FD5ECF8091E80082FD8DCF0E
:103840008091E80080FF83CF9091F3008091F20097
:103850002115310519F08830910550F041E00897A5
:1038600009F040E08091E8008E778093E8006FCF08
:1038700044914093F1003196215031090196E8CFEF
:10388000803809F0E8CE8091E800877F8093E800D7
:10389000809127038093F10087CE8111DCCE1091B7
:1038A0002A03123008F0D7CE8091E800877F8093FA
:1038B000E800109327030E944207112311F084E0CF
:1038C00005C08091E30087FDFACF81E08093260355
:1038D00042E061EC81E00E94610742E261EC82E03B
:1038E0000E94610742E261EC83E00E946107B3CE6F
:1038F00080912A03813009F0AECE81E0933009F047
:1039000080E0809325031092E9008091E800877F92
:103910008093E8000E9442079ECE1F920F920FB63E
:103920000F9211242F933F934F935F936F937F9345
:103930008F939F93AF93BF93CF93DF93EF93FF93B7
:10394000D091E900DF708091EC00C82FC17080FD3C
:10395000C0E81092E9008091F000877F8093F0002A
:1039600078940E94CD191092E9008091F00088604F
:103970008093F000CD2BCF70C093E900FF91EF91C1
:10398000DF91CF91BF91AF919F918F917F916F9177
:103990005F914F913F912F910F900FBE0F901F900D
:1039A0001895882309F452C0823871F40E944E0998
:1039B00081FF4CC089E30E948B080E94941189E327
:1039C0000E947E080C949411833859F40E944E0989
:1039D00080FF3CC083E50E948B080E94941183E520
:1039E000EFCF843859F40E944E0982FF2FC087E43C
:1039F0000E948B080E94941187E4E2CF9CEF980FFD
:103A0000913AF0F290E2980F983050F4877091E07C
:103A100001C0990F8A95EAF7892F0E947708D2CFC3
:103A20009BE5980F933020F490E080E00C943809E7
:103A300098E5980F973120F490E080E00C942209EB
:103A40008D3E20F00E94040A0C947C180895CF93B8
:103A5000DF93EC010E94D11CCE01805E9109089792
:103A600020F060E072E1209711F465E172E1CE018F
:103A7000DF91CF910C94B00DFC018081813029F44D
:103A8000FB01808191810C94271D823021F4FB0180
:103A900082819381F8CF089580910D0190910E015C
:103AA0008230910539F0049749F010920E0110927E
:103AB0000D01089582EE0E94D11CF7CF81E00E9493
:103AC0005819F3CFCF93C82F882309F490C08238B8
:103AD000C1F40E944E0981FD8AC089E30E948B08CF
:103AE0000E9494112FEF81EE94E02150804090408D
:103AF000E1F700C0000089E30E947E08CF910C949A
:103B000094118338A1F40E944E0980FD70C083E5B2
:103B10000E948B080E9494112FEF81EE94E02150B7
:103B200080409040E1F700C0000083E5E5CF843895
:103B3000A1F40E944E0982FD5AC087E40E948B08BE
:103B40000E9494112FEF81EE94E02150804090402C
:103B5000E1F700C0000087E4CFCF8CEF8C0F813AF3
:103B600068F4E0E0F2E08191C817D9F122E0E63094
:103B7000F207C9F78C2F0E948B08C0CF80E28C0F10
:103B8000883068F4C77021E030E001C0220FCA9588
:103B9000EAF78091C502822B8093C502AFCFEBE597
:103BA000EC0FE33040F4F0E0E355FE4F808190E00D
:103BB000CF910C943809E8E5EC0FE73150F4F0E0D0
:103BC000EE0FFF1FE055FE4F80819181CF910C9445
:103BD0002209CD3E60F08C2F0E94BF0ACF910C9439
:103BE0007C188C2F0E947E080E949411C3CFCF9125
:103BF00008950F931F93CF93DF93C62FD42F022FD7
:103C0000FC0182818823A1F0609332030E9439175E
:103C10009093310380933003C77081E001C0880F17
:103C2000CA95EAF7DF91CF911F910F910C941C1266
:103C300080913203681338C0809130039091310332
:103C40000E9456088238910578F510E21D0FCD17B5
:103C5000B9F080E28C0F883040F4C77081E001C079
:103C6000880FCA95EAF70E941512183048F481E0CF
:103C70009D2F977001C0880F9A95EAF70E941C1239
:103C8000802F0E94621D802F0E94D11C183098F452
:103C9000D77081E001C0880FDA95EAF7DF91CF9104
:103CA0001F910F910C941512C77081E001C0880F0D
:103CB000CA95EAF7F3CFDF91CF911F910F91089545
:103CC000CF93DF93EC01805E9109089720F06BE0C1
:103CD00072E1209711F46CE172E1CE010E94B00D07
:103CE0008C2FDF91CF910C94621DFC01808181307B
:103CF00029F4FB01808191810C94601E823021F4B3
:103D0000FB0182819381F8CF0895CF93DF93EC017B
:103D10008881823039F4FB01828193810E94601E88
:103D200081E08B87DF91CF910895FC018081813004
:103D3000B1F48185882339F081E090E090930E0101
:103D400080930D01089582858823B1F382E090E08D
:103D500090930E0180930D0182EE0C94621D8230CF
:103D6000D9F48185811141C08285811137C083E0FA
:103D700090E090930E0180930D018091D402909178
:103D8000D502A091D602B091D7020097A105B10546
:103D900079F583E00C9497198330E9F481858111DA
:103DA00006C08285882319F087E090E0C7CF86E0BF
:103DB00090E090930E0180930D018091D402909138
:103DC000D502A091D602B091D7020097A105B10506
:103DD000D9F481E0DFCF88E090E0B0CF84E090E0DC
:103DE00090930E0180930D01F4CF85E090E0A6CF73
:103DF00033E0B695A795979587953A95D1F780FFCB
:103E0000C8CF83E00C945819B695A79597958795D8
:103E100080FFDFCF81E0F6CFAF92BF92CF92DF92EB
:103E2000EF92FF920F931F93CF93DF9300D000D0B8
:103E3000CDB7DEB72EEDE22E21E0F22E3AEDA32E25
:103E400032E0B32E00E0CC24C394D12CF701819151
:103E50007F01F894E82FE295EF70F0E021A18F70D8
:103E6000A60102C0440F551F8A95E2F7CA01922F9E
:103E7000982B91A392A18095892382A3789400C066
:103E8000E6EEF1E030E020E010E04191A42FA295B1
:103E9000AF70B0E090968C9190E04F7002C0959515
:103EA00087954A95E2F780FD4CC08C2D022E01C00B
:103EB000880F0A94EAF7182B2F5F3F4F2730310500
:103EC00021F7F701319780810E94190B50EA5A952A
:103ED000F1F7F50180811817B1F1108381E0082B0B
:103EE000FFEFAF1ABF0A22EEE21621E0F20609F058
:103EF000ADCF1091E302002341F181E080930802ED
:103F00000E9439179093070280930602809106025F
:103F1000909107020E9456080697D8F0E12FF0E032
:103F2000E851FD4F8091DA0280838091DB0281832A
:103F30008091DC0282838091DD02838310920802EB
:103F400008C080E0B8CF80E0CACF8091080281111C
:103F5000DDCF0E947011182F6091E302882309F4CD
:103F6000A1C019821A821B821C82862F90E0BE019A
:103F70006F5F7F4F88519D4F0E94753181112EC018
:103F8000809109028F5F80930902863008F444C053
:103F9000E091E202F0E0E851FD4FDE011196CE0122
:103FA000059611921D928A179B07D9F7809175018A
:103FB0008F3F09F073C0011101C0012F802F0F90B6
:103FC0000F900F900F90DF91CF911F910F91FF9065
:103FD000EF90DF90CF90BF90AF90089510920902BC
:103FE000A091E202B0E0A851BD4FBE016F5F7F4FCC
:103FF0009E012B5F3F4F10E04D91FB019191BF015E
:10400000491731F0AD0141505109FA019083182F41
:104010006217730789F7CACF10E0C8CFC29EF001BC
:10402000C39EF00D1124E35EFE4FA288B388A11455
:10403000B10419F492E8A92EB12CC29EC001C39E0E
:10404000900D11249C01235E3E4F7901F901868178
:104050008823C1F0858596850E945608A816B90662
:1040600088F4DC9C50011124F7018189811105C07D
:10407000C501835E9E4F0E942612C5018D5D9E4F35
:104080000E944712D3942D2D30E080917501082EA7
:10409000000C990B821793070CF68DCFD12C86E17B
:1040A000C82EF1CF70E068517D4F8091E20290E020
:1040B00088519D4F0E94E2317ECF1F921FB61F9202
:1040C00011248F939F93AF93BF938091E702811147
:1040D00013C08091CB029091CC02A091CD02B091FF
:1040E000CE024196A11DB11D8093CB029093CC02CC
:1040F000A093CD02B093CE02BF91AF919F918F91CB
:104100001F901FBE1F901895CF92DF92EF92FF92E3
:10411000863088F5811130C0209188003091890067
:10412000232B51F090916F009D7F90936F009091A1
:104130006F009E7F90936F005A98282F30E0AFEF6A
:10414000BFEF0E94313525E030E040E050E00E94B2
:104150000F35C9012C3764E13607F8F469E070E0E7
:104160000E94EF337093890060938800FF90EF9076
:10417000DF90CF90089585E02091880030918900EC
:10418000232BD9F690916F00926090936F009091DD
:104190006F00916090936F00D0CF2A50374D4F4FF2
:1041A0005F4F942F832F722F662725EF38E241E06F
:1041B00050E00E940F3569017A01CA01B9010E94DD
:1041C000C5339B01AC01C701B6010E94C533672FFF
:1041D000782F892F99276115710521E082079105B4
:1041E00009F66FEF7FEFBECF4F925F926F927F9293
:1041F0008F929F92AF92BF92CF92DF92EF92FF92F7
:104200000F931F93CF93DF9300D000D00F92CDB7C1
:10421000DEB77C01DC0113968D919C911497892B5C
:1042200049F01C911196DC90812F8D218F3F11F068
:104230000C9456290F900F900F900F900F90DF91D4
:10424000CF911F910F91FF90EF90DF90CF90BF9093
:10425000AF909F908F907F906F905F904F90089558
:104260000E94280D082F682F89819A810E94CC080E
:10427000E12FF0E0B7E0DB9EE00DF11D112428E313
:10428000029FE00DF11D1124EE0FFF1FE555F94FC0
:1042900005911491D70112968C918111D4C0F70128
:1042A00082810036FDE51F0709F443C108F0B0C064
:1042B0000F353DE5130709F408C10436FDE51F0776
:1042C00009F457C105362DE5120709F48AC1811199
:1042D00096C1980137552F3F310511F008F08AC279
:1042E00040917501042E000C550B4217530714F42E
:1042F0002093750196E1929F5001939FB00C112479
:10430000D501A35EBE4F6D0150968C935097F70177
:10431000928116968C911697992309F45DC21A968C
:104320001C930E9319978F5F16968C930E943917E2
:10433000D6011E969C938E931D978091C602179668
:104340008C9317978091C4029091C502892B18967F
:104350008C931897ED91FC911197309739F0549602
:104360006D917C91C5018D5D9E4F099510936402FE
:1043700000936302D70112968C91882309F4CFC76A
:10438000109232030230BCE51B0708F448C3063123
:10439000ECE51E0730F0C8018B5F9C45099708F0DB
:1043A0003EC30E947B139093D9028093D8020031C0
:1043B000FCE51F0709F402C308F093C208303CE58E
:1043C000130709F4EDC208F062C204309CE5190736
:1043D00009F4DEC208F048C20230BCE51B0709F44C
:1043E000D1C28091D802826003301C4509F4CDC24D
:1043F0006091D8021091D90284E090E00E94A93423
:10440000612F82E290E00E94A9340E94C2196EC01E
:1044100001369DE5190709F49CC00236ADE51A077F
:1044200009F04BCF882309F461C081E00E9458193C
:1044300084E00E94581982E00E94581980E00E948E
:10444000581983E051C0809175018F3F09F427CF3F
:104450005DE1C52E51E0D52EB12CA12C9924939469
:1044600080917501082E000C990B8A159B050CF4A0
:1044700016CFF6018681882309F181859285801700
:10448000910739F48091630290916402801791073B
:10449000A9F0D6011F969C921F971C961C930E9311
:1044A0001B9751968C91811103C0C6010E94261260
:1044B000C60106960E9447121092C402BFEFAB1AC3
:1044C000BB0AE6E1CE0ED11CCBCF882379F081E088
:1044D0000E94581983E00E94581982E00E945819DE
:1044E00084E00E94581980E00E9497198091C202CE
:1044F000877009F49FCED70112968C91882309F416
:1045000099CE82E00F900F900F900F900F90DF9157
:10451000CF911F910F91FF90EF90DF90CF90BF90C0
:10452000AF909F908F907F906F905F904F900C9482
:104530007B198823D9F281E00E94581983E00E94F8
:10454000581984E00E94581980E00E94581982E0AE
:10455000CBCF882359F281E00E94581983E00E9452
:10456000581982E00E94581980E00E94581984E08E
:10457000BBCF882309F4BACF80910E0380FF10C00F
:104580008091F902809581701F928F938AE295E065
:104590009F938F930E94BF060F900F900F900F90E4
:1045A0008091F90280FF03C00E94A5129FCF816015
:1045B0008093F90280910E0380FF0DC01F9281E06D
:1045C0008F9381EF94E09F938F930E94BF060F908B
:1045D0000F900F900F908091F90286950E94D4174A
:1045E00085CF882309F482CF8091F90286958F5F69
:1045F0008B3208F081E060E00E94751777CF0E3BA8
:104600003CE5130709F465C090F40C3BACE51A07D0
:1046100009F447C00D3BBCE51B0709F05ACE809159
:10462000620287708E7F8093620280E04BC0003C04
:10463000ECE51E0709F49CC008F475C0013C2CE5AC
:10464000120709F046CE90916202892F86958695D1
:1046500086958F5F8F719770863008F0BAC0880F8B
:10466000880F880F892B8093620280916202887F75
:1046700091E009F490E08091620290FB80F98093D0
:1046800062020E94AB1580910E0380FF42C68091AA
:1046900062028695869586951F928F938EEC95E0A3
:1046A00039C0809162028770886280936202887F3D
:1046B00091E009F490E08091620290FB80F9809390
:1046C000620285E00E948420809162020E94AB1504
:1046D0000DCF80916202982F987F79F08850809357
:1046E0006202887F91E009F490E08091620290FB81
:1046F00080F9809362020E94AB1580910E0380FFC7
:1047000008C6809162028695869586951F928F9342
:1047100083E695E09F938F930E94BF060F900F90C2
:104720000F900F90F6C580916202982F96959695FE
:104730009695953040F49F5F990F990F990F877068
:10474000892B809362028091620281608093620271
:104750000E94AB1580910E0380FFDBC58091620241
:104760008695869586951F928F938BE795E0D2CF9D
:1047700010916202117080910E0380FFACC51F92F0
:104780001F9388EB95E09F938F930E94BF060F9035
:104790000F900F900F90112309F49FC58091620232
:1047A00080FFA4CE809162028E7F809362020E947D
:1047B000AB1580910E0380FF08C083E995E09F93BD
:1047C0008F930E94BF060F900F9080E00E9484207C
:1047D0008DCE9093620249CF882309F4CBCDFD01A1
:1047E0008189882309F4C6CDC5018D5D9E4F0E9445
:1047F0004712C0CD043FFCE51F0739F188F4093D9D
:104800003CE51307F1F00A3D8CE5180751F1083D2E
:104810009CE5190709F0AECD26E241EE61EE0DC030
:10482000063FACE51A07C9F0A0F027E245EE66EEB8
:10483000073FECE51E0709F09DCDC7010E94F91D59
:1048400055CE27E245EE65EEF8CF26E241EE60EE6A
:10485000F4CF27E245EE64EEF0CF26E241EE62EEC1
:10486000ECCF28E241E0EFCF8091D80280610630A2
:10487000FCE51F0709F489C08091D80288600730E1
:104880001C4508F482C08091D80280627EC080916D
:10489000D8028D7F0C303CE5130709F476C070F424
:1048A0008091D8028C600A309CE5190709F46DC02C
:1048B00008F47AC08091D8028E7F67C08091D802B8
:1048C000877F0E30BCE51B0709F45FC08091D802DA
:1048D0008B7F0F301C4508F458C08091D8028F7E22
:1048E00054C00C3FFCE51F0709F456C030F50331F6
:1048F0003CE5130709F46AC078F401319CE5190717
:1049000009F460C002311C4509F072CD0E94C21941
:104910008091D8028F7739C00531BCE51B0709F4B7
:104920005DC008F471C08091D90281600B3F1C45C5
:1049300009F05ECD8093D9025BCD01152DE51207FC
:1049400009F448C070F40E3F8CE5180799F1809186
:10495000D9028E7F0F3F1C4568F38091D902836096
:10496000E9CF0230ADE51A0709F457C008F442C098
:1049700060E003301D4509F03BCD8EE090E00E94E1
:10498000A93436CD8091D80281608093D80230CD91
:104990008091D8028460F9CF8091D9028260CACF19
:1049A0008091D8028064F1CF0E94C2198091D80210
:1049B0008068EBCF8091D9028D7FBCCF8091D802E7
:1049C0008F7DE3CF8091D8028F7BDFCF8091D8029B
:1049D000837FDBCF8091D9028C7FACCF8091D802CE
:1049E00082FB992790F921E0922790FB82F990FBB6
:1049F00083F9CBCF8091D902982F909591708E7FBB
:104A0000892B90FB81F996CF0E94C2199091D80210
:104A1000892F97FB87F98058B8CF61E0AECF063178
:104A2000FCE51F0709F07BC18091C5028A7A91E0FD
:104A300009F490E090936502811102C089E201C0FF
:104A400085E30E948B080E94941150CD85E30E945B
:104A50007E08F9CF8091C50282720D3C2CE51207C9
:104A600009F443C108F087C0073C9CE5190709F425
:104A700028C108F060C0043CBCE51B0709F417C15D
:104A800008F049C0033C1C4509F4ADC0F701828120
:104A900000811181882309F49AC1C8010E94280D60
:104AA000D82E682FC8010E94CC08B8018D2D0E9415
:104AB000730B8C01882ED7011296DC9012971596F5
:104AC000AC90A2944FE0A4228091C2028770A1F022
:104AD000CD2CDD2091F0812F807F803421F080E289
:104AE000800F883048F082E00E947B198091C202DA
:104AF0008770CC24C3948111C12CB12EB2943FE0B5
:104B0000B322BBE0BB1508F499C1EB2DF0E0E65AE7
:104B1000FA4C0C941734053C2CE5120709F4CCC070
:104B200049EC54E162ED74E1063C1C4509F0AECF5E
:104B30000E945A09DBCC0A3C9CE5190709F4CBC05A
:104B400068F4083CBCE51B0709F4C0C04DEB54E118
:104B500061EB74E1093C1C4559F398CF0B3CFCE533
:104B60001F0709F4BDC04BED54E16CEE74E10C3C41
:104B70001C45F1F28BCF023D3CE5130709F4C3C09D
:104B8000A8F40F3C9CE5190709F4B7C008F4B2C0BB
:104B9000003DBCE51B0709F4B3C06EE089E0013DB0
:104BA0001C4509F073CF0E946E18A0CC053DFCE5B2
:104BB0001F0709F4AEC060F4033D3CE5130709F498
:104BC000A5C0043D1C4509F061CF61E088E114CD2A
:104BD000063D9CE5190709F49FC06AE285E20E359F
:104BE0001D4509F353CF80910E0380FF10C08091C3
:104BF000F902809581701F928F9381E596E09F93D3
:104C00008F930E94BF060F900F900F900F9080918E
:104C1000F90280FF33C08E7F8093F9026091F90220
:104C20007091FA028091FB029091FC020E9489131C
:104C300080910E0380FF0FC08091F90281701F9256
:104C40008F9382EE95E09F938F930E94BF060F9003
:104C50000F900F900F900E9491128091000381603D
:104C600080930003BFEFE0E7F2E0B150E040F04096
:104C7000E1F700C000000E94D20E38CC8160809322
:104C8000F90280910E0380FF0DC01F9281E08F9387
:104C90008AE196E09F938F930E94BF060F900F903A
:104CA0000F900F908091F90261E08695A5CC4BE5BD
:104CB00058E164E678E13CCF44E658E16BE578E101
:104CC00037CF42ED54E169EC74E132CF41EB54E16E
:104CD0006DEB74E12DCF49E954E165EA74E128CF29
:104CE00045EA54E169E974E123CF4CEE54E16BED00
:104CF00074E11ECF61E081E07FCC65E082E053CFBC
:104D000068E086E050CF64E18FE04DCF67E185E158
:104D10004ACF62E289E147CF61E083E26DCC0F3D8B
:104D20002CE5120709F444C0B8F401158CE5180706
:104D300001F101301C4509F0A9CE90910E03892F95
:104D40008E7F90FF816080930E0380FF2EC08AE9E2
:104D500096E00E942606CACB0C35ADE51A07A9F1EC
:104D60000D35100741F10B351D4509F08FCE81E05F
:104D700029C00E94C219FFEF24E33CE0F15020401B
:104D80003040E1F700C0000087E797E79093010803
:104D90008093000888E19AE00FB6F894A895809374
:104DA00060000FBE90936000FFCF88E896E0D1CFFF
:104DB0000E9414159BCB8091D90282FB882780F931
:104DC00091E089270E947F1561CE80E0FBCFC8016A
:104DD0000E94A408D82E69CEE12FEF70AE2E107F6E
:104DE00019F0A29420EFA222DD20C9F0AA2069F0D8
:104DF00080E2800F883010F081100BC08091C502D6
:104E0000A82AA092C5020E949411802F0E94621DC0
:104E100015C08091C402A82AA092C402F4CF802FAA
:104E20000E94D11CAA2051F0005E083010F08110C1
:104E300043C08A2D0E9477080E949411AB2DA85080
:104E4000BB0B149710F40E944E09CC20A9F080915E
:104E5000C20280FD11C0F701128285958595859566
:104E60000E949719C7010E94F4208091C202859583
:104E7000859585950E94581985E0F701DE01119608
:104E800001900D928A95E1F789819A810E94A40888
:104E90009A81E981F0E027E0929FE00DF11D112455
:104EA00038E3839FE00DF11D1124EE0FFF1FE55540
:104EB000F94F85919491BEC9A0948091C402A82213
:104EC000A092C402B9CFF12FFF709F2E107F103235
:104ED00019F0929490EF9922882071F021E08216C7
:104EE00081F1DD20D9F1AA2091F1F701858180FFC0
:104EF0008CCF8F7085832BC0DD20B1F09091C602DE
:104F0000892D892BA11003C00E941C1297CF31E07C
:104F1000A312FACF2091D90222FD90CF981709F45D
:104F20008DCF8093C6028ACFA11006C00E9471085F
:104F3000892D0E94151282CF81E0A81609F47ECF38
:104F4000F5CFDD2031F095E09A1508F477CF892D63
:104F5000DBCFA4E0AA1508F471CFEACFAA2041F371
:104F6000F9E38F1209C02FEF37EE83E02150304074
:104F70008040E1F700C00000802F0E94D11C5ECF6E
:104F8000812F86958695837061F0813009F056CF28
:104F9000C8019370D11002C090E080E00E94220905
:104FA0004DCFC8019370D11002C090E080E00E9404
:104FB000380944CF802FDD2029F00E94BF0A0E94CB
:104FC0007C183CCF0E94040AFACF812F837009F02D
:104FD00066C0D11033CF802F829586958770880F59
:104FE000880F602F6F70462E512C712C612C082E6B
:104FF00004C0440C551C661C771C0A94D2F740E090
:1050000050E0BA0104FF0FC04FE050E060E070E0F4
:1050100004C0440F551F661F771F8A95D2F740952D
:10502000509560957095812F869586958370823016
:1050300019F1D8F40091C7021091C8022091C90259
:105040003091CA02813069F04429552966297729AF
:10505000CB01BA0160237123822393230E94B819E4
:10506000EDCE402A512A622A732ACB01BA01642963
:10507000752986299729F2CF442955296629772948
:105080000091C7021091C8022091C9023091CA0252
:10509000CB01BA016027712782279327DFCF86953E
:1050A000DD2011F0812F8170882309F4C7CE802F75
:1050B000829586958770880F880F602F6F70462EB7
:1050C000512C712C612C082E04C0440C551C661CFC
:1050D000771C0A94D2F740E050E0BA0104FF0FC0F9
:1050E0004FE050E060E070E004C0440F551F661FC1
:1050F000771F8A95D2F74095509560957095812FCE
:10510000869586958370823019F1D8F40091D40287
:105110001091D5022091D6023091D702813069F0EA
:105120004429552966297729CB01BA0160237123C7
:10513000822393230E94421981CE402A512A622A57
:10514000732ACB01BA016429752986299729F2CFE0
:1051500044295529662977290091D4021091D50256
:105160002091D6023091D702CB01BA016027712776
:1051700082279327DFCF1F70DD2029F0812F0E9427
:105180009719802FC1CE802F0E941512812F0E9467
:10519000581954CE802F92EF891609F454C09815EF
:1051A00078F0A0EF8A1639F1B1EF8B1609F443C0FD
:1051B000DD2009F46BC0A11028CE812F8F7140C073
:1051C000E3EF8E1609F444C0F4EF8F12F1CFDD2027
:1051D00009F451C01F71812F0E9497198091D90243
:1051E00082FD07C0A8E01A9FC0011124836080934C
:1051F000C202812F25C0DD20C9F024E02A1508F461
:105200001DCE1F7161E070E080E090E004C0660F89
:10521000771F881F991F1A95D2F70091D402109119
:10522000D5022091D6023091D702A0CF35E03A15B1
:1052300008F404CEE6CF812F8F71DD2009F4A7CFCB
:105240000E949719FBCD812F8F71DD20C9F39FCF6D
:1052500060E070E0CB01DD2009F46CCF1F7161E0EC
:1052600070E080E090E004C0660F771F881F991FF0
:105270001A95D2F75FCF81E00E947B19B1E0BA1591
:1052800008F0DCCD82E00E947B19D8CDAA2059F02D
:10529000893309F071CEEFEFF7EE23E0E150F040F3
:1052A0002040E1F767CE812F8F7171CF85E0F70144
:1052B000DE01119601900D928A95E1F7D7011296C1
:1052C0002C9189819A8121110C9430210E94A4088B
:1052D000082F0C943821111165CA8091620280FD5B
:1052E00005C9816080936202813019F489E080935E
:1052F0006202809162020E94AB1580910E0380FFD2
:1053000008C086EA95E09F938F930E94BF060F9096
:105310000F908091620286958695869557CA0631D0
:10532000BCE51B0709F096CB8091650281118ECBFD
:1053300089E28DCB1F93CF93DF9380916C02807FA6
:10534000A9F480916902882389F080919E02D0910E
:105350006D026091670270916802A0916A02B0913B
:105360006B02C62FC72316E0D81304C0DF91CF917C
:105370001F91089590E0109711F0CF3F19F4019616
:105380008770F2CF189F9001199F300D1124F901F9
:10539000E259FD4F41814713F2CF40814613EFCFD1
:1053A00042814111ECCF438154814A1B5B0B42384F
:1053B000510528F780916C028F70806180936C0298
:1053C000F901ED58FD4F80818F708061808387E601
:1053D00092E00E94F420DF91CF911F910C94180964
:1053E0008F929F92AF92BF92CF92DF92EF92FF92F5
:1053F0000F931F93CF93DF93CDB7DEB761970FB6AF
:10540000F894DEBF0FBECDBF8C0185E0F801DE0150
:105410001D9601900D928A95E1F7D801EC901196B6
:10542000DC9011971296CC90129787E6882E82E036
:10543000982E40916A0250916B024115510509F472
:1054400043C19091670220916802892F82238F3F88
:1054500009F43AC11396AD90BC901497F09069028C
:10546000F501E41BF50BFF2009F4FFC080916C02ED
:10547000382F307FE238F10508F0C8C0311185C0FF
:10548000FC2C2D1124C09E1122C0C11020C08F7091
:10549000806180936C02C4010E94F42080916C02B0
:1054A000D80115968C938F2D61960FB6F894DEBFB8
:1054B0000FBECDBFDF91CF911F910F91FF90EF9065
:1054C000DF90CF90BF90AF909F908F900895A114E0
:1054D000B10429F08E2D8D218F3F09F016C180E097
:1054E00080FF14C04C2D6D2D8E2D0E94F80888234E
:1054F00069F087E692E00E94F42086E0E7E6F2E0B9
:10550000DF011D928A95E9F7F12CCDCFAB2829F068
:105510008E2D8D218F3F09F0F5C080E0B82FB1703E
:10552000AB2E80FF29C04C2D6D2D8E2D0E94F808CA
:10553000B82E811121C0ED86DE868D859E850E9464
:105540006A0D292F22952F70223050F0243078F4E4
:105550009F7051F0F8019581907F31F4FB2CA3CF1F
:105560009F7011F08823D1F3805E8830B8F3C801B2
:105570000E94F420BA2CF2CFCC2009F494CF809171
:105580006C02816080936C02BFCF2D1112C09E11FE
:1055900010C0C1100EC015968C93C8010E94F42053
:1055A00086E0F801A7E6B2E001900D928A95E1F756
:1055B0007ACFED86DE868D859E850E94740D8823C8
:1055C00009F1CC20F9F080916C02803270F02091CA
:1055D00067023091680238872F831986BB86AA86B6
:1055E0008C87CE0107960E94F42086E0F801A7E69A
:1055F000B2E001900D928A95E1F70E949A29FF246A
:10560000F39451CFC8010E94F420F9CF332309F459
:1056100070CF2D110FC09E110DC0C1100BC0F8012D
:105620008583C8010E94F42086E0D4011D928A95EA
:10563000E9F739CFED86DE868D859E850E94740D53
:10564000882301F3CC20F1F280916C02803268F261
:1056500020916702309168023A8329831B82BD82C0
:10566000AC828E83CE010196BECFE238F105E0F622
:10567000FC2CCC2039F22D1116C09E1114C0809143
:105680006C0280FD8DCF982F907F09F489CFF801AF
:105690008583903F09F481CF982F907F905F8F7022
:1056A000892B85837ACFED86DE868D859E850E9447
:1056B000740D81119ACF80916C02816080936C028D
:1056C000C8010E94F420EFCECC2009F49BCFED86D8
:1056D000DE868D859E850E94740DF82E882309F440
:1056E00091CF86E0F801A7E6B2E001900D928A958D
:1056F000E1F780916702909168020E946A0D0E9412
:105700009A29D1CE81E08C2509CF81E08C25E8CE85
:105710001F93CF93DF93CDB7DEB767970FB6F8949B
:10572000DEBF0FBECDBF342F4B8B252F5C8B6D8B17
:105730007E8B8F8B8E899F8961111092C4021A8A89
:10574000198A3D872E876F87998B888B86E0FE01AB
:105750003D96DE01179601900D928A95E1F7CE01F4
:1057600007960E94F029882389F016E080919E0216
:1057700090916D02891349C067960FB6F894DEBF09
:105780000FBECDBFDF91CF911F91089586E0FE013E
:105790003796DE01119601900D928A95E1F78A8580
:1057A0009B85892B11F38F81988589238F3FE9F29F
:1057B00020916D0230E0C9010196877099274091D0
:1057C0009E024817190671F40E94C21910926D02C8
:1057D00010929E0286E0E7E6F2E0DF011D928A95D4
:1057E000E9F7C3CF96E0929FD001939FB00D1124AB
:1057F000A259BD4FFE01319601900D929A95E1F7A5
:1058000080936D020E941809B0CF819FC0011124BE
:1058100082599D4F0E94F029882309F4ADCF8091D1
:105820009E0290E001968770992780939E029ECFFA
:1058300090E080E00E94A3348A3E9E4F51F00E9487
:1058400014158091620284708962809362020E94C2
:10585000AB1586E090E00E9495348093620280331D
:1058600020F0877088628093620290916202892F93
:10587000817090FF04C0892F8695869586950C943B
:105880008420CDB7DEB762970FB6F894DEBF0FBEA7
:10589000CDBF84B7877F84BF0FB6F894A895809159
:1058A0006000886180936000109260000FBE80E805
:1058B00090E00FB6F89480936100909361000FBE62
:1058C00085B7806885BF85B7806885BF87EE9DE016
:1058D0009093FD018093FC010E94C8060E949307EB
:1058E0008091E20084608093E200789480912603A6
:1058F0008823A1F01091E9001F709091EC00892F8E
:10590000817090FD80E8182B1092E9008091E800EA
:1059100083FD0E94CD191F701093E90082E084BDC1
:1059200093E095BD9AEF97BD80936E001092D002E0
:105930001092D1021092D2021092D3020E947011E2
:10594000809376010E94701181110E94093280912A
:1059500076018091760194E0811190E09093E302CA
:1059600084E0891B8093E20282E30E94190B83E3A7
:105970000E94190B81E30E94190B87EF0E94190BFB
:1059800006EE11E02DEEE22E21E0F22EF8018191DB
:105990008F010E94190BE016F106C1F7EAEDF2E063
:1059A00082EE92E0A8EEB2E011921D928E179F0750
:1059B000D9F790E080E00E94A3348A3E9E4F11F018
:1059C0000E94141582E090E00E94953480930E03AB
:1059D0000E947B139093D9028093D80283E090E0D9
:1059E0000E949534682F70E090E080E00E94B81922
:1059F0006091D4027091D5028091D6029091D70225
:105A00000E94D717529A5A9882E08093800089E1C9
:105A1000809381008FEF9FEF9093870080938600A3
:105A20000E94182C0E947011811102C00E940B323A
:105A30000E94182C8091E4028111E9C080910E032C
:105A400080FF14C08CE49AE09F938F930E94BF065E
:105A500080910E030F900F9080FF08C086E39AE0BC
:105A60009F938F930E94BF060F900F9090E080E06D
:105A70000E94A3348A3E9E4F81F080910E0380FFE6
:105A800008C08EE09AE09F938F930E94BF060F900C
:105A90000F900E9414150E94FD1488E090E00E946F
:105AA0009D346093F9027093FA028093FB02909305
:105AB000FC02809100038360809300036E7FD1F429
:105AC00080910E0380FF08C085EC99E09F938F932F
:105AD0000E94BF060F900F900E94FD1488E090E096
