:100000000C94CA030C9411040C9411040C94110464
:100010000C9411040C9411040C9411040C9411040C
:100020000C9411040C9411040C94402C0C94142D79
:100030000C94B3260C9411040C9411040C94110428
:100040000C9411040C9411040C9411040C941104DC
:100050000C9411040C940A270C9411040C941104B0
:100060000C9411040C9411040C9411040C941104BC
:100070000C9411040C9411040C9411040C941104AC
:100080000C9411040C9411040C9411040C9411049C
:100090000C9411040C9411040C9411040C9411048C
:1000A0000C9411040C9411040C94110414001A0003
:1000B000080015001700000000000000000000000C
:1000C000000004001600070009000A0000000000FC
:1000D00000000000000000001D001B0006001900C9
:1000E000050000000000000000000000000000000B
:1000F000000000002B002C0039002A004C000000FA
:1001000000000000000000000000000000000000EF
:100110001C0018000C00120013000000000000007A
:100120000000000000000B000D000E000F00280072
:1001300000000000000000000000000005001100A9
:10014000100036003700010001000100010001002D
:10015000000000000000000000000000010001009D
:10016000010001000100000000000000000000008C
:10017000000001000100010001000100000000007A
:10018000000000000000000000000000000001006E
:10019000010001000100010000000000000000005B
:1001A000000000000000000000000100010001004C
:1001B000010001000000000000000000000000003D
:1001C0000100010001000100280000000000000003
:1001D000000000000000010001000100010001001A
:1001E000010001000100010001000000000000000A
:1001F00000000000000001000100010001000100FA
:1002000000000000000000000000000001000100EC
:1002100001000100010000000000000000000000DB
:1002200000000000000000000100010001000100CA
:1002300001000000000000000000000000000000BD
:1002400000000000010001000100010001000000A9
:10025000000000000000000000000100010001009B
:10026000010001000000000000000000000000008C
:100270000100010001000100010001000100010076
:10028000010001000000000000000000000000006C
:100290000100010001000100010000000000000059
:1002A0000000000000000100010001000100010049
:1002B000000000000000000000000000000000003E
:1002C0000000010001000100010001000000000029
:1002D000000000000000000000000000000001001D
:1002E000010001000100010000000000000000000A
:1002F00000000000010001000100010001000000F9
:1003000000000000000000000000010001000100EA
:100310000100010000000000000000002A2B28005E
:1003200000000000000000000000000000000029A4
:10033000000000002C1E3420212224342627252EE4
:10034000362D3738271E1F2021222324252633331C
:10035000362E37381F0405060708090A0B0C0D0E48
:100360000F101112131415161718191A1B1C1D2F14
:100370003130232D350405060708090A0B0C0D0E34
:100380000F101112131415161718191A1B1C1D2FF4
:100390003130354C0000000000000000000000007B
:1003A000000000000000000000000000000000004D
:1003B00000000000000000007E0F00D4FFFFFFC718
:1003C000000000781E0F0500047F3F1F6432146494
:1003D0003214783C1E1E140A052223252628292AB9
:1003E0002C2D2F3032333536383A3B3D3E40424398
:1003F0004547494A4C4E5051535557595A5C5E60D7
:1004000062646668696B6D6F71737577797B7D7FE8
:1004100081838587898A8C8E90929496989A9C9EE7
:100420009FA1A3A5A7A8AAACAEAFB1B3B4B6B8B903
:10043000BBBCBEBFC1C2C3C5C6C7C9CACBCCCDCE6B
:10044000D0D1D2D2D3D4D5D6D7D7D8D9D9DADADB4E
:10045000DBDBDCDCDCDCDCDDDDDDDDDCDCDCDCDCDA
:10046000DBDBDBDADAD9D9D8D7D7D6D5D4D3D2D219
:10047000D1D0CECDCCCBCAC9C7C6C5C3C2C1BFBE01
:10048000BCBBB9B8B6B4B3B1AFAEACAAA8A7A5A36C
:10049000A19F9E9C9A98969492908E8C8A8987852B
:1004A00083817F7D7B79777573716F6D6B6968660A
:1004B0006462605E5C5A5957555351504E4C4A49DC
:1004C00047454342403E3D3B3A3836353332302F84
:1004D0002D2C2A292826252322FFAA7F55400001FA
:1004E00001010101010101010202020202020202F4
:1004F00002030303030303030304040404040404C6
:100500000505050505060606060607070707070889
:10051000080808090909090A0A0A0B0B0B0C0C0C3C
:100520000D0D0D0E0E0E0F0F0F10101111111212D6
:1005300013131414151516161717181819191A1A53
:100540001B1B1C1D1D1E1E1F2020212222232424B4
:10055000252626272829292A2B2C2D2D2E2F3031F0
:100560003232333435363738393A3B3C3D3E3F4002
:100570004142434445464748494A4C4D4E4F5051ED
:100580005354555658595A5B5D5E5F6162646566A7
:1005900068696B6C6D6F7072737577787A7B7D7E2E
:1005A0008082838587888A8C8E8F91939596989A7E
:1005B0009C9EA0A2A3A5A7A9ABADAFB1B3B5B7BA96
:1005C000BCBEC0C2C4C6C9CBCDCFD1D4D6D8DBDD6A
:1005D000DFE2E4E7E9EBEEF0F3F5F8FAFDFF1203F2
:1005E0006B0068006F00720061006D003300350021
:1005F0000000160371006D006B0062007500690059
:100600006C00640065007200000004030904090224
:100610005B00030100A0FA090400000103010100CE
:100620000921110100012240000705810308000A89
:100630000904010002030000000921110100012248
:1006400022000705820320000107050303200001A3
:100650000904020001030000000921110100012228
:10066000B6000705840320000A12011001000000F3
:10067000084B4114011101010200010660FF0961EC
:10068000A1010962150026FF009520750881020965
:1006900063150026FF00952075089102C005010929
:1006A00002A10185020901A1000509190129081506
:1006B00000250195087501810205010930093115F0
:1006C00081257F95027508810609381581257F955A
:1006D0000175088106050C0A38021581257F9501F0
:1006E00075088106C0C005010980A10185031901B3
:1006F0002AB700150126B700950175108100C005C5
:100700000C0901A101850419012AA002150126A0E6
:1007100002950175108100C005010906A10185053A
:10072000050719E029E715002501950875018102E3
:100730000507190029EF1500250195F075018102C3
:1007400005081901290595057501910295017503A3
:100750009101C005010906A101050719E029E71566
:100760000025019508750181029501750881010533
:1007700007190029FF150026FF009506750881005E
:100780000508190129059505750191029501750363
:100790009101C00011241FBECFEFDAE0DEBFCDBF54
:1007A00004B603FE27C08091490390914A03A091AB
:1007B0004B03B0914C038730904BA740B04BD1F422
:1007C0001092490310924A0310924B0310924C036B
:1007D00014BE84B7877F84BF0FB6F894A895809124
:1007E0006000886180936000109260000FBEE0E0BE
:1007F000F8E3099511E0A0E0B1E0EEECF0E602C00C
:1008000005900D92AA3DB107D9F723E0AAEDB1E01A
:1008100001C01D92A934B207E1F70E9400290C948F
:100820002A300C94000090E080E008950895089527
:1008300081E00895089581E008950C9418040895C6
:100840000C941F041F93CF93DF9300D000D00F921E
:10085000CDB7DEB749835A836B83309141028981DA
:100860009A8131111DC06623B9F02223A9F00E949C
:100870007D23182F682F89819A810E9429236981FD
:100880007A81812F0F900F900F900F900F90DF9132
:10089000CF911F910C94AE160E945523182FEFCFC5
:1008A0000E947D2369817A81EDCFFC01262F408152
:1008B00051816281738184810C942204CF93DF93F0
:1008C000EC0160E00E945504BE01DF91CF910C94D1
:1008D00020048F929F92AF92BF92CF92DF92EF92BD
:1008E000FF920F931F936B017C0181E090E0A0E0E9
:1008F000B0E04C015D0104C0880C991CAA1CBB1C13
:100900004A95D2F7B501A4014C015D0104C0880CE1
:10091000991CAA1CBB1C2A95D2F7482959296A2977
:100920007B2904C0880F991FAA1FBB1F0A95D2F705
:100930008A019B010C211D212E213F21041715073F
:100940002607370789F48C299D29AE29BF29BC01C8
:10095000CD011F910F91FF90EF90DF90CF90BF904E
:10096000AF909F908F90089580959095A095B095A9
:100970008C219D21AE21BF21EACF0F93382F262F46
:100980006091AC027091AD028091AE029091AF0285
:10099000042F432F0E9469040F910C9467220E9438
:1009A00036080C945A080C945C0808950E94931E13
:1009B0000E94D5042FEF84E39CE0215080409040BA
:1009C000E1F700C000000C942E270F931F93CF93E4
:1009D000DF938C0161E00E945504EC01B8010E9494
:1009E0009514882309F441C0B801CE010E941D046A
:1009F0008823D9F1B801CE010E94E5178823A9F117
:100A0000B801CE010E943718882379F1B801CE01D0
:100A10000E945A19882349F1B801CE010E9445135A
:100A2000882319F1F8018281882361F0CA35FDE538
:100A3000DF0721F170F4C115ECE5DE07A1F0CE3D32
:100A4000DC45C9F0C801DF91CF911F910F910C9443
:100A50001B04CB358DE5D807A1F0CC35DD4591F7EA
:100A60000E942424EFCF0E94D60480E0DF91CF9132
:100A70001F910F9108950E949D25F7CF0E942D246C
:100A8000E1CF0E943024DECFDF92EF92FF920F93EE
:100A90001F93CF93DF93E82FF0E0EC5EFC4FD490F0
:100AA000282F26952695269530E0F901EC54FC4F29
:100AB0000491877010E0082E02C0159507950A94DE
:100AC000E2F701701127F901EC55FC4FE490F12C8D
:100AD000082E02C0F594E7940A94E2F791E0E92227
:100AE000FF24F901EC56FC4FC491D0E002C0D5952B
:100AF000C7958A95E2F7C170DD270115110519F038
:100B000081EE0E94131BE114F10419F086EE0E949D
:100B1000131B8D2D0E94121CEF2819F086EE0E94E7
:100B2000A51B012B19F081EE0E94A51BCD2B51F0C6
:100B30008CE2DF91CF911F910F91FF90EF90DF90AA
:100B40000C94121CDF91CF911F910F91FF90EF90A9
:100B5000DF900895EF92FF920F931F93CF93DF934F
:100B6000EC01162F0AE08881882309F454C08130F3
:100B700009F04EC08981813099F47E0122E0E20EB5
:100B8000F11C8A810E94121CE7012196812F81505D
:100B900050F3EFE9FFE03197F1F700C00000F7CF25
:100BA000823041F47E0182E0E80EF11C8A810E94CD
:100BB000131BEACF833041F47E01E2E0EE0EF11C1C
:100BC0008A810E94A51BE0CF843011F02196DDCFF1
:100BD0002A81229690E080E0AE014F5F5F4F205364
:100BE000330B2A30310548F0019778F2EFE9FFE046
:100BF0003197F1F700C00000F7CF089FB001099FBF
:100C0000700D1124C901860F971F2981EA01E4CFD5
:100C10000E944405BACFDF91CF911F910F91FF90B1
:100C2000EF90089560E00C94AA050C941A0481E0FA
:100C300008950C941706CF93C82F0E9415068C2F89
:100C4000CF910C9419060895FC01EE0FFF1FEC5391
:100C5000FC4F859194910895CF93DF930E94AE1637
:100C60000E944107EC01811520E5920708F042C07F
:100C7000811530E4930708F0BDC0883E910528F542
:100C8000803E910508F09DC0883A910588F4853A28
:100C9000910508F08FC08130910509F492C000974A
:100CA00009F48FC0049708F08CC0D0E0C0E089C080
:100CB0008F3B910508F489C0805C9109C03CD10547
:100CC000A0F30E942406EC017CC08115904250F4F0
:100CD000C11581E0D80708F074C0C03FD10528F3E2
:100CE000D0656FC0C11590E3D90708F079C0CE0177
:100CF0009F70E7CF811525E5920758F5811534E5FA
:100D0000930708F0A6C0811542E5940750F4C11579
:100D100081E5D80708F471C0DC2FCC27C16FD06AF9
:100D200050C0982F969596959E0123703327C11534
:100D3000D34508F07FC0C1E0D0E002C0CC0FDD1F7A
:100D40002A95E2F720E2929FC0011124C82BD92BEB
:100D50006FC0C11589E5D807A8F4C11598E5D90772
:100D600008F07CC0C11526E5D20708F09ECF8C2F75
:100D70000E94D807C82FD0E0DC2FCC27CC27DF710A
:100D8000D0621FC0C1153AE5D30708F46CC0CE018C
:100D900090568115904208F088CF8D2F8F710E9458
:100DA000D80790E0982F882788279F719C012C2BCB
:100DB000E901E6CFC55AD0E0C65ADE4FC881D0E07F
:100DC000D064CE01DF91CF910895C85AD0E0CC0F06
:100DD000DD1FC45DDE4F0990D881C02DD464F1CFF2
:100DE000CE019927D3FF03C0EC01D86CEACFEC0108
:100DF000D06CE7CFDF70D06AE4CFCE01E4E0969507
:100E00008795EA95E1F783702C2F26952695237018
:100E100090E2299F90011124382B8C2F8370C1E020
:100E2000D0E002C0CC0FDD1F8A95E2F7C22BD32B96
:100E3000DC68C7CFC1E0D0E002C0CC0FDD1F2A952F
:100E4000E2F730E2939FC0011124C82BD92BDA6856
:100E5000B8CFD82FCC27C46FD06AB3CFDC2FCC2724
:100E6000C06FD06AAECF8C2F8F700E94D80734E04D
:100E7000D695C7953A95E1F7CF709C2FEC01D069D4
:100E8000A0CF82389105B1F1B0F48133910509F416
:100E900075C048F48932910509F469C08A32910518
:100EA00009F473C008958533910509F459C0893355
:100EB000910501F10895833E9105A9F138F4803E32
:100EC0009105F9F0823E910549F10895863E91051C
:100ED000A9F1873E9105C9F1843E910519F520914C
:100EE000FE0221FF1FC08091FD0284FD14C087EE29
:100EF00090E008952091FD022370A1F080EE90E033
:100F000008952091FD0220FD47C03091FE0230FF80
:100F100009C024FF44C090E080E004C02091FD029D
:100F200022FDF7CF08952091FD0222FD3BC03091B4
:100F3000FE0230FDE3CF24FFF5CFEDCF2091FD027F
:100F400023FFF0CF24FDE7CFD2CF2091FD0223FD78
:100F50002CC03091FE0231FFEECF84EE90E0089578
:100F60002091FD0225FFDECF89E290E008952091D7
:100F7000FD0225FFD7CF85E390E008952091FD0283
:100F800026FFD0CF8AE290E008952091FD0226FF4F
:100F9000C9CF81E390E0089589E390E0089583EE5E
:100FA00090E0089582EE90E0089586EE90E0089536
:100FB0009091FD0292FF06C0282F28712830F9F485
:100FC000877F846093FF06C0282F28712831F1F4B1
:100FD000877E84612091FE0220FF06C0382F387181
:100FE0003830D9F4877F816021FF06C0282F28710F
:100FF0002831D1F4877E816194FD877E0895282F62
:1010000024712430F9F68B7F8860DCCF282F24717F
:10101000243101F78B7E8861DDCF382F317131307B
:1010200019F78E7F8860E0CF282F2171213121F7B9
:101030008E7E8861E1CF0C946F140E94AE082FEF72
:1010400086E791E0215080409040E1F700C0000029
:101050000E94AE0880E00E945E0880FF04C00E94EB
:101060001B080C942E2708950C941D080E94F82448
:10107000811102C00E949D250E9403258093D90200
:101080000E940B259093FE028093FD020E9434087B
:101090000E940725682F70E090E080E00E942B22DC
:1010A0006091AC027091AD028091AE029091AF025E
:1010B0000C9465220C9416040C941704E82FF0E0AD
:1010C000EE0FFF1FE35FFC4F80819181089508952B
:1010D00080EA8A95F1F7089500C008950C94680895
:1010E000F894E82FE295EF70F0E031A1282F2F70EF
:1010F00081E090E001C0880F2A95EAF7982F90953B
:10110000932391A392A1892B82A378940895CF93DE
:10111000DF93C8E6D1E089910E94700881E0CF3664
:10112000D807C9F7CDE5D1E089910E94700881E028
:10113000C836D807C9F7EFEFF2E0ADE0B3E011929F
:1011400011921D921D9283E0ED30F807C1F787E000
:101150000E942E09DF91CF910C94CF04AF92BF92E1
:10116000DF92EF92FF920F931F93CF93DF93C8E626
:10117000D1E00FEF12E0D12CEE24E394F12C899111
:10118000F894E82FE295EF70F0E021A18F70A701AD
:1011900002C0440F551F8A95E2F7CA01922F982B7F
:1011A00091A392A18095892382A378940E946C08D0
:1011B000EDE5F1E030E020E0B12CA12C4191A42F2D
:1011C000A295AF70B0E090968C9190E04F7002C005
:1011D000959587954A95E2F780FD3BC0C701022EA1
:1011E00002C0880F991F0A94E2F7A82AB92A2F5F34
:1011F0003F4F2B30310511F7FE01319780810E945E
:1012000070080E946E08F80180819181A816B906C5
:1012100019F1B182A08281E0D82A0E5F1F4FF1E060
:10122000CF36DF0709F0ABCF2D2D47E06DE073E03F
:101230008FEF92E00E942F090E94D3048D2DDF9141
:10124000CF911F910F91FF90EF90DF90BF90AF90E3
:10125000089590E080E0C9CF80E0DECF0895FF924E
:101260000F931F93CF93DF93F82E092F162FD72FAD
:10127000C42F222349F081E08093DE010E94E326FF
:101280009093DD018093DC018091DE018823A1F041
:101290008091DC019091DD010E94FB26069760F0B1
:1012A000EF2DF02FA12FBD2F90E080E0D0E08C1724
:1012B0009D0744F01092DE01DF91CF911F910F91B5
:1012C000FF900895219131912D933D930196EFCF99
:1012D0008091E50180FF12C06091090185E0689F5F
:1012E000B0011124759567957595679560387105FE
:1012F000A8F561157105A1F1862F089581FF09C038
:101300006091090185E0689FB0011124759567958A
:10131000EDCF6091090182FD0AC08091E40188232C
:10132000D1F09091080160910901891728F085E0BA
:10133000689FB0011124DACF869FB001112485E0A7
:10134000869F9001879F300D1124692F70E0C9019D
:101350000E94E62ECBCF65E070E0CECF8FE70895F8
:1013600081E008958091E50180FF0CC06091050146
:1013700070E075956795759567956115710549F1EB
:10138000862F089581FF06C06091050170E0759574
:101390006795F3CF6091050182FD0BC09091E30149
:1013A0009923A1F06091040180910501961738F00E
:1013B000682F70E06038710500F38FE70895899F0A
:1013C000C001112470E00E94E62EF4CF61E070E0CD
:1013D000D7CF81E00895803F31F40E94680981955C
:1013E0008093E9010895813F19F40E946809F8CFBC
:1013F000823F31F40E94680981958093E801089545
:10140000833F19F40E946809F8CF893F29F40E94AC
:10141000B2098093EA0108958A3F21F40E94B2093B
:101420008195F7CF8B3F31F40E94B209819580936B
:10143000EB0108958C3F19F40E94B209F8CF9CE0AB
:10144000980F953070F4845F990B21E030E001C073
:10145000220F8A95EAF78091E701822B8093E701BA
:1014600008958D3F31F48091E50181608093E5011D
:1014700008958E3F21F48091E5018260F7CF8F3F80
:10148000B9F78091E5018460F1CF4091E801803F98
:1014900059F48091E90187FF0DC01092E9014111D3
:1014A0000BC01092E40108C0813F81F48091E901F2
:1014B00018169CF3442381F08091EA019091EB018E
:1014C000892B09F05AC01092E3010895823F49F434
:1014D00047FFF0CF1092E8018091E9018111ECCF34
:1014E000E0CF833F19F41416ACF3E4CF9091EA01F6
:1014F000893F29F41916F4F61092EA01DBCF8A3FEE
:1015000019F497FFD7CFF8CF9091EB018B3F29F4D7
:1015100097FFD0CF1092EB01CDCF8C3F19F4191665
:10152000CCF3C8CF9CE0980F953090F4845F990B72
:1015300021E030E0B90102C0660F771F8A95E2F71B
:10154000CB0180959091E70189238093E701B2CF89
:101550008D3F31F48091E5018E7F8093E501AACF24
:101560008E3F21F48091E5018D7FF7CF8F3F09F009
:10157000A1CF8091E5018B7FF0CF08950E94E326F3
:101580009C019091E8018091E901982B21F0309322
:10159000E2012093E1019091EA018091EB01982B07
:1015A00021F03093E0012093DF0186EE91E00C946E
:1015B000AF19EF92FF920F931F93CF93DF9300D059
:1015C00000D000D0CDB7DEB786E0E6EEF1E0DE0178
:1015D000119601900D928A95E1F7E090E801F09064
:1015E000E9010091EA011091EB011092E8011092DB
:1015F000E9011092EA011092EB018E2D8F2991F0F2
:101600008091E1019091E2010E94FB26AC01909152
:10161000E401992309F43FC080910A01841715065B
:1016200008F447C0802F812B91F08091DF019091C9
:10163000E0010E94FB26AC019091E301992309F49B
:1016400077C0809106018417150608F47FC0809149
:10165000E8019091E901892B9091EA01892B909101
:10166000EB01892B11F00E94BE0A86E0FE01319643
:10167000A6EEB1E001900D928A95E1F726960FB69D
:10168000F894DEBF0FBECDBFDF91CF911F910F91B8
:10169000FF90EF90089520910B018AE0289F900120
:1016A00011242417350708F0BDCF9F5F9093E40104
:1016B00002C09F3FD1F7EE2059F00E9468099FEFCA
:1016C0001E140CF491E0899F802D11248093E80171
:1016D000FF2059F00E9468099FEF1F140CF491E05D
:1016E000899F802D11248093E9013091E8013323F3
:1016F00009F498CF2091E901222309F493CF45EB17
:101700003403C0011124992359F09093E80145EB6B
:10171000240390011124332339F03093E90182CF5F
:1017200081E08093E801F3CF81E08093E9017ACFF3
:10173000209107018AE0289F900111242417350782
:1017400008F085CF9F5F9093E30102C09F3FD1F7E0
:10175000002359F00E94B2099FEF10160CF491E09B
:10176000899F802D11248093EA01112359F00E9452
:10177000B2099FEF11160CF491E0899F802D11247E
:101780008093EB013091EA01332309F460CF20917B
:10179000EB01222309F45BCF45EB3403C001112494
:1017A000992359F09093EA0145EB24039001112409
:1017B000332339F03093EB014ACF81E08093EA0183
:1017C000F3CF81E08093EB0142CF86E0E6EEF1E0DB
:1017D000DF011D928A95E9F71092E4011092E3016E
:1017E0001092E5010895EF92FF920F931F93CF930C
:1017F000DF93EB01E82FD11110C0442321F0F0E07A
:10180000E252FB4FE4916E2F7E2F8E2FDF91CF910E
:101810001F910F91FF90EF9008950D2F10E0282F4A
:1018200030E0442329F022523B4FF901249130E06B
:10183000F6E0CF9FC0011124EFEFF0E0BF010E945E
:10184000D22EAB018C2F90E0880F991FA5E5A49FA5
:10185000B001A59F700D1124861B970B982F990F2F
:10186000980FBF01601B710B629FD001639FB00D89
:10187000729FB00D11248B2F9D9FB0011124672FF3
:101880007727EF01C61BD70BBE01629FE001639F64
:10189000D00D729FD00D11247F01E91AF108E09E4E
:1018A000B001E19E700DF09E700D1124672F772717
:1018B000E61BF70BE29F8001E39F100DF29F100DD6
:1018C0001124E12F722F4230510599F048F441154F
:1018D000510569F04130510581F0EB2F8D2F07C084
:1018E0004430510569F080F046305105B1F76E2F54
:1018F0008DCFE22F7B2F812FFACFE22F7D2FF7CFD5
:10190000EB2F822F712FF3CF7B2F822FED2FEFCF75
:1019100041E00C94F30B08950C94880CCF93DF9363
:10192000762FE901682F842F0E948C0C79836883BD
:101930008A83DF91CF91089580911B03982F9E7F1A
:1019400029F48170826080931B0308958635E8F343
:1019500081708465F8CF88E090E00C94CB2FCF9213
:10196000DF92EF92FF926B017C010E949C0CB70109
:10197000A60188E090E0FF90EF90DF90CF900C946C
:10198000E92F60911B0370911C0380911D039091BE
:101990001E030C94AF0CEBE1F3E083E08083118233
:1019A0008FEF82838383148260817181828193812E
:1019B0000C94AF0C80911B0380FF02C086950895A4
:1019C00080E0089590911F03933018F49F5F9093E7
:1019D0001F03882351F060911B0370911C038091B9
:1019E0001D0390911E030C94AF0C089581E00C949C
:1019F000E20C90911F03992319F0915090931F03CB
:101A0000882351F060911B0370911C0380911D038A
:101A100090911E030C94AF0C089581E00C94F90C86
:101A200080911F03089580931F03662351F06091F6
:101A30001B0370911C0380911D0390911E030C9455
:101A4000AF0C089560E00C94130D80911C03089571
:101A500080911D03089580911E03089570E00C94F9
:101A600012146091100180911B0380FF0AC08091C5
:101A70000F0123E0829FC0011124805E9C4F0C94D3
:101A80002E0D809111019091120123E0829FF001AF
:101A90001124E05EFC4F891750F7118210821282E8
:101AA0008F5F3396F8CF90911B0390FF14C09091F5
:101AB00011012091120133E0939FF0011124E05EA7
:101AC000FC4F921710F00C94310D81836083428398
:101AD0009F5F3396F6CF0895CF93DF9300D00F9298
:101AE000CDB7DEB790911B0390FF0AC09E012F5F18
:101AF0003F4F0E948E0C4B8169818A810E94530D59
:101B00000F900F900F90DF91CF910895CF93DF93B7
:101B1000EC01EC81F0E0E752FC4F4491EBE1F3E0A3
:101B2000628181810E946C0D8C818F5F8C83DF913B
:101B3000CF910895CF93DF93EC01EBE1F3E0438184
:101B400062818C810E946C0D8C818F5F8C83DF9110
:101B5000CF9108950F931F93CF93DF9300D00F92EF
:101B6000CDB7DEB78C018091EC0181110AC09E01D6
:101B70002F5F3F4F4FEF6FEF0E948E0C8A81809353
:101B8000EC01F8016481613069F08091EC0140E082
:101B9000662361F040E0623011F44091EC0180E096
:101BA00060E004C06091EC0140E080E00E94530DD1
:101BB000F801848190E0019663E070E00E94E62ED7
:101BC00084830F900F900F90DF91CF911F910F9111
:101BD0000895AF92BF92CF92DF92EF92FF920F9350
:101BE0001F93CF93DF9300D00F92CDB7DEB7182F9E
:101BF000F62E042FE22E90911B0390FF29C0E92FAF
:101C0000E695AE2FB0E0A159BE4F8C9180931E0295
:101C10009E7F923059F59E012F5F3F4F812F0E948A
:101C20008E0C4B8169818A810E94530D10931C0395
:101C3000F0921D0300931E03EE2051F060911B03F0
:101C400070911C0380911D0390911E030E94AF0CA4
:101C50000F900F900F90DF91CF911F910F91FF90F8
:101C6000EF90DF90CF90BF90AF900895823019F43D
:101C700000911E03DBCF863019F410911C03D6CFE0
:101C80008930D9F3893191F6E9518E2F8170D82EA0
:101C9000E695F0E0E752FB4FA590B490C12CBB2431
:101CA00060911301C61618F00E94310DBFCF2C2D84
:101CB00030E0A29EC001A39E900DB29E900D112413
:101CC00070E00E94D22E812FD11013C0860F409158
:101CD0001101420F532F511D9A01220F331F240F60
:101CE000351F205E3C4F402F6F2D0E948E0CC394F9
:101CF000D7CF861BECCFEBE1F3E09181282F438116
:101D0000628188E0890F0C94E90D81E00C947B0ED0
:101D1000EBE1F3E09181282F4381628188EF890F05
:101D20000C94E90D81E00C94880EEBE1F3E0628104
:101D300028E0620F08F46FEF282F438181810C9413
:101D4000E90D81E00C94950EEBE1F3E0628128E06F
:101D5000621B08F460E0282F438181810C94E90D17
:101D600081E00C94A40EEBE1F3E0438128E0420F04
:101D700008F44FEF282F628181810C94E90D81E0F6
:101D80000C94B30EEBE1F3E0438128E0421B08F42E
:101D900040E0282F628181810C94E90D81E00C9450
:101DA000C20E20E00C94E90DEF92FF921F93CF93A7
:101DB000DF93EC0110E0EE24EA94F12C6091130122
:101DC000161770F00E94310D9A818C8190FF27C008
:101DD0008F5F8C83DF91CF911F91FF90EF900895DB
:101DE00020911101422F410F5527551FCA019A0119
:101DF000220F331F280F391F205E3C4F70E0C701B0
:101E00000E94E62E962F8C8140911E0360911D0347
:101E1000199F800D11240E948E0C1F5FCFCF81501F
:101E2000D8CFBF92CF92DF92EF92FF920F931F9382
:101E3000CF93DF93FC0182810FEF80FF01E010E080
:101E4000809113011817C0F00E94310D8091EE01AE
:101E5000013009F051C0811102C0809113018150FD
:101E60008093EE01DF91CF911F910F91FF90EF9042
:101E7000DF90CF90BF900895C0911101C12ED12C59
:101E8000CC0DDD2DD11DCE01880F991FC80FD91F94
:101E9000C05EDC4F198218821A8234E0E32EF12CE6
:101EA000B12C8091EE018B0D893004F18770082EE2
:101EB000000C990BC816D90691F480911E038E9DD3
:101EC000A0018F9D500D1124559547955595479527
:101ED0009E0160911D0380911C030E948E0CB00E28
:101EE000F1E0EF1AF108E9F61F5FAACF87FFDFCF15
:101EF00090911301890FDBCF90E00196609113015F
:101F000070E00E94E62EACCF0F931F93CF93DF9328
:101F1000809111019091120123E0829FF001112420
:101F2000E05EFC4F891740F1C0E0D3E060911301FF
:101F3000C61740F10E94310D20910D018091ED01F5
:101F4000820F8093ED0190910E01920F90930E01FC
:101F5000191654F4082E000C990B409113014150AE
:101F6000550B841795071CF0219520930D01DF91E7
:101F7000CF911F910F9108951182108212828F5F6D
:101F80003396D0CF0C2F10E070E0C8010E94E62EEF
:101F900020911101820F482F50E02091ED01022E77
:101FA000000C330B02171307BCF020910E01022E18
:101FB000000C330B201731077CF08D9F900111240A
:101FC000205E3C4F40911E0360911D0380911C03D5
:101FD0000E948E0CCF5FAACFFA01EE0FFF1FE40F15
:101FE000F51FE05EFC4F118210821282F3CF8F92B8
:101FF0009F92AF92BF92CF92DF92EF92FF920F9398
:102000001F93CF93DF93EC014C81042F10E09801D4
:10201000D8010E94312F9B01AC010E94472F4B0138
:102020005C01E0E2F0E0E01BF10BA5E5B0E0AC0103
:102030009B010E94472F6B017C019F01DF010E94E1
:10204000292F9B01AC010E94522F9B01AC01280D4E
:10205000391D4A1D5B1DC701B6010E94FA2EF22EE2
:10206000822F90E039E23F1560F143E0249F900118
:10207000112435952795122F109500E085E5E82E5F
:10208000EF1880911301081758F10E94310D9C81BF
:1020900081E0992319F0903219F48FEF80930C01AD
:1020A00080910C01890F8C83DF91CF911F910F914B
:1020B000FF90EF90DF90CF90BF90AF909F908F9068
:1020C000089525E530E0B901681B790B9B01220FCB
:1020D000331F260F371F37FFCCCF2F5F3F4FC9CF9E
:1020E0008E2D01FD8F2D20911101622F600F77271A
:1020F000771F9B01220F331F260F371F205E3C4F97
:10210000412F60911D030E948E0C0F5FBACF0F9379
:102110001F93CF93DF93EC0110E000E09091130147
:102120009017110609F06CF40E94310D8C8190E03B
:102130000196817099278C83DF91CF911F910F9128
:10214000089520911101A801420F511D9A01220FFB
:10215000331F240F351F205E3C4F4C8160911D03BF
:1021600080911C0396959017110651F04CF0442372
:1021700049F040911E030E948E0C0F5F1F4FCECF7F
:102180004423B9F340E0F7CF4F925F926F927F9272
:102190008F929F92AF92BF92CF92DF92EF92FF9277
:1021A0000F931F93CF93DF93FC016280448081E003
:1021B0008483E9EDF3E07490E8E5F4E0E491812CA8
:1021C00075E0972EF2E0CF2EDD24D394AA24AA94B2
:1021D000B12C55245A94E7190E2F10E08091130169
:1021E000881690F0DF91CF911F910F91FF90EF90A3
:1021F000DF90CF90BF90AF909F908F907F906F9027
:102200005F904F900C94310DE82CF12C82E08615F4
:1022100068F09E9CF0019F9CF00D1124E151FE4F4F
:1022200080911C03808380911D038183411023C012
:102230009E9CF0019F9CF00D1124E151FE4F1382F2
:10224000128220911101C701820F911D9C01220F62
:10225000331F280F391F205E3C4F9E9CF0019F9C2E
:10226000F00D1124E151FE4F4281618180810E9475
:102270008E0C8394B3CF9E9CE0019F9CD00D1124C3
:10228000C151DE4F8B818823E9F081508B83859D7E
:10229000C00111246C8170E00E94D22EFB01FF2747
:1022A000E752FC4F8491E82FE719E59DC001112406
:1022B000B8010E94D22E80911E03689FB0011124A4
:1022C0007A83BFCF0E94A62F20911E032695215806
:1022D0002C9DA0012D9D500D1124452F55278417AD
:1022E00095070CF0AECF82E0861588F40E94A62FE9
:1022F000B5010E94E62E88830E94A62F20911D031F
:102300002695622F70E00E94E62E280F29839E9C5E
:10231000F0019F9CF00D1124E151FE4F128280913B
:102320001E03893C58F088EC9E9CF0019F9CF00DA8
:102330001124E151FE4F8483838383CF8431A0F73E
:1023400084E1F2CFEBE1F3E080818E7F80836081D6
:102350007181828193810E94AF0C10921F022FEF36
:1023600080E792E0215080409040E1F700C00000FB
:102370000C94310DEBE1F3E080818E7F808310922D
:102380001F022FEF80E792E0215080409040E1F75C
:1023900000C000000C94310D60911B03669570E045
:1023A0004BE050E084E191E00E94B62F892B19F4B4
:1023B00081E080931F020E94E3269093180280938D
:1023C0001702089590911B0390FF35C09170811101
:1023D00028C0926090931B03662351F060911B0309
:1023E00070911C0380911D0390911E030E94AF0CFD
:1023F00060911B03669570E04BE050E084E191E052
:102400000E94B62F892BA1F010921F0281E08093C9
:102410001A0240911E0360911D0380911C030C94CD
:10242000D10E8B3210F09465D5CF880F982BD2CF78
:102430000E94CC11EBCF0895682F90911B039695C5
:1024400081E0890F8B3208F081E00C94E21181E089
:102450000C941C12682F90911B0396958FEF890F97
:1024600009F48AE20C94E21181E00C942A1261E0F2
:102470000C94E211EBE1F3E080818160808386952A
:102480000C94371280911B0380FD0C94A2110C94C4
:102490003A1260E00C94E21180911D0281112EC06D
:1024A0000E94F824811104C00E949D250E94CB0C3B
:1024B0000E94AB0C60931B0370931C0380931D035D
:1024C00090931E036E7F61F40E94CB0C0E94AB0CB4
:1024D00060931B0370931C0380931D0390931E0352
:1024E0000E949C0C10921F0280911B0380FF03C06E
:1024F00086950E94491281E080931D020895EBE1C8
:10250000F3E080818160808386950C9449120F935B
:102510001F93CF93DF9380911F02882309F496C005
:1025200080911E02E0911B03E695E81BE0931902DF
:10253000823091F5F0E0EB52FC4FE491CE2FD0E0E9
:1025400006E81DE080911A02882361F010921A02B9
:102550000E94E326909318028093170210921C02A7
:1025600010921B020E94E326E0911702F0911802DC
:102570008E1B9F0B8F3F9F4708F068C0EC0FFD1F1D
:10258000F0931802E093170287E192E0F801DF91DF
:10259000CF911F910F910994863049F4F0E0EE52EB
:1025A000FC4FE491CE2FD0E00AE91DE0CBCF89307B
:1025B00051F4E695F0E0E153FC4FE491CE2FD0E0EA
:1025C00004ED1EE0BFCF8F3051F4E695F0E0E45308
:1025D000FC4FE491CE2FD0E001E11FE0B3CF853175
:1025E00049F4F0E0E753FC4FE491CE2FD0E004E84B
:1025F0001FE0A8CFC8E2D0E007EF1FE0883109F460
:10260000A1CF833239F4E7ECF3E0C591D4910AEA23
:102610001DE098CFC4EFD1E007E810E1843209F45F
:1026200091CFC0EDD7E00BE81CE0853209F08ACFEE
:102630008E2F63E00E94C62EE92FF0E0EC53FC4F92
:10264000E491CE2FD0E004EC10E17CCFDF91CF916C
:102650001F910F910895FA01811101C0FB010994A6
:10266000CF93DF93C82FD62F0E94DA0C8C1740F03F
:102670000E94DA0C8D1720F4DF91CF910C94271271
:102680008C2FDF91CF910C9437121F93CF93DF9350
:10269000EC01FB011281112309F4C2C00E94332412
:1026A0008272CC3CFCE5DF0709F4A0C008F044C00E
:1026B000C63CECE5DE0709F485C0F0F4C33C9CE5BC
:1026C000D90709F475C048F4C23CDC4509F46CC074
:1026D000812FDF91CF911F910895C43C9CE5D907CC
:1026E00009F46BC042E95EE065E87EE0C53CDC458C
:1026F00079F70E942B135AC0C93CFCE5DF0709F4A7
:102700006BC068F4C73CECE5DE0709F460C041EA41
:102710005EE060EB7EE0C83CDC4559F3D9CFCA3CB3
:102720009CE5D90709F45DC04DE05DE066EF7CE013
:10273000CB3CDC45F1F2CCCFC13DFCE5DF0709F431
:1027400064C098F4CE3C9CE5D90709F458C008F45D
:1027500052C0CF3CFCE5DF0709F454C0C03DDC4566
:1027600009F0B6CF6EE089E01CC0C43D9CE5D907F6
:1027700009F451C058F4C23DFCE5DF0709F448C034
:10278000C33DDC4509F0A4CF88E136C0C53D9CE5DA
:10279000D90709F443C06AE285E2CD35DD4509F089
:1027A00097CF0E94301302C00E94421210E090CFD7
:1027B00044E352E167E272E19CCF47E252E164E315
:1027C00072E197CF45E85EE062E97EE092CF40EBB0
:1027D0005EE061EA7EE08DCF4EEC5EE06FEB7EE086
:1027E00088CF4FEB5EE06EEC7EE083CF46EF5CE09F
:1027F0006DE07DE07ECF81E00E943712D7CF65E0AB
:1028000082E0CFCF68E086E0CCCF64E18FE0C9CF33
:1028100067E185E1C6CF62E289E1C3CF83E2ECCF15
:1028200011E056CF529A4BB14B7F5BB15460EFB77A
:10283000F8949B01220F331F260F371F280F391FD3
:102840002817390741F4EFBF8FE594E00197F1F7BE
:1028500000C000000895DC016D91CD0178E05BB906
:10286000000000C067FF4BB9660F000000C000C049
:1028700000C04BB900C07A9591F7E2CF83E290E0B7
:102880000E94C32F833289F484E290E00E94C32F18
:10289000853059F485E290E00E94C32F91E08730A3
:1028A00009F090E0892F8170089580E0FCCFCF93EC
:1028B000C82F6FEF811163E283E290E00E94D72F6F
:1028C0006FEFC11165E084E290E00E94D72F6FEFB7
:1028D000C11167E085E290E0CF910C94D72F80E0A2
:1028E0000E9457140C94F224089586E290E00E940E
:1028F000C32F682F70E090E080E0089586E290E0BA
:102900000C94D72F0E9474140E943E1481110CC0A5
:1029100060E070E0CB010E947E140E9426160E94A7
:10292000121781E00C9457140895CF93FB01C281D4
:10293000CC2309F19C0122513F452031310520F57E
:1029400082510E942217C0E08C2FCF91089581E020
:102950000E948D2243E062E081E00E94BD04F3CF3B
:1029600081E00E94AE2243E062E081E00E94BD046B
:10297000EBCF82E0F6CF8031FFE59F0789F381310D
:102980009F45B9F3C1E0E0CF8031EFE59E07F9F252
:1029900081319F45C9F682E0DBCF2FEFFC01208318
:1029A0000895CF93DF93EC0188818138A9F028F452
:1029B000803871F0DF91CF910895823881F08338AB
:1029C000C9F70E94250D89830E94280D8A83F2CFC2
:1029D0000E942B0D8983EECF0E94DA0CFBCF0E9460
:1029E000100DF8CFCF93DF93EC0188818138E1F0AF
:1029F00028F4803869F0DF91CF910895823811F181
:102A00008338C9F70E942B0D482F6A81898108C03D
:102A1000D9810E94280DC82F0E94250D4D2F6C2FA3
:102A2000DF91CF910C94D10E89810E944912898146
:102A3000811104C0DF91CF910C94BA11DF91CF9135
:102A40000C947F128981DF91CF910C94220DEF922B
:102A5000FF920F931F93CF93DF93EC01062FDC01BE
:102A6000ED91CD01E150E33108F0ADC0F0E0E45D5F
:102A7000FF4C0C941C2F198289E08A83602FCE01B1
:102A8000DF91CF911F910F91FF90EF900C94F5275C
:102A90008981823069F0833071F08130D9F40E94ED
:102AA000EF260E94222F6A837B838C839D83E6CF4F
:102AB0000E947514F6CF7E0110E0812F0E945E08FF
:102AC000F701928383831F5FF2E0EF0EF11C173052
:102AD000A1F7D4CF602FCE010E94CD14CFCF898132
:102AE0008230C1F76A817B818C819D810E94222F77
:102AF0000E947E14C3CF4B816A8189810E94F815A0
:102B00009827892798279D838C83B8CF2C813D8176
:102B10003227232732274B816A8189810E9411162F
:102B2000ADCF0E942616AACF0E94F214A7CF0E9412
:102B3000D114A4CF0E94C10CA1CF0E94BB168983DF
:102B40009DCF0E94BD169827892798279A8389834D
:102B500095CF6B8170E089819A81AE014C5F5F4FA8
:102B60009827892798270E94C01688CF6B8170E02C
:102B700089819A81AE014C5F5F4F982789279827FA
:102B80000E94E7167BCF0E94121778CF0E94E615AD
:102B9000D6CF6B8170E089819A81AE014C5F5F4F27
:102BA0009827892798270E945E1668CF6B8170E06E
:102BB00089819A81AE014C5F5F4F982789279827BA
:102BC0000E9484165BCF8FEF888358CF84E00895EE
:102BD00050E0440F551F96E1699F400D511D11248F
:102BE0009AE9899F400D511D1124CA0187960895C5
:102BF0000F931F93CF93DF930E94E8158C010E94DF
:102C0000C32FC82FD0E0DC2FCC27C80101960E942B
:102C1000C32F9E01282BC901DF91CF911F910F91E6
:102C200008950F931F93CF93DF93122F032F0E94CA
:102C3000E815EC01602F0E94D72F612FCE0101967D
:102C4000DF91CF911F910F910C94D72FAF92BF922C
:102C5000CF92DF92EF92FF921F93CF93DF938CEA94
:102C6000C82E80E0D82ED0E07601C0E014C0F50177
:102C700025913491412F6C2F8D2F0E94111682E0E7
:102C8000A80EB11C1F5F1B3091F786E1E80EF11C06
:102C9000CF5FC73019F0570110E0E9CFDF5F8AE955
:102CA000C80ED11CD43001F7DF91CF911F91FF9056
:102CB000EF90DF90CF90BF90AF900895EF92FF928A
:102CC0000F931F93CF93DF93EC018A017C01E60EF3
:102CD000F71ECE018796CE15DF0539F4DF91CF912F
:102CE0001F910F91FF90EF900895C83622E0D20710
:102CF00040F40E94C32FF80180830F5F1F4F21967D
:102D0000E8CFF8011082F9CFCF92DF92EF92FF92D5
:102D10000F931F93CF93DF937C016A018C01060F01
:102D2000171FEC01CE018796C017D10749F4DF9138
:102D3000CF911F910F91FF90EF90DF90CF9008956A
:102D4000C83622E0D20740F4FE01EE19FF09EC0D6F
:102D5000FD1D60810E94D72F2196E4CF462F84303D
:102D600038F4773028F46B3018F4672F0C94F8158A
:102D700090E080E0089580E1089581E791E0089572
:102D8000EF92FF920F931F93CF93DF93EC018A0191
:102D90007C01E60EF71ECE0181579D4FCE15DF0553
:102DA00039F4DF91CF911F910F91FF90EF9008952B
:102DB000C13721E0D20740F40E94C32FF80180837D
:102DC0000F5F1F4F2196E7CFF8011082F9CFCF9206
:102DD000DF92EF92FF920F931F93CF93DF937C01CB
:102DE0006A018C01060F171FEC01CE0181579D4F20
:102DF000C017D10749F4DF91CF911F910F91FF9038
:102E0000EF90DF90CF900895C13721E0D20740F4D2
:102E1000FE01EE19FF09EC0DFD1D60810E94D72F08
:102E20002196E3CFCF93DF93CFE8D2E060E0CE01ED
:102E30000E94D72F2196C11584E0D807B9F7DF91FA
:102E4000CF910895DF92EF92FF920F931F93CF934C
:102E5000DF9300D000D0CDB7DEB7F82E8FE08F150E
:102E600040F08FEF93E00E94C32F0FE812E0882319
:102E7000C1F00F900F900F900F90DF91CF911F91A5
:102E80000F91FF90EF90DF900895011584E01807EF
:102E900081F3C8010E94C32F811101C0FA940F5F12
:102EA0001F4FF110F2CF19821A821B821C82DD247F
:102EB000D39478018FEFE81AF80AC8010E94C32F53
:102EC00089831A828823A9F29FEF980F933078F4B0
:102ED0008A83D9820E5F1F4FC7010E94C32F8B8345
:102EE000882339F2CE0101960E941206E2CF8701B3
:102EF000F9CF0F931F93CF93DF93C42FD22FFC01F1
:102F000082818823C9F0409322020E94E326909395
:102F100021028093200280E28C0F883008F050C09C
:102F2000C77081E001C0880FCA95EAF7DF91CF91A1
:102F30001F910F910C941A1C10912202141335C08A
:102F400080912002909121020E94FB26883C9105ED
:102F500060F5C0E2CD0F1D17B9F080E2810F883017
:102F600040F4177081E001C0880F1A95EAF70E94BB
:102F7000211CC83048F481E09D2F977001C0880F54
:102F80009A95EAF70E941A1C802F0E94121CC830E2
:102F9000B8F4D77081E001C0880FDA95EAF7DF91C5
:102FA000CF911F910F910C94211C80E28C0F8830DF
:102FB00038F4C77081E001C0880FCA95EAF7EFCFF7
:102FC000DF91CF911F910F9108950F939C01CB0139
:102FD000233F4CE5340759F1A8F4283DFCE53F07B1
:102FE00001F1293D4CE53407D1F1273D3C4591F4F1
:102FF00006E221EE41EE67ED7CE50E94791780E064
:103000000F910895253FFCE53F07E9F0B0F0263F1A
:103010003C45F9F0FC018281882339F110922202AB
:10302000EFCF07E225EE45EE68ED7CE5E6CF06E260
:1030300021EE40EE63EF7CE5E0CF07E225EE44EEC3
:1030400064EF7CE5DACF06E221EE42EE65EF7CE547
:10305000D4CF07E225EE46EE66EF7CE5CECF08E260
:1030600021E045EE69ED7CE5C8CF81E0C9CFCF9383
:10307000DF93EC01FB018281882309F419C1C2307E
:10308000FCE5DF07C0F1C6319CE5D90730F09E01B1
:103090002A5F3C452930310570F50E940B2590933D
:1030A000FE028093FD02C031ECE5DE0709F4CFC0DB
:1030B00008F05BC0C8308CE5D80709F4B6C088F5C5
:1030C000C430ECE5DE0709F4A8C0C0F4C2308CE5DA
:1030D000D80709F49CC08091FD028260C330DC45B2
:1030E00009F498C08091FD029091FE020E9419257A
:1030F0000E94931E80E0DF91CF9108958091FD02A0
:103100008061C630ECE5DE0709F484C08091FD02E1
:103110008860C730DC4508F47DC08091FD02806284
:1031200079C0CC308CE5D80709F489C070F480915F
:10313000FD028C60CA30ECE5DE0709F46BC008F4D0
:1031400078C08091FD028E7F65C0CE308CE5D807B7
:1031500009F479C08091FD028B7FCF30DC4508F403
:1031600059C08091FD028F7E55C0CB3FECE5DE0754
:1031700009F457C030F5C3318CE5D80709F46FC0A6
:1031800078F4C131ECE5DE0709F465C0C231DC45F5
:1031900009F0A8CF0E94931E8091FD028F773AC05C
:1031A000C5318CE5D80709F462C008F476C0809177
:1031B000FE028160CA3FDC4509F094CF8093FE0295
:1031C00091CFCF3FFCE5DF0709F44DC088F4809133
:1031D000FE028D7FCD3F9CE5D90781F38091FE02F1
:1031E0008E7FCE3FDC4550F38091FE028360E6CFB8
:1031F000C130FDE5DF0709F459C008F444C080E0A0
:10320000C230DD4509F06ECF0E949F256BCF8091C3
:10321000FD0281608093FD0265CF8091FD02846094
:10322000F9CF8091FE028260C9CF8091FD02806457
:10323000F1CF0E94931E8091FD028068EBCF8091B8
:10324000FD028D7FE7CF8091FD02877FE3CF8091E4
:10325000FD028F7DDFCF8091FD028F7BDBCF8091E0
:10326000FD02837FD7CF8091FE028C7FA7CF809114
:10327000FD0282FB992790F921E0922790FB82F9C9
:1032800090FB83F9C7CF8091FE02982F90959170A3
:103290008E7F892B90FB81F991CF0E94931E909194
:1032A000FD02892F97FB87F98058B4CF81E0ACCF1E
:1032B00081E021CFCF93DF93EB0186319C4511F55F
:1032C0000E9433249A81992399F08A7A91E009F433
:1032D00090E090932302811109C089E20E94ED23BE
:1032E0000E94832480E0DF91CF91089585E3F6CF9B
:1032F00080912302811104C089E20E94F423F0CF5F
:1033000085E3FBCF81E0EFCF9093290280932802E1
:103310000895E0912802F0912902309721F0019060
:10332000F081E02D099480E00895E0912802F09169
:103330002902309799F020912B01222359F02091F6
:10334000FD0227FF07C0DC012C9111962C931197E9
:1033500025E02C930280F381E02D09940895E091FB
:103360002802F0912902309739F022E0DC012C93F9
:103370000480F581E02D0994089520912602309172
:1033800027022817390771F09093270280932602AD
:10339000E0912802F0912902309721F00680F78110
:1033A000E02D0994089520912402309125022817D8
:1033B000390771F09093250280932402E09128024E
:1033C000F0912902309721F00084F185E02D0994D5
:1033D00008950E94EF2660933D0270933E02809311
:1033E0003F02909340026093390270933A028093B7
:1033F0003B0290933C02089585B7806885BF85B7EE
:10340000806885BF0895089508950C94031A08955F
:103410000C94071A0E94FC1980EF94E20E94522734
:103420000E94041A0C94051A81E008950C94141A51
:10343000089508950E94181A0C94191A0E94DA2609
:103440000E9487080E9482140E944C120C94081A51
:103450008F929F92AF92BF92CF92DF92EF92FF92A4
:103460000F931F93CF93DF93CDB7DEB72A970FB695
:10347000F894DEBF0FBECDBF0E94AE0881110E943E
:10348000E9195BE2852E52E0952E10E000E0A02EB7
:10349000802F0E945E086C01F401E190F1904F01D1
:1034A000E816F90609F45EC08091D90281FD0E94F8
:1034B0006708C7018C259D25B12CEE24E394F12CDF
:1034C0009C012E213F21232B09F446C00E94161A8D
:1034D0008823A9F0BE82AF82CE20DF2081E0CD28F4
:1034E00009F480E088870E94E3268160782F9A871C
:1034F00089874E815F8168858A850E94DC1A000F6A
:10350000111FF801E55DFD4F80819181E826F926C4
:10351000F182E0820E9487120E94D90A0E948919D2
:1035200090912A028917A9F10E94891980932A0291
:103530002A960FB6F894DEBF0FBECDBFDF91CF91B4
:103540001F910F91FF90EF90DF90CF90BF90AF90C1
:103550009F908F900C941B06B394EE0CFF1CFBE025
:10356000BF12AECF0F5F1F4F0730110509F08FCF8D
:103570008FEF89838A831B820E94E3268160782FE4
:103580009D838C8349815A816B818D810E94DC1AD5
:10359000C1CF2A960FB6F894DEBF0FBECDBFDF9124
:1035A000CF911F910F91FF90EF90DF90CF90BF9040
:1035B000AF909F908F900895DF92EF92FF920F93BC
:1035C0001F93CF93DF93CDB7DEB72B970FB6F89449
:1035D000DEBF0FBECDBF7A878B87F42E052F162F47
:1035E000E72ED82E61110E9453241E821D827E2D4B
:1035F000EC82DD824F2D502F612F8D2D9E812B96D9
:103600000FB6F894DEBF0FBECDBFDF91CF911F91F3
:103610000F91FF90EF90DF900C940921FC018081C5
:1036200091810C94BF23CF93C82F882309F48BC0BA
:103630008238C1F40E94891981FD85C089E30E9406
:10364000ED230E9483242FEF81EE94E021508040EF
:103650009040E1F700C0000089E30E94F423CF917D
:103660000C9483248338A1F40E94891980FD6BC0D7
:1036700083E50E94ED230E9483242FEF81EE94E0E6
:10368000215080409040E1F700C0000083E5E5CF85
:103690008438A1F40E94891982FD55C087E40E94F4
:1036A000ED230E9483242FEF81EE94E0215080408F
:1036B0009040E1F700C0000087E4CFCF8CEF8C0F83
:1036C000813A90F46C2F80911F01909120010E940B
:1036D000B825882329F08C2F0E94F4230E9483248C
:1036E0008C2F0E94ED23BBCF80E28C0F883048F4F2
:1036F000C77081E001C0880FCA95EAF70E9436249E
:10370000AECFEBE5EC0FE33040F4F0E0E853FE4FD2
:10371000808190E0CF910C94BD19E8E5EC0FE73182
:1037200050F4F0E0EE0FFF1FE656FE4F80819181CE
:10373000CF910C94D319C03F30F08C2F0E94EB092D
:10374000CF910C94BE0ACF910895882309F452C0FA
:10375000823871F40E94891981FF4CC089E30E946C
:10376000ED230E94832489E30E94F4230C94832494
:10377000833859F40E94891980FF3CC083E50E9478
:10378000ED230E94832483E5EFCF843859F40E940F
:10379000891982FF2FC087E40E94ED230E948324B1
:1037A00087E4E2CF9CEF980F913AF0F290E2980F05
:1037B000983050F4877091E001C0990F8A95EAF72C
:1037C000892F0E943C24D2CF9BE5980F933020F4A0
:1037D00090E080E00C94BD1998E5980F973120F4A3
:1037E00090E080E00C94D319803F20F00E94450ABD
:1037F0000C94BE0A08951F93CF93DF93182FEB010B
:103800000E94131B209731F4812FDF91CF911F91DC
:103810000C94A51B8FE99FE00197F1F700C0000011
:103820002197F0CF70E060E0893311F460E570E03B
:103830000C94FB1B882321F00E9436240C948324D3
:103840000895882321F00E943C240C948324089539
:10385000BF92CF92DF92EF92FF920F931F93CF937D
:10386000DF936C01D62FC72FFC01128105810295D1
:103870000F700E940B24E82E8823A1F0E12E112363
:1038800089F08C2F807F803429F080E28D0FE12C2D
:10389000883040F082E00E94D4240E940B2491E002
:1038A000E82EE926BC2EB2949FE0B922EB2DF0E081
:1038B000E15CFF4C0C941C2F0C2F0F70C07F11F09B
:1038C0000295007F1123A9F0002359F080E28D0FAB
:1038D000883010F0D11109C0802F0E9436240E9438
:1038E00083248D2F0E94131B14C0802F0E94462416
:1038F000F6CF8D2F0E94A51B002359F080E28D0F7B
:10390000883010F0D1112CC0802F0E943C240E94DE
:1039100083242B2D2850330B2430310520F40E94B2
:1039200089190E941B06EE2009F49EC10E940724FB
:1039300080FD9AC1F60112820E9401240E948D220C
:10394000C6010E94551E0E940124DF91CF911F9154
:103950000F91FF90EF90DF90CF90BF900C94AE222C
:10396000802F0E944C24D3CFFC2FFF70FF2EC07FEE
:10397000C03219F0F29480EFF822DD2369F0D130E3
:1039800049F1112391F1002351F1F601858180FF66
:10399000A8CF8F70858323C0112381F0011106C049
:1039A0000E9466248F290E941A1CB3CF0130C1F7F0
:1039B0000E9466248F290E946C24ABCF011106C09F
:1039C0000E9479248F2D0E94211CA3CF013009F47D
:1039D000A0CFF6CF112329F0063008F09ACF8F2D13
:1039E000E2CF053008F095CFEDCF002359F3D9335E
:1039F00049F4FFEF27EE33E0F15020403040E1F78B
:103A000000C000008D2F0E94A51B83CF8C2F8695B0
:103A10008695837069F0813009F07BCF8D2F9C2FC4
:103A20009370111102C090E080E00E94D31971CF11
:103A30008D2F9C2F9370111102C090E080E00E94A6
:103A4000BD1967CF8D2F112329F00E94EB090E9429
:103A5000BE0A5FCF0E94450AFACF8C2F837009F00F
:103A600041C0111156CF4D2F429546954770440FD6
:103A7000440F0D2F0F7010E030E020E0042E04C042
:103A8000000F111F221F331F0A94D2F760E070E06D
:103A9000CB01D4FF0FC06FE070E080E090E004C085
:103AA000660F771F881F991F4A95D2F7609570950A
:103AB00080959095C695C695C370602B712B822B0F
:103AC000932BC23049F058F4C13019F00E943F22C4
:103AD00020CF0E942D221DCF0E9451221ACF0E947A
:103AE0002B2217CF8695112311F08C2F81708823FC
:103AF00009F40FCF4D2F429546954770440F440F60
:103B00000D2F0F7010E030E020E0042E04C0000FF5
:103B1000111F221F331F0A94D2F760E070E0CB011F
:103B2000D4FF0FC06FE070E080E090E004C0660F4B
:103B3000771F881F991F4A95D2F7609570958095D9
:103B40009095C695C695C370602B712B822B932BD5
:103B5000C23049F058F4C13019F00E940423D9CE84
:103B60000E94F222D6CE0E941623D3CE0E94672254
:103B7000D0CECF70112329F08C2F0E948D228D2F53
:103B800012CF8D2F0E94211C8C2F0E94AE22C1CEFD
:103B9000D23F89F160F4D03FC9F0D13F29F1112320
:103BA00009F442C001119DCE8C2F8F7121C0D33FEB
:103BB00039F1D43FA1F7112369F1CF718C2F0E9405
:103BC0008D2263E08C2F0E94B924A3CE112341F0F3
:103BD000053008F09ECE8C2F8F710E94D12299CE95
:103BE000063008F096CEF7CF8C2F8F71112369F233
:103BF0000E948D228ECE8C2F8F711123C9F3C5CFD9
:103C0000112329F08C2F8F710E94782282CE0E947E
:103C100073227FCE81E00E94D424023008F479CE52
:103C200082E00E94D42475CE002359F0D93309F0E4
:103C3000E9CE8FEF97EEE3E081509040E040E1F76E
:103C4000DFCE8C2F8F71A1CF4C2F4F706D2FC601FF
:103C50000E9413040E94A3215CCE4C2F4F706D2F45
:103C6000C6010E94230655CEDF91CF911F910F917F
:103C7000FF90EF90DF90CF90BF9008950F931F9328
:103C8000CF93DF93EC01688179818A810E94C923F7
:103C90008C010E9428230E942A22B801CE01DF91C4
:103CA000CF911F910F910C94281CCF93DF93EC01BF
:103CB0008B819C81892B29F08881998189238F3F71
:103CC00059F4DF91CF910895CE010E943E1ECE019E
:103CD000DF91CF910C945E04CE010E94E504811126
:103CE000F3CF0E940B24882361F38A81882349F350
:103CF00082E0DF91CF910C94D42490E080E00E9488
:103D0000BD1990E080E00E94D3190E9453240E94C4
:103D100063240E9483240E94E50B0C94BE0A0E9437
:103D2000FB230C947D1E0E9443240C948F1EE92FCC
:103D3000E295EF70E250EE3070F4F0E0E15BFF4CA2
:103D40000C941C2F803F19F020F4883E20F481E071
:103D50000895843FE1F380E00895883EC0F3813FF9
:103D6000D1F7F5CF93FB882780F908950E94BF23F0
:103D70000C94971ECF93DF9300D000D00F92CDB755
:103D8000DEB70F900F900F900F900F90DF91CF91B3
:103D90000895CF93DF9300D000D000D0CDB7DEB729
:103DA00026960FB6F894DEBF0FBECDBFDF91CF9140
:103DB00008951F93CF93DF93C091420216E0809144
:103DC00043028C1304C0DF91CF911F910895D0E07E
:103DD0001C9FF0011D9FF00D1124EC5BFD4F4081F5
:103DE000518162817381848195810E94C91E2196CF
:103DF000C770E5CF409174025091750260917602D0
:103E00007091770280917802909179020C94C91E8A
:103E10001F93CF93DF9380917902807FA9F48091E3
:103E20007602882389F080914202C091430260911A
:103E3000740270917502A0917702B0917802D62F2A
:103E4000D72316E0C81304C0DF91CF911F910895C6
:103E500090E0109711F0DF3F19F401968770F2CFD0
:103E6000189F9001199F300D1124F901EC5BFD4F53
:103E700041814713F2CF40814613EFCF4281411178
:103E8000ECCF438154814A1B5B0B483C510528F71A
:103E9000809179028F70806180937902F901E75BEC
:103EA000FD4F80818F708061808384E792E00E9463
:103EB000551EDF91CF911F910C94D91EAF92BF92E6
:103EC000CF92DF92EF92FF920F931F93CF93DF93E6
:103ED000CDB7DEB761970FB6F894DEBF0FBECDBF8A
:103EE0008C0185E0F801DE011D9601900D928A9506
:103EF000E1F7F80140815181E28084E7C82E82E039
:103F0000D82E60917702709178026115710509F4DD
:103F100061C19091740220917502892F82238F3F95
:103F200009F458C1A380B480F0907602F501E61B35
:103F3000F70BFF2009F4FCC080917902382F307F05
:103F4000E83CF10508F0B2C0311179C0FE2C251310
:103F500023C0941321C0E1101FC08F708061809333
:103F600079020E94FA1EC6010E94551E80917902B4
:103F7000F80185838F2D61960FB6F894DEBF0FBED2
:103F8000CDBFDF91CF911F910F91FF90EF90DF9008
:103F9000CF90BF90AF900895AB2829F0842F852350
:103FA0008F3F09F033C180E0F82FF170DF2E80FFE2
:103FB0003CC0809142022091430236E0821315C03A
:103FC0004D875E878D859E850E94BF23292F229570
:103FD0002F702230F0F0243018F59F70F1F0F801C6
:103FE0009581907FD1F4D12C1EC090E0389FF001D4
:103FF000399FF00D1124EC5BFD4F6181651306C004
:104000006081641303C062816E110FC001968770D6
:10401000D5CF9F7011F0882331F3805E883018F37C
:10402000C8010E94551EFD2CA5CFEE2009F4A2CF99
:1040300080917902816080937902F12C9BCF2513C6
:1040400006C0941304C0F801EE2009F48DC04D871A
:104050005E878D859E850E94B61E882319F1EE200D
:1040600009F180917902803270F0209174023091D0
:10407000750238872F831986BB86AA868C87CE0166
:1040800007960E94551E86E0F801A4E7B2E0019071
:104090000D928A95E1F70E94081F0E94FA1EFF24E4
:1040A000F39468CFC8010E94551EF9CF311113C097
:1040B0007A2DB98AA88A6E2D89890E94BA1E84E752
:1040C00092E00E94551E86E0F60111928A95E9F76A
:1040D0000E94FA1EB2CF25130FC094130DC0E11039
:1040E0000BC0F8018583C8010E94551E86E0F601C9
:1040F00011928A95E9F73ECF4D875E878D859E8523
:104100000E94B61E882371F2EE2061F2809179023E
:10411000803208F4B8CF20917402309175023A834E
:1041200029831B82BD82AC828E83CE010196A9CFEA
:10413000E83CF10508F041C0FE2CEE2009F4B2CFB6
:1041400025132AC0941328C08091790280FD1BC0DA
:10415000982F907FC1F0F8018583903F31F0982F20
:10416000907F905F8F70892B8583C8010E94551EB8
:1041700086E0F801A4E7B2E001900D928A95E1F79C
:104180000E94FA1EF7CE86E0F801A4E7B2E00190A3
:104190000D928A95E1F7EECE4D875E878D859E85DF
:1041A0000E94B61E81116FCF809179028160809349
:1041B0007902C8010E94551EDDCE7A2DB98AA88ADF
:1041C0006E2D89890E94BA1E86E0F60111928A95A9
:1041D000E9F7D6CFEE2009F465CF4D875E878D8550
:1041E0009E850E94B61EF82E882309F45BCF86E0D8
:1041F000F801A4E7B2E001900D928A95E1F784E717
:1042000092E00E940E1B0E94081FBACF81E08E250B
:10421000CBCE1F93CF93DF93CDB7DEB72C970FB6DE
:10422000F894DEBF0FBECDBF4F83588769877A876A
:104230008B879C87CE0107960E945E1F882369F0BA
:104240008A859B85892B39F04F815885842F85235A
:104250008F3F09F071C016E05FC086E0FE0137961F
:10426000DE01119601900D928A95E1F78A859B8572
:10427000892B89F38F81988589238F3F61F3209162
:10428000430230E0C90101968770992740914202AC
:104290004817190671F40E94931E1092430210925F
:1042A000420286E0E4E7F2E0DF011D928A95E9F739
:1042B000D2CF96E0929FD001939FB00D1124AC5BBA
:1042C000BD4FFE01319601900D929A95E1F78093D2
:1042D00043020E94D91EBFCF819FC00111248C5B75
:1042E0009D4F0E945E1F8823E9F0E09142021E9FCD
:1042F000F0011124EC5BFD4F40815181628173819B
:10430000848195810E94C91E8091420290E00196AD
:1043100087709927809342028091420290914302D4
:104320008913DACF2C960FB6F894DEBF0FBECDBF3F
:10433000DF91CF911F91089569857A858B859C8542
:104340000E94C91E88CFEF92FF920F931F93CF93C5
:10435000DF938C01892B81F0F12CEE24E394E801AA
:104360002196F8018491843770F4843008F05FC09E
:104370008130B1F08230A1F1DF91CF911F910F9187
:10438000FF90EF900895853709F44CC008F43DC0C4
:104390009CE7980F903780F78F770E94A51B49C044
:1043A0000E5F1F4FFE01849190E2980F983060F4E9
:1043B0008770FE2D01C0FF0F8A95EAF78F2F0E94AC
:1043C00056240E94832402C00E94131B8F2D81500B
:1043D00030F2EFE9FFE03197F1F700C00000F7CFCE
:1043E0000E5F1F4FFE01849190E2980F983050F4B9
:1043F0008770FE2D01C0FF0F8A95EAF78F2F0E946C
:104400005C24DFCF0E94A51BE1CF0E5F1F4FFE0192
:10441000C491C150D8F28FE99FE00197F1F700C035
:104420000000F7CF0E5F1F4FFE01F490CFCF0E9428
:10443000131B8E01CBCF08950C941B220E941C22CB
:104440006093B0027093B1028093B2029093B30272
:104450000C947D1E08950C941E220F931F930091BF
:10446000B0021091B1022091B2023091B302602BE0
:10447000712B822B932B1F910F910C941E220F9363
:104480001F930091B0021091B1022091B2023091BD
:10449000B30260237123822393231F910F910C9405
:1044A0001E220F931F930091B0021091B102209130
:1044B000B2023091B30260277127822793271F91A0
:1044C0000F910C941E220C941B220C9463220E94C8
:1044D00065226093AC027093AD028093AE0290931C
:1044E000AF020C947D1E60E070E0CB010C9467225B
:1044F0000F931F9341E050E060E070E08A019B0160
:1045000004C0000F111F221F331F8A95D2F7C90163
:10451000B8011F910F910C9467220F931F9341E0F4
:1045200050E060E070E004C0440F551F661F771F25
:104530008A95D2F78091AC029091AD02A091AE0223
:10454000B091AF028A019B01082B192B2A2B3B2B20
:10455000C901B8011F910F910C9467220F931F930B
:1045600041E050E060E070E004C0440F551F661F5A
:10457000771F8A95D2F7CB01BA0160957095809527
:1045800090950091AC021091AD022091AE02309155
:10459000AF0260237123822393231F910F910C9408
:1045A00067220F931F9341E050E060E070E004C089
:1045B000440F551F661F771F8A95D2F78091AC0272
:1045C0009091AD02A091AE02B091AF028A019B0121
:1045D000082719272A273B27C901B8011F910F91E6
:1045E0000C9467220F931F930091AC021091AD02BF
:1045F0002091AE023091AF02602B712B822B932B56
:104600001F910F910C9467220F931F930091AC029E
:104610001091AD022091AE023091AF026023712360
:10462000822393231F910F910C9467220F931F9362
:104630000091AC021091AD022091AE023091AF0218
:1046400060277127822793271F910F910C9467226F
:1046500008952BE0929F800D1124982F977041E0D0
:1046600001C0440F9A95EAF786958695869595E060
:10467000899FF0011124E658FD4F90E080E070E042
:104680005191DF0111979B01082E02C036952795A5
:104690000A94E2F7217021952527242325272C93BE
:1046A00001968530910561F708952BE0929F800D6A
:1046B0001124982F977086958695869525E0829F80
:1046C000F0011124E658FD4F50E040E080E02191D8
:1046D00030E0092E02C0369527950A94E2F7217042
:1046E0003327042E01C0220F0A94EAF7822B4F5F72
:1046F0005F4F4530510559F70895BF92CF92DF9231
:10470000EF92FF920F931F93CF93DF938C01C09092
:10471000AC02D090AD02E090AE02F090AF0280917A
:10472000B0029091B102A091B202B091B302C82A36
:10473000D92AEA2AFB2ACFE1D0E0BC2ED701C60154
:104740000C2E04C0B695A795979587950A94D2F735
:1047500080FD0EC0219788F7B12C8B2DDF91CF9172
:104760001F910F91FF90EF90DF90CF90BF90089531
:10477000B8018C2F0E942C06019761F3EECFCF93E6
:10478000DF93EC010E947D23BE01DF91CF910C9459
:104790002C061F93CF93DF93EB0190914102992355
:1047A00031F0CB01DF91CF911F910C94BF2388236F
:1047B00079F0CB010E947D23182F682FCE010E9433
:1047C0002923BE01812FDF91CF911F910C942C06DC
:1047D000CB010E945523182FF4CF682F80911F0121
:1047E000909120010C943826682F80911F019091A0
:1047F00020010C94432680911F01909120010C947C
:104800004E268091B4028595859585950895809171
:10481000B402877008959091B402977081E009F412
:1048200080E008959091FE0292FB222720F928173C
:1048300051F080FB92F99093FE028091FD029091DD
:10484000FE020C94192508958091FE0282FB8827B0
:1048500080F991E089270C94122481E00C941224B1
:1048600080E00C9412248091D80208959091D8028F
:10487000892B8093D802089580959091D80298232F
:104880009093D80208951092D80208959091D7027B
:10489000892B8093D702089580959091D702982311
:1048A0009093D70208951092D70208959091D6025E
:1048B000892B8093D602089580959091D6029823F3
:1048C0009093D60208951092D60208958091B50271
:1048D000089508950C9469249091FE0292FD08C0F9
:1048E0009091B502981721F08093B5020C946A2438
:1048F00008958091B502882329F01092B50280E0D6
:104900000C946A240895E0911F01F0912001809198
:10491000D8028083E0911F01F09120018081909165
:10492000D702892B8083E0911F01F09120018081C3
:104930009091D602892B80839091B502992381F0C2
:10494000E0911F01F09120018081892B808380916B
:104950001F01909120010E94A42581110E947924B9
:1049600080911F01909120010C94951908950C9449
:10497000B6249091FE0292FD10C098E0899F9001AC
:104980001124622B6093B4020E948D228091B402A4
:104990008595859585950C94B7240C948D2210925D
:1049A000B40280E00C94B7249091B40280958923DE
:1049B0008093B402282F277039F4282F082E000C7A
:1049C000330B9217130621F49091FE0292FF07C059
:1049D0008595859585950E94AE220C94CF240895E7
:1049E00080E008956FEF7FEF90E080E00C94F52F6A
:1049F00090E080E00E94D12F21E08A3E9E4F09F096
:104A000020E0822F089582E090E00C94C32F83E091
:104A100090E00C94C32FCF9384E090E00E94C32FCA
:104A2000C82F82E290E00E94C32F982F8C2FCF9145
:104A30000895CF93C92F682F84E090E00E94D72F6C
:104A40006C2F82E290E0CF910C94D72FAB01BC0188
:104A50008FE090E00C94E92FAB01BC0183E190E082
:104A60000C94E92F60E070E0CB010C942C2560E001
:104A700070E0CB010E9426250C9432256AEE7EEF71
:104A800090E080E00E94F52F60E082E090E00E94DC
:104A9000D72F60E083E090E00E94D72F1092B00201
:104AA0001092B1021092B2021092B30260E084E060
:104AB00090E00E94D72F60E082E290E00E94D72F22
:104AC00060E085E090E00E94D72F60E086E090E013
:104AD0000E94D72F6FEF87E090E00E94D72F40E031
:104AE00050E0BA0188E090E00E94E92F60E08DE09C
:104AF00090E00E94D72F40E050E0BA0188E190E0BA
:104B00000E94E92F60E087E190E00E94D72F40E00B
:104B100050E0BA018CE190E00E94E92F70E060E083
:104B200080E290E00E94F52F40E050E0BA0188E179
:104B300090E00E94E92F0C9437250C943E25682FB5
:104B40008EE090E00C94D72FFC01329680912B01DF
:104B5000882321F08091FD029EE187FF96E080E0AE
:104B6000915008F4089521912223D1F38F5FF8CF5B
:104B7000662301F120912B012223F1F02091FD0207
:104B800027FF1AC0462F4695469546954E3190F41C
:104B9000677021E030E002C0220F331F6A95E2F710
:104BA000840F911DFC01828190E02823392381E04C
:104BB000232B69F480E00895FC0132960896219138
:104BC000261721F0E817F907D1F7F4CF81E008950F
:104BD0009C01FC0132969FEF80E04191461751F015
:104BE0009F3F19F4411101C0982F8F5F8630A9F7BC
:104BF0009F3F09F40895290F311D97FD3A95F9015A
:104C000062830895FC01329608962191261303C011
:104C1000DF0111971C92E817F907B9F70895E62FFD
:104C2000E695E695E695EE3168F4E80FF92FF11D6B
:104C3000677021E030E001C0220F6A95EAF78281B7
:104C4000822B82830895E62FE695E695E695EE3170
:104C500070F4E80FF92FF11D677021E030E001C01A
:104C6000220F6A95EAF720958281282322830895EE
:104C700020912B01222329F02091FD0227FD0C9485
:104C80000F260C94E82520912B01222329F0209156
:104C9000FD0227FD0C9423260C940226FC0132967B
:104CA00080912B01882351F08091FD0287FF06C07F
:104CB0008EE1DF011D928A95E9F7089586E0F9CF2C
:104CC000089508950C94612680914003843049F141
:104CD0000E94622680E00E941B061092DA0288E1A0
:104CE00090E020E40FB6F894A895809360000FBE82
:104CF0002093600083B7817F846083BF83B7816026
:104D000083BF7894889583B78E7F83BF0FB6F8945E
:104D1000A895809160008861809360001092600087
:104D20000FBE08950895CF930E9460260E94AE089A
:104D30000E949226C0E08C2F0E945E08892B31F4DD
:104D4000CF5FC730C1F780E0CF91089581E0FCCFFD
:104D500008950C94A8260E94931E0E9489190E940F
:104D60001B060C94A9261F921FB61F9211248F9325
:104D70009F93AF93BF938091DA02811113C080910A
:104D8000380390913903A0913A03B0913B034196C7
:104D9000A11DB11D8093380390933903A0933A036A
:104DA000B0933B03BF91AF919F918F911F901FBE16
:104DB0001F90189582E084BD93E095BD9AEF97BD52
:104DC00080936E0008952FB7F894809138039091E6
:104DD0003903A0913A03B0913B032FBF08952FB739
:104DE000F894609138037091390380913A0390915F
:104DF0003B032FBF08959C014FB7F894809138036F
:104E000090913903A0913A03B0913B034FBF821BAD
:104E1000930B089578941F921FB61F9211248F93BD
:104E20009F93AF93BF938091380390913903A091E2
:104E30003A03B0913B030196A11DB11D8093380345
:104E400090933903A0933A03B0933B03BF91AF9182
:104E50009F918F911F901FBE1F90189581E08093A6
:104E6000E00080E28093D8001092C9008FE19EE4B8
:104E70000197F1F700C0000087E090EBDC01809320
:104E8000490390934A03A0934B03B0934C0388E1EA
:104E90009CE00FB6F894A895809360000FBE9093A5
:104EA0006000FFCF9093DB018093DA010895809139
:104EB000FB020895CF93DF9300D00F92CDB7DEB7FA
:104EC00090914003943011F589837B836A8390939A
:104ED000E9008FEF9091E800815095FD06C095EDB7
:104EE0009A95F1F700008111F5CF8091E80085FFD8
:104EF0000DC050E040E063E070E0CE0101960E94FA
:104F0000E6298091E8008E778093E8000F900F905B
:104F10000F90DF91CF910895BC0184E00C945A2743
:104F2000BC0183E00C945A279C0184E08093E90043
:104F30009FEF8091E800915085FD06C085ED8A9530
:104F4000F1F700009111F5CF8091E80085FF0CC0CA
:104F500050E040E066E070E0C9010E94E6298091DF
:104F6000E8008E778093E8000895CF93DF93EC01FB
:104F700080912B018823B1F18091FD0287FF32C01F
:104F800060E284E08093E9008FEF9091E800815027
:104F900095FD06C095ED9A95F1F700008111F5CFCA
:104FA0008091E80085FF1BC080912B0170E050E0EC
:104FB00040E0811104C050E040E068E070E0CE01C4
:104FC0000E94E6298091E8008E778093E80080E2D5
:104FD000FE01ABEDB2E001900D928A95E1F7DF9111
:104FE000CF91089568E081E0CDCFCF93FC0160328E
:104FF00021F580914003843001F5C091E900CF7024
:105000002091EC00922F917020FD90E8C92B82E056
:105010008093E9008091E80080FF0CC050E040E000
:1050200060E270E0CF010E94E6298091E8008E776F
:105030008093E800CF70C093E900CF9108958091EC
:105040003F03811109C00E94C52B0E94222C809130
:10505000E20084608093E200089510923F03089577
:1050600008950895089542E061EC81E00E94412B8B
:1050700042E261EC84E00E94412B42E261EC82E07A
:105080000E94412B42E260EC83E00C94412B809122
:105090004203833009F461C030F48130D1F18230B1
:1050A00009F49DC008958A3009F489C08B3009F451
:1050B0006FC0893009F050C080914103813209F0FE
:1050C0004BC08091450390914603009719F00297D9
:1050D00009F042C08091E800877F8093E8008091CA
:1050E000E80082FF35C09091F3008091F2000297B2
:1050F00029F48091F1008B7F813021F48091F100BF
:105100008093FB028091E8008B778093E8000C94F9
:10511000752B80914103813AF9F48091E800877FF3
:105120008093E8008091450390914603892B61F4B8
:1051300060E28BED92E070E00E94842A8091E800AA
:105140008B778093E800089560E090E080E0F3CFF3
:10515000809140038111C3CF089580914103813A2A
:10516000D9F78091450390914603892BA9F7809147
:10517000E800877F8093E8008091E80080FFFCCF03
:1051800080912B018093F1008091E8008E77BDCF54
:1051900080914103813201F780914503909146034C
:1051A000892BD1F68091E800877F8093E8000E94E8
:1051B000752B8091430380932B010C94931E809157
:1051C0004103813249F68091E800877F8093E800AF
:1051D0000E94752B809144038093FC020895809176
:1051E0004103813A09F0B8CF8091E800877F80932E
:1051F000E8008091E80080FFFCCF8091FC02C2CFE4
:10520000CDB7DEB7A0970FB6F894DEBF0FBECDBF07
:1052100084B7877F84BF0FB6F894A895809160000B
:10522000886180936000109260000FBE80E890E07B
:105230000FB6F89480936100909361000FBE0E94B6
:105240000A1A0E94C52B0E94222C8091E2008460E1
:105250008093E20078940E94AB2E0E941E1A81E295
:1052600091E00E94841913E0809140038530B9F0E9
:105270000E94281A809140038430C1F00E941A1ABB
:10528000F3CF0E94642680913E03882341F00E9460
:105290009326882321F00E94D0290E94931E80919A
:1052A0004003853071F30E94AB26E2CF1093E900F2
:1052B0008091E80082FFE2CF8091E80090E085FFD6
:1052C00009C050E040E060E270E0CE0101960E942B
:1052D000352A91E08091E8008B778093E80099234C
:1052E00069F260E2CE0101960E942715C7CF0C94A7
:1052F0007929292F33272330310521F168F4213012
:10530000310509F443C02230310509F444C090E06E
:1053100080E030E020E026C02132310551F1223218
:105320003105A9F76330710590F7FB01EE0FFF1F00
:10533000E253FE4F2081318165537E4FFB01808116
:1053400090E010C099278130910581F0009729F0F5
:105350000297E9F6EEEDF5E002C0EAE0F6E08491AE
:1053600090E09F01FA01318320830895E2EFF5E098
:10537000F6CF6330710558F6660F771FFB01EC52CC
:10538000FE4F2081318189E090E0ECCF82E190E016
:1053900029E636E0E7CF8BE590E02EE036E0E2CF7D
:1053A00080E189BD82E189BD09B400FEFDCF809115
:1053B000D8008F7D8093D8008091E0008260809338
:1053C000E0008091E00081FDFCCF0895AF92BF9294
:1053D000CF92DF92FF920F931F93CF93DF936C01D5
:1053E000EB018A010E94942BF82E811123C0011534
:1053F000110539F0F80180819181C81BD90BC80EC5
:10540000D91EB12CA12C2097A9F08091E80085FD30
:1054100022C08091E8008E778093E8000115110585
:10542000A1F0F80180819181A80EB91EB182A082FD
:1054300085E0F82E8F2DDF91CF911F910F91FF9076
:10544000DF90CF90BF90AF9008950E94942B882357
:10545000D1F2F82EEFCFF60181916F018093F10028
:105460002197FFEFAF1ABF0ACECFAF92BF92CF9274
:10547000DF92FF920F931F93CF93DF936C01EB01A9
:105480008A010E94942BF82E811123C00115110569
:1054900039F0F80180819181C81BD90BC80ED91E43
:1054A000B12CA12C2097A9F08091E80085FD22C0A5
:1054B0008091E8008B778093E80001151105A1F039
:1054C000F80180819181A80EB91EB182A08285E089
:1054D000F82E8F2DDF91CF911F910F91FF90DF90CC
:1054E000CF90BF90AF9008950E94942B8823D1F263
:1054F000F82EEFCF8091F100F60181936F01219793
:10550000FFEFAF1ABF0ACECFFC0180914703909105
:10551000480386179707A0F06115710529F490914B
:10552000E8009E779093E80090E06115710551F4D2
:10553000911108C08091E80082FF34C080E0089596
:10554000BC01F2CF809140038823C1F18530C1F1C5
:105550008091E80083FD30C08091E80082FDEACFB1
:105560008091E80080FFE1CF8091F3002091F2006C
:10557000382F6115710519F02830310558F091E088
:105580002830310509F090E02091E8002E77209333
:10559000E800CBCF81918093F100615071092F5FBA
:1055A0003F4FE7CF80914003882341F0853041F0A1
:1055B0008091E80083FFBECF81E0089582E00895E6
:1055C00083E00895FC01809147039091480386177A
:1055D0009707A0F06115710529F48091E8008E7796
:1055E0008093E80090E06115710551F4911108C0B5
:1055F0008091E80082FF35C080E00895BC01F2CFC1
:10560000809140038823C9F18530C9F18091E80079
:1056100083FD31C08091E80082FDEACF8091E800EF
:1056200080FFE1CF8091F3002091F200382F6115C7
:10563000710519F02830310558F091E02830310516
:1056400009F090E08091E8008E778093E800CBCF5E
:1056500084918093F1003196615071092F5F3F4F23
:10566000E6CF80914003882341F0853041F080915E
:10567000E80083FFBDCF81E0089582E0089583E0D4
:105680000895982F973028F08F708093E90081E07B
:1056900008959093E900242F762F50E0981731F069
:1056A0007091EC002091ED005091F00021FD02C0BE
:1056B0009F5FE8CF3091EB003E7F3093EB0030915D
:1056C000ED003D7F3093ED003091EB003160309381
:1056D000EB007093EC002093ED005093F0002091CC
:1056E000EE0027FDE5CF80E008958091410387FF1C
:1056F00013C08091E80082FF06C08091E8008B779C
:105700008093E80004C0809140038111F2CF089596
:10571000809140038823D9F38091E80080FFF8CF7F
:105720008091E8008E77ECCF2091E4003091E50085
:1057300095E6A9012091EC00822F817020FF06C020
:105740008091E80080FF06C080E008952091E80085
:1057500022FD1AC080914003882389F0853089F0AA
:105760008091EB0085FD0FC02091E4003091E500B1
:1057700042175307F9F29150E1F684E0089582E070
:10578000089583E0089581E008950E94332C0E94DB
:105790003B2CE0EEF0E0808181608083E8EDF0E07A
:1057A00080818F77808319BCA7EDB0E08C918E7FCC
:1057B0008C9380818F7E808310923F0308950F9396
:1057C0001F93CF93DF930E94332C0E943B2CC8ED94
:1057D000D0E088818F7788838881806888838881FA
:1057E0008F7D888319BC1092400310923C03109265
:1057F0003E0310923D0300EE10E0F80180818B7FA4
:10580000808388818160888342E060E080E00E943C
:10581000412BE1EEF0E080818E7F8083E2EEF0E0CC
:10582000808181608083808188608083F8018081AD
:105830008E7F8083888180618883DF91CF911F91E3
:105840000F910895E8EDF0E080818F7E8083E7ED91
:10585000F0E080818160808384E082BF81E080937A
:105860003F030C94DF2BE8EDF0E080818E7F808396
:105870001092E20008951092DA001092E10008956B
:105880001F920F920FB60F9211242F933F934F93B5
:105890005F936F937F938F939F93AF93BF93EF9398
:1058A000FF938091E10082FF0BC08091E20082FFB4
:1058B00007C08091E1008B7F8093E1000E94AA2EB7
:1058C0008091DA0080FF19C08091D80080FF15C058
:1058D0008091DA008E7F8093DA008091D90080FF7A
:1058E00096C080E189BD82E189BD09B400FEFDCF8B
:1058F00081E0809340030E941F288091E10080FF97
:1059000019C08091E20080FF15C08091E2008E7F77
:105910008093E2008091E20080618093E2008091B8
:10592000D80080628093D80019BC85E08093400342
:105930000E9431288091E10084FF2BC08091E20019
:1059400084FF27C080E189BD82E189BD89B5982F98
:10595000917080FFFBCF8091D8008F7D8093D8001D
:105960008091E1008F7E8093E1008091E2008F7E44
:105970008093E2008091E20081608093E200809158
:105980003C03882309F449C084E0809340030E94CB
:1059900032288091E10083FF29C08091E20083FFDB
:1059A00025C08091E100877F8093E10082E08093B1
:1059B000400310923C038091E1008E7F8093E100D0
:1059C0008091E2008E7F8093E2008091E20080610E
:1059D0008093E20042E060E080E00E94412B8091F1
:1059E000F00088608093F0000E943028FF91EF91D2
:1059F000BF91AF919F918F917F916F915F914F91E7
:105A00003F912F910F900FBE0F901F90189519BCCA
:105A1000109240030E942D2870CF8091E30087FDF3
:105A200093E090934003B3CF1F920F920FB60F9263
:105A300011242F933F934F935F936F937F938F9393
:105A40009F93AF93BF93CF93DF93EF93FF93D09147
:105A5000E900DF708091EC00C82FC17080FDC0E8C4
:105A60001092E9008091F000877F8093F000789495
:105A70000E94582D1092E9008091F0008860809378
:105A8000F000CD2BCF70C093E900FF91EF91DF9133
:105A9000CF91BF91AF919F918F917F916F915F91C6
:105AA0004F913F912F910F900FBE0F901F9018951F
:105AB0001F93CF93DF93CDB7DEB7AA970FB6F894B5
:105AC000DEBF0FBECDBF81E493E02091F100FC0169
:105AD0002193CF01F3E089349F07B9F70E9447284B
