:100000000C949D080C94E4080C94E4080C94E40807
:100010000C94E4080C94E4080C94E4080C94E408B0
:100020000C94E4080C94E4080C941D1A0C94D9194F
:100030000C948B2C0C94E4080C94E4080C94E408C5
:100040000C94E4080C94E4080C94E4080C94E40880
:100050000C94E4080C94F41A0C94E4080C94E4084E
:100060000C94E4080C94E4080C94E4080C94E40860
:100070000C94E4080C94E4080C94E4080C94E40850
:100080000C94E4080C94E4080C94E4080C94E40840
:100090000C94E4080C94E4080C94E4080C94E40830
:1000A0000C94E4080C94E4080C94E408050109801D
:1000B000A101850319012AB700150126B700950192
:1000C00075108100C0050C0901A101850419012AE0
:1000D000A002150126A002950175108100C005013E
:1000E0000906A1018505050719E029E71500250185
:1000F0009508750181020507190029EF15002501F2
:1001000095F075018102050819012905950575010C
:100110009102950175039101C00660FF0961A1017B
:100120000962150026FF00952075088102096315F4
:100130000026FF00952075089102C005010906A15F
:1001400001050719E029E7150025019508750181CA
:10015000029501750881010507190029FF15002680
:10016000FF00950675088100050819012905950508
:1001700075019102950175039101C0000101010112
:100180000101010101020202020202020202030352
:100190000303030303030404040404040405050522
:1001A00005050606060606070707070708080808E4
:1001B000090909090A0A0A0B0B0B0C0C0C0D0D0D91
:1001C0000E0E0E0F0F0F1010111111121213131427
:1001D00014151516161717181819191A1A1B1B1C9F
:1001E0001D1D1E1E1F2020212222232424252626F9
:1001F000272829292A2B2C2D2D2E2F30313232332E
:100200003435363738393A3B3C3D3E3F4041424336
:100210004445464748494A4C4D4E4F50515354551A
:100220005658595A5B5D5E5F616264656668696BCA
:100230006C6D6F7072737577787A7B7D7E80828348
:100240008587888A8C8E8F91939596989A9C9EA08C
:10025000A2A3A5A7A9ABADAFB1B3B5B7BABCBEC099
:10026000C2C4C6C9CBCDCFD1D4D6D8DBDDDFE2E462
:10027000E7E9EBEEF0F3F5F8FAFDFFFFAA7F554052
:100280002223252628292A2C2D2F303233353638A3
:100290003A3B3D3E4042434547494A4C4E505153FC
:1002A0005557595A5C5E6062646668696B6D6F7120
:1002B000737577797B7D7F81838587898A8C8E9022
:1002C000929496989A9C9E9FA1A3A5A7A8AAACAE2B
:1002D000AFB1B3B4B6B8B9BBBCBEBFC1C2C3C5C66B
:1002E000C7C9CACBCCCDCED0D1D2D2D3D4D5D6D714
:1002F000D7D8D9D9DADADBDBDBDCDCDCDCDCDDDD52
:10030000DDDDDCDCDCDCDCDBDBDBDADAD9D9D8D741
:10031000D7D6D5D4D3D2D2D1D0CECDCCCBCAC9C7E3
:10032000C6C5C3C2C1BFBEBCBBB9B8B6B4B3B1AF1A
:10033000AEACAAA8A7A5A3A19F9E9C9A98969492BA
:10034000908E8C8A89878583817F7D7B7977757391
:10035000716F6D6B6968666462605E5C5A5957556F
:100360005351504E4C4A4947454342403E3D3B3A2B
:100370003836353332302F2D2C2A292826252322B2
:100380000400050006000700080009000A0001003B
:100390000100010001000100010001000100010055
:1003A0000100010001000100010001000100010045
:1003B000010001000100010000AF0000000000008A
:1003C000000000000000000000000000000000002D
:1003D00000000000000000000000000000007E0F90
:1003E00000D4FFFFFFC700000078000000000000FD
:1003F00000002A2B28000000000000000000000080
:10040000000000000029000000002C1E34202122E2
:1004100024342627252E362D3738271E1F2021224B
:10042000232425263333362E37381F0405060708C4
:10043000090A0B0C0D0E0F101112131415161718B4
:10044000191A1B1C1D2F3130232D350405060708F2
:10045000090A0B0C0D0E0F10111213141516171894
:10046000191A1B1C1D2F3130354C00DA0281FFD9BF
:10047000F1DB20A4A62EAF00A0C000A1C800AED51D
:1004800080A81FD300408D1420001E0F0500047F9C
:100490003F1F643214643214783C1E1E140A050196
:1004A0000103030303070707070F0F0F0F1F1F1F8A
:1004B0001F3F3F3F3F7F7F7F7FFFFFFFFFFFFFFF2C
:1004C000FFFFFFFFFFFFFFFFFFFFFEFEFCF8F8301E
:1004D00000000000000000C0F0F8783838303030FC
:1004E000206060C0C08080C000010103070F1F3F73
:1004F0003F1F1F0F070703010000000000000080DE
:10050000808080C0C0C0C0E0E0E0E0F0F0F0F0F833
:10051000F8F8F8FCFCFCFCFEFEFEFEFFFFFFFF000F
:1005200000000000000000000000000000000000CB
:1005300000000000000000000000000000010101B8
:10054000010303030307070707070F0F0F0300004B
:10055000C0E0E07000F8FF1F83808080E0F08080C2
:100560008080808080818181820000000000000006
:1005700000001CFCFCFCFCFEFEFEFEFFFFFFFFFF7C
:10058000FFFFFFFFFFFFFFFFFFFFFFFFFFFFFFFF7B
:10059000FFFFFFFFFFFFFFFFFFFFFFFFFFFFFFFF6B
:1005A000FFFFFFFFFFFFFFFFFFFFFFFFFFFFFFFF5B
:1005B000FFFFFFFFFFFFFFFFFFFFFFFFFFFFFFFF4B
:1005C000FFFFFF7F7F7F7F3F3F3F3F3F00000003F4
:1005D00001FC0FE0FFFF1F0000311D0F070F1F017F
:1005E0000101000000010103070F3EFCE080000054
:1005F0000000C0F1E1E1E1E1E1C1C1C1C18181815E
:10060000810101010101010101010101010101015A
:10061000010101010101010101010101010101FFCC
:10062000FFFFFF7F7F7F7F3F3F3F3F1F1F1F1F0F4A
:100630000F0F0F0707070703030303010101010061
:1006400000000000000000C0C0E0F0F0F8FCF8E09E
:10065000C0830607070F0F0E0C0C0C0C0C0C0C0CB7
:100660000C0C0C0C0C0C0C0C0C0E0E0707030000F1
:10067000081E1F3F7F7FFFFFFFFFFFFFFFFFFFFF02
:10068000FFFFFFFFFFFEFEFEFEFCFCFCFCF8F8F89F
:10069000F8F0F0F0F0E0E0E0E0C0C0C0C08080FE24
:1006A000FEFCFCFCFCF8F8F8F8F0F0F0F0E0E0E01C
:1006B000E0C0C0C0C080808080000000000000005A
:1006C0000000000000000000000001010307070F08
:1006D0001F0F0703010100C0F0F8783838303030C0
:1006E000206060C0C08080C00000000000000000EA
:1006F000C0E0E0F0F8F8FCFEFFFFFFFFFFFFFF7F28
:100700007F7F7F3F3F3F3F1F1F1F1F0F0F0F0F07B1
:10071000070707030303030101010100000000FFB5
:10072000FFFFFFFFFFFFFFFFFFFFFFFFFFFFFFFFD9
:10073000FFFFFFFFFFFFFFFFFFFFFFFFFFFEFEFECC
:10074000FEFCFCFCFCF8F8F8F8F8F0F010000000F3
:10075000C0E0E07000F8FF1F83808080E0F08080C0
:100760008080808080818181820000000000000004
:100770000003030303030301010101000000000063
:100780000000000000000000000000000000000069
:100790000000000000000000000000000000000059
:1007A0000000000000000000000000000000000049
:1007B0000000000000000000000000000000000039
:1007C00000000080808080C0C0C0C0C0C0000003A6
:1007D00001FC0FE0FFFF1F0000311D0F070F1F017D
:1007E0000101000000010103070F3EFCE080000052
:1007F0000000000E1E1E1E1E1E3E3E3E3E7E7E7EE3
:100800007EFEFEFEFEFEFEFEFEFEFEFEFEFEFEFE88
:10081000FEFEFEFEFEFEFEFEFEFEFEFEFEFEFE00F6
:1008200000000080808080C0C0C0C0E0E0E0E0F058
:10083000F0F0F0F8F8F8F8FCFCFCFCFEFEFEFEFF21
:10084000FFFFFFFFFFFFFF3F3F1F0F0F07020000EB
:1008500000030607070F0F0E0C0C0C0C0C0C0C0CF5
:100860000C0C0C0C0C0C0C0C0C0E0E070783C0E0CF
:10087000F0E0E0C080800000000000000000000008
:100880000000000000010101010303030307070743
:10089000070F0F0F0F1F1F1F1F3F3F3F3F7F7F009F
:1008A000000000000000000000000000000000F058
:1008B00078383898D8C8E0E0707070783838B8B8B0
:1008C000B8B8300000000000000000000000000088
:1008D000000080F0F0F0E0000000000000000000E8
:1008E000000000000000000080C0000000000000C8
:1008F00000000000000000000000000000000000F8
:1009000000000000000000000000000000000000E7
:1009100000000000000000000000000000000000D7
:100920000000000000000000000000000060783CB3
:100930009ECFE7F371210C9CDECEEFE767777777E8
:10094000F7E7E7C78000000000000000000000009B
:10095000E0FCFFC7C0C1CFFFF8C000000000E0E02E
:1009600080C0606000000606FFFF0606060000006B
:10097000FFFF000080C0E06020000000E0F8DCCC59
:10098000C6C6C6CEDCF860000060E0E000000000F3
:1009900000E0E06000000000000000000000000037
:1009A000000000000000000000000080F0FCFE3F9E
:1009B00007C3F1F83C1E8FC7E3F1783C9ECEFE7E64
:1009C0001CC1FFFF7F0C0000000000000000181F8A
:1009D0001F03000000000001071F1E180000FFFF9A
:1009E00001000000000000000F1F18181800000090
:1009F000FFFF0E1F3B71E0C08000000003070E1CCC
:100A000018181818180800000000030F3FF8E0F845
:100A10003F0F010000000000000000000000000087
:100A200000000000000000000000181F1F07001851
:100A30001F1F0F01181E1F0F03101C1F0F07011887
:100A40001E1F0701181E1F1C0000000000000000F0
:100A50000000000000000000000000000000010194
:100A60000000000000000000000000000000000086
:100A70000101000000000001010100000000000071
:100A80000000000000000000001030381C0F0300C0
:100A90000000000000000000000000000000000056
:100AA000000000000000000000000000000000F056
:100AB00078383898D8C8E0E0707070783838B8B8AE
:100AC000B8B8300000000000000000000000000086
:100AD000000000C0C0C08000000000000000000056
:100AE0000000000000000000000000000000000006
:100AF000C0C0000000000000000000000000000076
:100B000000000000000000000000000000000000E5
:100B100000000000000000000000000000000000D5
:100B20000000000000000000000000000060783CB1
:100B30009ECFE7F371210C9CDECEEFE767777777E6
:100B4000F7E7E7C780000000000000000000000099
:100B500080F0FE1F03073FFCE00000000000F8F8F3
:100B60006030181800001818FEFF18181800000050
:100B7000FFFF80C0E07038180800000080E070308F
:100B80001818183870E080000018F8F8C00000004D
:100B9000C0F878180000000000000000000000000D
:100BA000000000000000000000000080F0FCFE3F9C
:100BB00007C3F1F83C1E8FC7E3F1783C9ECEFE7E62
:100BC0001CC1FFFF7F0C0000000000000000607CE3
:100BD0007F0F0303030303071F7F786000007F7FFD
:100BE00000000000000000003F7F60606000000027
:100BF0007F7F03070E1C3870604000000F1F3B739F
:100C00006363636363230100000000030FFEF83E8B
:100C10000F030000000000000000000000000000C2
:100C200000000000000000000000181F1F0700184F
:100C30001F1F0F01181E1F0F03101C1F0F07011885
:100C40001E1F0701181E1F1C0000000000000000EE
:100C50000000000000000000000000000000000094
:100C60000000000000000000000000000000000084
:100C70000000000000000000000000000000000074
:100C8000000000000000000000040C0E070300003C
:100C90000000000000000000000000000000000054
:100CA000000000000000000000000000000000F054
:100CB00078383898D8C8E0E0707070783838B8B8AC
:100CC000B8B8300000000000000000000000000084
:100CD0000000000000000000000000000000000014
:100CE0000000000000000000000000000000000004
:100CF000F0F0000000000000000000000000000014
:100D000000000000000000000000000000000000E3
:100D100000000000000000000000000000000000D3
:100D20000000000000000000000000000060783CAF
:100D30009ECFE7F371210C9CDECEEFE767777777E4
:100D4000F7E7E7C780000000000000000000000097
:100D500000C0F87F0F1FFEF0800000000000FEFEC4
:100D6000180C060600006060F8FC6060600000007F
:100D7000FFFFE0F0B81C0E06020000000080C0C0BB
:100D8000606060E0C080000000063EFEF0800080F1
:100D9000F0FE1E0600000000000000000000000041
:100DA000000000000000000000000080F0FCFE3F9A
:100DB00007C3F1F83C1E8FC7E3F1783C9ECEFE7E60
:100DC0001CC1FFFF7F0C000000000000000080F04D
:100DD000FE3F0F0C0C0C0C1F7FFCE08000001F1F5F
:100DE0000000000000000000FFFF80808000000085
:100DF0001F1F000103070E1C181000003E7FEDCCE2
:100E00008C8C8C8C8D8F060000000080C3FF3E0F01
:100E100003000000000000000000000000000000CF
:100E200000000000000000000000181F1F0700184D
:100E30001F1F0F01181E1F0F03101C1F0F07011883
:100E40001E1F0701181E1F1C0000000000000101EA
:100E5000010000000000000000010101000000008E
:100E6000000000000000000000010101010000007E
:100E70000000000000000000000000000000000171
:100E80000101010101000000000103030100000055
:100E90000000000000000000000000000000000052
:100EA000000000000000000000000000000000F052
:100EB00078383898D8C8E0E0707070783838B8B8AA
:100EC000B8B8300000000000000000000000000082
:100ED000000000C0C0C08000000000000000000052
:100EE0000000000000000000000000000000000002
:100EF000C0C0000000000000000000000000000072
:100F000000000000000000000000000000000000E1
:100F100000000000000000000000000000000000D1
:100F20000000000000000000000000000060783CAD
:100F30009ECFE7F371210C9CDECEEFE767777777E2
:100F4000F7E7E7C780000000000000000000000095
:100F500080F0FE1F03073FFCE00000000000F8F8EF
:100F60006030181800001818FEFF1818180000004C
:100F7000FFFF80C0E07038180800000080E070308B
:100F80001818183870E080000018F8F8C000000049
:100F9000C0F8781800000000000000000000000009
:100FA000000000000000000000000080F0FCFE3F98
:100FB00007C3F1F83C1E8FC7E3F1783C9ECEFE7E5E
:100FC0001CC1FFFF7F0C0000000000000000607CDF
:100FD0007F0F0303030303071F7F786000007F7FF9
:100FE00000000000000000003F7F60606000000023
:100FF0007F7F03070E1C3870604000000F1F3B739B
:101000006363636363230100000000030FFEF83E87
:101010000F030000000000000000000000000000BE
:1010200000000000000000000000181F1F0700184B
:101030001F1F0F01181E1F0F03101C1F0F07011881
:101040001E1F0701181E1F1C0000000000000000EA
:101050000000000000000000000000000000000090
:101060000000000000000000000000000000000080
:101070000000000000000000000000000000000070
:10108000000000000000000000040C0E0703000038
:101090000000000000000000000000000000000050
:1010A000AE09025B00030100A0FA0904000001037D
:1010B00001010009211101000122400007058103FF
:1010C00008000A09040100020300000009211101BF
:1010D0000001222200070582032000010705030307
:1010E0002000010904020001030000000921110190
:1010F0000001226D000705840320000A120110017F
:10110000000000084B4114000100010200010A0325
:101110004D0061006300370000001A034D004100DC
:101120004E00550046004100430054005500520057
:101130004500520000000403090411241FBECFEF34
:10114000DAE0DEBFCDBF04B603FE27C08091D6042F
:101150009091D704A091D804B091D9048730904BD6
:10116000A740B04BD1F41092D6041092D70410923D
:10117000D8041092D90414BE84B7877F84BF0FB6F9
:10118000F894A89580916000886180936000109227
:1011900060000FBEE0E0F8E3099524E0AEEAB1E0BC
:1011A00001C01D92A63DB207E1F711E0A0E0B1E059
:1011B000EAEBF1E602C005900D92AE3AB107D9F71D
:1011C0000E947E260C94A4300C940000CF93DF93F1
:1011D0004091D4045091D504445D52409A013E5F41
:1011E00021303240C0F020E032E0241B350B60910A
:1011F000D2027091D302FC01CA01240F351FC1E055
:10120000D0E08217930750F07093D3026093D2021C
:10121000DF91CF91089520E032E0E9CF4491DC01E5
:10122000AC52BD4F5C91451781F04C93AC01A5E0E9
:1012300056954795AA95E1F7DE0102C0AA0FBB1F9C
:101240004A95E2F7AD016A2B752B01963196D9CFFD
:10125000E8EDF0E080818E7F80831092E2001092B2
:10126000DA001092E100A0EEB0E08C9181608C93E6
:1012700080818F77808319BCA7EDB0E08C918E7F41
:101280008C9380818F7E808310929C0208952091A0
:10129000E4003091E50095E6A9012091EC00822F51
:1012A000817020FF06C08091E80080FF06C080E0CA
:1012B00008952091E80022FD1AC08091C102882380
:1012C00089F0853089F08091EB0085FD0FC0209179
:1012D000E4003091E50042175307F9F29150E1F62E
:1012E00084E0089582E0089583E0089581E0089500
:1012F000EF92FF920F931F93CF937C018B010E947B
:101300004709C82F811117C08091E80085FD0BC0E7
:101310008091E8008E778093E8000E944709882337
:1013200099F3C82F08C0F70181917F018093F100E4
:101330000150110949F78C2FCF911F910F91FF9008
:10134000EF9008958091C30287FF13C08091E80059
:1013500082FF06C08091E8008B778093E80004C08C
:101360008091C1028111F2CF08958091C10288233A
:10137000D9F38091E80080FFF8CF8091E8008E7764
:10138000ECCF982F9093E900242F762F50E0891707
:1013900031F07091EC002091ED005091F00021FDB2
:1013A00007C09F5F973071F78093E90081E008954F
:1013B0003091EB003E7F3093EB003091ED003D7FAC
:1013C0003093ED003091EB0031603093EB0070937F
:1013D000EC002093ED005093F0002091EE0027FDEB
:1013E000E0CF80E00895CF92DF92EF92FF920F93CB
:1013F0001F93CF93DF93C8EDD0E088818F7E8883E1
:10140000E7EDF0E080818160808384E082BF81E04D
:1014100080939C0288818E7F888302EE10E0F80121
:1014200010821092DA0081EEC82ED12CF6011082C3
:1014300088818F77888388818068888388818F7D81
:10144000888319BC1092C1021092C2021092C0028D
:101450001092BF0290EEE92EF12CF70180818B7F74
:10146000808388818160888342E060E080E00E9420
:10147000C109F60180818E7F8083F80180818160BF
:101480008083808188608083F70180818E7F808364
:10149000888180618883DF91CF911F910F91FF90A8
:1014A000EF90DF90CF900895FC018091C902909158
:1014B000CA0286179707A0F06115710529F490916B
:1014C000E8009E779093E80090E06115710551F473
:1014D000911108C08091E80082FF34C080E0089537
:1014E000BC01F2CF8091C1028823C1F18530C1F1E6
:1014F0008091E80083FD30C08091E80082FDEACF52
:101500008091E80080FFE1CF8091F3002091F2000C
:10151000382F6115710519F02830310558F091E028
:101520002830310509F090E02091E8002E772093D3
:10153000E800CBCF81918093F100615071092F5F5A
:101540003F4FE7CF8091C102882341F0853041F0C1
:101550008091E80083FFBECF81E0089582E0089586
:1015600083E00895089580E00895089580919E0293
:1015700008959C014FB7F8948091540290915502C0
:10158000A0915602B09157024FBF821B930B089552
:101590002FB7F894609154027091550280915602D1
:1015A000909157022FBF0895209123012223C9F063
:1015B0002091580227FF15C0E62FE695E695E6959F
:1015C000EE31D8F4E80FF92FF11D677021E030E01B
:1015D00001C0220F6A95EAF7209582812823228391
:1015E0000895FC01329608962191621303C0DF0131
:1015F00011971C92E817F907B9F708952091230174
:101600002223C1F02091580227FF14C0E62FE6954F
:10161000E695E695EE31F8F4E80FF92FF11D6770C5
:1016200021E030E001C0220F6A95EAF78281822B27
:1016300082830895FC0132962FEF30E041916417C8
:1016400051F02F3F19F4411101C0232F3F5F363075
:10165000A9F72F3F09F40895820F911D27FD9A9550
:10166000FC016283089580914F02811110924F0214
:10167000089580914E0290914D02892B90914C02D9
:10168000892B8093B00190914F029923A1F0892B6F
:101690008093B00180912301882341F18091580209
:1016A00087FF24C08EE1E2EBF1E090E0815000F58D
:1016B00091110E94330BE0915C02F0915D02309732
:1016C000E1F080912301882359F08091580287FF2F
:1016D00007C08091B0018093B10185E08093B00193
:1016E0000280F381E02D80EB91E0099486E0DBCF6E
:1016F00021912223D9F29F5FD9CF089527E0929FAD
:10170000800D1124982F977086958695869525E0F3
:10171000829FF0011124EA5BFD4F50E040E080E041
:10172000219130E0092E02C0369527950A94E2F700
:1017300021703327042E01C0220F0A94EAF7822B6E
:101740004F5F5F4F4530510559F7089527E0929F4D
:10175000800D1124982F977041E001C0440F9A9595
:10176000EAF786958695869595E0899FF001112484
:10177000EA5BFD4F90E080E070E05191DF0111974E
:101780009B01082E02C0369527950A94E2F7217036
:1017900021952527242325272C9301968530910513
:1017A00061F708958091450290911402981301C049
:1017B00008958F5F8770FACF882341F080959091CC
:1017C0004E02892380934E020C94390B089588238E
:1017D00039F090914E02982B90934E020C94390B55
:1017E000089520910802309109022817390771F0F5
:1017F0009093090280930802E0915C02F0915D02EF
:10180000309721F00084F185E02D0994089520910E
:101810000602309107022817390771F090930702EA
:1018200080930602E0915C02F0915D02309721F016
:101830000680F781E02D0994089590E080E00E94F1
:10184000070C90E080E00E94F10B10924D02109284
:101850004C020C94390B6093CE027093CF028093AC
:10186000D0029093D1020C941D0C0F931F936091A2
:10187000CE027091CF028091D0029091D1028B0163
:101880009C010670112722273327063011052105F8
:10189000310529F468601F910F910C942B0C677F20
:1018A000FACF0F931F9341E050E060E070E004C076
:1018B000440F551F661F771F8A95D2F7CB01BA01D7
:1018C00060957095809590950091CE021091CF0211
:1018D0002091D0023091D10260237123822393237F
:1018E0001F910F910C942B0C90914B0280958923A2
:1018F00080934B02282F277039F4282F082E000CD4
:10190000330B9217130621F49091590292FF07C0EE
:101910008595859585950E94510C10924B020895EE
:101920000F931F9341E050E060E070E004C0440F6B
:10193000551F661F771F8A95D2F78091CE0290912E
:10194000CF02A091D002B091D1028A019B01082B55
:10195000192B2A2B3B2BC901B8011F910F910C9415
:101960002B0C60935002709351028093520290931B
:1019700053020C941D0C882379F19CEF980F913A37
:1019800038F4682F80EB91E00E94D40A0C94390B54
:1019900090E2980F983088F4877021E030E0A90138
:1019A00002C0440F551F8A95E2F7CA0180959091B5
:1019B0004E02892380934E02E9CF9BE5980F933026
:1019C00020F490E080E00C94070C885A873120F4D2
:1019D00090E080E00C94F10B0895CF93C82F8823FA
:1019E00009F467C08CEF8C0F813AC0F58091230118
:1019F000882311F18091580287FF1EC0EC2FE695D5
:101A0000E695E695F0E0E055FE4F828190E04C2FA0
:101A1000477021E030E002C0220F331F4A95E2F701
:101A200082239323892B91F06C2F80EB91E00E940D
:101A3000D40A0E94390B0AC0E2EBF1E088EB91E096
:101A40002191C21789F38E179F07D1F76C2F80EB76
:101A500091E00E94FE0ACF910C94390B80E28C0F2A
:101A6000883068F4C77021E030E001C0220FCA95C9
:101A7000EAF780914E02822B80934E02ECCFEBE589
:101A8000EC0FE33040F4F0E0E15BFE4F808190E04A
:101A9000CF910C94070CC85AC73158F4EC2FF0E0E2
:101AA000EE0FFF1FEE5AFE4F80819181CF910C9473
:101AB000F10BCF910895E0915C02F0915D023097B7
:101AC00021F00190F081E02D099480E00895FA0161
:101AD000811101C0FB01099480919602982F9E7F8D
:101AE00029F4817082608093960208958635E8F328
:101AF00081708465F8CFAF92BF92DF92EF92FF9230
:101B00000F931F93CF93DF93082F162FE901E42F34
:101B1000F0E0E558FE4F611110C0E4915E2F4E2FAA
:101B20004983E8835A83DF91CF911F910F91FF90F2
:101B3000EF90DF90BF90AF900895E62EF12C449186
:101B4000D42EE42FF0E026E0829FC00111242FEF75
:101B500030E0B9010E94B52D802F90E0880F991FC9
:101B600055E5569FD001579FB00D11248A1B9B0B42
:101B7000982F990F890F5901AE18BF08AE9ED0015A
:101B8000AF9EB00DBE9EB00D11245B2F189F80013B
:101B90001124012F11275901A01AB10AAE9E80010C
:101BA000AF9E100DBE9E100D11245901A81AB10848
:101BB000AE9CC001AF9C900DBE9C900D1124892F4E
:101BC0009927281B390B2E9FC0012F9F900D3E9FF8
:101BD000900D1124E92F62307105A1F050F46115C8
:101BE000710509F49DCF6130710581F0EB2F512F04
:101BF00097CF6430710569F080F06630710509F4A3
:101C00008FCFF4CFE42F4B2F592F8ACFE42F412FC2
:101C100087CFEB2F542F492F83CF4B2F5D2DE12FF3
:101C20007FCFF894E82FE295EF70F0E031A1282FF4
:101C30002F7081E090E001C0880F2A95EAF7982F75
:101C40009095932391A392A1892B82A378940895D0
:101C50009091580292FF06C0282F28712830F9F47D
:101C6000877F846093FF06C0282F28712831F1F404
:101C7000877E84612091590220FF06C0382F387179
:101C80003830D9F4877F816021FF06C0282F287162
:101C90002831D1F4877E816194FD877E0895282FB5
:101CA00024712430F9F68B7F8860DCCF282F2471D3
:101CB000243101F78B7E8861DDCF382F31713130CF
:101CC00019F78E7F8860E0CF282F2171213121F70D
:101CD0008E7E8861E1CFCF92DF92EF92FF926C010E
:101CE000EE24FF2420E0C114D104E104F10419F032
:101CF000C701B60120E1C72ED82EE92EFF24C1145A
:101D0000D104E104F10419F0285FC701B6016B01A9
:101D10007C0154E0F694E794D794C7945A95D1F790
:101D2000C114D104E104F10419F02C5FC701B6011C
:101D30006B017C0142E0F694E794D794C7944A95EE
:101D4000D1F7C114D104E104F10419F02E5FC701E9
:101D5000B6019695879577956795672B682B692BC4
:101D600009F02F5F822FFF90EF90DF90CF900895C2
:101D7000CF92DF92EF92FF920F931F93CF93DF9357
:101D80006C017B0164E670E088E70E94B82CEC01EE
:101D900097FD12C010E000E0F601E00FF11F849102
:101DA00064E670E00E94142DEC01892B29F40F5F8A
:101DB0001F4F0E151F0581F70E94972DCE01DF9151
:101DC000CF911F910F91FF90EF90DF90CF900895EA
:101DD000CF93C0918F02809190028823D1F00E940E
:101DE000C80A605A75418F4F9F4F60938B02709362
:101DF0008C0280938D0290938E02C11108C062E024
:101E000070E088EB93E00E94B80E892B29F0C09116
:101E10008F028C2FCF91089581E080938F02F7CFAE
:101E2000CF9384E090E00E94622EC82F82E290E07F
:101E30000E94622E982F8C2FCF9108950F931F939D
:101E4000CF93DF939EE0C42FD0E0CC0FDD1F699FBE
:101E5000C00DD11D1124899FC00DD11D1124CE01AB
:101E600087960E94622E082F10E0102F0027CE01C7
:101E700088960E94622E9801282BC901DF91CF918C
:101E80001F910F910895462F843038F4711105C0C9
:101E9000673018F460E00C941E0F90E080E0089525
:101EA000CF93DF930E94430FEC0182389105A9F193
:101EB000D8F58133910509F496C048F5893291052A
:101EC00009F48AC08A9709F495C0C11522E5D207A2
:101ED00008F0B6C0C11531E5D30708F026C1C83EE9
:101EE000D10508F09CC0C03ED10560F5C83AD105C7
:101EF00008F087C0C53AD10508F0EFC0C130D10560
:101F000009F12097F9F0C430D105E0F440C08533E1
:101F1000910509F45AC0C997C1F68091580283709F
:101F200089F0C0EED0E00EC0833E910599F170F4C7
:101F3000803E910501F1823E910539F6809158026B
:101F400082FD21C0CE01DF91CF910895863E91059B
:101F500061F1873E910571F1843E910509F0B5CF9D
:101F60008091590281FFEECF80915802C7EED0E0F8
:101F700084FD0DC0E7CF8091580280FD07C190918C
:101F8000590290FFDFCFC3EED0E084FFDBCFD0E07B
:101F9000C0E0D8CF8091580282FDFBC090915902D9
:101FA00090FDBFCF84FFCECFF2CF8091580283FD4A
:101FB000DDCFC8CF8091580283FDEEC090915902C9
:101FC00091FFF0CFC4EED0E0BDCF8091580285FFE5
:101FD000B9CFC9E2D0E0B6CF8091580285FFB2CF29
:101FE000C5E3D0E0AFCF8091580286FFABCFCAE205
:101FF000D0E0A8CF8091580286FFA4CFC1E3D0E003
:10200000A1CFCF3BD10518F6C85AD0E0CC0FDD1FC9
:10201000CE5ADE4F0990D881C02DD46493CFC1151C
:1020200040E5D40708F064C0C11580E4D80708F083
:102030005CC0CE019A9581159F4108F483CFA7CF4C
:10204000C11536E5D30718F5C11545E5D40708F0E5
:1020500084C0C11584E5D80708F07AC09C2F9695F6
:1020600096959E0123703327C115D34508F462C0AD
:10207000C1E0D0E002C0CC0FDD1F2A95E2F730E2CC
:10208000939FC0011124C82BD92BDA685BCFC115EF
:102090008AE5D80778F4C11599E5D90708F068C032
:1020A000C11528E5D20708F472CFDC2FCC27C06F0A
:1020B000D06A48CFCE0190568115904208F067CF84
:1020C0008D2F8F710E94280E90E0982F88278827E7
:1020D0009F719C012C2BE90149C0C55AD0E0C15B1E
:1020E000DE4FC881D0E0D0642DCFDF70D06A2ACF18
:1020F000CE01E4E096958795EA95E1F783702C2F61
:1021000026952695237040E2249F90011124382BB8
:102110008C2F8370C1E0D0E002C0CC0FDD1F8A9508
:10212000E2F7C22BD32BDC680DCFDC2FCC27C16F9D
:10213000D06A08CFC1E0D0E002C0CC0FDD1F2A95E5
:10214000E2F720E2929FC0011124C82BD92BEBCFDC
:10215000DC2FCC27C46FD06AF5CE8C2F0E94280EBE
:10216000C82FD0E0DC2FCC27CC27DF71D062EACE9D
:102170008C2F8F700E94280E34E0D695C7953A9523
:10218000E1F7CF709C2FEC01D069DCCEC9E3D0E041
:10219000D9CEC2EED0E0D6CEC6EED0E0D3CEBF923E
:1021A000CF92DF92EF92FF920F931F93CF93DF9323
:1021B0008C01C090CE02D090CF02E090D002F0907F
:1021C000D1028091500290915102A0915202B0919F
:1021D0005302C82AD92AEA2AFB2ACFE1D0E0BC2E32
:1021E000D701C6010C2E04C0B695A7959795879583
:1021F0000A94D2F780FD0EC0219788F7B12C8B2D61
:10220000DF91CF911F910F91FF90EF90DF90CF90D2
:10221000BF900895B8018C2F0E94500F019761F371
:10222000EECFCF93DF93EC010E94CF10BE01DF9180
:10223000CF910C94500F0E941111292F2F7092955D
:102240009F7092509E3078F4E92FF0E0EA55FF4CF1
:102250000C94DD2D803F19F020F4883E20F481E0BD
:102260000895843FE1F380E00895883EC0F3813F04
:10227000D1F7F5CF822F8695869586950895AF92F2
:10228000BF92CF92DF92EF92FF920F931F93CF9363
:10229000DF9380E8C82E83E0D82E05E310E0E80144
:1022A0002E977601F701A590B4906B2DCE010E9478
:1022B000762E6A2DCE0101960E94762E82E0E80EDF
:1022C000F11C2296C017D10769F78EE0C80ED11C09
:1022D0008E01025F1F4F0D36110509F7DF91CF9177
:1022E0001F910F91FF90EF90DF90CF90BF90AF9034
:1022F0000895CF93C0915902C2FB992790F998177E
:1023000081F080FBC2F9C09359026091580284E0C9
:1023100090E00E94762E6C2F82E290E0CF910C9498
:10232000762ECF910895CF93DF93CFE5D0E060E094
:10233000CE010E94762E2196C11584E0D807B9F708
:10234000DF91CF910895CF93DF9300D00F92CDB757
:10235000DEB79091C102943011F589837B836A8343
:102360009093E9008FEF9091E800815095FD06C0B1
:1023700095ED9A95F1F700008111F5CF8091E80075
:1023800085FF0DC050E040E063E070E0CE010196B3
:102390000E9478098091E8008E778093E8000F9082
:1023A0000F900F90DF91CF910895BC0184E00C94C1
:1023B000A311BC0183E00C94A311CF93DF93EC0134
:1023C000809123018823B1F18091580287FF32C0A8
:1023D00060E284E08093E9008FEF9091E800815003
:1023E00095FD06C095ED9A95F1F700008111F5CFA6
:1023F0008091E80085FF1BC08091230170E050E0D0
:1024000040E0811104C050E040E068E070E0CE019F
:102410000E9478098091E8008E778093E80080E23E
:10242000FE01AFE9B2E001900D928A95E1F7DF91EC
:10243000CF91089568E081E0CDCF81E08093E00006
:1024400080E28093D8001092C9008FE19EE401974A
:10245000F1F700C0000087E090EBDC018093D60428
:102460009093D704A093D804B093D90488E19CE05A
:102470000FB6F894A895809360000FBE909360000B
:10248000FFCF1F93CF93DF93182FD0E0C0E08933A5
:1024900011F4C0E5D0E0812F0E94ED0C209731F4BB
:1024A000812FDF91CF911F910C94BB0C8FE99FE09E
:1024B0000197F1F700C000002197F0CF80919602BC
:1024C00080FD0AC0E6EDF1E011821082128233969F
:1024D00051E0E83EF507C1F7879A31B33F7721B362
:1024E00020684FB7F89486ED91E0FC015191CF013F
:1024F00068E021BB000000C057FF31BB550F000052
:1025000000C000C000C031BB00C06A9591F7F1E087
:10251000883E9F0751F74FBF8FE594E00197F1F791
:1025200000C000000895EF92FF921F93CF93DF93B6
:10253000EC0186EDE82E81E0F82E10E08C81970109
:102540004091990260919802810F0E947B0D165D67
:1025500083E0E80EF11C1C3F89F70E945E129A810D
:102560008C8190FF08C08F5F8C83DF91CF911F918A
:10257000FF90EF9008958150F7CFBF92CF92DF92F6
:10258000EF92FF920F931F93CF93DF93FC01828111
:10259000DD24DA9480FD02C0DD24D39406ED11E041
:1025A000D0E0C0E026E0B22EF80111821082128243
:1025B00094E0E92EF12CC12C8091D3018C0D873051
:1025C0000CF43DC06B2D0E94A72D892F082E000C06
:1025D000990B8C179D0791F4809199028E9DA00113
:1025E0008F9D500D11245595479555954795980108
:1025F00060919802809197020E947B0DCD0CF1E0D2
:10260000EF1AF108C9F621960D5F1F4FC630D105AC
:1026100059F60E945E128091D30191E0D91215C043
:10262000811111C085E08093D301DF91CF911F917B
:102630000F91FF90EF90DF90CF90BF90089587FFAC
:10264000C5CF8A5FC3CF8150EECF90E00196BE0127
:102650000E94C92DE8CF0F931F93CF93DF93C6ED50
:10266000D1E0FE01118210821282339681E0E83EB1
:10267000F807C1F710E000E08091D401082E000CAB
:10268000990B081719078CF180911001082E000C86
:10269000990B801791074CF19E014091990260912E
:1026A0009802809197020E947B0D0F5F1F4F239627
:1026B0000630110509F70E945E1280910F0190917A
:1026C000D401980F9093D40120911001280F2093EA
:1026D0001001121614F495301CF0819580930F01AF
:1026E000DF91CF911F910F910895198218821A825C
:1026F000DCCF8F929F92AF92BF92CF92DF92EF92F8
:10270000FF920F931F93CF93DF93EC014C81042F23
:1027100010E09801D8010E94FE2E9B01AC010E949E
:10272000C92E4B015C01E0E2F0E0E01BF10BA5E5F6
:10273000B0E0AC019B010E94C92E6B017C019F019E
:10274000DF010E94EA2D9B01AC010E94D42E9B0167
:10275000AC01280D391D4A1D5B1DC701B6010E9441
:10276000DC2EF22E822F90E039E23F15D8F143E0C3
:10277000249F9001112435952795122F109596EDE1
:10278000C92E91E0D92E00E085E5E82EEF188E2DB8
:1027900001FD8F2D9601412F609198020E947B0DC3
:1027A0000F5F53E0C50ED11C063089F70E945E1200
:1027B0009C8181E0992319F0903219F48FEF809376
:1027C000110180911101890F8C83DF91CF911F91AD
:1027D0000F91FF90EF90DF90CF90BF90AF909F90C0
:1027E0008F90089525E530E0A901481B590BCA01D7
:1027F0009A01220F331F280F391F37FFBCCF2F5FDD
:102800003F4FB9CFEF92FF920F931F93CF93DF9378
:102810008C01C6EDD1E0F12CE12CF801948160919E
:10282000980280919702F3E0EF16F104FCF49923EB
:10283000F9F09E01409199020E947B0D2FEFE21A60
:10284000F20A239686E0E816F10439F70E945E1238
:10285000F801848190E00196817099278483DF914B
:10286000CF911F910F91FF90EF900895992309F355
:102870009E0140E0E1CF9091960290FF0CC0E6ED02
:10288000F1E0818360834283339691E0E83EF9076B
:10289000C1F70C945E1208950F931F93CF93DF93AB
:1028A00000D00F92CDB7DEB78C018091D501811198
:1028B0000AC09E012F5F3F4F4FEF6FEF0E947B0DCD
:1028C0008A818093D501F8016481613069F080913B
:1028D000D50140E0662361F040E0623011F44091A0
:1028E000D50180E060E004C06091D50140E080E067
:1028F0000E943B14F801848190E0019663E070E04F
:102900000E94C92D84830F900F900F90DF91CF917B
:102910001F910F910895CF93DF9300D00F92CDB701
:10292000DEB79091960290FF0AC09E012F5F3F4F45
:102930000E947B0D4B8169818A810E943B140F901C
:102940000F900F90DF91CF910895CF93DF93EC011B
:10295000EC81F0E0E058FD4F4491E6E9F2E062815D
:1029600081810E948B148C818F5F8C83DF91CF914A
:102970000895CF93DF93EC01E6E9F2E043816281B1
:102980008C810E948B148C818F5F8C83DF91CF911F
:10299000089510924E0280912301E2EBF1E088232A
:1029A00059F08091580287FF07C08EE1DF011D9228
:1029B0008A95E9F70C941D0C86E0F8CF1F93CF930E
:1029C000DF93CDB7DEB7AA970FB6F894DEBF0FBE80
:1029D000CDBF83EC92E02091F100DC012D93CD017D
:1029E000B2E08B3C9B07B9F78091C402833009F4B5
:1029F00071C0B8F4813009F448C0823009F4B2C023
:102A00008091E80083FF3AC18091C3029091C40293
:102A10009A3008F033C1E92FF0E0EC54FF4C0C94ED
:102A2000DD2D8A3009F48DC08B3009F470C08930F7
:102A300039F78091C302813219F78091C7029091D2
:102A4000C802009711F00297D9F68091E800877FBD
:102A50008093E8008091E80082FF37C09091F300F6
:102A60008091F200029729F48091F1008B7F8130F0
:102A700021F48091F10080939E028091E8008B7791
:102A80008093E8000E94A209BBCF8091C302813AE3
:102A900009F0B6CF8091E800877F8093E8008091AD
:102AA000C7029091C802892B61F460E28FE992E03D
:102AB00070E00E94540A8091E8008B778093E800D0
:102AC0009FCF60E090E080E0F3CF8091C102811160
:102AD000C1CF96CF8091C302813A09F091CF809106
:102AE000C7029091C802892B09F08ACF8091E80033
:102AF000877F8093E8008091E80080FFFCCF809181
:102B000023018093F1008091E8008E77B9CF809106
:102B1000C302813209F074CF8091C7029091C8023C
:102B2000892B09F06DCF8091E800877F8093E800C2
:102B30000E94A2098091C502809323010E94C914BA
:102B40005FCF8091C302813209F05ACF8091E800B3
:102B5000877F8093E8000E94A2098091C60280933B
:102B60009D024ECF8091C302813A09F049CF8091F6
:102B7000E800877F8093E8008091E80080FFFCCF29
:102B800080919D02BECF803899F0823809F076C0DE
:102B90008091C7028F70873008F070C08093E90081
:102BA0008091EB0085FB882780F91092E90006C030
:102BB0008091BF029091C002911182609091E800D3
:102BC000977F9093E8008093F1001092F10080913C
:102BD000E8008E77B5C1882309F4A2C1823009F0DC
:102BE0004DC08091C5028111A6C18091C7028F702E
:102BF0002FEF280F263008F041C08093E900209184
:102C0000EB0020FF98C1933031F48091EB0080629B
:102C10008093EB0090C19091EB0090619093EB005A
:102C200021E030E001C0220F8A95EAF72093EA0004
:102C30001092EA008091EB008860EACF81111EC0FB
:102C40001091C5021F778091E3008078812B8093DB
:102C5000E3008091E800877F8093E8000E94A2094A
:102C60008091E80080FFFCCF8091E3008068809332
:102C7000E30082E0111183E08093C1028091E800BB
:102C800083FF0AC08091E800877F8093E8008091ED
:102C9000EB0080628093EB00AA960FB6F894DEBF3B
:102CA0000FBECDBFDF91CF911F9108958058823024
:102CB00028F72091C5023091C6022C3DE3E03E0783
:102CC000A1F583E08A838AE289834FB7F894DE0115
:102CD000139620E03EE051E2E32FF0E050935700DE
:102CE000E49120FF03C0E295EF703F5FEF708E2FFD
:102CF00090E0EA30C0F0C7968D939D932F5F24310A
:102D000059F74FBF8091E800877F8093E8006AE21F
:102D100070E0CE0101960E94540A8091E8008B7702
:102D20008093E800ABCFC096E7CF8091C702909127
:102D3000C802432F55274330510509F44AC078F59E
:102D40004130510509F47AC08BE590E0E1EAF0E109
:102D50004230510509F092CF2091E800277F20935F
:102D6000E8002091C9023091CA028217930708F443
:102D70009C0140E02115310509F065C0411163C097
:102D80008091E80082FDC9CF8091C102882329F299
:102D9000853019F28091E80083FFF2CFBECF413237
:102DA000510509F43CC04232510509F067CF833028
:102DB000910508F063CFFC01EE0FFF1FEE55FE4FAB
:102DC0000190F081E02D81569E4FDC018C9190E0C6
:102DD0001AC0332721303105D1F02115310561F0BA
:102DE0002230310509F04ACFEEE0F1E1E4918E2F77
:102DF00090E0EEE0F1E107C0E6E3F1E1E4918E2F2F
:102E000090E0E6E3F1E1009709F438CFA5CFEAE1DD
:102E1000F1E1E4918E2F90E0EAE1F1E1F4CF83302B
:102E2000910508F02BCF880F991FFC01E855FE4F44
:102E30000190F081E02D89E090E08ECF82E190E07A
:102E4000ECEFF0E189CF8091C102882309F465CFCE
:102E5000853009F462CF8091E80083FD5ECF8091D8
:102E6000E80082FD8DCF8091E80080FF83CF9091B4
:102E7000F3008091F2002115310519F08830910599
:102E800050F041E0089709F040E08091E8008E772B
:102E90008093E8006FCF44914093F1003196215028
:102EA00031090196E8CF803809F0E8CE8091E8003A
:102EB000877F8093E8008091C2028093F10087CEE3
:102EC0008111DCCE1091C502123008F0D7CE80916E
:102ED000E800877F8093E8001093C2020E94A20955
:102EE000112311F084E005C08091E30087FDFACF43
:102EF00081E08093C10242E061EC81E00E94C1095F
:102F000042E261EC84E00E94C10942E261EC82E0AD
:102F10000E94C10942E260EC83E00E94C109AECE8A
:102F20008091C502813009F0A9CE81E0933009F08B
:102F300080E08093C0021092E9008091E800877FD2
:102F40008093E8000E94A20999CE4F925F926F92FF
:102F50007F928F929F92AF92BF92CF92DF92EF9229
:102F6000FF920F931F93CF93DF93FC016280448005
:102F700081E08483E0E8F2E07490EFEFF2E0E49126
:102F8000C8EED1E036EDE32E31E0F32E46E0C42E5C
:102F900042E0D42E52E0A52EBB24B39488248A9418
:102FA000912C55245A94E7190E2F10E082E08615D3
:102FB00030F0809197028883809198028983411034
:102FC00021C01B821A8297014A81698188810E94EF
:102FD0007B0D259683E0E80EF11CCC16DD0631F75B
:102FE000DF91CF911F910F91FF90EF90DF90CF90E5
:102FF000BF90AF909F908F907F906F905F904F9019
:103000000C945E128B818823E9F081508B83859D1F
:10301000C00111246C8170E00E94B52DFB01FF27D7
:10302000E058FD4F8491E82FE719E59DC001112478
:10303000B8010E94B52D80919902689FB0011124BA
:103040007A83C1CF0E94452E20919902269521585E
:103050002A9DA0012B9D500D1124452F5527841723
:1030600095070CF0B0CF82E0861588F40E94452EBB
:10307000B4010E94C92D88830E94452E2091980298
:103080002695622F70E00E94C92D280F29831A828D
:1030900080919902893C20F088EC8C838B8393CFBC
:1030A0008431D8F784E1F9CF6AEE7EEF90E080E0DA
:1030B0000E94942E60E082E090E00E94762E60E014
:1030C00083E090E00E94762E1092500210925102FE
:1030D000109252021092530260E084E090E00E944D
:1030E000762E60E082E290E00E94762E60E085E03D
:1030F00090E00E94762E60E086E090E00E94762EBE
:103100006FEF87E090E00E94762E40E050E0BA0139
:1031100088E090E00E94882E60E08DE090E00E94C0
:10312000762E40E050E0BA0188E190E00E94882EBF
:1031300060E087E190E00E94762E40E050E0BA0126
:103140008CE190E00E94882E70E060E080E290E0E8
:103150000E94942E40E050E0BA0188E190E00E9485
:10316000882E40E050E0BA018FE090E00E94882E67
:1031700040E050E0BA0183E190E00C94882ECF92B9
:10318000DF92EF92FF926B017C010E946C0DB70100
:10319000A60188E090E0FF90EF90DF90CF900C9434
:1031A000882E5F926F927F928F929F92AF92BF9282
:1031B000CF92DF92EF92FF920F931F93CF93DF9303
:1031C00000D00F92CDB7DEB7182F762E042F622EC7
:1031D0009091960290FF29C0E92FE695AE2FB0E0BE
:1031E000AC5DBE4F8C91809394029E7F923081F5AE
:1031F0009E012F5F3F4F812F0E947B0D4B81698184
:103200008A810E943B141093970270929802009357
:103210009902662051F06091960270919702809118
:103220009802909199020E94BF180F900F900F90F2
:10323000DF91CF911F910F91FF90EF90DF90CF9092
:10324000BF90AF909F908F907F906F905F90089508
:10325000823019F400919902D6CF863019F410917A
:103260009702D1CF8930D9F3893169F6E9518E2F90
:103270008170582EE695F0E0E558FD4FA590B4908A
:10328000BB2486EDE82E81E0F82ED12CC12C96E0EF
:10329000892E912CC601B4010E94B52D812F5110A9
:1032A00013C0860F9701402F672D0E947B0DCA0C1B
:1032B000DB1C83E0E80EF11C88EEE81681E0F806DE
:1032C00049F70E945E129FCF861BECCFE6E9F2E041
:1032D000438128E0421B08F440E021E062818181C3
:1032E0000C94D118E6E9F2E0438128E0420F08F49B
:1032F0004FEF21E0628181810C94D118E6E9F2E080
:10330000628128E0621B08F460E021E04381818152
:103310000C94D118E6E9F2E0628128E0620F08F42B
:103320006FEF21E0438181810C94D118E6E9F2E04E
:10333000818121E04381628188500C94D118E6E9B3
:10334000F2E0818121E043816281885F0C94D11891
:1033500080919A02882319F0815080939A0260919B
:1033600096027091970280919802909199020C9424
:10337000BF1880919A02833018F48F5F80939A026D
:1033800060919602709197028091980290919902B3
:103390000C94BF18E6E9F2E083E0808311828FEF9E
:1033A00082838383148260817181828193810C94F2
:1033B000BF181F920F920FB60F9211242F933F93B5
:1033C0004F935F936F937F938F939F93AF93BF932D
:1033D000CF93DF93EF93FF93D091E900DF7080915B
:1033E000EC00C82FC17080FDC0E81092E900809108
:1033F000F000877F8093F00078940E94DE14109292
:10340000E9008091F00088608093F000CD2BCF70B0
:10341000C093E900FF91EF91DF91CF91BF91AF9100
:103420009F918F917F916F915F914F913F912F91DC
:103430000F900FBE0F901F9018951F920F920FB60E
:103440000F9211242F933F934F935F936F937F932A
:103450008F939F93AF93BF93EF93FF938091E1007E
:1034600082FF09C08091E20082FF05C08091E100E7
:103470008B7F8093E1008091DA0080FF24C08091EF
:10348000D80080FF20C08091DA008E7F8093DA0020
:103490008091D90080FF9BC080E189BD82E189BD18
:1034A00009B400FEFDCF81E08093C10280919C02AF
:1034B000811109C00E9428090E94F3098091E2004D
:1034C00084608093E2008091E10080FF17C08091CA
:1034D000E20080FF13C08091E2008E7F8093E200C3
:1034E0008091E20080618093E2008091D800806248
:1034F0008093D80019BC85E08093C1028091E100DF
:1035000084FF29C08091E20084FF25C080E189BD4D
:1035100082E189BD89B5982F917080FFFBCF8091A2
:10352000D8008F7D8093D8008091E1008F7E8093BA
:10353000E1008091E2008F7E8093E2008091E200C2
:1035400081608093E2008091C202882309F445C023
:1035500084E08093C1028091E10083FF27C08091C5
:10356000E20083FF23C08091E100877F8093E10028
:1035700082E08093C1021092C2028091E1008E7FAE
:103580008093E1008091E2008E7F8093E200809141
:10359000E20080618093E20042E060E080E00E940F
:1035A000C1098091F00088608093F000FF91EF9155
:1035B000BF91AF919F918F917F916F915F914F914B
:1035C0003F912F910F900FBE0F901F90189519BC2F
:1035D0001092C10210929C0276CF8091E30087FD89
:1035E00093E09093C102B7CF78941F921FB61F92B9
:1035F00011248F939F93AF93BF9380915402909126
:103600005502A0915602B09157020196A11DB11D1D
:103610008093540290935502A0935602B0935702A0
:10362000BF91AF919F918F911F901FBE1F901895D2
:103630002FB7F8948091540290915502A0915602B0
:10364000B09157022FBF08950F931F93CF93DF932D
:10365000C62FD42F022FFC0182818823A1F0609312
:10366000CD020E94181B9093CC028093CB02C770AE
:1036700081E001C0880FCA95EAF7DF91CF911F91D1
:103680000F910C94E70B8091CD02681335C08091A7
:10369000CB029091CC020E94B90A883C910560F55A
:1036A00010E21D0FCD17B9F080E28C0F883040F486
:1036B000C77081E001C0880FCA95EAF70E94DC0B51
:1036C000183048F481E09D2F977001C0880F9A95BB
:1036D000EAF70E94E70B802F0E944112183098F4FD
:1036E000D77081E001C0880FDA95EAF7DF91CF91BA
:1036F0001F910F910C94DC0BC77081E001C0880F03
:10370000CA95EAF7F3CFDF91CF911F910F910895FA
:103710009091960290FF3DC09170811129C09260F6
:1037200090939602662351F06091960270919702F1
:1037300080919802909199020E94BF186091960220
:10374000669570E04BE050E084E091E00E94552ED9
:10375000892BA9F01092950281E08093620220E00B
:103760004091990260919802809197020C94D1182F
:103770008B3210F09465D4CF880F982BD1CF81E095
:10378000809395020E94181B9093600280935F02C1
:10379000E3CF0895809196028695815009F48AE2DC
:1037A00061E00C94881B8091960286958F5F8B3226
:1037B00008F081E061E00C94881B9091960290FFE4
:1037C00007C09695981720F0961710F40C94D31B09
:1037D00061E00C94881B3F924F925F926F927F92B0
:1037E0008F929F92AF92BF92CF92DF92EF92FF9211
:1037F0000F931F93CF93DF9300D000D00F92CDB7DC
:10380000DEB78C01FC0183819481892B31F08081AA
:10381000918189238F3F09F05AC60F900F900F9026
:103820000F900F90DF91CF911F910F91FF90EF902C
:10383000DF90CF90BF90AF909F908F907F906F90D0
:103840005F904F903F9008950E94CF10F82E682F00
:1038500089819A810E94A60B69817A818F2D0E94AD
:10386000430F7C01F8018281882309F45DC0C70100
:1038700090568115F0E29F0750F0905E811520E18F
:10388000920728F0915C81159F4108F087C0C7011D
:1038900099279C01245031092432310520F08B975F
:1038A0000E9708F041C080910B0290910C02009796
:1038B000A9F10E94B90AD0900A029C0150E040E0B0
:1038C00060E67AEE80E090E00E94AA2ECA01B9017B
:1038D00025E030E040E050E00E94AA2ECA01B90184
:1038E0006D197109810991090E94AB2F27EA39E707
:1038F00047E45DE30E9437304B015C016D2D70E0C1
:1039000090E080E00E94AB2F9B01AC01C501B401A7
:103910000E940E2F0E947A2F60930A020E94181BA9
:1039200090930C0280930B02F8018281882309F4A2
:10393000C1C5970122513F452031310508F08DC5A1
:103940008FEF93E00E94622EFEEEEF0E5FE5852E74
:10395000912C8823D1F180914B02877009F45DCFBF
:10396000F8018281882309F458CF82E00F900F90EC
:103970000F900F900F90DF91CF911F910F91FF90BB
:10398000EF90DF90CF90BF90AF909F908F907F90FF
:103990006F905F904F903F900C94740C8FEFE816EF
:1039A000F10421F018F090E080E073CFC70171CFEF
:1039B000811424E0920679F2C4010E94622E8111E2
:1039C00001C0EA943FEF831A930AE110F1CF1C8201
:1039D0001B82442443944AE0342E74018FEFE81A8A
:1039E000F80AC4010E94622E89831A82882309F48E
:1039F000B2CF9FEF980F933000F58A83498292E00F
:103A0000890E911CC7010E94622E8B83882309F4C2
:103A1000A2CFFE0131967F01F70120812223E9F236
:103A2000213009F049C091818281913041F4F2E066
:103A3000EF0EF11C0E94411209C04701EACF9230FB
:103A400049F422E0E20EF11C0E94ED0C3FEFE31A74
:103A5000F30AE2CF933031F432E0E30EF11C0E941E
:103A6000BB0CF4CF943021F08FEFE81AF80AEECFB8
:103A700092E0E90EF11C30E020E0B7016F5F7F4F6C
:103A8000F70141818053990B8A30910550F0215004
:103A90003109E0F28FE99FE00197F1F700C00000E3
:103AA000F6CF329EF001339EF00D11249C012E0FB3
:103AB0003F1F842F7B01E1CFE22FF0E0E651FC4F66
:103AC0005490822F86958695869590E0FC01E6526B
:103AD000FC4F64902770712C022E02C0759467947D
:103AE0000A94E2F7E1E06E227724FC01E653FC4FF2
:103AF000A490B12C022E02C0B594A7940A94E2F7C8
:103B0000F1E0AF22BB24FC01E654FC4FC490D12C61
:103B100002C0D594C7942A95E2F721E0C222DD24A1
:103B20006114710419F081EE0E94ED0CA114B1042E
:103B300019F086EE0E94ED0C852D0E944112AB28F3
:103B400019F086EE0E94BB0C672819F081EE0E94E6
:103B5000BB0CCD2809F47ACF8CE26CCF81E00E94B7
:103B6000900C0E94350CF7CE81E00E94510CF9CFE9
:103B700082E0F5CF95EFE9169CE5F90609F469C0F6
:103B800008F463C027E245EE66EEF6EFEF16FCE5BB
:103B9000FF0609F48BC4882309F4AAC41092CD024D
:103BA00022E0E2162CE5F20608F44CC136E1E316F9
:103BB0003CE5F30630F0C7018A5F9C45099708F0A1
:103BC00041C10E94100F909359028093580280E1E6
:103BD000E8168CE5F80609F404C108F083C0E8E0B3
:103BE000EE16ECE5FE0609F4EEC008F04FC024E046
:103BF000E2162CE5F20609F4DEC090F582E0E81644
:103C00008CE5F80609F4D1C080915802826093E0F7
:103C1000E9169CE5F90609F4CBC060915802F090D2
:103C2000590284E090E00E94762E6F2D82E290E0AF
:103C30000E94762E0E94C9148ECE27E245EE65EED4
:103C400035C426E241EE60EE31C427E245EE64EE73
:103C50002DC426E241EE62EE29C428E241E0EFCF16
:103C6000809158028061E6E0EE16ECE5FE0609F46C
:103C70009FC0809158028860F7E0EF16FCE5FF06D0
:103C800008F496C080915802806292C080915802D8
:103C90008D7F2CE0E2162CE5F20609F489C060F471
:103CA0008AE0E8168CE5F80609F497C008F48FC09E
:103CB000809158028E7F7CC080915802877FEEE011
:103CC000EE16ECE5FE0609F473C0809158028B7F76
:103CD000FFE0EF16FCE5FF0608F46AC08091580289
:103CE0008F7E66C02BEFE2162CE5F20609F467C062
:103CF00068F583E1E8168CE5F80609F47AC090F4DB
:103D0000E1E1EE16ECE5FE0609F46FC0F2E1EF1614
:103D1000FCE5FF0609F081CF0E94C914809158028A
:103D20008F7746C025E1E2162CE5F20609F469C05A
:103D300008F47DC08AEFE8168CE5F80609F06DCF2F
:103D40008091590281608093590267CF9FEFE916F5
:103D50009CE5F90609F451C0A0F4809159028D7FC9
:103D6000FDEFEF16FCE5FF0671F3809159028E7F9F
:103D70002EEFE2162CE5F20630F3809159028360B3
:103D8000E2CF31E0E3163DE5F30609F459C008F44B
:103D900044C060E092E0E9169DE5F90609F03DCFE8
:103DA0008EE090E00E94762E38CF8091580281609C
:103DB0008093580232CF809158028460F9CF80916D
:103DC00059028260C0CF809158028064F1CF0E9476
:103DD000C914809158028068EBCF809158028C60A2
:103DE000E7CF809158028F7DE3CF809158028F7B7F
:103DF000DFCF80915802837FDBCF809159028C7F87
:103E0000A2CF8091580282FB992790F921E0922756
:103E100090FB82F990FB83F9CBCF80915902982FC8
:103E2000909591708E7F892B90FB81F98CCF0E94A9
:103E3000C91490915802892F97FB87F98058B8CF01
:103E400061E0AECF80914E02E6E1EE16ECE5FE06B3
:103E500009F05DC38A7A91E009F490E090930D0235
:103E600069E2811165E380EB91E00E94FE0A0E9405
:103E7000390B71CD8091960280FF1BC08E7F80939D
:103E800096026091960270919702809198029091AB
:103E900099020E94BF1810929502FFEF20E732E0CE
:103EA000F15020403040E1F700C000000E945E1257
:103EB00052CD81608093960261E086950E94881BB6
:103EC0004ACD4AEC5BE163ED7BE10E94670D43CD97
:103ED00043ED5BE16AEC7BE1F8CF4FE959E166E93C
:103EE00079E1F3CF4EE759E16AE879E1EECF46E6B2
:103EF00059E162E779E1E9CF42E759E166E679E124
:103F0000E4CF49EB59E168EA79E1DFCF61E081E094
:103F1000D5CF65E082E00E94DD1B1DCD68E086E024
:103F2000FACF64E18FE0F7CF67E185E1F4CF62E299
:103F300089E1F1CF61E083E2C1CF2BE5E2162DE507
:103F4000F20611F13CE5E3163DE5F30609F011C375
:103F50008091590282FB882780F991E089270E948D
:103F6000791107C30E94C9148FEF94E3ECE08150EC
:103F70009040E040E1F700C000000E941D120E9446
:103F80005418E9CC81E0EBCF80E0E9CFC7010E9473
:103F90007E0BD82EFDC22F2D2F70A22E8F2D807F4D
:103FA00019F0A29490EFA922DD20C9F0AA2069F0AF
:103FB00080E28E0D883010F081100BC080914E028F
:103FC000A82AA0924E020E94390B8E2D0E94ED0C61
:103FD00019C080914D02A82AA0924D02F4CF8E2DD7
:103FE0000E94BB0CAA2071F0A09480E28E0D883054
:103FF00010F081103DC080914E02A822A0924E0286
:104000000E94390B232D2850330B2430310510F436
:104010000E945B0DCC2009F400CC80914B0280FD06
:10402000FCCBF80112828595859585950E94900CB0
:10403000C8010E94EB1B80914B0285958595859563
:104040000F900F900F900F900F90DF91CF911F91D5
:104050000F91FF90EF90DF90CF90BF90AF909F9027
:104060008F907F906F905F904F903F900C94510C89
:1040700080914D02A822A0924D02C2CF3F2D3F70E9
:10408000932E8F2D807F803219F0929480EF9822AA
:10409000882071F081E0881681F1DD20D9F1AA2015
:1040A00091F1F801858180FF90CF8F7085832BC0BF
:1040B000DD20B1F090914F02892D892BA11003C012
:1040C0000E94E70B9FCFE1E0AE12FACF2091590298
:1040D00022FD98CF981709F495CF80934F0292CF85
:1040E000A11006C00E94330B892D0E94DC0B8ACFE1
:1040F000F1E0AF1609F486CFF5CFDD2031F025E0F1
:104100002A1508F47FCF892DDBCF34E03A1508F467
:1041100079CFEACFAA2041F3F9E38F1209C02FEF3C
:1041200037EE83E0215030408040E1F700C00000CE
:104130008E2D0E94BB0C66CF8F2D86958695837041
:1041400061F0813009F05ECFC7019370D11002C0D9
:1041500090E080E00E94F10B55CFC7019370D11021
:1041600002C090E080E00E94070C4CCF8F2D83703E
:1041700009F066C0D11046CF8E2D82958695877046
:10418000880F880F6E2D6F70462E512C712C612C6C
:10419000082E04C0440C551C661C771C0A94D2F7E8
:1041A00040E050E0BA01E4FE0FC04FE050E060E0B4
:1041B00070E004C0440F551F661F771F8A95D2F721
:1041C00040955095609570958F2D86958695837056
:1041D000823019F1D8F48090500290905102A09052
:1041E0005202B0905302813069F044295529662962
:1041F0007729CB01BA01682179218A219B210E946C
:10420000B10C00CF482859286A287B28CB01BA0175
:104210006429752986299729F2CF442955296629C9
:104220007729409050025090510260905202709055
:104230005302CB01BA016425752586259725DFCF6A
:104240008695DD2011F08F2D8170882309F4DACE58
:104250008E2D829586958770880F880F6E2D6F70D2
:10426000462E512C712C612C082E04C0440C551C78
:10427000661C771C0A94D2F740E050E0BA01E4FED5
:104280000FC04FE050E060E070E004C0440F551FE5
:10429000661F771F8A95D2F7409550956095709567
:1042A0008F2D869586958370823019F1D8F4809091
:1042B000CE029090CF02A090D002B090D102813077
:1042C00069F04429552966297729CB01BA0168216B
:1042D00079218A219B210E942B0C94CE48285928B1
:1042E0006A287B28CB01BA01642975298629972978
:1042F000F2CF44295529662977294090CE02509063
:10430000CF026090D0027090D102CB01BA01642537
:10431000752586259725DFCF9F2D9F70F92EDD20EF
:1043200029F0892F0E94900C8E2DCACE8E2D0E94CE
:10433000DC0B8F2D0E94510C65CE8E2DE2EF8E1678
:1043400009F457C0E81578F0F0EF8F1649F121EF26
:10435000821609F446C0DD2009F46FC0A11035CEE5
:104360008F2D8F7143C033EF831609F447C094EF4C
:104370008912F1CFDD2009F455C02F2D2F71F22EB7
:10438000822F0E94900C8091590282FD07C038E074
:10439000F39EC0011124836080934B028F2D26C0B1
:1043A000DD20D1F0E4E0EA1508F42CCE2F2D2F719A
:1043B00061E070E080E090E004C0660F771F881F26
:1043C000991F2A95D2F74090CE025090CF0260906C
:1043D000D0027090D1029BCFF5E0FA1508F412CE0E
:1043E000E5CF8F2D8F71DD2009F4A4CF0E94900CB2
:1043F00009CE8F2D8F71DD20C9F39CCF60E070E076
:10440000CB01DD2009F467CF2F2D2F7161E070E023
:1044100080E090E004C0660F771F881F991F2A95DF
:10442000D2F759CF81E00E94740C81E08A1508F020
:10443000E9CD82E00E94740CE5CDAA2059F08933C1
:1044400009F076CE9FEFE7EEF3E09150E040F040C8
:10445000E1F76CCE8F2D8F716DCFF0E1EF16FFE598
:10446000FF0609F47BCB21E1E2162FE5F20609F401
:104470007FCB93EFE9169CE5F90609F4E2CB08F04F
:1044800079CBF8EDEF16FCE5FF0609F4D6CB29ED64
:10449000E2162CE5F20609F4E0CB37EDE3163CE535
:1044A000F30609F078CB26E241EE61EEC8010E94E6
:1044B000241B51CA30E1E3163FE5F30609F454CB5F
:1044C00091E1E9169FE5F906A1F682E04ECB85E081
:1044D000DE01119601900D928A95E1F7F801228193
:1044E00089819A812111B0C90E947E0BF82EB4C92E
:1044F000F6E1EF16FCE5FF06E1F580910D0269E2B9
:10450000811165E380EB91E00E94D40AB0CC827205
:104510002CECE2162CE5F20609F4F3CC08F0A5C069
:1045200096ECE9169CE5F90609F4D7CC08F074C0BE
:10453000F3ECEF16FCE5FF0609F4C3CC08F05BC012
:1045400032ECE3163CE5F30609F494CC8AE5E81670
:104550008DE5F80609F416CD08F0EFCCE114ECE592
:10456000FE0609F4FFCCFEEDEF16FCE5FF0609F4AC
:1045700006CDF8018281E080F180882309F406CD20
:10458000C7010E94CF10D82E682FC7010E94A60B2A
:10459000B7018D2D0E94500F7C01882EF801D2802A
:1045A000A580A2943FE0A32280914B028770A1F0E6
:1045B000CD2CDD2091F08F2D807F803421F080E2A2
:1045C0008E0D883048F082E00E94740C80914B027E
:1045D0008770CC24C3948111C12C3F2C32942FE0DE
:1045E0003222FBE0F31508F40DCDE32DF0E0E254A8
:1045F000FF4C0C94DD2D94ECE9169CE5F90609F4CA
:1046000067CC46E959E16FE979E1E5ECEE16ECE5B6
:10461000FE0609F45ACC9ACFF9ECEF16FCE5FF063A
:1046200009F465CC88F437ECE3163CE5F30609F4AD
:1046300059CC4AE859E16EE779E198ECE9169CE536
:10464000F90609F442CC82CFEAECEE16ECE5FE0660
:1046500009F452CC48EA59E169EB79E1FBECEF1639
:10466000FCE5FF0609F431CC71CF21EDE2162CE513
:10467000F20609F456CCB8F48EECE8168CE5F80690
:1046800009F447CC08F442CCEFECEE16ECE5FE065C
:1046900009F444CC6EE089E0F0EDEF16FCE5FF068E
:1046A00009F439CC53CF24EDE2162CE5F20609F4D7
:1046B0003ECC78F482EDE8168CE5F80609F434CCAB
:1046C00061E088E193EDE9169CE5F90609F4F6CB83
:1046D0003DCFE5EDEE16ECE5FE0609F42BCC6AE2E3
:1046E00085E2FDE5EF16FF0609F415CC2FCF1F93E9
:1046F000CF93DF9380911302807FA9F48091100201
:10470000882389F080914502D091140260910E02B5
:1047100070910F02A0911102B0911202C62FC7230F
:1047200016E0D81304C0DF91CF911F91089590E057
:10473000109711F0CF3F19F401968770F2CF189FB0
:104740009001199F300D1124F901EB5EFD4F41815D
:104750004713F2CF40814613EFCF42814111ECCF96
:10476000438154814A1B5B0B483C510528F78091DB
:1047700013028F70806180931302F901E65EFD4F92
:1047800080818F70806180838EE092E00E94EB1BBD
:10479000DF91CF911F910C94D20BAF92BF92CF9229
:1047A000DF92EF92FF920F931F93CF93DF93CDB7DA
:1047B000DEB761970FB6F894DEBF0FBECDBF8C0198
:1047C00085E0F801DE011D9601900D928A95E1F7D2
:1047D000F80180819181E2802EE0A22E22E0B22EAB
:1047E00060911102709112026115710509F43EC1C8
:1047F00030910E0240910F02232F24232F3F09F402
:1048000035C1C380D480F0901002F601E61BF70B8F
:10481000FF2009F4FBC020911302522F507FE83C87
:10482000F10508F0BBC0511178C0FE2C491321C01E
:1048300038131FC0E1101DC02F7020612093130298
:10484000C5010E94EB1B80911302F80185838F2D17
:1048500061960FB6F894DEBF0FBECDBFDF91CF914A
:104860001F910F91FF90EF90DF90CF90BF90AF908E
:104870000895CD2829F0282F29232F3F09F014C1AE
:1048800020E0F22FF170DF2E20FF3DC02091450285
:104890004091140256E0241315C08D879E878D85A4
:1048A0009E850E941111292F22952F702230F8F039
:1048B000243020F59F70F9F0F8019581907FD9F4AC
:1048C000D12C1FC030E0529FF001539FF00D1124F6
:1048D000EB5EFD4F6181961306C06081861303C0B5
:1048E0006281E61210C02F5F3F4F2770D4CF9F70B8
:1048F00011F0882329F3805E883010F3C8010E94EC
:10490000EB1BFD2CA4CFEE2009F4A1CF8091130264
:10491000816080931302F12C9ACF491312C038138F
:1049200010C0E1100EC0F8012583C8010E94EB1BE6
:1049300086E0F801AEE0B2E001900D928A95E1F7D1
:1049400086CF8D879E878D859E850E941B1188232B
:1049500009F1EE20F9F080911302803270F020917D
:104960000E0230910F0238872F831986DB86CA86A4
:104970008C87CE0107960E94EB1B86E0F801AEE023
:10498000B2E001900D928A95E1F70E947723FF240F
:10499000F3945DCFC8010E94EB1BF9CF51110AC0FF
:1049A0008EE092E00E94EB1B86E0F50111928A9561
:1049B000E9F7B1CF49130FC038130DC0E1100BC098
:1049C000F8012583C8010E94EB1B86E0F5011192D6
:1049D0008A95E9F73CCF8D879E878D859E850E94BD
:1049E0001B118823B9F2EE20A9F2809113028032C4
:1049F00020F220910E0230910F023A8329831B820C
:104A0000DD82CC828E83CE010196B5CFE83CF105E4
:104A1000E0F6FE2CEE2009F4BDCF491316C0381382
:104A200014C08091130280FD83CF982F907F09F4EA
:104A30007FCFF8018583903F09F477CF982F907F3F
:104A4000905F8F70892B858370CF8D879E878D8532
:104A50009E850E941B11811190CF8091130281606D
:104A600080931302C8010E94EB1BF1CEEE2009F4E3
:104A700091CF8D879E878D859E850E941B11F82E74
:104A8000882309F487CF86E0F801AEE0B2E0019018
:104A90000D928A95E1F780910E0290910F020E948B
:104AA00011110E947723D3CE21E02E25EACE1F9349
:104AB000CF93DF93CDB7DEB767970FB6F894DEBF1D
:104AC0000FBECDBF342F4B8B252F5C8B6D8B7E8B18
:104AD0008F8B8E899F89611110924D021A8A198AD3
:104AE0003D872E876F87998B888B86E0FE013D96E8
:104AF000DE01179601900D928A95E1F7CE01079697
:104B00000E94CD23882389F016E080914502909180
:104B10001402891349C067960FB6F894DEBF0FBE22
:104B2000CDBFDF91CF911F91089586E0FE013796AA
:104B3000DE01119601900D928A95E1F78A859B8599
:104B4000892B11F38F81988589238F3FE9F220917A
:104B5000140230E0C90101968770992740914502FF
:104B60004817190671F40E94C91410921402109289
:104B7000450286E0EEE0F2E0DF011D928A95E9F75A
:104B8000C3CF96E0929FD001939FB00D1124AB5EEE
:104B9000BD4FFE01319601900D929A95E1F78093F9
:104BA00014020E94D20BB0CF819FC00111248B5EF2
:104BB0009D4F0E94CD23882309F4ADCF80914502FB
:104BC00090E0019687709927809345029ECFCF92FF
:104BD000DF92EF92FF920F931F93CF93F894579A1F
:104BE0005F98789400C0A0E8B1E030E020E0C0E039
:104BF00051E04D91E42FE295EF70F0E080A190E05C
:104C00004F7002C0959587954A95E2F780FD1CC0CC
:104C1000852F022E01C0880F0A94EAF7C82B2F5F58
:104C20003F4F2730310529F787E90E94110E20EA0E
:104C30002A95F1F780915A02C81308C0C091D20199
:104C4000CC23F1F0C0E00EC080E0E8CFC0935A0260
:104C500081E08093D2010E94181B9093D101809330
:104C6000D001C1E08091D0019091D1010E94B90A98
:104C7000069730F080915A0280939B021092D201E5
:104C800080910B0290910C020E94B90A893E9340D8
:104C900060F160910A02062F10E066277727601BFB
:104CA000710B072E000C880B990B0E94AB2F27EA83
:104CB00039E747E45DE30E9437306B017C01B801BE
:104CC000110F880B990B0E94AB2F9B01AC01C70100
:104CD000B6010E940E2F0E947A2F60930A020E9452
:104CE000181B90930C0280930B028C2FCF911F9175
:104CF0000F91FF90EF90DF90CF900895CDB7DEB782
:104D0000AE970FB6F894DEBF0FBECDBF84B7877FD6
:104D100084BF0FB6F894A895809160008861809355
:104D20006000109260000FBE80E890E00FB6F8942B
:104D300080936100909361000FBE85B7806885BF46
:104D400085B7806885BF83EB9AE09093AF0180932D
:104D5000AE010E9428090E94F3098091E20084605C
:104D60008093E20078948091C1028823A1F0109191
:104D7000E9001F709091EC00892F817090FD80E810
:104D8000182B1092E9008091E80083FD0E94DE1448
:104D90001F701093E90082E084BD93E095BD9AEF07
:104DA00097BD80936E0087E90E94110E00E811E024
:104DB000E7E8EE2EE1E0FE2ED8018D918D010E94F4
:104DC000110EE016F106C1F710925A0210929B02E2
:104DD00090E080E00E94702E8A3E9E4F11F00E946B
:104DE000541882E090E00E94622E809392020E940A
:104DF000100F90935902809358020E94E725EFE329
:104E0000FCE93197F1F700C000000E94E72580918E
:104E10009B0280FF17C06FEF83E290E00E94762E26
:104E20006FEF84E290E00E94762E6FEF85E290E0D3
:104E30000E94762E6FEF7FEF90E080E00E94942E2C
:104E40000E941D1283E090E00E94622E682F70E0A5
:104E500090E080E00E94B10C83E290E00E94622E1C
:104E6000833209F036C584E290E00E94622E8730DA
:104E700009F02FC585E290E00E94622E833109F08F
:104E800028C582E08093890280E8809368020E94AE
:104E9000B22C6DE070E08DE794E00E94B80E892B93
:104EA000E9F58091890263E070E081FDC1C18AE784
:104EB00094E00E94B80E892B89F56DE070E08AE6D7
:104EC00094E00E94B80E892B49F50E94C80A605AE6
:104ED00075418F4F9F4F60938B0270938C0280932C
:104EE0008D0290938E02E4EDF2E080E092E0DF012B
:104EF0009C011D9221503040E1F7F093D504E093DE
:104F0000D4048FEF9FEF9093D3028093D20281E07D
:104F10008093900280938F0210928A0280915B02AC
:104F2000811136C090E080E00E94702E8A3E9E4F34
:104F300021F00E9454180E94CA1988E090E00E9453
:104F40006A2E6093960270939702809398029093D2
:104F500099026E7F71F40E94CA1988E090E00E9465
:104F60006A2E6093960270939702809398029093B2
:104F700099020E946C0D109295028091960280FF1A
:104F800004C060E086950E94881B81E080935B02EC
:104F900022982A9A23982B9A83B182FB882780F93A
:104FA0001B9949C190E0892B8093670289E191E0C8
:104FB00090935D0280935C028091C102853009F478
:104FC0006EC10E94E725C82E81110E94C80A8091F7
:104FD0009B0290919302981709F470C1982720E0E2
:104FE00011E0312F392309F464C129A31AA28123C6
:104FF00091E009F490E09BA30E94181B8160782F38
:105000009DA38CA349A15AA16BA18DA10E945725F4
:105010008091930218271093930280919502882320
:10502000D1F180919402E0919602E695E81BE0931D
:105030006102823009F053C1F0E0E556FB4FE49184
:105040000E2F10E075EAE72E74E1F72E80916202D0
:10505000882361F0109262020E94181B90936002F4
:1050600080935F0210926402109263020E94181BE8
:10507000E0915F02F09160028E1B9F0B8F3F9F4774
:1050800050F4E00FF11FF0936002E0935F028FE5B0
:1050900092E0F7010995E0916702EE0FEE0FE093C1
:1050A000670283B182FB662460F81B9984C180E0AB
:1050B0008629E82BE0936702EF70F0E0E957FE4F96
:1050C000808190916602890F909165029F5F823086
:1050D00034F4D12C8F3F3CF4909165029150909321
:1050E0006502DD24D394082E000C990B62E070E079
:1050F0000E94C92D80936602D1100E94C80A809137
:105100009002882309F456C084ED92E09093D50470
:105110008093D4046091CE027091CF028091D0022E
:105120009091D1020E946B0E8D7F09F047C10E94C1
:10513000181B68E770E00E94B52D6170660F6CA7C0
:105140001BA68BA59CA581569B4F0E94E60820912B
:10515000D2023091D3022115310539F080918A02B3
:1051600061E070E0882309F439C180918F028823BF
:1051700009F10E94C80A00918B0210918C022091C3
:105180008D0230918E02601B710B820B930B6F3F6F
:105190007F4F8F4F9F4770F480919002882351F08A
:1051A00062E070E08FE990E10E94B80E892B11F463
:1051B00010928F02C11001C0D1100E94E80E0E940F
:1051C0005B0D90919102891721F00E945B0D8093F5
:1051D00091028091C102843009F0EECE83E0809389
:1051E000E9008091E80082FFE7CE8091E80090E03E
:1051F00085FF0CC00E94470930E2E32EF12C8E019E
:105200000F5F1F4F882309F4BBC191E08091E80034
:105210008B778093E800992309F4CECEE981E150A1
:10522000E33108F008C2F0E0E653FF4C0C94DD2DAA
:1052300087E794E03ECE92E0B6CE8091C102843002
:1052400021F110925E0288E190E0A0E40FB6F8949C
:10525000A895809360000FBEA093600083B7817F04
:10526000846083BF83B7816083BF7894889583B758
:105270008E7F83BF0FB6F894A895809160008861F7
:1052800080936000109260000FBE8091C00288235E
:1052900031F00E94E72580919B02811102C3809129
:1052A000C102853009F4C9CF0E94C9140E945B0D68
:1052B00088CE2F5F110F273009F093CE8FEF8EA38A
:1052C0008FA318A60E94181B8160782F9AA789A720
:1052D0004EA15FA168A58AA50E9457259ECE863063
:1052E00059F4F0E0E856FB4FE4910E2F10E069EB23
:1052F000E62E64E1F62EAACE893061F4E695F0E060
:10530000EB56FB4FE4910E2F10E053E9E52E52E1EE
:10531000F52E9CCE8F3061F4E695F0E0EE56FB4F13
:10532000E4910E2F10E04DEBE42E42E1F42E8ECEF0
:10533000853159F4F0E0E157FB4FE4910E2F10E076
:105340003BE2E32E33E1F32E81CE883169F18332E3
:1053500049F4EDE8F4E0059114912CE4E22E24E107
:10536000F22E74CE04EF11E0B2E0EB2EB4E1FB2E8E
:10537000843209F46BCE00ED17E0A2EBEA2EAAE02E
:10538000FA2E853209F062CE8E2F63E00E949B2DAB
:10539000E92FF0E0E657FB4FE4910E2F10E095EA7D
:1053A000E92E97E1F92E52CE08E210E089E7E82EC7
:1053B00083E1F82E4BCE82E090E07ACE0E94181B5B
:1053C00068E770E00E94B52D6370862F90E0982FFB
:1053D0008827990F8156974FB8CE8F5F082F10E01E
:1053E0007B01082E02C0EE0CFF1C0A94E2F7A90113
:1053F0004E215F21452B89F39091890290FD43C096
:105400008295880F807680931401980136952795B0
:105410003695279520931701815E80931501109290
:10542000180124E630E047E050E062E171E088E7EF
:105430000E94432D892B09F098CEA80175E0440FF6
:10544000551F7A95E1F78091890280FD2AC04C5260
:105450005D4F04E610E020E230E060E488E70E945F
:105460006A2D892B09F081CE0E94E80EE094F09419
:105470008091D2029091D302E822F922F092D302D5
:10548000E092D20272CE880F880F880F80931401A9
:1054900010921701895F8093150183E080931801B2
:1054A000C0CFE9E6F2E080E2DF011D928A95E9F7DC
:1054B000EBE9F1E0FEA7EDA707E911E09924939449
:1054C000ADA5BEA52D91BEA7ADA7F80141908F0156
:1054D000440E552E511CC2018C529D4F2C01E22FBF
:1054E000F0E0E759FD4F30E020E067E0A62EA21A79
:1054F000B92C022E01C0BB0C0A94EAF7120190E00D
:10550000D1018D911D018B216A2D691B6770862E3B
:10551000062E000C770BB82F01C0BB0F8A94EAF758
:105520008B2E7195619571096770772701C08695FB
:105530006A95EAF7882A8081882A80829F5F98305E
:10554000F9F62F5F3F4F31962830310571F6EFE9BC
:10555000F1E02DA53EA5E217F30709F0B1CF04E66F
:1055600010E020E230E049E652E077CF8091F10090
:10557000D8018D938D01B1E0EB1AF10809F445CE05
:105580008091E80085FDF2CF8091E8008B778093D1
:10559000E8000E944709882399F337CE1A8289E0F0
:1055A0008B8311C08A81823009F4ACC1833091F1C0
:1055B000813009F040C00E94C80A0E94E32D6B832D
:1055C0007C838D839E838091C102843009F0F4CC6A
:1055D0001091E9001F709091EC00892F817090FD6F
:1055E00080E8182B82E08093E9008091E80080FF3A
:1055F0000DC050E040E060E270E0CE0101960E94F4
:1056000078098091E8008E778093E8001F701093EE
:10561000E900D2CC80919B02C3CF8A81823059F4B9
:105620006B817C818D819E810E94E32D86E290E0DA
:105630000E94762EC8CF8FEF8983C5CF4C816B81B6
:105640008A810E941E0F9827892798279E838D8321
:10565000BACF0D811E811027012710279A818EE075
:10566000EB80E89E70011124989FE00CF11C11243E
:105670008C8190E0880F991FE80EF91E612FC701F9
:1056800087960E94762E602FC7018896D1CF0E9400
:105690003F1199CF8A818138C1F060F4803809F0D8
:1056A00092CF20E04B8160919802809197020E94F6
:1056B000D11889CF823859F1833809F084CF20E09E
:1056C000409199026C818B81F2CF60E08B810E94C6
:1056D000881B9B8180919602911111C08E7F8093CF
:1056E000960210929502EFEFF0E722E0E150F040D1
:1056F0002040E1F700C000000E945E1264CF81608C
:105700008093960260E086950E94881B5CCF8B8117
:1057100080939A0258CF8A81813899F030F480388A
:1057200009F051CF809199023BCF823891F08338B4
:1057300009F049CF809197028B83809198028C83E6
:1057400042CF8091960280FF02C0869529CF80E0EB
:1057500027CF80919A0224CF609196027091970290
:1057600080919802909199020E94BF182CCF30E14D
:105770003A8329CF83E08A8381EA12CFEA80FB80D3
:10578000FE24EF24FE248E010F5F1F4FCC80C00E3D
:10579000D12ED11CC701815A9F4F0C151D0509F44C
:1057A00012CFA1EAEA16A3E0FA0650F40E94622E94
:1057B000F8018483BFEFEB1AFB0A0F5F1F4FEACF9C
:1057C000D80114961C92F6CF0A811B81102701275D
:1057D0001027FE0131966F01EC80E00EF12EF11CD6
:1057E000C801815A9F4F0E151F0509F4ECCE013AEE
:1057F000F3E01F0728F4D60114966C910E94762ED0
:10580000BFEFCB1ADB0A0F5F1F4FEACF0E94931145
:10581000DACE84E08A83D7CEEA80FB80FE24EF24B0
:10582000FE248E010F5F1F4FCC80C00ED12ED11CE5
:10583000C70187960C151D0509F4C5CEE8E3EE16E1
:10584000F10458F40E94622ED80114968C93FFEF55
:10585000EF1AFF0A0F5F1F4FEBCFF8011482F7CF4B
:105860000A811B811027012710279E012F5F3F4FC0
:105870006901EC80E00EF12EF11CC8018796E0165C
:10588000F10609F4A0CE0833110528F4D6011496C8
:105890006C910E94762EBFEFCB1ADB0A0F5F1F4F71
:1058A000ECCFE0E1E9BDF2E1F9BD09B400FEFDCFC6
:1058B0008091D8008F7D8093D8008091E000826035
:1058C0008093E0008091E00081FDFCCF0E94C9142C
:1058D000E6CC60E086E290E00E94762E0E943F11C6
:1058E0000E94931163E283E290E00E94762E67E0CB
:1058F00084E290E00E94762E63E185E290E00E94CF
:10590000762EBFCA86E290E00E94622E1B821C8225
:105910001D828E8358CE1F921FB61F9211248F9323
:105920009F93AF93BF9380915E02811113C08091CA
:10593000540290915502A0915602B091570241969F
:10594000A11DB11D8093540290935502A09356025D
:10595000B0935702BF91AF919F918F911F901FBE3F
:105960001F9018951092B9008CE08093B8000895AC
:10597000EF92FF920F931F93CF93DF93182FEB01BA
:105980001092BC0084EA8093BC000E94181B7C012A
:105990008091BC0087FF27C08091B900887F883044
:1059A00029F08091B900887F8031D9F51093BB0030
:1059B00084E88093BC000E94181B8C018091BC007D
:1059C00087FF24C02091B900287F90E080E0283133
:1059D000B1F081E090E0203411F490E080E0919506
:1059E000819591090CC0CF3FDC0791F20E94181BF2
:1059F0008E199F098C179D0758F28EEF9FEFDF914C
:105A0000CF911F910F91FF90EF900895CF3FDC074A
:105A1000A9F20E94181B801B910B8C179D0770F236
:105A2000ECCF8FEF9FEFEBCF0F931F93CF93DF93CD
:105A3000EB018093BB0084E88093BC000E94181B9C
:105A40008C018091BC0087FF11C02091B900287F94
:105A500081E090E0283211F490E080E0919581950A
:105A60009109DF91CF911F910F910895CF3FDC07EE
:105A700041F30E94181B801B910B8C179D0708F3A4
:105A80008EEF9FEFEECFCF92DF92EF92FF920F93C8
:105A90001F93CF93DF936B018A017901B9010E94B3
:105AA000B82CE6010C0D1D1DC017D10761F424E9C7
:105AB0002093BC00DF91CF911F910F91FF90EF9049
:105AC000DF90CF90089597FDF2CFB70189910E94A2
:105AD000142DEACFCF92DF92EF92FF920F931F9394
