:100000000C94FD0D0C94440E0C94440E0C94440E70
:100010000C94440E0C94440E0C94440E0C94440E18
:100020000C94440E0C94440E0C9429200C94E51F5F
:100030000C9416330C94440E0C94440E0C94440E01
:100040000C94440E0C94440E0C94440E0C94440EE8
:100050000C94440E0C9400210C94440E0C94440E09
:100060000C94440E0C94440E0C94440E0C94440EC8
:100070000C94440E0C94440E0C94440E0C94440EB8
:100080000C94440E0C94440E0C94440E0C94440EA8
:100090000C94440E0C94440E0C94440E0C94440E98
:1000A0000C94440E0C94440E0C94440E05010980EB
:1000B000A101850319012AB700150126B700950192
:1000C00075108100C0050C0901A101850419012AE0
:1000D000A002150126A002950175108100C005013E
:1000E0000906A1018505050719E029E71500250185
:1000F0009508750181020507190029EF15002501F2
:1001000095F075018102050819012905950575010C
:100110009102950175039101C00660FF0961A1017B
:100120000962150026FF00952075088102096315F4
:100130000026FF00952075089102C005010906A15F
:1001400001050719E029E7150025019508750181CA
:10015000029501750881010507190029FF15002680
:10016000FF00950675088100050819012905950508
:1001700075019102950175039101C0000000000016
:10018000000000000000000000000000000000006F
:10019000000000000000000000000000000000005F
:1001A000000000000000000000000000000000004F
:1001B00000000000000000000000000000808080BF
:1001C0004040202010080402040810102020404065
:1001D000808000000000000000000000000000001F
:1001E000000000000000000000000000000000000F
:1001F00000000000000000000000000000000000FF
:1002000000000000000000000000000000000000EE
:1002100000000000000000000000000000000000DE
:1002200000000000000000000000000000003FC1CE
:1002300001010202040404040202010101000000A1
:10024000000000800000408080400000303000004E
:100250000000010264180412C2CA2488F0808040A1
:1002600040404020202020101010100808080804EA
:100270000404040202020201010101000000000066
:10028000000000000000000000000000000000006E
:10029000000000000000000000000000000000005E
:1002A00000000000000000000000000000E0180650
:1002B0000100000000000000000000008083834077
:1002C0004040402021212010101010080808080488
:1002D0000404040202020201010101000000000006
:1002E000000000000000000000000000000000000E
:1002F00000000000000000000000000000000000FE
:1003000000000000000000000000000000000000ED
:10031000000000000000000000000080808080409D
:100320004040402020202010101010080F08080422
:100330000404040204081010202040404142249884
:10034000C088888C9C1C1E0E060000000000000067
:10035000000000000000000000000000000000009D
:10036000000000000000000000000000000000008D
:10037000000000000000000000000000000000007D
:10038000000000000000000000000000000000006D
:10039000000000000000000000000000000000005D
:1003A000000000000000000000000000000000004D
:1003B000000000000000000000000000000000003D
:1003C000000000000000000000000000000000002D
:1003D000000000000000000000000000000000001D
:1003E000000000000000000000000000000000000D
:1003F00000000000000000000000000000000000FD
:1004000000000000000000000000000000000000EC
:1004100000000000000000000000000000000000DC
:1004200000000000000000000000000000000000CC
:10043000000000000000000000808080404020207C
:1004400010080402040810102020404080800000A2
:10045000000000000000000000000000000000009C
:10046000000000000000000000000000000000008C
:10047000000000000000000000000000000000007C
:10048000000000000000000000000000000000006C
:10049000000000000000000000000000000000005C
:1004A000000000000000000000003FC10101020246
:1004B00004844444428201010100000000000080E5
:1004C0000000408080400000303000000000010249
:1004D0000404080810204080808080404040402074
:1004E000202020101010100808080804040404023A
:1004F00002020201010101000000000000000000F2
:1005000000000000000000000000000000000000EB
:1005100000000000000000000000000000000000DB
:10052000000000000000000000E018060100000CC0
:1005300003000218190005FE8083834040404020DC
:1005400021212010101010080808080404040404D5
:1005500008304080800000018698600000000000A4
:10056000000000000000000000000000000000008B
:10057000000000000000000000000000000000007B
:10058000000000000000000000000000000000006B
:10059000000000000000008080808040404040203B
:1005A00020202010101010080F0808040404040272
:1005B0000202020101010100000000000000000031
:1005C00000000000000000000000060F0F070303FA
:1005D00061F0F8FC600101013C78F8F07000000067
:1005E000000000000000000000000000000000000B
:1005F00000000000000000000000000000000000FB
:1006000000000000000000000000000000000000EA
:1006100000000000000000000000000000000000DA
:1006200000000000000000000000000000000000CA
:1006300000000000000000000000000000000000BA
:1006400000000000000000000000000000000000AA
:10065000000000000000000000000000000000009A
:10066000000000000000000000000000000000008A
:10067000000000000000000000000000000000007A
:10068000000000000000000000000000000000006A
:10069000000000000000000000000000000000005A
:1006A000000000000000000000000000000000004A
:1006B00000008080404040202020202018040201BB
:1006C000020408102020404080800000000000004C
:1006D000000000000000000000000000000000001A
:1006E000000000000000000000000000000000000A
:1006F00000000000000000000000000000000000FA
:1007000000000000000000000000000000000000E9
:1007100000000000000000000000000000000000D9
:100720000000000000003FC10101020204040404B3
:100730000202010000000000000000800000408074
:10074000804000003030000000000102040408086E
:100750001020408080808040404040202020201099
:100760001010100808080804040404020202020120
:100770000101010000000000000000000000000076
:100780000000000000000000000000000000000069
:100790000000000000000000000000000000000059
:1007A0000000000000E0180601000000000000004A
:1007B0000000000080838340404040202121201021
:1007C00010101008080808040404040408304080CD
:1007D000800000018698600000000000000000001A
:1007E0000000000000000000000000000000000009
:1007F00000000000000000000000000000000000F9
:1008000000000000000000000000000000000000E8
:100810000000008080808040404040202020201048
:10082000101010080F080804040404020408101033
:100830002020404041422418000000000000000039
:1008400000000000000000000000000000000000A8
:100850000001010100000000000000000000000095
:100860000000000000000000000000000000000088
:100870000000000000000000000000000000000078
:100880000000000000000000000000000000000068
:100890000000000000000000000000000000000058
:1008A0000000000000000000000000000000000048
:1008B0000000000000000000000000000000000038
:1008C0000000000000000000000000000000000028
:1008D0000000000000000000000000000000000018
:1008E0000000000000000000000000000000000008
:1008F00000000000000000000000000000000000F8
:1009000000000000000000000000000000000000E7
:1009100000000000000000000000000000000000D7
:1009200000000000000000000000000000000000C7
:10093000008080404040201008040201020408109A
:100940002040808000000000000000000000000047
:100950000000000000000000000000000000000097
:100960000000000000000000000000000000000087
:100970000000000000000000000000000000000077
:100980000000000000000000000000000000000067
:100990000000000000000000000000000000000057
:1009A00000003FC10101020204040404020201012B
:1009B0000100000000000000000080000080000036
:1009C000606000000102040408081010202040802C
:1009D00080808040404040202020201010101008CF
:1009E00008080804040404020202020101010100D3
:1009F00000000000000000000000000000000000F7
:100A000000000000000000000000000000000000E6
:100A100000000000000000000000000000000000D6
:100A200000C0300C030000000000000000000000C7
:100A3000808686404040402122222011111010085B
:100A40000808080404040404083040808000000101
:100A50008698600000000000000000000000000018
:100A60000000000000000000000000000000000086
:100A70000000000000000000000000000000000076
:100A800000000000000000000000000000000080E6
:100A9000808080404040402020202010101010080E
:100AA0000F08080404040402040810102020404029
:100AB0004142241800000000000000000000000077
:100AC0000000000000000000000000000001010123
:100AD0000000000000000000000000000000000016
:100AE0000000000000000000000000000000000006
:100AF00000000000000000000000000000000000F6
:100B000000000000000000000000000000000000E5
:100B100000000000000000000000000000000000D5
:100B200000000000000000000000000000000000C5
:100B300000000000000000000000000000000000B5
:100B400000000000000000000000000000000000A5
:100B50000000000000000000000000000000000095
:100B60000000000000000000000000000000000085
:100B70000000000000000000000000000000000075
:100B80000000000000000000000000000000000065
:100B90000000000000000000000000000000000055
:100BA00000000000000000000000000000808080C5
:100BB000804040201008040204081020408080007B
:100BC0000000000000000000000000000000000025
:100BD0000000000000000000000000000000000015
:100BE0000000000000000000000000000000000005
:100BF00000000000000000000000000000000000F5
:100C000000000000000000000000000000000000E4
:100C100000000000000000000000000000007E82D4
:100C2000020204040808080804040201010000008C
:100C300000000000000080000080000060600001F3
:100C400001020404080810102020408080808040A9
:100C500040404020202020101010100808080804F0
:100C6000040404020202020101010100000000006C
:100C70000000000000000000000000000000000074
:100C80000000000000000000000000000000000064
:100C900000000000000000000000000000C0300C58
:100CA0000300000000000000000000008086864075
:100CB0004040402122222011111010080808080489
:100CC000040404040830408080000001869860001D
:100CD0000000000000000000000000000000000014
:100CE0000000000000000000000000000000000004
:100CF00000000000000000000000000000000000F4
:100D000000000000000000000000008080808040A3
:100D10004040402020202010101010080F08080428
:100D2000040404020408101020204040414224180A
:100D300000000000000000000000000000000000B3
:100D400000000000000000000001010100000000A0
:100D50000000000000000000000000000000000093
:100D60000000000000000000000000000000000083
:100D70000000000000000000000000000000000073
:100D80000000000000000000000000000000000063
:100D90000000000000000000000000000000000053
:100DA0000000000000000000000000000000000043
:100DB0000000000000000000000000000000000033
:100DC0000000000000000000000000000000000023
:100DD0000000000000000000000000000000000013
:100DE0000000000000000000000000000000000003
:100DF00000000000000000000000000000000000F3
:100E000000000000000000000000000000000000E2
:100E100000000000000000000000000000000000D2
:100E20000000000000000000008080808040402022
:100E30001008040204081020408080000000000018
:100E400000000000000000000000000000000000A2
:100E50000000000000000000000000000000000092
:100E60000000000000000000000000000000000082
:100E70000000000000000000000000000000000072
:100E80000000000000000000000000000000000062
:100E90000000000000000000001C34C4040404082A
:100EA0000808080804040201010000000000008096
:100EB0000000408080400000303000010102020448
:100EC000040408081020408080808040404040207A
:100ED0002020201010101008080808040404040240
:100EE00002020201010101000000000000000000F8
:100EF00000000000000000000000000000000000F2
:100F000000000000000000000000000000000000E1
:100F1000000000000000000000E0180601000000D2
:100F2000000000000000000080838340404040201B
:100F300021212010101010080808080404040404DB
:100F400008304080800000018698600000000000AA
:100F50000000000000000000000000000000000091
:100F60000000000000000000000000000000000081
:100F70000000000000000000000000000000000071
:100F80000000000000000080808080404040402041
:100F900020202010101010080F0808040404040278
:100FA0000408101020204040414224180000000096
:100FB0000000000000000000000000000000000031
:100FC000000000000001010100000000000000001E
:100FD0000000000000000000000000000000000011
:100FE0000000000000000000000000000000000001
:100FF00000000000000000000000000000000000F1
:1010000000000000000000000000000000000000E0
:1010100000000000000000000000000000000000D0
:1010200000000000000000000000000000000000C0
:1010300000000000000000000000000000000000B0
:1010400000000000000000000000000000000000A0
:101050000000000000000000000000000000000090
:101060000000000000000000000000000000000080
:101070000000000000000000000000000000000070
:101080000000000000000000000000000000000060
:101090000000000000000000000000000000000050
:1010A00000008080404040202020202018040201C1
:1010B0000204081020204040808000000000000052
:1010C0000000000000000000000000000000000020
:1010D0000000000000000000000000000000000010
:1010E0000000000000000000000000000000000000
:1010F00000000000000000000000000000000000F0
:1011000000000000000000000000000000000000DF
:1011100000000000060D31C10101010202020404B9
:10112000020201000000000000000080000040807A
:101130008040000030300000000001020404080874
:10114000102040808080804040404020202020109F
:101150001010100808080804040404020202020126
:10116000010101000000000000000000000000007C
:10117000000000000000000000000000000000006F
:10118000000000000000000000000000000000005F
:101190000000000000E01806010000000000000050
:1011A0000000000080838340404040202121201027
:1011B00010101008080808040404040408304080D3
:1011C0008000000186986000000000000000000020
:1011D000000000000000000000000000000000000F
:1011E00000000000000000000000000000000000FF
:1011F00000000000000000000000000000000000EF
:10120000000000808080804040404020202020104E
:10121000101010080F080804040404020408101039
:10122000202040404142241800000000000000003F
:1012300000000000000000000000000000000000AE
:10124000000101010000000000000000000000009B
:10125000000000000000000000000000000000008E
:10126000000000000000000000000000000000007E
:10127000000000000000000000000000000000006E
:10128000000000000000000000000000000000005E
:10129000000000000000000000000000000000004E
:1012A000000000000000000000000000000000003E
:1012B000000000000000000000000000000000002E
:1012C000000000000000000000000000000000001E
:1012D000000000000000000000000000000000000E
:1012E00001010101010101010102020202020202E7
:1012F00002020303030303030303040404040404BA
:10130000040505050505060606060607070707077F
:1013100008080808090909090A0A0A0B0B0B0C0C32
:101320000C0D0D0D0E0E0E0F0F0F101011111112CE
:101330001213131414151516161717181819191A4D
:101340001A1B1B1C1D1D1E1E1F20202122222324B0
:1013500024252626272829292A2B2C2D2D2E2F30EF
:10136000313232333435363738393A3B3C3D3E3F03
:10137000404142434445464748494A4C4D4E4F50F0
:10138000515354555658595A5B5D5E5F61626465AE
:101390006668696B6C6D6F7072737577787A7B7D38
:1013A0007E8082838587888A8C8E8F91939596988C
:1013B0009A9C9EA0A2A3A5A7A9ABADAFB1B3B5B7A8
:1013C000BABCBEC0C2C4C6C9CBCDCFD1D4D6D8DB7F
:1013D000DDDFE2E4E7E9EBEEF0F3F5F8FAFDFFFF1D
:1013E000AA7F55402223252628292A2C2D2F30324A
:1013F000333536383A3B3D3E4042434547494A4CF7
:101400004E5051535557595A5C5E60626466686924
:101410006B6D6F71737577797B7D7F81838587892C
:101420008A8C8E90929496989A9C9E9FA1A3A5A731
:10143000A8AAACAEAFB1B3B4B6B8B9BBBCBEBFC15D
:10144000C2C3C5C6C7C9CACBCCCDCED0D1D2D2D3E8
:10145000D4D5D6D7D7D8D9D9DADADBDBDBDCDCDCFC
:10146000DCDCDDDDDDDDDCDCDCDCDCDBDBDBDADABF
:10147000D9D9D8D7D7D6D5D4D3D2D2D1D0CECDCC36
:10148000CBCAC9C7C6C5C3C2C1BFBEBCBBB9B8B64B
:10149000B4B3B1AFAEACAAA8A7A5A3A19F9E9C9AD6
:1014A00098969492908E8C8A89878583817F7D7BA4
:1014B00079777573716F6D6B6968666462605E5C85
:1014C0005A5957555351504E4C4A4947454342404B
:1014D0003E3D3B3A3836353332302F2D2C2A2928E1
:1014E0002625232204000500060007000800090045
:1014F0000A000100010001000100010001000100DB
:1015000001000100010001000100010001000100D3
:1015100001000100010001000100010000AF000016
:1015200000000000000000000000000000000000BB
:1015300000000000000000000000000000000000AB
:1015400000007E0F00D4FFFFFFC7000000780000FE
:101550000000000000002A2B28000000000000000E
:1015600000000000000000000029000000002C1E08
:101570003420212224342627252E362D3738271EC5
:101580001F202122232425263333362E37381F04EB
:1015900005060708090A0B0C0D0E0F101112131483
:1015A00015161718191A1B1C1D2F3130232D350441
:1015B00005060708090A0B0C0D0E0F101112131463
:1015C00015161718191A1B1C1D2F3130354C00DA4F
:1015D0000281FFD9F1DB20A4A62EAF00A0C000A19C
:1015E000C800AED580A81FD300408D1420001E0F68
:1015F0000500047F3F1F643214643214783C1E1EC1
:10160000140A05556E646566696E6564002D332D98
:10161000002D322D002D312D004D61696E0000AE80
:1016200009025B00030100A0FA09040000010301A4
:101630000100092111010001224000070581030872
:10164000000A090401000203000000092111010041
:101650000122220007058203200001070503032061
:10166000000109040200010300000009211101002A
:1016700001226D000705840320000A1201100100F9
:101680000000084B4114000100010200010A034D53
:101690000061006300370000001A034D0041004E56
:1016A00000550046004100430054005500520045DB
:1016B00000520000000403090407087F0807003EE9
:1016C0005B4F5B3E003E6B4F6B3E001C3E7C3E1C06
:1016D00000183C7E3C18001C577D571C001C5E7F88
:1016E0005E1C0000183C180000FFE7C3E7FF000085
:1016F0001824180000FFE7DBE7FF0030483A060E29
:1017000000262979292600407F05050700407F052E
:10171000253F005A3CE73C5A007F3E1C1C0800084D
:101720001C1C3E7F0014227F2214005F5F005F5F5D
:101730000006097F017F00006689956A006060608D
:1017400060600094A2FFA2940008047E04080010C8
:10175000207E20100008082A1C0800081C2A0808FF
:10176000001E10101010000C1E0C1E0C0030383E15
:10177000383000060E3E0E0600000000000000009B
:10178000005F000000000700070000147F147F14B2
:1017900000242A7F2A120023130864620036495667
:1017A000205000000807030000001C224100000038
:1017B00041221C00002A1C7F1C2A0008083E080841
:1017C0000000807030000008080808080000006071
:1017D0006000002010080402003E5149453E000010
:1017E000427F4000007249494946002141494D333A
:1017F000001814127F10002745454539003C4A491E
:10180000493100412111090700364949493600464E
:101810004949291E00000014000000004034000067
:101820000000081422410014141414140000412272
:101830001408000201590906003E415D594E007C22
:101840001211127C007F49494936003E4141412234
:10185000007F4141413E007F49494941007F0909DC
:101860000901003E41415173007F0808087F0000D4
:10187000417F4100002040413F01007F0814224188
:10188000007F40404040007F021C027F007F040830
:10189000107F003E4141413E007F09090906003E9C
:1018A0004151215E007F09192946002649494932E4
:1018B0000003017F0103003F4040403F001F2040E4
:1018C000201F003F4038403F0063140814630003AA
:1018D00004780403006159494D4300007F414141B0
:1018E00000020408102000004141417F0004020171
:1018F0000204004040404040000003070800002070
:1019000054547840007F28444438003844444428E4
:1019100000384444287F0038545454180000087E8E
:1019200009020018A4A49C78007F08040478000031
:10193000447D4000002040403D00007F10284400CE
:101940000000417F4000007C04780478007C08049B
:10195000047800384444443800FC18242418001843
:10196000242418FC007C080404080048545454241F
:101970000004043F4424003C4040207C001C2040E4
:10198000201C003C4030403C004428102844004CBF
:101990009090907C004464544C4400000836410010
:1019A000000000770000000041360800000201023C
:1019B0000402003C2623263C0000000000000040FA
:1019C0004040F0F8F8FF38FFF8F83FF8F8FF38FF2C
:1019D000F8F8F040404000000000000080C0C0C0A7
:1019E000800000C0C08000000080C0C000C0C000F7
:1019F0000080C0C00000000000C0C0C0C0C000C067
:101A0000C000000000000000000000000000000016
:101A100000000000000000000000000000000000C6
:101A200000000000000000000000000000000000B6
:101A30000000000000000000C0F0F8FC3E1E06019F
:101A40000000007F4141417F007F4141417F000014
:101A500080C0E07E5B4F5BFEC00000C000DCD7DED4
:101A6000DEDED7DC00C00000000000000000000047
:101A7000000000000000000000000000000000491D
:101A80004949FFFFFFFFE0DFBFBF00BFBFDFE0FF4F
:101A9000FFFFFF49494900000000001F3F6060E070
:101AA000BF1F007F7F071E381E077F7F007F7F0ECE
:101AB0001F3B716000000000007F7F0C0C0C007E5B
:101AC0007E007F7E0303007F7E03037E7E03037F11
:101AD0007E000F3E703C063C703E0F00327B494951
:101AE0003F7E007F7E0303001E3F69696F26000072
:101AF0000000000000000000030F1F3F3C787060F2
:101B00000000007F4141417F007F4141417F003023
:101B10007B7F7830202030787F3B0003000F7F0FE1
:101B20000F0F7F0F00030000000000000000000006
:101B300000000000000000000000000000000001A4
:101B40000101070F0F7F0F7F0F0F7E0F0F7F0F7F9A
:101B50000F0F07010101000000000000000000005D
:101B60000101000000000000000000000000000073
:101B70000000000000000000000000000000000065
:101B80000000000000000000000000000000000055
:101B90000000000000000000000000000000000045
:101BA0000000000000000000000000000000000035
:101BB0000000000000000000000000000000000025
:101BC0000000000000000000000000000000000015
:101BD0000000000000000000000000000000000005
:101BE00000000000000000000000000000000000F5
:101BF0000000000000000000000011241FBECFEF15
:101C0000DAE0DEBFCDBF04B603FE27C08091E30457
:101C10009091E404A091E504B091E6048730904BE4
:101C2000A740B04BD1F41092E3041092E404109258
:101C3000E5041092E60414BE84B7877F84BF0FB614
:101C4000F894A8958091600088618093600010925C
:101C500060000FBEE0E0F8E3099524E0AEEAB1E0F1
:101C600001C01D92A33EB207E1F711E0A0E0B1E090
:101C7000ECEFFEE602C005900D92AE3AB107D9F73F
:101C80000E94912C0C9445370C940000CF93DF9365
:101C90004091E1045091E204415E52409A0124587F
:101CA0003D4F21303240C0F020E032E0241B350BA4
:101CB0006091DF027091E002FC01CA01240F351F20
:101CC000C1E0D0E08217930750F07093E002609378
:101CD000DF02DF91CF9108952CE732E0E9CF449104
:101CE000DC01AF51BD4F5C91451781F04C93AC01C5
:101CF000A5E056954795AA95E1F7DE0102C0AA0F27
:101D0000BB1F4A95E2F7AD016A2B752B0196319600
:101D1000D9CFE8EDF0E080818E7F80831092E200E1
:101D20001092DA001092E100A0EEB0E08C91816098
:101D30008C9380818F77808319BCA7EDB0E08C9164
:101D40008E7F8C9380818F7E80831092A202089573
:101D50002091E4003091E50095E6A9012091EC0086
:101D6000822F817020FF06C08091E80080FF06C0AE
:101D700080E008952091E80022FD1AC08091C702FA
:101D8000882389F0853089F08091EB0085FD0FC0B4
:101D90002091E4003091E50042175307F9F2915089
:101DA000E1F684E0089582E0089583E0089581E0FB
:101DB0000895EF92FF920F931F93CF937C018B01B5
:101DC0000E94A80EC82F811117C08091E80085FDE0
:101DD0000BC08091E8008E778093E8000E94A80EE7
:101DE000882399F3C82F08C0F70181917F01809360
:101DF000F1000150110949F78C2FCF911F910F91DC
:101E0000FF90EF9008958091C90287FF13C08091E1
:101E1000E80082FF06C08091E8008B778093E8009D
:101E200004C08091C7028111F2CF08958091C7024A
:101E30008823D9F38091E80080FFF8CF8091E800F3
:101E40008E77ECCF982F9093E900242F762F50E0D7
:101E5000891731F07091EC002091ED005091F00065
:101E600021FD07C09F5F973071F78093E90081E003
:101E700008953091EB003E7F3093EB003091ED0000
:101E80003D7F3093ED003091EB0031603093EB00FB
:101E90007093EC002093ED005093F0002091EE0041
:101EA00027FDE0CF80E00895CF92DF92EF92FF927E
:101EB0000F931F93CF93DF93C8EDD0E088818F7E7F
:101EC0008883E7EDF0E080818160808384E082BFD9
:101ED00081E08093A20288818E7F888302EE10E0E9
:101EE000F80110821092DA0081EEC82ED12CF60192
:101EF000108288818F778883888180688883888131
:101F00008F7D888319BC1092C7021092C80210926C
:101F1000C6021092C50290EEE92EF12CF7018081E5
:101F20008B7F808388818160888342E060E080E0ED
:101F30000E94220FF60180818E7F8083F8018081CC
:101F400081608083808188608083F70180818E7FBB
:101F50008083888180618883DF91CF911F910F9169
:101F6000FF90EF90DF90CF900895FC018091CF0219
:101F70009091D00286179707A0F06115710529F49A
:101F80009091E8009E779093E80090E061157105CC
:101F900051F4911108C08091E80082FF34C080E0C4
:101FA0000895BC01F2CF8091C7028823C1F185302A
:101FB000C1F18091E80083FD30C08091E80082FD8E
:101FC000EACF8091E80080FFE1CF8091F30020917B
:101FD000F200382F6115710519F02830310558F0DD
:101FE00091E02830310509F090E02091E8002E774B
:101FF0002093E800CBCF81918093F100615071096B
:102000002F5F3F4FE7CF8091C702882341F0853093
:1020100041F08091E80083FFBECF81E0089582E027
:10202000089583E00895089580E0089508958091CB
:10203000A40208959C014FB7F89480916702909193
:102040006802A0916902B0916A024FBF821B930B94
:1020500008952FB7F894609167027091680280919B
:10206000690290916A022FBF0895209123012223D3
:10207000C9F02091560227FF15C0E62FE695E69598
:10208000E695EE31D8F4E80FF92FF11D677021E0E5
:1020900030E001C0220F6A95EAF72095828128235B
:1020A00022830895FC01329608962191621303C0A1
:1020B000DF0111971C92E817F907B9F708952091ED
:1020C00023012223C1F02091560227FF14C0E62FDE
:1020D000E695E695E695EE31F8F4E80FF92FF11D57
:1020E000677021E030E001C0220F6A95EAF7828133
:1020F000822B82830895FC0132962FEF30E04191CC
:10210000641751F02F3F19F4411101C0232F3F5F95
:102110003630A9F72F3F09F40895820F911D27FD4E
:102120009A95FC0162830895809151028111109269
:10213000510208958091500290914F02892B909105
:102140004E02892B8093B001909151029923A1F006
:10215000892B8093B00180912301882341F18091E4
:10216000560287FF24C08EE1E2EBF1E090E081505F
:1021700000F591110E949410E0915A02F0915B02D7
:102180003097E1F080912301882359F08091560225
:1021900087FF07C08091B0018093B10185E08093F3
:1021A000B0010280F381E02D80EB91E0099486E09C
:1021B000DBCF21912223D9F29F5FD9CF089527E069
:1021C000929F800D1124982F9770869586958695FD
:1021D00025E0829FF0011124E85BFD4F50E040E0D4
:1021E00080E0219130E0092E02C0369527950A94AF
:1021F000E2F721703327042E01C0220F0A94EAF778
:10220000822B4F5F5F4F4530510559F7089527E006
:10221000929F800D1124982F977041E001C0440FC8
:102220009A95EAF786958695869595E0899FF001BF
:102230001124E85BFD4F90E080E070E05191DF01F8
:1022400011979B01082E02C0369527950A94E2F754
:10225000217021952527242325272C93019685304D
:10226000910561F7089580914702909116029813A5
:1022700001C008958F5F8770FACF882341F0809561
:10228000909150028923809350020C949A100895E3
:10229000882339F090915002982B909350020C941F
:1022A0009A10089520910A0230910B0228173907DD
:1022B00071F090930B0280930A02E0915A02F09120
:1022C0005B02309721F00084F185E02D0994089598
:1022D00020910802309109022817390771F0909374
:1022E000090280930802E0915A02F0915B02309754
:1022F00021F00680F781E02D0994089590E080E0B8
:102300000E94681190E080E00E94521110924F02EA
:1023100010924E020C949A106093D4027093D502DE
:102320008093D6029093D7020C947E110F931F9343
:102330006091D4027091D5028091D6029091D7021B
:102340008B019C01067011272227332706301105C7
:102350002105310529F468601F910F910C948C11AF
:10236000677FFACF0F931F9341E050E060E070E089
:1023700004C0440F551F661F771F8A95D2F7CB0103
:10238000BA0160957095809590950091D402109156
:10239000D5022091D6023091D70260237123822387
:1023A00093231F910F910C948C1190914D02809565
:1023B000892380934D02282F277039F4282F082E67
:1023C000000C330B9217130621F49091570292FFE1
:1023D00007C08595859585950E94B21110924D0292
:1023E00008950F931F9341E050E060E070E004C057
:1023F000440F551F661F771F8A95D2F78091D4022C
:102400009091D502A091D602B091D7028A019B018A
:10241000082B192B2A2B3B2BC901B8011F910F91B7
:102420000C948C1160935202709353028093540267
:10243000909355020C947E11882379F19CEF980FAC
:10244000913A38F4682F80EB91E00E9435100C949B
:102450009A1090E2980F983088F4877021E030E06D
:10246000A90102C0440F551F8A95E2F7CA01809561
:1024700090915002892380935002E9CF9BE5980FF9
:10248000933020F490E080E00C946811885A8731F2
:1024900020F490E080E00C9452110895CF93C82F5F
:1024A000882309F467C08CEF8C0F813AC0F58091C6
:1024B0002301882311F18091560287FF1EC0EC2F63
:1024C000E695E695E695F0E0E055FE4F828190E0D6
:1024D0004C2F477021E030E002C0220F331F4A9595
:1024E000E2F782239323892B91F06C2F80EB91E00C
:1024F0000E9435100E949A100AC0E2EBF1E088EBCE
:1025000091E02191C21789F38E179F07D1F76C2FA5
:1025100080EB91E00E945F10CF910C949A1080E2C2
:102520008C0F883068F4C77021E030E001C0220FC2
:10253000CA95EAF780915002822B80935002ECCF2B
:10254000EBE5EC0FE33040F4F0E0E15BFE4F80811F
:1025500090E0CF910C946811C85AC73158F4EC2F11
:10256000F0E0EE0FFF1FEE5AFE4F80819181CF9178
:102570000C945211CF910895E0915A02F0915B02B0
:10258000309721F00190F081E02D099480E00895CA
:10259000FA01811101C0FB01099480919C02982FDE
:1025A0009E7F29F48170826080939C020895863515
:1025B000E8F381708465F8CFAF92BF92DF92EF921B
:1025C000FF920F931F93CF93DF93082F162FE901EC
:1025D000E42FF0E0E152FD4E611110C0E4915E2F56
:1025E0004E2F4983E8835A83DF91CF911F910F913A
:1025F000FF90EF90DF90BF90AF900895E62EF12C02
:102600004491D42EE42FF0E026E0829FC0011124F3
:102610002FEF30E0B9010E944034802F90E0880F06
:10262000991F55E5569FD001579FB00D11248A1B65
:102630009B0B982F990F890F5901AE18BF08AE9EBA
:10264000D001AF9EB00DBE9EB00D11245B2F189F20
:1026500080011124012F11275901A01AB10AAE9E41
:102660008001AF9E100DBE9E100D11245901A81AB5
:10267000B108AE9CC001AF9C900DBE9C900D112482
:10268000892F9927281B390B2E9FC0012F9F900D52
:102690003E9F900D1124E92F62307105A1F050F496
:1026A0006115710509F49DCF6130710581F0EB2F43
:1026B000512F97CF6430710569F080F06630710555
:1026C00009F48FCFF4CFE42F4B2F592F8ACFE42F6B
:1026D000412F87CFEB2F542F492F83CF4B2F5D2DC9
:1026E000E12F7FCFF894E82FE295EF70F0E031A171
:1026F000282F2F7081E090E001C0880F2A95EAF71B
:10270000982F9095932391A392A1892B82A37894DB
:1027100008959091560292FF06C0282F2871283004
:10272000F9F4877F846093FF06C0282F2871283131
:10273000F1F4877E84612091570220FF06C0382F74
:1027400038713830D9F4877F816021FF06C0282F87
:1027500028712831D1F4877E816194FD877E0895A8
:10276000282F24712430F9F68B7F8860DCCF282F46
:102770002471243101F78B7E8861DDCF382F3171D0
:10278000313019F78E7F8860E0CF282F21712131F9
:1027900021F78E7E8861E1CF80910E0281111BC0EE
:1027A0008091D10190E0019665E070E00E94543480
:1027B0008093D10124E030E0281B390B4CE752E034
:1027C000249FC001259F900D349F900D11248D589A
:1027D000994F0C94460E8091D00190E00196817043
:1027E00099278093D00121E030E0281B390B4CE77A
:1027F00052E0249FC001259F900D349F900D11241D
:1028000085589E4FE6CFCF92DF92EF92FF920F93C3
:102810001F93CF93DF936C017B0164E670E088E740
:102820000E944333EC0197FD12C010E000E0F60176
:10283000E00FF11F849164E670E00E949F33EC0189
:10284000892B29F40F5F1F4F0E151F0581F70E947A
:102850002234CE01DF91CF911F910F91FF90EF9025
:10286000DF90CF900895CF93C0919502809196020A
:102870008823D1F00E942910605A75418F4F9F4FD5
:1028800060939102709392028093930290939402CA
:10289000C11108C062E070E08CE195E10E94031470
:1028A000892B29F0C09195028C2FCF91089581E05A
:1028B00080939502F7CF1092500280912301E2EBB2
:1028C000F1E0882359F08091560287FF07C08EE11E
:1028D000DF011D928A95E9F70C947E1186E0F8CF0E
:1028E0001F93CF93DF93CDB7DEB7AA970FB6F894B7
:1028F000DEBF0FBECDBF89EC92E02091F100DC017C
:102900002D93CD01B2E0813D9B07B9F78091CA02BA
:10291000833009F471C0B8F4813009F448C08230C2
:1029200009F4B2C08091E80083FF3AC18091C902E6
:102930009091CA029A3008F033C1E92FF0E0E95BC8
:10294000F84C0C9468348A3009F48DC08B3009F44B
:1029500070C0893039F78091C902813219F78091AE
:10296000CD029091CE02009711F00297D9F6809196
:10297000E800877F8093E8008091E80082FF37C0FD
:102980009091F3008091F200029729F48091F10078
:102990008B7F813021F48091F1008093A40280919B
:1029A000E8008B778093E8000E94030FBBCF8091F3
:1029B000C902813A09F0B6CF8091E800877F809301
:1029C000E8008091CD029091CE02892B61F460E203
:1029D00085EA92E070E00E94B50F8091E8008B7765
:1029E0008093E8009FCF60E090E080E0F3CF80919B
:1029F000C7028111C1CF96CF8091C902813A09F0F7
:102A000091CF8091CD029091CE02892B09F08ACF8F
:102A10008091E800877F8093E8008091E80080FF44
:102A2000FCCF809123018093F1008091E8008E77A4
:102A3000B9CF8091C902813209F074CF8091CD0263
:102A40009091CE02892B09F06DCF8091E800877FAD
:102A50008093E8000E94030F8091CB0280932301B2
:102A60000E945B145FCF8091C902813209F05ACF76
:102A70008091E800877F8093E8000E94030F809197
:102A8000CC028093A3024ECF8091C902813A09F013
:102A900049CF8091E800877F8093E8008091E8002B
:102AA00080FFFCCF8091A302BECF803899F082389E
:102AB00009F076C08091CD028F70873008F070C029
:102AC0008093E9008091EB0085FB882780F91092C4
:102AD000E90006C08091C5029091C6029111826002
:102AE0009091E800977F9093E8008093F100109216
:102AF000F1008091E8008E77B5C1882309F4A2C166
:102B0000823009F04DC08091CB028111A6C1809125
:102B1000CD028F702FEF280F263008F041C0809330
:102B2000E9002091EB0020FF98C1933031F48091AF
:102B3000EB0080628093EB0090C19091EB0090617C
:102B40009093EB0021E030E001C0220F8A95EAF774
:102B50002093EA001092EA008091EB008860EACFAF
:102B600081111EC01091CB021F778091E300807805
:102B7000812B8093E3008091E800877F8093E800B9
:102B80000E94030F8091E80080FFFCCF8091E3005A
:102B900080688093E30082E0111183E08093C70294
:102BA0008091E80083FF0AC08091E800877F8093CE
:102BB000E8008091EB0080628093EB00AA960FB64C
:102BC000F894DEBF0FBECDBFDF91CF911F91089566
:102BD0008058823028F72091CB023091CC022C3DD6
:102BE000E3E03E07A1F583E08A838AE289834FB759
:102BF000F894DE01139620E03EE051E2E32FF0E08E
:102C000050935700E49120FF03C0E295EF703F5FBF
:102C1000EF708E2F90E0EA30C0F0C7968D939D93B1
:102C20002F5F243159F74FBF8091E800877F809351
:102C3000E8006AE270E0CE0101960E94B50F809133
:102C4000E8008B778093E800ABCFC096E7CF809108
:102C5000CD029091CE02432F55274330510509F400
:102C60004AC078F54130510509F47AC08BE590E00F
:102C7000E0E2F6E14230510509F092CF2091E80000
:102C8000277F2093E8002091CF023091D002821755
:102C9000930708F49C0140E02115310509F065C057
:102CA000411163C08091E80082FDC9CF8091C702C5
:102CB000882329F2853019F28091E80083FFF2CF52
:102CC000BECF4132510509F43CC04232510509F0F2
:102CD00067CF8330910508F063CFFC01EE0FFF1F33
:102CE000EE55FE4F0190F081E02D81569E4FDC01A4
:102CF0008C9190E01AC0332721303105D1F0211595
:102D0000310561F02230310509F04ACFEDE8F6E1F6
:102D1000E4918E2F90E0EDE8F6E107C0E5EBF6E1F7
:102D2000E4918E2F90E0E5EBF6E1009709F438CFBF
:102D3000A5CFE9E9F6E1E4918E2F90E0E9E9F6E12B
:102D4000F4CF8330910508F02BCF880F991FFC0139
:102D5000E855FE4F0190F081E02D89E090E08ECFA4
:102D600082E190E0EBE7F6E189CF8091C70288230A
:102D700009F465CF853009F462CF8091E80083FDC6
:102D80005ECF8091E80082FD8DCF8091E80080FFCA
:102D900083CF9091F3008091F2002115310519F055
:102DA0008830910550F041E0089709F040E08091AB
:102DB000E8008E778093E8006FCF44914093F10054
:102DC0003196215031090196E8CF803809F0E8CEDC
:102DD0008091E800877F8093E8008091C80280930B
:102DE000F10087CE8111DCCE1091CB02123008F0B9
:102DF000D7CE8091E800877F8093E8001093C802C7
:102E00000E94030F112311F084E005C08091E300BC
:102E100087FDFACF81E08093C70242E061EC81E058
:102E20000E94220F42E261EC84E00E94220F42E203
:102E300061EC82E00E94220F42E260EC83E00E949B
:102E4000220FAECE8091CB02813009F0A9CE81E075
:102E5000933009F080E08093C6021092E9008091DF
:102E6000E800877F8093E8000E94030F99CECF93FC
:102E7000DF93682F81E06A3019F06D3029F480E02B
:102E8000DF91CF910C94C6178091E1049091E204F8
:102E900026E0FC01A9EDB2E001900D922A95E1F740
:102EA000603E08F45AC026E0FC0111922A95E9F729
:102EB000C091E104D091E20446E050E0BE0189ED0A
:102EC00092E00E94F6349E01215E3240892B41F14E
:102ED000C90145E0969587954A95E1F741E050E0B4
:102EE000BA0102C0660F771F8A95E2F7CB016091A5
:102EF000DF027091E002862B972BB9016B5F7F4F49
:102F0000E5E076956795EA95E1F702C0440F551F15
:102F10006A95E2F7842B952B9093E0028093DF0271
:102F20002A5F3F4F4091D802642F70E0C9010E9490
:102F30004034481B463010F4240F311D211572E037
:102F4000370710F030E020E02F513D4F3093E2047E
:102F50002093E104DF91CF910895F6E06F9FB001D7
:102F600011246754794E46E050E00E94E034A0CF2F
:102F7000CF93DF93EC01FE018491811103C0DF91B7
:102F8000CF9108950E9437172196F5CFCF93382F10
:102F9000E091E104F091E204E15EF2402091D80278
:102FA000622F70E0CF010E944034281B822F332310
:102FB00061F066E00E942634C82FC15010F4CF9112
:102FC000089580E20E943717F8CF9F01280F311D26
:102FD0002115324018F080E0F0E0E0E08E0F9F2FE6
:102FE000911D8F519D4F9093E2048093E104E7CFB0
:102FF000CF9384E090E00E940335C82F82E290E0F6
:103000000E940335982F8C2FCF9108950F931F9313
:10301000CF93DF939EE0C42FD0E0CC0FDD1F699FDC
:10302000C00DD11D1124899FC00DD11D1124CE01C9
:1030300087960E940335082F10E0102F0027CE013D
:1030400088960E9403359801282BC901DF91CF9102
:103050001F910F910895462F843038F4711105C0E7
:10306000673018F460E00C94061890E080E0089552
:10307000CF93DF930E942B18EC0182389105A9F1C0
:10308000D8F58133910509F496C048F58932910548
:1030900009F48AC08A9709F495C0C11522E5D207C0
:1030A00008F0B6C0C11531E5D30708F026C1C83E07
:1030B000D10508F09CC0C03ED10560F5C83AD105E5
:1030C00008F087C0C53AD10508F0EFC0C130D1057E
:1030D00009F12097F9F0C430D105E0F440C0853300
:1030E000910509F45AC0C997C1F6809156028370C0
:1030F00089F0C0EED0E00EC0833E910599F170F4E6
:10310000803E910501F1823E910539F6809156028B
:1031100082FD21C0CE01DF91CF910895863E9105B9
:1031200061F1873E910571F1843E910509F0B5CFBB
:103130008091570281FFEECF80915602C7EED0E01A
:1031400084FD0DC0E7CF8091560280FD07C19091AC
:10315000570290FFDFCFC3EED0E084FFDBCFD0E09B
:10316000C0E0D8CF8091560282FDFBC090915702FB
:1031700090FDBFCF84FFCECFF2CF8091560283FD6A
:10318000DDCFC8CF8091560283FDEEC090915702EB
:1031900091FFF0CFC4EED0E0BDCF8091560285FF05
:1031A000B9CFC9E2D0E0B6CF8091560285FFB2CF49
:1031B000C5E3D0E0AFCF8091560286FFABCFCAE225
:1031C000D0E0A8CF8091560286FFA4CFC1E3D0E023
:1031D000A1CFCF3BD10518F6C85AD0E0CC0FDD1FE8
:1031E000CE5ADE4F0990D881C02DD46493CFC1153B
:1031F00040E5D40708F064C0C11580E4D80708F0A2
:103200005CC0CE019A9581159F4108F483CFA7CF6A
:10321000C11536E5D30718F5C11545E5D40708F003
:1032200084C0C11584E5D80708F07AC09C2F969514
:1032300096959E0123703327C115D34508F462C0CB
:10324000C1E0D0E002C0CC0FDD1F2A95E2F730E2EA
:10325000939FC0011124C82BD92BDA685BCFC1150D
:103260008AE5D80778F4C11599E5D90708F068C050
:10327000C11528E5D20708F472CFDC2FCC27C06F28
:10328000D06A48CFCE0190568115904208F067CFA2
:103290008D2F8F710E94891390E0982F882788279F
:1032A0009F719C012C2BE90149C0C55AD0E0C15B3C
:1032B000DE4FC881D0E0D0642DCFDF70D06A2ACF36
:1032C000CE01E4E096958795EA95E1F783702C2F7F
:1032D00026952695237040E2249F90011124382BD7
:1032E0008C2F8370C1E0D0E002C0CC0FDD1F8A9527
:1032F000E2F7C22BD32BDC680DCFDC2FCC27C16FBC
:10330000D06A08CFC1E0D0E002C0CC0FDD1F2A9503
:10331000E2F720E2929FC0011124C82BD92BEBCFFA
:10332000DC2FCC27C46FD06AF5CE8C2F0E94891376
:10333000C82FD0E0DC2FCC27CC27DF71D062EACEBB
:103340008C2F8F700E94891334E0D695C7953A95DB
:10335000E1F7CF709C2FEC01D069DCCEC9E3D0E05F
:10336000D9CEC2EED0E0D6CEC6EED0E0D3CEBF925C
:10337000CF92DF92EF92FF920F931F93CF93DF9341
:103380008C01C090D402D090D502E090D602F0908B
:10339000D7028091520290915302A0915402B091B1
:1033A0005502C82AD92AEA2AFB2ACFE1D0E0BC2E4E
:1033B000D701C6010C2E04C0B695A79597958795A1
:1033C0000A94D2F780FD0EC0219788F7B12C8B2D7F
:1033D000DF91CF911F910F91FF90EF90DF90CF90F1
:1033E000BF900895B8018C2F0E943818019761F39F
:1033F000EECFCF93DF93EC010E94B719BE01DF91AE
:10340000CF910C9438180E94F919292F2F7092959A
:103410009F7092509E3078F4E92FF0E0EF5AF84C0C
:103420000C946834803F19F020F4883E20F481E049
:103430000895843FE1F380E00895883EC0F3813F22
:10344000D1F7F5CF822F8695869586950895AF9210
:10345000BF92CF92DF92EF92FF920F931F93CF9381
:10346000DF9384EEC82E84E1D82E05E310E0E80156
:103470002E977601F701A590B4906B2DCE010E9496
:1034800017356A2DCE0101960E94173582E0E80EAD
:10349000F11C2296C017D10769F78EE0C80ED11C27
:1034A0008E01025F1F4F0D36110509F7DF91CF9195
:1034B0001F910F91FF90EF90DF90CF90BF90AF9052
:1034C0000895CF93C0915702C2FB992790F998179E
:1034D00081F080FBC2F9C09357026091560284E0EC
:1034E00090E00E9417356C2F82E290E0CF910C940F
:1034F0001735CF910895CF93DF93CFE5D0E060E00B
:10350000CE010E9417352196C11584E0D807B9F77E
:10351000DF91CF910895CF93DF9300D00F92CDB775
:10352000DEB79091C702943011F589837B836A835B
:103530009093E9008FEF9091E800815095FD06C0CF
:1035400095ED9A95F1F700008111F5CF8091E80093
:1035500085FF0DC050E040E063E070E0CE010196D1
:103560000E94D90E8091E8008E778093E8000F903A
:103570000F900F90DF91CF910895BC0184E00C94DF
:103580008B1ABC0183E00C948B1ACF93DF93EC0170
:10359000809123018823B1F18091560287FF32C0C8
:1035A00060E284E08093E9008FEF9091E800815021
:1035B00095FD06C095ED9A95F1F700008111F5CFC4
:1035C0008091E80085FF1BC08091230170E050E0EE
:1035D00040E0811104C050E040E068E070E0CE01BE
:1035E0000E94D90E8091E8008E778093E80080E2F7
:1035F000FE01A5EAB2E001900D928A95E1F7DF9114
:10360000CF91089568E081E0CDCF81E08093E00024
:1036100080E28093D8001092C9008FE19EE4019768
:10362000F1F700C0000087E090EBDC018093E30439
:103630009093E404A093E504B093E60488E19CE051
:103640000FB6F894A895809360000FBE9093600029
:10365000FFCF1F93CF93DF93182FD0E0C0E08933C3
:1036600011F4C0E5D0E0812F0E944E12209731F472
:10367000812FDF91CF911F910C941C128FE99FE055
:103680000197F1F700C000002197F0CF80919C02D4
:1036900080FD0AC0E8EDF1E01182108212823396BB
:1036A00051E0EA3EF507C1F7879A31B33F7721B37E
:1036B00020684FB7F89488ED91E0FC015191CF015B
:1036C00068E021BB000000C057FF31BB550F000070
:1036D00000C000C000C031BB00C06A9591F7F1E0A6
:1036E0008A3E9F0751F74FBF8FE594E00197F1F7AE
:1036F00000C000000895EF92FF921F93CF93DF93D5
:10370000EC0188EDE82E81E0F82E10E08C81970125
:1037100040919F0260919E02810F0E94DC12165D13
:1037200083E0E80EF11C1C3F89F70E94461B9A813A
:103730008C8190FF08C08F5F8C83DF91CF911F91A8
:10374000FF90EF9008958150F7CFBF92CF92DF9214
:10375000EF92FF920F931F93CF93DF93FC0182812F
:10376000DD24DA9480FD02C0DD24D39408ED11E05D
:10377000D0E0C0E026E0B22EF80111821082128261
:1037800094E0E92EF12CC12C8091D5018C0D87306D
:103790000CF43DC06B2D0E943234892F082E000C92
:1037A000990B8C179D0791F480919F028E9DA0012B
:1037B0008F9D500D11245595479555954795980126
:1037C00060919E0280919D020E94DC12CD0CF1E07E
:1037D000EF1AF108C9F621960D5F1F4FC630D105CB
:1037E00059F60E94461B8091D50191E0D91215C06F
:1037F000811111C085E08093D501DF91CF911F9198
:103800000F91FF90EF90DF90CF90BF90089587FFCA
:10381000C5CF8A5FC3CF8150EECF90E00196BE0145
:103820000E945434E8CF0F931F93CF93DF93C8EDDA
:10383000D1E0FE01118210821282339681E0EA3ECD
:10384000F807C1F710E000E08091D601082E000CC7
:10385000990B081719078CF180911001082E000CA4
:10386000990B801791074CF19E0140919F02609146
:103870009E0280919D020E94DC120F5F1F4F2396D3
:103880000630110509F70E94461B80910F019091A7
:10389000D601980F9093D60120911001280F209304
:1038A0001001121614F495301CF0819580930F01CD
:1038B000DF91CF911F910F910895198218821A827A
:1038C000DCCF8F929F92AF92BF92CF92DF92EF9216
:1038D000FF920F931F93CF93DF93EC014C81042F42
:1038E00010E09801D8010E949F359B01AC010E9415
:1038F0006A354B015C01E0E2F0E0E01BF10BA5E56D
:10390000B0E0AC019B010E946A356B017C019F0114
:10391000DF010E9475349B01AC010E9475359B014B
:10392000AC01280D391D4A1D5B1DC701B6010E945F
:103930007D35F22E822F90E039E23F15D8F143E039
:10394000249F9001112435952795122F109598EDFD
:10395000C92E91E0D92E00E085E5E82EEF188E2DD6
:1039600001FD8F2D9601412F60919E020E94DC1275
:103970000F5F53E0C50ED11C063089F70E94461B2D
:103980009C8181E0992319F0903219F48FEF809394
:10399000110180911101890F8C83DF91CF911F91CB
:1039A0000F91FF90EF90DF90CF90BF90AF909F90DE
:1039B0008F90089525E530E0A901481B590BCA01F5
:1039C0009A01220F331F280F391F37FFBCCF2F5FFB
:1039D0003F4FB9CFEF92FF920F931F93CF93DF9397
:1039E0008C01C8EDD1E0F12CE12CF80194816091BB
:1039F0009E0280919D02F3E0EF16F104FCF49923FE
:103A0000F9F09E0140919F020E94DC122FEFE21A12
:103A1000F20A239686E0E816F10439F70E94461B65
:103A2000F801848190E00196817099278483DF9169
:103A3000CF911F910F91FF90EF900895992309F373
:103A40009E0140E0E1CF90919C0290FF0CC0E8ED18
:103A5000F1E0818360834283339691E0EA3EF90787
:103A6000C1F70C94461B08950F931F93CF93DF93D8
:103A700000D00F92CDB7DEB78C018091D7018111B4
:103A80000AC09E012F5F3F4F4FEF6FEF0E94DC1285
:103A90008A818093D701F8016481613069F0809157
:103AA000D70140E0662361F040E0623011F44091BC
:103AB000D70180E060E004C06091D70140E080E081
:103AC0000E94231DF801848190E0019663E070E07C
:103AD0000E94543484830F900F900F90DF91CF9108
:103AE0001F910F910895CF93DF9300D00F92CDB720
:103AF000DEB790919C0290FF0AC09E012F5F3F4F5E
:103B00000E94DC124B8169818A810E94231D0F90E3
:103B10000F900F90DF91CF910895CF93DF93EC0139
:103B2000EC81F0E0EC51FC4E4491ECE9F2E0628172
:103B300081810E94731D8C818F5F8C83DF91CF9177
:103B40000895CF93DF93EC01ECE9F2E043816281C9
:103B50008C810E94731D8C818F5F8C83DF91CF914C
:103B600008954F925F926F927F928F929F92AF9241
:103B7000BF92CF92DF92EF92FF920F931F93CF935A
:103B8000DF93FC016280448081E08483E4EEF3E112
:103B90007490E3E6F4E1E491CAEED1E038EDE32E6F
:103BA00031E0F32E48E0C42E42E0D42E52E0A52EA0
:103BB000BB24B39488248A94912C55245A94E719F1
:103BC0000E2F10E082E0861530F080919D028883F0
:103BD00080919E028983411021C01B821A82970125
:103BE0004A81698188810E94DC12259683E0E80E73
:103BF000F11CCC16DD0631F7DF91CF911F910F91AB
:103C0000FF90EF90DF90CF90BF90AF909F908F90FC
:103C10007F906F905F904F900C94461B8B81882310
:103C2000E9F081508B83859DC00111246C8170E087
:103C30000E944034FB01FF27EC51FC4E8491E82F99
:103C4000E719E59DC0011124B8010E94403480911C
:103C50009F02689FB00111247A83C1CF0E94D034A3
:103C600020919F02269521582A9DA0012B9D500D41
:103C70001124452F5527841795070CF0B0CF82E00B
:103C8000861588F40E94D034B4010E94543488838D
:103C90000E94D03420919E022695622F70E00E94EF
:103CA0005434280F29831A8280919F02893C20F086
:103CB00088EC8C838B8393CF8431D8F784E1F9CF60
:103CC0006AEE7EEF90E080E00E94353560E082E0B1
:103CD00090E00E94173560E083E090E00E94173585
:103CE00010925202109253021092540210925502F6
:103CF00060E084E090E00E94173560E082E290E0AE
:103D00000E94173560E085E090E00E94173560E082
:103D100086E090E00E9417356FEF87E090E00E9408
:103D2000173540E050E0BA0188E090E00E94293564
:103D300060E08DE090E00E94173540E050E0BA016D
:103D400088E190E00E94293560E087E190E00E94E0
:103D5000173540E050E0BA018CE190E00E9429352F
:103D600070E060E080E290E00E94353540E050E095
:103D7000BA0188E190E00E94293540E050E0BA01A4
:103D80008FE090E00E94293540E050E0BA0183E1E5
:103D900090E00C942935CF92DF92EF92FF926B0165
:103DA0007C010E94CD12B701A60188E090E0FF904F
:103DB000EF90DF90CF900C9429355F926F927F92B5
:103DC0008F929F92AF92BF92CF92DF92EF92FF922B
:103DD0000F931F93CF93DF9300D00F92CDB7DEB731
:103DE000182F762E042F622E90919C0290FF29C0EE
:103DF000E92FE695AE2FB0E0AC5DBE4F8C9180937D
:103E00009A029E7F923081F59E012F5F3F4F812F56
:103E10000E94DC124B8169818A810E94231D1093CC
:103E20009D0270929E0200939F02662051F0609165
:103E30009C0270919D0280919E0290919F020E942F
:103E4000CB1E0F900F900F90DF91CF911F910F918C
:103E5000FF90EF90DF90CF90BF90AF909F908F90AA
:103E60007F906F905F900895823019F400919F02C7
:103E7000D6CF863019F410919D02D1CF8930D9F375
:103E8000893169F6E9518E2F8170582EE695F0E060
:103E9000E152FC4EA590B490BB2488EDE82E81E061
:103EA000F82ED12CC12C96E0892E912CC601B4019C
:103EB0000E944034812F511013C0860F9701402F6C
:103EC000672D0E94DC12CA0CDB1C83E0E80EF11C9B
:103ED0008AEEE81681E0F80649F70E94461B9FCF5C
:103EE000861BECCFECE9F2E0438128E0421B08F4AA
:103EF00040E021E0628181810C94DD1EECE9F2E07A
:103F0000438128E0420F08F44FEF21E06281818174
:103F10000C94DD1EECE9F2E0628128E0621B08F4FB
:103F200060E021E0438181810C94DD1EECE9F2E048
:103F3000628128E0620F08F46FEF21E04381818104
:103F40000C94DD1EECE9F2E0818121E04381628185
:103F500088500C94DD1EECE9F2E0818121E0438180
:103F60006281885F0C94DD1E8091A002882319F085
:103F700081508093A00260919C0270919D0280917B
:103F80009E0290919F020C94CB1E8091A0028330E0
:103F900018F48F5F8093A00260919C0270919D0243
:103FA00080919E0290919F020C94CB1EECE9F2E06E
:103FB00083E0808311828FEF828383831482608108
:103FC0007181828193810C94CB1E1F920F920FB648
:103FD0000F9211242F933F934F935F936F937F938F
:103FE0008F939F93AF93BF93CF93DF93EF93FF9301
:103FF000D091E900DF708091EC00C82FC17080FD86
:10400000C0E81092E9008091F000877F8093F00073
:1040100078940E9470141092E9008091F0008860FA
:104020008093F000CD2BCF70C093E900FF91EF910A
:10403000DF91CF91BF91AF919F918F917F916F91C0
:104040005F914F913F912F910F900FBE0F901F9056
:1040500018951F920F920FB60F9211242F933F9332
:104060004F935F936F937F938F939F93AF93BF9380
:10407000EF93FF938091E10082FF09C08091E200FD
:1040800082FF05C08091E1008B7F8093E1008091E9
:10409000DA0080FF24C08091D80080FF20C080918A
:1040A000DA008E7F8093DA008091D90080FF9BC078
:1040B00080E189BD82E189BD09B400FEFDCF81E0C8
:1040C0008093C7028091A202811109C00E94890ECB
:1040D0000E94540F8091E20084608093E2008091FE
:1040E000E10080FF17C08091E20080FF13C0809143
:1040F000E2008E7F8093E2008091E20080618093F5
:10410000E2008091D80080628093D80019BC85E0DD
:104110008093C7028091E10084FF29C08091E20072
:1041200084FF25C080E189BD82E189BD89B5982FD2
:10413000917080FFFBCF8091D8008F7D8093D80055
:104140008091E1008F7E8093E1008091E2008F7E7C
:104150008093E2008091E20081608093E200809190
:10416000C802882309F445C084E08093C702809187
:10417000E10083FF27C08091E20083FF23C080918C
:10418000E100877F8093E10082E08093C702109274
:10419000C8028091E1008E7F8093E1008091E2006F
:1041A0008E7F8093E2008091E20080618093E20044
:1041B00042E060E080E00E94220F8091F000886081
:1041C0008093F000FF91EF91BF91AF919F918F91FC
:1041D0007F916F915F914F913F912F910F900FBE03
:1041E0000F901F90189519BC1092C7021092A2024E
:1041F00076CF8091E30087FD93E09093C702B7CF1D
:1042000078941F921FB61F9211248F939F93AF93A0
:10421000BF938091670290916802A0916902B0916A
:104220006A020196A11DB11D8093670290936802F6
:10423000A0936902B0936A02BF91AF919F918F9151
:104240001F901FBE1F9018952FB7F894809167029A
:1042500090916802A0916902B0916A022FBF0895FF
:104260000F931F93CF93DF93C62FD42F022FFC0100
:1042700082818823A1F06093D3020E94242190932D
:10428000D2028093D102C77081E001C0880FCA9525
:10429000EAF7DF91CF911F910F910C944811809113
:1042A000D302681335C08091D1029091D2020E944E
:1042B0001A10883C910560F510E21D0FCD17B9F07A
:1042C00080E28C0F883040F4C77081E001C0880F15
:1042D000CA95EAF70E943D11183048F481E09D2FFD
:1042E000977001C0880F9A95EAF70E944811802FB5
:1042F0000E94291B183098F4D77081E001C0880F04
:10430000DA95EAF7DF91CF911F910F910C943D114F
:10431000C77081E001C0880FCA95EAF7F3CFDF913B
:10432000CF911F910F91089590919C0290FF3DC0F5
:104330009170811129C0926090939C02662351F084
:1043400060919C0270919D0280919E0290919F02CB
:104350000E94CB1E60919C02669570E04BE050E09D
:1043600084E091E00E94E934892BA9F010929B022D
:1043700081E08093600220E040919F0260919E0264
:1043800080919D020C94DD1E8B3210F09465D4CF89
:10439000880F982BD1CF81E080939B020E9424212B
:1043A00090935E0280935D02E3CF089580919C021A
:1043B0008695815009F48AE261E00C949421809101
:1043C0009C0286958F5F8B3208F081E061E00C944F
:1043D000942190919C0290FF07C09695981720F029
:1043E000961710F40C94DF2161E00C9494213F9215
:1043F0004F925F926F927F928F929F92AF92BF92F5
:10440000CF92DF92EF92FF920F931F93CF93DF93A0
:1044100000D000D00F92CDB7DEB78C01FC018381B4
:104420009481892B31F08081918189238F3F09F01C
:1044300061C60F900F900F900F900F90DF91CF916A
:104440001F910F91FF90EF90DF90CF90BF90AF90B2
:104450009F908F907F906F905F904F903F900895C6
:104460000E94B719F82E682F89819A810E9407113E
:1044700069817A818F2D0E942B187C01F80182813D
:10448000882309F45DC0C70190568115F0E29F07AB
:1044900050F0905E811520E1920728F0915C811523
:1044A0009F4108F087C0C70199279C01245031091A
:1044B0002432310520F08B970E9708F041C080918F
:1044C0000C0290910D020097A9F10E941A10D09051
:1044D00066029C0150E040E060E67AEE80E090E009
:1044E0000E944B35CA01B90125E030E040E050E0C0
:1044F0000E944B35CA01B9016D19710981099109F1
:104500000E944C3627EA39E747E45DE30E94D8363B
:104510004B015C016D2D70E090E080E00E944C3614
:104520009B01AC01C501B4010E94AF350E941B364E
:10453000609366020E94242190930D0280930C02E6
:10454000F8018281882309F4C6C5970122513F45AD
:104550002031310508F08FC58FEF93E00E940335BD
:10456000FEEEEF0E5FE5852E912C8823D1F1809130
:104570004D02877009F45DCFF8018281882309F428
:1045800058CF82E00F900F900F900F900F90DF9117
:10459000CF911F910F91FF90EF90DF90CF90BF9040
:1045A000AF909F908F907F906F905F904F903F90D3
:1045B0000C94D5118FEFE816F10421F018F090E07B
:1045C00080E073CFC70171CF811424E0920679F2A5
:1045D000C4010E940335811101C0EA943FEF831AA0
:1045E000930AE110F1CF1C821B82442443944AE0D9
:1045F000342E74018FEFE81AF80AC4010E940335C3
:1046000089831A82882309F4B2CF9FEF980F9330E1
:1046100000F58A83498292E0890E911CC7010E94AD
:1046200003358B83882309F4A2CFFE0131967F01E5
:10463000F70120812223E9F2213009F049C091815C
:104640008281913041F4F2E0EF0EF11C0E94291BAF
:1046500009C04701EACF923049F422E0E20EF11C92
:104660000E944E123FEFE31AF30AE2CF933031F487
:1046700032E0E30EF11C0E941C12F4CF943021F0C2
:104680008FEFE81AF80AEECF92E0E90EF11C30E065
:1046900020E0B7016F5F7F4FF70141818053990B95
:1046A0008A30910550F021503109E0F28FE99FE006
:1046B0000197F1F700C00000F6CF329EF001339E63
:1046C000F00D11249C012E0F3F1F842F7B01E1CFA1
:1046D000E22FF0E0E25BFA4E5490822F86958695A9
:1046E000869590E0FC01E25CFA4E64902770712C94
:1046F000022E02C0759467940A94E2F7E1E06E22FC
:104700007724FC01E25DFA4EA490B12C022E02C087
:10471000B594A7940A94E2F7F1E0AF22BB24FC0120
:10472000E25EFA4EC490D12C02C0D594C7942A956B
:10473000E2F721E0C222DD246114710419F081EE58
:104740000E944E12A114B10419F086EE0E944E127E
:10475000852D0E94291BAB2819F086EE0E941C12A1
:10476000672819F081EE0E941C12CD2809F47ACF37
:104770008CE26CCF81E00E94F1110E949611F7CE7D
:1047800081E00E94B211F9CF82E0F5CF82E0F9CF4B
:1047900095EFE9169CE5F90609F469C008F463C0D1
:1047A00027E245EE66EEF6EFEF16FCE5FF0609F4AC
:1047B0008EC4882309F4AFC41092D30222E0E2161B
:1047C0002CE5F20608F44CC136E1E3163CE5F306AD
:1047D00030F0C7018A5F9C45099708F041C10E94EB
:1047E000F817909357028093560280E1E8168CE503
:1047F000F80609F404C108F083C0E8E0EE16ECE521
:10480000FE0609F4EEC008F04FC024E0E2162CE5E5
:10481000F20609F4DEC090F582E0E8168CE5F806B1
:1048200009F4D1C080915602826093E0E9169CE5BC
:10483000F90609F4CBC060915602F090570284E06B
:1048400090E00E9417356F2D82E290E00E941735AC
:104850000E945B148CCE27E245EE65EE38C426E25A
:1048600041EE60EE34C427E245EE64EE30C426E249
:1048700041EE62EE2CC428E241E0EFCF8091560277
:104880008061E6E0EE16ECE5FE0609F49FC080913B
:1048900056028860F7E0EF16FCE5FF0608F496C0C4
:1048A00080915602806292C0809156028D7F2CE0EA
:1048B000E2162CE5F20609F489C060F48AE0E816F5
:1048C0008CE5F80609F497C008F48FC08091560271
:1048D0008E7F7CC080915602877FEEE0EE16ECE57D
:1048E000FE0609F473C0809156028B7FFFE0EF163D
:1048F000FCE5FF0608F46AC0809156028F7E66C010
:104900002BEFE2162CE5F20609F467C068F583E1A7
:10491000E8168CE5F80609F47AC090F4E1E1EE16A9
:10492000ECE5FE0609F46FC0F2E1EF16FCE5FF06C8
:1049300009F081CF0E945B14809156028F7746C0A8
:1049400025E1E2162CE5F20609F469C008F47DC001
:104950008AEFE8168CE5F80609F06DCF80915702D2
:1049600081608093570267CF9FEFE9169CE5F906B7
:1049700009F451C0A0F4809157028D7FFDEFEF162E
:10498000FCE5FF0671F3809157028E7F2EEFE21651
:104990002CE5F20630F3809157028360E2CF31E0DC
:1049A000E3163DE5F30609F459C008F444C060E09D
:1049B00092E0E9169DE5F90609F03DCF8EE090E022
:1049C0000E94173538CF809156028160809356023D
:1049D00032CF809156028460F9CF80915702826075
:1049E000C0CF809156028064F1CF0E945B14809109
:1049F00056028068EBCF809156028C60E7CF8091A1
:104A000056028F7DE3CF809156028F7BDFCF80915E
:104A10005602837FDBCF809157028C7FA2CF80919B
:104A2000560282FB992790F921E0922790FB82F9A8
:104A300090FB83F9CBCF80915702982F909591707E
:104A40008E7F892B90FB81F98CCF0E945B14909113
:104A50005602892F97FB87F98058B8CF61E0AECF17
:104A600080915002E6E1EE16ECE5FE0609F062C325
:104A70008A7A91E009F490E090930F0269E2811143
:104A800065E380EB91E00E945F100E949A106FCD69
:104A900080919C0280FF1BC08E7F80939C0260915E
:104AA0009C0270919D0280919E0290919F020E94B3
:104AB000CB1E10929B02FFEF20E732E0F150204026
:104AC0003040E1F700C000000E94461B50CD8160DD
:104AD00080939C0261E086950E94942148CD46ED2A
:104AE00051E26FED71E20E94C81241CD4FED51E2EB
:104AF00066ED71E2F8CF4BEA5FE162EA7FE1F3CF66
:104B00004AE85FE166E97FE1EECF42E75FE16EE709
:104B10007FE1E9CF4EE75FE162E77FE1E4CF45EC7B
:104B20005FE164EB7FE1DFCF61E081E0D5CF65E05D
:104B300082E00E94E9211BCD68E086E0FACF64E1C3
:104B40008FE0F7CF67E185E1F4CF62E289E1F1CF51
:104B500061E083E2C1CF2BE5E2162DE5F20611F10B
:104B60003CE5E3163DE5F30609F016C380915702D4
:104B700082FB882780F991E089270E94611A0CC383
:104B80000E945B148FEF94E3ECE081509040E04092
:104B9000E1F700C000000E94051B0E94601EE7CCE8
:104BA00081E0EBCF80E0E9CFC7010E94DF10D82E73
:104BB00002C32F2D2F70A22E8F2D807F19F0A2946B
:104BC00090EFA922DD20C9F0AA2069F080E28E0DC5
:104BD000883010F081100BC080915002A82AA0925A
:104BE00050020E949A108E2D0E944E1219C0809180
:104BF0004F02A82AA0924F02F4CF8E2D0E941C12C1
:104C0000AA2071F0A09480E28E0D883010F08110FF
:104C10003DC080915002A822A09250020E949A109A
:104C2000232D2850330B2430310510F40E94BC1280
:104C3000CC2009F4FECB80914D0280FDFACBF80127
:104C400012828595859585950E94F111C8010E9473
:104C5000F72180914D028595859585950F900F9050
:104C60000F900F900F90DF91CF911F910F91FF90B8
:104C7000EF90DF90CF90BF90AF909F908F907F90FC
:104C80006F905F904F903F900C94B21180914F02C3
:104C9000A822A0924F02C2CF3F2D3F70932E8F2D9E
:104CA000807F803219F0929480EF9822882071F0F2
:104CB00081E0881681F1DD20D9F1AA2091F1F80177
:104CC000858180FF90CF8F7085832BC0DD20B1F070
:104CD00090915102892D892BA11003C00E94481187
:104CE0009FCFE1E0AE12FACF2091570222FD98CF7C
:104CF000981709F495CF8093510292CFA11006C066
:104D00000E949410892D0E943D118ACFF1E0AF16C8
:104D100009F486CFF5CFDD2031F025E02A1508F41F
:104D20007FCF892DDBCF34E03A1508F479CFEACF75
:104D3000AA2041F3F9E38F1209C02FEF37EE83E089
:104D4000215030408040E1F700C000008E2D0E94CD
:104D50001C1266CF8F2D86958695837061F0813009
:104D600009F05ECFC7019370D11002C090E080E0DF
:104D70000E94521155CFC7019370D11002C090E02C
:104D800080E00E9468114CCF8F2D837009F066C0BF
:104D9000D11046CF8E2D829586958770880F880F0B
:104DA0006E2D6F70462E512C712C612C082E04C074
:104DB000440C551C661C771C0A94D2F740E050E066
:104DC000BA01E4FE0FC04FE050E060E070E004C0C4
:104DD000440F551F661F771F8A95D2F7409550954F
:104DE000609570958F2D869586958370823019F128
:104DF000D8F48090520290905302A0905402B09048
:104E00005502813069F04429552966297729CB015B
:104E1000BA01682179218A219B210E94121200CFB8
:104E2000482859286A287B28CB01BA0164297529AA
:104E300086299729F2CF4429552966297729409058
:104E40005202509053026090540270905502CB0170
:104E5000BA016425752586259725DFCF8695DD2047
:104E600011F08F2D8170882309F4DACE8E2D829572
:104E700086958770880F880F6E2D6F70462E512C87
:104E8000712C612C082E04C0440C551C661C771C28
:104E90000A94D2F740E050E0BA01E4FE0FC04FE0C0
:104EA00050E060E070E004C0440F551F661F771F9C
:104EB0008A95D2F740955095609570958F2D86957F
:104EC00086958370823019F1D8F48090D402909046
:104ED000D502A090D602B090D702813069F0442963
:104EE000552966297729CB01BA01682179218A21C0
:104EF0009B210E948C1194CE482859286A287B282F
:104F0000CB01BA016429752986299729F2CF442952
:104F10005529662977294090D4025090D502609097
:104F2000D6027090D702CB01BA016425752586257B
:104F30009725DFCF9F2D9F70F92EDD2029F0892F37
:104F40000E94F1118E2DCACE8E2D0E943D118F2D03
:104F50000E94B21165CE8E2DE2EF8E1609F457C075
:104F6000E81578F0F0EF8F1649F121EF821609F479
:104F700046C0DD2009F46FC0A11035CE8F2D8F7192
:104F800043C033EF831609F447C094EF8912F1CF81
:104F9000DD2009F455C02F2D2F71F22E822F0E9493
:104FA000F1118091570282FD07C038E0F39EC001E5
:104FB0001124836080934D028F2D26C0DD20D1F017
:104FC000E4E0EA1508F42CCE2F2D2F7161E070E09B
:104FD00080E090E004C0660F771F881F991F2A9514
:104FE000D2F74090D4025090D5026090D6027090D3
:104FF000D7029BCFF5E0FA1508F412CEE5CF8F2D3E
:105000008F71DD2009F4A4CF0E94F11109CE8F2DFC
:105010008F71DD20C9F39CCF60E070E0CB01DD2013
:1050200009F467CF2F2D2F7161E070E080E090E0F0
:1050300004C0660F771F881F991F2A95D2F759CF92
:1050400081E00E94D51181E08A1508F0E9CD82E067
:105050000E94D511E5CDAA2059F0893309F076CE0A
:105060009FEFE7EEF3E09150E040F040E1F76CCEC7
:105070008F2D8F716DCFF0E1EF16FFE5FF0609F47C
:1050800079CB21E1E2162FE5F20609F47DCB91E020
:1050900090930E0293EFE9169CE5F90609F4DFCB35
:1050A00008F076CBF8EDEF16FCE5FF0609F4D3CB5C
:1050B00029EDE2162CE5F20609F4DDCB37EDE31617
:1050C0003CE5F30609F075CB26E241EE61EEC8013E
:1050D0000E9430214CCA30E1E3163FE5F30609F4A3
:1050E0004FCB91E1E9169FE5F90609F44FCB1092F9
:1050F0000E02D0CF85E0DE01119601900D928A95C7
:10510000E1F7F801228189819A812111A9C90E94C0
:10511000DF10F82EADC9F6E1EF16FCE5FF06E1F56C
:1051200080910F0269E2811165E380EB91E00E94BA
:105130003510ABCC82722CECE2162CE5F20609F4A9
:10514000EECC08F0A5C096ECE9169CE5F90609F44A
:10515000D2CC08F074C0F3ECEF16FCE5FF0609F4BE
:10516000BECC08F05BC032ECE3163CE5F30609F474
:105170008FCC8AE5E8168DE5F80609F411CD08F024
:10518000EACCE114ECE5FE0609F4FACCFEEDEF16EC
:10519000FCE5FF0609F401CDF8018281E080F18091
:1051A000882309F401CDC7010E94B719D82E682FB2
:1051B000C7010E940711B7018D2D0E9438187C018C
:1051C000882EF801D280A580A2943FE0A32280918E
:1051D0004D028770A1F0CD2CDD2091F08F2D807FC6
:1051E000803421F080E28E0D883048F082E00E9409
:1051F000D51180914D028770CC24C3948111C12CAC
:105200003F2C32942FE03222FBE0F31508F408CD56
:10521000E32DF0E0E15AF84C0C94683494ECE91674
:105220009CE5F90609F462CC42EA5FE16BEA7FE1B2
:10523000E5ECEE16ECE5FE0609F455CC9ACFF9EC58
:10524000EF16FCE5FF0609F460CC88F437ECE316B2
:105250003CE5F30609F454CC46E95FE16AE87FE1F6
:1052600098ECE9169CE5F90609F43DCC82CFEAEC0E
:10527000EE16ECE5FE0609F44DCC44EB5FE165EC7F
:105280007FE1FBECEF16FCE5FF0609F42CCC71CFB7
:1052900021EDE2162CE5F20609F451CCB8F48EECBF
:1052A000E8168CE5F80609F442CC08F43DCCEFECA6
:1052B000EE16ECE5FE0609F43FCC6EE089E0F0ED79
:1052C000EF16FCE5FF0609F434CC53CF24EDE216CB
:1052D0002CE5F20609F439CC78F482EDE8168CE579
:1052E000F80609F42FCC61E088E193EDE9169CE51E
:1052F000F90609F4F1CB3DCFE5EDEE16ECE5FE063F
:1053000009F426CC6AE285E2FDE5EF16FF0609F412
:1053100010CC2FCF1F93CF93DF9380911502807F06
:10532000A9F480911202882389F080914702D091DC
:1053300016026091100270911102A0911302B091B7
:105340001402C62FC72316E0D81304C0DF91CF91F3
:105350001F91089590E0109711F0CF3F19F4019636
:105360008770F2CF189F9001199F300D1124F90119
:10537000E95EFD4F41814713F2CF40814613EFCFE5
:1053800042814111ECCF438154814A1B5B0B483C65
:10539000510528F7809115028F7080618093150266
:1053A000F901E45EFD4F80818F708061808380E130
:1053B00092E00E94F721DF91CF911F910C9433115D
:1053C000AF92BF92CF92DF92EF92FF920F931F9313
:1053D000CF93DF93CDB7DEB761970FB6F894DEBFFA
:1053E0000FBECDBF8C0185E0F801DE011D96019056
:1053F0000D928A95E1F7F80180819181E28020E1A8
:10540000A22E22E0B22E6091130270911402611557
:10541000710509F43EC13091100240911102232F11
:1054200024232F3F09F435C1C380D480F0901202A9
:10543000F601E61BF70BFF2009F4FBC020911502D3
:10544000522F507FE83CF10508F0BBC0511178C0E5
:10545000FE2C491321C038131FC0E1101DC02F704E
:10546000206120931502C5010E94F7218091150249
:10547000F80185838F2D61960FB6F894DEBF0FBEBD
:10548000CDBFDF91CF911F910F91FF90EF90DF90F3
:10549000CF90BF90AF900895CD2829F0282F2923D1
:1054A0002F3F09F014C120E0F22FF170DF2E20FF12
:1054B0003DC0209147024091160256E0241315C0CA
:1054C0008D879E878D859E850E94F919292F2295AB
:1054D0002F702230F8F0243020F59F70F9F0F80199
:1054E0009581907FD9F4D12C1FC030E0529FF001FC
:1054F000539FF00D1124E95EFD4F6181961306C0A4
:105500006081861303C06281E61210C02F5F3F4F97
:105510002770D4CF9F7011F0882329F3805E8830E4
:1055200010F3C8010E94F721FD2CA4CFEE2009F44E
:10553000A1CF80911502816080931502F12C9ACF42
:10554000491312C0381310C0E1100EC0F8012583B2
:10555000C8010E94F72186E0F801A0E1B2E00190C5
:105560000D928A95E1F786CF8D879E878D859E85E2
:105570000E94031A882309F1EE20F9F080911502A8
:10558000803270F0209110023091110238872F8301
:105590001986DB86CA868C87CE0107960E94F72182
:1055A00086E0F801A0E1B2E001900D928A95E1F762
:1055B0000E948A29FF24F3945DCFC8010E94F7213D
:1055C000F9CF51110AC080E192E00E94F72186E0F4
:1055D000F50111928A95E9F7B1CF49130FC038133D
:1055E0000DC0E1100BC0F8012583C8010E94F7210E
:1055F00086E0F50111928A95E9F73CCF8D879E8769
:105600008D859E850E94031A8823B9F2EE20A9F2A7
:1056100080911502803220F2209110023091110207
:105620003A8329831B82DD82CC828E83CE01019650
:10563000B5CFE83CF105E0F6FE2CEE2009F4BDCF35
:10564000491316C0381314C08091150280FD83CF12
:10565000982F907F09F47FCFF8018583903F09F45C
:1056600077CF982F907F905F8F70892B858370CF35
:105670008D879E878D859E850E94031A811190CF0C
:1056800080911502816080931502C8010E94F72164
:10569000F1CEEE2009F491CF8D879E878D859E8572
:1056A0000E94031AF82E882309F487CF86E0F801B8
:1056B000A0E1B2E001900D928A95E1F7809110028D
:1056C000909111020E94F9190E948A29D3CE21E0FB
:1056D0002E25EACE1F93CF93DF93CDB7DEB7679722
:1056E0000FB6F894DEBF0FBECDBF342F4B8B252FE6
:1056F0005C8B6D8B7E8B8F8B8E899F896111109255
:105700004F021A8A198A3D872E876F87998B888B5B
:1057100086E0FE013D96DE01179601900D928A9576
:10572000E1F7CE0107960E94E029882389F016E070
:105730008091470290911602891349C067960FB66F
:10574000F894DEBF0FBECDBFDF91CF911F910895BA
:1057500086E0FE013796DE01119601900D928A9542
:10576000E1F78A859B85892B11F38F8198858923A1
:105770008F3FE9F22091160230E0C901019687704F
:105780009927409147024817190671F40E945B144B
:10579000109216021092470286E0E0E1F2E0DF018B
:1057A0001D928A95E9F7C3CF96E0929FD001939F0F
:1057B000B00D1124A95EBD4FFE01319601900D92EE
:1057C0009A95E1F7809316020E943311B0CF819F22
:1057D000C0011124895E9D4F0E94E029882309F4AD
:1057E000ADCF8091470290E0019687709927809312
:1057F00047029ECFCF92DF92EF92FF920F931F93BB
:10580000CF93F894579A5F98789400C0A0E8B1E0DD
:1058100030E020E0C0E051E04D91E42FE295EF70E0
:10582000F0E080A190E04F7002C0959587954A9571
:10583000E2F780FD1CC0852F022E01C0880F0A945C
:10584000EAF7C82B2F5F3F4F2730310529F787E94B
:105850000E94721320EA2A95F1F780915802C8132A
:1058600008C0C091D401CC23F1F0C0E00EC080E0AC
:10587000E8CFC093580281E08093D4010E94242194
:105880009093D3018093D201C1E08091D201909195
:10589000D3010E941A10069730F08091580280932D
:1058A000A1021092D40180910C0290910D020E94ED
:1058B0001A10893E934060F160916602062F10E055
:1058C00066277727601B710B072E000C880B990B3E
:1058D0000E944C3627EA39E747E45DE30E94D83658
:1058E0006B017C01B801110F880B990B0E944C369B
:1058F0009B01AC01C701B6010E94AF350E941B3667
:10590000609366020E94242190930D0280930C0202
:105910008C2FCF911F910F91FF90EF90DF90CF9040
:105920000895CDB7DEB7AC970FB6F894DEBF0FBEC3
:10593000CDBF84B7877F84BF0FB6F894A8958091B8
:105940006000886180936000109260000FBE80E864
:1059500090E00FB6F89480936100909361000FBEC1
:1059600085B7806885BF85B7806885BF84E190E191
:105970009093AF018093AE010E94890E0E94540F54
:105980008091E20084608093E20078948091C70265
:105990008823A1F01091E9001F709091EC00892FED
:1059A000817090FD80E8182B1092E9008091E8004A
:1059B00083FD0E9470141F701093E90082E084BD83
:1059C00093E095BD9AEF97BD80936E0087E90E94A2
:1059D000721300E811E0A7E8EA2EA1E0FA2ED80140
:1059E0008D918D010E947213E016F106C1F710929D
:1059F00058021092A10290E080E00E9411358A3E88
:105A00009E4F11F00E94601E82E090E00E940335DC
:105A1000809398020E94F817909357028093560241
:105A20000E94FA2BEFE3FCE93197F1F700C0000088
:105A30000E94FA2B8091A10280FF17C06FEF83E2D2
:105A400090E00E9417356FEF84E290E00E941735D6
:105A50006FEF85E290E00E9417356FEF7FEF90E0E7
:105A600080E00E9435350E94051B83E090E00E9493
:105A70000335682F70E090E080E00E94121283E20C
:105A800090E00E940335833209F0AEC584E290E0D5
:105A90000E940335853009F0A7C585E290E00E9499
:105AA0000335863009F0A0C582E080938F0280E83C
:105AB0008093D8020E943D336DE070E081EE95E165
:105AC0000E940314892BE9F580918F0263E070E056
:105AD00081FDC4C18EED95E10E940314892B89F5E7
