:100000000C9444030C948B030C948B030C948B037F
:100010000C948B030C948B030C948B030C948B0328
:100020000C948B030C948B030C94B5210C947121CC
:100030000C94EE280C948B030C948B030C948B0380
:100040000C948B030C948B030C948B030C948B03F8
:100050000C9415290C94CA280C948B030C948B03D4
:100060000C948B030C948B030C948B030C948B03D8
:100070000C948B030C948B030C948B030C948B03C8
:100080000C948B030C948B030C948B030C948B03B8
:100090000C948B030C948B030C948B030C948B03A8
:1000A0000C948B030C948B030C948B0305010902B5
:1000B000A10185020901A1000509190129081500FE
:1000C0002501950875018102050109300931158165
:1000D000257F95027508810609381581257F9501D0
:1000E00075088106050C0A38021581257F95017572
:1000F000088106C0C005010980A101850319012AF4
:10010000B700150126B700950175108100C0050CD8
:100110000901A101850419012AA002150126A002E6
:10012000950175108100C00660FF0961A101096297
:10013000150026FF00952075088102096315002629
:10014000FF00952075089102C005010906A101056F
:100150000719E029E7150025019508750181029529
:1001600001750881010507190029FF150026FF0008
:100170009506750881000508190129059505750181
:100180009102950175039101C00001010101010176
:10019000010101020202020202020202030303033E
:1001A000030303030404040404040405050505050E
:1001B00006060606060707070707080808080909CC
:1001C00009090A0A0A0B0B0B0C0C0C0D0D0D0E0E77
:1001D0000E0F0F0F1010111111121213131414150A
:1001E0001516161717181819191A1A1B1B1C1D1D7E
:1001F0001E1E1F20202122222324242526262728D4
:1002000029292A2B2C2D2D2E2F3031323233343503
:10021000363738393A3B3C3D3E3F40414243444506
:10022000464748494A4C4D4E4F50515354555658E5
:10023000595A5B5D5E5F616264656668696B6C6D8F
:100240006F7072737577787A7B7D7E808283858705
:10025000888A8C8E8F91939596989A9C9EA0A2A343
:10026000A5A7A9ABADAFB1B3B5B7BABCBEC0C2C448
:10027000C6C9CBCDCFD1D4D6D8DBDDDFE2E4E7E908
:10028000EBEEF0F3F5F8FAFDFFFFAA7F55402223CD
:10029000252628292A2C2D2F3032333536383A3B63
:1002A0003D3E4042434547494A4C4E5051535557B5
:1002B000595A5C5E6062646668696B6D6F717375D4
:1002C00077797B7D7F81838587898A8C8E909294D4
:1002D00096989A9C9E9FA1A3A5A7A8AAACAEAFB1E1
:1002E000B3B4B6B8B9BBBCBEBFC1C2C3C5C6C7C92B
:1002F000CACBCCCDCED0D1D2D2D3D4D5D6D7D7D8E5
:10030000D9D9DADADBDBDBDCDCDCDCDCDDDDDDDD36
:10031000DCDCDCDCDCDBDBDBDADAD9D9D8D7D7D63E
:10032000D5D4D3D2D2D1D0CECDCCCBCAC9C7C6C5F5
:10033000C3C2C1BFBEBCBBB9B8B6B4B3B1AFAEAC3B
:10034000AAA8A7A5A3A19F9E9C9A98969492908EE6
:100350008C8A89878583817F7D7B79777573716FBF
:100360006D6B6968666462605E5C5A59575553519B
:10037000504E4C4A4947454342403E3D3B3A383651
:10038000353332302F2D2C2A292826252322000010
:100390000000000000000000000101020304050647
:1003A000080A0C0F1114181C2024292E33393F463B
:1003B0004C535B626A7179818A929AA2AAB2B9C1DE
:1003C000C8CFD5DCE1E7EBF0F4F7FAFCFDFEFFFE69
:1003D000FDFCFAF7F4F0EBE7E1DCD5CFC8C1B9B228
:1003E000AAA29A928A8179716A625B534C463F391C
:1003F000332E2924201C1814110F0C0A080605049A
:1004000003020101000000000000000000002900BC
:100410001E001F00200021002200230024002500D0
:10042000260027002D002E0035002A002B00140086
:100430001A000800150017001C0018000C0012001C
:1004400013002F00300028004B0039000400160074
:10045000070009000A000B000D000E000F0033001A
:100460003400310000004E00E10064001D001B005C
:100470000600190005001100100036003700380092
:10048000E50052000151E000E300E200000000003E
:1004900000002C000000E6006500E4005000510060
:1004A0004F004C00005C3A003B003C003D003E0029
:1004B0003F0040004100420043004400450001006D
:1004C0000100C25C010052000100C35C0100010098
:1004D00001000100010001000100010001004A00CB
:1004E000BF5C500051004F00010001000100C55CDD
:1004F000C75CC95C01000100010000004D00010063
:1005000001000100BD5CBF5CBE5C01000100C65C77
:10051000C85CCA5C0100010001000100010001008B
:1005200001000000000000000100000001000100C7
:100530000100010001000100460000000000000071
:1005400000000000000000000000000000000000AB
:1005500000000000000000000000000000007E0F0E
:1005600000D4FFFFFFC7000000780000000000007B
:1005700000002A2B280000000000000000000000FE
:10058000000000000029000000002C1E3420212261
:1005900024342627252E362D3738271E1F202122CA
:1005A000232425263333362E37381F040506070843
:1005B000090A0B0C0D0E0F10111213141516171833
:1005C000191A1B1C1D2F3130232D35040506070871
:1005D000090A0B0C0D0E0F10111213141516171813
:1005E000191A1B1C1D2F3130354C1E0F0500047FBE
:1005F0003F1F643214643214783C1E1E140A05092D
:10060000025B00030100A0FA0904000001030101DC
:1006100000092111010001224000070581030800A3
:100620000A09040100020300000009211101000170
:100630002222000705820320000107050303200092
:100640000109040200010300000009211101000159
:10065000227B000705840320000A1201100100001C
:1006600000084D5996D80100010200010A03590003
:100670004D003600380000000A0359004D004400C8
:100680004B0000000403090411241FBECFEFDAE081
:10069000DEBFCDBF04B603FE27C080912C0390912E
:1006A0002D03A0912E03B0912F038730904BA740CC
:1006B000B04BD1F410922C0310922D0310922E0304
:1006C00010922F0314BE84B7877F84BF0FB6F894AF
:1006D000A89580916000886180936000109260000E
:1006E0000FBEE0E0F8E3099523E0ACE9B1E001C01A
:1006F0001D92AC32B207E1F711E0A0E0B1E0E8E70B
:10070000F6E502C005900D92AC39B107D9F70E9409
:100710008C220C94FC2A0C940000E8EDF0E080811F
:100720008E7F80831092E2001092DA001092E10036
:10073000A0EEB0E08C9181608C9380818F77808374
:1007400019BCA7EDB0E08C918E7F8C9380818F7E59
:10075000808310920E0308952091E4003091E5000B
:1007600095E6A9012091EC00822F817020FF06C040
:100770008091E80080FF06C080E008952091E800A5
:1007800022FD1AC080911B03882389F0853089F0EF
:100790008091EB0085FD0FC02091E4003091E500D1
:1007A00042175307F9F29150E1F684E0089582E090
:1007B000089583E0089581E00895EF92FF920F93EA
:1007C0001F93CF937C018B010E94AC03C82F811132
:1007D00017C08091E80085FD0BC08091E8008E77FE
:1007E0008093E8000E94AC03882399F3C82F08C0C7
:1007F000F70181917F018093F1000150110949F7C0
:100800008C2FCF911F910F91FF90EF9008958091C1
:100810001D0387FF13C08091E80082FF06C080910E
:10082000E8008B778093E80004C080911B0381115E
:10083000F2CF089580911B038823D9F38091E800BB
:1008400080FFF8CF8091E8008E77ECCF982F9093BF
:10085000E900242F762F50E0891731F07091EC00D9
:100860002091ED005091F00021FD07C09F5F97306F
:1008700071F78093E90081E008953091EB003E7FAD
:100880003093EB003091ED003D7F3093ED003091DF
:10089000EB0031603093EB007093EC002093ED009F
:1008A0005093F0002091EE0027FDE0CF80E0089506
:1008B000CF92DF92EF92FF920F931F93CF93DF932C
:1008C000C8EDD0E088818F7E8883E7EDF0E08081FD
:1008D0008160808384E082BF81E080930E03888101
:1008E0008E7F888302EE10E0F80110821092DA0009
:1008F00081EEC82ED12CF601108288818F778883F3
:1009000088818068888388818F7D888319BC109254
:100910001B0310921C0310921A031092190390EEFD
:10092000E92EF12CF70180818B7F808388818160A3
:10093000888342E060E080E00E942604F601808126
:100940008E7F8083F80180818160808380818860D0
:100950008083F70180818E7F808388818061888396
:10096000DF91CF911F910F91FF90EF90DF90CF908B
:100970000895FC0180912303909124038617970723
:10098000A0F06115710529F49091E8009E7790938D
:10099000E80090E06115710551F4911108C0809153
:1009A000E80082FF34C080E00895BC01F2CF80915E
:1009B0001B038823C1F18530C1F18091E80083FDDC
:1009C00030C08091E80082FDEACF8091E80080FF8E
:1009D000E1CF8091F3002091F200382F611571056D
:1009E00019F02830310558F091E02830310509F030
:1009F00090E02091E8002E772093E800CBCF819102
:100A00008093F100615071092F5F3F4FE7CF8091D4
:100A10001B03882341F0853041F08091E80083FF7B
:100A2000BECF81E0089582E0089583E0089508959F
:100A300080E008958091100308959C014FB7F894C9
:100A400080910A0390910B03A0910C03B0910D03C8
:100A50004FBF821B930B08952FB7F89480910A0320
:100A600090910B03A0910C03B0910D032FBF08953B
:100A70009C01FC0132969FEF80E04191461751F0B6
:100A80009F3F19F4411101C0982F8F5F8630A9F75D
:100A90009F3F09F40895290F311D97FD3A95F901FB
:100AA000628308958091C00281111092C00208955E
:100AB0008091BF029091BE02892B9091BD02892B3B
:100AC00080939E019091C002992391F0892B80938D
:100AD0009E0120E080EA91E0FC013191CF013111CB
:100AE0002F5FF1E0863A9F07B9F721110E94520566
:100AF000E091D502F091D602309731F00280F38177
:100B0000E02D8EE991E0099408952FE0929F800DE9
:100B10001124982F977086958695869525E0829F5B
:100B2000F0011124E657FD4F50E040E080E02191B4
:100B300030E0092E02C0369527950A94E2F721701D
:100B40003327042E01C0220F0A94EAF7822B4F5F4D
:100B50005F4F4530510559F708952FE0929F800D62
:100B60001124982F977041E001C0440F9A95EAF73D
:100B700086958695869595E0899FF0011124E65724
:100B8000FD4F90E080E070E05191DF0111979B01F3
:100B9000082E02C0369527950A94E2F72170219518
:100BA0002527242325272C9301968530910561F76D
:100BB00008958091890290915802981301C0089578
:100BC0008F5F8770FACF882341F080959091BF02A4
:100BD00089238093BF020C9458050895882339F027
:100BE0009091BF02982B9093BF020C9458050895E2
:100BF00020914E0230914F022817390771F09093DF
:100C00004F0280934E02E091D502F091D6023097C8
:100C100021F00084F185E02D0994089520914C0283
:100C200030914D022817390771F090934D0280934F
:100C30004C02E091D502F091D602309721F0068067
:100C4000F781E02D09940895E091D502F091D60244
:100C5000309721F00190F081E02D099480E0089513
:100C6000CF92DF92EF92FF928C3724E1920750F4FB
:100C700069E070E00E94A429CB01FF90EF90DF9023
:100C8000CF900895B0E0A0E0BC01CD016A50774D4F
:100C90008F4F9F4F982F872F762F662725EF38E2AB
:100CA00041E050E00E94CB2A69017A01CA01B901F2
:100CB0000E947A299B01AC01C701B6010E947A29E2
:100CC000672F782F892F99276115710521E08207F9
:100CD000910591F66FEF7FEFCFCF8630E0F4811171
:100CE0001BC0909180009F7D909380002E98282FAC
:100CF00030E0AFEFBFEF0E94ED2A25E030E040E0AA
:100D000050E00E94CB2AC9010E94300690938B00CC
:100D100080938A00089585E090918000906290937E
:100D20008000E5CF282F220F220F220F9091F8028A
:100D30009770922B9093F802987F21E009F420E0BD
:100D40009091F80220FB90F99093F8020C946D06B4
:100D5000FA01811101C0FB0109948091FB02982FD7
:100D60009E7F29F4817082608093FB02089586350E
:100D7000E8F381708465F8CFAF92BF92DF92EF9273
:100D8000FF920F931F93CF93DF93082F162FE90144
:100D9000E42FF0E0E757FE4F611110C0E4915E2FA1
:100DA0004E2F4983E8835A83DF91CF911F910F9192
:100DB000FF90EF90DF90BF90AF900895E62EF12C5A
:100DC0004491D42EE42FF0E026E0829FC00111244C
:100DD0002FEF30E0B9010E94A429802F90E0880F06
:100DE000991F55E5569FD001579FB00D11248A1BBE
:100DF0009B0B982F990F890F5901AE18BF08AE9E13
:100E0000D001AF9EB00DBE9EB00D11245B2F189F78
:100E100080011124012F11275901A01AB10AAE9E99
:100E20008001AF9E100DBE9E100D11245901A81A0D
:100E3000B108AE9CC001AF9C900DBE9C900D1124DA
:100E4000892F9927281B390B2E9FC0012F9F900DAA
:100E50003E9F900D1124E92F62307105A1F050F4EE
:100E60006115710509F49DCF6130710581F0EB2F9B
:100E7000512F97CF6430710569F080F066307105AD
:100E800009F48FCFF4CFE42F4B2F592F8ACFE42FC3
:100E9000412F87CFEB2F542F492F83CF4B2F5D2D21
:100EA000E12F7FCF0E942C059C019091E802809158
:100EB000E902982B21F03093E5022093E40290910F
:100EC000EA028091EB02982B21F03093E20220930A
:100ED000E102E091D502F091D602309749F082E02C
:100EE0008093E6020480F581E02D86EE92E009947D
:100EF000089590E080E00E940E0690E080E00E945D
:100F0000F8051092BE021092BD020E94580586E0BC
:100F1000E6EEF2E0DF011D928A95E9F71092E30216
:100F20001092E002109251020C9452076093280331
:100F30007093290380932A0390932B030C947907D1
:100F40000F931F93609128037091290380912A03C6
:100F500090912B038B019C010670112722273327C8
:100F6000063011052105310529F468601F910F91A4
:100F70000C949607677FFACF0F931F9341E050E0E0
:100F800060E070E004C0440F551F661F771F8A950C
:100F9000D2F7CB01BA01609570958095909500913C
:100FA00028031091290320912A0330912B036023F9
:100FB0007123822393231F910F910C949607909194
:100FC000BC02809589238093BC02282F277039F4B6
:100FD000282F082E000C330B9217130621F4909142
:100FE000C60292FF07C08595859585950E94BC072E
:100FF0001092BC0208950F931F9341E050E060E00F
:1010000070E004C0440F551F661F771F8A95D2F702
:101010008091280390912903A0912A03B0912B037A
:101020008A019B01082B192B2A2B3B2BC901B801E4
:101030001F910F910C9496076093C1027093C202A6
:101040008093C3029093C4020C9479074091E80204
:10105000803F59F48091E90287FF0DC01092E902A8
:1010600041110BC01092E30208C0813F81F48091CE
:10107000E90218169CF3442381F08091EA029091D2
:10108000EB02892B09F05AC01092E0020895823FCA
:1010900049F447FFF0CF1092E8028091E9028111F4
:1010A000ECCFE0CF833F19F41416ACF3E4CF90916A
:1010B000EA02893F29F41916F4F61092EA02DBCF0E
:1010C0008A3F19F497FFD7CFF8CF9091EB028B3F6F
:1010D00029F497FFD0CF1092EB02CDCF8C3F19F4BB
:1010E0001916CCF3C8CF9CE0980F953090F4845F2C
:1010F000990B21E030E0B90102C0660F771F8A9595
:10110000E2F7CB0180959091E70289238093E70273
:10111000B2CF8D3F31F4809151028E7F8093510286
:10112000AACF8E3F21F4809151028D7FF7CF8F3F60
:1011300009F0A1CF809151028B7FF0CF08958823D1
:10114000F1F19CEF980F913A78F4E0EAF1E026EAA9
:1011500031E09191891303C0DF0111971C922E1782
:101160003F07B9F70C94580590E2980F983088F42F
:10117000877021E030E0A90102C0440F551F8A9515
:10118000E2F7CA0180959091BF0289238093BF0244
:10119000E9CF9BE5980F933020F490E080E00C9429
:1011A0000E0698E5980F973120F490E080E00C94BB
:1011B000F805803F20F00E9426080C9452070895FD
:1011C0008091510280FD16C081FD16C082FD16C0BF
:1011D0008091E0028823A1F0883280F428E0829F89
:1011E000C001112468E270E00E94B829862F672BA5
:1011F00039F0089582E0089584E0089588E0089524
:1012000081E008958091510280FD14C081FD14C0D9
:1012100082FD16C08091E302882381F0843180F43E
:1012200022E3829FC001112464E170E00E94B8298A
:10123000862F08958CE0089589E1089585E008954A
:1012400082E30895803F31F40E94020981958093E2
:10125000E9020895813F19F40E940209F8CF823F04
:1012600031F40E94020981958093E8020895833F3A
:1012700019F40E940209F8CF893F29F40E94E0087E
:101280008093EA0208958A3F21F40E94E008819544
:10129000F7CF8B3F31F40E94E00881958093EB02F9
:1012A00008958C3F19F40E94E008F8CF9CE0980F55
:1012B000953070F4845F990B21E030E001C0220F7B
:1012C0008A95EAF78091E702822B8093E7020895DE
:1012D0008D3F31F4809151028160809351020895D5
:1012E0008E3F21F4809151028260F7CF8F3FB9F792
:1012F000809151028460F1CFCF93C82F882309F4E5
:1013000056C08CEF8C0F813AF8F4E0EAF1E086EAFF
:1013100091E0DF012D91C21759F08A179B07D1F791
:101320006C2F8EE991E00E943805CF910C945805FE
:101330002191C21303C0DF0111971C928E179F07E2
:10134000B9F70E945805ECCF80E28C0F883068F422
:10135000C77021E030E001C0220FCA95EAF7809102
:10136000BF02822B8093BF02E0CFEBE5EC0FE330AE
:1013700040F4F0E0E85BFE4F808190E0CF910C9468
:101380000E06E8E5EC0FE73150F4F0E0EE0FFF1F3A
:10139000E55BFE4F80819181CF910C94F805C03FB1
:1013A00030F08C2F0E942209CF910C945207CF91DC
:1013B0000895F894E82FE295EF70F0E031A1282F1E
:1013C0002F7081E090E001C0880F2A95EAF7982FEE
:1013D0009095932391A392A1892B82A37894089549
:1013E0009091C50292FF06C0282F28712830F9F489
:1013F000877F846093FF06C0282F28712831F1F47D
:10140000877E84612091C60220FF06C0382F387184
:101410003830D9F4877F816021FF06C0282F2871DA
:101420002831D1F4877E816194FD877E0895282F2D
:1014300024712430F9F68B7F8860DCCF282F24714B
:10144000243101F78B7E8861DDCF382F3171313047
:1014500019F78E7F8860E0CF282F2171213121F785
:101460008E7E8861E1CFCF9384E090E00E94512A84
:10147000C82F82E290E00E94512A982F8C2FCF91A2
:1014800008950F931F93CF93DF93C42FD0E0CC0F19
:10149000DD1F2EE1629FC00DD11D112436E9839F0F
:1014A000C00DD11D1124CE0187960E94512A082F0C
:1014B00010E0102F0027CE0188960E94512A980133
:1014C000282BC901DF91CF911F910F910895462FCD
:1014D000843038F4753028F46F3018F4672F0C948A
:1014E000410A90E080E00895CF93DF930E94670A5D
:1014F000EC0182389105A9F1D8F58133910509F401
:1015000096C048F58932910509F48AC08A9709F492
:1015100095C0C11521E5D20708F0BCC0C11530E562
:10152000D30708F014C1C83ED10508F09CC0C03EE6
:10153000D10560F5C83AD10508F087C0C53AD10594
:1015400008F0FDC0C130D10509F12097F9F0C43091
:10155000D105E0F440C08533910509F45AC0C9971C
:10156000C1F68091C502837089F0C0EED0E00EC054
:10157000833E910599F170F4803E910501F1823E20
:10158000910539F68091C50282FD21C0CE01DF911F
:10159000CF910895863E910561F1873E910571F1E5
:1015A000843E910509F0B5CF8091C60281FFEECF50
:1015B0008091C502C7EED0E084FD0DC0E7CF8091D9
:1015C000C50280FD12C19091C60290FFDFCFC3EE2D
:1015D000D0E084FFDBCFD0E0C0E0D8CF8091C5025F
:1015E00082FD06C19091C60290FDBFCF84FFCECF91
:1015F000F2CF8091C50283FDDDCFC8CF8091C502B7
:1016000083FDF9C09091C60291FFF0CFC4EED0E007
:10161000BDCF8091C50285FFB9CFC9E2D0E0B6CF7A
:101620008091C50285FFB2CFC5E3D0E0AFCF8091F6
:10163000C50286FFABCFCAE2D0E0A8CF8091C50239
:1016400086FFA4CFC1E3D0E0A1CFCF3BD10518F6F0
:10165000C85AD0E0CC0FDD1FC55BDE4F0990D881A2
:10166000C02DD46493CFC11540E2D40758F4C115FE
:1016700081E0D80708F08ACFC03FD10508F4ABCF8E
:10168000D06584CFC11590E4D90708F4A4CFDF70EA
:10169000D06A7CCFC11525E5D20700F5C11534E528
:1016A000D30708F08AC0C11543E5D40708F071C01C
:1016B000C11582E5D80708F467C0CE018370992769
:1016C00021E030E002C0220F331F8A95E2F7C69571
:1016D000C69580E2C89FE001112452C0C11599E56A
:1016E000D907A8F4C11528E5D20708F06BC0C115C9
:1016F00036E5D30708F06FCF8C2F0E94F009C82F72
:10170000D0E0DC2FCC27CC27DF71D0623FCFC115D2
:101710004AE5D40708F45BC0CE019056811590428B
:1017200008F059CF8D2F8F710E94F00990E0982F0B
:10173000882788279F719C012C2BE901E6CFC55A89
:10174000D0E0C85BDE4FC881D0E0D0641FCFCE01AF
:10175000E4E096958795EA95E1F783702C2F26951E
:101760002695237040E2249F90011124382B8C2F62
:101770008370C1E0D0E002C0CC0FDD1F8A95E2F794
:10178000C22BD32BDC6802CFDC2FCC27C16FD06AF1
:10179000FDCECE018370992721E030E002C0220FF8
:1017A000331F8A95E2F7C695C69590E2C99FE0017E
:1017B0001124C22BD32BDA68E9CEDC2FCC27C46FDF
:1017C000D06AE4CEDC2FCC27C06FD06ADFCE8C2F5E
:1017D0008F700E94F00934E0D695C7953A95E1F7ED
:1017E000CF709C2FEC01D069D1CEC9E3D0E0CECE32
:1017F000C2EED0E0CBCEC6EED0E0C8CEBF92CF9244
:10180000DF92EF92FF920F931F93CF93DF938C01A0
:10181000C0902803D0902903E0902A03F0902B0376
:101820008091C1029091C202A091C302B091C40202
:10183000C82AD92AEA2AFB2ACFE1D0E0BC2ED70158
:10184000C6010C2E04C0B695A795979587950A9466
:10185000D2F780FD0EC0219788F7B12C8B2DDF9138
:10186000CF911F910F91FF90EF90DF90CF90BF909D
:101870000895B8018C2F0E94740A019761F3EECF8E
:10188000CF93DF93EC010E94FE0BBE01DF91CF915D
:101890000C94740A0E94400C292F2F7092959F700F
:1018A00092509E3078F4E92FF0E0E250F54D0C9420
:1018B000CC29803F19F020F4883E20F481E008957F
:1018C000843FE1F380E00895883EC0F3813FD1F783
:1018D000F5CF822F86958695869508956F927F9293
:1018E0008F929F92AF92BF92CF92DF92EF92FF9230
:1018F0000F931F93CF93DF938EE0C82E84E0D82EF2
:101900009BEDE92EF12CE701C659D10936011BC028
:10191000F50185909490692DC8010E94652A682D73
:10192000C80101960E94652A82E0A80EB11C0E5FD4
:101930001F4FC017D10761F78EE1680E711C6E96BC
:10194000CE15DF0529F08E010E5111095301E0CFAC
:101950007E0186E9E80EF11C86E9C80ED11C83E3FE
:10196000E81683E0F80679F6DF91CF911F910F9189
:10197000FF90EF90DF90CF90BF90AF909F908F90AF
:101980007F906F900895CF93C091C602C2FB9927B4
:1019900090F9981781F080FBC2F9C093C60260915C
:1019A000C50284E090E00E94652A6C2F82E290E0FC
:1019B000CF910C94652ACF910895CF93DF93CFE711
:1019C000D2E060E0CE010E94652A2196C11584E034
:1019D000D807B9F7DF91CF910895682F86E090E09E
:1019E0000C94652A8091F80281FF11C08D7F80934D
:1019F000F8020E94ED0C80916F008E7F80936F0043
:101A00008091F8028695869586950C946D060895CA
:101A10008091F80281FD10C082608093F8020E94DC
:101A2000ED0C1092C9021092C8021092C702809168
:101A30006F00816080936F000895CF93DF9300D093
:101A40000F92CDB7DEB790911B03943011F58983C7
:101A50007B836A839093E9008FEF9091E800815037
:101A600095FD06C095ED9A95F1F700008111F5CF2F
:101A70008091E80085FF0DC050E040E063E070E039
:101A8000CE0101960E94DD038091E8008E7780935D
:101A9000E8000F900F900F90DF91CF910895BC0157
:101AA00084E00C941D0DBC0183E00C941D0D9C0181
:101AB00084E08093E9009FEF8091E800915085FDDC
:101AC00006C085ED8A95F1F700009111F5CF809160
:101AD000E80085FF0CC050E040E066E070E0C9011E
:101AE0000E94DD038091E8008E778093E8000895DE
:101AF000CF93DF93EC0181E08093E9008FEF909129
:101B0000E800815095FD06C095ED9A95F1F700002B
:101B10008111F5CF8091E80085FF14C050E040E0CE
:101B200068E070E0CE010E94DD038091E8008E77CE
:101B30008093E80088E0FE01A1E1B3E001900D92FE
:101B40008A95E1F7DF91CF91089581E08093E000DD
:101B500080E28093D8001092C9008FE19EE4019743
:101B6000F1F700C0000087E090EBDC0180932C03CC
:101B700090932D03A0932E03B0932F0388E19CE054
:101B80000FB6F894A895809360000FBE9093600004
:101B9000FFCF1F93CF93DF93182FD0E0C0E089339E
:101BA00011F4C0E5D0E0812F0E947C09209731F428
:101BB000812FDF91CF911F910C949F088FE99FE0B7
:101BC0000197F1F700C000002197F0CF0F931F930A
:101BD000CF93DF93C62FD42F022FFC01828188235D
:101BE000A1F0609327030E942C0590932603809315
:101BF0002503C77081E001C0880FCA95EAF7DF911D
:101C0000CF911F910F910C94EE05809127036813DB
:101C100035C080912503909126030E941D05883CC4
:101C2000910560F510E21D0FCD17B9F080E28C0F21
:101C3000883040F4C77081E001C0880FCA95EAF788
:101C40000E94E305183048F481E09D2F977001C091
:101C5000880F9A95EAF70E94EE05802F0E94C90D21
:101C6000183098F4D77081E001C0880FDA95EAF750
:101C7000DF91CF911F910F910C94E305C77081E024
:101C800001C0880FCA95EAF7F3CFDF91CF911F917A
:101C90000F9108958091FB0280FD0AC0ECEAF1E00B
:101CA000118210821282339651E0E83EF507C1F7A7
:101CB0006A9A3EB13B7F2EB124604FB7F8948CEA0C
:101CC00091E0FC015191CF0168E02EB9000000C005
:101CD00057FF3EB9550F000000C000C000C03EB91C
:101CE00000C06A9591F7F1E0883E9F0751F74FBF1A
:101CF0008FE594E00197F1F700C000000895EF929E
:101D0000FF921F93CF93DF93EC018CEAE82E81E0E2
:101D1000F82E10E08C8197014091FE026091FD0247
:101D2000810F0E94BC06145F83E0E80EF11C103F97
:101D300089F70E944A0E9A818C8190FF08C08F5FBC
:101D40008C83DF91CF911F91FF90EF900895815088
:101D5000F7CFBF92CF92DF92EF92FF920F931F9334
:101D6000CF93DF93FC018281DD24DA9480FD02C0F1
:101D7000DD24D3940CEA11E0D0E0C0E024E1B22EDF
:101D8000F80111821082128294E0E92EF12CC12C0C
:101D90008091A9018C0D85310CF43DC06B2D0E9402
:101DA0009629892F082E000C990B8C179D0791F40A
:101DB0008091FE028E9DA0018F9D500D112455959E
:101DC00047955595479598016091FD028091FC02D9
:101DD0000E94BC06CD0CF1E0EF1AF108C9F621967D
:101DE0000D5F1F4FC431D10559F60E944A0E8091F4
:101DF000A90191E0D91215C0811111C083E180932E
:101E0000A901DF91CF911F910F91FF90EF90DF908B
:101E1000CF90BF90089587FFC5CF8C5EC3CF815010
:101E2000EECF90E00196BE010E94B829E8CF0F9353
:101E30001F93CF93DF93CCEAD1E0FE011182108291
:101E40001282339681E0E83EF807C1F710E000E027
:101E50008091AA01082E000C990B081719078CF124
:101E600080911001082E000C990B801791074CF1FE
:101E70009E014091FE026091FD028091FC020E9451
:101E8000BC060F5F1F4F23960431110509F70E940E
:101E90004A0E80910F019091AA01980F9093AA0188
:101EA00020911001280F20931001121614F4933181
:101EB0001CF0819580930F01DF91CF911F910F91BD
:101EC0000895198218821A82DCCF8F929F92AF9266
:101ED000BF92CF92DF92EF92FF920F931F93CF9317
:101EE000DF93EC014C81042F10E09801D8010E948F
:101EF000ED2A9B01AC010E94B82A4B015C01E0E293
:101F0000F0E0E01BF10BA5E5B0E0AC019B010E9405
:101F1000B82A6B017C019F01DF010E94D9299B0136
:101F2000AC010E94C32A9B01AC01280D391D4A1D3A
:101F30005B1DC701B6010E94CB2AF22E822F90E0D2
:101F400039E23F15D8F143E0249F900111243595E3
:101F50002795122F10959CEAC92E91E0D92E00E00A
:101F600085E5E82EEF188E2D01FD8F2D9601412F6E
:101F70006091FD020E94BC060F5F53E0C50ED11CAC
:101F8000043189F70E944A0E9C8181E0992319F05F
:101F9000903219F48FEF8093110180911101890F14
:101FA0008C83DF91CF911F910F91FF90EF90DF9085
:101FB000CF90BF90AF909F908F90089525E530E02F
:101FC000A901481B590BCA019A01220F331F280F80
:101FD000391F37FFBCCF2F5F3F4FB9CFEF92FF9232
:101FE0000F931F93CF93DF938C01CCEAD1E0F12CB8
:101FF000E12CF80194816091FD028091FC02FAE0ED
:10200000EF16F104FCF49923F9F09E014091FE02D1
:102010000E94BC062FEFE21AF20A239684E1E8162A
:10202000F10439F70E944A0EF801848190E001968C
:10203000817099278483DF91CF911F910F91FF9039
:10204000EF900895992309F39E0140E0E1CF90912C
:10205000FB0290FF0CC0ECEAF1E0818360834283D5
:10206000339691E0E83EF907C1F70C944A0E0895C3
:102070000F931F93CF93DF9300D00F92CDB7DEB7AE
:102080008C018091AB0181110AC09E012F5F3F4FEF
:102090004FEF6FEF0E94BC068A818093AB01F8017D
:1020A0006481613069F08091AB0140E0662361F0AA
:1020B00040E0623011F44091AB0180E060E004C088
:1020C0006091AB0140E080E00E942710F80184811C
:1020D00090E0019663E070E00E94B82984830F903D
:1020E0000F900F90DF91CF911F910F910895CF9393
:1020F000DF9300D00F92CDB7DEB79091FB0290FF37
:102100000AC09E012F5F3F4F0E94BC064B81698130
:102110008A810E9427100F900F900F90DF91CF912E
:102120000895CF93DF93EC01EC81F0E0E257FD4F8F
:102130004491EBEFF2E0628181810E9477108C8103
:102140008F5F8C83DF91CF910895CF93DF93EC0164
:10215000EBEFF2E0438162818C810E9477108C81E9
:102160008F5F8C83DF91CF9108956F927F929F92C2
:10217000AF92BF92CF92DF92EF92FF920F931F9395
:10218000CF93DF9399E7E92E91E0F92E10E000E07C
:10219000C0E0CC24C394D12C34EDA32E32E0B32E76
:1021A000D7018D917D01F894E82FE295EF70F0E072
:1021B00021A18F70A60102C0440F551F8A95E2F736
:1021C000CA01922F982B91A392A18095892382A373
:1021D000789400C0A601002E02C0440F551F0A9437
:1021E000E2F7BA0160957095EAECF2E088E8682EB3
:1021F00081E0782ED0E021913191D3019D903D0175
:10220000892D82958F7090E0DC0190968C9190E002
:10221000B92DBF7002C095958795BA95E2F780FDFC
:102220005EC0C901842B952B2817390739F09F010F
:1022300022503109D9018D939C93D1E0AE16BF068F
:10224000D1F6F701319780810E94D909B0EABA9599
:10225000F1F7CD2B0F5F1F4F0F30110509F0A0CF05
:10226000CC2309F440C081E08093A8010E942C0592
:102270009093A7018093A6018091A6019091A70158
:102280000E941D05069798F18091CA029091CB0299
:1022900090930103809300038091CC029091CD0232
:1022A00090930303809302038091CE029091CF021A
:1022B00090930503809304038091D0029091D10202
:1022C00090930703809306038091D2029091D302EA
:1022D00090930903809308031092A80108C0C901D4
:1022E00086239723A1CF8091A8018111C5CF8C2F80
:1022F000DF91CF911F910F91FF90EF90DF90CF90E2
:10230000BF90AF909F907F906F9008954F925F9293
:102310006F927F928F929F92AF92BF92CF92DF92F5
:10232000EF92FF920F931F93CF93DF93FC01628094
:10233000448081E08483EEE8F2E07490EDE0F3E025
:10234000E491C8EED1E03CEAE32E31E0F32E4CE418
:10235000C42E42E0D42E52E0A52EBB24B394882490
:102360008A94912C55245A94E7190E2F10E082E09C
:10237000861530F08091FC0288838091FD0289836C
:10238000411021C01B821A8297014A81698188818C
:102390000E94BC06259683E0E80EF11CCC16DD06F3
:1023A00031F7DF91CF911F910F91FF90EF90DF9068
:1023B000CF90BF90AF909F908F907F906F905F90E5
:1023C0004F900C944A0E8B818823E9F081508B83C7
:1023D000859DC00111246C8170E00E94A429FB013D
:1023E000FF27E257FD4F8491E82FE719E59DC001D3
:1023F0001124B8010E94A4298091FE02689FB001B7
:1024000011247A83C1CF0E94342A2091FE0226959E
:1024100021582A9DA0012B9D500D1124452F552791
:10242000841795070CF0B0CF82E0861588F40E94DF
:10243000342AB4010E94B82988830E94342A20914A
:10244000FD022695622F70E00E94B829280F29838B
:102450001A828091FE02893C20F088EC8C838B8369
:1024600093CF8431D8F784E1F9CF6AEE7EEF90E024
:1024700080E00E94832A60E082E090E00E94652A6A
:1024800060E083E090E00E94652A1092C102109201
:10249000C2021092C3021092C40260E084E090E095
:1024A0000E94652A60E082E290E00E94652A60E076
:1024B00085E090E00E94652A60E086E090E00E945E
:1024C000652A6FEF87E090E00E94652A40E050E0C7
:1024D000BA0188E090E00E94772A60E08DE090E009
:1024E0000E94652A40E050E0BA0188E190E00E9435
:1024F000772A60E087E190E00E94652A40E050E0A2
:10250000BA018CE190E00E94772A70E060E080E2FE
:1025100090E00E94832A40E050E0BA0188E190E018
:102520000E94772A40E050E0BA018FE090E00E94DC
:10253000772A40E050E0BA0183E190E00C94772ADA
:1025400090E080E00E945F2A8A3E9E4F51F00E94F8
:1025500035128091F802847089628093F8020E949B
:10256000ED0C86E090E00E94512A8093F8028033BF
:1025700020F0877088628093F8029091F802892F8A
:10258000817090FF04C0892F8695869586950C945E
:102590006D06CF92DF92EF92FF926B017C010E9459
:1025A000AD06B701A60188E090E0FF90EF90DF90C4
:1025B000CF900C94772A5F926F927F928F929F9226
:1025C000AF92BF92CF92DF92EF92FF920F931F9341
:1025D000CF93DF9300D00F92CDB7DEB7182F762EB2
:1025E000042F622E9091FB0290FF29C0E92FE695FF
:1025F000AE2FB0E0A35EBE4F8C918093F9029E7F18
:10260000923081F59E012F5F3F4F812F0E94BC06C3
:102610004B8169818A810E9427101093FC0270927D
:10262000FD020093FE02662051F06091FB02709162
:10263000FC028091FD029091FE020E94C9120F904F
:102640000F900F90DF91CF911F910F91FF90EF901E
:10265000DF90CF90BF90AF909F908F907F906F90C2
:102660005F900895823019F40091FE02D6CF863033
:1026700019F41091FC02D1CF8930D9F3893169F670
:10268000E9518E2F8170582EE695F0E0E757FD4F07
:10269000A590B490BB248CEAE82E81E0F82ED12CD2
:1026A000C12C94E1892E912CC601B4010E94A42969
:1026B000812F511013C0860F9701402F672D0E9464
:1026C000BC06CA0CDB1C83E0E80EF11C88EEE816A1
:1026D00081E0F80649F70E944A0E9FCF861BECCF97
:1026E000EBEFF2E0438128E0421B08F440E021E0F8
:1026F000628181810C94DB12EBEFF2E0438128E0F0
:10270000420F08F44FEF21E0628181810C94DB12CB
:10271000EBEFF2E0628128E0621B08F460E021E068
:10272000438181810C94DB12EBEFF2E0628128E0BF
:10273000620F08F46FEF21E0438181810C94DB127A
:10274000EBEFF2E0818121E04381628188500C94BB
:10275000DB12EBEFF2E0818121E043816281885F4F
:102760000C94DB128091FF02882319F08150809332
:10277000FF026091FB027091FC028091FD0290913A
:10278000FE020C94C9128091FF02833018F48F5F0F
:102790008093FF026091FB027091FC028091FD0228
:1027A0009091FE020C94C912EBEFF2E083E080837B
:1027B00011828FEF82838383148260817181828191
:1027C00093810C94C9121092BF02E0EAF1E086E016
:1027D000DF011D928A95E9F70C9479071F93CF9337
:1027E000DF93CDB7DEB7AA970FB6F894DEBF0FBE62
:1027F000CDBF8DE193E02091F100DC012D93CD015F
:10280000B3E085329B07B9F780911E03833009F44A
:1028100071C0B8F4813009F448C0823009F4B2C004
:102820008091E80083FF3AC180911D0390911E03BF
:102830009A3008F033C1E92FF0E0E45FF44D0C94D6
:10284000CC298A3009F48DC08B3009F470C08930EE
:1028500039F780911D03813219F7809121039091FE
:102860002203009711F00297D9F68091E800877F44
:102870008093E8008091E80082FF37C09091F300D8
:102880008091F200029729F48091F1008B7F8130D2
:1028900021F48091F100809310038091E8008B7700
:1028A0008093E8000E940704BBCF80911D03813A0A
:1028B00009F0B6CF8091E800877F8093E80080918F
:1028C000210390912203892B61F468E081E193E078
:1028D00070E00E94B9048091E8008B778093E80053
:1028E0009FCF60E090E080E0F3CF80911B038111E7
:1028F000C1CF96CF80911D03813A09F091CF80918D
:10290000210390912203892B09F08ACF8091E8005E
:10291000877F8093E8008091E80080FFFCCF809162
:102920001C018093F1008091E8008E77B9CF8091EF
:102930001D03813209F074CF80912103909122030D
:10294000892B09F06DCF8091E800877F8093E800A4
:102950000E94070480911F0380931C010E94E313CF
:102960005FCF80911D03813209F05ACF8091E8003A
:10297000877F8093E8000E94070480912003809362
:102980000F034ECF80911D03813A09F049CF80910A
:10299000E800877F8093E8008091E80080FFFCCF0B
:1029A00080910F03BECF803899F0823809F076C04D
:1029B000809121038F70873008F070C08093E90008
:1029C0008091EB0085FB882780F91092E90006C012
:1029D0008091190390911A03911182609091E800FF
:1029E000977F9093E8008093F1001092F10080911E
:1029F000E8008E77B5C1882309F4A2C1823009F0BE
:102A00004DC080911F038111A6C1809121038F7059
:102A10002FEF280F263008F041C08093E900209165
:102A2000EB0020FF98C1933031F48091EB0080627D
:102A30008093EB0090C19091EB0090619093EB003C
:102A400021E030E001C0220F8A95EAF72093EA00E6
:102A50001092EA008091EB008860EACF81111EC0DD
:102A600010911F031F778091E3008078812B809362
:102A7000E3008091E800877F8093E8000E940704CC
:102A80008091E80080FFFCCF8091E3008068809314
:102A9000E30082E0111183E080931B038091E80042
:102AA00083FF0AC08091E800877F8093E8008091CF
:102AB000EB0080628093EB00AA960FB6F894DEBF1D
:102AC0000FBECDBFDF91CF911F9108958058823006
:102AD00028F720911F03309120032C3DE3E03E07AF
:102AE000A1F583E08A838AE289834FB7F894DE01F7
:102AF000139620E03EE051E2E32FF0E050935700C0
:102B0000E49120FF03C0E295EF703F5FEF708E2FDE
:102B100090E0EA30C0F0C7968D939D932F5F2431EB
:102B200059F74FBF8091E800877F8093E8006AE201
:102B300070E0CE0101960E94B9048091E8008B7785
:102B40008093E800ABCFC096E7CF809121039091AE
:102B50002203432F55274330510509F44AC078F525
:102B60004130510509F47AC08BE590E0EFEFF5E0D4
:102B70004230510509F092CF2091E800277F209341
:102B8000E80020912303309124038217930708F46F
:102B90009C0140E02115310509F065C0411163C079
:102BA0008091E80082FDC9CF80911B03882329F220
:102BB000853019F28091E80083FFF2CFBECF413219
:102BC000510509F43CC04232510509F067CF83300A
:102BD000910508F063CFFC01EE0FFF1FE057FE4F99
:102BE0000190F081E02D83579E4FDC018C9190E0A5
:102BF0001AC0332721303105D1F02115310561F09C
:102C00002230310509F04ACFECE6F6E0E4918E2F50
:102C100090E0ECE6F6E007C0E4E8F6E0E4918E2F01
:102C200090E0E4E8F6E0009709F438CFA5CFE8E7B4
:102C3000F6E0E4918E2F90E0E8E7F6E0F4CF833001
:102C4000910508F02BCF880F991FFC01EA56FE4F23
:102C50000190F081E02D89E090E08ECF82E190E05C
:102C6000EAE5F6E089CF80911B03882309F465CF5C
:102C7000853009F462CF8091E80083FD5ECF8091BA
:102C8000E80082FD8DCF8091E80080FF83CF909196
:102C9000F3008091F2002115310519F0883091057B
:102CA00050F041E0089709F040E08091E8008E770D
:102CB0008093E8006FCF44914093F100319621500A
:102CC00031090196E8CF803809F0E8CE8091E8001C
:102CD000877F8093E80080911C038093F10087CE6A
:102CE0008111DCCE10911F03123008F0D7CE8091F5
:102CF000E800877F8093E80010931C030E9407047C
:102D0000112311F084E005C08091E30087FDFACF24
:102D100081E080931B0342E061EC81E00E94260485
:102D200042E261EC84E00E94260442E261EC82E02F
:102D30000E94260442E260EC83E00E942604AECEAC
:102D400080911F03813009F0A9CE81E0933009F012
:102D500080E080931A031092E9008091E800877F59
:102D60008093E8000E94070499CE6091FB0266956B
:102D700070E04BE050E084E091E00E94442A892B0F
:102D800019F481E08093FA020E942C059093DB02F3
:102D90008093DA0208959091FB0290FF36C0917003
:102DA000811129C092609093FB02662351F06091DB
:102DB000FB027091FC028091FD029091FE020E9444
:102DC000C9126091FB02669570E04BE050E084E030
:102DD00091E00E94442A892BA9F01092FA0281E026
:102DE0008093DD0220E04091FE026091FD0280911F
:102DF000FC020C94DB128B3210F09465D4CF880F58
:102E0000982BD1CF0E94B516EACF08958091FB028E
:102E10008695815009F48AE261E00C94CB1680918A
:102E2000FB0286958F5F8B3208F081E061E00C94A5
:102E3000CB169091FB0290FF07C09695981720F053
:102E4000961710F40C940F1761E00C94CB163F9278
:102E50004F925F926F927F928F929F92AF92BF92AA
:102E6000CF92DF92EF92FF920F931F93CF93DF9356
:102E700000D000D00F92CDB7DEB78C01FC0183816A
:102E80009481892B31F08081918189238F3F09F0D2
:102E900014C60F900F900F900F900F90DF91CF916D
:102EA0001F910F91FF90EF90DF90CF90BF90AF9068
:102EB0009F908F907F906F905F904F903F9008957C
:102EC0000E94FE0BF82E682F89819A810E94AD0521
:102ED00069817A818F2D0E94670A7C01F8018281C5
:102EE000882309F4BDC5C70182519F45409708F06A
:102EF000A0C58FEF93E00E94512AFEEEEF0E5FE730
:102F0000852E52E0952E882381F18091BC02877036
:102F100009F4BFCFF8018281882309F4BACF82E097
:102F20000F900F900F900F900F90DF91CF911F9106
:102F30000F91FF90EF90DF90CF90BF90AF909F9058
:102F40008F907F906F905F904F903F900C94DF0731
:102F5000811424E09206C9F2C4010E94512A811111
:102F600001C0EA943FEF831A930AE110F1CF1C826B
:102F70001B82442443944AE0342E74018FEFE81AF4
:102F8000F80AC4010E94512A89831A82882309F40D
:102F9000BCCF9FEF980F933000F58A83498292E06F
:102FA000890E911CC7010E94512A8B83882309F442
:102FB000ACCFFE0131967F01F70120812223E9F297
:102FC000213009F049C091818281913041F4F2E0D1
:102FD000EF0EF11C0E94C90D09C04701EACF9230E3
:102FE00049F422E0E20EF11C0E947C093FEFE31A53
:102FF000F30AE2CF933031F432E0E30EF11C0E9489
:103000009F08F4CF943021F08FEFE81AF80AEECF42
:1030100092E0E90EF11C30E020E0B7016F5F7F4FD6
:10302000F70141818053990B8A30910550F021506E
:103030003109E0F28FE99FE00197F1F700C000004D
:10304000F6CF329EF001339EF00D11249C012E0F1D
:103050003F1F842F7B01E1CFE22FF0E0E659FA4FCA
:103060005490822F86958695869590E0FC01E65ACD
:10307000FA4F64902770712C022E02C075946794E9
:103080000A94E2F7E1E06E227724FC01E65BFA4F56
:10309000A490B12C022E02C0B594A7940A94E2F732
:1030A000F1E0AF22BB24FC01E65CFA4FC490D12CC6
:1030B00002C0D594C7942A95E2F721E0C222DD240C
:1030C0006114710419F081EE0E947C09A114B1040D
:1030D00019F086EE0E947C09852D0E94C90DAB284F
:1030E00019F086EE0E949F08672819F081EE0E9471
:1030F0009F08CD2809F47ACF8CE26CCF81E00E9442
:10310000FB070E94A00701CF81E00E94BC07F9CF16
:1031100082E0F5CF82E0F9CF85E00E9492068091AF
:10312000F8020E94ED0CF1CE80E0F7CF8091F8021A
:10313000982F987F79F088508093F802887F91E0EB
:1031400009F490E08091F80290FB80F98093F802F6
:103150000E94ED0C8091F8028695869586950E94D6
:103160006D06D3CE8091F802982F969596959695F8
:10317000953040F49F5F990F990F990F8770892BB5
:103180008093F8028091F8028160E0CF8091F8028C
:1031900080FF07C08E7F8093F8020E94ED0C80E0D4
:1031A000DECF80FDB2CE81608093F802813019F4C9
:1031B00089E08093F8028091F802CACF9091F802DA
:1031C000892F8695869586958F5F8F71977086304B
:1031D00048F4880F880F880F892B8093F80280911C
:1031E000F802ACCF9093F802FACF8091F80281FFF9
:1031F00003C00E94F20C89CE0E94080D86CE27E201
:1032000045EE65EE56C426E241EE60EE52C427E27A
:1032100045EE64EE4EC426E241EE62EE4AC428E278
:1032200041E0EFCF8091C502806126E0E2162CE5F7
:10323000F20609F498C08091C502886037E0E31671
:103240003CE5F30608F48FC08091C50280628BC014
:103250008CE0E8168CE5F80609F49AC078F48091C1
:10326000C5028C60EAE0EE16ECE5FE0609F47BC0D0
:1032700008F488C08091C5028E7F75C08091C50218
:10328000877F2EE0E2162CE5F20609F46CC08091EF
:10329000C5028B7F3FE0E3163CE5F30608F463C00C
:1032A0008091C5028F7E5FC08BEFE8168CE5F80633
:1032B00009F460C068F5E3E1EE16ECE5FE0609F4FA
:1032C00077C090F421E1E2162CE5F20609F46CC017
:1032D00032E1E3163CE5F30609F071C50E94E31301
:1032E0008091C5028F773FC085E1E8168CE5F8062E
:1032F00009F466C008F47AC08091C6028160EAEFE2
:10330000EE16ECE5FE0609F05AC58093C60257C5D5
:10331000FFEFEF16FCE5FF0609F44EC068F480915C
:10332000C6028D7F3DEFE3163CE5F30671F3A0F195
:103330008091C6028360E9CF91E0E9169DE5F90628
:1033400009F45DC008F448C060E0F2E0EF16FDE566
:10335000FF0609F034C58EE090E00E94652A2FC573
:103360008091C50281608093C50229C58091C50204
:103370008460F9CF8091C6028260C7CF8091C50278
:103380008064F1CF0E94E3138091C5028068EBCF87
:103390008091C5028D7FE7CF8091C6028E7FB5CF29
:1033A0008091C5028F7DDFCF8091C5028F7BDBCFFF
:1033B0008091C502837FD7CF8091C6028C7FA5CF35
:1033C0008091C50282FB992790F921E0922790FB1A
:1033D00082F990FB83F9C7CF8091C602982F909510
:1033E00091708E7F892B90FB81F98FCF0E94E31320
:1033F0009091C502892F97FB87F98058B4CF61E07F
:10340000AACF8091BF0226E1E2162CE5F20609F070
:1034100065C38A7A91E009F490E09093500269E2E2
:10342000811165E38EE991E00E9438050E945805FC
:103430006CCD85E35CC48091FB0280FF1BC08E7F56
:103440008093FB026091FB027091FC028091FD026F
:103450009091FE020E94C9121092FA023FEF80E79B
:1034600092E0315080409040E1F700C000000E949F
:103470004A0E4BCD81608093FB0261E086950E94ED
:10348000CB1643CD46E057E16FE077E10E94A806F6
:103490003CCD4FE057E166E077E1F8CF49EA53E1F0
:1034A00060EA73E1F3CF48E853E164E973E1EECFFA
:1034B00040E753E16CE773E1E9CF4CE753E160E7A4
:1034C00073E1E4CF43EC53E162EB73E1DFCF61E002
:1034D00081E0D5CF65E082E00E94191716CD68E043
:1034E00086E0FACF64E18FE0F7CF67E185E1F4CFC2
:1034F00062E289E1F1CF61E083E2C1CF8BE5E816BA
:103500008DE5F80611F19CE5E9169DE5F90609F04F
:1035100017C38091C60282FB882780F991E0892732
:103520000E94C30C0DC30E94E313EFEFF4E32CE001
:10353000E150F0402040E1F700C000000E94A50DDE
:103540000E943512E2CC81E0EBCF80E0E9CFC701E9
:103550000E948505D82E03C32F2D2F70A22E8F2DEC
:10356000807F19F0A29490EFA922DD20C9F0AA2053
:1035700069F080E28E0D883010F081100BC08091D0
:10358000BF02A82AA092BF020E9458058E2D0E9459
:103590007C0919C08091BE02A82AA092BE02F4CF75
:1035A0008E2D0E949F08AA2071F0A09480E28E0DBB
:1035B000883010F081103DC08091BF02A822A092F7
:1035C000BF020E945805232D2850330B24303105AB
:1035D00010F40E942406CC2009F45BCC8091BC023C
:1035E00080FD57CCF80112828595859585950E94BE
:1035F000FB07C8010E9427178091BC02859585951D
:1036000085950F900F900F900F900F90DF91CF91B5
:103610001F910F91FF90EF90DF90CF90BF90AF90F0
:103620009F908F907F906F905F904F903F900C9401
:10363000BC078091BE02A822A092BE02C2CF3F2D3D
:103640003F70932E8F2D807F803219F0929480EFFF
:103650009822882071F081E0881681F1DD20D9F16F
:10366000AA2091F1F801858180FF90CF8F7085832A
:103670002BC0DD20B1F09091C002892D892BA110C3
:1036800003C00E94EE059FCFE1E0AE12FACF209179
:10369000C60222FD98CF981709F495CF8093C002F7
:1036A00092CFA11006C00E945205892D0E94E30509
:1036B0008ACFF1E0AF1609F486CFF5CFDD2031F0E7
:1036C00025E02A1508F47FCF892DDBCF34E03A15A9
:1036D00008F479CFEACFAA2041F3F9E38F1209C0A9
:1036E0002FEF37EE83E0215030408040E1F700C0FB
:1036F00000008E2D0E949F0866CF8F2D869586959F
:10370000837061F0813009F05ECFC7019370D110F2
:1037100002C090E080E00E94F80555CFC701937089
:10372000D11002C090E080E00E940E064CCF8E2D9A
:10373000DD2029F00E9422090E94520744CF0E94F6
:103740002608FACF8F2D837009F066C0D1103BCFC9
:103750008E2D829586958770880F880F6E2D6F70DD
:10376000462E512C712C612C082E04C0440C551C83
:10377000661C771C0A94D2F740E050E0BA01E4FEE0
:103780000FC04FE050E060E070E004C0440F551FF0
:10379000661F771F8A95D2F7409550956095709572
:1037A0008F2D869586958370823019F1D8F480909C
:1037B000C1029090C202A090C302B090C4028130B6
:1037C00069F04429552966297729CB01BA01682176
:1037D00079218A219B210E941C08F5CE482859286E
:1037E0006A287B28CB01BA01642975298629972983
:1037F000F2CF44295529662977294090C10250907B
:10380000C2026090C3027090C402CB01BA01642569
:10381000752586259725DFCF8695DD2011F08F2D24
:103820008170882309F4CFCE8E2D8295869587707E
:10383000880F880F6E2D6F70462E512C712C612CC5
:10384000082E04C0440C551C661C771C0A94D2F741
:1038500040E050E0BA01E4FE0FC04FE050E060E00D
:1038600070E004C0440F551F661F771F8A95D2F77A
:1038700040955095609570958F2D869586958370AF
:10388000823019F1D8F48090280390902903A090F9
:103890002A03B0902B03813069F044295529662909
:1038A0007729CB01BA01682179218A219B210E94C5
:1038B000960789CE482859286A287B28CB01BA0167
:1038C0006429752986299729F2CF44295529662923
:1038D0007729409028035090290360902A03709024
:1038E0002B03CB01BA016425752586259725DFCFEB
:1038F0009F2D9F70F92EDD2029F0892F0E94FB0754
:103900008E2DBFCE8E2D0E94E3058F2D0E94BC0709
:103910005ACE8E2DE2EF8E1609F457C0E81578F0D6
:10392000F0EF8F1649F121EF821609F446C0DD2031
:1039300009F46FC0A1102ACE8F2D8F7143C033EFD1
:10394000831609F447C094EF8912F1CFDD2009F402
:1039500055C02F2D2F71F22E822F0E94FB078091D0
:10396000C60282FD07C038E0F39EC00111248360C7
:103970008093BC028F2D26C0DD20D1F0E4E0EA1553
:1039800008F421CE2F2D2F7161E070E080E090E0EF
:1039900004C0660F771F881F991F2A95D2F74090A1
:1039A00028035090290360902A0370902B039BCF2B
:1039B000F5E0FA1508F407CEE5CF8F2D8F71DD20E5
:1039C00009F4A4CF0E94FB07FECD8F2D8F71DD205F
:1039D000C9F39CCF60E070E0CB01DD2009F467CF34
:1039E0002F2D2F7161E070E080E090E004C0660F41
:1039F000771F881F991F2A95D2F759CF81E00E941F
:103A0000DF0781E08A1508F0DECD82E00E94DF0743
:103A1000DACDAA2059F0893309F06BCE9FEFE7EE9B
:103A2000F3E09150E040F040E1F761CE8F2D8F71CF
:103A30006DCFF0E1EF16FFE5FF0609F45FCB21E162
:103A4000E2162FE5F20609F463CBF701EB5BFC45C8
:103A5000E730F10508F059C1EA5EF44D0C94CC2929
:103A600030E1E3163FE5F30609F44ECB81E1E816B9
:103A70008FE5F80609F44ECB23EFE2162CE5F206AB
:103A800009F4C1CB08F01AC188EDE8168CE5F806F8
:103A900009F4B5CB99EDE9169CE5F90609F4BFCB1D
:103AA000E7EDEE16ECE5FE0609F016C126E241EE62
:103AB00061EEC8010E94E60D28CA85E0DE0111967C
:103AC00001900D928A95E1F7F801228189819A810E
:103AD0002111F6C90E948505F82EFAC982722CECD4
:103AE000E2162CE5F20609F4EDCC08F0A5C096EC40
:103AF000E9169CE5F90609F4D1CC08F074C0F3ECA2
:103B0000EF16FCE5FF0609F4BDCC08F05BC032EC13
:103B1000E3163CE5F30609F48ECCEAE5EE16EDE596
:103B2000FE0609F410CD08F0E9CCE1142CE5F2060C
:103B300009F4F9CC3EEDE3163CE5F30609F400CDBB
:103B4000F8018281E080F180882309F400CDC7016B
:103B50000E94FE0BD82E682FC7010E94AD05B70149
:103B60008D2D0E94740A7C01882EF801D280A580D8
:103B7000A2943FE0A3228091BC028770A1F0CD2CDB
:103B8000DD2091F08F2D807F803421F080E28E0D3A
:103B9000883048F082E00E94DF078091BC02877085
:103BA000CC24C3948111C12C3F2C32942FE03222BB
:103BB000FBE0F31508F407CDE32DF0E0E35EF44DF0
:103BC0000C94CC2994ECE9169CE5F90609F461CC37
:103BD00040EA53E169EA73E1E5ECEE16ECE5FE0636
:103BE00009F454CC9ACFF9ECEF16FCE5FF0609F482
:103BF0005FCC88F437ECE3163CE5F30609F453CCCC
:103C000044E953E168E873E198ECE9169CE5F906AC
:103C100009F43CCC82CFEAECEE16ECE5FE0609F4A2
:103C20004CCC42EB53E163EC73E1FBECEF16FCE5AB
:103C3000FF0609F42BCC71CF21EDE2162CE5F2063C
:103C400009F450CCB8F48EECE8168CE5F80609F4CB
:103C500041CC08F43CCCEFECEE16ECE5FE0609F4A2
:103C60003ECC6EE089E0F0EDEF16FCE5FF0609F4CE
:103C700033CC53CF24EDE2162CE5F20609F438CC10
:103C800078F482EDE8168CE5F80609F42ECC61E0B4
:103C900088E193EDE9169CE5F90609F4F0CB3DCFF8
:103CA000E5EDEE16ECE5FE0609F425CC6AE285E2C8
:103CB000FDE5EF16FF0609F40FCC2FCFF5EFEF1659
:103CC000FCE5FF0609F4A7CA08F4A1CA36EFE3161B
:103CD0003CE5F30609F491C0F6E1EF16FCE5FF06BA
:103CE00009F02ECF809150028111A3CB89E2E0EA46
:103CF000F1E026EA31E09191891303C0DF011197C9
:103D00001C922E173F07B9F791CB83EFE8168CE58D
:103D1000F80609F478CA08F062C0E8EDEE16ECE5A2
:103D2000FE0609F46CCAF9EDEF16FCE5FF0609F48E
:103D300076CA27EDE2162CE5F20609F4B7CE10920A
:103D4000270382E0E8168CE5F80608F45ACB96E1E2
:103D5000E9169CE5F90630F0C7018A5F9C45099792
:103D600008F04FCB0E94330A9093C6028093C5029D
:103D7000E0E1EE16ECE5FE0609F412CB08F094CA79
:103D800028E0E2162CE5F20609F4F8CA08F060CA49
:103D900084E0E8168CE5F80609F4E8CA08F042CA9F
:103DA000E2E0EE16ECE5FE0609F4DACA8091C502FF
:103DB0008260F3E0EF16FCE5FF0609F4D4CA6091D7
:103DC000C502F090C60284E090E00E94652A6F2D43
:103DD00082E290E00E94652A0E94E31396C835EFC4
:103DE000E3163CE5F30609F416CA08F410CA96EF88
:103DF000E9169CE5F90609F0A2CF27E245EE66EE4A
:103E000058CE1F93CF93DF9380915702807FA9F400
:103E100080915402882389F080918902D0915802C0
:103E20006091520270915302A0915502B0915602D6
:103E3000C62FC72316E0D81304C0DF91CF911F917E
:103E4000089590E0109711F0CF3F19F40196877014
:103E5000F2CF189F9001199F300D1124F901E75AF4
:103E6000FD4F41814713F2CF40814613EFCF42818E
:103E70004111ECCF438154814A1B5B0B483C5105F7
:103E800028F7809157028F70806180935702F90163
:103E9000E25AFD4F80818F708061808382E592E0DD
:103EA0000E942717DF91CF911F910C94D905AF92F3
:103EB000BF92CF92DF92EF92FF920F931F93CF9317
:103EC000DF93CDB7DEB761970FB6F894DEBF0FBEB4
:103ED000CDBF8C0185E0F801DE011D9601900D92A9
:103EE0008A95E1F7F80180819181E28022E5A22E96
:103EF00022E0B22E60915502709156026115710553
:103F000009F43EC13091520240915302232F2423E1
:103F10002F3F09F435C1C380D480F0905402F601DC
:103F2000E61BF70BFF2009F4FBC020915702522F2C
:103F3000507FE83CF10508F0BBC0511178C0FE2C61
:103F4000491321C038131FC0E1101DC02F7020611C
:103F500020935702C5010E94271780915702F8014C
:103F600085838F2D61960FB6F894DEBF0FBECDBF4F
:103F7000DF91CF911F910F91FF90EF90DF90CF9045
:103F8000BF90AF900895CD2829F0282F29232F3FE7
:103F900009F014C120E0F22FF170DF2E20FF3DC0A8
:103FA000209189024091580256E0241315C08D8754
:103FB0009E878D859E850E94400C292F22952F700B
:103FC0002230F8F0243020F59F70F9F0F801958147
:103FD000907FD9F4D12C1FC030E0529FF001539F45
:103FE000F00D1124E75AFD4F6181961306C06081E0
:103FF000861303C06281E61210C02F5F3F4F277007
:10400000D4CF9F7011F0882329F3805E883010F39D
:10401000C8010E942717FD2CA4CFEE2009F4A1CFE0
:1040200080915702816080935702F12C9ACF4913F7
:1040300012C0381310C0E1100EC0F8012583C8016A
:104040000E94271786E0F801A2E5B2E001900D92E8
:104050008A95E1F786CF8D879E878D859E850E9404
:104060004A0C882309F1EE20F9F080915702803242
:1040700070F0209152023091530238872F831986B5
:10408000DB86CA868C87CE0107960E94271786E0BA
:10409000F801A2E5B2E001900D928A95E1F70E9445
:1040A000011FFF24F3945DCFC8010E942717F9CFA9
:1040B00051110AC082E592E00E94271786E0F501BF
:1040C00011928A95E9F7B1CF49130FC038130DC08B
:1040D000E1100BC0F8012583C8010E94271786E074
:1040E000F50111928A95E9F73CCF8D879E878D85E2
:1040F0009E850E944A0C8823B9F2EE20A9F2809195
:104100005702803220F220915202309153023A83BA
:1041100029831B82DD82CC828E83CE010196B5CFAE
:10412000E83CF105E0F6FE2CEE2009F4BDCF491382
:1041300016C0381314C08091570280FD83CF982F8A
:10414000907F09F47FCFF8018583903F09F477CF02
:10415000982F907F905F8F70892B858370CF8D878C
:104160009E878D859E850E944A0C811190CF8091FB
:104170005702816080935702C8010E942717F1CE31
:10418000EE2009F491CF8D879E878D859E850E94B4
:104190004A0CF82E882309F487CF86E0F801A2E5BF
:1041A000B2E001900D928A95E1F7809152029091D0
:1041B00053020E94400C0E94011FD3CE21E02E2505
:1041C000EACE1F93CF93DF93CDB7DEB767970FB6D5
:1041D000F894DEBF0FBECDBF342F4B8B252F5C8BE9
:1041E0006D8B7E8B8F8B8E899F8961111092BE02A1
:1041F0001A8A198A3D872E876F87998B888B86E06C
:10420000FE013D96DE01179601900D928A95E1F729
:10421000CE0107960E94571F882389F016E08091EF
:10422000890290915802891349C067960FB6F89495
:10423000DEBF0FBECDBFDF91CF911F91089586E005
:10424000FE013796DE01119601900D928A95E1F7F5
:104250008A859B85892B11F38F81988589238F3FD0
:10426000E9F22091580230E0C90101968770992740
:10427000409189024817190671F40E94E3131092C5
:1042800058021092890286E0E2E5F2E0DF011D9219
:104290008A95E9F7C3CF96E0929FD001939FB00D26
:1042A0001124A75ABD4FFE01319601900D929A95A7
:1042B000E1F7809358020E94D905B0CF819FC001D9
:1042C0001124875A9D4F0E94571F882309F4ADCFB0
:1042D0008091890290E001968770992780938902E6
:1042E0009ECF1F920F920FB60F9211242F933F93E0
:1042F0004F935F936F937F938F939F93AF93BF93EE
:10430000CF93DF93EF93FF93D091E900DF7080911B
:10431000EC00C82FC17080FDC0E81092E9008091C8
:10432000F000877F8093F00078940E94EE13109243
:10433000E9008091F00088608093F000CD2BCF7071
:10434000C093E900FF91EF91DF91CF91BF91AF91C1
:104350009F918F917F916F915F914F913F912F919D
:104360000F900FBE0F901F9018951F920F920FB6CF
:104370000F9211242F933F934F935F936F937F93EB
:104380008F939F93AF93BF93EF93FF938091E1003F
:1043900082FF09C08091E20082FF05C08091E100A8
:1043A0008B7F8093E1008091DA0080FF24C08091B0
:1043B000D80080FF20C08091DA008E7F8093DA00E1
:1043C0008091D90080FF9BC080E189BD82E189BDD9
:1043D00009B400FEFDCF81E080931B0380910E03A2
:1043E000811109C00E948D030E9458048091E2004F
:1043F00084608093E2008091E10080FF17C080918B
:10440000E20080FF13C08091E2008E7F8093E20083
:104410008091E20080618093E2008091D800806208
:104420008093D80019BC85E080931B038091E10044
:1044300084FF29C08091E20084FF25C080E189BD0E
:1044400082E189BD89B5982F917080FFFBCF809163
:10445000D8008F7D8093D8008091E1008F7E80937B
:10446000E1008091E2008F7E8093E2008091E20083
:1044700081608093E20080911C03882309F445C089
:1044800084E080931B038091E10083FF27C080912B
:10449000E20083FF23C08091E100877F8093E100E9
:1044A00082E080931B0310921C038091E1008E7FB9
:1044B0008093E1008091E2008E7F8093E200809102
:1044C000E20080618093E20042E060E080E00E94D0
:1044D00026048091F00088608093F000FF91EF91B6
:1044E000BF91AF919F918F917F916F915F914F910C
:1044F0003F912F910F900FBE0F901F90189519BCF0
:1045000010921B0310920E0376CF8091E30087FD7B
:1045100093E090931B03B7CFCDB7DEB7AA970FB642
:10452000F894DEBF0FBECDBF84B7877F84BF0FB6C0
:10453000F894A89580916000886180936000109243
:1045400060000FBE80E890E00FB6F89480936100A1
:10455000909361000FBE85B7806885BF85B780687E
:1045600085BF88E195E090939D0180939C010E9416
:104570008D030E9458048091E20084608093E200E1
:10458000789480911B038823A1F01091E9001F709B
:104590009091EC00892F817090FD80E8182B10928B
:1045A000E9008091E80083FD0E94EE131F701093D4
:1045B000E90082E084BD93E095BD9AEF97BD8093BA
:1045C0006E0009E711E0F80181918F010E94D9097D
:1045D000F1E008381F07B9F780E30E94D90981E3A9
:1045E0000E94D90982E30E94D90983E30E94D90974
:1045F00087E30E94D9091092CB021092CA0210924E
:104600000103109200031092CD021092CC0210927E
:104610000303109202031092CF021092CE02109266
:104620000503109204031092D1021092D00210924E
:104630000703109206031092D3021092D202109236
:1046400009031092080390E080E00E945F2A8A3EEE
:104650009E4F11F00E94351282E090E00E94512A94
:104660008093ED020E94330A9093C6028093C502A4
:104670000E94B5104FEF86E791E041508040904096
:10468000E1F700C000000E94B5108091000380FF98
:1046900017C06FEF83E290E00E94652A6FEF84E21B
:1046A00090E00E94652A6FEF85E290E00E94652A03
:1046B0006FEF7FEF90E080E00E94832A0E94A50DBB
:1046C00083E090E00E94512A682F70E090E080E043
:1046D0000E941C08269A2E9882E28093800089E12D
:1046E000809381008FEF9FEF9093870080938600E7
:1046F0000E94A0128091F80281FF0BC01092C902A3
:104700001092C8021092C70280916F00816080935E
:104710006F0083E290E00E94512A833209F00EC5B7
:1047200084E290E00E94512A803109F007C585E2B9
:1047300090E00E94512A813009F000C50E94A01229
:104740008091D402811136C090E080E00E945F2AFF
:104750008A3E9E4F21F00E9435120E94D41388E0B9
:1047600090E00E94592A6093FB027093FC028093B0
:10477000FD029093FE026E7F71F40E94D41388E0D4
:1047800090E00E94592A6093FB027093FC02809390
:10479000FD029093FE020E94AD061092FA028091F3
:1047A000FB0280FF04C060E086950E94CB1681E08A
:1047B0008093D40282E191E09093D6028093D50257
:1047C00058E1E52EF12C60E4B62E7AE0C72E73E0B6
:1047D000D72E80911B039924939400E112E1853038
:1047E00009F4D9C10E94B510882359F08FB7F89405
:1047F00040910A0350910B0360910C0370910D03DB
:104800008FBFA0E0B3E0EEEEF2E010E000E0702F2A
:104810008D919D91219131912817390709F4DEC1BD
:104820002827392760E088248394912CA901482106
:104830005921452B09F4CCC169A37AA39C012821F5
:10484000392191E0232B09F490E09BA30E942C05D1
:104850008160782F9DA38CA349A15AA16BA18DA142
:104860000E94E120000F111FF801E251FD4F8081ED
:10487000918188269926918280828091FA028823EC
:10488000D1F18091F902E091FB02E695E81BE093FB
:10489000DC02823009F0B9C1F0E0E550FA4FE49152
:1048A0000E2F10E081E9882E80E1982E8091DD02A4
:1048B000882361F01092DD020E942C059093DB02A8
:1048C0008093DA021092DF021092DE020E942C0521
:1048D000E091DA02F091DB028E1B9F0B8F3F9F4726
:1048E00050F4E00FF11FF093DB02E093DA028AED5F
:1048F00092E0F401099586E0E6EEF2E0DE01119621
:1049000001900D928A95E1F79090E8028090E9027B
:104910001091EA020091EB021092E8021092E90273
:104920001092EA021092EB02892D882909F448C0FE
:104930008091E4029091E5020E941D059C019091F6
:10494000E302992309F421C423333105C8F19F3FC1
:1049500019F09F5F9093E302992059F00E94020999
:104960009FEF19140CF491E0899F802D11248093FE
:10497000E802882059F00E9402099FEF18140CF4F5
:1049800091E0899F802D11248093E9023091E80203
:104990003323B1F02091E902222391F045EB340357
:1049A000C0011124992309F49CC19093E80245EBBE
:1049B000240390011124332309F497C13093E902B1
:1049C000812F802B09F448C08091E1029091E2028E
:1049D0000E941D059C019091E002992309F4D0C327
:1049E00025363105C8F19F3F19F09F5F9093E00293
:1049F000112359F00E94E0089FEF11160CF491E08A
:104A0000899F802D11248093EA02002359F00E948F
:104A1000E0089FEF10160CF491E0899F802D11247F
:104A20008093EB023091EA023323B1F02091EB0244
:104A3000222391F045EB3403C0011124992309F49A
:104A400058C19093EA0245EB2403900111243323CB
:104A500009F453C13093EB028091E8029091E9028E
:104A6000892B9091EA02892B9091EB02892B11F00E
:104A70000E94520786E0FE013196A6EEB2E0019058
:104A80000D928A95E1F70E9424069091EC02891715
:104A900021F00E9424068093EC0280911B03843055
:104AA00009F097CE83E08093E9008091E80082FFCF
:104AB00090CE8091E80090E085FF06C00E94AC0394
:104AC000882309F41EC191E08091E8008B778093E0
:104AD000E800992309F47DCEE981E150E33108F043
:104AE000ADC1F0E0E75DF44D0C94CC2980911B033F
:104AF000843009F440C080E00E946D061092FA02F2
:104B00008091D902811116C09092D9028091FB0246
:104B1000982F91709093D8028E7F8093FB02FFEFC5
:104B200020E742E0F15020404040E1F700C00000A3
:104B30000E944A0E1092D7020FB6F894A895E09200
:104B400060000FBEB092600083B7817F846083BF36
:104B500083B7816083BF7894889583B78E7F83BF46
:104B60000FB6F894A89580916000886180936000EA
:104B7000109260000FBE80911A03882361F00E949A
:104B8000B510E0E0F3E081919191892B09F0C0C26A
:104B9000CE16DF06C1F780911B03853009F4A6CF3E
:104BA0000E94E3130E94A0120E9424061092D902D0
:104BB0008091D802882349F08091FB028160809324
:104BC000FB0260E086950E94CB160E94B5160ACEC5
:104BD0006F5F880C991C6F3009F028CE0F5F1F4F54
:104BE0000530110509F013CE8FEF8EA38FA318A601
:104BF0000E942C058160782F9AA789A74EA15FA1FA
:104C000068A58AA50E94E12038CE863059F4F0E0EC
:104C1000E850FA4FE4910E2F10E0B5EA8B2EB0E188
:104C20009B2E44CE893061F4E695F0E0EB50FA4FCC
:104C3000E4910E2F10E0AFE78A2EAEE09A2E36CE2A
:104C40008F3061F4E695F0E0EE50FA4FE4910E2FCC
:104C500010E0F9EA8F2EFEE09F2E28CE853159F420
:104C6000F0E0E151FA4FE4910E2F10E0E7E18E2ED3
:104C7000EFE09E2E1BCE08E210E055E6852E5FE0A9
:104C8000952E883109F412CE833249F4EDEEF5E029
:104C90000591149178E3872E70E1972E07CE04EFEB
:104CA00011E04EEE842E4FE0942E843209F4FECDB6
:104CB00000ED17E037E1832E35E0932E853209F0C1
:104CC000F5CD8E2F63E00E948A29E92FF0E0E651AE
:104CD000FA4FE4910E2F10E066E8862E61E1962EE1
:104CE000E5CD81E08093E80262CE81E08093E90225
:104CF00067CE81E08093EA02A6CE81E08093EB024A
:104D0000ABCE00E210E0CE0101964C018091E800AC
:104D100085FD0AC08091E8008B778093E8000E94AF
:104D2000AC03882399F3CFCE8091F100F4018193F5
:104D30004F010150110951F7C6CE1A8289E08B83C9
:104D40001AC08A81823009F412C28330D9F18130CD
:104D500009F074C02FB7F89460910A0370910B03A7
:104D600080910C0390910D032FBF0E94D2296B8379
:104D70007C838D839E8380911B03843009F029CD31
:104D80001091E9001F709091EC00892F817090FDC7
:104D900080E8182B82E08093E9008091E80080FF92
:104DA0000DC050E040E060E270E0CE0101960E944C
:104DB000DD038091E8008E778093E8001F701093E8
:104DC000E90007CD8091000390910103982789277E
:104DD00098279C838B8380910203909103039827EB
:104DE000892798279E838D838091040390910503E2
:104DF00098278927982798878F8380910603909119
:104E000007039827892798279A878987809108031D
:104E1000909109039827892798279C878B87ABCF88
:104E20008A81823059F46B817C818D819E810E94C0
:104E3000D22986E290E00E94652A9DCF8FEF898378
:104E40009ACF4C816B818A810E94410A98278927D9
:104E500098279E838D838FCF8D809E809824892470
:104E600098248A810B81FEE10F9F8001112426E99D
:104E7000829F000D111D11248C8190E0880F991FD5
:104E8000080F191F692DC80187960E94652A682D91
:104E9000C8018896D0CF0E946E0C6DCF8A81893070
:104EA00091F08A30E9F08A81813871F110F580380B
:104EB00009F061CF20E04B816091FD028091FC02FE
:104EC0000E94DB1258CF8B8145E0849FC0011124E2
:104ED0006FEF70E00E94A429862F0E949206E3CF14
:104EE0008B81811103C00E94F20CDDCF0E94080D5E
:104EF000DACF823859F1833809F03DCF20E0409174
:104F0000FE026C818B81DCCF60E08B810E94CB162E
:104F10009B818091FB02911111C08E7F8093FB02D7
:104F20001092FA028FEF90E7E2E081509040E0406B
:104F3000E1F700C000000E944A0E1DCF81608093FF
:104F4000FB0260E086950E94CB1615CF8B81809383
:104F5000FF0211CF8A81893059F08A30C1F081383F
:104F600039F1D0F4803809F006CF8091FE02E7CE07
:104F70008091F802869586958695FFEF8F9FC001F8
:104F8000112465E070E00E94A4296B83F4CE809127
:104F9000F80286958170D3CE823891F0833809F07B
:104FA000EACE8091FC028B838091FD028C83E3CE5C
:104FB0008091FB0280FF02C08695C1CE80E0BFCE0B
:104FC0008091FF02BCCE8091F8020E94ED0C6091AE
:104FD000FB027091FC028091FD029091FE020E9402
:104FE000C912C9CE80E18A83C6CE81E08A8381E876
:104FF000A6CE0A811B81102701271027CE0101961A
:105000003C018C80FC01E80DF11D4F01C801815865
:105010009D4F8614970409F4AECE0138F1E01F07C6
:1050200050F40E94512AF30184830F5F1F4FFFEF5A
:105030006F1A7F0AEBCFF3011482F7CF0A811B812D
:10504000102701271027CE0101963C018C80800E8D
:10505000912E911CC80181589D4F0815190509F41E
:105060008ACE0138E1E01E0720F4F30164810E943A
:10507000652AFFEF6F1A7F0A0F5F1F4FEBCF0E9469
:10508000DD0C79CE84E0AFCF0A811B811027012788
:105090001027CE0101963C018C80FC01E80DF11D2A
:1050A0004F01C80187968614970409F464CE083529
:1050B000F2E01F0750F40E94512AF30184830F5F2E
:1050C0001F4FFFEF6F1A7F0AECCFF3011482F7CF67
:1050D0000A811B81102701271027CE0101963C0170
:1050E0008C80800E912E911CC80187960815190599
:1050F00009F441CE0835E2E01E0720F4F301648193
:105100000E94652AFFEF6F1A7F0A0F5F1F4FECCFD7
:1051100009BD19BD09B400FEFDCF8091D8008F7D77
:105120008093D8008091E00082608093E0008091BD
:10513000E00081FDFCCF0E94E3132DCD60E086E20C
:1051400090E00E94652A0E946E0C0E94DD0C63E2D2
:1051500083E290E00E94652A60E184E290E00E9490
:10516000652A61E085E290E00E94652AE7CA86E24E
:1051700090E00E94512A1B821C821D828E83FBCDEF
:105180002D32314008F031CC67CC2D32314008F05F
:10519000E0CB16CC78941F921FB61F9211248F93E8
:1051A0009F93AF93BF9380910A0390910B03A091BB
:1051B0000C03B0910D030196A11DB11D80930A034C
:1051C00090930B03A0930C03B0930D03BF91AF9189
:1051D0009F918F911F901FBE1F9018951F921FB611
:1051E0001F9211248F939F93AF93BF938091D70207
:1051F000811113C080910A0390910B03A0910C03BD
:10520000B0910D034196A11DB11D80930A039093A7
:105210000B03A0930C03B0930D03BF91AF919F912B
:105220008F911F901FBE1F9018951F920F920FB65F
:105230000F9211242F933F934F935F936F937F931C
:105240008F939F93AF93BF93EF93FF938091C80287
:105250009091C902019668EB75E00E94A429909391
:10526000C9028093C8026BE070E00E94A4296F77A6
:105270008091C702823041F4603451F480916F0014
:105280008E7F80936F0004C0813011F46F37B1F3CB
:10529000E62FF0E0E257FC4FE49121E031E0E29F9D
:1052A000C001E39F900D112465E070E00E94A429E5
:1052B0008091F802869586958695282F269FC001B5
:1052C000279F900D11240E94300690938B008093AD
:1052D0008A00FF91EF91BF91AF919F918F917F9144
:1052E0006F915F914F913F912F910F900FBE0F9053
:1052F0001F901895DB018F939F930E94B82ABF914E
:10530000AF91A29F800D911DA39F900DB29F900D14
:1053100011240895991B79E004C0991F961708F08D
:10532000961B881F7A95C9F78095089587FB082EEC
:10533000062687FD819567FD61950E948A290EF4F6
:10534000919507FC81950895AA1BBB1B51E107C0ED
:10535000AA1FBB1FA617B70710F0A61BB70B881F05
:10536000991F5A95A9F780959095BC01CD01089594
:1053700097FB072E16F4009407D077FD09D00E9402
:10538000A42907FC05D03EF4909581959F4F089580
:10539000709561957F4F0895EE0FFF1F0590F49172
:1053A000E02D09946927962769277827872778278A
:1053B00008950E94ED2A332312F48A1B9B0B0C9450
:1053C000E3290E94ED2AB7FF0895821B930B0895ED
:1053D0008F929F92AF92BF92CF92DF92EF92FF9205
:1053E000CF93DF93EC01688179818A819B8161157C
:1053F00071058105910521F464E279ED8BE597E073
:105400002DE133EF41E050E00E94992A49015A0111
:105410009B01AC01A7EAB1E40E94B82A6B017C01B0
:10542000ACEEB4EFA50194010E94C62ADC01CB01C9
:105430008C0D9D1DAE1DBF1DB7FF03C00197A109B7
:10544000B04888839983AA83BB839F77DF91CF91EC
:10545000FF90EF90DF90CF90BF90AF909F908F9094
:1054600008950E94E829089580E091E00E94E829CB
:105470000895B0E0A0E08093000190930101A09313
:105480000201B09303010895FC014150504030F0F7
:1054900001900616D1F73197CF01089588279927F3
:1054A0000895F999FECF92BD81BDF89A992780B5EC
:1054B0000895A6E1B0E044E050E00C948B2AA8E106
:1054C000B0E042E050E00C948B2A262FF999FECFF1
:1054D00092BD81BDF89A019700B4021639F01FBA47
:1054E00020BD0FB6F894FA9AF99A0FBE0895039664
:1054F000272F0E94662A0E94652A252F0E94662A6D
:10550000242F0C94662A0196272F0E94662A0C9459
:10551000652ADC01CB01FC01F999FECF06C0F2BD82
:10552000E1BDF89A319600B40D9241505040B8F761
:105530000895052E97FB1EF400940E94B02A57FD93
:1055400007D00E94CB2A07FC03D04EF40C94B02A5B
:1055500050954095309521953F4F4F4F5F4F08959F
:1055600090958095709561957F4F8F4F9F4F0895CF
:105570000E94ED2AA59F900DB49F900DA49F800DD1
:10558000911D11240895B7FF0C94B82A0E94B82ADF
:10559000821B930B0895A1E21A2EAA1BBB1BFD01CF
:1055A0000DC0AA1FBB1FEE1FFF1FA217B307E40702
:1055B000F50720F0A21BB30BE40BF50B661F771F5A
:1055C000881F991F1A9469F760957095809590953A
:1055D0009B01AC01BD01CF010895A29FB001B39F13
:1055E000C001A39F700D811D1124911DB29F700DEC
:1055F000811D1124911D0895F894FFCF590C590C69
:10560000620C620C640C620C620C620C590C590C3A
:10561000690C620C620C690CD314FB144E15FB145C
:105620004E152E1566154E15631670168C189418A7
:105630009618B218C618DE18F518AC1AAC1A1F1B4B
:105640001F1B7D1B971BE31AE31AA21B781C891CE6
:10565000891C9D26A126102721272C274B274E2762
:10566000AA27E3271E271E27F227F527F9271E283A
:085670003F2842284428682865
:105678000100000001191A1B1C1D1E1F20212201F8
:1056880002011A05780D570D530D4F0D0100010247
:105698000202020606060909090909090F0F0F0F78
:1056A8000F0F151515181919191919191919191983
:1056B8002324252525252525818283E200E900EA82
:1056C80000B500B600B700CD008301CC008A019276
:1056D8000194012102230224022502260227022A1C
:1056E80002B300B4006F0070009091929395949665
:1056F8009734F7F6F5F4F1F0303132333740227B46
:0C57080049012701AC0011062A064A06E0
:00000001FF
