:100000000C94FC050C9443060C9443060C94430694
:100010000C9443060C9443060C9443060C9443063C
:100020000C9443060C9443060C949E200C9471216E
:100030000C94AB170C9443060C9443060C944306A3
:100040000C9443060C9443060C9443060C9443060C
:100050000C9443060C940C180C9443060C94430621
:100060000C9443060C9443060C9443060C944306EC
:100070000C9443060C9443060C9443060C944306DC
:100080000C9443060C9443060C9443060C944306CC
:100090000C9443060C9443060C9443060C944306BC
:1000A0000C9443060C9443060C94430614001A0067
:1000B000080015001700000000000000000000000C
:1000C000000004001600070009000A0000000000FC
:1000D00000000000000000001D001B0006001900C9
:1000E000050000000000000000000000000000000B
:1000F000000000002B002C0039002A004C000000FA
:1001000000000000000000000000000000000000EF
:100110001C0018000C00120013000000000000007A
:100120000000000000000B000D000E000F00280072
:1001300000000000000000000000000005001100A9
:10014000100036003700010001000100010001002D
:10015000000000000000000000000000010001009D
:10016000010001000100000000000000000000008C
:10017000000001000100010001000100000000007A
:10018000000000000000000000000000000001006E
:10019000010001000100010000000000000000005B
:1001A000000000000000000000000100010001004C
:1001B000010001000000000000000000000000003D
:1001C0000100010001000100280000000000000003
:1001D000000000000000010001000100010001001A
:1001E000010001000100010001000000000000000A
:1001F00000000000000001000100010001000100FA
:1002000000000000000000000000000001000100EC
:1002100001000100010000000000000000000000DB
:1002200000000000000000000100010001000100CA
:1002300001000000000000000000000000000000BD
:1002400000000000010001000100010001000000A9
:10025000000000000000000000000100010001009B
:10026000010001000000000000000000000000008C
:100270000100010001000100010001000100010076
:10028000010001000000000000000000000000006C
:100290000100010001000100010000000000000059
:1002A0000000000000000100010001000100010049
:1002B000000000000000000000000000000000003E
:1002C0000000010001000100010001000000000029
:1002D000000000000000000000000000000001001D
:1002E000010001000100010000000000000000000A
:1002F00000000000010001000100010001000000F9
:1003000000000000000000000000010001000100EA
:1003100001000100010001000100010001000000D6
:1003200000000000000000000000010001000100CA
:1003300001000100000000000000000000000000BB
:1003400001000100010001000100000000000000A8
:10035000000000000000000000000000010001009B
:10036000010001000100000000000000000000008A
:100370000000000000000000010001000100010079
:10038000010000000000000000000000000001006B
:100390000100010001000100000000000000000059
:1003A0000000000001000100010001000100010047
:1003B0000100010001000100000000000000000039
:1003C0000000000001000100010001000100000028
:1003D000000000000000000000000100010001001A
:1003E000010001000000000000000000000000000B
:1003F00000000000000001000100010001000100F8
:1004000000000000000000000000000000000000EC
:1004100000000100010001000100010000000000D7
:1004200000000000000000000100010001000100C8
:1004300001000000000000000000000000000100BA
:1004400001000100010001000100010001000100A4
:10045000010000000000000000000000000001009A
:100460000100010001000100000000000000000088
:100470000000000001000100010001000100000077
:10048000000000000000000000000000000000006C
:100490000100010001000100010000000000000057
:1004A000000000000000000000000000010001004A
:1004B0000100010001000000000000000000000039
:1004C0000000010001000100010001000000000027
:1004D0000000000000000000010001000100010018
:1004E0000100010001000100010001000000000006
:1004F00000000000000000000100010001000100F8
:1005000001000000000000000000000000000100E9
:1005100001000100010001000000000000000000D7
:1005200000000000000000000000010001000100C8
:1005300001000100000000000000000000000000B9
:1005400000000000000001000100010001000100A6
:100550000000000000000000000000000100010099
:100560000100010001000000000000000000000088
:100570000000010001000100010001000100010074
:100580000100010001000000000000000000000068
:100590000000010001000100010001000000000056
:1005A0000000000000000000010001000100010047
:1005B000010000000000000000000000000000003A
:1005C0000000000001000100010001000100000026
:1005D000000000000000000000000000000000001B
:1005E0000100010001000100010000000000000006
:1005F00000000000000001000100010001000100F6
:1006000000000000000000000000000001000100E8
:1006100001000100010001000100010001000100D2
:1006200000000000000000000000000001000100C8
:1006300001000100010000000000000000000000B7
:1006400000000100010001000100010000000000A5
:100650000000000000000000000000000000010099
:100660000100010001000100000000000000000086
:100670000000000000000000000001000100010077
:100680000100010000000000000000000000000068
:100690000100010001000100010000000000000055
:1006A0000000000000000100010001000100010045
:1006B0000100010001000100010000000000000035
:1006C0000000000000000100010001000100010025
:1006D0000000000000000000000000000100010018
:1006E0000100010001000000000000000000000007
:1006F00000000000000000000100010001000100F6
:1007000001000000000000000000000000000000E8
:1007100000000000010001000100010001000000D4
:1007200000000000000000000000010001000100C6
:1007300001000100000000000000000000000000B7
:1007400001000100010001000100010001000100A1
:100750000100010000000000000000000000000097
:100760000100010001000100010000000000000084
:100770000000000000000100010001000100010074
:100780000000000000000000000000000000000069
:100790000000010001000100010001000000000054
:1007A0000000000000000000000000000000010048
:1007B0000100010001000100000000000000000035
:1007C0000000000001000100010001000100000024
:1007D0000000000000000000000001000100010016
:1007E0000100010001000100010001000100000002
:1007F00000000000000000000000010001000100F6
:1008000001000100000000000000000000000000E6
:1008100001000100010001000100000000000000D3
:1008200000000000000000000000000001000100C6
:1008300001000100010000000000000000000000B5
:1008400000000000000000000100010001000100A4
:100850000100000000000000000000000000010096
:100860000100010001000100000000000000000084
:100870000000000001000100010001000100010072
:100880000100010001000100000000000000000064
:100890000000000001000100010001000100000053
:1008A0000000000000000000000001000100010045
:1008B0000100010000000000000000000000000036
:1008C0000000000000000100010001000100010023
:1008D0000000000000000000000000000000000018
:1008E0000000010001000100010001000000000003
:1008F00000000000000000000100010001000100F4
:1009000001000000000000000000000000000100E5
:1009100001000100010001000100010001000100CF
:1009200001000000000000000000000000000100C5
:1009300001000100010001000000000000000000B3
:1009400000000000010001000100010001000000A2
:100950000000000000000000000000000000000097
:100960000100010001000100010000000000000082
:100970000000000000000000000000000100010075
:100980000100010001000000000000000000000064
:100990000000010001000100010001000000000052
:1009A0000000000000000000010001000100010043
:1009B0000100010001000100010001000000000031
:1009C0000000000000000000010001000100010023
:1009D0000100000000000000000000000000010015
:1009E0000100010001000100000000000000000003
:1009F00000000000000000000000010001000100F4
:100A000001000100000000000000000000000000E4
:100A100000000000000001000100010001000100D1
:100A200000000000000000000000000001000100C4
:100A300001000100010000000000000000000000B3
:100A400000000100010001000100010012036B0021
:100A50006500790062006F006100720064000000B0
:100A6000160371006D006B006200750069006C0078
:100A700064006500720000000403090409026D00AF
:100A8000040100A0FA09040000010301010009218A
:100A9000110100012240000705810308000A090432
:100AA00001000103010200092111010001224D0092
:100AB0000705820308000A09040200010300000080
:100AC0000921110100012236000705830308000AED
:100AD00009040300010300000009211101000122A3
:100AE00039000705840320000112011001000000F5
:100AF00008EDFE606001000102000105010906A188
:100B000001050719E029E715002501950875018100
:100B100002050819012905950575019102950175D0
:100B20000391010507190029F71500250195F875AE
:100B3000018102C005010980A1018502160100267C
:100B400003001A81002A8300751095018100C005F9
:100B50000C0901A1018503160100269C021A01005F
:100B60002A9C02751095018100C005010902A101AE
:100B70000901A1000509190129051500250195059F
:100B80007501810295017503810105010930093163
:100B90001581257F95027508810609381581257F05
:100BA000950175088106050C0A38021581257F9587
:100BB0000175088106C0C005010906A101050719D4
:100BC000E029E71500250195087501810295017559
:100BD00008810105081901290595057501910295FE
:100BE00001750391010507190029FF150026FF0073
:100BF000950675088100C00011241FBECFEFDAE012
:100C0000DEBFCDBF04B603FE27C08091580290918D
:100C10005902A0915A02B0915B028730904BA740D5
:100C2000B04BD1F4109258021092590210925A020D
:100C300010925B0214BE84B7877F84BF0FB6F8940E
:100C4000A895809160008861809360001092600098
:100C50000FBEE0E0F8E3099511E0A0E0B1E0ECEBB5
:100C6000F9E402C005900D92AA33B107D9F722E04A
:100C7000AAE3B1E001C01D92A835B207E1F70E94D6
:100C8000F41D0C94B0240C94000090E080E00895D2
:100C90000895089581E00895089581E008950C94E1
:100CA0004A060E94FC0F2FEF84E39CE02150804015
:100CB0009040E1F700C000000C942F18EF92FF92D3
:100CC0000F931F93CF93DF938C01FC01E080F180A1
:100CD00080918001811140C082818823C1F1C701C8
:100CE0000E948115C82F682FC7010E942A15B701DD
:100CF0008C2F0E949607EC01B8010E944F068823B2
:100D000009F44BC0B801CE010E949F09882309F461
:100D100044C0C531F0E7DF0720F5C23080E7D807CF
:100D200008F04DC0C115E0E7DE0791F1C130D047B2
:100D3000E1F181E080933C0180933D01C801DF91A6
:100D4000CF911F910F91FF90EF900C944D06C7012A
:100D50000E945815C82FCBCFC7010E948115B7013B
:100D6000C8CFCC3380E7D80709F49BC0CD33D04738
:100D700001F7F8018281882309F4BAC010923D017D
:100D80000E94DB1790933B0180933A0180E296C06A
:100D9000F801828181110E94510680E0DF91CF919C
:100DA0001F910F91FF90EF900895F80182818823A1
:100DB000A1F380911802816080931802EECFF801B0
:100DC0008281882309F4BACF0E943C17811102C0A6
:100DD0000E9422170E94591790E090934A02809334
:100DE0004902FE01E350F047809149028160E231FF
:100DF000F10538F4EE54FB4D0C94602480914902C7
:100E0000826080934902809149020E945D170E948E
:100E1000FC0FC3CF809149028460F3CF80914902D7
:100E20008860EFCF809149028061EBCF80914902C9
:100E30008062E7CF809149028064E3CF80914902CC
:100E40008068DFCF809149028C60DBCF80914902BE
:100E50008E7FD7CF809149028D7FD3CF8091490279
:100E60008B7FCFCF80914902877FCBCF8091490282
:100E70008F7EC7CF809149028F7DC3CF8091490279
:100E80008F7BBFCF809149028F77BBCF8091490282
:100E9000837FB7CF90914902892F97FB87F98058BC
:100EA000B0CFF8018281882361F010923C010E944A
:100EB000DB1790933B0180933A0182E00E94610D21
:100EC0006CCF80913C0181110FC080913A019091CB
:100ED0003B010E94E717883C910530F486E20E94AE
:100EE000360C86E20E94120D82E00E94680D55CFFA
:100EF00080913D0181110FC080913A0190913B0199
:100F00000E94E717883C910530F487E20E94360C76
:100F100087E20E94120D80E2E8CF0C94EE090C9457
:100F2000F0090C944C060C9491070895972F70E0EB
:100F30002BE0929F600D711D1124FB019DE4899FA0
:100F4000E00DF11D1124EE0FFF1FE455FF4F8591B9
:100F500094910895FC01EE0FFF1FE45BF54F85911E
:100F6000949108950E9496070E9423099C0181157F
:100F700040E4940708F097C0211580E3380708F093
:100F8000FAC0203E310508F074C0203C310508F05D
:100F9000E5C0283A310588F4253A310508F0E2C069
:100FA0002130310509F477C0C9010497813A9105D0
:100FB00008F471C030E020E06EC0C901885A910980
:100FC0004597C0F7283A310509F4FEC0293A3105A2
:100FD00009F4FDC02A3A310509F4FCC02B3A310569
:100FE00009F4FBC02C3A310509F4FAC02B3B31055A
:100FF00009F4F9C02C3B310509F4F8C02D3A31054C
:1010000009F4F7C0203B310509F4F6C02E3A31054A
:1010100009F4F5C02F3A310509F4F4C0213B31053C
:1010200009F4F3C0223B310509F4F2C0233B31053A
:1010300009F4F1C0243B310509F4F0C0253B31052A
:1010400009F4EFC0263B310509F4EEC0273B31051A
:1010500009F4EDC0283B310509F4ECC0293B31050A
:1010600009F4EBC02A3B310509F4EAC020E034E47E
:1010700012C0211590E2390780F42F3F310509F0A5
:1010800050F4283E310538F0C901805F9109306580
:10109000409708F08FCFC9010895C9019F700E9441
:1010A000AA079C01F8CF8115944508F041C021158D
:1010B00083E5380708F06AC0211592E5390738F54D
:1010C000211541E5340708F05CC0211580E538079B
:1010D00008F454C0C90134E0969587953A95E1F734
:1010E0008370422F46954695437090E2499FA00138
:1010F0001124582B822F837021E030E002C0220F90
:10110000331F8A95E2F7242B352B3C68C4CFC901E5
:101110008370992741E050E002C0440F551F8A9523
:10112000E2F72695269580E2289F90011124EBCFC7
:10113000211596E5390748F4922F88272115354562
:10114000C8F59C01246F306AA6CFC90190563F7044
:101150008115904108F02ECF30629DCFC901805C8F
:1011600091099DCF253A310549F1263A310549F5D6
:1011700022E830E490CF3327306C8DCF3F70306A57
:101180008ACF322F2227216F306A85CFC901837021
:10119000992741E050E002C0440F551F8A95E2F7BD
:1011A0002695269580E2289F90011124242B352B2B
:1011B0003A6871CF88279F719C01CECF21E830E437
:1011C0006ACF23E830E467CF22EE34E464CF29EE1F
:1011D00034E461CF2AEE34E45ECF25EB34E45BCF18
:1011E00026EB34E458CF23EB34E455CF24EB34E43E
:1011F00052CF27EB34E44FCF2CEC34E44CCF2DEC22
:1012000034E449CF23E835E446CF2AE835E443CF38
:1012100022E935E440CF24E935E43DCF21E236E44C
:101220003ACF23E236E437CF24E236E434CF25E266
:1012300036E431CF26E236E42ECF27E236E42BCF58
:101240002AE236E428CF803E910581F1C8F481334B
:10125000910509F462C048F48932910509F456C039
:101260008A32910509F460C0089589339105B9F077
:1012700082389105A1F08533910509F440C00895A5
:10128000863E910561F138F4823E9105B1F0833ECE
:101290009105E1F00895873E910551F1089520915F
:1012A00049022370D9F080EE90E008952091490220
:1012B00020FF14C089E390E008952091490222FFA5
:1012C0000DC024FD09C083EE90E0089520914902ED
:1012D00022FD31C024FF02C090E080E008952091FB
:1012E000490223FFFBCF24FDF7CF87EE90E008955E
:1012F0002091490223FFEECF86EE90E008952091E1
:10130000490225FFEBCF89E290E008952091490240
:1013100025FFE4CF85E390E008952091490226FF60
:10132000DDCF8AE290E008952091490226FFD6CFD2
:1013300081E390E0089582EE90E0089508950F9380
:101340001F93CF938C01FB018281811106C0C1E004
:101350008C2FCF911F910F910895C0914B01C11116
:1013600025C00531104799F70E949E0981E08093BE
:101370004B010E94DB1790934A0180934901109220
:101380003E011092400110923F01109242011092D2
:1013900041011092440110924301109246011092B3
:1013A00045011092480110924701D2CF8091490126
:1013B00090914A010E94E717883C910540F6809180
:1013C0003E01E82FF0E0EE0FFF1FE15CFE4F1183BE
:1013D00000838F5F80933E01C0E0BACF0C94480633
:1013E0000C94490685B7806885BF85B7806885BF3E
:1013F000AEE1B1E061E070E08D91E82FE295EF7031
:10140000F0E041A18F709B0101C0220F8A95EAF79D
:10141000922F9095942391A382A1822B82A381E0A5
:10142000A532B80749F7A3E1B1E061E070E08D9122
:10143000E82FE295EF70F0E041A18F709B0101C0B1
:10144000220F8A95EAF7922F9095942391A382A177
:10145000822B82A381E0AE31B80749F7EAE5F1E0DB
:10146000ACE4B1E088E691E0119211921D921D92D8
:101470008E179F07C9F70C948D072F923F924F92BA
:101480005F926F927F928F929F92AF92BF92CF9214
:10149000DF92EF92FF920F931F93CF93DF930CE4B1
:1014A00011E08EE1C82E81E0D82E1801EE24E394DD
:1014B000F12C66246394D1018D909D901D011E92A4
:1014C0001E92E60189916E01E82FE295EF70F0E03F
:1014D00091A18F70970101C0220F8A95EAF7892F99
:1014E000822B81A382A1722E7094872182A3D0EADD
:1014F000DA95F1F763E171E090E080E0EB0159905B
:10150000BE01452D42954F7050E0EA0148A0AD90D4
:10151000BC901197552D5F70E70102C0CC0FDD1F05
:101520005A95E2F7AE01442109F059C0A701082EEF
:1015300002C0440F551F0A94E2F74A295B2911960D
:101540005C934E9301968B309105C1F681A1782270
:1015500071A282A1282B22A38D919C9188169906B5
:1015600041F0609268010E94DB1790936A018093BA
:101570006901DAE52D16D1E03D0609F09CCF809196
:1015800068018823B1F08091690190916A010E94FD
:10159000E717069770F0EAE5F1E0D8018D919D918B
:1015A0008D0181939193B1E00A351B07B1F7109239
:1015B00068010E948F0781E0DF91CF911F910F9109
:1015C000FF90EF90DF90CF90BF90AF909F908F9063
:1015D0007F906F905F904F903F902F90089550E0D4
:1015E00040E0ABCFE82FF0E0EE0FFF1FE65AFE4FD2
:1015F00080819181089508959093700180936F0187
:101600000895E0916F01F0917001309721F0019001
:10161000F081E02D099480E00895E0916F01F09150
:101620007001309721F00280F381E02D0994089534
:10163000E0916F01F0917001309721F00480F58105
:10164000E02D0994089520916D0130916E012817C5
:10165000390771F090936E0180936D01E0916F01F5
:10166000F0917001309721F00680F781E02D099408
:10167000089520916B0130916C012817390771F0A2
:1016800090936C0180936B01E0916F01F091700178
:10169000309721F00084F185E02D09940895089594
:1016A0000C944F0B0E94D2170E94F2090C949C18C4
:1016B0005F926F927F928F929F92AF92BF92CF92E2
:1016C000DF92EF92FF920F931F93CF93DF9300D09F
:1016D00000D00F92CDB7DEB70E943D0A92E7A92E47
:1016E00091E0B92E10E000E088248394912C502ED4
:1016F000802F0E94F20A7C01F501C190D1905F0118
:10170000C816D90609F45DC08091180281FD0E94B7
:10171000FB0A90E080E0CE24DF243401082E02C0D2
:10172000660C771C0A94E2F7960126213721232BB9
:1017300009F442C089835A82E620F72081E0EF282D
:1017400009F480E08B830E94DB178160782F9D83F2
:101750008C8349815A816B818D810E940D0C000F11
:10176000111FF801EE58FE4F80819181682679267D
:10177000718260820E94491B0E94010B909171014D
:101780008917B1F10E94010B809371010F900F90A6
:101790000F900F900F90DF91CF911F910F91FF90BD
:1017A000EF90DF90CF90BF90AF909F908F907F9001
:1017B0006F905F900C94930701968B30910509F020
:1017C000ACCF0F5F1F4F0730110509F090CF8FEF9F
:1017D00089838A831B820E94DB178160782F9D8317
:1017E0008C8349815A816B818D810E940D0CC2CFFF
:1017F0000F900F900F900F900F90DF91CF911F914E
:101800000F91FF90EF90DF90CF90BF90AF909F909F
:101810008F907F906F905F900895CF93DF93CDB7B7
:10182000DEB72B970FB6F894DEBF0FBECDBF4F8348
:10183000588769877A878B871E8285E0FE013796F5
:10184000DE01119601900D928A95E1F749815A8146
:101850006B817C818D819E812B960FB6F894DEBFC3
:101860000FBECDBFDF91CF910C948412882309F471
:10187000D8C0823871F40E94010B81FDD2C089E387
:101880000E9429160E94F31689E30E9466160C94A2
:10189000F316833859F40E94010B80FDC2C083E522
:1018A0000E9429160E94F31683E5EFCF843859F47D
:1018B0000E94010B82FDB5C087E40E9429160E9498
:1018C000F31687E4E2CF9CEF980F913A18F40E9448
:1018D0002916DDCF90E2980F983050F4877091E090
:1018E00001C0990F8A95EAF7892F0E94AA16CFCFD7
:1018F0009BE5980F933070F4853A31F0863A39F0D1
:1019000083E890E00C94230B81E890E0FBCF82E821
:1019100090E0F8CF98E5980F953108F082C0883AAA
:1019200009F440C0893A09F440C08A3A09F440C039
:101930008B3A09F440C08C3A09F440C08B3B09F45F
:1019400040C08C3B09F440C08D3A09F440C0803B54
:1019500009F440C08E3A09F440C08F3A09F440C0FF
:10196000813B09F440C0823B09F440C0833B09F449
:1019700040C0843B09F440C0853B09F440C0863B2D
:1019800009F440C0873B09F440C0883B09F440C0DB
:10199000893B09F440C08A3B09F440C090E080E0F4
:1019A0000C94390B82EE90E0FBCF89EE90E0F8CFFB
:1019B0008AEE90E0F5CF85EB90E0F2CF86EB90E0F9
:1019C000EFCF83EB90E0ECCF84EB90E0E9CF87EBB7
:1019D00090E0E6CF8CEC90E0E3CF8DEC90E0E0CFB0
:1019E00083E891E0DDCF8AE891E0DACF82E991E007
:1019F000D7CF84E991E0D4CF81E292E0D1CF83E2E6
:101A000092E0CECF84E292E0CBCF85E292E0C8CFE5
:101A100086E292E0C5CF87E292E0C2CF8AE292E00E
:101A2000BFCF0895882309F44BC0823871F40E9417
:101A3000010B81FF45C089E30E9429160E94F3161D
:101A400089E30E9466160C94F316833859F40E94B9
:101A5000010B80FF35C083E50E9429160E94F31612
:101A600083E5EFCF843859F40E94010B82FF28C030
:101A700087E40E9429160E94F31687E4E2CF9CEFC8
:101A8000980F913AF0F290E2980F983050F48770E6
:101A900091E001C0990F8A95EAF7892F0E94B0164C
:101AA000D2CF9BE5980F933020F490E080E00C9427
:101AB000230B885A853120F490E080E00C94390B98
:101AC0000895882321F00E94AA160C94F316089515
:101AD000882321F00E94B0160C94F31608958F927B
:101AE0009F92AF92BF92DF92EF92FF920F931F935C
:101AF000CF93DF9300D000D00F92CDB7DEB77C013B
:101B00006D837983FC01058102950F70128111119B
:101B10000E94C9160E942216D82E882371F0112324
:101B2000A1F08D81805E883080F082E00E940C16EA
:101B30000E94221691E0D82ED926E981E295EF7015
:101B4000F0E0EC53FB4D0C946024D12CF6CF0981CE
:101B50000F70F981F07F11F00295007F1123B1F031
:101B6000002361F08D81805E883018F02D81211175
:101B700009C0802F0E94AA160E94F3168D810E9430
:101B8000360C15C0802F0E94BB16F6CF8D810E94A7
:101B9000120D002361F08D81805E883018F03D8148
:101BA000311129C0802F0E94B0160E94F316DD204B
:101BB00009F4D3C10E94FF1580FDCFC1F701128245
:101BC0000E94F9150E944214C7010E94BE0F0E9494
:101BD000F9150F900F900F900F900F90DF91CF910C
:101BE0001F910F91FF90EF90DF90BF90AF909F906B
:101BF0008F900C946414802F0E94C116D6CF498117
:101C00004F70B42E5981507F503219F0B29480EF4A
:101C1000B8228D81882369F0813029F1112369F17F
:101C2000002359F0F701858180FFA8CF8F7085834D
:101C300004C0112361F0011104C08B2D0E94610DBD
:101C4000B6CF8B2D0130D1F70E94DD16B0CF011138
:101C500006C00E94E0168B2D0E94680DA8CF0130AF
:101C600009F4A5CFF6CF112321F0063008F09FCF5D
:101C7000E4CF053008F09BCFEECF002361F38D81D8
:101C80000E94120D94CF898186958695837069F0A4
:101C9000813009F08CCF8D8199819370111102C030
:101CA00090E080E00E94390B82CF8D819981937002
:101CB000111102C090E080E00E94230B78CF8D814B
:101CC000112329F00E94571A0E943E1B70CF0E94D8
:101CD000BF1AFACF8981837009F05FC0111167CFF5
:101CE0002D81229526952770220F220F8D818F70CE
:101CF00090E0B0E0A0E04C015D01022E04C0880C31
:101D0000991CAA1CBB1C0A94D2F7FD8160E070E00C
:101D1000CB01F4FF0FC06FE070E080E090E004C002
:101D2000660F771F881F991F2A95D2F760957095C7
:101D30008095909529812695269523702D832230B4
:101D4000B1F0233019F19B01AC01282939294A2926
:101D50005B2929833A834B835C833D8169817A8146
:101D60008B819C813130B1F00E94CF1320CF9B0139
:101D7000AC01282939294A295B2929833A834B83D5
:101D80005C83CA01B9010E94F91311CF0E94CF13DD
:101D9000C501B4010E94A5130ACF8695112311F045
:101DA00089818170882309F402CF2D81229526959F
:101DB0002770220F220F8D818F7090E0B0E0A0E09D
:101DC0004C015D01022E04C0880C991CAA1CBB1C8E
:101DD0000A94D2F73D8160E070E0CB0134FF0FC080
:101DE0006FE070E080E090E004C0660F771F881F0E
:101DF000991F2A95D2F760957095809590954981A5
:101E00004695469543704D834230B1F0433019F109
:101E10009B01AC01282939294A295B2929833A8366
:101E20004B835C833D8169817A818B819C813130D8
:101E3000B1F00E94D514BBCE9B01AC0128293929F1
:101E40004A295B2929833A834B835C83CA01B90100
:101E50000E94FF14ACCE0E94D514C501B4010E94AB
:101E6000AB14A5CE3D81323F09F447C080F4303F2A
:101E700079F1313FD9F1832F805E8031D0F0112389
:101E800009F456C001117ACE89818F7133C04D811A
:101E9000433FD1F1443F99F7112309F43FC08981B1
:101EA0008F7189830E94421463E089810E94031626
:101EB0007ECE5D815F705D8389818F71112321F0FA
:101EC0000E9442148D81BACE0E9464148D81C4CECA
:101ED000112341F0053008F06ACE89818F710E948C
:101EE000891465CE063008F062CEF7CF89818F71F4
:101EF000112339F00E9442145ACE89818F71112327
:101F0000C9F30E94641453CE112329F089818F7183
:101F10000E942D144CCE0E94231449CE81E00E94D1
:101F20000C16023008F443CE82E00E940C163FCE1D
:101F30000111A5CE89818F71E4CF49814F706D81E8
:101F4000C7010E9445060E941E1331CE49814F7081
:101F50006D81C7010E9495072ACE0F900F900F90B8
:101F60000F900F90DF91CF911F910F91FF90EF9005
:101F7000DF90BF90AF909F908F9008950F931F9325
:101F8000CF93DF93EC018B819C81892B29F0888191
:101F9000998189238F3F29F4DF91CF911F910F9170
:101FA0000895CE010E945E068823B1F3688179818D
:101FB0008A810E94CF158C010E9429150E949A13D4
:101FC000B801CE01DF91CF911F910F910C946F0D4D
:101FD0000E94C9160E94DA160E949C160E94F316EF
:101FE0000E942F1C0E943E1B90E080E00E94230B69
:101FF00090E080E00C94390B0E94B8160C94E80F26
:102000000E94C315282F892F82958F70903C80F4F1
:102010008A30B0F4843020F4823090F480E0089567
:102020008630E1F781E0203E88F0213FB9F70EC00D
:102030008C3011F08F3091F793FB882780F9089549
:1020400081E0203F39F018F4203E40F70895243F06
:1020500029F7FCCF0895CF93DF9300D000D00F92E3
:10206000CDB7DEB70F900F900F900F900F90DF91CC
:10207000CF910895CF93DF9300D000D000D0CDB79B
:10208000DEB726960FB6F894DEBF0FBECDBFDF9148
:10209000CF9108951F93CF93DF93E091810116E0D4
:1020A000809182018E1304C0DF91CF911F9108951A
:1020B000CE2FD0E01E9FF0011124ED57FE4F40813E
:1020C000518162817381848195810E943A10FE0161
:1020D0003196E770E5CF4091B3015091B401609122
:1020E000B5017091B6018091B7019091B8010C943F
:1020F0003A101F93CF93DF938091B801807FC1F492
:102100008091B5018823A1F080918101C091820165
:102110006091B3017091B4014091B6015091B70143
:10212000D62FD723DA01A095B09516E0C81304C0C6
:10213000DF91CF911F91089590E04115510511F065
:10214000DF3F31F401968770F1CF2A0F3B1F17C094
:10215000189FF001199FF00D1124ED57FE4F2181BA
:102160002713F0CF20812613EDCF22812111EACF52
:10217000238134812417350740F3241B350B283C79
:10218000310500F72091B8012F7020612093B8012C
:1021900026E0289FF001299FF00D1124E857FE4FFB
:1021A00080818F708061808383EB91E00E94BE0FFD
:1021B000DF91CF911F910C944A109F92AF92BF92E2
:1021C000CF92DF92EF92FF920F931F93CF93DF9303
:1021D000CDB7DEB72B970FB6F894DEBF0FBECDBFDD
:1021E0008C0185E0F801DE01179601900D928A9529
:1021F000E1F7D8014C9111965C9111971296EC90F1
:1022000012978091B6019091B701009709F46BC1C4
:102210002091B3013091B401632F62236F3F09F421
:1022200062C11396CD90DC909090B501992009F48D
:10223000F8C0C816D90608F43FC0F601E81BF90B30
:10224000CF01FF24F394883C910508F0F12C83EB37
:10225000A82E81E0B82E8091B801982F907FFF20A2
:1022600009F4B7C0911180C0FE2C35132AC0241385
:1022700028C0E11026C08F7080618093B8010E9451
:102280006B10C5010E94BE0F8091B801D801159650
:102290008C938F2D2B960FB6F894DEBF0FBECDBF5B
:1022A000DF91CF911F910F91FF90EF90DF90CF9032
:1022B000BF90AF909F900895809590958C0D9D1D37
:1022C000C0CFCD2829F0842F85238F3F09F019C175
:1022D00080E0B82FB170DB2EE09181012091820166
:1022E00036E080FD1CC0EE20A1F28091B801816033
:1022F0008093B801F12CCDCF8E2F90E03E9FF0015E
:102300001124ED57FE4F6181651306C0608164138F
:1023100003C062816E11E7CFFC013196E770E213D2
:10232000EBCF4F8358878F8198850E94C315292F43
:1023300022952F70903260F0225F2F70223078F457
:102340009F7051F0F8019581907F31F4D12C0AC033
:102350009F7011F08823D1F3805E8830B8F3C801F4
:102360000E94BE0FFD2C95CF351306C0241304C068
:10237000D801EE2009F47BC04F8358878F81988560
:102380000E940010882309F4B8C0EE2009F4B5C0FB
:102390008091B801803270F02091B3013091B40186
:1023A0003A8329831B82DD82CC828E83CE01019603
:1023B0000E94BE0F86E0F801A3EBB1E001900D9200
:1023C0008A95E1F70E9479100E946B10FF24F39424
:1023D00060CF911113C07C2DDB86CA866E2D8B8554
:1023E0000E942B1083EB91E00E94BE0F86E0F50166
:1023F00011928A95E9F70E946B104BCF3513BCCF31
:102400002413BACFE110B8CFD80115968C93C80128
:102410000E94BE0F86E0F50111928A95E9F7F92C2A
:1024200038CFC816D90688F1B601681B790BCB01E5
:10243000F12C883C910508F047C0FE2CEE2009F4F1
:102440005CC0351330C024132EC08091B80180FDCC
:1024500021C0982F907FF1F0D80115968C93159795
:10246000903F39F0982F907F905F8F70892B159651
:102470008C93C8010E94BE0F86E0F801A3EBB1E087
:1024800001900D928A95E1F7B6CF809590958C0DCD
:102490009D1DCECF86E0F801A3EBB1E001900D9237
:1024A0008A95E1F7F6CE4F8358878F8198850E94F1
:1024B000001081117FCF8091B80181608093B801B5
:1024C000C8010E94BE0FE5CE7C2DDB86CA866E2D2C
:1024D0008B850E942B1086E0E3EBF1E0DF011D927B
:1024E0008A95E9F788CFEE2041F04F8358878F8196
:1024F00098850E94001081115DCFC8010E94BE0F17
:1025000065CF81E08E25E5CE1F93CF93DF93CDB7C6
:10251000DEB72C970FB6F894DEBF0FBECDBF4F834A
:10252000588769877A878B879C87CE0107960E9498
:10253000DD10882369F08A859B85892B39F04F81CE
:102540005885842F85238F3F09F071C016E05FC046
:1025500086E0FE013796DE01119601900D928A9574
:10256000E1F78A859B85892B89F388859F8189235B
:102570008F3F61F32091820130E0C901019687709D
:102580009927409181014817190671F40E94FC0FA8
:10259000109282011092810186E0E3EBF1E0DF010D
:1025A0001D928A95E9F7D2CF96E0929FD001939F32
:1025B000B00D1124AD57BE4FFE01319601900D9222
:1025C0009A95E1F7809382010E944A10BFCF819FC4
:1025D000C00111248D579E4F0E94DD108823E9F021
:1025E000E09181011E9FF0011124ED57FE4F4081C3
:1025F000518162817381848195810E943A1080911A
:10260000810190E0019687709927809381018091E4
:102610008101909182018913DACF2C960FB6F8943C
:10262000DEBF0FBECDBFDF91CF911F9108956985A9
:102630007A858B859C850E943A1088CFEF92FF9215
:102640000F931F93CF93DF938C01892B89F0F12C8B
:10265000EE24E394E8012196F8018491843709F48B
:1026600057C0A0F4823009F43EC048F48130D1F064
:10267000DF91CF911F910F91FF90EF9008959CEF04
:10268000980F9037A8F70E94360C0AC0853709F4D6
:102690004CC09CE7980F903758F78F770E94120D27
:1026A0008E0116C00E5F1F4FFE01849190E2980FBD
:1026B000983060F48770FE2D01C0FF0F8A95EAF70D
:1026C0008F2F0E94CC160E94F31602C00E94360C77
:1026D0008F2D815008F4BECFEFE9FFE03197F1F77D
:1026E00000C00000F6CF0E5F1F4FFE01849190E204
:1026F000980F983050F48770FE2D01C0FF0F8A9517
:10270000EAF78F2F0E94D216DECF0E94120DE0CF83
:102710000E5F1F4FFE01C491C150D0F28FE99FE0C0
:102720000197F1F700C00000F7CF0E5F1F4FFE01C9
:10273000F490CECF08956093EF017093F0018093F1
:10274000F1019093F2010C94E80FCF93DF9300D046
:1027500000D0CDB7DEB769837A838B839C83809169
:10276000EF019091F001A091F101B091F201298166
:102770003A814B815C81822B932BA42BB52B8093C8
:10278000EF019093F001A093F101B093F2010F904B
:102790000F900F900F90DF91CF910C94E80FCF9393
:1027A000DF9300D000D0CDB7DEB769837A838B8307
:1027B0009C838091EF019091F001A091F101B09183
:1027C000F20129813A814B815C8182239323A423E6
:1027D000B5238093EF019093F001A093F101B093A2
:1027E000F2010F900F900F900F90DF91CF910C940A
:1027F000E80FCF93DF9300D000D0CDB7DEB7698369
:102800007A838B839C838091EF019091F001A0915A
:10281000F101B091F20129813A814B815C818227DB
:102820009327A427B5278093EF019093F001A093FD
:10283000F101B093F2010F900F900F900F90DF9184
:10284000CF910C94E80F1092EB011092EC011092D2
:10285000ED011092EE010C94E80F41E050E060E0D1
:1028600070E004C0440F551F661F771F8A95D2F78A
:102870004093EB015093EC016093ED017093EE01F6
:102880000C94E80F282F81E090E0A0E0B0E004C0B5
:10289000880F991FAA1FBB1F2A95D2F74091EB0101
:1028A0005091EC016091ED017091EE01842B952B1C
:1028B000A62BB72B8093EB019093EC01A093ED0135
:1028C000B093EE010C94E80F41E050E060E070E05E
:1028D00004C0440F551F661F771F8A95D2F7409595
:1028E0005095609570958091EB019091EC01A091CD
:1028F000ED01B091EE0184239523A623B7238093A5
:10290000EB019093EC01A093ED01B093EE010C94D8
:10291000E80F282F81E090E0A0E0B0E004C0880F2D
:10292000991FAA1FBB1F2A95D2F74091EB01509126
:10293000EC016091ED017091EE0184279527A627A7
:10294000B7278093EB019093EC01A093ED01B09336
:10295000EE010C94E80FCF93DF9300D000D0CDB7F9
:10296000DEB769837A838B839C838091EB0190919E
:10297000EC01A091ED01B091EE0129813A814B81EA
:102980005C81822B932BA42BB52B8093EB0190932E
:10299000EC01A093ED01B093EE010F900F900F901A
:1029A0000F90DF91CF910C94E80FCF93DF9300D07D
:1029B00000D0CDB7DEB769837A838B839C83809107
:1029C000EB019091EC01A091ED01B091EE01298114
:1029D0003A814B815C8182239323A423B523809386
:1029E000EB019093EC01A093ED01B093EE010F90F9
:1029F0000F900F900F90DF91CF910C94E80FCF9331
:102A0000DF9300D000D0CDB7DEB769837A838B83A4
:102A10009C838091EB019091EC01A091ED01B0912C
:102A2000EE0129813A814B815C8182279327A4277B
:102A3000B5278093EB019093EC01A093ED01B09347
:102A4000EE010F900F900F900F90DF91CF910C94AB
:102A5000E80F0895E82F2BE0929FE00D11248E2FB0
:102A6000877041E001C0440F8A95EAF7E695E69544
:102A7000E69585E0E89FF0011124E754FE4F30E031
:102A800020E070E05191DF011197CB01022E02C0CE
:102A9000969587950A94E2F781708195852784231E
:102AA00085278C932F5F3F4F2530310559F70895C7
:102AB000E82F2BE0929FE00D11249E2F9770E69552
:102AC000E695E69585E0E89FF0011124E754FE4F76
:102AD00050E040E080E0219130E0092E02C03695C0
:102AE00027950A94E2F721703327042E01C0220FA4
:102AF0000A94EAF7822B4F5F5F4F4530510559F733
:102B00000895BF92CF92DF92EF92FF920F931F939F
:102B1000CF93DF938C01C090EB01D090EC01E0905B
:102B2000ED01F090EE018091EF019091F001A09104
:102B3000F101B091F201C82AD92AEA2AFB2ACFE191
:102B4000D0E0BC2ED701C6010C2E04C0B695A795C7
:102B5000979587950A94D2F780FD0EC0219788F744
:102B6000B12C8B2DDF91CF911F910F91FF90EF90A2
:102B7000DF90CF90BF900895B8018C2F0E94B207CC
:102B8000019761F3EECFCF93DF93D82FC92F0E9427
:102B900081156D2F7C2FDF91CF910C94B2071F937D
:102BA000CF93DF93162FD72F90918001992339F07F
:102BB000862F972FDF91CF911F910C94C3158823F7
:102BC00091F0862F972F0E948115C82F682F812F93
:102BD0009D2F0E942A15612F7D2F8C2FDF91CF9181
:102BE0001F910C94B207862F972F0E945815C82F5B
:102BF000F2CF8091F3018595859585950895809113
:102C0000F3018770089598E0899F90011124622B49
:102C10006093F3010C9442149091F3018095892301
:102C20008093F301282F277061F4282F082E000CC1
:102C3000330B9217130629F08595859585950C948D
:102C4000641408959091F301977081E009F480E095
:102C50000895909112019923E1F09091490297FF14
:102C600018C0E82FE695E695E695EF3139F1209109
:102C7000000130910101E20FF32FF11D877021E077
:102C800030E001C0220F8A95EAF78181822B81838F
:102C900008952091000130910101F90132969FEFD2
:102CA00040E05191851751F09F3F19F4511101C037
:102CB000942F4F5F4E31A9F79F3F09F40895290FD4
:102CC000311D97FD3A95F901828308959091120183
:102CD000992301F19091490297FF1CC0E82FE695D6
:102CE000E695E695EF3139F120910001309101012F
:102CF000E20FF32FF11D877021E030E0A90102C03F
:102D0000440F551F8A95E2F7CA0180959181892366
:102D1000818308952091000130910101F9013296DB
:102D2000205E3F4F9191891303C0DF0111971C92E0
:102D3000E217F307B9F7089581E090E0E091000110
:102D4000F0910101E80FF91F108201968032910580
:102D5000A9F7089590911702982B90931702089560
:102D6000982F9095809117028923809317020895D8
:102D700010921702089590911602982B90931602C4
:102D80000895982F909580911602892380931602BA
:102D9000089510921602089590911502982B909321
:102DA00015020895982F909580911502892380939C
:102DB000150208951092150208958093F401089564
:102DC0001092F40108952091000130910101F90160
:102DD0003196205E3F4F80E0919191118F5FE21715
:102DE000F307D1F70895E0910001F091010180917E
:102DF00017028083E0910001F091010180819091A0
:102E00001602892B8083E0910001F09101018081FD
:102E100090911502892B80839091F401992361F0A0
:102E2000E0910001F09101018081892B80830E9453
:102E3000E31681111092F40180910001909101013B
:102E40000C940D0B6DEE7EEF90E080E00E949A24D2
:102E500060E082E090E00E94882460E083E090E0FF
:102E60000E94882460E084E090E00E94882460E072
:102E700085E090E00C94882490E080E00E94822419
:102E80009C0181E02D3E3E4F09F080E0089582E0F4
:102E900090E00C947A24682F82E090E00C948824CF
:102EA00083E090E00C947A24682F83E090E00C9407
:102EB000882484E090E00C947A24682F84E090E0E9
:102EC0000C94882480914F02843039F110921902B9
:102ED00088E190E020E40FB6F894A8958093600014
:102EE0000FBE2093600080E00E94930783B7817F2C
:102EF000846083BF83B7816083BF7894889583B7EC
:102F00008E7F83BF0FB6F894A8958091600088618A
:102F100080936000109260000FBE08950895089598
:102F2000CF930E948E170E943D0A0E948F17C0E027
:102F30008C2F0E94F20A892B31F4CF5FC730C1F782
:102F400080E0CF91089581E0FCCF0E94FC0F0E94A9
:102F5000010B0C9493071F921FB61F9211248F939D
:102F60009F93AF93BF9380911902811113C08091F9
:102F7000450290914602A0914702B09148024196C5
:102F8000A11DB11D8093450290934602A093470274
:102F9000B0934802BF91AF919F918F911F901FBE38
:102FA0001F90189582E084BD93E095BD9AEF97BD80
:102FB00080936E0008952FB7F89480914502909108
:102FC0004602A0914702B09148022FBF0895CF92C8
:102FD000DF92EF92FF929C014FB7F89480914502E7
:102FE00090914602A0914702B09148024FBF6C01F8
:102FF0007D01EE24FF24A90170E060E0C416D5062F
:10300000E606F70638F0821B930BFF90EF90DF90F7
:10301000CF9008950197F7CF1F921FB61F921124EA
:103020008F939F93AF93BF938091450290914602F7
:10303000A0914702B09148020196A11DB11D809355
:10304000450290934602A0934702B0934802BF9175
:10305000AF919F918F911F901FBE1F9018950E9456
:103060002320F8942FEF87EA91E62150804090408A
:10307000E1F700C0000087E090EBDC01809358028C
:1030800090935902A0935A02B0935B0288E19CE0AE
:103090000FB6F894A895809360000FBE90936000DF
:1030A000FFCFAF92BF92CF92DF92EF92FF920F933A
:1030B0001F93CF93C0E0AA24A394B12CE82EF12C47
:1030C0008C2F0E94F20A6C0110E000E0C501002E76
:1030D00002C0880F991F0A94E2F78C219D21892B49
:1030E00099F0602F7C2F80E00E949607E816F90681
:1030F00059F481E0CF911F910F91FF90EF90DF90F5
:10310000CF90BF90AF9008950F5F1F4F0B30110508
:10311000E9F6CF5FC730A1F680E0ECCFCF93C82FA0
:103120008CE20E945118882321F08C2FCF910C94AF
:10313000511880E0CF910895CF93DF9300D000D055
:10314000CDB7DEB70E943C17811102C00E94221742
:1031500095E6998308C00E943D0A8FE39CE9019798
:10316000F1F700C00000A981A150A983A111F3CFFC
:1031700089E20E948E18811110C18AE20E948E1885
:1031800081110E94221785E00E948E1881110E94F1
:103190002F180E9447178093180287E00E948E180C
:1031A000882371F08BE10E948E18882309F4D1C026
:1031B00090911802892F8D7F91FF82608093180271
:1031C000809118020E944B170E94591790E090932B
:1031D0004A028093490280EE0E948E18882341F0B3
:1031E00090914902892F8E7F90FF816080934902E0
:1031F00089E30E948E18882341F090914902892F1B
:103200008D7F91FF82608093490282EE0E948E182A
:10321000882341F090914902892F8B7F92FF84602F
:103220008093490286EE0E948E18882341F0909187
:103230004902892F877F93FF88608093490283EE3C
:103240000E948E18882341F090914902892F8F7E29
:1032500094FF80618093490285E30E948E18882341
:1032600041F090914902892F8F7D95FF8062809374
:10327000490281E30E948E18882341F0909149020F
:10328000892F8F7B96FF80648093490281E10E94A1
:103290008E18882341F090914902892F97FB87F976
:1032A000805880934902809149020E945D1787E20D
:1032B0000E948E1889838EE10E948E18882319F04F
:1032C000B981B260B9838FE10E948E18882319F00A
:1032D00029812460298380E20E948E18882319F0B6
:1032E00039813860398381E20E948E18882319F071
:1032F00049814061498382E20E948E18882319F037
:1033000059815062598383E20E948E18882319F0F4
:1033100089818064898384E20E948E188823B1F1B8
:1033200099819068998389810E9454173981232F4C
:1033300030E050E040E029833A834B835C83CA014C
:10334000B9010F900F900F900F90DF91CF910C94D7
:103350009B138EE00E948E18882339F090911802FA
:10336000892F8B7F92FF846029CF80E10E948E1885
:1033700090911802882329F0892F877F93FF886016
:103380001DCF892F8E7F90FF816018CFA981A11159
:10339000CACF0E945017282FCBCF0F900F900F90BD
:1033A0000F90DF91CF91089580911C0280FF12C091
:1033B0006091050185E0689FB001112475956795BE
:1033C0007595679560387105A8F561157105A1F1CE
:1033D000862F089581FF09C06091050185E0689FEF
:1033E000B001112475956795EDCF6091050182FDBF
:1033F0000AC080911D028823D1F090910401609150
:103400000501891728F085E0689FB0011124DACF03
:10341000869FB001112485E0869F9001879F300D23
:103420001124692F70E0C9010E944C24CBCF65E0C4
:1034300070E0CECF8FE7089581E0089580911C025F
:1034400080FF0CC06091030170E0759567957595DC
:1034500067956115710549F1862F089581FF06C0B2
:103460006091030170E075956795F3CF609103015A
:1034700082FD0BC090911D029923A1F06091020181
:1034800080910301961738F0682F70E0603871055D
:1034900000F38FE70895899FC001112470E00E9416
:1034A0004C24F4CF61E070E0D7CF81E00895803FF5
:1034B00031F40E94D4198195809320020895813FB0
:1034C00019F40E94D419F8CF823F31F40E94D41924
:1034D000819580931F020895833F19F40E94D419A7
:1034E000F8CF893F29F40E941E1A80932102089583
:1034F0008A3F21F40E941E1A8195F7CF8B3F31F449
:103500000E941E1A81958093220208958C3F19F41F
:103510000E941E1AF8CF843F31F480911E02816010
:1035200080931E020895853F21F480911E028260DF
:10353000F7CF863F21F480911E028460F1CF873F50
:1035400021F480911E028860EBCF883F21F48091A6
:103550001E028061E5CF8D3F31F480911C028160B5
:1035600080931C0208958E3F21F480911C0282609A
:10357000F7CF8F3FB9F780911C028460F1CF909113
:103580001F02803F41F48091200287FD10922002AB
:10359000992371F00895813F29F480912002181633
:1035A000ACF3F6CF823F81F497FFF2CF10921F0267
:1035B0008091200290912102892B90912202892BE7
:1035C00049F710921D020895833F19F4191674F3F8
:1035D000DFCF893F39F4809121021816CCF6109282
:1035E0002102D6CF8A3F29F48091210287FFD0CFD4
:1035F000F6CF8B3F39F48091220287FFC9CF10921A
:103600002202C6CF8C3F29F4809122021816BCF307
:10361000BFCF843F31F480911E028E7F80931E02C3
:10362000B7CF853F21F480911E028D7FF7CF863F73
:1036300021F480911E028B7FF1CF873F21F480918E
:103640001E02877FEBCF883F21F480911E028F7E80
:10365000E5CF8D3F31F480911C028E7F80931C0258
:1036600097CF8E3F21F480911C028D7FF7CF8F3F43
:1036700009F08ECF80911C028B7FF0CF8EE192E01B
:103680000E94180B0E94DB1790931B0280931A0272
:1036900008951F93CF93DF9300D000D000D0CDB713
:1036A000DEB780911A0290911B020E94E717AC01CD
:1036B00080911D022091060130E0811106C0209109
:1036C00007019AE0299F900111244217530788F0BF
:1036D00020911F02A0912002A98310912102B09194
:1036E0002202BE8321110FC09A2F912B9B2B09F030
:1036F000B2C026960FB6F894DEBF0FBECDBFDF91E5
:10370000CF911F9108958F3F19F08F5F80931D0215
:10371000121624F40E94D41980931F0280911F0274
:1037200087FF05C00E94D419819580931F022981CB
:10373000121624F40E94D419809320028091200252
:1037400087FF05C00E94D419819580932002809143
:103750001F02882309F455C0309120023D83332392
:1037600009F44FC0282F880F330B440B550B2983C6
:103770003A834B835C83CA01B9010E94532323E33C
:1037800033E343E35FE369837A838B839C836981BB
:103790007A818B819C810E94B72369837A838B8392
:1037A0009C8369817A818B819C810E941B23609319
:1037B0001F028D81082E000C990BAA0BBB0B89836D
:1037C0009A83AB83BC83BC01CD010E94532323E3C6
:1037D00033E343E35FE369837A838B839C8369816B
:1037E0007A818B819C810E94B72369837A838B8342
:1037F0009C8369817A818B819C810E941B236093C9
:103800002002111624F40E941E1A80932102809136
:10381000210287FF05C00E941E1A81958093210214
:103820009E81191624F40E941E1A80932202809110
:10383000220287FF05C00E941E1A819580932202F2
:1038400026960FB6F894DEBF0FBECDBFDF91CF91A5
:103850001F910C943E1B8F3F09F057CF68CF85E036
:10386000EEE1F2E0DF011D928A95E9F710921D0268
:1038700010921C020895809143020895CF93DF9324
:1038800000D00F92CDB7DEB720914F02243019F54A
:1038900023E029838A839B832093E9008FEF909113
:1038A000E800815095FD06C095ED9A95F1F700006E
:1038B0008111F5CF8091E80085FF0DC050E040E018
:1038C00063E070E0CE0101960E949B1E8091E800AB
:1038D0008E778093E8000F900F900F90DF91CF913B
:1038E0000895CF93DF9300D00F92CDB7DEB79C0140
:1038F00080914F02843031F582E08983205831096C
:103900003B832A8383E08093E9008FEF9091E80066
:10391000815095FD06C095ED9A95F1F70000811153
:10392000F5CF8091E80085FF0DC050E040E063E0F6
:1039300070E0CE0101960E949B1E8091E8008E7778
:103940008093E8000F900F900F90DF91CF91089532
:1039500020914F022430F1F422E02093E9002FEF70
:103960003091E800215035FD06C035ED3A95F1F76C
:1039700000002111F5CF2091E80025FF0BC050E099
:1039800040E065E070E00E949B1E8091E8008E7729
:103990008093E8000895CF93DF93D82FC92F8091AB
:1039A0004F028430F1F4909112019923E9F0909143
:1039B000490297FF19C08093E9008FEF9091E800CA
:1039C000815095FD06C095E19A95F1F700008111AF
:1039D000F5CF8091E80050E040E060E270E085FDC6
:1039E0001AC0DF91CF91089581E08093E9008FEFB5
:1039F0009091E800815095FD06C095ED9A95F1F7FC
:103A000000008111F5CF8091E80085FFEACF50E0FA
:103A100040E068E070E08D2F9C2F0E949B1E8091FB
:103A2000E8008E778093E80080E2ED2FFC2FA3E280
:103A3000B2E001900D928A95E1F7D3CF80914E02CA
:103A4000811109C00E9423200E9480208091E20001
:103A500084608093E200089510924E0208950895C4
:103A600008950C94A51742E061EC81E00E949F1F2D
:103A700042E061EC82E00E949F1F42E061EC83E043
:103A80000E949F1F42E261EC84E00C949F1F809192
:103A90005102893089F148F4823009F494C08330AE
:103AA00009F44FC0813041F008958A3009F47BC099
:103AB0008B3009F461C0089580915002813A09F079
:103AC0003FC08091E800877F8093E8008091540296
:103AD00090915502892B61F460E283E292E070E0FC
:103AE0000E94EA1E8091E8008B778093E800089599
:103AF00060E090E080E0F3CF80915002813201F5E8
:103B00008091540290915502009711F00397C1F4EF
:103B10008091E800877F8093E8008091E80082FF31
:103B20000BC08091F100809343028091E8008B7775
:103B30008093E8000C94D31F80914F028111EDCF48
:103B4000089580915002813AD9F780915402909162
:103B50005502892BA9F78091E800877F8093E800C0
:103B60008091E80080FFFCCF809112018093F100EA
:103B70008091E8008E77DCCF80915002813201F78E
:103B80008091540290915502892BD1F68091E800E2
:103B9000877F8093E8000E94D31F80915202809318
:103BA00012010C94FC0F80915002813249F68091F1
:103BB000E800877F8093E8000E94D31F8091530222
:103BC00080934402089580915002813A09F0B8CF61
:103BD0008091E800877F8093E8008091E80080FF73
:103BE000FCCF80914402C2CF84B7877F84BF0FB6D9
:103BF000F894A8958091600088618093600010928D
:103C000060000FBE80E880936100109261000E9406
:103C1000500B0E9423200E9480208091E20084604B
:103C20008093E20078940E9400230E94520B88E067
:103C300091E00E94FC0A80914F02853019F00E94A9
:103C4000580BF9CF0E94621780914D02882399F397
:103C50000E949017882379F30E94851EECCF9C0167
:103C6000DA01892F992783309105C1F068F48130FA
:103C7000910509F445C0029761F48DE690E02CE7C8
:103C80003AE02D933C93089581329105E1F08297BB
:103C900039F190E080E030E020E0F3CFC9019927CE
:103CA000213059F08230910559F0E8E7FAE0892B8C
:103CB00081F7849190E09F01E4CFE0E6FAE0F9CF4C
:103CC000ECE4FAE0F6CF643020F7E62FF0E0EE0FF8
:103CD000FF1FEF5CFE4F2081318189E090E0D1CF62
:103CE0006430B8F670E0FB01EE0FFF1FE75DFE4F9A
:103CF000208131816B5D7E4FFB01808190E0C1CFDF
:103D000082E190E029EE3AE0BCCF80E189BD82E11A
:103D100089BD09B400FEFDCF8091D8008F7D8093CE
:103D2000D8008091E00082608093E0008091E00004
:103D300081FDFCCF0895AF92BF92CF92DF92FF92A8
:103D40000F931F93CF93DF936C01EB018A010E94C5
:103D5000F21FF82E811123C00115110539F0F80169
:103D600080819181C81BD90BC80ED91EB12CA12C02
:103D70002097A9F08091E80085FD22C08091E8009D
:103D80008E778093E80001151105A1F0F80180817C
:103D90009181A80EB91EB182A08285E0F82E8F2DE8
:103DA000DF91CF911F910F91FF90DF90CF90BF9047
:103DB000AF9008950E94F21F8823D1F2F82EEFCF22
:103DC000F60181916F018093F1002197FFEFAF1A07
:103DD000BF0ACECFFC01CB01209156023091570291
:103DE0002617370790F0009729F42091E8002E77E6
:103DF0002093E80040E0009751F4411108C0809101
:103E0000E80082FF31C080E00895C901F3CF20911E
:103E10004F022223A9F12530A9F12091E80023FDCA
:103E20002DC02091E80022FDEACF2091E80020FF7C
:103E3000E2CF3091F3002091F200009719F0283082
:103E4000310558F041E02830310509F040E020917B
:103E5000E8002E772093E800CECF41914093F10007
:103E600001972F5F3F4FE9CF80914F02882341F0A8
:103E7000853041F08091E80083FFC1CF81E0089553
:103E800082E0089583E00895FC01CB012091560261
:103E9000309157022617370790F0009729F42091A8
:103EA000E8002E772093E80040E0009751F441119C
:103EB00008C08091E80082FF32C080E00895C90107
:103EC000F3CF20914F022223B1F12530B1F120919F
:103ED000E80023FD2EC02091E80022FDEACF2091CA
:103EE000E80020FFE2CF3091F3002091F20000972C
:103EF00019F02830310558F041E02830310509F03B
:103F000040E02091E8002E772093E800CECF449146
:103F10004093F100319601972F5F3F4FE8CF80919A
:103F20004F02882341F0853041F08091E80083FF03
:103F3000C0CF81E0089582E0089583E00895982F2E
:103F4000973028F08F708093E90081E00895909376
:103F5000E900242F762F50E0981731F07091EC0093
:103F60002091ED005091F00021FD02C09F5FE8CF4D
:103F70003091EB003E7F3093EB003091ED003D7FC0
:103F80003093ED003091EB0031603093EB00709393
:103F9000EC002093ED005093F0002091EE0027FDFF
:103FA000E5CF80E008958091500287FF13C0809193
:103FB000E80082FF06C08091E8008B778093E800DC
:103FC00004C080914F028111F2CF089580914F0279
:103FD0008823D9F38091E80080FFF8CF8091E80032
:103FE0008E77ECCF2091E4003091E50095E6A901B1
:103FF0002091EC00822F817020FF06C08091E800A4
:1040000080FF06C080E008952091E80022FD1AC0DC
:1040100080914F02882389F0853089F08091EB00F0
:1040200085FD0FC02091E4003091E5004217530751
:10403000F9F29150E1F684E0089582E0089583E07A
:10404000089581E008950E9491200E949920E0EE59
:10405000F0E0808181608083E8EDF0E080818F77FF
:10406000808319BCA7EDB0E08C918E7F8C9380810A
:104070008F7E808310924E0208950F931F93CF93EB
:10408000DF930E9491200E949920C8EDD0E08881A2
:104090008F77888388818068888388818F7D8883F3
:1040A00019BC10924F0210924B0210924D021092C6
:1040B0004C0200EE10E0F80180818B7F80838881C4
:1040C0008160888342E060E080E00E949F1FE1EE13
:1040D000F0E080818E7F8083E2EEF0E0808181607D
:1040E0008083808188608083F80180818E7F8083D7
:1040F000888180618883DF91CF911F910F9108950E
:10410000E8EDF0E080818F7E8083E7EDF0E0808154
:104110008160808384E082BF81E080934E020C94B2
:104120003D20E8EDF0E080818E7F80831092E200F8
:1041300008951092DA001092E10008951F920F92F4
:104140000FB60F9211242F933F934F935F936F936A
:104150007F938F939F93AF93BF93EF93FF93809140
:10416000E10082FF0BC08091E20082FF07C08091D6
:10417000E1008B7F8093E1000E94FF228091DA00B2
:1041800080FF19C08091D80080FF15C08091DA00AF
:104190008E7F8093DA008091D90080FF94C080E107
:1041A00089BD82E189BD09B400FEFDCF81E0809325
:1041B0004F020E941E1D8091E10080FF19C0809176
:1041C000E20080FF15C08091E2008E7F8093E200C4
:1041D0008091E20080618093E2008091D80080624B
:1041E0008093D80019BC85E080934F020E94301D57
:1041F0008091E10084FF29C08091E20084FF25C006
:1042000080E189BD82E189BD09B400FEFDCF8091C6
:10421000D8008F7D8093D8008091E1008F7E8093BD
:10422000E1008091E2008F7E8093E2008091E200C5
:1042300081608093E20080914B02882309F449C099
:1042400084E080934F020E94311D8091E10083FF42
:1042500029C08091E20083FF25C08091E100877F23
:104260008093E10082E080934F0210924B02809194
:10427000E1008E7F8093E1008091E2008E7F809349
:10428000E2008091E20080618093E20042E060E021
:1042900080E00E949F1F8091F00088608093F00072
:1042A0000E942F1DFF91EF91BF91AF919F918F9130
:1042B0007F916F915F914F913F912F910F900FBE22
:1042C0000F901F90189519BC10924F020E942C1D40
:1042D00072CF8091E30087FD02C081E0B2CF83E01E
:1042E000B0CF1F920F920FB60F9211242F933F93CE
:1042F0004F935F936F937F938F939F93AF93BF93EE
:10430000CF93DF93EF93FF93D091E900DF7080911B
:10431000EC00C82FC17080FDC0E81092E9008091C8
:10432000F000877F8093F00078940E94B52110926E
:10433000E9008091F00088608093F000CD2BCF7071
:10434000C093E900FF91EF91DF91CF91BF91AF91C1
:104350009F918F917F916F915F914F913F912F919D
:104360000F900FBE0F901F9018951F93CF93DF9360
:10437000CDB7DEB7AA970FB6F894DEBF0FBECDBF9C
:1043800080E592E0FC0101962091F100208322E07B
:1043900088359207B9F70E94471D8091E80083FF96
:1043A00016C180915002909151029A3008F00FC1CD
:1043B000E92FF0E0EC52FB4D0C946024803881F042
:1043C000823809F004C1809154028F708093E90013
:1043D0008091EB0085FB882780F91092E90006C0E8
:1043E00080914C0290914D02911182609091E80071
:1043F000977F9093E8008093F1001092F1008091F4
:10440000E8008E77E0C0882309F4CEC0823009F03E
:10441000DEC0809152028111D1C0809154028F7010
:1044200009F4D5C08093E9002091EB0020FFC6C0BD
:10443000933031F48091EB0080628093EB00BEC03A
:104440009091EB0090619093EB0021E030E001C08F
:10445000220F8A95EAF72093EA001092EA008091F1
:10446000EB008860EACF8111B2C0109152021F7731
:104470008091E3008078812B8093E3008091E800B5
:10448000877F8093E8000E94D31F8091E80080FF1F
:10449000FCCF8091E30080688093E30082E01111FB
:1044A00083E080934F0293C08058823008F08FC021
:1044B00080915202909153028C3D23E09207A1F526
:1044C00083E08A838AE289834FB7F894DE011396EA
:1044D00020E03EE051E2E32FF0E050935700E491FA
:1044E00020FF03C0E295EF703F5FEF708E2F90E0EA
:1044F000EA30C0F0C7968D939D932F5F243159F712
:104500004FBF8091E800877F8093E8006AE270E007
:10451000CE0101960E94EA1E8091E8008B7780937D
:10452000E80055C0C096E7CFAE014F5F5F4F609186
:1045300054020E942F1EBC01892B09F448C08091AF
:10454000E800877F8093E80089819A810E94441F58
:10455000E3CF8038E1F58091E800877F8093E80021
:1045600080914B028093F1004ACF811130C090912D
:104570005202923060F58091E800877F8093E800D6
:1045800090934B020E94D31F80914B02882311F01D
:1045900084E005C08091E30087FDFACF81E080933D
:1045A0004F020E94331D13C080915202813079F472
:1045B00081E0933009F080E080934D021092E90091
:1045C0008091E800877F8093E8000E94D31F80914C
:1045D000E80083FF0AC08091E800877F8093E800AD
:1045E0008091EB0080628093EB00AA960FB6F8945E
:1045F000DEBF0FBECDBFDF91CF911F91089508950B
:10460000CF9380914F028823A1F0C091E900CF7031
:104610009091EC00892F817090FD80E8C82B10925A
:10462000E9008091E80083FD0E94B521CF70C0931E
:10463000E900CF9108950E9422236894B1110C944F
:10464000B12308950E94962388F09F5798F0B92FC0
:104650009927B751B0F0E1F0660F771F881F991FB7
:104660001AF0BA95C9F714C0B13091F00E94B02386
:10467000B1E008950C94B023672F782F8827B85F96
:1046800039F0B93FCCF3869577956795B395D9F70F
:104690003EF490958095709561957F4F8F4F9F4F19
:1046A0000895E89409C097FB3EF490958095709525
:1046B00061957F4F8F4F9F4F9923A9F0F92F96E96E
:1046C000BB279395F695879577956795B795F111E3
:1046D000F8CFFAF4BB0F11F460FF1BC06F5F7F4F80
:1046E0008F4F9F4F16C0882311F096E911C0772392
:1046F00021F09EE8872F762F05C0662371F096E89B
:10470000862F70E060E02AF09A95660F771F881F69
:10471000DAF7880F9695879597F9089557FD905881
:10472000440F551F59F05F3F71F04795880F97FB75
:10473000991F61F09F3F79F087950895121613062F
:104740001406551FF2CF4695F1DF08C0161617065E
:104750001806991FF1CF8695710561050894089593
:10476000E894BB2766277727CB0197F908950E9425
:10477000CA230C943B240E942D2438F00E94342438
:1047800020F0952311F00C9424240C942A24112455
:104790000C94B1230E948E2370F3959FC1F3950F63
:1047A00050E0551F629FF001729FBB27F00DB11DB5
:1047B000639FAA27F00DB11DAA1F649F6627B00D45
:1047C000A11D661F829F2227B00DA11D621F739F2E
:1047D000B00DA11D621F839FA00D611D221F749F3C
:1047E0003327A00D611D231F849F600D211D822F83
:1047F000762F6A2F11249F5750409AF0F1F08823AA
:104800004AF0EE0FFF1FBB1F661F771F881F9150D6
:104810005040A9F79E3F510580F00C9424240C943D
:10482000B1235F3FE4F3983ED4F38695779567957F
:10483000B795F795E7959F5FC1F7FE2B880F911D00
:104840009695879597F9089597F99F6780E870E0A6
:1048500060E008959FEF80EC089500240A941616F6
:10486000170618060906089500240A94121613065E
:10487000140605060895092E0394000C11F48823EC
:1048800052F0BB0F40F4BF2B11F460FF04C06F5F08
:104890007F4F8F4F9F4F089597FB072E16F400947C
:1048A00007D077FD09D00E94662407FC05D03EF4AE
:1048B000909581959F4F0895709561957F4F0895CC
:1048C000EE0FFF1F0590F491E02D0994AA1BBB1B6E
:1048D00051E107C0AA1FBB1FA617B70710F0A61B00
:1048E000B70B881F991F5A95A9F780959095BC0121
:1048F000CD010895F999FECF92BD81BDF89A99270F
:1049000080B50895A8E1B0E042E050E00C94A22404
:10491000262FF999FECF92BD81BDF89A019700B478
:10492000021639F01FBA20BD0FB6F894FA9AF99A18
:104930000FBE08950196272F0E9489240C94882485
:10494000DC01CB01FC01F999FECF06C0F2BDE1BD4F
:10495000F89A319600B40D9241505040B8F708953E
:10496000F894FFCFFE060A070E07120716071A076C
:104970001E07220726072A072E07320736073A079F
:104980003E07420746074A07A70DA70DFF0DFF0D7B
:10499000430E5F0ED70DD70D6A0ED70D320F320FB3
:1049A0009D0FD70DD70DA60FDE210322E72203228C
:0C49B000E72233225422E722A922B5227C
:1049BC00F5012808140A321E3B1CCB1CA81C711CC8
:1049CC003E1C013331F7F6F53090946697C6F432FD
:1049DC003695913435404D3639B70B6A0B340BFB99
:0A49EC000A8E0AA70AC00AD90A00C1
:00000001FF
